:020000040000FA
:10000000008000203D120000451200004712000051
:1000100000000000000000000000000000000000E0
:100020000000000000000000000000004712000077
:100030000000000000000000491200004B12000008
:100040004D1200004D1200004D1200004D12000034
:100050004D120000751D00004D1200004D120000F1
:100060004D1200004D1200004D1200004D12000014
:10007000451E00004D1200004D1200004D12000000
:100080004D1200004D1200004D1200004D120000F4
:100090000348854601F0B2FF004800479503000081
:1000A000008000201CB500216A46117051709070CC
:1000B000D17001916B4608220121002000F0C9FC9B
:1000C0001CBD7CB5894E0C463078090408D513F068
:1000D000ADF8002801D013F081F80120C00344E0FE
:1000E000E10701D0012040E06107042500290CDA76
:1000F000FF21F531009108220190002311467088FC
:1001000003F008FE204668407CBDA0072FD570781C
:10011000FFF7C8FF7078401CC0B270701D2800D374
:1001200075700020FFF7BEFF7078FFF7BBFF707897
:10013000401CC0B270701D2800D375700020FFF7FE
:10014000B1FF7078FFF7AEFF7078401CC0B27070DE
:100150001D2800D375700020FFF7A4FF7D22120137
:100160000221307813F0ACFA022060407CBD002000
:100170007CBD30B585B05E4809F068FD5B4D01245B
:10018000287069460C706A4621465A4803F06AFF97
:1001900058482A4623320D21401C03F063FF55487E
:1001A0002A460C321721801C03F05CFF524A1521AD
:1001B000002005F0F7FB0020694600900C710872E2
:1001C000032008730C746A4604214C4803F038FB82
:1001D000012101AA880203F033FB484802AA012149
:1001E000801F03F02DFB454803AA0121401F03F0A7
:1001F00027FB424804AA0121801E03F021FB0620B0
:100200006946087001216A46084600F024F900F0AA
:10021000DBFE29463031281D00F0FDFB0121287846
:1002200013F0F8F805B030BD1CB5030009F0F8FD77
:10023000072805101F121D2B2800C12069468000C9
:1002400003F0E0FC6946012004F0DCF82CA01BE080
:100250002FA019E02548498941801922D2010421A3
:10026000007813F02DFA2EA00EE031A00CE0887873
:10027000042806D0062803D1897934A009F0A8FD06
:100280001CBD39A000E03FA009F0A2FD1CBDF8B5DF
:100290000024079E069D002B04D0012B15D0022BB5
:1002A00019D01FE03A4B9A420AD1022908D12B7883
:1002B000012B03D00D24002C02D013E00024FAE718
:1002C00000962B7800F0DCFE03E02B46009600F051
:1002D000F7FE044606E00548FF22F53202210078C9
:1002E00013F0EEF92046F8BD7047000000400020F2
:1002F000C300000005030000D0380100070400001F
:10030000496E697469616C697A65642E2E0A000011
:100310004164766572746973696E672E2E0A0000F7
:10032000436F6E6E65637465642E2E0A00000000D4
:10033000436F6E6E656374656420416476657274A4
:100340006973696E672E2E0A0000000044697363AA
:100350006F6E6E65637465642E2E20526561736FD7
:100360006E3A25780A00000057616974696E67204B
:10037000666F72206164766572746973696E672E48
:100380002E0A00004572726F722E2E0A00000000C5
:100390004D2A00000D498A6A481502438A620321EA
:1003A00001F07CF901F023FC09490AA009F010FDD5
:1003B00001F062FC01F0D4FC03F03CFD00F004FB12
:1003C000FFF7D7FE09F060FCFCE70000801000405A
:1003D000EC39010025730A0010B58F498F4804F0ED
:1003E0006FFC8F4B102218460521503804F03AFE5E
:1003F00010BD8B496839486170473EB504460079A5
:10040000C00727D06088844904F01EFEC00721D0B1
:10041000002000906088002301221B2105F0CAF90A
:100420000290002816D07E4869465038408D88805A
:100430000120C8807A48029968380078087060887E
:10044000002201A904F0FAFF002803D01B2101A813
:1004500005F0F6F93EBD10B50024012802D00224B3
:10046000204610BD6E481178683841700078884287
:10047000F6D26C480EF0DEFDF2E7694B10B50022B3
:10048000683B002809D0012809D01833022809D078
:1004900003280AD00222104610BD187800E05878D0
:1004A0000870F8E758890880F5E75D4862380478F5
:1004B0000C7140784871588D0880588F4880012011
:1004C0008871E8E770B5564D683DA868002800D0EF
:1004D0008047FF24E8682D34002800D08047A98891
:1004E000A14201D8642070BD6888A04201D30020D9
:1004F00070BD2A69002A02D02046904770BD091AB3
:10050000491C0904201A1922890C50434018401E26
:1005100001F0D0FCC0B270BD10B5FFF7D3FF404969
:1005200068390A78904203D208703E480EF082FD86
:10053000002010BD30B53A48049D6838039C4180C6
:100540008280083038C030BD70B5049800241D4644
:100550001646002801D00B2070BD48684278037809
:100560001002314A184390420CD1FFF7ABFF2C49DF
:1005700068390A78904200D20870012028800878F3
:1005800030700BE0294A904207D1022028800246B1
:10059000C968304612F034FD00E00A24204670BDE0
:1005A0007CB54C6815466278247812022243204CB0
:1005B000069EE24208D10122019200962A4604F0EA
:1005C000E5FB040003D000E00A2420467CBD6878E7
:1005D0002978000208431249683949690029F4D092
:1005E000002802D001208847EFE70220FBE710B582
:1005F00004460A48401E84420DD0012907D0022932
:1006000009D1012120460EF07DFD002803D10249C9
:10061000204604F055FB10BD48670020FFFF000096
:10062000A8400020FB030000192A00000829000050
:10063000FED6FFFF10B56E4B102213216D4804F05B
:1006400011FD10BD10B500241346002802D002246D
:10065000204610BD67480A461946093812F0D0FCFA
:10066000F6E770B50D460024030009F0D9FB090632
:100670000A1014181C2024282C005E49082209396D
:1006800001E05D490D22284612F0BAFC1CE05A49EF
:100690000E220D31F7E7584912221B31F3E7564974
:1006A00012222D31EFE7544912223F31EBE7524934
:1006B00012225131E7E750490E226331E3E74D49F9
:1006C00007221039DFE70224204670BDF8B54968DB
:1006D00094464A78097817020F430698474A112131
:1006E0000025079CBE1A091A974244D009DC444AE7
:1006F000BA1813D0012A1DD0022A26D0032A08D105
:100700002FE0012E41D0022E49D0032E51D0292EA8
:100710005BD0002018800A252846F8BD082856D24C
:100720000821091AA14200D80C463249A2B21A8007
:10073000093957E00C284AD20C21091AA14200D8E5
:100740000C46A2B21A802C494CE00D283FD20D2154
:10075000091AA14200D80C462749A2B21A800D31CD
:1007600040E0112833D2A14200D80C462249A2B25F
:100770001A801B3136E0112829D2A14200D80C463C
:100780001D49A2B21A802D312CE011281FD2A1429E
:1007900000D80C461849A2B21A803F3122E0112835
:1007A00015D2A14200D80C461349A2B21A80513189
:1007B00018E00E280BD20E21091AA14200D80C46CF
:1007C0000D49A2B21A8063310CE0072801D3072536
:1007D000A2E70721091AA14200D80C460549A2B296
:1007E0001A8010390918604612F00AFC94E70000DC
:1007F000F8410020C840002010390100272A0000DD
:10080000DDD5FFFF704710B5FE4B012806D002284A
:1008100003D10221987912F0B5FF10BD1878042891
:10082000FBD1F94A0221987912F04AFF10BDFEB5BA
:10083000064600201746F34C0D4603460A46009034
:100840001B21208904F0B6FF0290002813D06846CF
:100850008680C5802A463946029812F0D1FB0022D4
:1008600001A9208904F0EAFD040005D01B2101A89C
:1008700004F0E6FF00E013242046FEBD30B5E14A57
:100880000446E24BD068D2791B780BE00579A5428B
:1008900005D145798D4202D185799D4205D0521E00
:1008A000D2B20830002AF1D1002030BDFFB581B0AE
:1008B00015460E460746FFF7E1FF04001CD060888E
:1008C000694604F0A1FC002816D0C168CD48008913
:1008D00004F0BAFBC0070FD020882946049AFFF71E
:1008E000A6FF002808D1CA482A46077046708570BE
:1008F000C01C049912F084FB05B0F0BD70B5C14D69
:100900000C4608040AD5A87912F090FC002801D002
:1009100012F064FC01212046C9030AE0E0070AD076
:10092000B84AA87920321146083903F067FB2046FF
:100930000121484070BDB348610700780CD50428F8
:1009400008D1B4A009F044FAA878002802D1288977
:1009500003F04EFC04200BE0A1070BD5042806D1C0
:10096000FFF7DAFDA84A0221A87912F0A9FE0220B9
:10097000604070BD200725D56878082126464E4086
:1009800000281BD028796979884201D1002309E029
:100990000B21401C01F078FA29710B2041439C483F
:1009A0000B300B18002B05D09A7859781878DB1C7F
:1009B000FFF77CFF28796979884201D1304670BD04
:1009C000204670BD002070BD38B5974809F03EF94B
:1009D0008C4C6946A0710120087001466A46934814
:1009E00002F02EFF0025ED43284604F031FF284693
:1009F00004F01EF9FFF71EFEFFF7EEFC00F086FB89
:100A00008B48FFF7F6FC8B4800F08DFB0121A079A5
:100A100012F000FD38BD7B4A116150617047794A80
:100A2000D160D071704708B53021032004F02CF854
:100A30005021042004F028F83C21012004F024F87F
:100A400001206946087001466A467B4803F00AFBAC
:100A500008BDF8B50E466B49074608781C46154692
:100A600004281AD0022826D000F062FA002820D0EC
:100A70002021032004F008F83021042004F004F8B9
:100A80000521012004F000F80120694608700146A4
:100A90006A46694803F0E6FA0DE0487800280AD073
:100AA00008794979884206D131463846FFF7FEFE7B
:100AB000F8BDFFF7B8FF23462A463146384600F016
:100AC00042FAF8BD08B54F480178042908D0002043
:100AD000694608706A460121574803F0C3FA08BD09
:100AE000008903F085FB08BDF8B50024002802D07A
:100AF00002242046F8BD002901D01824F9E7444F0C
:100B000079783878FFF7BAFE05001CD0BA78F91C5E
:100B10000023082A09D8002004E00E5C9E4204D17C
:100B2000401CC0B29042F8D308E00021F81C12F03B
:100B300039FBB9782888FA1CFFF779FE0B220021CF
:100B4000334812F02FFB2F4D2878042802D1288932
:100B500003F04EFB002068712871024601464120D7
:100B6000000102F06DFEC4E7022070470A4601460C
:100B700010B52448008902F049FC10BD10B5214988
:100B80000246224BC868C9791B7808E00488944261
:100B900002D184799C4205D0491EC9B2083000298F
:100BA000F4D1002010BDFEB517464A681D465478A2
:100BB0001278089824020026099B1443002804D0C8
:100BC0001E4A944201D00B20FEBD1C4A921C944246
:100BD0000AD01A4A293A944206D0184A193A94423D
:100BE00002D0521C944232D14889FFF7C7FF002837
:100BF0002AD001970095034A4179126900790123AF
:100C000015681DE00C420020983A00004242002086
:100C1000586700206869642069646C6520657665A2
:100C20006E742E2E0A000000FD080000140400005F
:100C30000708000005080000050300004B2A00001B
:100C40002246A847064635E00020288032E0D54AF3
:100C500094420ED1D44A1288904201D3072629E04B
:100C6000121A9A4200DD1A4692B22A80C9680918FF
:100C70001DE0CC48401E844204D104202880C9686D
:100C8000024614E0C94A022094420DD0C54AD21C43
:100C9000944205D101202880C8680078387009E0A6
:100CA000C24A521E944205D12880C96802223846A1
:100CB00012F0A6F93046FEBDFFB583B084460C980D
:100CC000002416460F46002802D00B2007B0F0BDC6
:100CD00079684A78097815020D43B249891C8D421A
:100CE00003D0B04919398D4211D17889FFF746FFF9
:100CF000002856D006A901960091AD4A41791269A3
:100D00000079146800232A46A047044649E0A54913
:100D10006A46491C138B8D420AD1012B40D1307891
:100D2000002801D0012843D1002849D0012047E004
:100D30009E49891F8D422DD101210191009032469B
:100D40003946604604F022F804002AD170783178E0
:100D500002020A4396497B89C868C97905E0478839
:100D60009F4205D0491EC9B208300029F7D10020A2
:100D7000002816D006A901960091012A08D0032365
:100D80008B4A41791269007916682A46B04708E013
:100D90000223F5E78348C01C854202D1012B02D013
:100DA0000D24204692E73078002803D0012801D096
:100DB0008024F6E7F96808703078002805D0032011
:100DC0007B49096949688847EBE70220F8E7F8B5ED
:100DD000774E0421B07912F0D5FC01213089FFF75C
:100DE00006FC0121308900F009FA37897148F5685D
:100DF000874212D0F4790EE06888002808D069464E
:100E000004F002FA002803D0C168384603F058FF06
:100E1000641EE4B20835002CEED1002066497070E3
:100E200001240C70B07001460B22644812F0BAF92C
:100E300000F07EF8002816D070690079800712D57E
:100E4000A021032003F020FEA021042003F01CFEBB
:100E50000021012003F018FE684604706A46012153
:100E6000574803F0FFF8F8BDF8B50027504D0E467F
:100E70000446042803D0287804280BD012E0708997
:100E800028816F70684607706A4601214C4803F05C
:100E9000E9F807E0FFF79BFFE878042802D1FFF7A5
:100EA000C2FDEF702869002805D0C268002A02D070
:100EB0003146204690472C70F8BD10B501203C4CBF
:100EC000002904D0012904D0022909D00EE0A07025
:100ED0000CE00021A170002A00D16070E27005E0F2
:100EE000002A03D16070208900F032F920796179FD
:100EF000884206D06078002803D00821A07912F03B
:100F000089FA10BD38B50D4629490969002905D06F
:100F10008C68002C02D02946A04738BD6946294874
:100F200002F0C6F800212846009A02F06FFA38BD98
:100F300008B500206946087022480E3002F0B8F863
:100F40006946087808BDFFB581B016460746FFF729
:100F5000EFFF002824D0164C0B216079401C00F0D4
:100F600093FF617120790D46814204D10B21401C11
:100F700000F08AFF21710B204543104832460B30A8
:100F800047552818029941708670C01C049912F0C8
:100F900037F86078002803D00821A07912F03AFAD7
:100FA000AAE400004B2A0000384200200829000073
:100FB0000C420020FEFF0000424200205867002043
:100FC0000503000007040000F8B54B4C49492046D2
:100FD00003F076FE47492046103103F071FE474B7F
:100FE00010221A21464804F03DF800904448C16997
:100FF0000220FFF742FA42493E4809390F78383853
:1010000007714E784671C9314A890280498B418007
:101010003B4901228271C91F0D780573374B4C780B
:101020004473A03B59890181002141818273077576
:1010300046755B8F0382314B603B5E8946828175CA
:10104000057744775B8D03832D4C41838177641F43
:101050000346257820331D7164785C71274C203C51
:1010600064890484418401469A7128310320FFF782
:1010700004FA204907203839FFF7D1FC0098F8BD61
:1010800030B5204D00205219039C1F4D13D01B2A50
:1010900004D1022903D0032908D00A2030BD012B36
:1010A00002D12178297030BD0D2030BD012BFBD13C
:1010B0002178A97030BD012BF6D12178697030BD3F
:1010C00070B5104C012512190F4C0498002A0FD04E
:1010D00000261B2A03D1022903D0032903D01E8036
:1010E00004E0217800E0A17801701D80002070BD2F
:1010F0006178F9E714680020FFFF0000F04300204A
:1011000050420020CED5FFFF4442002010B5464992
:10111000464803F0D5FD464B10221846062160389C
:1011200003F0A0FF10BD42496839086070470220F3
:1011300070473F4B02460020643B002A03D0012A3F
:1011400003D0022070471A8800E05A880A8070474E
:101150003EB50446344903F077FFC0071ED0002592
:101160002B4601221B212046009504F023FB029010
:10117000002813D02E4869462038408B88800120F3
:10118000C88002980022057001A9204604F056F993
:10119000002803D01B2101A804F052FB3EBD002013
:1011A0007047FEB5089E00241546002E01D00B2086
:1011B000FEBD4F687A783F7812023A431D4FBA421B
:1011C0000ED1042B01D00D2416E0C8681A4629461A
:1011D00011F016FF164901206839096888470BE0AD
:1011E000154CA24207D10122019200962A4603F033
:1011F000CDFD044600E00A242046FEBD10B504469D
:101200000A48401E84420DD0012907D0022909D185
:10121000012120460DF076FF002803D10249204627
:1012200003F04EFD10BD000034680020FFFF0000F9
:10123000704400204F2A0000022900000448804723
:1012400004480047FEE7FEE7FEE7FEE7FEE7000092
:10125000591200009100000010B5FE48572101709E
:10126000A8210170FB4A8821403A118100210170B8
:101270000A2000F07FFC012000F027FB10BDF0B534
:10128000F44EF44D04275722A824203E403DF14956
:10129000030008F0C5FD0D080E161B1F24282C3274
:1012A000373C41462F000A700C70F07BFB22104047
:1012B00003E00A700C70F07B3843F073C82028817B
:1012C00018E00A700C705120C000F8E70A700C702A
:1012D000E148F4E70A700C7081208000EFE70A70A3
:1012E0000C708820EBE70A700C700220E7E70A70A8
:1012F0000C702F8100200870F0BD0A700C709320D4
:101300008000DCE70A700C70D3484D30D7E70A70D4
:101310000C7095208000D2E70A700C704B20C00042
:10132000CDE70A700C70CC485C30C8E7C94810B5EE
:1013300040380089C1B20B069A0FC848022A05D06E
:10134000012A04D09A0F06D07D20000210BDC906E4
:10135000C90EC34801E0C906C90E00F095FD10BDD5
:10136000BC4A57211170A8211170BA4940394B1558
:101370000028088904D018430881002010707047A5
:101380009843F9E7B34A57211170A8211170B14968
:1013900020390028C87B05D004231843C8730020D7
:1013A00010707047FB231840F8E7FEB5A9480027E6
:1013B00040380089FE1EC0B201068A0F022A4CD0B6
:1013C0000124A403012A4BD0890F55D00524002005
:1013D00000902005000D01909E4820388489002649
:1013E0009C49572330460B70A8250D7001228A7442
:1013F000984957220A70A8220A70964A203A948186
:1014000000220A708A7C9207FCD50A8A8A7C92079D
:10141000FCD48A7C9207FCD5098A019A7F1C891A20
:101420000DB2FFB2002D35D02946714305D50128F4
:1014300032D0411C30D000282ED02E4602943046A7
:10144000009900F037FD00B2211A8CB202998C424B
:1014500047D1002D43DD641C42E0824C0096B8E782
:10146000C506ED0E2946804800F00EFD0019C40B9C
:1014700024202946C04309E0C506ED0E29467B48D5
:1014800000F002FD0019C40B2946304600F012FDA1
:1014900000B29DE70020FEBD002E03DA761EF04369
:1014A00006B202E06D1EE84305B2B5420FDD6948A1
:1014B00057210170A8210170664A0299203A918152
:1014C000002101707D20C0007043019903E07D2060
:1014D000C0006843114600F0EDFC80B2FEBD641E02
:1014E000A4B2142F84D3FF20FEBD70B50D46144660
:1014F000182100F0C9FC83B2E120C00041431E2046
:10150000454348196108401881B2E00701D0012025
:10151000C0030A0402434F4957200870A8200870EE
:101520004C4C403C63634B482038437C80252B4324
:1015300043746263427C40231A4342740020087063
:1015400070BDF7B5064643480D464038C06B84046D
:101550004048A40C2038418B008B01224900D20363
:10156000904201D3012000E000200F18E121090181
:10157000384600F089FC18225443001930600846B0
:101580003C2100F081FC28803C21384600F07CFCA6
:1015900002980180FEBD2F4957220A70A8220A70C6
:1015A0002C4A403A50632B482038427C40231A434F
:1015B000427400200870704726494039886B8A6B56
:1015C0008242FBD1704710B5224A57211170A821E1
:1015D0001170204920394B7CE82423404B744B7C0C
:1015E0001024204303434B740020107010BD00B53D
:1015F0000346FFF7E1FFC0180104090C02D00121E6
:1016000009044018134957220A70A8220A70114A87
:10161000403A50630F482038427C20231A434274DA
:101620000020087000BD0021002802D0012802D04F
:1016300002E0202100E01021064857220270A82273
:101640000270044A203A537C8B435374002101708A
:101650007047000040100040020200000048E8010E
:1016600000389C1C1313000000180D8F00688909B6
:1016700009490028087C02D040210840E8E7C00959
:10168000C001E5E70449002804D00128E0D110207A
:101690000874DDE72020FBE72010004000B5524A27
:1016A0000B0008F0BDFB0504071016191F00516B55
:1016B00081430AE0516B81435163116B0143116314
:1016C000116A81430DE0516B01435163116B8143FA
:1016D000F5E7516B814301E0516B01435163116A9E
:1016E0000143116200BD404A00B540320B0008F0D2
:1016F00097FB0504071016191F00516981430AE082
:10170000516981435161116901431161116881433C
:101710000DE051690143516111698143F5E7516958
:10172000814301E051690143516111680143116036
:1017300000BD2D4A002906D0012907D0022908D072
:10174000032913D10CE0918A814304E0918A8143FB
:1017500008E0918A01439182D16A0143D16205E098
:10176000918A01439182916A014391629083118A27
:101770000143118270471C4B1B4A4033002906D09D
:10178000012907D0022908D0032913D10CE0D18AFE
:10179000814304E0D18A814308E0D18A0143D182A8
:1017A000D9680143D96005E0D18A0143D1829968A3
:1017B00001439960D083518A0143518270470A4A9C
:1017C000803A0028108B01D0084300E08843108342
:1017D0007047054A803A0028508B01D0884300E0CA
:1017E000084350837047000080100040F8B5B34DA7
:1017F0005726B24CA827203D00282670277028883D
:101800000ED02115084328800A2000F0B3F9267075
:101810002770288861150843288000202070F8BDB3
:10182000032149028843F7E7F0B5A44C57261C2250
:101830008B07A24DA8270A409B0F403C00282E7022
:101840002F7010D0080603D5E07BFD210840E0731F
:10185000A07A1043A07299482038C17B1943C17304
:1018600000202870F0BD080603D5E07B0221084364
:10187000E073A07A9043A07290482038C17B9943CE
:10188000EDE730B58D4C57238C4AA825403C002805
:1018900013701570E06804D08843E0600020107079
:1018A00030BD0843F9E730B5844C5723834AA82557
:1018B000403C002813701570A07B04D00843A0732F
:1018C0000020107030BD8843F9E7F8B57B4D5726EE
:1018D0007A4C0021A827203D0028267027700ED0C2
:1018E00001206871287100202070012000F042F969
:1018F000267027700D20287100202070F8BD2971F6
:101900002170F8BD6E48016904229143016130BF26
:101910007047F0B4694940390889030A1B0208205E
:101920000343664857240470A8250570CA7BF72630
:101930003240CA73614E0022203E72710B810270E8
:101940005F4B1E6904273E431E6130BF0270047066
:1019500005700B89802423430B810270F0BC0120A9
:10196000B3E7F0B45549403908890822030A1B023D
:101970001343524857240470A8250570CE7B1643A4
:10198000CE734E4E0022203E72710B8102704C4B82
:101990001E6904273E431E6130BF0270047005704B
:1019A0000B89802423430B810270F0BC01208CE75B
:1019B000F0B4424957230B70A8240C70414A3F4EA3
:1019C0001043203E3080002008703C4A403A158980
:1019D00008272D0A2D023D430B700C701581707184
:1019E0000870374D2E6904273E432E6130BF0870C2
:1019F0000B700C7013898024234313810870F0BC92
:101A0000012062E7F0B42D4957230B70A8240C7015
:101A100009221203294E8018203E308000200870D1
:101A2000264A403A158908272D0A2D023D430B709E
:101A30000C70158170710870214D2E6904273E438A
:101A40002E6130BF08700B700C7013898024234303
:101A500013810870F0BC012037E7184A5723137030
:101A6000A824147015494039887B082528438873B9
:101A70000920124D0003203D288000261670886B37
:101A80008F6B8742FBD10A3007043F0C02D001273D
:101A90003F04C01930272F741370147048632F202F
:101AA00068741670137014700889C02398430881F5
:101AB000167040BF20BF20BFFEE70000401000406E
:101AC00000ED00E0049000003C49062805D049796B
:101AD00001228240114008467047087808210840DA
:101AE0007047364857210170A82101708179012281
:101AF000114381710021017070473149096801600B
:101B000000202F49C0438031086070472C4908608D
:101B100070472C4880697047284957220A70A822CC
:101B20000A700028887905D00422104388710020AB
:101B300008707047FB221040F8E7204957220A70CE
:101B4000A8220A700028887905D0022210438871E3
:101B5000002008707047FD221040F8E71748572111
:101B60000170A82101708179102211438171002137
:101B70000170704700220AE0022101E000BF00BFAF
:101B80000B46491E89B2002BF8D1521C92B28242F8
:101B9000F2D3704770B500247D260546F60004E0B8
:101BA0003046FFF7E7FF641CA4B2AC42F8D370BD27
:101BB0000549CA7A082AFCD00872704740100040D4
:101BC00000E100E000E000E00034004010B5044611
:101BD000FFF7ACFB0A214843C008214600F054F946
:101BE0000A21401D00F050F92249888110BD10B52E
:101BF000E1204002FFF7EAFF1E48872181700321A0
:101C0000C170402141700121817310BD19498A784A
:101C10009206920E800102438A707047154A00288E
:101C2000507806D00843507010780821084310708F
:101C300070478843507070470E4980204870704745
:101C40000C4A07E0D37A082B04D003781372491E9C
:101C500089B2401C0029F5D1704701460020054A91
:101C600004E0137A401C0B7080B2491C937A002B5D
:101C7000F7D170470034004030B58DB012224CA12E
:101C8000504811F0AFF900283FD04F48572101705C
:101C9000A821017051214C4AC900403A118100210C
:101CA00001704B48494A42614A4A0724D3691B02E2
:101CB0001B0A45042B43D36181610461016902223F
:101CC0009143016134220021684611F06BFA4248C9
:101CD000009001204003694688801B20C8730A20B9
:101CE00008740120487415208874FB20800202903B
:101CF0000D20087739480890684601F07BF801000C
:101D000007D037A008F064F8FEE73DA008F060F8BF
:101D1000FEE70DB030BD70B50C46090408D511F0D2
:101D200085FA002801D011F059FA0120C00302E021
:101D3000E00702D00120604070BD60040ED535A0E0
:101D400008F046F8012534487D22AD03D20129462A
:101D5000007811F0B5FC2046684070BD002070BDD1
:101D600010B52E4807F072FF2B49087000F072F88A
:101D700062B610BD10B500F0E1FF10BD30B51249DC
:101D8000CC7E0B7E4A7EC87E80252843C8760F20F5
:101D9000087621204876887E012528438876887E2B
:101DA000C007FCD1888BCC760B764A7630BD00001C
:101DB00043483537785F424C455F4C49425F563166
:101DC0002E340000EC39010040100040FEFFFF00FF
:101DD00000E000E004ED00E048470020131B000095
:101DE0004C494220696E6974206572726F7220637B
:101DF0006F64653A202578202E2E2E0A0000000000
:101E0000686561642066696C65206572726F722E08
:101E10002E2E0A002A2000007D440020171D0000FD
:101E20000104090C02D00121090440181449572269
:101E30000A70A8220A7012494039486311490020EB
:101E4000086070470E493020203908740D49012080
:101E50000860704710B50A4857210170A821017029
:101E600007492039CA7B07231A43CA73002101702E
:101E70000A460846FFF739FB002007F055FF10BD62
:101E8000401000408044002030B50B460146002041
:101E90002022012409E00D46D5409D4205D31D4670
:101EA0009540491B2546954040191546521E002D68
:101EB000F1DC30BD70B500242546002801DA01248C
:101EC0004042002901DA01254942FFF7DDFFAC421B
:101ED00000D04042002C00D0494270BDF0B51FB484
:101EE00086B000200090019002900698069980B27A
:101EF00004900798090C020400141143079000276E
:101F0000089D099806913E463C4603900398A9B265
:101F10000204000C039004982D0C15434843002143
:101F2000224600F018F8C719714110340E46402CB3
:101F3000ECDB3846029A00F00EF8009A019B8018FC
:101F40000090594102980191103002904028CCDB5A
:101F500000980BB0F0BD10B5202A04DB0146203AF2
:101F60009140002010BD914020239C1A0346E3407D
:101F70001943904010BD03460B439B0703D009E073
:101F800008C9121F08C0042AFAD203E00B780370B4
:101F9000401C491C521EF9D27047F0B51FB40646CA
:101FA000002082B005464024019100901BE0019979
:101FB00022460F46304600F033F8049A059B801AFB
:101FC000994110D3104619462246FFF7C4FF361A2E
:101FD0008F410197224601200021009FFFF7BBFFA0
:101FE00038184D4100902046641E0028DFDC019B1C
:101FF00000982946324607B0F0BD0000064C012586
:10200000064E05E0E36807CC2B430C3C98471034A0
:10201000B442F7D3FEF740F8E43D0100043E01006E
:1020200010B5202A04DB0846203AD040002110BD1C
:102030000B46D340D0402024A21A914008431946B1
:1020400010BD70B58C180578401C6B075B0F01D173
:102050000378401C2A1106D10278401C03E0067860
:102060000E70401C491C5B1EF9D12B0705D40023C0
:10207000521E0DD40B70491CFAE70378401CCB1A92
:10208000921C03E01D780D70491C5B1C521EF9D593
:10209000A142D8D3002070BD70B50D46014614464C
:1020A000104600F047FF0E4830C004F0A3F80020AF
:1020B00000F09EFD012407F0B9FC07F099FC06F042
:1020C0006BFA204600F094FD641CE4B20A2CF2D3B3
:1020D00007F0ACFC07F08CFC0A2000F089FD70BD15
:1020E0003C47002010B5124C2068C0051FD50320C6
:1020F000206000200821401C2268C0B20A432260F0
:102100000EE02268920510D4222807D90948026BF4
:10211000002A0AD001210320904706E0401CC0B2EB
:102120002268D205EDD50028E5D10020206010BD41
:1021300080C300405C680020F8B514460D46064692
:10214000FFF7D0FF504F3B6818680621884318609E
:102150007178307809024018B178F27809041206D3
:102160008918401898627179307909024018B1795C
:10217000F2790904120689184018D862717A307A07
:1021800009024018B17AF27A090412068918401837
:102190001863717B307B09024018B17BF27B090424
:1021A000120689184018586369782878090240187F
:1021B000A978EA78090412068918401898616979A3
:1021C000287909024018A979EA79090412068918C0
:1021D0004018D861697A287A09024018A97AEA7AFF
:1021E00009041206891840181862697B287B0902C5
:1021F0004018A97BEA7B0904120689184018586226
:1022000058680221884358605A68012002435A6086
:102210001A6802431A6058688007FCD558688843DA
:1022200058609869207038688069000A6070386862
:102230008069000CA07038688069000EE070386812
:10224000C1692171C169090A6171C169090CA17172
:10225000C169090EE171016A2172016A090A61729C
:10226000016A090CA172016A090EE172416A2173C7
:10227000416A090A6173416A090CA173406A000E40
:10228000E0730020F8BD0000BC46002070B50C468D
:102290000546FFF727FF1C48026810682021884385
:1022A000E907890E084310608034A06C1061E06C6F
:1022B0005061A0699061E069D061206A1062606A33
:1022C0005062A06A9062E06AD062206B1063606B1B
:1022D0005063A06B9060E06BD060D068E16B884287
:1022E0000AD11069A16C884208D00848026B002A04
:1022F00002D0022103209047012070BD10684021C8
:1023000008431060002070BDBC4600205C680020BF
:1023100070B50C460546FFF7E5FE1C4802681068DC
:1023200020218843E907890E084310608034206C1F
:102330001061606C5061A0699061E069D061206AB1
:102340001062606A5062A06A9062E06AD062206B9C
:102350001063606B5063A06B9060E06BD060D068DE
:10236000E16B88420AD11069216C884208D0084884
:10237000026B002A02D0032108469047012070BD5D
:102380001068402108431060002070BDBC4600204A
:102390005C68002010B504F00FFD024903F051FB0A
:1023A000002010BD0604000010B50DF0B9FD10BDF1
:1023B00008B5002808D0002906D0002A04D01088CB
:1023C000002801D0002008BD1220694608706A4626
:1023D0000121034803F031FB6946087808BD00007D
:1023E000350C000008B504F069F9694608706A46C2
:1023F0000121034803F021FB6946087808BD00006D
:102400001120000008B504F027FA694608706A46F2
:102410000121034803F011FB6946087808BD00005C
:1024200010200000FEB508AF70CF6F4670C704F0F3
:1024300039FA0446024903F004FB2046FEBD0000C1
:102440001320000008B504F0A7FC694608706A462E
:102450000121024803F0F1FA002008BD0E2000001F
:1024600038B5044604F092FE694608704C70200AA4
:1024700088706A460321024803F0DFFA002038BD65
:102480001B20000038B5044604F098FE6946087029
:102490004C70200A88706A460321024803F0CDFA86
:1024A000002038BD1A2000000EB500A8013005F04C
:1024B00020FA694608706A460921024803F0BDFA0D
:1024C00000200EBD1820000008B500A8013004F05F
:1024D000DFFD694608706A460421034803F0ADFA3F
:1024E0006946087808BD00000220000038B504469F
:1024F00005F05AFA694608704C70200A88706A46DE
:102500000321024803F099FA002038BD2120000081
:102510007FB5044608A861C8009002960195204640
:1025200005F05AFA694608734C73200A887303AAA7
:102530000321034803F081FA002004B070BD0000BD
:102540002020000008B505F0EFFC694608706A46D7
:102550000121034803F071FA6946087808BD0000BC
:102560000820000008B505F069FC694608706A4655
:102570000121034803F061FA6946087808BD0000AC
:102580000A200000F0B585B00AACF0CC03976F4686
:1025900070C705F0E9FC6946087404AA01210348E4
:1025A00003F04BFA6946087C05B0F0BD0620000038
:1025B00008B505F02FFD694608706A4601210348F9
:1025C00003F03BFA6946087808BD000005200000CA
:1025D00008B505F05DFD694608706A4601210348AB
:1025E00003F02BFA6946087808BD00000C200000B3
:1025F00008B505F091FD694608706A460121034857
:1026000003F01BFA6946087808BD000009200000A5
:1026100010B505F0E8FD024903F013FA002010BDE3
:102620001920000010B504F009FE10BD1CB500A86B
:10263000013005F06DF9694608706A4607210348C4
:1026400003F0FBF9694608781CBD00000910000082
:1026500010B5D2B205F074FB10BD0A7802708A780A
:1026600042704A88120A82700979C170042070474A
:102670000A7802700988090A4170022070470888A8
:102680008004000C70478A780270887801280888D6
:1026900004D012214843401C80B270478000FAE702
:1026A0000A7802700A88120A42704888801C80B238
:1026B00070470A7802700A88120A42708A7882701B
:1026C0004A88120AC2708888001D80B27047088844
:1026D00070478A780270088849884843401C80B255
:1026E00070478A780270088849884843401C80B245
:1026F000704708887047088870477FB515460446BC
:10270000022901D0102903D1022B04D0102B02D0B2
:10271000002004B070BD994202D10A46294607E064
:102720001029694607D000F00DF8102269462846A6
:1027300010F058FCEDE7104600F004F8102269464E
:102740002046F5E770B50C4605000CD0002C0AD0E9
:1027500010220649204610F053FC28782073687830
:102760006073012070BD002070BD0000943A01002C
:1027700008B500220B4600920122024907F01EFD17
:1027800008BD00005B26000008B50A88172A07D399
:1027900000220B4600920322024907F00FFD08BDFC
:1027A000022008BD7126000008B500210B46192241
:1027B000009107F003FD08BD38B5054608880C46B2
:1027C00000280DD0606800280AD0012110F0C6FB57
:1027D0000090234607220349284607F0EFFC38BD46
:1027E000022038BD7F26000038B5054688780C46A3
:1027F000012801D0022810D1208800280DD060685F
:1028000000280AD0022110F0A9FB009023460522DF
:102810000349284607F0D2FC38BD022038BD00002D
:1028200087260000064910B5884202D103F072FDE8
:1028300010BD0CF0B7FB0028FAD1172010BD000026
:10284000FEFF000038B505464A6800200C46002A05
:1028500003D00321104610F081FB009023461D2277
:102860000249284607F066FC38BD0000A12600009A
:1028700038B505464A6800200C46002A03D00321DB
:10288000104610F06BFB009023461B22024928469D
:1028900007F050FC38BD0000A126000002480021CE
:1028A0000160416070470000D84600200098022B6C
:1028B00001D0042070475178127809021143018039
:1028C000002070470098012B01D004207047117838
:1028D00001700020704770B5049C1E461546062BFB
:1028E0001BD368782978000208432080E878A9780B
:1028F000000208436080022020710246291D601DED
:1029000010F07EFBB01F2081062E03D0AD1DE560C8
:10291000002070BD0020E060FAE7042070BD009840
:10292000042B01D004207047517813780902194311
:102930000180D178927809021143418000207047CC
:10294000F8B584890D46002C2BD086683778390677
:1029500001D4002010E00D2C23D30C3CA4B231197B
:102960000091408823463246012106F0C9FF002825
:1029700001D0022000E0012079062870C90FBA06B4
:102980006970920EAA70641E2204120CAA8002D0F2
:10299000761CAE6001E00022AA60022803D1002963
:1029A00001D00120F8BD0020F8BD10B50298042B1D
:1029B00014D351781478090221430180D178947896
:1029C000090221434180191F8180042B02D0121D6E
:1029D000826001E000218160002010BD042010BD54
:1029E0000098042B01D00420704751781378090215
:1029F00019430180D1789278090211434180002067
:102A0000704710B502981146062B03D0142B03D043
:102A1000042010BD022200E0102202714A780B78D7
:102A200012021A430280CA788B7812021A4342803B
:102A30000279401D091D10F0E3FA002010BD009836
:102A4000D90706D1022B04D05908818002600020EA
:102A50007047042070470098022B01D00420704773
:102A6000517812780902114301800020704710B597
:102A7000029C022B11D320726172507811780002EF
:102A800008432080981E6080022B02D0921C626056
:102A900001E000206060002010BD042010BD000097
:102AA00038B5054688680C46002802D0052110F08C
:102AB00055FA0090234617220249284607F07EFB6C
:102AC00038BD0000B326000038B5054648680C46FE
:102AD000002802D0012110F041FA009023460D2277
:102AE0000249284607F06AFB38BD0000CF260000E7
:102AF00038B5054608880C4600280DD060680028C7
:102B00000AD0022110F02AFA00902346112203492C
:102B1000284607F053FB38BD022038BDD3260000FD
:102B200038B5054608880C4600280DD06068002896
:102B30000AD0022110F012FA00902346092203491C
:102B4000284607F03BFB38BD022038BDE3260000D5
:102B500038B5054648680C4600280AD0012110F017
:102B6000FDF9009023460F220349284607F026FB73
:102B700038BD022038BD0000F326000038B50546F8
:102B80004A6800200C46002A03D00121104610F0AC
:102B9000E5F9009023460B220249284607F00EFB78
:102BA00038BD0000F72600000149086070470000AA
:102BB000D846002070B5054608480C46854205D029
:102BC000172C03D303F0A6FBA04201D2012070BD55
:102BD000214628460CF0A6FA70BD0000FEFF00005A
:102BE00008B500210B461322009107F0E7FA08BD53
:102BF000F0B50D4A002180000C4D166884466246EF
:102C00005218930000208A0092191F18145CEF5D7F
:102C10007C401454401CC0B20428F6D3491CC9B2ED
:102C20000429ECD3F0BD00003C470020246B0020B9
:102C300007484179FF2901D1252141710548C9B2D1
:102C400001430548006801600449C1627047000003
:102C5000AC68002080220801C0460020384E0100E8
:102C600010B580060A49800E0A4A48711068446807
:102C7000FF2301339C4344604879074908430749CF
:102C800009680860106841681943416010BD000080
:102C9000AC680020C846002080220801C046002001
:102CA00080060449800E48710349084303490968B6
:102CB00008607047AC680020C0220801C0460020B0
:102CC00010B51149FF204871114A10481060124A8E
:102CD00010481060124A11481060134A11481060E1
:102CE000134A12481060134C01222068D202C860B7
:102CF0008018086100F0FCF8607D002802D10E49C0
:102D00002020086010BD0000AC68002000C000401A
:102D1000C446002000C30040BC46002000C2004062
:102D2000A044002000D00040C846002000C1004060
:102D3000C04600205C68002000E100E0F0B52A48B1
:102D4000006881685D27890700250126274C002936
:102D500006DA8168022291438160E670A5700765FA
:102D60008168C90705D081684908490081602570DC
:102D700066708168C90515D58168FF2201329143CB
:102D800081602178490605D5194B996BA1609A6B32
:102D90009142FAD12178314321706570E179062999
:102DA00000D007658168890508D581680122520233
:102DB00091438160A1783143A170E5708168C906B3
:102DC00003D581681022914381608168490703D54A
:102DD00081680422914381608168090703D5816875
:102DE000082291438160F0BDA0440020AC6800201F
:102DF0000010004070B53D4D0446687D002805D1A7
:102E0000016D406D814201D1012070BD2068002814
:102E100018D00121000C4903884213D1A088002852
:102E200010D020460622FF21163010F0CCF80128E1
:102E30000AD0A068002809D07D21C902884205D2A5
:102E4000062070BD022070BD032070BDA288002145
:102E5000206810F0A7F934220021244810F0A2F9CC
:102E600034222146214810F0CBF8A889002802D14D
:102E700001204002A881A97B0120002900D1A8736C
:102E8000E97B002901D11B21E973297C002901D1AB
:102E90000A212974697C002900D16874A87C002863
:102EA00001D11520A874A87F002801D12820A87777
:102EB000E87C002808D0A97FE07C49084018E87425
:102EC000607F002804D005E0A87F40085030F6E776
:102ED00004206877A86A002803D08047034934316A
:102EE000C88006F069FE002070BD00005C6800200C
:102EF00010B500F07BF803F071FB05F08FFBFFF7D6
:102F000097FE0A4C5D202168086505F051FC06F02B
:102F10006DFA05F015FC05F0E7FB21680020086557
:102F20000349C871FFF7DEF810BD0000A04400207F
:102F3000AC68002000228B5C8354521CD2B2102A51
:102F4000F9D3704770B50E4B00209989002901D143
:102F50000C4999810E210124A4039A891546254024
:102F6000CD405204120C0543E8B25604D50BF60FBF
:102F700075401543491EC9B29D810629EDD870BD23
:102F8000686A0020FF7F000070B50E4B0020598951
:102F9000002901D10C49598108214C015A89154653
:102FA0002540CD4005435200E8B2550A5609754008
:102FB000ED07ED0F1543491E09065D81090EEDD1A0
:102FC00070BD0000686A0020FF01000000220AE0D6
:102FD000022101E000BF00BF0B46491E89B2002B51
:102FE000F8D1521C92B28242F2D370470A48094982
:102FF0000068CA680261CA68426109698161C16189
:103000008268012149030A438260C2680A43C260A0
:1030100070470000AC680020C446002030B5104A5C
:103020000346517AFD20842454720E4CA568002D6D
:1030300007D0A57B002D04D0A489E51FFF3DFA3DF4
:1030400002D05172FF2030BD7D24E402A34205D39B
:103050005360A6201072907A40235840517230BDC0
:10306000001800405C680020F8B500240F4E274689
:1030700013E0F06B250128180622FF2110F092F8CA
:10308000F06B06222818FF21801D10F08BF8F06BE2
:1030900028188781641C8773E4B2F07D8442E8D3EA
:1030A000002010F0C9F9F07D3076F8BD18460020F8
:1030B00070B50C460146012080020A1A00252A48F4
:1030C000130006F0ADFE1F111316181A1D1F212341
:1030D0002527292B32343646393B3D3F414646466B
:1030E0004646464646444600007800E04078207058
:1030F00037E08078FBE7C078F9E710221B4910E041
:103100000079F4E74079F2E7006A13E08079EEE7AE
:10311000C079ECE7007AEAE7407AE8E71349102241
:10312000103120460FF06CFF1BE0807ADFE7C07A99
:10313000DDE7406A206014E0007BD8E7407BD6E7FB
:10314000807BD4E7407CD2E707F040FDCFE7407DAD
:10315000CDE7192904D2084601F040FA208000E0AA
:103160000225284670BD000018460020B8690020DE
:1031700010B5044600F0D4F80248847507F060FEEC
:1031800010BD000018460020FFB58FB00646002095
:103190000C900D901F460CAA304600F0B5FA454D34
:1031A0000446E87D84425AD2204607F029FE0646AE
:1031B000042F04D0A879022803D0002002E0287848
:1031C000F9E7012000903B4632462146119807F06E
:1031D000D5FC1422002101A80FF0E4FF20460621AF
:1031E000484300902430C0B201AA102110F082F9A7
:1031F000002813D11022FF2101A80FF0E4FE0028BF
:103200000CD1009805AA2530C0B2042110F072F943
:10321000F107C90F01AA119801F046FC7034E0B221
:1032200006AA182110F066F9002811D106A807F0A7
:10323000F9FD0024A10006A808180188002903D080
:103240008278119801F06CFF641CE4B2062CF1D373
:10325000B00706D5A97D119801F050FF01E0082FB5
:1032600002D0042F13D021E0A87902281ED1002219
:103270003146119807F0BCFBA86A002816D04368B5
:10328000002B13D000221146119898470EE02878A1
:1032900002280BD129791198002900D001216A78E0
:1032A000002A00D00422114301F0CEFB002013B00D
:1032B000F0BD000018460020F8B501F021FA002802
:1032C0002BD1164D0026A87C012801D000241CE03B
:1032D00007F0C8FCAE740020EA7DE96B04E003014E
:1032E0005B18401C9E73C0B29042F8D310E0E86BAC
:1032F00027013818807B012805D1204607F0C4FC3F
:10330000E86B38188673641CE4B2E87D8442EED31F
:10331000502010F0B3F807F093FDF8BD18460020D8
:10332000F8B5354EFF20B0750027F775334CF763BD
:10333000A07B3021484342210FF07EFEF06300283D
:1033400025D02046807B41004018F075002413E012
:10335000F06B250128180622FF210FF023FFF06BE8
:1033600006222818FF21801D0FF01CFFF06B281883
:103370008781641C8773E4B2F07D8442E8D31F48E0
:103380008068002801D0777601E080207076F07D9B
:1033900030760124776334707770B770F77010223D
:1033A000002117480FF0FEFE3771772575713762DF
:1033B000B471F77112483772777210220021103001
:1033C0000FF0F0FEB772F5727762377305207073F5
:1033D0001020B073F77302203074B762F76237635E
:1033E0007774B774F47404483475747505494830BB
:1033F000016005494160F8BD184600205C68002066
:10340000B8690020D9B00000A1B0000070B5002458
:10341000054600290BD108491046FEF735FD084640
:10342000294601F0C9F9040003D00121284601F022
:1034300063FB204670BD000040420F0010B50649F6
:103440000C46483CA162E062A17D182001F01CFB03
:10345000A07D01F001FE10BD6046002070B5264D34
:103460000C4608040FD5A87D0FF0E0FE050006D03D
:1034700007F088FD002802D028460FF0AFFE01209B
:10348000C003604070BDA0070BD50021084607F0BF
:1034900015FA02214C40002825D1A87D0FF0BAFF73
:1034A0001FE0E00721D0686B808807F09DFD0121B7
:1034B0004C40002817D0A86A00280DD04368002B84
:1034C0000AD0686B002280889847A96A686B00223E
:1034D0004B68808803219847E87C0FF0EBFF07F0EA
:1034E000DFF9204670BD0121D7E7600702D504202F
:1034F000484070BD002070BD184600207FB50446CE
:1035000080787F4D801F030006F08AFC0AF4F7F7ED
:10351000A41306F0F778B9F7A96A2046002907D066
:103520000C68002CFBD0437B027B4189C01CA04768
:10353000E3E060780026002847D1A079C00744D096
:10354000686B002841D11022002168460FF02AFE46
:103550006169002903D006226846103107E0A0887F
:103560000BF04CFC0028E3D0811D062268460FF0CA
:1035700047FD69468889A1794907C90F084369460B
:10358000888107F023FBE97D88420BD1687D002804
:1035900001D0FFF769FD5B48026B002A02D00121D0
:1035A0000820904707F012FBE97D8842687E02D12F
:1035B0000121084301E04008400068762146684642
:1035C00007F07CF9002812D01526A86A002855D0EB
:1035D0004368002B52D06278A08801219847002EC2
:1035E0004CD0A96AA0884B683246032173E00221BF
:1035F000A87D0FF00FFF002004B070BD6078062892
:1036000017D1A0880BF0FAFB060012D0287C012805
:1036100004D0022808D003280BD114E07179A088C7
:10362000002207F0E5F904E0A1883078052201F0D6
:1036300073FAA86A002860D04368002B5DD06278D6
:10364000A088022147E0002241201146000100F03D
:10365000F7F8E9E7E0780022211D00F055F8E97D50
:1036600088424AD20621484325302246C0B20C3255
:1036700004210FF083FFE87C0FF01CFF3DE0287B66
:10368000002802D0A088697B28E028780028A0883C
:1036900023D00BF0B3FB06002FD0A07AC0070BD0CD
:1036A0007079002808D0A189890505D46A46B11D22
:1036B00000F02AF8002814D022467179A088083238
:1036C00007F096F9A86A002817D04368002B14D099
:1036D0000022A088114698470FE0052101F00CFA5E
:1036E0000BE0A0880321F9E700E003E0A08800F0E8
:1036F00021FA02E0A088FFF7DFFD01207CE700004F
:10370000184600205C680020F0B52E4E85B0F47D90
:1037100015460F46002806D0012804D0022811D0F3
:1037200003284BD121E0084607F022FBF17D044637
:10373000884243D2002D41D00622394628460FF058
:103740005FFC3BE000240BE0F16B200140180622F7
:103750003946801D0FF046FC002826D1641CE4B2D7
:10376000F07D8442F0D3C4B21FE0002419E020466B
:10377000062148432330C0B26A4610210FF0BAFE3A
:1037800000280CD11022FF2168460FF01CFC0028F5
:1037900005D13946684601F025F9002805D0641C9A
:1037A000E4B2F07D8442E2D3DDE7F07D844205D2CD
:1037B000002D03D02946204607F002FB204605B025
:1037C000F0BD000018460020F8B50E461949152531
:1037D000194F884214D1002409E0324602212046C4
:1037E00007F00EFA002800D00025641CE4B2F87D32
:1037F0008442F2D3002E1BD010480BF01BFC17E0C4
:103800000BF0FCFA040012D060790022A11DFFF732
:103810007BFFF97D884204D23246022107F0F0F99D
:103820000025002E04D0204607F048FB00E01425B8
:103830002846F8BDFFFF000018460020BDAE00007E
:10384000F0B50746012080021546381A89B00024D9
:10385000B44AB54E030006F0E3FA1F11181F262DD7
:10386000333A3F464D545B626970757CEEEDECEB8C
:10387000EAE989E8E7AAAAF2F5E4EA00012971D1A8
:10388000287802286ED8307049E10129F7D12878CC
:103890000128F7D8707042E10129F0D12878042876
:1038A000F0D8B0703BE10129E9D128780128E9D8A6
:1038B000F07034E11029E2D1102229469B48ADE096
:1038C0000129DCD128780128DCD8307127E10129D1
:1038D000D5D12878707122E10429D0D1286890428E
:1038E000D0D830621BE10129C9D128780228C9D873
:1038F000B07114E10129C2D128780128C2D8F07131
:103900000DE10129BBD128780428BBD8307206E12B
:103910000129B4D128780128B4D87072FFE01029A9
:10392000ADD1824810222946103077E0012919D103
:103930002878012816D8B072F1E0012912D1287830
:10394000F072ECE004290DD1286890420AD8706228
:10395000E5E0002906D100F0D3FE002803D00120C5
:10396000B074DCE073E007F07DF91CE007296ED14C
:103970000622691C68460FF043FB2878002269463E
:10398000FFF7C2FE0546F07D854239D200F0B8FE51
:10399000002805D0F26B0120290189188873BEE048
:1039A000284607F071F950200FF068FD95E00729CF
:1039B0004DD10622691C07A80FF022FB28780022AF
:1039C00007A9FFF7A1FEF17D88421BD206214843DB
:1039D00005462135E8B26A461C210FF08BFD002810
:1039E0000ED15348874201D1012000E0FF206946F3
:1039F000C876E8B26A461C210FF0C0FDF07C4AE0B0
:103A000002248CE0707E0028FAD04948874213D106
:103A10000120B07644480722294640300FF0F0FAE2
:103A20007DE06BE00EE00AE066E060E058E06CE00C
:103A30004AE041E039E031E00020B0766FE000205C
:103A400030756CE00027012030753D461BE057E0E3
:103A500028460621484306462136F0B26A461C2114
:103A60000FF048FD00280CD16846C07EFF2808D022
:103A7000FF206946C8760127F0B26A461C210FF084
:103A80007DFD6D1CEDB22848C07D8542E0D3002F3E
:103A900045D02548C07C0FF00DFD40E001292FD115
:103AA000287801282CD8307339E0012928D12878CA
:103AB000092825D8707332E0012921D12878C11F47
:103AC00009291DD8B0732AE0012919D1717C287801
:103AD0007074002923D1012821D107F0B1F91EE02B
:103AE00001290DD1287803280AD8307417E001295C
:103AF00006D12878F07412E00120CCE7012901D02A
:103B000018240CE02878707509E0192F00D377E7A6
:103B10000229FCD12988384600F0B6FF0446204629
:103B200009B0F0BD3F420F0018460020B8690020E0
:103B30001A040000FEB506460020019002903046AF
:103B40000BF05CF9040017D0144FB879022813D099
:103B5000607901AAA11DFFF7D7FD0546F87D8542D2
:103B60000BD2284607F04CF90246012000900823AA
:103B70002946304607F002F8FEBDB879002807D084
:103B80000128F9D161790022304606F031FFFEBDEF
:103B90000521304600F0B0FFFEBD000018460020B1
:103BA000F7B516491525164E174688420FD1002441
:103BB00009E03A462046019907F08AF9002800D02A
:103BC0000025641CE4B2F07D8442F2D313E00BF0D4
:103BD00015F900280ED04379811D00221846FFF701
:103BE00093FDF17D884206D23A46019907F070F9BB
:103BF000002500E014252846FEBD0000FFFF000060
:103C00001846002070B50C460146032000020A1A2F
:103C100000252548130006F003F9130B0D10171AA1
:103C20001E2125292B2D3133393B3D3D35373D00B4
:103C3000407811E010221D4902E01C491022103189
:103C400020460FF0DDF92DE0406920602AE016499A
:103C500006221E31F4E7C078207023E012498278F2
:103C60002431EDE7114902791F39E9E7407AF3E79A
:103C7000807AF1E70C4906221831E1E7C07AEBE7D8
:103C8000007BE9E7C0890AE0008A08E0007AE3E700
:103C90004079E1E7192904D2084600F09FFC208012
:103CA00000E00225284670BD6C460020176A0020FF
:103CB000F8B5164CFF202070002565700320A07019
:103CC0000126E670062765611920E781C001208280
:103CD00020461F22294624300FF064FA2046022194
:103CE000243001704670877025711F22002108481A
:103CF0000FF058FA20460622002118300FF052FA31
:103D00006571A571FF20E071F8BD00006C460020D0
:103D1000F8690020FFB583B01C4615460E460C9F7F
:103D200003980BF06BF8002817D0C189B14207D374
:103D3000A94205D8018AA14202D1408AB8420ED0D8
:103D40006846068045808480C78069460D9A03983E
:103D500002F0B2FA002007B0F0BD1420FBE71820F3
:103D6000F9E7000010B52548007F800744D0244CB7
:103D70002078FF2840D1234805F068FF2070FF28F5
:103D80003AD0214900240C602049214A0C700421BA
:103D9000117000F021FE102200211E480FF002FADF
:103DA000102200211C480FF0FDF91C481E49046038
:103DB0001B48184A04701B480470072008701B48F1
:103DC0001021047002200FF095FB134A10210320EC
:103DD0000FF090FB10220F4915480FF011F914480D
:103DE00010220D4910300FF00BF904210B4A084640
:103DF0000FF080FB002010BD182010BD5C68002073
:103E00006C460020953E0000684600207446002065
:103E10006D460020176A0020276A00208046002097
:103E20007546002076460020774600207846002020
:103E3000D869002010B504F08DF9104805F006FF90
:103E400002F07AFA0E4805F001FF00F0D3FB0D48AE
:103E500005F0FCFE01F0B4FA0B4805F0F7FE05F0A2
:103E6000CFFB0A4805F0F2FEFFF782F9084805F09B
:103E7000EDFE00F0F3FEFFF775FF10BD7964000062
:103E8000F5480000CD540000119700005D3400009B
:103E9000D94D0000FEB54A4C0D46080448D520789F
:103EA0000FF0C4F9040040D046480078002808D03C
:103EB0002078454ED02808D0A22802D0912821D0C1
:103EC00014E0204608F0ECF82CE0A07800280DD093
:103ED000052807D0082809D006280BD00728F0D1DC
:103EE000A0881BE0608919E0007B04E0204608F010
:103EF000D7F802E0E0790828E3D1214630780FF0C6
:103F0000CDF912E060780E28F0D1A0882F498842C0
:103F1000ECD1A06881784278080210430AF06EFF65
:103F20000028E1D120460FF059F90120C00345E0F7
:103F300068040BD50421264A08460FF01FFB2548CC
:103F400000780FF0B7FA0120800337E0E80736D099
:103F500021480078002830D00BF084F81F49097FF1
:103F60008907890F884203D30320694608700CE053
:103F70001B486946007808701A4806220078487085
:103F800000A8194902300FF03BF81848694600783C
:103F90000872174800784872207800F047FB002824
:103FA0000BD014490620087013490968002904D071
:103FB0000A68002A01D00021904701206840FEBD18
:103FC0006C46002072460020734600200514000055
:103FD000804600202B4600206F4600205C680020B1
:103FE0007546002076460020844600207746002053
:103FF0007846002074460020684600207CB51446B0
:104000000D4601F07FFA002D02D02846FFF716FA80
:104010000C480078002801D011207CBD002C01D074
:10402000094804600A48009008490B480191027849
:104030000A48084B01780A48007800F051FA00203D
:104040007CBD0000744600206846002080460020A9
:10405000276A0020176A0020714600206D46002064
:104060006C460020F8B50C465E49164642181921E8
:104070000025C9015C4F130005F0D2FE120A10178B
:10408000A81C3E526970778188A8A3A8A88F98A819
:10409000102C73D11022314654486CE0102C6DD195
:1040A000524810223146103065E0042C66D1306849
:1040B000786190E0012C61D1F97830784A4AF87043
:1040C000127800290AD0002807D1387A022801D0B6
:1040D000052802D1104600F057FA7CE000287AD07B
:1040E000387A012803D0032801D0042873D1012194
:1040F00010460FF08FF96EE01F2C60D83A481F224F
:10410000002124300FF04EF8374822463146243043
:104110000EF076FF344BBC7024332246012112E0AE
:104120001F2C4CD831481F2200211F380FF03AF8BD
:104130002E48224631461F380EF062FF2B4B3C7151
:104140001F3B22460021387800F02AFD48E0012C70
:1041500035D13078042832D878723CE0012C2ED149
:10416000307803282BD8B87235E0062C27D11E48AA
:104170000622314618300EF043FF2CE01FE0012CE0
:104180001DD1307807281AD8F87224E0012C16D1F6
:104190003078032813D838731DE03088022C0ED1F4
:1041A00006280CD388420AD8F88114E03088022C03
:1041B00005D1062803D3884201D838820BE01825A0
:1041C00009E0012CFBD13078787104E0192801D284
:1041D000022C02D002252846F8BD318800F054FC9C
:1041E0000546F8E7FFFCFFFF6C460020176A002039
:1041F00010B504460AF002FE002805D0007813220C
:10420000214600F089FC10BD122010BDF8B50E4605
:10421000070048D038880AF0F1FD050041D0234A54
:10422000A96BD078022806D0012804D0287B082862
:1042300003D1002E01D0122436E0002901D0112430
:1042400032E047212C200EF0F7FE0446A863200040
:1042500025D02C2200210EF0A5FF388860801C227A
:10426000391D201D0EF0CCFE022020700F483A8828
:104270000178287B082810D00020231D05F0F5FACE
:104280000446002E03D0314628460DF0BBFC002C1E
:104290000AD0284607F04CF806E00120EDE7132489
:1042A00002E0142400E002242046F8BDD04600209D
:1042B000FFB51F4881B0C0781E4617460D4602283C
:1042C00018D0012816D0002F30D001980AF096FDA2
:1042D000040029D0E06A002801D00EF0E9FE1C217C
:1042E00038460EF099FEE062011E1BD0207B0828A4
:1042F00003D00DE0122005B0F0BD002E08D0887E5E
:1043000000900B4612330A8A01980DF0C3FF00E0BB
:1043100000202179002D01D0062200E00422114363
:104320002171E8E71320E6E71420E4E70220E2E742
:10433000D046002010B50548C078000701D50448D4
:1043400000E0002007F0B4FD10BD0000D0460020C2
:10435000F446002070B51B4C05460121207807F07B
:104360000DF81948C1780A20014224D02046257052
:104370000C3007F097FD606800281AD120780028DB
:104380001DD0000107210EF057FE6060002810D0FC
:1043900021780A0100210EF005FF0020FF2223787A
:1043A000616803E00401401C0A55C0B29842F9D389
:1043B00005E0132070BD0020207007F073FD002081
:1043C00070BD0000E0460020D046002008490020D3
:1043D000087048608860064806490C30016006494C
:1043E000416006490830016005494160704700009E
:1043F000E04600207DB20000A1BC00005DB10000DD
:1044000095B10000F3B5334F0025BE7883B0044664
:1044100003282DD83878032802D0102005B0F0BD2D
:10442000012C04D0022C02D0032C29D02DE00498BA
:1044300000280CD00622002168460EF0B3FE0622AA
:10444000694604980EF0CEFD002811D104E0062143
:1044500068460DF0C9F918E00622FF2168460EF003
:10446000A1FE0622694604980EF0BCFD002801D08A
:104470000220D3E70622684604990EF0C1FD04E04D
:104480006946F86805F049F805461348BC7000789D
:1044900004210FF077F900207871002D01D0BE7053
:1044A00015E0002C13D0684607F07CFB0500F6D120
:1044B000032C0CD1112000F091F80006000E787149
:1044C00005D00548054A007804210FF0E7F8284692
:1044D000A4E70000D8680020D04600200077010043
:1044E000F8B50224079F1D461646042919D004DC9E
:1044F000012907D0022945D10BE008291BD00C293E
:1045000040D129E000F03CF904003BD100F090F9E3
:1045100038E000F035F9040034D13046FFF71AFFD7
:1045200030E000F02DF904002CD13A4628460699D7
:1045300000F05CFA20E000F023F9040022D13A46B2
:104540002846069900F052FA3046FFF703FFFFF7BE
:10455000F1FE05F067F815E000F012F9040011D142
:104560003A462846069900F041FA3046FFF7F2FE37
:10457000FFF7E0FE05F056F800F05AF900F040F9B8
:1045800005F02AF92046F8BD70B5104C21680029C5
:1045900019D00978814214D10D4D022128780FF0ED
:1045A000F1F80C4800264680287804210FF0EAF83C
:1045B00009484671216803204870002001F0DBFAA9
:1045C00070BD032070BD122070BD0000B8440020F3
:1045D000D0460020D0440020D8680020192801D3FC
:1045E0000248704702494000085A7047FFFF000028
:1045F000F868002010B5044600F086F800F05AF97B
:10460000FFF7E4FEFFF754FB0649FF23CB700022BF
:104610008A700A710448052143700470204601F035
:1046200073FF10BDD8680020D0460020F3B52F4E90
:104630000446306883B0002802D0112005B0F0BDD8
:104640002B4F0521F878084201D11220F6E72949BD
:104650004968002905D00978002902D0C00702D096
:1046600008E01020EAE700F04BF805460AF0DCFC11
:10467000854207D304980078022803D0032801D08C
:10468000122431E047210C200EF0D6FC30600028C7
:1046900029D00470002141700A22801C04990EF078
:1046A000AFFC154DA878032806D007F097FE04004C
:1046B0001AD006F031FE17E006F0B6FE694604F0A7
:1046C0002CFF684607F06EFA012028711120FFF7D1
:1046D00085FF0006000E687106D03878074A04216D
:1046E0000EF0DCFF00E013242046A7E7B8440020CA
:1046F000D0460020D0440020D86800200077010078
:1047000010B50AF07BFC10BD1A4800210170417001
:1047100041608160C1600161416181611648B422DC
:1047200001804280012292038280A022C280028105
:104730001022428182815023C3810382428282827D
:10474000C2827D2302831B0143838183C183018451
:104750000F234384094B83840723C38402850122EA
:1047600042857E22D2438285C1850186491E4186CB
:1047700070470000A4440020F868002080BB0000BF
:1047800070B50E4605462022002109480EF00AFDAC
:10479000074C0848E570C67001F018FA002803D0ED
:1047A00000202070122070BD0121217070BD00001A
:1047B000D8680020D04600207FB504460D46084644
:1047C0000AF01CFB002817D00C48844212D2102299
:1047D000002168460EF0E6FC69460C70200A48701D
:1047E000200C8870200EC8702946684604F04EFFE1
:1047F00004B070BD0220FBE71220F9E740420F0031
:1048000010B50848C078400707D5074807F05CFB9B
:1048100000200649C043C88010BD002007F054FBAB
:1048200010BD0000D0460020E0440020D8680020E1
:10483000F8B51D4C00256068002802D00EF038FC49
:104840006560E068002802D00EF032FCE560174E8B
:104850000527F078384223D0154807F02FFBF07871
:1048600038421BD0472120200EF0E6FB6060002874
:1048700014D0202200210EF095FC472120200EF0BC
:10488000DBFBE060002805D0202200210EF08AFC2E
:104890000020F8BD60680EF00BFC65601320F8BDC9
:1048A000002007F00BFBF3E7D0440020D0460020A7
:1048B0002C6900200948FF210170002141804160DE
:1048C0008160C160074806490160074941600749A6
:1048D000816002490648103108607047D0440020CA
:1048E0009DB600002C6900209DB90000DDC30000CA
:1048F0000DB60000FEB5354F354D0C4608041FD5EA
:1049000038780EF093FC061E17D03078A22806D017
:104910007D78304607F0D8F900280AD102E02C480B
:10492000C578F6E7FF2D04D0314628460EF0B6FCD8
:10493000E6E730460EF052FCE2E70120C00341E01A
:10494000E0070126234900280AD04868002804D03F
:104950004168002901D00020884720467040FEBDF4
:10496000A00709D5C868002804D04168002901D0F3
:1049700001208847022025E0600725D568790028B6
:104980001FD0401E0006000E68711AD14869002829
:1049900008D02E71C868002804D04168002901D0D1
:1049A000012088476946E86804F0B7FD684607F0CB
:1049B000F9F81120FFF712FE6871387804210EF023
:1049C000E1FE04206040FEBD0020FEBDD046002078
:1049D000D8680020A44400200149487070470000B6
:1049E000D046002010B504F0D1FE10BD70B5154CB6
:1049F0000E46626121610546E0601022FF213046CB
:104A00000EF0E1FA012806D01022002130460EF007
:104A1000DAFA012803D1102120690CF0E5FE1022FA
:104A2000FF2128460EF0CFFA012806D010220021DF
:104A300028460EF0C8FA012803D11021E0680CF0D6
:104A4000D3FE70BDD86800207FB50C4605460AF03D
:104A5000D5F9002814D0826B007B042802D01220E4
:104A600004B070BD002A00D0947D684621460DF048
:104A70004DFC044B6A46022128460DF0C9FBEFE7C6
:104A80001420EDE7FF270100192802D2044A9142C1
:104A900001D102207047034A4000115200207047A4
:104AA000FFFF0000F868002070B50E46114915465A
:104AB000CB78022B17D0012B15D0002D17D00AF080
:104AC0009DF9040011D0002E03D020790221084363
:104AD000207120461022294618300EF091FA2869DC
:104AE000A062002070BD122070BD142070BD022095
:104AF00070BD0000D046002038B50C4605460AF0CF
:104B00007DF9002806D068460470694628460DF0F5
:104B10006DFB38BD142038BDF7B505461E4812267A
:104B20001E4F0C46814208D1B868002832D0026876
:104B3000002A2FD028469047FEBD1748401C8442CB
:104B400019D1B868002806D00268002A03D0284688
:104B50009047002806D02846029905F077FE060007
:104B600005D017E07D70029838700020FEBD7D7082
:104B7000029838700EE008460AF040F9002809D083
:104B80000078A84201D00320FEBD2046029900F023
:104B900060FFFEBD3046FEBDFEFF0000A4440020C5
:104BA00070B51446024620481E46C07805231842B8
:104BB00024D01E4D00296B68E86802D0002B1DD060
:104BC00001E000281AD0202C2CD2002C01D0002E7D
:104BD00028D02A70002913D01F220021581C0EF063
:104BE000E1FA686822463146401C0EF009FA69680D
:104BF00020460C70491C00F0BAFF70BD122070BD39
:104C00001F220021401C0EF0CDFAE86822463146F2
:104C1000401C0EF0F5F9E96820460C70491C00F0C4
:104C2000C1FF70BD022070BDD0460020D0440020DE
:104C300010B5094A014613790020002B0BD101233E
:104C40001371C90707D01346643318461022042194
:104C5000403800F007FA10BDA0450020F8B5044622
:104C600000F00CFE00F044F8114F134EFC70114997
:104C7000304600F025F84721C0200EF0DDF9002273
:104C80001346B86194010653002124180C254D43A6
:104C90006519AB80491CEB600529F7DB521C032A20
:104CA000F0DBF878787005480AF0F8F9F8BD0000F4
:104CB000A04500207A690020FFFF00005DCB0000C6
:104CC00070B50A4C0025A04208D1002082008C5209
:104CD0005218401C95700328F8DB70BD07F00FFFD9
:104CE0000028FAD00480857070BD0000FFFF00002E
:104CF000F0B51E4920200870FF2048708870C870E9
:104D00000126CE8000200881C86008610B4602247D
:104D10001C3348611C70164A5A600A4608712432D6
:104D20001470144D556016725081D3601474124F74
:104D300015466F612E766883E9612021545413462D
:104D40000E4D59185D6208725885D862302154544E
:104D50000B4C0323511854630B725087094ACA60E5
:104D60000249094A643105C10860F0BDA045002030
:104D70006A3A01006C3A0100723A01008A3A010075
:104D8000783A01007A6900200DD60000F8B50E4689
:104D90000746069900240798002902D00B242046D4
:104DA000F8BD022B01D00D24F9E7517812780D02DD
:104DB00015432946814301D08024F0E73846F16845
:104DC00000F042F9A842EAD02A463846F16800F0DD
:104DD000EFF90446E3E7000070B50D4608041AD564
:104DE0000E48C0780EF022FA04000FD02078B028C8
:104DF00009D1204608F048F8002804D0204621793F
:104E0000083000F01DFD20460EF0E8F9012128468B
:104E1000C903484070BD002070BD0000A0450020BF
:104E2000FFB585B000200F9F0090087A0E9D1C46AC
:104E30000E46C0060BD5079807F05AFE03007DD03A
:104E40000A223146059898470090002816D13078FC
:104E5000022815D0079807F071FE0028EFD00068EF
:104E600084460028EBD011991098224600970291B1
:104E700001902B46314664460598A04709B0F0BD25
:104E80007068292241780078090201431202881AC9
:104E900091427CD00BDC6948081A13D0012811D04C
:104EA000022817D00328D5D1002F53D09BE001282A
:104EB0007ED002286DD0032877D00428CAD1002FD5
:104EC00068D090E0002F6FD1F068017829800278D7
:104ED000416884E0002F67D1F068417800780F02C4
:104EE000074304202880F06804A900782070F06847
:104EF00040786070384600F087F9060022D0684696
:104F0000028A03AB4E493046F76800F0DBF900280F
:104F10000AD1337802214B487268FDF7EEFB002876
:104F200002D1474869468881387802280CD102228C
:104F3000201D79680EF064F8288800E07CE0801C71
:104F4000288001E06846878168468089A070000A51
:104F5000E0706FE001202880F06800210078207068
:104F60007089401C80B200F04FF9002813D02988C6
:104F700002788918891C2980817A61704189090A1F
:104F8000A17002784168E01C0EF03AF852E00CE0A3
:104F90000EE026E03BE028880422001D2880002146
:104FA000601C0EF0FFF845E01DE0002F27D01AE04E
:104FB000F0680EF0FAFB80B2B84201D207205DE73C
:104FC000874201D1002006E01099C919814201D31E
:104FD000C01B00E01098288082B2F068C1192046FA
:104FE000D2E7002F01D00B2048E7F168059800F0C8
:104FF0002BF8022129802070000A60701AE002203C
:105000002880F06800782070F0684078F5E7072184
:10501000F068298001782170417861708178A170F1
:105020004188090AE1700179217181796171C08833
:10503000000AA071009821E70E201FE70028000059
:10504000FFFF00006E3A010010B507F058FD002880
:1050500000D0807810BD00000149887070470000C2
:10506000A04500207CB51E4605001CD06846018086
:105070008270019500F04CFA04001FD1002E1DD063
:10508000688900280FD047210C200DF0D5FF00289B
:1050900013D00021016069898180094A8660116905
:1050A000002903D107E002207CBD11460A68002ACE
:1050B000FBD1086002E0106100E0132420467CBDB3
:1050C000A0450020F8B50C4C0746A07815460E46C2
:1050D000FF280FD00A200EF06DF801000AD0B12091
:1050E00008704F80002048700871CE800D81A07834
:1050F0000EF0D4F8F8BD0000A045002070B50C46B5
:1051000005460649FFF7A0FF800704D5214628463B
:1051100000F058FA70BD012070BD00007A690020CF
:105120000EB56B461A81FE230022019300920223E2
:1051300002AA00F001F80EBDFFB583B0174602A920
:105140000D9E049800F060F804002AD0684600899B
:1051500007F0F4FC002822D04568002D1FD00C98E1
:10516000019600903A462146069B0398A847050001
:1051700018D1FE2E16D02078022813D1606841780D
:10518000027808020949104388420BD178783978AF
:1051900002020A4304990398FFF794FF02E00E25E8
:1051A00000E00125284607B0F0BD000002290000FC
:1051B00070B514460E46054607F0A1FC002806D13E
:1051C0003146054807F09BFC002803D00580847019
:1051D000002070BD112070BDFFFF000010B50178E8
:1051E000B0290BD14178002908D10179122906D0C4
:1051F0001B2903D14088012101F092F810BD417CA8
:105200000129F7D010BD0000F0B5104A536919E02C
:105210009C686589A84214D39E887219824210D96D
:1052200000220CE017013F197F89874205D1002930
:1052300000D00D8010010019F0BD521C92B2B24294
:10524000F0D31B68002BE3D10020F0BDA045002067
:10525000FFB51B4883B0002345692DE0AE680024EC
:1052600070890190A888009016E021018819428970
:10527000039FBA420ED3049FBA420BD8069A002A63
:105280000FD01346715C4068059AFDF736FA002886
:1052900007D10023641CA4B200988442E5D3002BFC
:1052A00009D00C98002802D00C99019808802001A0
:1052B000801907B0F0BD2D68002DCFD10020F8E790
:1052C000A0450020FEB5174600256A469580044695
:1052D00040891D4A1E46904208D001AA0092401CF7
:1052E000237880B26268FFF7B3FF05462378022176
:1052F00016486268FDF701FA002807D123780221D9
:1053000013486268FDF7F9F9002801D060890EE0C2
:10531000237802210F486268FDF7EFF900280DD0CD
:10532000002D03D068468088B84203D0384608F084
:1053300091FA04E06889401E80B200E06089002E86
:1053400000D030802846FEBDFFFF00006C3A01000F
:105350006E3A0100723A0100FFB583B00E461D4659
:10536000174601A9039807F07FF9040022D1002F06
:105370000FD0694608803088FFF746FF69460888E5
:1053800000F05CF901460122039809F00BFD0028AA
:1053900011D131460398FDF755FA04000AD1FF2DCB
:1053A00008D0019B1E22194604489B1C08F05DFA98
:1053B0000198C570204607B0F0BD0000BDD60000C2
:1053C00010B50446FDF76AFA0749FF2008704870D7
:1053D0000020486088608C700421204601F094F819
:1053E00000F004F810BD00009445002070B50020C6
:1053F0000D4D0E4B0446FF22062141435D52C91854
:10540000CA708A70401C0C710328F5DB0120C04370
:105410001880074807F022FB0648FDF7C5FB064841
:1054200009F03CFE002070BDFFFF0000686900200D
:1054300005D70000E7D600003DD600007CB5164633
:105440000C460546FCF7B0FF11490978884201D3A4
:1054500016207CBD01A9284607F006F91728F8D0C8
:10546000002E10D00020694608802088FFF7CCFE6F
:105470006946088800F0E2F801460122284609F052
:1054800091FC0028E5D121462846FDF7F1F97CBDC5
:10549000FD460020F8B51C4615460E46074609F0A5
:1054A000ADFC00280DD0017B074808292B46324669
:1054B0003946009403D0007807F0ECF8F8BD407846
:1054C000FAE70120F8BD00009445002070B50D46B4
:1054D000080412D50A4880780DF0A8FE040008D010
:1054E0002078A02802D1204607F03CFA20460DF093
:1054F00075FE0120C003684070BD002070BD000033
:105500009445002001490870704700009445002030
:1055100070B504464568008800284AD02B780221DF
:1055200025486A68FDF7E9F8002807D12B780221A1
:1055300022486A68FDF7E1F800283AD0A078C01F39
:10554000092834D81E4EF08800282ED0218808184B
:1055500001210904884228D847210C200DF06CFD58
:10556000050020D0002207E011016368F0880A31AD
:105570005852401CF080521C20889042F4DC0020DD
:10558000286008222146281D0DF03AFD7069002888
:1055900001D105E0084601680029FBD1056000E063
:1055A0007561002070BD132070BD012070BD1820F2
:1055B00070BD022070BD00006C3A01006E3A01001F
:1055C000A0450020FEB50E46074600250223194AD5
:1055D000194901200095FFF73BFE040027D0232046
:1055E0000090002304221D21384600F0E3F80290C9
:1055F00000281AD06089694688800420C8800299F2
:10560000012008700298334645700299FF20887087
:1056100002990022C87001A93846FFF79DFE0400D8
:1056200006D002980DF044FD02E0152400E00124AC
:105630002046FEBD8A3A0100FFFF000000B506F0DB
:10564000CFFF002801D0807800BD102000BD00B53C
:1056500006F0C6FF002800D0008800BD7CB50D46CE
:10566000044609F0CBFB29462046FDF7A3FA0028A3
:1056700012D168468580204609F0C0FB00280BD077
:10568000027B01A90748082A009106D07F23002247
:105690002146007806F0FEFF7CBD7F2300222146D4
:1056A0004078F7E79445002010B504460B4688067D
:1056B0000DD51046FFF7C2FF01460122204609F032
:1056C00071FB052801D00F2800D1082010BD8820CB
:1056D00003420CD01046FFF7B1FF0146180701D571
:1056E000012200E00022204609F05CFB10BD880783
:1056F00001D5002010BD032010BD10B50346C8061B
:105700000DD51046FFF79AFF01460122184609F011
:1057100049FB052801D00F2800D1082010BD4807FB
:1057200005D51046FFF78AFF0146012206E048062C
:1057300008D51046FFF782FF01460022184609F0FF
:1057400031FB10BDC80701D0002010BD022010BDE4
:1057500070B51D4603460C4688060DD51046FFF76A
:105760006DFF01460122184609F01CFB052801D0F7
:105770000F2800D1082070BD8820044214D01046A4
:10578000FFF75CFF0146200701D5012200E000225F
:10579000184609F007FB002808D0697A0029EAD0EA
:1057A000297A002902D170BD880701D5002070BD7B
:1057B000032070BDF8B5069F1E461546162928D051
:1057C0000CDC09291FD004DC05291CD0062911D1C5
:1057D0001BE0112917D012290CD118E01D2916D071
:1057E00004DC172915D01B2904D110E052290ED052
:1057F000D2290CD00124114A95420CD1FDF712F8A0
:10580000001B85B20BE00224F5E70724F3E703242D
:10581000F1E70524EFE7D22901D10C35ADB26019CB
:1058200080B2394600F0CCFE002805D0002E00D012
:10583000358061420DF092FBF8BD0000FFFF0000D3
:1058400010B506F0DDFE002801D00DF031FC10BDD2
:1058500010B5094A014653790020002B0BD10123D2
:105860005371C90707D01346A433184610220921E3
:105870009038FFF7F7FB10BDE4440020F0B500219D
:105880003D4C0222A1603D4D227008462954401C27
:1058900080B21628FAD36270374BE180A270502094
:1058A0000C331880A0205880184681807D20C000CD
:1058B000D880E27001233048237161711430027086
:1058C0002F4C4460037241812E4CC4600646027422
:1058D0002D4F77613446337671831034143EE66081
:1058E000202402550646294F3419776223727185A8
:1058F000F562302402550546234E6E632C1923723F
:105900006987133DE560402402550546204E6E64CC
:105910002C19237261810E3DE56050240255054625
:10592000194E2C196E6523726181123DE560602469
:1059300002550546174E6E662C1923726181083D8B
:10594000E5607024025505460F4E2C196E672372D0
:105950006181113DE560802402550F4A803042602C
:10596000037241816A1CC2600C48A03210600C486E
:10597000506010468160F0BDE4440020386900208A
:105980006C3A0100003A0100723A0100803A0100CD
:10599000823A0100883A0100923A010031D90000B0
:1059A00079DA000070B51646214A0D4611460024EA
:1059B0001431030004F034FA0A0613383818382179
:1059C00028383138152D2AD81622002119480DF013
:1059D000E9FB2A46314617480DF012FB25E0022D5F
:1059E0001DD13088D08020E0082D18D11048082221
:1059F00031460C30FCF7BFFA17E0012D0FD1CA6910
:105A00000B4930783C3105E0012D08D1CA6B0849BB
:105A100030785C3107F0F8FF07E0012D01D0182441
:105A200003E03078107100E00224204670BD0000D1
:105A3000E444002038690020704710B500F0FCF8FD
:105A400010BD10B500F018F910BD10B500F02CF91C
:105A500010BD10B5FCF79EFC10BD10B500F038F974
:105A600010BD10B500F04CF910BD10B500F062F992
:105A700010BD10B5FCF79CFC002010BD10B5FCF764
:105A8000B1FC10BD7CB5069C079DC0B20195009489
:105A900000F066F97CBD10B5FCF7B4FC10BDFEB596
:105AA00008AF70CF6F4670C7FCF7BCFCFEBDF0B509
:105AB00085B084460AA8F1C804976F4671C760464E
:105AC00000F07EF905B0F0BD38B5049C009400F0FC
:105AD000AFF938BD10B5FCF7B5FC10BD38B5049C66
