:020000040000FA
:1000000000800020A5110000AD110000AF1100001C
:1000100000000000000000000000000000000000E0
:10002000000000000000000000000000AF11000010
:100030000000000000000000B1110000B31100003A
:10004000B5110000B5110000B5110000B511000098
:10005000B5110000E71C0000B5110000B51100004B
:10006000B5110000B5110000B5110000B511000078
:100070008D1D0000B5110000B5110000B511000084
:10008000B5110000B5110000B5110000B511000058
:100090000348854601F056FF0048004775030000FD
:1000A000008000207CB5844D0C462878090408D5D2
:1000B00013F090F9002801D013F064F90120C00377
:1000C00032E0E10701D001202EE061070BD5FF21CE
:1000D000F53100910822019000231146688803F051
:1000E00003FE042020E0A00720D56A78FF266536AD
:1000F000642A08D30021FF32334608467B3200F0E1
:10010000C9F8002068706A783346FF320021012068
:100110007B3200F0BFF868786422001D687002210D
:10012000287813F037FB022060407CBD00207CBDA6
:1001300030B585B0614809F05DFD5F4D0124287040
:1001400069460C706A4621465D4803F075FF5C48BD
:100150002A4620320D21401C03F06EFF58482A46E3
:100160000C321421801C03F067FF564A1521002031
:1001700005F062FC0020694600900C7108720320B3
:1001800008730C746A4604214F4803F043FB0121B5
:1001900001AA880203F03EFB4B4802AA0121801FFE
:1001A00003F038FB484803AA0121401F03F032FB4B
:1001B000454804AA0121801E03F02CFB0620694655
:1001C000087001216A46084600F035F900F0ECFE9F
:1001D00029463031281D00F00EFC0121287813F04B
:1001E00083F905B030BD1CB5030009F0A9FE072E48
:1001F00005101F121D2F2E00C1206946800003F03C
:10020000EBFC6946012004F0E7F830A01FE033A0C2
:100210001DE02948498941801922D2010421007832
:1002200013F0B8FA31A012E034A010E08878042866
:1002300005D0062805D0052807D137A007E03CA047
:1002400005E0897941A009F053FE1CBD46A009F0E4
:100250004FFE1CBDF8B50024069E079D002B04D060
:10026000012B07D0022B0BD011E00095337800F062
:10027000D3FE03E03346009500F0E1FE044606E0BD
:100280000D48FF22F5320221007813F083FA204650
:10029000F8BD70471CB56C4620706170A270100AE2
:1002A000E0702371180A607101216B46062208462E
:1002B00000F0BFFB1CBD000000400020A5000000B6
:1002C000050300002039010007040000496E69742D
:1002D00069616C697A65642E2E0A00004164766556
:1002E00072746973696E672E2E0A0000436F6E6E1A
:1002F00065637465642E2E0A00000000436F6E6E05
:100300006563746564204164766572746973696EAF
:10031000672E2E0A000000004164766572746973CE
:10032000696E672074696D656F75742E2E0A000002
:1003300057616974696E6720666F722061647665C3
:1003400072746973696E672E2E0A000044697363C4
:100350006F6E6E65637465642E2E20526561736FD7
:100360006E3A25780A0000004572726F722E2E0ACE
:10037000000000000D498A6A481502438A62032181
:1003800001F040F901F0B9FB09490AA009F0B0FDFC
:1003900001F019FC01F097FC03F036FD00F004FBBE
:1003A000FFF7C6FE09F044FCFCE7000080100040A7
:1003B000443A010025730A0010B58F498F4804F0B4
:1003C0006BFC8F4B102218460521503804F036FE86
:1003D00010BD8B496839486170473EB504460079C5
:1003E000C00727D06088844904F01AFEC00721D0D6
:1003F000002000906088002301221B2105F024FAD0
:100400000290002816D07E4869465038408D88807A
:100410000120C8807A48029968380078087060889E
:10042000002201A904F0F6FF002803D01B2101A837
:1004300005F050FA3EBD10B50024012802D0022478
:10044000204610BD6E4811786838417000788842A7
:10045000F6D26C480EF044FEF2E7694B10B500226C
:10046000683B002809D0012809D01833022809D098
:1004700003280AD00222104610BD187800E05878F0
:100480000870F8E758890880F5E75D486238047815
:100490000C7140784871588D0880588F4880012031
:1004A0008871E8E770B5564D683DA868002800D00F
:1004B0008047FF24E8682D34002800D08047A988B1
:1004C000A14201D8642070BD6888A04201D30020F9
:1004D00070BD2A69002A02D02046904770BD091AD3
:1004E000491C0904201A1922890C50434018401E47
:1004F00001F084FCC0B270BD10B5FFF7D3FF4049D6
:1005000068390A78904203D208703E480EF0E8FD40
:10051000002010BD30B53A48049D6838039C4180E6
:100520008280083038C030BD70B5049800241D4664
:100530001646002801D00B2070BD48684278037829
:100540001002314A184390420CD1FFF7ABFF2C49FF
:1005500068390A78904200D2087001202880087813
:1005600030700BE0294A904207D1022028800246D1
:10057000C968304612F018FE00E00A24204670BD1B
:100580007CB54C6815466278247812022243204CD0
:10059000069EE24208D10122019200962A4604F00A
:1005A000E1FB040003D000E00A2420467CBD68780B
:1005B0002978000208431249683949690029F4D0B2
:1005C000002802D001208847EFE70220FBE710B5A2
:1005D00004460A48401E84420DD0012907D0022952
:1005E00009D1012120460EF0E3FD002803D1024984
:1005F000204604F051FB10BDD8660020FFFF00002C
:10060000A8400020DB030000192A00000829000090
:10061000FED6FFFF10B56E4B102213216D4804F07B
:100620000DFD10BD10B500241346002802D0022491
:10063000204610BD67480A461946093812F0B4FD35
:10064000F6E770B50D460024030009F079FC0906B1
:100650000A1014181C2024282C005E49082209398D
:1006600001E05D490D22284612F09EFD1CE05A492A
:100670000E220D31F7E7584912221B31F3E7564994
:1006800012222D31EFE7544912223F31EBE7524954
:1006900012225131E7E750490E226331E3E74D4919
:1006A00007221039DFE70224204670BDF8B54968FB
:1006B00094464A78097817020F430698474A112151
:1006C0000025079CBE1A091A974244D009DC444A07
:1006D000BA1813D0012A1DD0022A26D0032A08D125
:1006E0002FE0012E41D0022E49D0032E51D0292EC9
:1006F0005BD0002018800A252846F8BD082856D26D
:100700000821091AA14200D80C463249A2B21A8027
:10071000093957E00C284AD20C21091AA14200D805
:100720000C46A2B21A802C494CE00D283FD20D2174
:10073000091AA14200D80C462749A2B21A800D31ED
:1007400040E0112833D2A14200D80C462249A2B27F
:100750001A801B3136E0112829D2A14200D80C465C
:100760001D49A2B21A802D312CE011281FD2A142BE
:1007700000D80C461849A2B21A803F3122E0112855
:1007800015D2A14200D80C461349A2B21A805131A9
:1007900018E00E280BD20E21091AA14200D80C46EF
:1007A0000D49A2B21A8063310CE0072801D3072556
:1007B000A2E70721091AA14200D80C460549A2B2B6
:1007C0001A8010390918604612F0EEFC94E7000018
:1007D000F8410020C840002060390100272A0000AD
:1007E000DDD5FFFF704710B5FE4B012806D002286B
:1007F00003D10221987913F02FF810BD187804283E
:10080000FBD1F94A0221987912F0C4FF10BDFEB560
:10081000064600201746F34C0D4603460A46009054
:100820001B21208905F010F80290002813D068469B
:100830008680C5802A463946029812F0B5FC00220F
:1008400001A9208904F0E6FD040005D01B2101A8C0
:1008500005F040F800E013242046FEBD30B5E14A23
:100860000446E24BD068D2791B780BE00579A542AB
:1008700005D145798D4202D185799D4205D0521E20
:10088000D2B20830002AF1D1002030BDFFB581B0CE
:1008900015460E460746FFF7E1FF04001CD06088AE
:1008A000694604F09DFC002816D0C168CD48008937
:1008B00004F0B6FBC0070FD020882946049AFFF742
:1008C000A6FF002808D1CA482A46077046708570DE
:1008D000C01C049912F068FC05B0F0BD70B5C14DA4
:1008E0000C4608040AD5A87912F074FD002801D03E
:1008F00012F048FD01212046C9030AE0E0070AD0B2
:10090000B84AA87920321146083903F061FB204625
:100910000121484070BDB348610700780CD5042818
:1009200008D1B4A009F0E4FAA878002802D12889F7
:1009300003F048FC04200BE0A1070BD5042806D1E6
:10094000FFF7DAFDA84A0221A87912F023FF02205E
:10095000604070BD200725D56878082126464E40A6
:1009600000281BD028796979884201D1002309E049
:100970000B21401C01F02CFA29710B2041439C48AB
:100980000B300B18002B05D09A7859781878DB1C9F
:10099000FFF77CFF28796979884201D1304670BD24
:1009A000204670BD002070BD38B5974809F022F987
:1009B0008C4C6946A0710120087001466A46934834
:1009C00002F028FF0025ED43284604F08BFF28465F
:1009D00004F01AF9FFF71EFEFFF7EEFC00F04AFBE9
:1009E0008B48FFF7F6FC8B4800F051FB0121A07902
:1009F00012F07AFD38BD7B4A116150617047794A27
:100A0000D160D071704708B53021032004F028F878
:100A10005021042004F024F83C21012004F020F8A7
:100A200001206946087001466A467B4803F004FBD2
:100A300008BDF8B50E466B49074608781C461546B2
:100A400004281AD0022826D000F062FA002820D00C
:100A50002021032004F004F83021042004F000F8E1
:100A60000521012003F0FCFF0120694608700146C2
:100A70006A46694803F0E0FA0DE0487800280AD099
:100A800008794979884206D131463846FFF7FEFE9B
:100A9000F8BDFFF7B8FF23462A463146384600F036
:100AA00042FAF8BD08B54F480178042908D0002063
:100AB000694608706A460121574803F0BDFA08BD2F
:100AC000008903F07FFB08BDF8B50024002802D0A0
:100AD00002242046F8BD002901D01824F9E7444F2C
:100AE00079783878FFF7BAFE05001CD0BA78F91C7F
:100AF0000023082A09D8002004E00E5C9E4204D19D
:100B0000401CC0B29042F8D308E00021F81C12F05B
:100B10001DFCB9782888FA1CFFF779FE0B2200210A
:100B2000334812F013FC2F4D2878042802D128896D
:100B300003F048FB002068712871024601464120FD
:100B4000000102F067FEC4E7022070470A46014632
:100B500010B52448008902F043FC10BD10B52149AE
:100B60000246224BC868C9791B7808E00488944281
:100B700002D184799C4205D0491EC9B208300029AF
:100B8000F4D1002010BDFEB517464A681D465478C2
:100B90001278089824020026099B1443002804D0E8
:100BA0001E4A944201D00B20FEBD1C4A921C944266
:100BB0000AD01A4A293A944206D0184A193A94425D
:100BC00002D0521C944232D14889FFF7C7FF002857
:100BD0002AD001970095034A4179126900790123CF
:100BE00015681DE00C420020983A000042420020A7
:100BF000E86600206869642069646C652065766534
:100C00006E742E2E0A000000DD080000140400009F
:100C1000E7070000E5070000050300004B2A00007D
:100C20002246A847064635E00020288032E0D54A13
:100C300094420ED1D44A1288904201D3072629E06B
:100C4000121A9A4200DD1A4692B22A80C96809181F
:100C50001DE0CC48401E844204D104202880C9688D
:100C6000024614E0C94A022094420DD0C54AD21C63
:100C7000944205D101202880C8680078387009E0C6
:100C8000C24A521E944205D12880C96802223846C1
:100C900012F08AFA3046FEBDFFB583B084460C9848
:100CA000002416460F46002802D00B2007B0F0BDE6
:100CB00079684A78097815020D43B249891C8D423A
:100CC00003D0B04919398D4211D17889FFF746FF19
:100CD000002856D006A901960091AD4A41791269C3
:100CE0000079146800232A46A047044649E0A54934
:100CF0006A46491C138B8D420AD1012B40D13078B2
:100D0000002801D0012843D1002849D0012047E024
:100D10009E49891F8D422DD10121019100903246BB
:100D20003946604604F01EF804002AD17078317804
:100D300002020A4396497B89C868C97905E0478859
:100D40009F4205D0491EC9B208300029F7D10020C2
:100D5000002816D006A901960091012A08D0032385
:100D60008B4A41791269007916682A46B04708E033
:100D70000223F5E78348C01C854202D1012B02D033
:100D80000D24204692E73078002803D0012801D0B6
:100D90008024F6E7F96808703078002805D0032031
:100DA0007B49096949688847EBE70220F8E7F8B50D
:100DB000774E0421B07912F04FFD01213089FFF701
:100DC00006FC0121308900F0CDF937897148F568BA
:100DD000874212D0F4790EE06888002808D069466E
:100DE00004F0FEF9002803D0C168384603F054FF30
:100DF000641EE4B20835002CEED100206649707004
:100E000001240C70B07001460B22644812F09EFA67
:100E100000F07EF8002816D070690079800712D59E
:100E2000A021032003F01CFEA021042003F018FEE3
:100E30000021012003F014FE684604706A46012177
:100E4000574803F0F9F8F8BDF8B50027504D0E46A5
:100E50000446042803D0287804280BD012E07089B7
:100E600028816F70684607706A4601214C4803F07C
:100E7000E3F807E0FFF79BFFE878042802D1FFF7CB
:100E8000C2FDEF702869002805D0C268002A02D090
:100E90003146204690472C70F8BD10B501203C4CDF
:100EA000002904D0012904D0022909D00EE0A07045
:100EB0000CE00021A170002A00D16070E27005E012
:100EC000002A03D16070208900F0F6F8207961795A
:100ED000884206D06078002803D00821A07912F05B
:100EE00003FB10BD38B50D4629490969002905D015
:100EF0008C68002C02D02946A04738BD6946294895
:100F000002F0C0F800212846009A02F069FA38BDC4
:100F100008B500206946087022480E3002F0B2F889
:100F20006946087808BDFFB581B016460746FFF749
:100F3000EFFF002824D0164C0B216079401C00F0F4
:100F400047FF617120790D46814204D10B21401C7D
:100F500000F03EFF21710B204543104832460B3014
:100F600047552818029941708670C01C049912F0E8
:100F70001BF96078002803D00821A07912F0B4FA98
:100F8000AAE400004B2A0000384200200829000093
:100F90000C420020FEFF000042420020E8660020D4
:100FA000050300000704000010B52D492D4803F08B
:100FB00073FE2D4B102212212C4804F03FF80446FA
:100FC0002A48C1690220FFF748FA28482449C01F6F
:100FD000027818390A71244A40784871603A508979
:100FE0000880508B488001208871C53A13780B73B4
:100FF00052784A731C4A203A52890A8100224A8157
:10100000887310310320FFF728FA15490320183997
:10101000FFF7F5FC204610BD30B5154D0020039CB0
:10102000EA4202D1032901D00A2030BD012B01D0B0
:101030000D2030BD0D4A2178083A117030BD0C48A2
:1010400010B512180020029C002A06D1032904D1F1
:10105000064808380078207001201880002010BD54
:1010600084670020FFFF00006C4300204C420020FA
:10107000B3D5FFFF10B54649464803F00DFE464B79
:10108000102218460621603803F0D8FF10BD4249EF
:10109000683908607047022070473F4B02460020C5
:1010A000643B002A03D0012A03D0022070471A882B
:1010B00000E05A880A8070473EB50446344903F080
:1010C000AFFFC0071ED000252B4601221B21204662
:1010D000009504F0B9FB0290002813D02E48694611
:1010E0002038408B88800120C8800298002205703B
:1010F00001A9204604F08EF9002803D01B2101A885
:1011000004F0E8FB3EBD00207047FEB5089E0024B9
:101110001546002E01D00B20FEBD4F687A783F782F
:1011200012023A431D4FBA420ED1042B01D00D24B6
:1011300016E0C8681A46294612F036F8164901200A
:101140006839096888470BE0154CA24207D1012293
:10115000019200962A4603F005FE044600E00A24A8
:101160002046FEBD10B504460A48401E84420DD0FC
:10117000012907D0022909D1012120460EF018F8D3
:10118000002803D10249204603F086FD10BD00006F
:1011900094670020FFFF0000E84300204F2A000072
:1011A000022900000448804704480047FEE7FEE7A4
:1011B000FEE7FEE7FEE70000C1110000910000001D
:1011C00010B5FE4857210170A8210170FB4A882103
:1011D000403A1181002101700A2000F051FC0120E9
:1011E00000F027FB10BDF0B5F44EF44D0427572254
:1011F000A824203E403DF149030008F0A1FE0D085F
:101200000E161B1F24282C32373C41462F000A7033
:101210000C70F07BFB22104003E00A700C70F07B36
:101220003843F073C820288118E00A700C705120F0
:10123000C000F8E70A700C70E148F4E70A700C701F
:1012400081208000EFE70A700C708820EBE70A70BD
:101250000C700220E7E70A700C702F8100200870E4
:10126000F0BD0A700C7093208000DCE70A700C70EF
:10127000D3484D30D7E70A700C7095208000D2E734
:101280000A700C704B20C000CDE70A700C70CC487F
:101290005C30C8E7C94810B540380089C1B20B06B8
:1012A0009A0FC848022A05D0012A04D09A0F06D006
:1012B0007D20000210BDC906C90EC34801E0C90661
:1012C000C90E00F085FD10BDBC4A57211170A82140
:1012D0001170BA4940394B150028088904D01843C9
:1012E00008810020107070479843F9E7B34A5721EE
:1012F0001170A8211170B14920390028C87B05D090
:1013000004231843C873002010707047FB23184053
:10131000F8E7FEB5A948002740380089FE1EC0B294
:1013200001068A0F022A4CD00124A403012A4BD0C3
:10133000890F55D00524002000902005000D019054
:101340009E482038848900269C49572330460B70DC
:10135000A8250D7001228A74984957220A70A82284
:101360000A70964A203A948100220A708A7C920779
:10137000FCD50A8A8A7C9207FCD48A7C9207FCD529
:10138000098A019A7F1C891A0DB2FFB2002D35D04F
:101390002946714305D5012832D0411C30D00028A0
:1013A0002ED02E4602943046009900F027FD00B260
:1013B000211A8CB202998C4247D1002D43DD641C66
:1013C00042E0824C0096B8E7C506ED0E29468048FB
:1013D00000F0FEFC0019C40B24202946C04309E09C
:1013E000C506ED0E29467B4800F0F2FC0019C40B3F
:1013F0002946304600F002FD00B29DE70020FEBD08
:10140000002E03DA761EF04306B202E06D1EE843BA
:1014100005B2B5420FDD694857210170A82101705E
:10142000664A0299203A9181002101707D20C00016
:101430007043019903E07D20C0006843114600F02D
:10144000DDFC80B2FEBD641EA4B2142F84D3FF2045
:10145000FEBD70B50D461446182100F0B9FC83B2EC
:10146000E120C00041431E2045434819610840184F
:1014700081B2E00701D00120C0030A0402434F49B2
:1014800057200870A82008704C4C403C63634B48C0
:101490002038437C80252B4343746263427C402385
:1014A0001A4342740020087070BDF7B506464348E1
:1014B0000D464038C06B84044048A40C2038418B52
:1014C000008B01224900D203904201D3012000E0A9
:1014D00000200F18E1210901384600F079FC18229C
:1014E00054430019306008463C2100F071FC28800C
:1014F0003C21384600F06CFC02980180FEBD2F496B
:1015000057220A70A8220A702C4A403A50632B488E
:101510002038427C40231A434274002008707047F0
:1015200026494039886B8A6B8242FBD1704710B5DF
:10153000224A57211170A8211170204920394B7C73
:10154000E82423404B744B7C1024204303434B740A
:101550000020107010BD00B50346FFF7E1FFC01872
:101560000104090C02D00121090440181349572233
:101570000A70A8220A70114A403A50630F48203876
:10158000427C20231A4342740020087000BD0021D1
:10159000002802D0012802D002E0202100E0102122
:1015A000064857220270A8220270044A203A537C4F
:1015B0008B435374002101707047000040100040BD
:1015C000020200000048E80100389C1C13130000D0
:1015D00000180D8F0068890909490028087C02D08D
:1015E00040210840E8E7C009C001E5E704490028B8
:1015F00004D00128E0D110200874DDE72020FBE7AB
:101600002010004000B5524A0B0008F099FC050478
:10161000071016191F00516B81430AE0516B81437B
:101620005163116B01431163116A81430DE0516BEA
:1016300001435163116B8143F5E7516B814301E035
:10164000516B01435163116A0143116200BD404A6D
:1016500000B540320B0008F073FC050407101619A2
:101660001F00516981430AE0516981435161116949
:1016700001431161116881430DE0516901435161DA
:1016800011698143F5E75169814301E051690143E3
:10169000516111680143116000BD2D4A002906D037
:1016A000012907D0022908D0032913D10CE0918A1F
:1016B000814304E0918A814308E0918A0143918249
:1016C000D16A0143D16205E0918A01439182916A16
:1016D000014391629083118A0143118270471C4B30
:1016E0001B4A4033002906D0012907D0022908D01F
:1016F000032913D10CE0D18A814304E0D18A8143CC
:1017000008E0D18A0143D182D9680143D96005E05C
:10171000D18A0143D182996801439960D083518A6B
:101720000143518270470A4A803A0028108B01D049
:10173000084300E0884310837047054A803A002838
:10174000508B01D0084300E088435083704700006D
:1017500080100040F8B59C4D57269B4CA827203D93
:1017600000282670277028880ED02115084328806D
:101770000A2000F085F92670277028886115084333
:10178000288000202070F8BD032149028843F7E734
:10179000F0B58D4C57261C228B078B4DA8270A408D
:1017A0009B0F403C00282E702F7010D0080603D5E8
:1017B000E07BFD210840E073A07A1043A0728248CC
:1017C0002038C17B1943C17300202870F0BD080682
:1017D00003D5E07B02210843E073A07A9043A07216
:1017E00079482038C17B9943EDE730B5764C5723D3
:1017F000754AA825403C002813701570E06804D095
:101800008843E0600020107030BD0843F9E730B530
:101810006D4C57236C4AA825403C00281370157066
:10182000A07B04D00843A0730020107030BD884313
:10183000F9E7F8B5644D5726634C0021A827203DF1
:101840000028267027700ED00120687128710020B2
:101850002070012000F014F9267027700D202871E7
:1018600000202070F8BD29712170F8BD574801692A
:1018700004229143016130BF704730B45248572170
:101880000170A8210170504A403AD17BF7231940DA
:10189000D1734D4B0021203B197105231381017039
:1018A0004A4A136904242343136130BF017030BCDA
:1018B0000120BEE730B4444857210170A8210170CF
:1018C000414A403AD17B08231943D1733E4B002152
:1018D000203B19710523138101703C4A13690424CC
:1018E0002343136130BF017030BC0120A1E730B445
:1018F000354957220A70A8230B70354C2043324CCF
:10190000203C2080002008700A700B7020712E4B44
:101910000522403B1A8108702C4A13690424234392
:10192000136130BF087030BC012082E730B4264913
:1019300057230B70A8220A70092424030019224C93
:10194000203C2080002008700B700A7020711E4B14
:101950000522403B1A8108701C4A13690424234362
:10196000136130BF087030BC012062E7164A57236C
:101970001370A824147014494039887B0825284323
:1019800088730920104D0003203D28800026167022
:10199000886B8F6B8742FBD10A3007043F0C02D063
:1019A00001273F04C01930272F7413701470486347
:1019B0002F2068741670137014700520088116703B
:1019C00040BF20BF20BFFEE74010004000ED00E018
:1019D000049000003C49062805D049790122824044
:1019E000114008467047087808210840704736487B
:1019F00057210170A8210170817901221143817161
:101A000000210170704731490968016000202F49A9
:101A1000C0438031086070472C49086070472C48EB
:101A200080697047284957220A70A8220A70002846
:101A3000887905D00422104388710020087070470F
:101A4000FB221040F8E7204957220A70A8220A70AA
:101A50000028887905D00222104388710020087080
:101A60007047FD221040F8E7174857210170A82160
:101A7000017081791022114381710021017070473A
:101A800000220AE0022101E000BF00BF0B46491E10
:101A900089B2002BF8D1521C92B28242F2D3704725
:101AA00070B500247D260546F60004E03046FFF7B9
:101AB000E7FF641CA4B2AC42F8D370BD0549CA7AF2
:101AC000082AFCD0087270474010004000E100E096
:101AD00000E000E00034004010B50446FFF7DAFBF8
:101AE0000A214843C008214600F072F90A21401D2E
:101AF00000F06EF92249888110BD10B5E120400246
:101B0000FFF7EAFF1E48872181700321C170402141
:101B100041700121817310BD19498A789206920E95
:101B2000800102438A707047154A0028507806D019
:101B3000084350701078082108431070704788439C
:101B4000507070470E498020487070470C4A07E07B
:101B5000D37A082B04D003781372491E89B2401C33
:101B60000029F5D1704701460020054A04E0137AA8
:101B7000401C0B7080B2491C937A002BF7D1704740
:101B80000034004010B5FFF7C4FB022801D9FFF76D
:101B9000C0FB10BD30B55649CC7E0B7E4A7EC87E58
:101BA00080252843C8760F20087621204876887E35
:101BB000012528438876887EC007FCD1888BCC76A7
:101BC0000B764A7630BD30B58DB0122249A14E4811
:101BD00011F0DCFA002841D0454857210170A821B6
:101BE00001705121424AC900403A1181002101701F
:101BF0004748464A4261474A0724D3691B021B0AE9
:101C000045042B43D3618161046101690222914340
:101C1000016134220021684611F098FB3E48009093
:101C200001204003694688801B20C8730A2008747D
:101C30000120487415208874FB20800202900D203A
:101C400008773648089036480A90084601F0BCF8F4
:101C5000010007D033A008F04BF9FEE739A008F0E7
:101C600047F9FEE70DB030BD70B50C4609040AD542
:101C700011F0B0FB002801D011F084FB01212046B7
:101C8000C903484070BDE00702D00120604070BD2C
:101C9000314DA00405D501F015F901262F4A760330
:101CA00008E060040DD52EA008F022F97D22D201B3
:101CB0000126B6033146287811F06CFD20467040AD
:101CC00070BD002070BD10B5264807F093FF224C70
:101CD000207000F063F862B6204A012149032078A1
:101CE00011F058FD10BD10B500F0D0FF10BD000080
:101CF0004010004043483537785F424C455F4C49BF
:101D0000425F56312E340000443A0100FEFFFF00CE
:101D100000E000E004ED00E0D84600201F1A0000BB
:101D2000951B00004C494220696E697420657272EF
:101D30006F7220636F64653A202578202E2E2E0A5C
:101D400000000000686561642066696C652065724A
:101D5000726F722E2E2E0A00F543002000EE020054
:101D60002A200000691C00000104090C02D0012196
:101D700009044018144957220A70A8220A7012490F
:101D80004039486311490020086070470E493020EF
:101D9000203908740D4901200860704710B50A48C1
:101DA00057210170A821017007492039CA7B0723F8
:101DB0001A43CA73002101700A460846FFF749FB1F
:101DC000002008F041F810BD40100040F84300200A
:101DD00030B50B46014600202022012409E00D46C3
:101DE000D5409D4205D31D469540491B254695404B
:101DF00040191546521E002DF1DC30BD70B500248F
:101E00002546002801DA01244042002901DA012593
:101E10004942FFF7DDFFAC4200D04042002C00D029
:101E2000494270BDF0B51FB486B00020009001900B
:101E300002900698069980B204900798090C020453
:101E40000014114307900027089D099806913E460B
:101E50003C4603900398A9B20204000C0390049836
:101E60002D0C154348430021224600F018F8C719ED
:101E7000714110340E46402CECDB3846029A00F0DB
:101E80000EF8009A019B8018009059410298019128
:101E9000103002904028CCDB00980BB0F0BD10B59C
:101EA000202A04DB0146203A9140002010BD9140D9
:101EB00020239C1A0346E3401943904010BD03467B
:101EC0000B439B0703D009E008C9121F08C0042A6E
:101ED000FAD203E00B780370401C491C521EF9D261
:101EE0007047F0B51FB40646002082B00546402476
:101EF000019100901BE0019922460F46304600F008
:101F000033F8049A059B801A994110D3104619465C
:101F10002246FFF7C4FF361A8F410197224601205F
:101F20000021009FFFF7BBFF38184D41009020466D
:101F3000641E0028DFDC019B00982946324607B06A
:101F4000F0BD0000064C0125064E05E0E36807CC15
:101F50002B430C3C98471034B442F7D3FEF79CF85F
:101F60003C3E01005C3E010010B5202A04DB08461F
:101F7000203AD040002110BD0B46D340D040202451
:101F8000A21A91400843194610BD70B58C18057807
:101F9000401C6B075B0F01D10378401C2A1106D14E
:101FA0000278401C03E006780E70401C491C5B1E42
:101FB000F9D12B0705D40023521E0DD40B70491CF8
:101FC000FAE70378401CCB1A921C03E01D780D70D1
:101FD000491C5B1C521EF9D5A142D8D3002070BD0C
:101FE00070B50D4601461446104600F08DFF0E48B0
:101FF00030C004F049F9002000F09EFD012407F0F4
:1020000061FD07F041FD06F09DFB204600F094FDC8
:10201000641CE4B20A2CF2D307F054FD07F034FD3F
:102020000A2000F089FD70BDCC46002010B5124C8E
:102030002068C0051FD50320206000200821401C17
:102040002268C0B20A4322600EE02268920510D4D2
:10205000222807D90948026B002A0AD0012103204F
:10206000904706E0401CC0B22268D205EDD500289A
:10207000E5D10020206010BD80C30040BC67002077
:10208000F8B514460D460646FFF7D0FF504F3B68A3
:102090001868062188431860717830780902401862
:1020A000B178F2780904120689184018986271799B
:1020B000307909024018B179F279090412068918B9
:1020C0004018D862717A307A09024018B17AF27AEF
:1020D00009041206891840181863717B307B0902C5
:1020E0004018B17BF27B0904120689184018586326
:1020F0006978287809024018A978EA780904120654
:102100008918401898616979287909024018A979D5
:10211000EA790904120689184018D861697A287A80
:1021200009024018A97AEA7A0904120689184018A7
:102130001862697B287B09024018A97BEA7B0904A5
:10214000120689184018586258680221884358605E
:102150005A68012002435A601A6802431A6058689C
:102160008007FCD5586888435860986920703868A3
:102170008069000A607038688069000CA070386857
:102180008069000EE0703868C1692171C169090A6F
:102190006171C169090CA171C169090EE171016A1E
:1021A0002172016A090A6172016A090CA172016A4D
:1021B000090EE172416A2173416A090A6173416A39
:1021C000090CA173406A000EE0730020F8BD000006
:1021D0004C46002070B50C460546FFF727FF1C480B
:1021E0000268106820218843E907890E08431060BF
:1021F0008034A06C1061E06C5061A0699061E0696E
:10220000D061206A1062606A5062A06A9062E06ADF
:10221000D062206B1063606B5063A06B9060E06BCA
:10222000D060D068E16B88420AD11069A16C884205
:1022300008D00848026B002A02D0022103209047F0
:10224000012070BD1068402108431060002070BD5F
:102250004C460020BC67002070B50C460546FFF7D1
:10226000E5FE1C480268106820218843E907890EB2
:10227000084310608034206C1061606C5061A0696C
:102280009061E069D061206A1062606A5062A06A61
:102290009062E06AD062206B1063606B5063A06B49
:1022A0009060E06BD060D068E16B88420AD1106921
:1022B000216C884208D00848026B002A02D0032112
:1022C00008469047012070BD106840210843106007
:1022D000002070BD4C460020BC67002010B504F003
:1022E0002DFE024903F0F7FB002010BD060400009C
:1022F00010B50DF05DFE10BD08B5002808D000290E
:1023000006D0002A04D01088002801D0002008BD83
:102310001220694608706A460121034803F0D7FB82
:102320006946087808BD0000350C000008B504F0C7
:102330000FFA694608706A460121034803F0C7FB9B
:102340006946087808BD00001120000008B504F0B7
:1023500045FB694608706A460121034803F0B7FB54
:102360006946087808BD000010200000FEB508AFDF
:1023700070CF6F4670C704F057FB0446024903F064
:10238000AAFB2046FEBD00001320000008B504F0A3
:10239000C5FD694608706A460121024803F097FBB3
:1023A000002008BD0E20000038B5044604F0C4FF2C
:1023B000694608704C70200A88706A4603210248FA
:1023C00003F085FB002038BD1B20000038B5044613
:1023D00004F0CAFF694608704C70200A88706A468B
:1023E0000321024803F073FB002038BD1A200000CF
:1023F0000EB500A8013005F052FB694608706A4628
:102400000921024803F063FB00200EBD18200000E4
:1024100008B500A8013004F011FF694608706A464B
:102420000421034803F053FB6946087808BD000007
:102430000220000038B5044605F08CFB69460870A0
:102440004C70200A88706A460321024803F03FFB63
:10245000002038BD212000007FB5044608A861C8CF
:10246000009002960195204605F08CFB69460873A2
:102470004C73200A887303AA0321034803F027FB47
:10248000002004B070BD00002020000008B505F059
:1024900021FE694608706A460121034803F017FBD4
:1024A0006946087808BD00000820000008B505F05E
:1024B0009BFD694608706A460121034803F007FB4B
:1024C0006946087808BD00000A200000F0B585B014
:1024D0000AACF0CC03976F4670C705F01BFE694647
:1024E000087404AA0121034803F0F1FA6946087C44
:1024F00005B0F0BD0620000008B505F061FE694694
:1025000008706A460121034803F0E1FA6946087839
:1025100008BD00000520000008B505F08FFE6946E3
:1025200008706A460121034803F0D1FA6946087829
:1025300008BD00000C20000008B505F0C3FE694688
:1025400008706A460121034803F0C1FA6946087819
:1025500008BD00000920000010B505F01AFF02496F
:1025600003F0B9FA002010BD1920000010B504F0E6
:102570003BFF10BD1CB500A8013005F09FFA69466D
:1025800008706A460721034803F0A1FA69460878F3
:102590001CBD00000910000010B5D2B205F0A6FC69
:1025A00010BD0A7802708A7842704A88120A8270D6
:1025B0000979C170042070470A7802700988090AF5
:1025C00041700220704708888004000C70478A78A8
:1025D000027088780128088804D012214843401CE2
:1025E00080B270478000FAE70A7802700A88120AFF
:1025F00042704888801C80B270470A7802700A884E
:10260000120A42708A7882704A88120AC2708888D8
:10261000001D80B27047088870478A780270088869
:1026200049884843401C80B270478A780270088805
:1026300049884843401C80B2704708887047088822
:1026400070477FB515460446022901D0102903D1F1
:10265000022B04D0102B02D0002004B070BD994290
:1026600002D10A46294607E01029694607D000F042
:102670000DF810226946284610F088FDEDE7104657
:1026800000F004F8102269462046F5E770B50C46C4
:1026900005000CD0002C0AD010220649204610F06C
:1026A00083FD2878207368786073012070BD002056
:1026B00070BD0000EC3A010008B500220B46009204
:1026C0000122024907F00AFE08BD0000A325000010
:1026D00008B50A88172A07D300220B460092032266
:1026E000024907F0FBFD08BD022008BDB925000026
:1026F00008B500210B461922009107F0EFFD08BD37
:1027000038B5054608880C4600280DD060680028BA
:102710000AD0012110F0F6FC00902346072203495D
:10272000284607F0DBFD38BD022038BDC725000074
:1027300038B5054688780C46012801D0022810D10A
:10274000208800280DD0606800280AD0022110F0EF
:10275000D9FC0090234605220349284607F0BEFD18
:1027600038BD022038BD0000CF250000064910B555
:10277000884202D103F018FE10BD0CF069FC00285D
:10278000FAD1172010BD0000FEFF000038B5054645
:102790004A6800200C46002A03D00321104610F09E
:1027A000B1FC009023461D220249284607F052FD45
:1027B00038BD0000E925000038B505464A6800200C
:1027C0000C46002A03D00321104610F09BFC009019
:1027D00023461B220249284607F03CFD38BD000075
:1027E000E9250000024800210160416070470000B7
:1027F000684600200098022B01D0042070475178D1
:102800001278090211430180002070470098012BC3
:1028100001D004207047117801700020704770B516
:10282000049C1E461546062B1BD3687829780002A7
:1028300008432080E878A9780002084360800220DD
:1028400020710246291D601D10F0AEFCB01F2081D2
:10285000062E03D0AD1DE560002070BD0020E060B5
:10286000FAE7042070BD0098042B01D004207047C3
:1028700051781378090219430180D17892780902BE
:102880001143418000207047F8B584890D46002C23
:102890002BD086683778390601D4002010E00D2C43
:1028A00023D30C3CA4B23119009140882346324610
:1028B000012107F071F8002801D0022000E001207A
:1028C00079062870C90FBA066970920EAA70641E44
:1028D0002204120CAA8002D0761CAE6001E0002215
:1028E000AA60022803D1002901D00120F8BD0020F0
:1028F000F8BD10B50298042B14D35178147809024E
:1029000021430180D1789478090221434180191F25
:102910008180042B02D0121D826001E000218160C1
:10292000002010BD042010BD0098042B01D004200D
:10293000704751781378090219430180D178927851
:102940000902114341800020704710B502981146DA
:10295000062B03D0142B03D0042010BD022200E06C
:10296000102202714A780B7812021A430280CA7848
:102970008B7812021A4342800279401D091D10F023
:1029800013FC002010BD0098D90706D1022B04D0FB
:102990005908818002600020704704207047009829
:1029A000022B01D00420704751781278090211439C
:1029B00001800020704710B5029C022B11D32072B9
:1029C000617250781178000208432080981E608060
:1029D000022B02D0921C626001E0002060600020A7
:1029E00010BD042010BD000038B5054688680C46AF
:1029F000002802D0052110F085FB00902346172205
:102A00000249284607F06AFC38BD0000FB2500009B
:102A100038B5054648680C46002802D0012110F060
:102A200071FB009023460D220249284607F056FC10
:102A300038BD00001726000038B5054608880C464A
:102A400000280DD0606800280AD0022110F05AFB3F
:102A50000090234611220349284607F03FFC38BD69
:102A6000022038BD1B26000038B5054608880C46F4
:102A700000280DD0606800280AD0022110F042FB27
:102A80000090234609220349284607F027FC38BD59
:102A9000022038BD2B26000038B5054648680C4694
:102AA00000280AD0012110F02DFB009023460F22B0
:102AB0000349284607F012FC38BD022038BD00004B
:102AC0003B26000038B505464A6800200C46002A1F
:102AD00003D00121104610F015FB009023460B2275
:102AE0000249284607F0FAFB38BD00003F260000E7
:102AF00001490860704700006846002070B505462F
:102B000008480C46854205D0172C03D303F04CFC33
:102B1000A04201D2012070BD214628460CF058FB8E
:102B200070BD0000FEFF000008B500210B46132217
:102B3000009107F0D3FB08BDF0B50D4A00218000DD
:102B40000C4D1668844662465218930000208A0095
:102B500092191F18145CEF5D7C401454401CC0B2E5
:102B60000428F6D3491CC9B20429ECD3F0BD0000F7
:102B7000CC460020846A002007484179FF2901D112
:102B8000252141710548C9B201430548006801602B
:102B90000449C162704700000C68002080220801CF
:102BA00050460020784E010010B580060A49800E7C
:102BB0000A4A487110684468FF2301339C4344600B
:102BC000487907490843074909680860106841685F
:102BD0001943416010BD00000C68002058460020D9
:102BE000802208015046002080060449800E48716A
:102BF0000349084303490968086070470C680020CE
:102C0000C02208015046002010B51249002008607B
:102C10001149FF204871124A10481060124A1148A9
:102C20001060134A11481060134A12481060144A89
:102C300012481060134C01222068D202C86080182C
:102C4000086100F03FF9607D002802D10E49202084
:102C5000086010BD1C4400200C68002000C000402B
:102C60005446002000C300404C46002000C20040F3
:102C70001844002000D000405846002000C1004009
:102C800050460020BC67002000E100E0F0B54A4B50
:102C900018688168002689070127484C484D00299B
:102CA00015DA8168022291438160E770A6705D2188
:102CB0000165286800280AD001690A684069024352
:102CC0000A6029680868026889680A43026018680F
:102CD0008168C90713D0816849084900816026705E
:102CE0006770286800280AD041680A688068024333
:102CF0000A602968C868026849690A4302602E4868
:102D000000688168C90524D58168FF22013291439A
:102D100081602178490605D52A4B996BA1609A6B91
:102D20009142FAD12178394321706670E179062900
:102D300001D05D210165286800280AD001690A6870
:102D4000406902430A60286801680A688068024393
:102D50000A60194A10688168890516D581680123BF
:102D60005B0299438160A0783843A070E6702868C0
:102D700000280AD041680B68806803430B6028680C
:102D8000C1680B68406903430B6010688168C9061D
:102D900003D581681022914381608168490703D57A
:102DA00081680422914381608168090703D58168A5
:102DB000082291438160F0BD184400200C68002077
:102DC0001C4400200010004070B53D4D0446687D55
:102DD000002805D1016D406D814201D1012070BDF7
:102DE0002068002818D00121000C4903884213D123
:102DF000A088002810D020460622FF21163010F0AF
:102E0000B6F901280AD0A068002809D07D21C9029E
:102E1000884205D2062070BD022070BD032070BD1F
:102E2000A2880021206810F091FA34220021244861
:102E300010F08CFA34222146214810F0B5F9A88907
:102E4000002802D101204002A881A97B012000298D
:102E500000D1A873E97B002901D11B21E973297CEA
:102E6000002901D10A212974697C002900D16874E4
:102E7000A87C002801D11520A874A87F002801D1C2
:102E80002820A877E87C002808D0A97FE07C4908A2
:102E90004018E874607F002804D005E0A87F40084F
:102EA0005030F6E704206877A86A002803D08047EE
:102EB00003493431C88006F053FE002070BD000085
:102EC000BC67002010B500F07BF803F0D1FB05F0E3
:102ED0007BFCFFF751FE0A4C5D202168086505F078
:102EE0003DFD06F0FBFA05F001FD05F0D3FC21687D
:102EF000002008650349C871FFF798F810BD00006D
:102F0000184400200C68002000228B5C8354521C63
:102F1000D2B2102AF9D3704770B50E4B00209989B0
:102F2000002901D10C4999810E210124A4039A8919
:102F300015462540CD405204120C0543E8B2560414
:102F4000D50BF60F75401543491EC9B29D81062960
:102F5000EDD870BDC8690020FF7F000070B50E4B32
:102F600000205989002901D10C49598108214C01BF
:102F70005A8915462540CD4005435200E8B2550A0E
:102F800056097540ED07ED0F1543491E09065D8191
:102F9000090EEDD170BD0000C8690020FF010000DE
:102FA00000220AE0022101E000BF00BF0B46491EDB
:102FB00089B2002BF8D1521C92B28242F2D37047F0
:102FC0000A4809490068CA680261CA684261096919
:102FD0008161C1618268012149030A438260C2683C
:102FE0000A43C260704700000C680020544600206D
:102FF00030B5104A0346517AFD20842454720E4C99
:10300000A568002D07D0A57B002D04D0A489E51F5D
:10301000FF3DFA3D02D05172FF2030BD7D24E40215
:10302000A34205D35360A6201072907A40235840E3
:10303000517230BD00180040BC670020F8B5002474
:103040000F4E274613E0F06B250128180622FF21BA
:1030500010F07CF9F06B06222818FF21801D10F07B
:1030600075F9F06B28188781641C8773E4B2F07DD2
:103070008442E8D3002010F049FAF07D3076F8BDA4
:10308000A845002070B50C460146012080020A1AAE
:1030900000252A48130006F053FF1F111316181AB3
:1030A0001D1F21232527292B32343646393B3D3F2E
:1030B000414646464646464646444600007800E0BD
:1030C0004078207037E08078FBE7C078F9E710227D
:1030D0001B4910E00079F4E74079F2E7006A13E059
:1030E0008079EEE7C079ECE7007AEAE7407AE8E732
:1030F000134910221031204610F056F81BE0807A58
:10310000DFE7C07ADDE7406A206014E0007BD8E7A3
:10311000407BD6E7807BD4E7407CD2E707F02AFEED
:10312000CFE7407DCDE7192904D2084601F040FAE7
:10313000208000E00225284670BD0000A845002040
:103140001869002010B5044600F0D4F802488475D0
:1031500007F04AFF10BD0000A8450020FFB58FB062
:10316000064600200C900D901F460CAA304600F039
:10317000B5FA454D0446E87D84425AD2204607F010
:1031800013FF0646042F04D0A879022803D000209C
:1031900002E02878F9E7012000903B4632462146BC
:1031A000119807F0BFFD1422002101A810F0CEF8FD
:1031B00020460621484300902430C0B201AA1021C5
:1031C00010F002FA002813D11022FF2101A80FF0FD
:1031D000CEFF00280CD1009805AA2530C0B20421EA
:1031E00010F0F2F9F107C90F01AA119801F048FC9B
:1031F0007034E0B206AA182110F0E6F9002811D1C7
:1032000006A807F0E3FE0024A10006A8081801881C
:10321000002903D08278119801F06EFF641CE4B29B
:10322000062CF1D3B00706D5A97D119801F052FF05
:1032300001E0082F02D0042F13D021E0A879022842
:103240001ED100223146119807F0A6FCA86A00287A
:1032500016D04368002B13D00022114611989847CE
:103260000EE0287802280BD129791198002900D086
:1032700001216A78002A00D00422114301F0D0FB1A
:10328000002013B0F0BD0000A8450020F8B501F003
:1032900023FA00282BD1164D0026A87C012801D046
:1032A00000241CE007F0B2FDAE740020EA7DE96B5B
:1032B00004E003015B18401C9E73C0B29042F8D337
:1032C00010E0E86B27013818807B012805D12046E3
:1032D00007F0AEFDE86B38188673641CE4B2E87D35
:1032E0008442EED3502010F033F907F07DFEF8BD94
:1032F000A8450020F8B5354EFF20B0750027F775BA
:10330000334CF763A07B3021484342210FF068FF24
:10331000F063002825D02046807B41004018F075DE
:10332000002413E0F06B250128180622FF2110F07D
:103330000DF8F06B06222818FF21801D10F006F80A
:10334000F06B28188781641C8773E4B2F07D844297
:10335000E8D31F488068002801D0777601E08020FC
:103360007076F07D30760124776334707770B770B3
:10337000F7701022002117480FF0E8FF377177250A
:1033800075713762B471F771124837727772102213
:10339000002110300FF0DAFFB772F57277623773E1
:1033A000052070731020B073F77302203074B76279
:1033B000F76237637774B774F474044834757475BE
:1033C00005494830016005494160F8BDA845002025
:1033D000BC6700201869002081B2000049B20000DB
:1033E00070B50024054600290BD108491046FEF7A8
:1033F000EFFC0846294601F0CBF9040003D0012177
:10340000284601F065FB204670BD000040420F00D9
:1034100010B506490C46483CA162E062A17D182027
:1034200001F01EFBA07D01F003FE10BDF045002061
:1034300070B5264D0C4608040FD5A87D0FF0CAFFC5
:10344000050006D007F072FE002802D028460FF0D3
:1034500099FF0120C003604070BDA0070BD500217B
:10346000084607F0FFFA02214C40002825D1A87D2C
:1034700010F03AF81FE0E00721D0686B808807F071
:1034800087FE01214C40002817D0A86A00280DD0E3
:103490004368002B0AD0686B002280889847A96A8D
:1034A000686B00224B68808803219847E87C10F005
:1034B0006BF807F0C9FA204670BD0121D7E7600715
:1034C00002D50420484070BD002070BDA8450020F2
:1034D0007FB5044680787F4D801F030006F030FDE5
:1034E0000AF4F7F7A41306F0F778B9F7A96A2046AB
:1034F000002907D00C68002CFBD0437B027B41895C
:10350000C01CA047E3E060780026002847D1A079DE
:10351000C00744D0686B002841D1102200216846C2
:103520000FF014FF6169002903D0062268461031AC
:1035300007E0A0880BF0B8FC0028E3D0811D06222C
:1035400068460FF031FE69468889A1794907C90F9D
:1035500008436946888107F00DFCE97D88420BD15C
:10356000687D002801D0FFF769FD5B48026B002AE7
:1035700002D001210820904707F0FCFBE97D88423A
:10358000687E02D10121084301E0400840006876CE
:103590002146684607F066FA002812D01526A86A68
:1035A000002855D04368002B52D06278A0880121B2
:1035B0009847002E4CD0A96AA0884B683246032158
:1035C00073E00221A87D0FF08FFF002004B070BDD2
:1035D0006078062817D1A0880BF066FC060012D090
:1035E000287C012804D0022808D003280BD114E03D
:1035F0007179A088002207F0CFFA04E0A188307822
:10360000052201F075FAA86A002860D04368002BF3
:103610005DD06278A088022147E000224120114657
:10362000000100F0F7F8E9E7E0780022211D00F042
:1036300055F8E97D88424AD2062148432530224682
:10364000C0B20C32042110F003F8E87C0FF09CFFAC
:103650003DE0287B002802D0A088697B28E02878FC
:103660000028A08823D00BF01FFC06002FD0A07AE2
:10367000C0070BD07079002808D0A189890505D42E
:103680006A46B11D00F02AF8002814D0224671794C
:10369000A088083207F080FAA86A002817D043688B
:1036A000002B14D00022A088114698470FE0052176
:1036B00001F00EFA0BE0A0880321F9E700E003E037
:1036C000A08800F021FA02E0A088FFF7DFFD0120CA
:1036D0007CE70000A8450020BC670020F0B52E4E16
:1036E00085B0F47D15460F46002806D0012804D089
:1036F000022811D003284BD121E0084607F00CFC2A
:10370000F17D0446884243D2002D41D0062239463D
:1037100028460FF049FD3BE000240BE0F16B20014F
:10372000401806223946801D0FF030FD002826D1B2
:10373000641CE4B2F07D8442F0D3C4B21FE00024E4
:1037400019E02046062148432330C0B26A461021C2
:103750000FF03AFF00280CD11022FF2168460FF02D
:1037600006FD002805D13946684601F027F90028F2
:1037700005D0641CE4B2F07D8442E2D3DDE7F07D45
:10378000844205D2002D03D02946204607F0ECFBE9
:10379000204605B0F0BD0000A8450020F8B50E4653
:1037A00019491525194F884214D1002409E03246E1
:1037B0000221204607F0F8FA002800D00025641CFA
:1037C000E4B2F87D8442F2D3002E1BD010480BF0F7
:1037D00087FC17E00BF068FB040012D06079002230
:1037E000A11DFFF77BFFF97D884204D232460221FA
:1037F00007F0DAFA0025002E04D0204607F032FC4C
:1038000000E014252846F8BDFFFF0000A845002071
:1038100065B00000F0B50746012080021546381A51
:1038200089B00024B44AB54E030006F089FB1F118D
:10383000181F262D333A3F464D545B626970757CE4
:10384000EEEDECEBEAE989E8E7AAAAF2F5E4EA0092
:10385000012971D1287802286ED8307049E10129F8
:10386000F7D128780128F7D8707042E10129F0D10A
:1038700028780428F0D8B0703BE10129E9D12878F4
:103880000128E9D8F07034E11029E2D1102229464C
:103890009B48ADE00129DCD128780128DCD83071C3
:1038A00027E10129D5D12878707122E10429D0D1EE
:1038B00028689042D0D830621BE10129C9D128780C
:1038C0000228C9D8B07114E10129C2D12878012891
:1038D000C2D8F0710DE10129BBD128780428BBD8EA
:1038E000307206E10129B4D128780128B4D8707269
:1038F000FFE01029ADD1824810222946103077E030
:10390000012919D12878012816D8B072F1E00129CF
:1039100012D12878F072ECE004290DD12868904289
:103920000AD87062E5E0002906D100F0D5FE002833
:1039300003D00120B074DCE073E007F067FA1CE00C
:1039400007296ED10622691C68460FF02DFC2878E5
:1039500000226946FFF7C2FE0546F07D854239D256
:1039600000F0BAFE002805D0F26B01202901891869
:103970008873BEE0284607F05BFA50200FF0E8FDA0
:1039800095E007294DD10622691C07A80FF00CFC11
:103990002878002207A9FFF7A1FEF17D88421BD2FB
:1039A0000621484305462135E8B26A461C210FF03E
:1039B0000BFE00280ED15348874201D1012000E0C0
:1039C000FF206946C876E8B26A461C210FF040FE27
:1039D000F07C4AE002248CE0707E0028FAD049484E
:1039E000874213D10120B07644480722294640304F
:1039F0000FF0DAFB7DE06BE00EE00AE066E060E0ED
:103A000058E06CE04AE041E039E031E00020B07677
:103A10006FE0002030756CE00027012030753D46D6
:103A20001BE057E028460621484306462136F0B2FF
:103A30006A461C210FF0C8FD00280CD16846C07EE4
:103A4000FF2808D0FF206946C8760127F0B26A46F1
:103A50001C210FF0FDFD6D1CEDB22848C07D854294
:103A6000E0D3002F45D02548C07C0FF08DFD40E00D
:103A700001292FD1287801282CD8307339E0012969
:103A800028D12878092825D8707332E0012921D15E
:103A90002878C11F09291DD8B0732AE0012919D13E
:103AA000717C28787074002923D1012821D107F076
:103AB0009BFA1EE001290DD1287803280AD830741A
:103AC00017E0012906D12878F07412E00120CCE734
:103AD000012901D018240CE02878707509E0192F0D
:103AE00000D377E70229FCD12988384600F0B8FFD7
:103AF0000446204609B0F0BD3F420F00A845002013
:103B0000186900201A040000FEB506460020019046
:103B1000029030460BF0C8F9040017D0144FB87962
:103B2000022813D0607901AAA11DFFF7D7FD054631
:103B3000F87D85420BD2284607F036FA024601206E
:103B4000009008232946304607F0ECF8FEBDB8790E
:103B5000002807D00128F9D161790022304607F00A
:103B60001BF8FEBD0521304600F0B2FFFEBD00008F
:103B7000A8450020F7B516491525164E1746884268
:103B80000FD1002409E03A462046019907F074FA63
:103B9000002800D00025641CE4B2F07D8442F2D3FA
:103BA00013E00BF081F900280ED04379811D00222B
:103BB0001846FFF793FDF17D884206D23A460199F7
:103BC00007F05AFA002500E014252846FEBD000043
:103BD000FFFF0000A845002070B50C4601460320F9
:103BE00000020A1A00252548130006F0A9F9130B54
:103BF0000D10171A1E2125292B2D3133393B3D3D40
:103C000035373D00407811E010221D4902E01C4983
:103C10001022103120460FF0C7FA2DE040692060D5
:103C20002AE0164906221E31F4E7C078207023E00E
:103C3000124982782431EDE7114902791F39E9E709
:103C4000407AF3E7807AF1E70C4906221831E1E780
:103C5000C07AEBE7007BE9E7C0890AE0008A08E068
:103C6000007AE3E74079E1E7192904D2084600F039
:103C70009FFC208000E00225284670BDFC45002006
:103C800077690020F8B5164CFF202070002565707C
:103C90000320A0700126E670062765611920E781E0
:103CA000C001208220461F22294624300FF04EFBFF
:103CB00020460221243001704670877025711F2232
:103CC000002108480FF042FB204606220021183050
:103CD0000FF03CFB6571A571FF20E071F8BD00009D
:103CE000FC45002058690020FFB583B01C461546EE
:103CF0000E460C9F03980BF0D7F8002817D0C18907
:103D0000B14207D3A94205D8018AA14202D1408A13
:103D1000B8420ED06846068045808480C7806946D8
:103D20000D9A039802F012FB002007B0F0BD14209A
:103D3000FBE71820F9E7000010B52548007F800751
:103D400044D0244C2078FF2840D1234805F052FF6E
:103D50002070FF283AD0214900240C602049214AD4
:103D60000C700421117000F023FE102200211E4867
:103D70000FF0ECFA102200211C480FF0E7FA1C4863
:103D80001E4904601B48184A04701B480470072031
:103D900008701B481021047002200FF015FC134A14
:103DA000102103200FF010FC10220F4915480FF0CE
:103DB000FBF9144810220D4910300FF0F5F90421D9
:103DC0000B4A08460FF000FC002010BD182010BD63
:103DD000BC670020FC450020693E0000F84500203B
:103DE00004460020FD4500207769002087690020F7
:103DF0001046002005460020064600200746002009
:103E0000084600203869002010B504F079FA1048FF
:103E100005F0F0FE02F0DAFA0E4805F0EBFE00F0D5
:103E2000D3FB0D4805F0E6FE01F0B6FA0B4805F0AD
:103E3000E1FE05F031FC0A4805F0DCFEFFF782F9EF
:103E4000084805F0D7FE00F0F5FEFFF775FF10BD3E
:103E50000D650000CD480000A5540000A9970000A2
:103E600031340000B14D0000FEB54A4C0D46080447
:103E700048D520780FF0AEFA040040D046480078CC
:103E8000002808D02078454ED02808D0A22802D09B
:103E9000912821D014E0204608F0C0F92CE0A07849
:103EA00000280DD0052807D0082809D006280BD0F7
:103EB0000728F0D1A0881BE0608919E0007B04E0AE
:103EC000204608F0ABF902E0E0790828E3D121466A
:103ED00030780FF0B7FA12E060780E28F0D1A088A1
:103EE0002F498842ECD1A0688178427808021043BB
:103EF0000AF0DAFF0028E1D120460FF043FA012052
:103F0000C00345E068040BD50421264A08460FF09B
:103F10009FFB254800780FF037FB0120800337E036
:103F2000E80736D021480078002830D00BF0F0F8B0
:103F30001F49097F8907890F884203D303206946F7
:103F400008700CE01B486946007808701A48062281
:103F50000078487000A8194902300FF025F9184878
:103F6000694600780872174800784872207800F097
:103F700047FB00280BD01449062008701349096834
:103F8000002904D00A68002A01D0002190470120AE
:103F90006840FEBDFC45002002460020034600208C
:103FA0000514000010460020BB450020FF450020FE
:103FB000BC6700200546002006460020144600206D
:103FC000074600200846002004460020F84500204F
:103FD0007CB514460D4601F0DFFA002D02D02846CC
:103FE000FFF716FA0C480078002801D011207CBD9C
:103FF000002C01D0094804600A48009008490B4889
:10400000019102780A48084B01780A48007800F0CC
:1040100051FA00207CBD000004460020F845002035
:1040200010460020876900207769002001460020A3
:10403000FD450020FC450020F8B50C465E491646BB
:10404000421819210025C9015C4F130005F078FFC3
:10405000120A1017A81C3E526970778188A8A3A87D
:10406000A88F98A8102C73D11022314654486CE0C8
:10407000102C6DD1524810223146103065E0042CCE
:1040800066D13068786190E0012C61D1F9783078A0
:104090004A4AF870127800290AD0002807D1387AE5
:1040A000022801D0052802D1104600F057FA7CE022
:1040B00000287AD0387A012803D0032801D00428B8
:1040C00073D1012110460FF00FFA6EE01F2C60D85B
:1040D0003A481F22002124300FF038F93748224691
:1040E000314624300FF060F8344BBC702433224644
:1040F000012112E01F2C4CD831481F2200211F380B
:104100000FF024F92E48224631461F380FF04CF8A4
:104110002B4B3C711F3B22460021387800F02CFDD0
:1041200048E0012C35D13078042832D878723CE050
:10413000012C2ED1307803282BD8B87235E0062C0C
:1041400027D11E480622314618300FF02DF82CE0FA
:104150001FE0012C1DD1307807281AD8F87224E00E
:10416000012C16D13078032813D838731DE030881D
:10417000022C0ED106280CD388420AD8F88114E00C
:104180003088022C05D1062803D3884201D8388212
:104190000BE0182509E0012CFBD13078787104E0A0
:1041A000192801D2022C02D002252846F8BD3188F8
:1041B00000F056FC0546F8E7FFFCFFFFFC45002039
:1041C0007769002010B504460AF06EFE002805D07D
:1041D00000781322214600F08BFC10BD122010BD88
:1041E000F8B50E46070048D038880AF05DFE050095
:1041F00041D0234AA96BD078022806D0012804D0E8
:10420000287B082803D1002E01D0122436E0002993
:1042100001D0112432E047212C200EF0E1FF0446AA
:10422000A863200025D02C2200210FF08FF83888B9
:1042300060801C22391D201D0EF0B6FF0220207068
:104240000F483A880178287B082810D00020231DC9
:1042500005F057FB0446002E03D0314628460DF0EA
:10426000A5FD002C0AD0284607F036F906E001200B
:10427000EDE7132402E0142400E002242046F8BDF8
:1042800060460020FFB51F4881B0C0781E46174623
:104290000D46022818D0012816D0002F30D00198E2
:1042A0000AF002FE040029D0E06A002801D00EF0D6
:1042B000D3FF1C2138460EF083FFE062011E1BD0A5
:1042C000207B082803D00DE0122005B0F0BD002EA1
:1042D00008D0887E00900B4612330A8A01980EF0AF
:1042E000ADF800E000202179002D01D0062200E089
:1042F000042211432171E8E71320E6E71420E4E7E4
:104300000220E2E76046002010B50548C0780007AB
:1043100001D5044800E0002007F088FE10BD000031
:10432000604600208446002070B51B4C05460121E4
:10433000207807F0F7F81948C1780A20014224D004
:10434000204625700C3007F06BFE606800281AD1FB
:10435000207800281DD0000107210EF041FF606089
:10436000002810D021780A0100210EF0EFFF002074
:10437000FF222378616803E00401401C0A55C0B2A3
:104380009842F9D305E0132070BD0020207007F09B
:1043900047FE002070BD00007046002060460020EF
:1043A00008490020087048608860064806490C30BB
:1043B00001600649416006490830016005494160D5
:1043C000704700007046002025B40000D9BB0000F3
:1043D00005B300003DB30000F3B5334F0025BE78B0
:1043E00083B0044603282DD83878032802D0102043
:1043F00005B0F0BD012C04D0022C02D0032C29D032
:104400002DE0049800280CD00622002168460EF00A
:104410009DFF0622694604980EF0B8FE002811D1CF
:1044200004E0062168460DF0B3FA18E00622FF21E9
:1044300068460EF08BFF0622694604980EF0A6FE31
:10444000002801D00220D3E70622684604990EF026
:10445000ABFE04E06946F86805F0ABF80546134882
:10446000BC70007804210FF0F7F900207871002D5E
:1044700001D0BE7015E0002C13D0684607F02EFB6B
:104480000500F6D1032C0CD1112000F091F80006A4
:10449000000E787105D00548054A007804210FF018
:1044A00067F92846A4E7000038680020604600202D
:1044B00000770100F8B50224079F1D46164604291F
:1044C00019D004DC012907D0022945D10BE00829C5
:1044D0001BD00C2940D129E000F03EF904003BD16B
:1044E00000F092F938E000F037F9040034D130469A
:1044F000FFF71AFF30E000F02FF904002CD13A4604
:104500002846069900F05EFA20E000F025F9040044
:1045100022D13A462846069900F054FA3046FFF771
:1045200003FFFFF7F1FE05F0C9F815E000F014F9FC
:10453000040011D13A462846069900F043FA304665
:10454000FFF7F2FEFFF7E0FE05F0B8F800F05CF9C7
:1045500000F042F905F08CF92046F8BD70B5104C1A
:104560002168002919D00978814214D10D4D02210A
:1045700028780FF071F90C4800264680287804212D
:104580000FF06AF90948467121680320487000203D
:1045900001F03BFB70BD032070BD122070BD000018
:1045A0004844002060460020604400203868002015
:1045B000192801D30248704702494000085A704741
:1045C000FFFF00005868002010B5044600F088F88E
:1045D00000F05CF9FFF7E4FEFFF754FB0649FF2308
:1045E000CB7000228A700A71044805214370047060
:1045F000204601F0D3FF10BD38680020604600203F
:10460000F3B5304E0024306883B0002802D011206A
:1046100005B0F0BD2C4D0521E878084201D11220EB
:10462000F6E72A494968002905D00978002902D00F
:10463000C00702D008E01020EAE700F04DF8074676
:104640000AF048FD874207D304980078022803D077
:10465000032801D0122432E047210C200EF0C0FDC7
:10466000306000282AD003990170002141700A228D
:10467000801C04990EF098FD154EB078032806D0E2
:1046800007F06AFF04001AD006F01AFF17E006F0E0
:104690009FFF694604F08DFF684607F01FFA01206E
:1046A00030711120FFF784FF0006000E707106D0F4
:1046B0002878084A04210FF05BF800E01324204614
:1046C000A6E7000048440020604600206044002027
:1046D000386800200077010010B50AF0E5FC10BD35
:1046E0001A4800210170417041608160C160016120
:1046F000416181611648B422018042800122920307
:104700008280A022C28002811022428182815023B5
:10471000C381038242828282C2827D2302831B0183
:1047200043838183C18301840F234384094B8384A2
:104730000723C3840285012242857E22D2438285DB
:10474000C1850186491E418670470000344400201F
:104750005868002080BB000070B50E460546202238
:10476000002109480EF0F2FD074C0848E570C670BC
:1047700001F076FA002803D000202070122070BDCE
:104780000121217070BD00003868002060460020C3
:104790007FB504460D4608460AF086FB002817D070
:1047A0000C48844212D21022002168460EF0CEFD41
:1047B00069460C70200A4870200C8870200EC87062
:1047C0002946684604F0AEFF04B070BD0220FBE746
:1047D0001220F9E740420F0010B50848C0784007A2
:1047E00007D5074807F02EFC00200649C043C880C3
:1047F00010BD002007F026FC10BD00006046002020
:104800007044002038680020F8B51D4C0025606811
:10481000002802D00EF020FD6560E068002802D07C
:104820000EF01AFDE560174E0527F078384223D0C8
:10483000154807F001FCF07838421BD047212020B2
:104840000EF0CEFC6060002814D0202200210EF073
:104850007DFD472120200EF0C3FCE060002805D03C
:10486000202200210EF072FD0020F8BD60680EF0DD
:10487000F3FC65601320F8BD002007F0DDFBF3E7D3
:1048800060440020604600208C6800200948FF2119
:1048900001700021418041608160C1600748064984
:1048A00001600749416007498160024906481031AB
:1048B000086070476044002045B800008C68002004
:1048C000D5B8000059C50000B5B70000FEB5354F9A
:1048D000354D0C4608041FD538780EF07BFD061EBA
:1048E00017D03078A22806D07D78304607F0B8FA85
:1048F00000280AD102E02C48C578F6E7FF2D04D045
:10490000314628460EF09EFDE6E730460EF03AFDB1
:10491000E2E70120C00341E0E00701262349002827
:104920000AD04868002804D04168002901D000203E
:10493000884720467040FEBDA00709D5C8680028FA
:1049400004D04168002901D001208847022025E0D9
:10495000600725D5687900281FD0401E0006000E8C
:1049600068711AD14869002808D02E71C8680028DB
:1049700004D04168002901D0012088476946E868D1
:1049800004F017FE684607F0A9F81120FFF710FEA3
:104990006871387804210EF05FFF04206040FEBD8E
:1049A0000020FEBD6046002038680020344400200E
:1049B00001494870704700006046002010B504F0BF
:1049C00031FF10BD70B5154C0E4662612161054680
:1049D000E0601022FF2130460EF0C9FB012806D00E
:1049E0001022002130460EF0C2FB012803D1102115
:1049F00020690CF0CDFF1022FF2128460EF0B7FBF6
:104A0000012806D01022002128460EF0B0FB012814
:104A100003D11021E0680CF0BBFF70BD38680020A6
:104A20007FB50C4605460AF03FFA002814D0826B89
:104A3000007B042802D0122004B070BD002A00D0F0
:104A4000947D684621460DF035FD044B6A460221EF
:104A500028460DF0B1FCEFE71420EDE7A72901008F
:104A6000192802D2044A914201D102207047034A18
:104A70004000115200207047FFFF000058680020DE
:104A800070B50E4611491546CB78022B17D0012B75
:104A900015D0002D17D00AF007FA040011D0002E0F
:104AA00003D0207902210843207120461022294694
:104AB00018300EF079FB2869A062002070BD12202A
:104AC00070BD142070BD022070BD00006046002043
:104AD00038B50C4605460AF0E7F9002806D06846C6
:104AE0000470694628460DF055FC38BD142038BDC9
:104AF000F7B505461E4812261E4F0C46814208D1C6
:104B0000B868002832D00268002A2FD02846904783
:104B1000FEBD1748401C844219D1B868002806D051
:104B20000268002A03D028469047002806D028466D
:104B3000029905F05FFF060005D017E07D7002982E
:104B400038700020FEBD7D70029838700EE0084677
:104B50000AF0AAF9002809D00078A84201D0032061
:104B6000FEBD2046029900F0BEFFFEBD3046FEBDF0
:104B7000FEFF00003444002070B514460246204871
:104B80001E46C0780523184224D01E4D00296B68AC
:104B9000E86802D0002B1DD001E000281AD0202C9C
:104BA0002CD2002C01D0002E28D02A70002913D03E
:104BB0001F220021581C0EF0C9FB686822463146AE
:104BC000401C0EF0F1FA696820460C70491C01F097
:104BD00018F870BD122070BD1F220021401C0EF07D
:104BE000B5FBE86822463146401C0EF0DDFAE96864
:104BF00020460C70491C01F01FF870BD022070BDEA
:104C0000604600206044002010B5094A014613792F
:104C10000020002B0BD101231371C90707D01346C5
:104C20006433184610220421403800F007FA10BD02
:104C300030450020F8B5044600F06AFE00F044F864
:104C4000114F134EFC701149304600F025F84721F2
:104C5000C0200EF0C5FA00221346B8619401065335
:104C6000002124180C254D436519AB80491CEB60CD
:104C70000529F7DB521C032AF0DBF8787870054829
:104C80000AF062FAF8BD000030450020DA68002022
:104C9000FFFF000009CC000070B50A4C0025A042BF
:104CA00008D1002082008C525218401C95700328B5
:104CB000F8DB70BD07F079FF0028FAD0048085701A
:104CC00070BD0000FFFF0000F0B51E4920200870F5
:104CD000FF2048708870C8700126CE8000200881AF
:104CE000C86008610B4602241C3348611C70164AD8
:104CF0005A600A46087124321470144D55601672B9
:104D00005081D3601474124F15466F612E766883FC
:104D1000E9612021545413460E4D59185D62087202
:104D20005885D862302154540B4C032351185463D6
:104D30000B725087094ACA600249094A643105C1A9
:104D40000860F0BD30450020C23A0100C43A0100BD
:104D5000CA3A0100E23A0100D03A0100DA680020C4
:104D6000B9D60000F8B50E46074606990024079804
:104D7000002902D00B242046F8BD022B01D00D24BF
:104D8000F9E7517812780D0215432946814301D085
:104D90008024F0E73846F16800F042F9A842EAD0F2
:104DA0002A463846F16800F0EFF90446E3E70000D0
:104DB00070B50D4608041AD50E48C0780EF00AFBEF
:104DC00004000FD02078B02809D1204608F0B2F8AE
:104DD000002804D020462179083000F07BFD2046D1
:104DE0000EF0D0FA01212846C903484070BD0020CA
:104DF00070BD000030450020FFB585B000200F9F3A
:104E00000090087A0E9D1C460E46C0060BD50798EA
:104E100007F0C4FE03007DD00A223146059898476A
:104E20000090002816D13078022815D0079807F096
:104E3000DBFE0028EFD0006884460028EBD01199F3
:104E4000109822460097029101902B463146644605
:104E50000598A04709B0F0BD706829224178007814
:104E6000090201431202881A91427CD00BDC694886
:104E7000081A13D0012811D0022817D00328D5D141
:104E8000002F53D09BE001287ED002286DD003284C
:104E900077D00428CAD1002F68D090E0002F6FD1BE
:104EA000F068017829800278416884E0002F67D19A
:104EB000F068417800780F02074304202880F068EA
:104EC00004A900782070F06840786070384600F0DF
:104ED00087F9060022D06846028A03AB4E49304665
:104EE000F76800F0DBF900280AD1337802214B483B
:104EF0007268FDF7A6FB002802D147486946888101
:104F0000387802280CD10222201D79680EF04CF965
:104F1000288800E07CE0801C288001E068468781CA
:104F200068468089A070000AE0706FE00120288048
:104F3000F0680021007820707089401C80B200F079
:104F40004FF9002813D0298802788918891C2980F4
:104F5000817A61704189090AA17002784168E01C78
:104F60000EF022F952E00CE00EE026E03BE028884B
:104F70000422001D28800021601C0EF0E7F945E0A6
:104F80001DE0002F27D01AE0F0680EF078FC80B208
:104F9000B84201D207205DE7874201D1002006E038
:104FA0001099C919814201D3C01B00E010982880D4
:104FB00082B2F068C1192046D2E7002F01D00B2041
:104FC00048E7F168059800F02BF80221298020704D
:104FD000000A60701AE002202880F06800782070D3
:104FE000F0684078F5E70721F068298001782170A2
:104FF000417861708178A1704188090AE170017976
:10500000217181796171C088000AA071009821E73F
:105010000E201FE700280000FFFF0000C63A010035
:1050200010B507F0C2FD002800D0807810BD000048
:105030000149887070470000304500207CB51E464D
:1050400005001CD0684601808270019500F0AAFA24
:1050500004001FD1002E1DD0688900280FD04721E1
:105060000C200EF0BDF8002813D0002101606989E2
:105070008180094A86601169002903D107E0022076
:105080007CBD11460A68002AFBD1086002E010616D
:1050900000E0132420467CBD30450020F8B50C4CC0
:1050A0000746A07815460E46FF280FD00A200EF0BE
:1050B00055F901000AD0B12008704F8000204870D7
:1050C0000871CE800D81A0780EF0BCF9F8BD00000B
:1050D0003045002070B50C4605460649FFF7A0FF95
:1050E000800704D52146284600F0B6FA70BD01209D
:1050F00070BD0000DA6800200EB56B461A81FE23F1
:10510000002201930092022302AA00F001F80EBDD2
:10511000FFB583B0174602A90D9E049800F060F811
:1051200004002AD06846008907F05EFD002822D0DE
:105130004568002D1FD00C98019600903A462146F4
:10514000069B0398A847050018D1FE2E16D020789C
:10515000022813D160684178027808020949104397
:1051600088420BD17878397802020A43049903986F
:10517000FFF794FF02E00E2500E00125284607B066
:10518000F0BD00000229000070B514460E46054629
:1051900007F00BFD002806D13146054807F005FD54
:1051A000002803D005808470002070BD112070BDE0
:1051B000FFFF000010B50178B0290BD1417800291C
:1051C00008D10179122906D01B2903D14088012179
:1051D00001F0F0F810BD417C0129F7D010BD0000AE
:1051E000F0B5104A536919E09C686589A84214D348
:1051F0009E887219824210D900220CE017013F19D3
:105200007F89874205D1002900D00D801001001947
:10521000F0BD521C92B2B242F0D31B68002BE3D116
:105220000020F0BD30450020FFB51B4883B00023AF
:1052300045692DE0AE68002470890190A88800902F
:1052400016E0210188194289039FBA420ED3049FB8
:10525000BA420BD8069A002A0FD01346715C4068F8
:10526000059AFDF7EEF9002807D10023641CA4B2CB
:1052700000988442E5D3002B09D00C98002802D076
:105280000C99019808802001801907B0F0BD2D68A5
:10529000002DCFD10020F8E730450020FEB517469D
:1052A00000256A469580044640891D4A1E46904264
:1052B00008D001AA0092401C237880B26268FFF7F0
:1052C000B3FF05462378022116486268FDF7B9F955
:1052D000002807D12378022113486268FDF7B1F94D
:1052E000002801D060890EE0237802210F4862680F
:1052F000FDF7A7F900280DD0002D03D0684680885F
:10530000B84203D0384608F0FBFA04E06889401E32
:1053100080B200E06089002E00D030802846FEBDBB
:10532000FFFF0000C43A0100C63A0100CA3A01007A
:10533000FFB583B00E461D46174601A9039807F036
:1053400051FA040022D1002F0FD06946088030881E
:10535000FFF746FF6946088800F0BAF901460122C6
:10536000039809F075FD002811D131460398FDF727
:105370000DFA04000AD1FF2D08D0019B1E22194608
:1053800004489B1C08F0C7FA0198C570204607B076
:10539000F0BD000069D7000010B50446FDF722FA01
:1053A0000749FF20087048700020486088608C70B2
:1053B0000421204601F0F2F800F004F810BD0000CE
:1053C0002445002070B500200D4D0E4B0446FF22F1
:1053D000062141435D52C918CA708A70401C0C7185
:1053E0000328F5DB0120C0431880074807F08CFB39
:1053F0000648FDF77DFB064809F0A6FE002070BDBB
:10540000FFFF0000C8680020B1D7000093D700005C
:10541000E9D600007CB516460C460546FCF768FF49
:1054200011490978884201D316207CBD01A928467C
:1054300007F0D8F91728F8D0002E10D000206946C0
:1054400008802088FFF7CCFE6946088800F040F904
:1054500001460122284609F0FBFC0028E5D121463F
:105460002846FDF7A9F97CBD8D460020F8B51C46FD
:1054700015460E46074609F017FD00280DD0017BA2
:10548000074808292B4632463946009403D0007855
:1054900007F0BEF9F8BD4078FAE70120F8BD00003A
:1054A00024450020F0B587B00F46080470D5394E6A
:1054B000B0780DF08FFF040064D02078A0285ED172
:1054C0000120694608732046FDF7DEF9050041D149
:1054D0006846807800280BD0142809D0152807D0FA
:1054E0001A2805D01C2803D001461F3920290BD8C3
:1054F000B16800292ED06946497800292AD1694629
:105500000874062008751FE0C0070AD07368002BD6
:1055100005D0608803AA6946984705461AE0062523
:1055200018E0B368002B06D0608803AA6946984744
:10553000050001D10EE0062568464078002809D113
:105540006946887808740D7500204882608804A92F
:10555000FDF7B2F86846007B002804D0A068002858
:1055600001D00DF079FE002D05D168468078122813
:1055700005D01B2803D16088012100F01BFF2046C5
:105580000DF000FF0120C003784007B0F0BDFFE739
:105590000020FAE724450020014908707047000008
:1055A0002445002070B504464568008800284AD08C
:1055B0002B78022125486A68FDF743F8002807D1B7
:1055C0002B78022122486A68FDF73BF800283AD080
:1055D000A078C01F092834D81E4EF08800282ED08D
:1055E0002188081801210904884228D847210C2065
:1055F0000DF0F6FD050020D0002207E011016368E0
:10560000F0880A315852401CF080521C2088904289
:10561000F4DC0020286008222146281D0DF0C4FD7E
:105620007069002801D105E0084601680029FBD116
:10563000056000E07561002070BD132070BD012081
:1056400070BD182070BD022070BD0000C43A01007A
:10565000C63A010030450020FEB50E46074600253B
:105660000223194A194901200095FFF7DDFD0400C6
:1056700027D023200090002304221D21384600F06B
:10568000E3F8029000281AD06089694688800420D7
:10569000C88002990120087002983346457002992B
:1056A000FF20887002990022C87001A93846FFF7D0
:1056B0003FFE040006D002980DF0CEFD02E0152456
:1056C00000E001242046FEBDE23A0100FFFF000099
:1056D00000B507F043F8002801D0807800BD102005
:1056E00000BD00B507F03AF8002800D0008800BDE2
:1056F0007CB50D46044609F0D7FB29462046FDF748
:10570000FDF9002812D168468580204609F0CCFBBF
:1057100000280BD0027B01A90748082A009106D077
:105720007F2300222146007807F072F87CBD7F239A
:10573000002221464078F7E72445002010B50446B2
:105740000B4688060DD51046FFF7C2FF0146012221
:10575000204609F07DFB052801D00F2800D1082044
:1057600010BD882003420CD01046FFF7B1FF014660
:10577000180701D5012200E00022204609F068FB4D
:1057800010BD880701D5002010BD032010BD10B545
:105790000346C8060DD51046FFF79AFF01460122C1
:1057A000184609F055FB052801D00F2800D1082024
:1057B00010BD480705D51046FFF78AFF01460122B4
:1057C00006E0480608D51046FFF782FF0146002292
:1057D000184609F03DFB10BDC80701D0002010BDE0
:1057E000022010BD70B51D4603460C4688060DD537
:1057F0001046FFF76DFF01460122184609F028FB0D
:10580000052801D00F2800D1082070BD882004424F
:1058100014D01046FFF75CFF0146200701D5012296
:1058200000E00022184609F013FB002808D0697A2E
:105830000029EAD0297A002902D170BD880701D554
:10584000002070BD032070BDF8B5069F1E461546AA
:10585000162928D00CDC09291FD004DC05291CD00E
:10586000062911D11BE0112917D012290CD118E0FB
:105870001D2916D004DC172915D01B2904D110E0EE
:1058800052290ED0D2290CD00124114A95420CD1B4
:10589000FCF76CFF001B85B20BE00224F5E7072440
:1058A000F3E70324F1E70524EFE7D22901D10C3512
:1058B000ADB2601980B2394600F0CCFE002805D0A8
:1058C000002E00D0358061420DF01CFCF8BD0000B8
:1058D000FFFF000010B506F051FF002801D00DF0C9
:1058E000BBFC10BD10B5094A014653790020002BBE
:1058F0000BD101235371C90707D01346A4331846AF
:10590000102209219038FFF799FB10BD7444002044
:10591000F0B500213D4C0222A1603D4D22700846A9
:105920002954401C80B21628FAD36270374BE180AC
:10593000A27050200C331880A02058801846818017
:105940007D20C000D880E27001233048237161714E
:10595000143002702F4C4460037241812E4CC4609D
:10596000064602742D4F77613446337671831034C6
:10597000143EE660202402550646294F341977620A
:1059800023727185F562302402550546234E6E63FD
:105990002C1923726987133DE560402402550546A2
:1059A000204E6E642C19237261810E3DE5605024F7
:1059B00002550546194E2C196E6523726181123D00
:1059C000E560602402550546174E6E662C19237259
:1059D0006181083DE5607024025505460F4E2C1983
:1059E0006E6723726181113DE560802402550F4A84
:1059F00080304260037241816A1CC2600C48A03250
:105A000010600C48506010468160F0BD7444002066
:105A100098680020C43A0100583A0100CA3A0100CF
:105A2000D83A0100DA3A0100E03A0100EA3A01000E
:105A3000DDD9000025DB000070B51646214A0D4671
:105A4000114600241431030004F07AFA0A061338D0
:105A50003818382128383138152D2AD81622002137
:105A600019480DF073FC2A46314617480DF09CFB8F
:105A700025E0022D1DD13088D08020E0082D18D1DE
:105A80001048082231460C30FCF719FA17E0012DB6
:105A90000FD1CA690B4930783C3105E0012D08D19E
:105AA000CA6B084930785C3108F004F807E0012D32
:105AB00001D0182403E03078107100E00224204661
:105AC00070BD00007444002098680020704710B535
:105AD00000F0FCF810BD10B500F018F910BD10B5BD
