:020000040000FA
:1000000000800020A500000015230000AF000000C4
:1000100000000000000000000000000000000000E0
:10002000000000000000000000000000AF00000021
:100030000000000000000000B1000000B30000005C
:10004000B5000000B5000000B5000000B5000000DC
:10005000B5000000151F0000B5000000B50000004D
:10006000B5000000B5000000B5000000B5000000BC
:10007000FD3D0000B5000000B5000000B500000027
:10008000B5000000B5000000B5000000B50000009C
:100090000348854600F0D8FE00480047B1D4000070
:1000A000008000200448804704480047FEE7FEE740
:1000B000FEE7FEE7FEE700000140000091000000BF
:1000C0002E4611462D1B804145402D1AC91ABF41AD
:1000D0007940C91B47408946A846210CA4B2204656
:1000E00095B2120C68434D43544351432204240CEF
:1000F000801861412A042C0C80186141340CB6B27E
:100100009DB21B0C32466A4365435E4363432C0435
:100110002D0C12196B413404350C12196B417640C9
:1001200052187341494645468046080C89B20C4630
:100130002E0CADB269437443454370432604240C2E
:10014000891960412E042D0C891968417940784045
:1001500064407F10514142416741404609185A416D
:100160007B41704700B5FFF7ABFF03B451469246A1
:1001700033C922462F46121A8F41B641724077404A
:10018000921BB74184B45A469B460FCA801A9941C4
:10019000BF4178407940C01BB9417740BC4603B4A9
:1001A000FFF78EFF54465D46764000196941724163
:1001B000734192469B463CBC03B4FFF781FF30BCC1
:1001C00066466746704071407240734076106041E9
:1001D000694154415D415240564157410CBC9046E3
:1001E000994612184B415046594644414D414641AB
:1001F0004F4100BD01B590B006B492468B46104603
:1002000030C808300CC9083103B4FFF7ABFF06A8AB
:100210000CC004A842464B460CC006BCF0B48A464B
:10022000934630C90CCAFFF79DFF40464946B04689
:10023000B946C0BC80197941C0BC72417B4106AF50
:100240000FC7BA46404046464F46444145414641A5
:10025000474106BC9446F0B4FFC9001BA941B24116
:10026000BB416440A4416040614062406340001B68
:10027000A141A241A3416646A44655460FC5AB46DF
:1002800080468946FFCE241A8D4196419F414040C9
:1002900080414440454046404740241A85418641BC
:1002A0008741614648405946F0C101B442464B4639
:1002B000FFF758FF01BC844642404340444045405C
:1002C00046404740F0B408A9F0C949464140A2461B
:1002D00044464010604054466041694172417B4150
:1002E00064406441A2460CACF0CC001969417241F3
:1002F0007B41A1460CAC0FC40FBC4C4644414D4160
:1003000056415F410021494150468A4640100FBC8A
:1003100044414D4156415F41804608A8F0C04046E7
:1003200066465546644075416641401971417241C7
:1003300073410CAF0FC7FFBC1B184C4155414641E0
:1003400090469946A246AB46B4464F413CBC42411A
:100350004B4100267441754176413F1A8A4140461F
:10036000494683418C4100208541864160464018C2
:10037000844650464741BE46404642414B41444177
:100380004D4100277E4103BC361879417F415846D4
:100390001218904662465341994653465C41A24624
:1003A00045415E41414114BC7A4100277C417F4177
:1003B000ED1A8641634670469941824100239C4173
:1003C0009F41A646BB46544624185D4167467E4180
:1003D00041417A417746474158465841DB1A8246A7
:1003E00040465841BB464F465F418446B9465C4152
:1003F0009D419E41994101239A4100235846574609
:1004000058419F419046624683464B46D2197B41F4
:100410007C41002045414641414101BC7CC0012551
:100420003D4042465B466A417B410EC000BDA0B2E2
:10043000210C02464A4340434943D30B52048018DF
:100440005941641BB6417440A41BAAB22B0C15463B
:100450005D4352435B43EE0B6D045219734100261A
:1004600052187341250CA4B22146694364436D437D
:10047000CE0B4904641875411146091BAA411D465B
:100480000026B34109186A417341704700B5204600
:100490002946801BB941924150405140801A9141F8
:1004A00080468946B246FFF7C2FF54463D46824623
:1004B0008B4694461F46FFF7BAFF64460019794100
:1004C000724173411F468446444688464D469146D4
:1004D000FFF7ADFF644645464E46241A8D4130462F
:1004E000394690419941002296419741524612194E
:1004F0005B466B416446444145464D4100204641C0
:1005000047415046594600BD01B590B002B4F0C90C
:10051000FFF7BCFFF0B405AC0FC4049C1034F0CC62
:10052000FFF7B4FFA046A946B246BB46F0BC00198F
:10053000694172417B4144464D4656465F4680467E
:10054000002044414541464147414046FFB4089C94
:10055000FFCC241A8D4196419F4180414440454043
:1005600046404740241A854186418741FFF78EFF68
:10057000C043C943D243DB43E443ED43F643FF4367
:10058000A046A946B246BB46241BF0BC6041694167
:1005900072417B41A44609AC0FC4644640466041A9
:1005A00080464946694189465246724192465B46B9
:1005B0007B419B4600204041844605A8FFC80019A6
:1005C000694172417B4109AC0FC46846F0C841469D
:1005D0004C4149464D4151464E4159464F410DA867
:1005E000F0C0F0BC61460022D24351410A116418A8
:1005F000554156415741F0C001B09CE601B519C9BB
:10060000E0CA401973417C4180469946A24660C9C0
:1006100018CA5D4166411AC985CA414153417C41AE
:1006200000277F41001A4246B8464F46A14654462D
:10063000424192464741BB46444185418641814102
:100640000120834100204A4642414746874198465F
:100650005B4693465246D9E601B519C9E0CA401B2C
:10066000B341BC4180469946A24660C918CA9D4123
:10067000A6411AC985CA81419341BC41BF41424646
:100680009846A3464B465446C0E6012102C00021CD
:10069000002206C006C006C002C020387047F0B570
:1006A00001A2FFF7A7FDF0BD03000000000000005D
:1006B000FFFFFFFFFBFFFFFFFEFFFFFFFFFFFFFF4F
:1006C000FDFFFFFF04000000F0B5002200230CB482
:1006D0000CB40CB401220CB46A46FFF78BFD08B0D1
:1006E000F0BD01B50FA200F0E3F80098403005A17D
:1006F00000F020F804D003A00099403100F01AF86F
:1007000002BD0000DFBDC42962DF9CD89030847830
:10071000CD05F0ACD62E21F7AB20A2E534488704F6
:100720001D0630DC402030211311134113411341C9
:100730000145000070B56D1BEE43082208C810C9C2
:10074000A34132441242F9D16D41284670BDF0B543
:1007500001246542A846A41A082620C980CBAF41CF
:10076000574365432F4480C046443642F5D1F0BD1F
:1007700030B53CC93CC03CC93CC030BD202202441D
:100780000B780370013101309042F9D17047F4B514
:10079000042641B40027B846B946BA46BB46BC4613
:1007A000BE4602987840EFF30080800F1CC9424398
:1007B0004343444390449944A2441CC942434343A5
:1007C000444393449C44A64448310137082FE8D160
:1007D00041BC42464B4654461CC05A46634674468A
:1007E0001CC0F839F839F839013ED2D1F1BD0EA25A
:1007F0005EE001A25CE00000802030138010401415
:10080000502161105111711130433022531585155B
:100810003213414402104022131123430032324369
:10082000034242122144000080207815603160406C
:10083000011000510130002170244022641444331F
:100840001343434101100244000081460F460FCF7D
:10085000C607F517F60F0024401969416A41634144
:100860000FB40FCF6041614172416B41002464417C
:10087000E7075E083743DE0755082E43D5074C08C7
:100880002543CC0743081C43C30748461030F0C03B
:100890001F460FBC5E083743DE0755082E43D507B9
:1008A0004C082543CC0743081C434846F0C070471A
:1008B000F0B598B020230C46CD18EE1870B404465D
:1008C000C518EE1870B406ACE518EE1870B43C24E8
:1008D0006D461388023204B49A002240AA5899083F
:1008E0002140695898092040285804A59E0A2640AE
:1008F00003D0AE59B04704BCE9E722B0F0BD000018
:10090000F501000009050000FD0500005906000082
:100910004B08000005B5002907D002B40198014634
:10092000FFF7F2FD02BC0139F7D103BC0246FFF725
:1009300061FC00BD01B5FFC8FFB4089801216A46FB
:10094000FFF7E8FF0898FFC8FFB410980146FFF7CB
:10095000DBFD10980146FFF7D7FD1098FFC8FFB4E4
:100960001898694608AAFFF745FC08A81899FFF7E8
:10097000FFFE189F00240CA210570132155D86005F
:1009800004D588B068463946FFF7F2FE3846F1B222
:100990002A466A4490B4FFF7BDFF90BC0234162C7F
:1009A000E9D131B000BD000001208200840088A0A0
:1009B00020000800042002400180016000A0F1B581
:1009C0004030FFC8FFB46846FFF7B4FF694688B0FF
:1009D0006846FFF799FD08A96A460846FFF70AFC32
:1009E000694610980246FFF705FC08A910982030C8
:1009F0000246FFF7FFFB11B0F0BD4242C3171340A0
:100A0000D217104018437047F0B544464D4656463D
:100A10005F46F3B4C0B01E0408A81146FFF7AEFE4F
:100A20006846FFF732FE08A86946FFF783FE01D14A
:100A300042B0C4E008A870A1FFF77CFE0138F7D0EF
:100A4000684608A90A6801231A405A4016446AA356
:100A5000FFF77DFE18A900980007000F01226C46E1
:100A600001255308E35CD7077F0FFB401B071B0FD3
:100A700001271F406F403F01C01B087001312B430D
:100A800018460132402AECD108704199E0B0E0B03C
:100A90006846FFF773FEFFF771FE68464EA1FFF749
:100AA00049FE013802D160B060B0C1E708A84AA190
:100AB000FFF740FE0138F6D068466946FFF7EFFDC4
:100AC00008A808A9FFF7EBFD6846FFF70AFE002813
:100AD000E9D010A8FFF7D9FD0146FFF7E0FDA8A86F
:100AE0006946FFF784FE18AC07252046A8A9FFF742
:100AF0003FFEFFF73DFEFFF73BFE20460146603913
:100B0000FFF777FE6034013DEFD1E8AF013F387861
:100B1000013F40B2FFF771FF4208C0A86946FFF7E6
:100B200036FED8AD0424C0A80146FFF760FE013CA4
:100B3000F9D13878013F40B2C40FFFF75EFF420899
:100B4000E8A86946FFF723FEF0A80146224622A343
:100B5000FFF7FDFDAF4203DAA8A8C0A9FFF747FEE3
:100B6000C0A8E8A9FFF745FEAF42DBDA6846FFF709
:100B70008CFDD0A86946FFF7DDFD821DE8A818A905
:100B8000FFF705FE74B074B06846FFF718FF6846BB
:100B90006946FFF799FD08A808A9FFF795FD08A881
:100BA00008A9F2B20CA3FFF7D2FD18986946FFF727
:100BB000E5FD360C01D0FFF7E1FD01201AB0F0BCD5
:100BC000A046A946B246BB46F0BD0A4612A1012383
:100BD0001AE7002318E70000FFFFFFFFFFFFFFFFFA
:100BE000FFFFFFFF00000000000000000000000009
:100BF00001000000FFFFFFFF512563FCC2CAB9F3EB
:100C0000849E17A7ADFAE6BCFFFFFFFFFFFFFFFFC3
:100C100000000000FFFFFFFF96C298D84539A1F4FD
:100C2000A033EB2D817D0377F240A463E5E6BCF8A9
:100C300047422CE1F2D1176BF551BF376840B6CB74
:100C4000CE5E316B5733CE2B169E0F7C4AEBE78E70
:100C50009B7F1AFEE242E34F30B50B46014600206F
:100C60002022012409E00D46D5409D4205D31D46B2
:100C70009540491B2546954040191546521E002DAA
:100C8000F1DC30BD70B500242546002801DA0124CE
:100C90004042002901DA01254942FFF7DDFFAC425D
:100CA00000D04042002C00D0494270BDF8B500246D
:100CB0002546002904DA0E46012400214042B141B4
:100CC000002B04DA1E46002352420125B34100F0F6
:100CD0007AF88C4617461E46AC4203D000254042A7
:100CE0008D41AC46002C02D0002657429E41614601
:100CF0003A46334601B0F0BD10B5202A04DB014668
:100D0000203A9140002010BD914020239C1A0346B8
:100D1000E3401943904010BD10B503461C460C43F8
:100D2000A40703D009E010C9121F10C3042AFAD285
:100D300003E00C781C70491C5B1C521EF9D210BDDC
:100D4000D2B201E00270401C491EFBD27047002263
:100D5000F6E710B513460A4604461946FFF7F0FFBA
:100D6000204610BD421C0178401C0029FBD1801A8E
:100D7000704710B5002200E0521C835C8C5CA342DB
:100D800001D1002BF8D1D8B2E1B2401A10BD30B574
:100D900004460020034600E05B1C934203D2E05C63
:100DA000CD5C401BF8D030BD30B505460020034671
:100DB00000E05B1C934205D2EC5CC85C201A01D1B8
:100DC000002CF6D130BDF0B51FB40646002082B02D
:100DD00005464024019100901BE0019922460F46F0
:100DE000304600F020F8049A059B801A994110D3F0
:100DF000104619462246FFF77FFF361A8F410197AA
:100E0000224601200021009FFFF776FF38184D4150
:100E100000902046641E0028DFDC019B00982946D4
:100E2000324607B0F0BD10B5202A04DB0846203A50
:100E3000D040002110BD0B46D340D0402024A21A40
:100E400091400843194610BD064C0125064E05E0A9
:100E5000E36807CC2B430C3C98471034B442F7D3DB
:100E6000FFF71AF90C6101002C61010070B58C18B4
:100E70000578401C6B075B0F01D10378401C2A11D9
:100E800006D10278401C03E006780E70401C491C15
:100E90005B1EF9D12B0705D40023521E0DD40B7015
:100EA000491CFAE70378401CCB1A921C03E01D781A
:100EB0000D70491C5B1C521EF9D5A142D8D30020ED
:100EC00070BD00000448C17E80221143C1760F210D
:100ED00001762121417670474010004010B5124C38
:100EE0002068C0051FD50320206000200821401C79
:100EF0002268C0B20A4322600EE02268920510D434
:100F0000222807D90948026B002A0AD001210320B0
:100F1000904706E0401CC0B22268D205EDD50028FB
:100F2000E5D10020206010BD80C300402C2E0020A1
:100F300070B514460D460646FFF7D0FF2D480368EE
:100F40001968062291431960316899627168D96203
:100F5000B1681963F1685963296899616968D96151
:100F6000A9681962E9685962596802229143596077
:100F70005D6801210D435D601D680D431D6000E04B
:100F800000BF59688907FBD5596891435960996931
:100F9000217001688969090A617001688969090C11
:100FA000A17001688969090EE1700068C169217149
:100FB000C169090A6171C169090CA171C169090E90
:100FC000E171016A2172016A090A6172016A090C00
:100FD000A172016A090EE172416A2173416A090A2C
:100FE0006173416A090CA173406A000EE07300202E
:100FF00070BD0000E402002010B500F0BBFF024904
:1010000000F0E6FE002010BD060400000148006E5E
:10101000704700000C34002010B501F085F810BDB9
:101020000A7802700A88120A42704888801C80B2CE
:1010300070470000064910B5884202D100F0FAFE60
:1010400010BD0CF097F80028FAD1172010BD000051
:10105000FEFF000038B505464A6800200C46002A0D
:1010600003D00321104612F0CFFF009023461B222D
:101070000249284604F044FB38BD0000211000005E
:1010800010B5094803F05AF8084C207004F0CAFD66
:1010900000F00AFE064800F0BFFE1922920102216C
:1010A000207813F007FA10BDB510000000000020F2
:1010B00071CD000010B50C46880709D505484B22B4
:1010C00052010221007813F0F5F90220604010BDB2
:1010D000002010BD000000200448034900680160A2
:1010E0000349C16270470000A5220801E802002000
:1010F000784E010010B5074C5D202168086501F0AD
:10110000C3F920680021016503484279521C4271ED
:10111000C17110BDF0010020802E002070B52C4957
:10112000002048602B4800892B4CC0B2810902295D
:1011300004D0012908D0810916D026E0C820A0805B
:101140001020E080E8201FE0C506ED0E2D20294686
:101150008001FFF781FDA08029467820FFF77CFD04
:10116000E08029461D480DE0C506ED0E2946C02049
:10117000FFF772FDA08029460820FFF76DFDE08093
:101180002946E820FFF768FD2081164914480860C9
:101190001649154808601749154808601749164848
:1011A000086018491648184C086018492068012240
:1011B000D2020861801848610120487100F062F98C
:1011C000607D002802D112492020086070BD000017
:1011D000F401002000100040602E0020980D000057
:1011E00000C00040EC02002000C30040E4020020E8
:1011F00000C20040F001002000D00040F0020020BA
:1012000000C10040E80200202C2E0020802E00208B
:1012100000E100E0F8B55648006881680127C9057B
:101220000025544C544E00292EDA81683A0291432D
:101230008160207840060CD55048514900688842AA
:1012400006D15049886BE0608A6B9042FAD100E089
:1012500080472078384320706570E079062803D0F5
:1012600043495D2009680865306800280AD0016993
:101270000A68406902430A60316808680268896840
:101280000A4302606571A560394B18688168890559
:1012900021D581680122520291438160A0783843B0
:1012A000A070E57038480068C16A89088900891C07
:1012B000C1620168D20411430160306800280AD07D
:1012C00041680A68806802430A603168C868026839
:1012D00049690A43026018688168890717D58168DF
:1012E000022291438160E770A5705D21016530683D
:1012F00000280AD001690A68406902430A6031681F
:101300000868026889680A4302606571A560186808
:101310008168C90715D08168490849008160257036
:101320006770306800280AD041680A688068024304
:101330000A603168C868026849690A4302606571D9
:10134000A56018688168C90603D581681022914399
:1013500081608168490703D58168042291438160D7
:101360008168090703D58168082291438160F8BD2F
:10137000F0010020802E0020F8010020EC01002068
:10138000713D000000100040E802002070B50446E6
:101390000068002828D00121000C4903884223D18D
:1013A000A088002820D020460622FF21163012F007
:1013B00060FE01281AD0A2880021206812F05EFF8A
:1013C000342200212D4812F059FF342221462B48A7
:1013D00012F06CFE2948062216300021054612F054
:1013E00048FE012804D008E0022070BD032070BD33
:1013F00023490622284612F059FE204881890029F7
:1014000002D1012149028181827B0121002A00D180
:101410008173C27B002A01D11B22C273027C002A85
:1014200001D105220274427C002A00D14174817CE2
:10143000002901D114218174817F002901D1282143
:101440008177C17C002908D0827FE17C92088918CD
:10145000C174617F002904D005E0817F89082D31A6
:10146000F6E702214177806A002803D080470349CC
:101470003431488102F01AFE002070BD2C2E00206D
:101480000806040010B500F0A7F800F027FD00F0F2
:1014900095FFFFF721FE0B4C5D202168086501F0E8
:1014A000A5F801F063FE01F069F800F0EDFF0648D1
:1014B00001214171226800211165C171FFF70EFD04
:1014C00010BD0000F0010020802E002030B58DB04E
:1014D000122227A12B4812F0DBFD002841D02A4818
:1014E00057210170A82101705121274AC900403AB3
:1014F0001181002101702648244A4261254A0724AF
:10150000D3691B021B0A45042B43D361816104612B
:10151000016902229143016134220021684612F0E0
:10152000ADFE1D48009001204003694688801B20C5
:10153000C873052008740120487414208874FB20A7
:10154000800202900D2008771448089014480A90F1
:101550000846FFF71BFF010007D012A002F09EFF14
:10156000FEE718A002F09AFFFEE70DB030BD0000C4
:1015700043483537785F424C455F4C49425F5631AE
:101580002E380000BC55010040100040FEFFFF0057
:1015900000E000E004ED00E0100E0020F53F000048
:1015A0004D1C00004C494220696E697420657272BE
:1015B0006F7220636F64653A202578202E2E2E0AE4
:1015C00000000000686561642066696C65206572D2
:1015D000726F722E2E2E0A000A48094900680A69A5
:1015E00002610A69426149698161C16182680121C0
:1015F00049030A438260C2680A43C2607047000020
:10160000802E0020EC02002030B5104A0346517AAB
:10161000FD20842454720E4CA568002D07D0A57BB4
:10162000002D04D0A489E51FFF3DFA3D02D0517280
:10163000FF2030BD7D24E402A34205D35360A620E1
:101640001072907A40235840517230BD001800400B
:101650002C2E0020F8B504460025C00501D001203D
:10166000F8BD112069460870334E0020307070704C
:10167000324F802078720878113008703048007935
:101680000007000F0D2802D0012000F077FE694608
:101690000878113008702A488179890701D0022022
:1016A000F8BD6A461178113111708179890704D12A
:1016B0001178442901D157213170117811311170FD
:1016C0008079800707D11078552804D130785728C1
:1016D00001D1A82070701078113010703078572820
:1016E0000ED17178A8290BD11178662908D17C60B8
:1016F0007D21C9028C4201D2882100E084217972C7
:10170000117811311170572809D17078A82806D1A5
:101710001078772803D1A62038727889C5B20020C6
:1017200010703070707080207872402D01D00320CE
:10173000F8BD0020F8BD0000BC01002000180040EA
:1017400020100040F7B50446002682B00D46800701
:1017500002D0012005B0F0BD1120694608703D4857
:101760000021017041703C4F8020787269460878F2
:1017700011300870394800790007000F0D2802D099
:10178000012000F0FBFD69460878113008703349EC
:101790008879800701D00220DCE76A461078113092
:1017A00010708879C00705D11078442802D12948E3
:1017B000572202706A461078113010708879C0077D
:1017C00008D11078552805D122480178572901D130
:1017D000A82141701078113010701E4A10785728D7
:1017E0000ED15178A8290BD169460978662907D10D
:1017F0007D23DB029C4201D2882100E084217972A2
:101800006B46197811311970572816D15078A828CD
:1018100013D11878772810D100209A230AE07C6031
:1018200002CD39603B727989241DCEB2402E04D19D
:10183000001D80B204998842F1D3002069460870E7
:101840001070507080207872402E01D0032081E704
:1018500000207FE7BC01002000180040201000405D
:1018600010B504460BF050FC002805D00078132278
:10187000214600F003F810BD122010BDF7B5054653
:101880001E4812261E4F0C46814208D1B868002817
:1018900032D00268002A2FD028469047FEBD174854
:1018A000401C844219D1B868002806D00268002A7A
:1018B00003D028469047002806D02846029908F011
:1018C000D9FE060005D017E07D7002983870002020
:1018D000FEBD7D70029838700EE008460BF014FCD7
:1018E000002809D00078A84201D00320FEBD204680
:1018F000029900F071FAFEBD3046FEBDFEFF000009
:10190000A80400207CB50D46104904460869002251
:10191000002805D08388A34204D002460068F7E778
:1019200001207CBD002A02D00168116001E002683C
:101930000A6112F01DFC6946204600F063F8002899
:10194000EFD1002DEDD0019929607CBDD404002099
:1019500070B50A4C0025A04208D1002082008C52AC
:101960005218401C95700328F8DB70BD09F0E4FEA6
:101970000028FAD00480857070BD0000FFFF0000D1
:10198000F8B50E460746069900240798002902D0AC
:101990000B242046F8BD022B01D00D24F9E7517825
:1019A00012780D0215432946814301D08024F0E7C7
:1019B0003846F16800F009F8A842EAD02A463846CD
:1019C000F16800F009F80446E3E710B509F0B4FE49
:1019D000002800D0807810BD70B514460E4605462C
:1019E00009F0AAFE002806D13146054809F0A4FEF8
:1019F000002803D005808470002070BD112070BDC8
:101A0000FFFF000070B5114A0B46014654690020E3
:101A1000002C06D0A5686D898D4204D0204624682C
:101A2000F6E7012070BD002802D02168016001E0C6
:101A300020685061002B04D00822211D184612F0A6
:101A400035FB204612F094FB002070BDD40400202A
:101A5000F0B5104A536919E09C686589A84214D30F
:101A60009E887219824210D900220CE017013F199A
:101A70007F89874205D1002900D00D80100100190F
:101A8000F0BD521C92B2B242F0D31B68002BE3D1DE
:101A90000020F0BDD40400207CB516460C46054657
:101AA000FFF7B4FA11490978884201D316207CBDAA
:101AB00001A9284609F02AFE1728F8D0002E10D0D8
:101AC0000020694608802088FFF7C2FF6946088821
:101AD00000F00EF80146012228460BF0E9FA002832
:101AE000E5D121462846FFF7B5FA7CBD4505002023
:101AF00000B509F0C7FD002801D0807800BD102096
:101B000000BD0000F8B5069F1E461546162928D0D0
:101B10000CDC09291FD004DC05291CD0062911D1B1
:101B20001BE0112917D012290CD118E01D2916D05D
:101B300004DC172915D01B2904D110E052290ED03E
:101B4000D2290CD00124114A95420CD1FFF772FA28
:101B5000001B85B20BE00224F5E70724F3E703241A
:101B6000F1E70524EFE7D22901D10C35ADB26019B8
:101B700080B2394600F0A2F9002805D0002E00D02E
:101B80003580614212F040FAF8BD0000FFFF00000E
:101B900010B509F087FD002801D012F0E9FA10BD58
:101BA00000B5124A0B0002F0A1FC0504071016193B
:101BB0001F00516B81430AE0516B81435163116BEC
:101BC00001431163116A81430DE0516B014351637D
:101BD000116B8143F5E7516B814301E0516B014388
:101BE0005163116A0143116200BD00008010004082
:101BF000054A002113780370491CC9B2401C521CCD
:101C00000629F7D3704700000806040010B50C48F9
:101C10000089C1B20B069A0F0A48022A05D0012A90
:101C200004D09A0F06D07D20000210BDC906C90E4F
:101C3000054801E0C906C90EFFF70EF810BD000007
:101C4000001000400048E80100389C1CF8B5094C21
:101C5000E77E267E657EFFF735F9A07E01210843E9
:101C6000A076A07EC007FCD1A08BE77626766576AD
:101C7000F8BD00004010004010B5084802F05EFAC0
:101C8000074C207000F086F800F00EF862B6054AA6
:101C900001214903207812F00DFC10BD151D000034
:101CA000C801002000EE02000A48002101704160D6
:101CB00009480268012189058A43026002690A43D2
:101CC0000261026810218A43026002690A430261CC
:101CD00070470000C0010020C01000400B490020E8
:101CE0004A68520200D401204968C90601D4022181
:101CF000084307490A78904206D00870002803D0AC
:101D00004968002900D0084770470000C010004013
:101D1000C001002070B50C4609040AD512F0F2FA91
:101D2000002801D012F0C6FA01212046C90348401C
:101D300070BDE00701D001200AE0134DA00709D5CE
:101D4000FFF7CCFFA0220221287812F0B3FB02207B
:101D5000604070BDA00405D5FFF794FB01260B4A37
:101D6000760308E060040DD509A002F097FB7D2200
:101D7000D2010126B6033146287812F09BFB20469B
:101D8000704070BD002070BDC801002000EE020050
:101D90002A2000001CB50C4857210170A8210170B1
:101DA00009492039CA7B07231A43CA7300210170ED
:101DB00000910B46012201911146044802F02AF8D5
:101DC000002002F0EFFA1CBD40100040E4070000C4
:101DD00010B500F009F810BD10B5FFF70DF910BDF2
:101DE00010B5FFF719F910BD70B505460C46062071
:101DF00012F04CFA01000BD0912008700F204870AF
:101E00008D700120C87003488C80007812F0B2FAFF
:101E100070BD00006205002010B5044964224860CE
:101E200003480221007812F045FB10BDC0010020DC
:101E3000C801002001484089704700004405002087
:101E400070B50C4609880546042905D0052903D03C
:101E5000062901D0072929D16068002826D0012150
:101E600028460BF08FF900281ED028460BF082F987
:101E70000F498D420BD0002809D16188002906D96D
:101E8000208806280ED10B48008881420AD20A48D1
:101E90000078002804D0214628460BF09BF870BD3E
:101EA000162070BD1B2070BD142070BD022070BDB7
:101EB000FEFF00004E0500204505002010B5801DE6
:101EC00080B2054912F0FEF8002803D00521C9436D
:101ED00012F09AF810BD0000034C00000B480A49AC
:101EE00000688A884261CA88C2618B884362CA8856
:101EF000C2624363C2634364C264098981651F216E
:101F000041600349C1607047602E0020F00100204D
:101F10001F03000010B5FFF77DF910BD014606480C
:101F2000006D05E0FF225D32125A8A4202D000683D
:101F30000028F7D1704700000C34002030B50C4A5F
:101F400004460948137C0021406B084D5B1C07E0E8
:101F50008289A24207D0AA4205D0491CC9B21030DA
:101F60008B42F5D8002030BD0C340020FFFF00006C
:101F70002C2E002010B50C46FFF7D0FF00280FD004
:101F80008179102901D0022010BD4E210C54C17955
:101F9000002903D031214173002010BD3021FAE720
:101FA000122010BD30B54478037824021B198478C0
:101FB000C57824042D06641989B01B19009344794F
:101FC000037924021B198479C57924042D06641928
:101FD0001B190193447A037A24021B19847AC57A67
:101FE00024042D0664191B190293447B037B2402ED
:101FF0001B19847BC07B240400062018181803904A
:102000004B7808781B02C0188B78CC781B04240608
:102010001B19C01804904B7908791B02C0188B79E2
:10202000CC791B0424061B19C01805904B7A087A3A
:102030001B02C318887ACC7A0004240600191818E9
:1020400006904B7B087B1B02C0188B7BC97B1B0453
:10205000090659184018079004A96846FEF768FF5A
:10206000002009B030BD0000F8B507462A48C17805
:102070000020C04300294BD0002F49D027490C6DC8
:10208000002C45D00646E079012811D1608EA18D43
:1020900088420DD2627B012A0AD1254680356A6FBB
:1020A000002A05D1AA68002A02D1E27BC02A03D007
:1020B00098200159208E0EE0091A6869401E41439C
:1020C0000091A16F0098FEF7C7FD401C80B22086EA
:1020D000AA6900995118814201D30D1A02E0091A28
:1020E0000F480D18AE4200D92E462468002CCAD1E4
:1020F0000C4800688047B04201D8301A06E0B04270
:1021000007D58642F9D2311A05480818386030469A
:10211000F8BD00213960F8BD602E00200C3400208D
:102120000000C0A8EC010020FFB583B015460F46A3
:10213000FFF7F4FE04003AD02046FF304230019011
:10214000417D007D0E020643AE4259D2681E301812
:102150003146FEF797FD87B23E48761D0640384669
:10216000704380B20B2111F0ADFF009000286FD0BA
:102170003848A838FFF7E2FE002836D0017B81817D
:102180008034616F002915D0A16F0860A067A16F2E
:1021900000200860A06F4581A16F01204872802057
:1021A000A16F00250872A16F0098486017E0022017
:1021B00007B0F0BD6067E9E7A06F069B4168304655
:1021C000684308180199801C4A7D097D12020A4360
:1021D00011466943C91811F069FF6D1CEDB2BD428B
:1021E000EAD3069811F0C4FF27E01B48026B002ACF
:1021F00002D01A4902209047009811F0B9FF27E059
:102200001448A838FFF79AFE00281AD0017B818174
:102210008034616F002912D0A16F0860A067A16FA0
:1022200000200860A06F4581A16F01204872A06F57
:1022300007720698A16F801E48600020B8E76067AB
:10224000ECE70548026B002A02D0044902209047BF
:102250000720ADE7FCFF00002C2E0020AA5500004F
:1022600010B5044801F06AFF0349087200200860B5
:10227000486010BD7D2200004032002070B50D4C3A
:10228000C80716D00AE0836842685D086D00D90768
:102290008560C90F02D0002A00D09047206800282E
:1022A00005D0016821606268824200D16160002827
:1022B000E9D170BD4032002010B5034801F03EFF67
:1022C0000249087010BD0000D1220000CC0200209D
:1022D00010B5C8071DD008F05FFC040013D0002023
:1022E000A06020460CF034FF002806D020460CF0F9
:1022F0002FFF8268A16851188160204611F00AFC06
:10230000204612F063FF0CF057FF002112F0DAFFB5
:10231000002010BD184A0020917A57250B07164956
:10232000A8264031002B05DB0D700E70937A08242F
:10233000234393720D700E70052313810E4F2037C7
:102340003B8803246402A3433B80937A10242343F5
:10235000937200220A700123BC79E40701D00020A7
:10236000FAE77D242401401CA042F5D90D700E70BF
:102370008B710A70F0E7000000100040F8B50E4DB8
:1023800057260D4C0021A827203D002826702770D5
:102390000ED00120687128710020207001200BF000
:1023A00077F8267027700D20287100202070F8BD66
:1023B00029712170F8BD00004010004070B531480F
:1023C00009210068C9018162826C07210907032382
:1023D0008A435B07D2188264836C0F2212030324A2
:1023E000934364031B198364836CCC00234383648D
:1023F000C36C0C15A343C364436D8024234343651E
:10240000C36B934322029A18C263C36B0A119343AE
:10241000A4041B19C363C36BDC000123E4089B07FE
:10242000E418C463C46D0C43C465C56D0C12254328
:10243000C565C56D0E133543C565C56D9543C56549
:10244000C56AA5435C122C19C462C46A9443052270
:102450001206A218C262C26A032424032243C26283
:10246000C26A24012243C262026B12091201026392
:10247000026BF024A2430263026B8A43D11801630A
:1024800070BD0000F0020020FFB53B480068826D7F
:10249000012109048A43826582680A43826000251B
:1024A000014680312B468C466E46C168FF240134BC
:1024B000A143C1604168220211434160C1682143C8
:1024C000C1606146C968C905FBD500BF00BF00BF38
:1024D00000BF6146C9680C074168240F9143416001
:1024E0000F2C01D06D1CEDB2002110E0725CA242F5
:1024F0000BD91A4605E0B718203FFF7FB754521E8C
:10250000D2B28A42F7D1745403E0491CC9B299424D
:10251000ECD3994200D17454032D05D05B1CDBB27F
:10252000102BC2D3002D1ED03178082902D9324693
:10253000C91E0DE0042902D93246891E08E001298E
:1025400002D93246491E03E0002902D10321324656
:102550001170816D0F22D201914332781207520D12
:1025600011438165FFBD826D0F21C9018A43052199
:10257000C9015118F5E70000F002002010B51A4813
:102580000068016D01231B049943016581685C01AA
:1025900021438160C26810210A43C260C2688A4335
:1025A000C26000BF00BF00BFC2680A43C26041688A
:1025B000012212031143416001468031CA69D205EC
:1025C000FCD500BF00BF00BFC969026DC906C90EB6
:1025D0001A430265026D520952010A43026581687D
:1025E000A143816010BD0000F0020020F0B5FF485B
:1025F00087B005686868FF21013188436860A86A70
:1026000009018843A862E86A10218843E862A86843
:102610004A031043A8606868084368606868400817
:1026200040006860A86BF24A0321104089034018FB
:10263000A86368680123184368602C4680342069C9
:102640004001C10F20698001C00F0029F7D0002888
:10265000F5D0206986066069B60EC003400E019071
:102660006868400840006860A86BE72110400902D4
:102670004018A86368681843686020694001C10F6A
:1026800020698001C00F0029F7D00028F5D020690B
:102690008006800E04906069C003400E0690686852
:1026A000400840006860A86BD32110400902401820
:1026B000A86368681843686020694001C10F2069F9
:1026C0008001C00F0029F7D00028F5D020698006CE
:1026D000800E039060692721C003400E029003988A
:1026E000301A06464843FEF7CDFA0007216A000F6C
:1026F0000909090108432062262070432721FEF7BB
:10270000C1FA0007226A000EF0218A4310432062BA
:10271000252070432721FEF7B5FA0007226A000D35
:102720000F2109028A43104320622420704327218D
:10273000FEF7A8FA0007226A000C0F2109038A435A
:1027400010432062232070432721FEF79BFA0007E5
:10275000226A000B0F2109048A43104320622220C1
:1027600070432721FEF78EFA0007226A000A0F2124
:1027700009058A4310432062700130182721FEF7B3
:1027800081FA0007216A00090F273F06B943084371
:10279000206270012721FEF775FA216A00070901FE
:1027A0000909084320627001801B2721FEF76AFA9D
:1027B0000007616A000F09090901084360621E20D1
:1027C00070432721FEF75EFA0007616A000EF022CF
:1027D0009143084360621D2070432721FEF752FA9F
:1027E0000007616A000D3A149143084360621C209F
:1027F00070432721FEF746FA0007616A000C3A137E
:102800009143084360621B2070432721FEF73AFA88
:102810000007616A000B3A12914308436062304638
:102820001A2148432721FEF72DFA0007616A000AA2
:102830003A119143084360623046192148432721E9
:10284000FEF720FA0007616A0009B9430843606295
:102850003046182148432721FEF714FA616A000721
:1028600009010909084360623046172148432721BE
:10287000FEF708FA0007A16A000F090909010843D9
:10288000A062162070432721FEF7FCF90007A16A19
:10289000000EF02291430843A062152070432721C7
:1028A000FEF7F0F90007A16A000D3A1491430843BE
:1028B000A062142070432721FEF7E4F90007A16A03
:1028C000000C3A1391430843A06213207043272160
:1028D000FEF7D8F90007A16A000B3A1291430843AA
:1028E000A062122070432721FEF7CCF90007A16AED
:1028F000000A3A1191430843A062300130182721A1
:10290000FEF7C0F90007A16A0009B9430843A062B5
:1029100030012721FEF7B6F9A16A0007090109096C
:102920000843A0623001801B2721FEF7ABF90007A6
:10293000E16A000F090909010843E06230460E21EF
:1029400048432721FEF79EF90007E26A000EF021B6
:102950008A431043E06230460D2148432721FEF7A9
:1029600091F90007E26A000D39148A431043E062CE
:1029700030460C2148432721FEF784F90007E26A1C
:10298000000C39138A431043E06230460B21484360
:102990002721FEF777F90007E26A000B39128A4314
:1029A0001043E06230460A2148432721FEF76AF9C6
:1029B0000007E26A000A39118A431043E062F0001E
:1029C00030182721FEF75EF90007E16A00093A4650
:1029D00091430843E062F0002721FEF753F9E16AD2
:1029E0000007090109090843E06203E0F002002042
:1029F000FF00FEFFF000801B2721FEF743F90007D0
:102A0000216B000F090909010843206330460621A4
:102A100048432721FEF736F90007010E206BF0220C
:102A2000904301432163B00030182721FEF72AF9B3
:102A30000007226B000D39148A4310432063B00055
:102A40002721FEF71FF90007226B000C39138A4378
:102A500010432063700030182721FEF713F9000798
:102A6000010B206B3A129043014321637000272130
:102A7000FEF708F90007226B010A3811824311435F
:102A8000216330462721FEF7FDF80007226B00097D
:102A900039468A4310432063206B000100092063FC
:102AA00004990398471A28213846FEF7EBF80007E7
:102AB000616B000F09090901084360637800282150
:102AC000FEF7E0F80007616B000EF0229143084327
:102AD0006063780038182821FEF7D4F80007616B8E
:102AE000000D0F221202914308436063B8002821B1
:102AF000FEF7C8F80007616B000C0F221203914328
:102B000008436063B80038182821FEF7BBF80007B7
:102B1000616B000B0F22120491430843606306208F
:102B200078432821FEF7AEF80007616B000A0F22F8
:102B30001205914308436063F800C01B2821FEF78B
:102B4000A1F80007626B00090F2109068A431043B0
:102B50006063F8002821FEF795F8616B0007090112
:102B6000090908436063F80038182821FEF78AF83D
:102B70000007A16B000F090909010843A06338464B
:102B80000A2148432821FEF77DF80007A26B000EBA
:102B9000F0218A431043A06338460B214843282183
:102BA000FEF770F80007A26B010D0F2000028243B0
:102BB0001143A16338460C2148432821FEF762F8EF
:102BC0000007A26B010C0F20000382431143A16395
:102BD00038460D2148432821FEF754F80007A26B20
:102BE000000B0F2109048A431043A06338460E21CD
:102BF00048432821FEF746F80007A26B010A0F2080
:102C0000000582431143A1633801C01B2821FEF750
:102C100039F80007A26B00090F2109068A43104307
:102C2000A06338012821FEF72DF8A16B00070901E8
:102C300009090843A063380138182821FEF722F853
:102C40000007E16B000F090909010843E0633846FA
:102C5000122148432821FEF715F80007E26B000E09
:102C6000F0218A431043E06338461321484328216A
:102C7000FEF708F80007E26B000D0F2109028A43F6
:102C80001043E0633846142148432821FDF7FAFF3A
:102C90000007E26B010C0F20000382431143E16344
:102CA0003846152148432821FDF7ECFF0007E26B69
:102CB000010B0F20000482431143E16338461621C3
:102CC00048432821FDF7DEFF0007E26B000A0F21D1
:102CD00009058A431043E0633846172148432821F9
:102CE000FDF7D0FF0007E26B00090F2109068A43B8
:102CF0001043E0633846182148432821FDF7C2FFFE
:102D0000E16B0007090109090843E063384619210E
:102D100048432821FDF7B6FF0007216C000F090981
:102D200009010843206438461A2148432821FDF749
:102D3000A9FF0007226C000EF0218A431043206493
:102D400038461B2148432821FDF79CFF0007226CD1
:102D5000000D0F2109028A431043206438461C21CC
:102D600048432821FDF78EFF0007226C000C0F213D
:102D700009038A431043206438461D214843282113
:102D8000FDF780FF0007226C000B0F2109048A4326
:102D90001043206438461E2148432821FDF772FF66
:102DA0000007226C000A0F2109058A4310432064A2
:102DB0007801C01B2821FDF765FF0007226C000980
:102DC0000F2109068A431043206478012821FDF76A
:102DD00059FF216C000709010909084320647801A3
:102DE00038182821FDF74EFF0007616C000F090914
:102DF0000901084360643846222148432821FDF731
:102E000041FF0007010E606CF022904301436164B2
:102E10003846232148432821FDF734FF0007626C20
:102E2000010D0F20000282431143616438462421C2
:102E300048432821FDF726FF0007626C000C0F2194
:102E400009038A43104360643846252148432821FA
:102E5000FDF718FF0007626C000B0F2109048A437D
:102E6000104360643846262148432821FDF70AFFB5
:102E70000007626C010A0F20000582431143616460
:102E80003846272148432821FDF7FCFE0007626CE5
:102E900000090F2109068A4310436064384628213F
:102EA0004843FDF7EFFE616C00070901090908437B
:102EB00060643846292148432821FDF7E3FE0007D6
:102EC000A16C000F090909010843A06438462A21B2
:102ED00048432821FDF7D6FE0007A26C000EF02122
:102EE0008A431043A064069A02983946801A0A223F
:102EF00000905043FDF7C6FE082108430007A16C6F
:102F0000000D0F22120291430143A164009839463B
:102F1000C2008018FDF7B6FE082108430007A16C27
:102F2000000C0F22120391430143A164009839461B
:102F3000C000FDF7A7FE082108430007A16C000BA5
:102F40000F22120491430143A16400983946C20044
:102F5000101AFDF797FE082108430007A16C000A2C
:102F60000F22120591430143A164009806223946BD
:102F70005043FDF787FE082108430007A16C0009B4
:102F80000F22120691430143A16400983946820042
:102F90008018FDF777FE08210843A16C000709019E
:102FA00009090143A164009839468000FDF76AFED3
:102FB000082108430007E16C000F090909010143DA
:102FC000E1640098394642008018FDF75BFE082155
:102FD00008430007E16C000EF02291430143E164D5
:102FE000009839464000FDF74DFE082108430007D0
:102FF000E16C000D0F22120291430143E164394656
:103000000098FDF73FFE082108430007E16C000C23
:103010000F22120391430143E16431460020FDF782
:1030200031FE0007E16C000B0F22120491430143B3
:10303000E164029A01983146871A3846FDF722FE6C
:103040000007E16C000A0F22120591430143E1647D
:1030500031467800FDF716FE0007E16C00090F22EB
:10306000120691430143E164780031463818FDF7B8
:1030700009FEE16C0007090109090143E1643146D9
:10308000B800FDF7FFFD0007216D000F09090901D8
:1030900001432165B80031463818FDF7F3FD0007FC
:1030A000216D000EF0229143014321650620314637
:1030B0007843FDF7E7FD0007216D000D0F22120296
:1030C000914301432165F8003146C01BFDF7DAFD4D
:1030D0000007216D000C0F2212039143014321656B
:1030E0003146F800FDF7CEFD0007216D000B0F22E1
:1030F0001204914301432165F80031463818FDF769
:10310000C1FD0007216D000A0F2212059143014302
:1031100021650A2031467843FDF7B4FD0007216D93
:1031200000090F22120691430143216569681020AE
:10313000814369606968490849006960A96A0202B7
:103140001143A962E96A0143E962A86B8109039806
:1031500089010143A963A86B7F210906884302996D
:1031600009060843A86307B0F0BD000003480068E3
:103170004168FF220132114341607047F002002094
:1031800070B52548244D427FA02020350C4642438F
:10319000C907287EEB7E00290AD0810706D50006E4
:1031A00000D410220421184611F084F901202EE0E9
:1031B000A1070ED541070AD5000603D508211846F8
:1031C000283202E028220821184611F073F9022063
:1031D0001DE0610704D500200DF0C0FF042016E0BB
:1031E000210705D5400701D500F0C2F808200EE000
:1031F000E0060ED50AF05CF80848C079062805D12B
:103200001922E87E9201102111F054F9102060403B
:1032100070BD002070BD0000982E0020802E002080
:1032200010B504464069002817D0202200211B4811
:1032300011F024F820222146184810F037FF174CCF
:1032400020346068002801D010F092FF002013495C
:1032500060608869002802D004E0012010BD0020D1
:10326000C0438861487F002801D128204877887FA3
:10327000002801D108208877C87F002801D11120BB
:10328000C877FF2020706070A070E0704878607789
:103290008868606148682061002010BD982E002079
:1032A000F8B5174800688047164EB168814225D0AE
:1032B000154F884201D3401A01E0401AC019114D40
:1032C0004409203DA87FA04218D800F079F8A87FD3
:1032D000B2684101241A5118B94202D30A4A524233
:1032E0008918B160A042F0D90848006801686A787E
:1032F000C909C9015206520E11430160F8BD000010
:10330000EC010020B82E00200000C0A8E802002038
:10331000F8B5144800688047134EB16881421FD049
:10332000124A884201D3401A01E0401A8018C506AB
:103330000D4FED0E4409203FB87F0CE000F040F83F
:10334000B87FB26841015118084A241A914201D34A
:1033500052428918B160A042F0D960012843F8BDFB
:103360000020F8BDEC010020B82E00200000C0A80D
:1033700070B500F055FB114C08212546607F203DBB
:1033800068706069A86020696860E07E11F0CCF820
:10339000E07E042111F0C8F8207E810704D50022C8
:1033A000114622206B6905E0400704D500226B69B5
:1033B0001146242098470020207670BDB82E0020AA
:1033C00070B519490E46203E487EF27F8018C0B283
:1033D0007070202801D320387070C0B24876012563
:1033E0002946B46981400C4216D100210A462B4679
:1033F00093401C4201D0491CC9B2521C52B2202A2F
:10340000F5DBFDF729FC002210462B4683401C42C9
:1034100005D08A4201D1707070BD521C52B2401C5E
:1034200040B22028F1DB70BDB82E0020FEB5F84A6E
:10343000F64F1646F979002510782036052902D076
:10344000062976D0D4E1C0074FD0B878C0071ED087
:10345000BD70EF4800224369114601209847802043
:103460003871EC48007DC00701D04B2300E04E23AB
:10347000E948816B0091826B8A42FAD1C818E7490A
:10348000884201D349424018E549C8603AE0F878DB
:10349000002837D00024FD7000F0C2FA7869026875
:1034A000D1430906090E06D07178FF2903D0D2B2A4
:1034B0008A4200D00224D6490978090601D50022A3
:1034C00000E00246002102F027FB0146D0482143DC
:1034D00043697A69022098473D71307E800711D593
:1034E000F07E012110F098FF0CE0F878002809D058
:1034F000FD7000F095FAC64800224369114601208C
:1035000098473D713879C0079CD03D7100F088FA2A
:1035100009F0CEFEB8780006BD48436904D5002204
:103520001146112003E004E00022114612209847C2
:103530005EE1C1077AD03978C90778D07C693D70DF
:1035400001AA0021204602F0E7FA050008D1F07830
:10355000FF2805D02178FF2902D0884200D002251B
:10356000AB480078000605D4002D05D168460079E7
:10357000207016E0002D14D002F0F6FAA4487A6903
:1035800043692946032098477068B378F278002889
:1035900002D04178801C01E00021084600F060F96B
:1035A00005E1307E400718D56078205C802814D172
:1035B000706800280CD03969FF2008609548396987
:1035C000807C486097480068C168490B4903C16026
:1035D0008F481022017811430170706840783A28B2
:1035E00010D9914C2168914882689202920E162A55
:1035F00010D082689202920E1A2A03D28268120CAC
:103600009206F1D1802038718248007DC0070FD02A
:103610004B220EE03022844BD24380331A60826802
:103620009202920E1A2AFAD32160EBE7A0E06AE038
:103630004E22794B986B0090986B00998842F9D193
:1036400088187649884201D3494240187449C860B5
:103650000021774800F088FD307E844640074DD534
:103660007C696C4A6078127DC000A030F968D2078E
:1036700002D01F30400902E06E4A5043400C8142A4
:1036800001D3091A02E0091A64480918F960B06800
:103690000A46814201D3121A02E0121A5F48121838
:1036A0006378601C185C6346C0001B0610D582421C
:1036B00008D9121A07E0081A02E0091A5748081830
:1036C000B06011E0821A202A0ED88142F5D3F2E7C9
:1036D000814201D3081A02E0091A50480818B06064
:1036E0006046802108433076F07E022110F094FE7F
:1036F000B07EC0065BD46078801E607044487A69F2
:103700002946436951E07978002920D07D703D71C8
:103710000021084600F028FD3D4C2078C0060FD55A
:1037200002F022FA7068B378F27800281DD0417850
:10373000801C00F095F82078EF210840207036E0DA
:1037400000F06EF900221146042063692EE03979F9
:10375000C9072CD03D712E4CC006E1D400F060F9B1
:10376000002211461420636920E000210846E0E7AA
:10377000787800281BD000247D7000F051F978691A
:103780000168CA431206120E06D0F278FF2A03D04F
:10379000C9B2914200D002240246002102F0BCF9D5
:1037A000204301461A487A69436903209847307ECE
:1037B000400701D5FFF774FD174CA06B0090A06B7C
:1037C00000998842F9D1F068814201D3081A02E0D9
:1037D000091A124808187D210902884208D909F0FF
:1037E00067FDA06B0090A06B00998842F9D1F16051
:1037F000B07E400724D5F879062821D07068B378C8
:10380000F278002818D04178801C17E0802E002024
:10381000982E00202C2E0020001000400000C0A890
:10382000602E0020EC02002000E100E000C2004019
:103830002D340000C71000000021084600F010F8E9
:10384000FEBD000010B5FDF769FC034800F076FCF2
:103850000249C876002010BD81310000B82E00203A
:10386000FFB5644D0C4628689C46016881B013463C
:1038700089070ED0016DC908C900016501680822D9
:10388000114301600168090703D500BF00BF00BFF5
:1038900000BF59210165584E3068C16A07221205E0
:1038A0009143012252058918C162C16A072212069A
:1038B0009143052212068918C162504800680168C8
:1038C000CA094F49D2014F787F067F0E3A43026002
:1038D0004A6882608A680261CA6842600A69C26096
:1038E00028684268097852085200C907C90F0A437C
:1038F0004260434F61462037FB70B9704068C00793
:1039000039D07868002806D14921A01C10F0DAFBD4
:103910007860002810D00198002810D0002C0ED01C
:103920007968B87808707868224644707868019998
:10393000801C10F0BBFB08E0012005B0F0BD7968E9
:10394000B878087078680024447079682D484A78FF
:103950000069921C10F0AAFB2B48817C294802695F
:10396000601D80088000115028480068C168490B1C
:1039700049032143C160B87E04210843B876214C35
:10398000402020700020607020710521204800F048
:10399000EBFB0620E0711F48816B0091816B009A60
:1039A0009142F9D1FA6031681B4A00200B468033FE
:1039B00012890FE01C69E40109D5C86A07221205C3
:1039C0001043C862C86A12019043C86204E000BF95
:1039D00000BF401C8242EDDC10480068002804D083
:1039E000C1680A68406902430A60296801200860CA
:1039F0000020A2E7F0010020F0020020E8020020F1
:103A0000982E0020802E00202C2E0020EC0200207A
:103A10002D34000000100040602E0020F80100202E
:103A200070B50B4C00250B48A57605716068002821
:103A300001D010F09DFB00210846656000F094FB6A
:103A40000521002000F090FB02F08EF8002070BDF0
:103A5000B82E0020802E0020FFB5B54F83B0386807
:103A60000C460068800701D002F07EF8B148B24DE4
:103A7000007E800708D5FFF74BFC1028FBD3A97FF9
:103A8000490110398142F6D339685A200865AB489C
:103A90000068C26A072109058A43012149055118B6
:103AA000C162C26A072109068A4305210906511825
:103AB000C162A34800680168CA099F49D2014B78D6
:103AC0005B065B0E1A4302604A6882608A68026184
:103AD000CA6842600A69C2603A6853680D785B0838
:103AE0005B00ED07ED0F2B4353600A7802231A4366
:103AF0000A70944E8021B1700021F1708D4D0599AE
:103B0000297006996970C16A89088900C1620168D3
:103B1000DA06914301600398002809D030692978BA
:103B2000017044702246801C039910F0BFFA02E035
:103B30003169287808607E4800684068C00701D075
:103B4000002100E00521804800F00EFB7D480521A2
:103B5000C1717A497D4E096800200B468033328955
:103B600010E01F69FF010AD5CB6A07273F053B43D9
:103B7000CB62CF6A07231B069F43CF620AE000BFD8
:103B800000BF401C8242ECD804E000BF00BF00BF71
:103B900000BF401C8242F8D86D480068002804D05D
:103BA00001680A68806802430A60664F80203871A5
:103BB0006848007DC00701D04B2200E04E226648D5
:103BC000816B0091816B009B9942F9D163499818F0
:103BD000884201D349424018F060287E80071ED5F4
:103BE0005F483E6900688047A968884201D3401A4F
:103BF00002E0411A594808184F49C0080978C90617
:103C000006D558490224000640183969086006E0C4
:103C1000A41CE4B2747000213155311948704D482C
:103C20003A69817C601D8008800011504E49086807
:103C30008268520B52032243826080684B4AC00460
:103C4000C00C3A2805D910680190484B50178033B2
:103C50001860374B02201B68186008688068C00431
:103C6000C00C3A2861D900BF00BF00BF00BF00BF31
:103C700000BF00BF00BF00BF00BF00BF00BF00BF4C
:103C800000BF00BF00BF00BF00BF00BF00BF00BF3C
:103C900000BF00BF00BF00BF00BF00BF00BF00BF2C
:103CA00000BF00BF00BF00BF00BF00BF00BF00BF1C
:103CB00000BF00BF00BF00BF00BF00BF00BF00BF0C
:103CC00000BF00BF00BF00BF00BF00BF00BF00BFFC
:103CD00000BF00BF00BF00BF00BF00BF00BF00BFEC
:103CE00000BF00BF00BF00BF00BF00BF00BF00BFDC
:103CF00000BF00BF00BF00BF00BF00BF00BF00BFCC
:103D000000BF00BF00BF00BF00BF00BF00BF00BFBB
:103D100000BF00BF00BF00BF00BF00BF00BF00BFAB
:103D200000BF00BF00BF01981060002007B0F0BDC9
:103D3000F0010020B82E0020982E0020F002002074
:103D4000E8020020802E00202D340000602E00208C
:103D5000F80100202C2E0020001000400000C0A818
:103D6000EC010020FF028000EC02002000E100E0F6
:103D700008B50448816B0091816B009A9142F9D19A
:103D8000104608BD0010004038B51648816B009100
:103D9000816B009A9142F9D1134C1046217DC907DD
:103DA00005D0124900F08AFB8A04810B04E0192136
:103DB00000F084FBCA05410A11430D4A906988420C
:103DC0000DD0884201D2081A07E0237DDB0701D01D
:103DD000084B00E0084B181A4018916138BD0020CC
:103DE00038BD0000001000402C2E002033030000DE
:103DF000602E002000796F0800603D0803493020E4
:103E0000087403490120086070470000201000403A
:103E1000CC010020FFB581B00C46074605460026C0
:103E20001AE0FF219131681EFCF72CFF00290AD00F
:103E30006421681EFCF726FF002907D00320A9078C
:103E40008007C14202D1FF206F3001E0FF206E30B9
:103E500080196D1E86B2ADB235488542E1D8002585
:103E6000012C25D9032C05D0A01E062816DDE0075D
:103E700018D115E0FF2191313846FCF7EDFE0029FD
:103E80000AD064213846FCF7E7FE002901D0B807C4
:103E900002D000201C3006E00120FBE7E00701D043
:103EA0001E2000E01F208019641E86B2A4B2D7E74E
:103EB000039818213018401E84B20498FCF7CCFEF9
:103EC000E120C00041430A981E22504309180B9874
:103ED0004008081881B20B98C00701D00120C00328
:103EE0000A0402431348C17B6B46C909C901197012
:103EF000C17B1B78C909C9019942F4D16946097887
:103F00000029F0D00B49572320310B70A8230B70E8
:103F1000084B203B5C63447C8026344344745A63E2
:103F2000427C40231A4342740D7005B0F0BD00007E
:103F3000E407000020100040002908D0002A02D128
:103F400005E008C808C2491EFBD200207047FD20CA
:103F50007047F7B58CB00C9815460F46002831D045
:103F6000002D2FD0381D0A9080B2532110F0AAF8EE
:103F700004003BD007F03CFB06463A46201D0C9956
:103F800010F040FAF0B20990E0703004000E089092
:103F9000A0703002000E07906070370E277007F097
:103FA00021FB0146102201A810F02CFA08200090F5
:103FB0000A9805AB82B2214601A80FF04BF8060023
:103FC00002D00FE0022612E0099828700898687065
:103FD0000798A870EF70082205A9281D10F012FAA2
:103FE00007F00CFB204610F0C3F800E01326304623
:103FF0000FB0F0BD014880697047000000E000E0AC
:1040000010B50B4857210170A8210170084A88217A
:10401000403A11810189042211430181002101707C
:104020000A2009F035FA0120FEF7A8F910BD0000BA
:104030004010004070B50C46014620040AD50846E1
:1040400010F060F9002801D010F034F90120C0030D
:10405000604070BD6004FCD0002632462046D0404F
:10406000C00713D0002901D00F2000E000200B4929
:1040700080184968C00045180120904086B2296820
:104080006868884700202860686003E0521CD2B24C
:104090000F2AE3D32046704070BD0000D0010020FD
:1040A0000148406970470000602E002070B510F094
:1040B000B5F81C2200211E4810F0E0F81C48202210
:1040C0000021503010F0DAF81A4D002028616861A4
:1040D0001748174C1C30007F50348107890F800827
:1040E0000818410040180D30C0B2A07006214843A6
:1040F000FF210231F0300FF0E5FF6860F030A8607A
:10410000A17889000818E86010F0F6F810F0B8F906
:104110006078094A8100A86842506178491CC9B298
:104120006170890042506078401C607070BD000072
:10413000102E0020D00100203540000010B50849A5
:10414000024648788B78984207D2064C8300A468D0
:10415000E2504A78521C4A7010BDFF2010BD00008A
:10416000602E0020D0010020072902D2014A8900D8
:1041700050507047102E0020FEB5864D02E080475B
:1041800001F022FD28680028F9D10124A000285858
:10419000002807D080477F481C30407D002801D090
:1041A000FDF738F82868002875D1641CE4B2072CA4
:1041B000ECD3784C784E50346278F06821784B001C
:1041C000C35A002B04D1491CC9B221709142F5D3C6
:1041D000C9B2914211D24A00815A002383522078F9
:1041E000B36882009A5890472178F2684900535A80
:1041F000034353522078401C207020786178884215
:1042000001D30020207063480068002843D1706902
:10421000002840D0804700283DD061690546091834
:1042200061610021C9435C4821610669002E29D0E3
:104230000027B068A84201D8002000E0401BB06011
:1042400054481C30406A002804D02169B06881427B
:1042500000D92061B06800280DD1718800291BD0D9
:10426000307810F0D9F87068002801D0B06002E012
:10427000B068002810D0708800280DD03746F66846
:10428000002ED6D1434D1C35686A002803D000208B
:10429000414A617814E07CE0002F06D0F068F860B5
:1042A0003046F6680FF064FFEAE73B48F1680161C9
:1042B000F6E7D6684300F35A002B6AD1401CC0B21F
:1042C0008142F6D83349032082008A58002A60D1FF
:1042D000401CC0B20728F7D301A8FDF7C5FE02466F
:1042E0002E49401C24D0EB7C019EB34251D2206960
:1042F000471C16D02A7DD20702D01422504302E078
:10430000292250434008834243D2864200D230469D
:10431000C61A2348826B0092826B009B9A42F9D1A5
:104320001DE09A4201D3D01A1FE0D01A40181CE0B9
:104330002069421C2DD02A7DD20702D0142250437E
:1043400002E0292250434008EA7C824221D2861AA8
:104350001348826B0092826B009B9A42F9D19819A4
:10436000884202D30D4A52428018002802D0696A5E
:10437000884702E06A6A084690470006000E08D1A6
:104380002089002805D0FDF727F9FDF7A7FDFCF7E8
:10439000A3FEFEBD102E0020D00100200000C0A80A
:1043A0000010004010B504460848C16A002900D03A
:1043B00088470748002C01D0046001E005490160EE
:1043C000054800F00BF8002010BD00002C2E002046
:1043D000EC010020713D0000893D000010B503494B
:1043E000486180470249886110BD0000D00100206B
:1043F000602E002010B50446FDF708FC0A21484352
:10440000C0082146FCF728FC0A21401DFCF724FCCB
:104410000149888110BD00000034004010B5E12042
:104420004002FFF7E7FF0548872181700321C17033
:10443000402141700121817310BD00000034004013
:10444000F0B5144EFD23757A84247472124CA7685B
:10445000002F07D0A77B002F04D0A489E71FFF3FC0
:10446000FA3F02D07572FF20F0BD7D24E402A04225
:104470000AD34027491E07D3706008CA33609A23C5
:104480003372B37A7B4002D075721846F0BD001DBE
:10449000F0E70000001800402C2E00200FB410B5EB
:1044A00003A9044B044A029800F0E8F810BC08BCC9
:1044B00004B0184749AC000074050020F8B5040C9E
:1044C0008BB2264682B25E430D0C1046370C584321
:1044D000360480190021794116466E43370C3604A4
:1044E0008019794126466E438919F8BD30B4744667
:1044F000641E2578641CAB4200D21D46635D5B00E0
:10450000E31830BC184702E008C8121F08C1002A8F
:10451000FAD170477047002001E001C1121F002A44
:10452000FBD1704710B51C4613468C4205D8224675
:104530001946FCF7F1FB204610BD002010BD00001D
:10454000FFB5044681B080680D9E1D460F460028C9
:104550000ED045490968002904D1002D02D00A2057
:1045600005B0F0BD4169002904D10B99002901D0A3
:104570000720F5E7002F40D0039801F0D9FD00286F
:1045800070D0A06801218088C903421A49108A426C
:1045900004D203F09FFA002110F077FAA068418955
:1045A000C904C90C4181A0688780A168039AC888A2
:1045B0001205000B0003120D1043C88001221203E4
:1045C0009043EA07D20CA1681043C880A1680A98FA
:1045D0000872A1680B988872A1680C984872A0684C
:1045E0004069002836D0204603F068FC0100A0682E
:1045F0002DD0183008F058FB2CE080880028AFD070
:104600000121C903421A49108A4204D203F062FA16
:10461000002110F03AFAA06800228280A1680123EC
:10462000C8881B03000B0003C880A1689843C8809A
:10463000A0680272A0688272A0684272A068418974
:10464000C904C90C4181A0684169002902D0183011
:1046500008F00CFB002E02D0204605F060F8002088
:104660007EE7FFE703207BE7F403002010B5029903
:104670008A78098809F0E6FF10BD0000FFB591B007
:104680000F460546002606E025280AD0149A1399FD
:1046900090476D1C761C28780028F5D1304615B05F
:1046A000F0BD002400940121F34A029400E0044389
:1046B0006D1C2B780846203B98401042F7D1287893
:1046C0002A280ED0022128780246303A092A15D825
:1046D000009A0A235A43303A80180C436D1C00900C
:1046E000F1E701CF0090002805DA012040030443E0
:1046F000009840420090022004436D1C28782E2828
:1047000015D10420044368786D1C2A280AD101CFF2
:104710006D1C02900BE002990A2251433039401877
:104720006D1C02902878014630390929F3D9287880
:104730006C2810D006DC4C281AD068280ED06A28C5
:1047400017D104E0742813D07A2812D110E0012088
:10475000400504430CE00121090501E0032109059E
:104760000C436978814203D10120000524186D1C97
:104770006D1C287803906E281ED00CDC632831D085
:1047800004DC00288AD0582811D1B2E064287BD0FC
:1047900069280CD178E073282DD004DC6F2870D004
:1047A000702804D1A7E075286CD078286BD0149AB3
:1047B00013999047761C62E06002400F022807D0F0
:1047C00003280AD0042838680AD006603F1D56E046
:1047D0003868F11706604160F8E738680680F5E749
:1047E0000670F3E73878694608740020487404A816
:1047F0000390012003E0386803900020C0433F1D70
:1048000061070FD5002101E00199491C029A01912D
:10481000914213DA8142F7DB019A0399895C0029FE
:10482000F2D10BE0002101E00199491C0191814284
:10483000FADB019A0399895C0029F5D10199009866
:10484000139A401A00902146149B00F03BF90199FD
:104850008019461807E0039803990078491C0391D2
:10486000149A139990470198401E0190401CF2D170
:104870002146149B139A009800F014F986196D1CB8
:1048800009E741E033E034E00A200021049005917B
:104890006002410F022905D001CFC21794460329B7
:1048A00005D007E0FF1DFF08FF0003CF06E000B2C0
:1048B000C2179446042902D140B2C1178C46002287
:1048C0006146944506DA0A460021404291418C46F1
:1048D0002D2102E0210504D52B216A461176012104
:1048E00003E0E10701D02021F7E7019154E00A201D
:1048F0000BE0102009E01020049000210420044364
:1049000008200591029003E0082000210591049001
:104910006002410F022905D001CF002294460329ED
:1049200006D006E0FF1DFF08FF0003CF8C4603E022
:1049300080B2042900D1C0B20021019121072BD5FA
:104940000399702906D0049A1021059B4A401A4306
:1049500005D00EE040216A461176012108E061464B
:10496000014306D030216A4611760399517602211F
:104970000191049A0821059B4A401A430CD16146D3
:10498000014301D1610707D530216A461176012123
:1049900001910299491E02910399582904D037A127
:1049A00003910FA90F910DE039A1F9E76146059B2D
:1049B000049AFCF708FA039B8C469B5C0F9A521EE4
:1049C0000F92137061460143F0D10F9807A9081A9E
:1049D00020300390600704D501200004844302982E
:1049E00001E0012002900399884201DD401A00E0B5
:1049F000002041180290019809180098401A009070
:104A0000E00306D42146149B139A009800F05AF84C
:104A100086190020049008E006A9085C149A1399EE
:104A200090470498401C761C049001998842F3DB5F
:104A3000E0030CD52146149B139A009800F042F82D
:104A4000861904E0149A302013999047761C029935
:104A5000481E02900029F5DC08E00F980F990078B5
:104A6000491C0F91149A13999047761C0399481E7C
:104A700003900029F1DCFBE60928010030313233D4
:104A8000343536373839616263646566000000008A
:104A90003031323334353637383941424344454674
:104AA00000000000F8B5044600251E46174688049D
:104AB00004D405E039462020B0476D1C641EF9D5AA
:104AC0002846F8BDFFB50446002581B01E46C80340
:104AD00001D5302700E02027880404D505E03846BA
:104AE0000399B0476D1C641EF9D5284605B0F0BD8A
:104AF000134610B50A461946FCF722F910BD00000E
:104B000070B500F01BFA1C214843042109F070FE27
:104B10000625ED43002818D00D4CE06000F00EFA99
:104B20001C214843042109F063FE00280DD00949E7
:104B3000086000F003FA208000F000FA6080064868
:104B4000A06006486060002070BD284670BD00006F
:104B5000F42E002004020020245601007D4F0000A6
:104B600010B508F091FA18214843042109F040FEDD
:104B7000002803D003498860002010BD0620C043F0
:104B800010BD00002002002070B506F013FD441C8B
:104B900006F00AFD44431C206043042109F028FE6E
:104BA0000625ED43002821D0114CE06006F002FDFF
:104BB000461C06F0F9FC46437000022109F018FE7D
:104BC000002813D00B49086106F0F4FC451C06F0E0
:104BD000EBFC4543258006F0EDFC451C06F0E4FCAB
:104BE000454365800448A060002070BD284670BD24
:104BF000502F00202C02002024560100F8B53E4F13
:104C0000386800282DD006F0CFFC682148430421E5
:104C100009F0EEFD00286CD0384E002430621CE014
:104C200006F0DAFC4000022109F0E2FD002860D025
:104C30006822254655432A46316A1032885006F0CC
:104C4000C5FC0C214843042109F0D2FD002850D0B6
:104C5000316A3035641C4851E4B206F0A5FCA0422C
:104C6000DED8274938680968264D084309D006F080
:104C70009BFC4A214843022109F0BAFD002838D0A4
:104C8000E86000F037FD28214843022109F0B0FD1B
:104C900000282ED0194C803460620EF0D1FEE42141
:104CA0004843042109F0A4FD002822D0A0620CF0A2
:104CB000CFFA002808D00CF0CBFAC000042109F08C
:104CC00097FD002815D0E0620BF0C6FB1621484383
:104CD000022109F08DFD00280BD0206209F082FD31
:104CE0008000042109F084FD002802D068600020C3
:104CF000F8BD0620C043F8BD2C020020982F0020EC
:104D0000F40300205C02002070B500240A4D0BF073
:104D1000FDFE4000022109F06BFD002809D054215E
:104D200061434919641C24064860240EEFD000201A
:104D300070BD0620C04370BD0433002070B500F084
:104D4000D9FC04460EF07CFE20184000022109F038
:104D50004FFD0625ED4300280CD0074C60600BF09A
:104D60007BFB8000022109F043FD002802D0A060F7
:104D7000002070BD284670BD6C02002070B50FF099
:104D8000EDFC48214843082109F032FD0626F64390
:104D9000002838D01D4D002468600EE00FF0E4FCC0
:104DA0008000042109F024FD00282CD04821614313
:104DB0006A68641C8918E4B248600FF0CFFCA04216
:104DC000ECD80CF0C1FA8001082109F011FD00288F
:104DD00019D00024A86010E00CF0B0FA0C21FBF709
:104DE0003BFF8000042109F003FD00280BD0A10146
:104DF000AA68641C8918E4B248600CF0A5FAA042C5
:104E0000EAD8002070BD304670BD0000C00200200E
:104E1000036882689A4201D2436899548168491CA8
:104E2000816070470149FF2008707047AC02002084
:104E300070B50446007EFF2801D101F0BBFF32218E
:104E40004843054600219635E0690A460126334667
:104E50008B40034201D0521CD2B2491CC9B2202956
:104E6000F5D3E07D6421C006C00E801A4843401986
:104E7000FF212D316430884200DC084670BD0000FF
:104E8000F7B582B01746054601F038FF044603988F
:104E900000212818401EC94386B2002C1BD0002DCB
:104EA00019D00120C003854215D2002E13D08642AE
:104EB00011D2039800280ED004F00CF82289411E6C
:104EC000511889B2864209D38D4207D8002F1FD0CE
:104ED000491C39801CE0084605B0F0BD114800248B
:104EE000009019E00098016A162060430818428873
:104EF0000D498A420FD00188027D481E101880B2E9
:104F00008E4208D3854206D8002F01D0401C38803D
:104F10000520C043E0E7641C0BF09EFAA042E1DCF0
:104F20000020D9E718300020FFFF00001C21484373
:104F300001490968401870470402002001480068D0
:104F4000007870471002002010B50022D2430D21D6
:104F5000002000F085FF10BD10B5C08901F030FBC6
:104F600009F0B5FD00F020F8002803D0018A0248BE
:104F700007F09AFE10BD0000D82E002041690839C4
:104F80004161C160418A08314182018A0831018250
:104F90007047000000487047042F00200149087145
:104FA00070470000042F002010B505480EF038FEB1
:104FB000002801D0002010BD01480068143810BD41
:104FC0000802002030B52A489FB0C06C1D9004A88C
:104FD0001C901E900020274C019002900390608846
:104FE00025460C3D002802D1A868006880896946E2
:104FF000C880A0880881E0694169002929D0E17949
:10500000002932D0491EE171217C6A469173028ADF
:10501000C1681CA809F0A3FC0094A868144B0068A0
:10502000803B1CAA01A903F051F804000FD01049DD
:1050300011A03B31FFF732FA214613A0FFF72EFAF9
:105040001AA0FFF72BFA21460A4807F0CDFB1FB044
:1050500030BD074908A03B31FFF720FA14A0FFF745
:105060001DFA12A0FFF71AFAF1E71621C943EBE780
:10507000EC5401007C0100204150505F4442472025
:1050800025733E2000000000556E61626C65207340
:10509000656E64206D6F64656C206D657373616708
:1050A0006520286572723A25642900000A00000014
:1050B0004E554C4C20627566000000000149486066
:1050C00070470000AC020020F0B52C489FB0C06EC5
:1050D0001D9004A800242A4E1C900194029403946D
:1050E0001E90708837462C3F002802D1B8680068AF
:1050F00080896946C880B0880881F16948690028BC
:105100002AD0F279002A21D0521EF271307C6A46F0
:1051100090730A8AC9681CA809F021FC0094B86839
:10512000002300681CAA01A902F0D0FF05001FD0CF
:10513000124914A05431FFF7B1F9294615A0FFF721
:10514000ADF91DA0FFF7AAF9F06940690FF0B2F8B8
:10515000F06944611FB0F0BD08490AA05431FFF75F
:105160009DF916A0FFF79AF913A0FFF797F9F1E759
:1051700001213878B2680FF09DF9EBE7EC5401009B
:105180009C0100204150505F4442472025733E203F
:1051900000000000556E61626C652073656E6420CE
:1051A0006D6F64656C206D6573736167652028653C
:1051B00072723A25642900000A0000004E554C4CDA
:1051C000206275660000000001480068C0787047E2
:1051D0001002002070B505468AB016481646806950
:1051E000029006A80C460190039004AA05A9304637
:1051F00007F021FE104901A802F037FE6846018A37
:105200000023808A326800F02FF9014601A809F0D6
:10521000B1FB6846028A818A01A807F0FDFD0020E3
:105220000346009001AA2146284602F04FFF0AB02B
:1052300070BD00003C56010003800000F0B504463C
:1052400025680888AD8B0026F64387B0A84210D1A8
:10525000257DA80705D50879002802D00846163014
:1052600000E0481D08A9097C07788906890EB94223
:1052700002D0304607B0F0BD0A49ED070968ED0FCE
:10528000491B65892489059104920F99039501931F
:10529000009102940021401C0E9B0D9A00F0B3FE79
:1052A000E8E70000982F002070B506468AB01F4836
:1052B0001346006B029006A80D460190039004AAC5
:1052C00005A9184607F0B7FD6846808A04F00EFB72
:1052D00000280CD06846008A00F02AFF002808D079
:1052E0006A460188928A91421CD0112402E004246B
:1052F00000E000240E4901A802F0B7FD214601A8F4
:1053000009F038FB6846028A818A01A807F084FD0B
:1053100000200346009001AA2946304602F0D6FE3E
:105320000AB070BD012100F0E9FEE2E73C56010041
:1053300003800000F7B529498AB0C96B029104A91E
:1053400001911046039109F044FB25490646884225
:1053500042D8244901A802F088FD304604F0C6FA7C
:1053600000280BD00024214601A809F003FB314698
:1053700001A809F0E7FA002C26D101E00424F2E7A5
:10538000194C1A4800252746009013E00098416AFE
:105390002820684308180188B14209D1BC4201D1D4
:1053A000448805E04288214601A807F035FD3C46C7
:1053B0006D1CADB200F09EF9A842E7D8BC4203D004
:1053C000214601A809F0BEFA00200346009001AA78
:1053D0000B990A9802F07AFE0DB0F0BD3C56010020
:1053E000FF0F000002800000FFFF000018300020C7
:1053F000F8B5064600240B4D0B4F0CE02820696AD7
:10540000604308180188B94204D04088B04201D1F5
:105410000120F8BD641C00F06DF9A042EEDC002014
:10542000F8BD000018300020FFFF000030B50C4828
:105430000C49406885B0C068144688420ED11046B9
:1054400009F0DCFA0546204609F0C3FA69460881EE
:10545000002003902946684604F0A2FC05B030BD48
:10546000E403002002800000FFB581B0064604F08E
:105470003DFA070035D0029800F05AFE0446049821
:1054800000281DD0002C05D02088B04204D0112067
:1054900005B0F0BD0320FBE72546F87F163501284F
:1054A00009D12079002808D01022681C0399FBF745
:1054B0006EFC0028ECD00B20EAE70120207118E0F8
:1054C000002C10D02088B04206D11022A01D0399D4
:1054D000FBF75DFC0028DBD02088B04201D106201C
:1054E000D6E70420D4E7029800F0F0FD04000DD0C8
:1054F000651D2946039802F095FA002808D0049803
:10550000002801D0002020710920C1E70520BFE755
:105510002680029860801022681C0399FBF7FCFB30
:10552000204604F0B1F80020B2E7F0B589B01E467D
:1055300017460C46002814D0102200210EF054F912
:1055400085B2002C11D023236A463146384608F034
:10555000C9F8002807D1284600F0EAFD04000ED063
:1055600012E00720C04309B0F0BD284600F0E0FD7E
:10557000002802D0002100F0C1FD0020F3E72846FA
:1055800000F0A4FD04001ED06846008820806580DD
:1055900068468078207100A91022A01D0331FBF716
:1055A000BBFB2046173004A9102205460331FBF748
:1055B000B3FBA01D611D02F035FA214628461631C5
:1055C00002F030FAD9E70820C043CCE730B50B48E9
:1055D0000B49406887B0C068144688420CD1104619
:1055E00009F00CFA054606AA05A9204607F023FC97
:1055F0002946684604F0D4FB07B030BDE403002020
:105600000380000070B505468AB016481646406A09
:10561000029006A80C460190039004AA05A9304602
:1056200007F009FC104901A802F01FFC6846018A36
:105630000123808A3268FFF717FF014601A809F0AD
:1056400099F96846028A818A01A807F0E5FB0020E3
:105650000346009001AA2146284602F037FD0AB011
:1056600070BD00003C5601000380000010B50549E4
:1056700005A0FEF713FF08A0FEF710FF0BA0FEF732
:105680000DFF10BDA55301004150505F444247201B
:1056900025733E20000000006170705F70726F76AD
:1056A0005F6174746E5F6F66660000000A00000040
:1056B00010B5054905A0FEF7F1FE08A0FEF7EEFEC5
:1056C0000BA0FEF7EBFE10BD945301004150505F5C
:1056D0004442472025733E20000000006170705F47
:1056E00070726F765F6174746E5F6F6E00000000A1
:1056F0000A00000001480068007A7047100200208C
:10570000FFB583B00C9C1646002C01D0002708E0A2
:1057100001270398FBF78EFC0421FCF7CFFB040064
:1057200014D0267004980125002805D0049A601C26
:1057300006999047401C85B2300614D51021039875
:1057400007F020FD002804D0192616E0132007B02A
:10575000F0BD621929462046FEF7FBFB0C350646D4
:10576000ADB2002809D104206946088001944D801B
:105770000398FCF765FB0600E9D0002F02D0204615
:105780000EF0F6FC3046E2E710B50CF08DFB10BDD4
:10579000083807D04168002904D04969002901D0A0
:1057A00000680847704770B50C46054600F005F8DC
:1057B000214628460CF078FB70BD10B50446104613
:1057C00009F01CF90146204600F0E8FD10BDF0B5D7
:1057D0001F460B46014685B0154604462131082276
:1057E0000A9E18460391FBF7D2FA00280FD101A8B0
:1057F000009020463B4629464930039A00F0FEFDC2
:10580000082201A93046FBF7C2FA002802D0002086
:1058100005B0F0BD0120FBE7FFB51F4685B0484B42
:105820000E9D0F9C9868002A0BD0027D002A08D09C
:105830000269002A05D00120607020700020E0700D
:105840007AE0427DAA4200D21546C08AC20606D539
:105850000A0704D5032024260390042018E000073B
:1058600013D0480711D048070A26400F06F0BAF9AE
:10587000401EC0B2039032488068807D0007000F50
:1058800006F0B0F9401EC0B202E000263046039692
:105890002B4901908868027EBA4200D21746408B9D
:1058A000020708D5059AD20605D5242000900420C9
:1058B000029003201BE0400716D00598000713D084
:1058C0000A20009005980007000F06F08BF9401E93
:1058D000C0B202901A488068807E4007400F06F0F0
:1058E00081F9401EC0B202E00020009002900099B1
:1058F0003A464A432B46734303219A4209D902226E
:10590000627021700299E170A0706771277109B00F
:10591000F0BD002E0BD0002D09D061700220207048
:105920000398E0700198A07065712571EFE7002081
:1059300060702070E070A07060712071E7E7000077
:10594000AC02002010B50C4607F0E5F9206010BD50
:1059500030B505460D4887B0806C029004A80C460F
:10596000019003900A4901A802F07FFA00F0C2FDFD
:10597000014601A808F0FEFF00200346009001AA9E
:105980002146284602F0A2FB07B030BD3C5601007C
:105990000B800000F8B504F0B5F9002801D06421AF
:1059A00030E001F09BFF002830D01A490878002829
:1059B00004D000200870002816D101E00120F9E78A
:1059C0000024154D154E27460AE0E420A96A6043DD
:1059D0000818818BB14202D0417901714771641C72
:1059E0000EF02EF8A042F0DC0BF030FF00F082FD4C
:1059F000012806D008480321783800F090FC0028E0
:105A000003D00749074807F04FF9F8BD0EF0EAFE4A
:105A1000F8BD00001C02002018300020FFFF00002D
:105A200010270000342F002070B50546194886B0B5
:105A3000406D029004A801900390AC6A0E46002CC1
:105A400013D010680078002801D001281FD1E17917
:105A500088420AD0E07103F03FFEE079002802D0CE
:105A600000F024FD01E000F011FD0B4901A802F057
:105A7000FCF900F03FFD014601A808F07BFF002083
:105A80000346009001AA3146284602F01FFB06B0EB
:105A900070BD00003C5601000B80000000B50849B5
:105AA000084B496885B0C9681046994205D108F08D
:105AB000A5FF0146684604F073F905B000BD00007B
:105AC000E40300200B800000F7B506460AF0A6FAB2
:105AD000FFF73AFA04001AD00E4D20460C30074664
