:020000040000FA
:1000000000800020A1160000A9160000AB16000019
:1000100000000000000000000000000000000000E0
:10002000000000000000000000000000AB1600000F
:100030000000000000000000AD160000AF16000038
:10004000B1160000B1160000B1160000B116000094
:10005000B1160000E3220000B1160000B116000046
:10006000B1160000B1160000B1160000B116000074
:100070002D240000B1160000B1160000B1160000DA
:10008000B1160000B1160000B1160000B116000054
:100090000348854602F0CEFA00480047A50000005C
:1000A000008000201048806A0121490208430E495F
:1000B000886203210120400201F02EFE02F01AF8AE
:1000C0000A490BA00BF040F802F064F802F0FFF8C8
:1000D00004F000FC04F04CFA00F0ADFD00F0D2F9A1
:1000E00001E00AF091FFFCE7801000407876010003
:1000F00025730A0008B5FEA0006800900020FD49A5
:100100000880FD490880FD4908800120FC490870ED
:10011000FC48037802226946FB48008805F034FE5B
:1001200008BD10B586B00446F5480078012842D1D4
:100130002079072819D12089002816DDE068007889
:10014000E168497809020843EC490880E068807852
:10015000E168C97809020843E7490880084602882F
:10016000E6480188E9A00AF0EFFF2079072802D1CC
:1001700060781A2802D02079012840D1DF48008811
:1001800000283CD00220DE490870DC48018868461F
:100190000180D94801886846418002210171E1212E
:1001A0004171FF218171D74802786946D64800889D
:1001B00005F0F6FF23E0D248007802281FD120790D
:1001C000092819D12089002816DDE0680078E16847
:1001D000497809020843C74908800020D6490870B9
:1001E000192292012021C748007817F0E1F8C14890
:1001F0000188D2A00AF0A8FF0020C149087006B00B
:1002000010BD70B50446D7480078022800D070BDF4
:100210002079032805D0207901280ED1207A0228E0
:100220000BD12079012805D1257B2946CEA00AF0E3
:100230008BFF00BF0020C049087020797F2803D1C0
:100240002189CFA00AF080FF20790B2805D02079E2
:10025000012814D1207A0A2811D12079012805D14A
:10026000257B2946C9A00AF06FFF04E0E068017809
:10027000CAA00AF069FF0020AF49087025E0207984
:10028000132805D02079012818D1207A122815D1F9
:100290002079012800D100E00020012805D1257B2C
:1002A0002946C2A00AF050FF04E0C5480178C5A065
:1002B0000AF04AFF0020A049087006E09048007844
:1002C000002802D02046FFF72CFF21792046083075
:1002D00006F01EF900BF9AE710B504462078B02852
:1002E00003D12046FFF78DFF00BF00BF10BD7FB5D3
:1002F00006460C460120C0032040002811D081484A
:10030000007816F0DFFD051E05D02846FFF7E4FF54
:10031000284616F0AFFD20460121C903484004B02D
:1003200070BDE007C00F002809D0AA4AAA49754845
:10033000007804F07DF9204601214840EFE7802055
:100340002040002806D0A54804F0B2FC20468021B9
:100350004840E4E708202040002805D0FFF7CAFE07
:10036000204608214840DAE71020204000280DD020
:100370004B20C000002364221421009062480088B2
:1003800004F0A4FC204610214840C8E7202020406B
:10039000002862D06848007800285AD19048007838
:1003A00000283DD0002168464173017351480188FF
:1003B000684681800121C180002000906846C28883
:1003C000002312215048008806F05CF80290029841
:1003D000002824D07A4800780299087049480278A9
:1003E00001A94948008806F045F8002813D10120EA
:1003F000514908707A480078002801D1012000E0B6
:100400000020774908701922920120213D48007888
:1004100016F0CEFF03E0122101A806F079F818E0EB
:100420003448008803903748027803A9364800888A
:1004300005F0B2FE00280BD101203F490870684842
:100440000078002801D1012000E0002064490870F4
:1004500000BF20462021484061E74020204000287E
:100460000ED02948008804F04DFB4B225201402158
:100470002448007816F09CFF2046402148404EE773
:1004800000204CE700B585B056480AF09FFD1D4995
:1004900008704B214901022005F0B6F8142107200D
:1004A00005F0B2F86421082005F0AEF864210D20B3
:1004B00005F0AAF84C4A1521002006F0DBF80020D0
:1004C00004900121039102910321019101210091E6
:1004D00004AA0421454803F035FE03AA0121812026
:1004E000C00003F02FFE02AA01214048801F7FE0D8
:1004F000E0FF000012000020100000200E0000208D
:100500000D000020000000200A000020466F756EDC
:10051000642050726F66696C6520536572766963FA
:10052000652068616E646C65203A202578207E2005
:100530002578200A0000000016000020466F756E26
:10054000642043686172616374657269737469637E
:1005500020312068616E646C65203A202578200A7D
:10056000000000000C00002045786368616E67653C
:10057000204D5455204572726F723A2025780A003A
:100580004D54553A2025780A0000000052656164F8
:10059000204572726F723A2025780A0052656164B4
:1005A000207273703A2025780A000000577269742F
:1005B00065204572726F723A2025780A00000000AB
:1005C0001400002057726974652073656E743A20B8
:1005D00025780A001800002024000020FFFF0000FA
:1005E00015000020EF020000BC7501000F040000A0
:1005F00003F0A8FD01AA0121D64803F0A3FD6A4635
:100600000121D448C01C03F09DFD05F0FBFCD2483D
:10061000007805F0D1FD0020C04305F081FF0020E7
:10062000C04305F0C5F80121CB48007816F03EFD27
:1006300005B000BD70B505460C466142C7A00AF082
:1006400083FD70BDF8B505460E4614460094C248B9
:1006500002786946284605F0C9FB2146C3A00AF086
:1006600073FD0120C6490870F8BDF0B585B0054698
:100670000E46C44800780A285ADA00240DE0E0004B
:10068000C14A8018811C0622284616F0F7FA002875
:1006900001D005B0F0BD601CC4B2BA4800788442F5
:1006A000EDDBB8490978C900B74A8918881C0622C9
:1006B000294616F0F1FAB3480078C000B249401854
:1006C0004670B0480078401CAE4908700846007873
:1006D000401EC000AC494018C079AA490978491E9B
:1006E000C900A94A89188979A64A1278521ED200EF
:1006F000A54BD2185279A34B1B785B1EDB00A24F8F
:10070000DB191B7900930192029103909D480078B8
:10071000401EC00039464018C3789A480078401EF1
:10072000C000401882789748017898A00AF00CFD24
:1007300000BFAEE770B50446A07806287ED006DC80
:10074000002809D0012815D0052878D152E00728C3
:1007500076D00D28F9D108E096A00AF0F5FC002229
:100760000121032003F090FFAEE02179601DFFF727
:100770007CFFA9E000250CE0E800834A8018811C7A
:100780000622904816F07AFA002800D005E0681C8E
:10079000C5B27C4800788542EEDB00BF794800781E
:1007A00085420ED188A00AF0CFFC00207549087060
:1007B00000220121032003F067FF7EA00AF0C4FCA1
:1007C00017E087A00AF0C0FCE8006F494018831CBE
:1007D000E800401842780021084603F0B5FE1922CF
:1007E000D20180215C48007816F0E2FD81A00AF079
:1007F000ABFC69E080215848007816F03BFE607839
:1008000000282DD102207F49087060897E49088028
:1008100001205B4908701922920108214E48007896
:1008200016F0C6FD79480078002806D01922D201BA
:1008300010214948007816F0BBFD02E01EE042E0BE
:100840003DE073480078002806D04B225201402139
:100850004148007816F0ACFD6EA00AF075FC0CE083
:10086000002068490870801E6749088000206D4993
:10087000087061786CA00AF067FC25E000206149EF
:100880000870801E604908800020664908706E4923
:1008900008803C4908703A49087040212E48007889
:1008A00016F0E8FDA17969A00AF04EFC41A00AF01B
:1008B0004BFC00220121032003F0E6FE04E06AA0C5
:1008C0000AF042FC00E000BF00BF70BD70B50646F4
:1008D0000C461546002C04D1294668A00AF034FCC9
:1008E0001FE0012C09D1002D03D169A00AF02CFCD6
:1008F00017E06CA00AF028FC13E0022C05D1002DB3
:100900000FD16CA00AF020FC0BE0032C09D1002DC4
:1009100003D16DA00AF018FC03E029466FA00AF08D
:1009200013FC70BDF8B507460D461E4616F098FB41
:1009300004467049204601F0C3FD0C46002E03D04A
:1009400021466DA00AF000FC22460021284603F053
:10095000F9F9F8BD0A040000000000205253534981
:10096000203A202D2564206442200A0065786368BF
:10097000616E6765206D74753A25640A0000000099
:100980001600002001000020302600204465766912
:100990006365202564202D20416464722025782021
:1009A0002578202578202578202578202578200A8C
:1009B00000000000446973636F766572696E672E8C
:1009C0002E2E0A0002000020446576696365206EC1
:1009D0006F7420666F756E642E2E2E0A0000000064
:1009E00044657669636520666F756E642E2E2E0AE7
:1009F00000000000436F6E6E656374696E672E2E93
:100A00002E0A00000C0000200A000020090000202F
:100A100008000020436F6E6E65637465642E2E2E91
:100A20000A0000000D000020436F6E6E65637420A5
:100A30004661696C65642E2E2E526561736F6E3A45
:100A4000252D38580A000000120000204469736305
:100A50006F6E6E65637465642E2E2E526561736FC2
:100A60006E3A2538780A0000506172616D20557029
:100A7000646174652E2E2E0A0000000050616972B8
:100A8000696E6720737461727465643A25640A0044
:100A900050616972696E6720737563636573730A69
:100AA0000000000050616972696E67206661696CC0
:100AB0000A000000426F6E64696E6720737563639D
:100AC0006573730A00000000426F6E6420736176E4
:100AD0006520737563636573730A0000426F6E640B
:100AE0002073617665206661696C65643A202564CF
:100AF0000A00000040420F0050617373636F646529
:100B00003A25640A000000000121C9430180002148
:100B100041808180C18070473EB504460D466946DC
:100B2000CD8000200090CA88F849088800231B2146
:100B300005F0A8FC02906946CA882146029816F082
:100B4000ABF8F249088801A900F0B7FC002803D0EF
:100B50001B2101A805F0DCFC3EBD08B5ECA0006837
:100B6000009001216846FFF7D7FF08BD00BF00BF16
:100B700000BF70477CB506460C460120C0032040EC
:100B8000002810D0E348007816F09CF9051E05D027
:100B90002846FFF7EBFF284616F06CF920460121A6
:100BA000C90348407CBDE007C00F002809D0DA4ADD
:100BB000DA49D848007803F071FF20460121484007
:100BC000F0E70220204000280CD0192292010221D7
:100BD000D048007816F0ECFBFFF7BFFF204602215B
:100BE0004840DFE70820204000280FD0C94800789F
:100BF000642100910190C5490888002364221421D2
:100C000003F0D8FD204608214840CBE704202040CF
:100C100000280ED0BD49088803F074FF1922D201C4
:100C20000421BC48007816F0C3FB2046042148404C
:100C3000B8E70020B6E710B586B0B9480AF0C6F9A3
:100C4000B449087001210591142104916421039194
:100C500005AA0121B34803F065FFB34A1C21B1483E
:100C6000801C03F05FFFB14A0721AE48401C03F02F
:100C700059FF04AA0221AB480C3003F053FF03AA2A
:100C80000221A8480D3003F04DFFA94A152100208C
:100C900005F0F0FC50242146032004F0B5FC214669
:100CA000042004F0B1FC002005900121049103917F
:100CB00002910021019105AA04219E4803F042FA05
:100CC00004AA0121880203F03DFA03AA01219948F0
:100CD000801F03F037FA01AA01219648401F03F054
:100CE00031FA02AA01219348801E03F02BFA00205A
:100CF000C04305F015FC0020C04304F059FD00F08E
:100D0000C5F90020C04300F046FB8BA000680590A9
:100D10008AA0006804908AA00068039089A00068F7
:100D2000029089A103C90191009005AA0121002028
:100D300000F052FB04AA0121084600F04DFB03AA73
:100D40000121022000F048FB02AA0121032000F04B
:100D500043FB6A460521042000F03EFB6B48FFF789
:100D6000D3FE7B4800F02FFB01216A48007816F083
:100D70009DF906B010BD70B505462C466348008845
:100D80007449884206D0688903F092FF72A00AF085
:100D9000DBF922E060895D490880E0894880208A8B
:100DA0008880608AC88019229201022159480078FF
:100DB00016F0FEFA1922120208215648007816F0A1
:100DC000F7FA1922D20104215248007816F0F0FAFD
:100DD000E289618965A00AF0B7F970BD38B50446AB
:100DE0002546A88849490988884219D10120C0436D
:100DF00046490880002048808880C88002214548F4
:100E0000007816F037FB04214248007816F032FBD8
:100E1000012000906A460121424803F083FE02E06F
:100E200057A00AF091F938BD70B504460D46224628
:100E3000694255A00AF088F970BDF8B504460D4620
:100E400016461F4631480088A04209D12F484580E8
:100E50008680C7802A46214651A00AF075F902E033
:100E600047A00AF071F9F8BD70B505460C462B0095
:100E70000AF092F9073905092416203539004EA0E9
:100E80000AF062F930E0A078062805D12046FFF785
:100E9000A5FF4DA00AF058F94FA00AF055F923E03C
:100EA000A078052802D12046FFF765FF4EA00AF082
:100EB0004BF919E050A00AF047F915E0A078042892
:100EC00003D154A00AF040F908E0A078062805D123
:100ED0002046FFF783FF3CA00AF036F904E054A057
:100EE0000AF032F900E000BF00BF70BD38B504461B
:100EF000002C02D0022C08D1AEE06946002000F0A0
:100F0000AEFA4EA00AF020F9AFE0ADE06600002096
:100F1000880000002C000020700000207C000020D1
:100F2000750B0000050300002D0000204900002083
:100F30005000002007040000010000000200000033
:100F4000030000000400000001020304050000008B
:100F500084000020FEFF0000436F6E6E65637469BD
:100F60006F6E206D61782E2E2E0A0000436F6E6E1C
:100F7000202578202D20496E74202578200A000035
:100F80004552522E2E0A000052535349202D2564FB
:100F900020644220436F6E6E20202578200A0000D6
:100FA000557064617465202578202D20496E742069
:100FB0002578200A00000000496E697469616C6937
:100FC0007A65642E2E0A0000446973636F6E6E6545
:100FD000637465642E2E0A004164766572746973C9
:100FE000696E672E2E0A0000436F6E6E656374652E
:100FF000642E2E0A00000000436F6E6E65637465F8
:1010000064204164766572746973696E672E2E0A76
:101010000000000057616974696E6720666F722076
:101020006164766572746973696E672E2E0A0000BA
:101030004572726F722E2E0A0000000070726F6689
:10104000696C65204368616E67654342204348418F
:1010500052312E2E200A00006946022000F0FFF9CE
:1010600003A00AF071F800E000BF00BF38BD000027
:1010700070726F66696C65204368616E6765434294
:101080002043484152332E2E0A00000010B5AA4BCF
:1010900010221321A94804F0A5FD10BDF8B504469F
:1010A0000D4616460027002C05D12A463146A44895
:1010B00015F0F2FD01E0022700BF00BF3846F8BD81
:1010C00070B504460D46002623000AF065F80906AF
:1010D0000C12181E242A30363C0008229849284653
:1010E00015F0DAFD31E00D229649284615F0D4FDC1
:1010F0002BE00E229449284615F0CEFD25E0122261
:101100009249284615F0C8FD1FE012229049284652
:1011100015F0C2FD19E012228E49284615F0BCFDDB
:1011200013E012228C49284615F0B6FD0DE00E2280
:101130008A49284615F0B0FD07E00722884928466D
:1011400015F0AAFD01E0022600BF00BF304670BDC9
:10115000FFB583B00F461D460D9E0C9C00200290EB
:1011600078680078796849780902084301907D4AD7
:101170000198811A904268D00ADC7B494018002807
:101180000FD0012822D0022835D0032872D147E0A1
:10119000012973D002296FD003296ED02929F5D1F6
:1011A000ABE0082C02D3072002900EE00820001BC1
:1011B000B04201D9304601E00820001B28802A886F
:1011C0005F480119059815F067FDB0E00C2C02D3BB
:1011D000072002900EE00C20001BB04201D93046DF
:1011E00001E00C20001B28802A8856480119059828
:1011F00015F052FD9BE00D2C02D3072002900EE06B
:101200000D20001BB04201D9304601E00D20001B2B
:1012100028802A884C480119059815F03DFD86E084
:10122000112C02D3072002900EE01120001BB042C7
:1012300001D9304601E01120001B28802A8843484C
:101240000119059815F028FD71E0112C02D3072033
:1012500002900EE01120001BB04201D9304601E09F
:101260001120001B28802A8839480119059815F09B
:1012700013FD5CE056E001E015E029E0112C02D3FB
:10128000072002900EE01120001BB04201D9304629
:1012900001E01120001B28802A882E48011905989A
:1012A00015F0FAFC43E0112C02D3072002900EE067
:1012B0001120001BB04201D9304601E01120001B73
:1012C00028802A8824480119059815F0E5FC2EE0AD
:1012D0000E2C02D3072002900EE00E20001BB0421D
:1012E00001D9304601E00E20001B28802A881B48C7
:1012F0000119059815F0D0FC19E0072C02D307203E
:1013000002900EE00720001BB04201D9304601E0F8
:101310000720001B28802A8811480119059815F01C
:10132000BBFC04E0002028800A20029000BF00BF20
:10133000029807B0F0BD0000D0010020A0000020FE
:1013400089000020F0750100FD7501000B76010099
:101350001D7601002F7601004176010053760100D1
:1013600099000020272A0000DDD5FFFF70B5054653
:101370000C46BD4885420DD0012C07D0022C09D166
:10138000012128460FF0CEFE002803D1B749284698
:1013900004F056FA70BD70B504460025B349B24852
:1013A000401C04F04DFAB2480FF088FEE007C00F71
:1013B000002806D0AF4B10221121AF4804F012FCD8
:1013C0000546284670BD0146002903D0AB480160A0
:1013D000002070471120FCE7F8B505460C4616467C
:1013E00000272B0009F0D8FE05040E18222C360029
:1013F000012C05D101223146A14815F04DFC00E039
:10140000182729E0012C05D1012231469D4815F00D
:1014100043FC00E018271FE0012C05D101223146D2
:10142000994815F039FC00E0182715E0012C05D18A
:1014300001223146954815F02FFC00E018270BE0FB
:10144000052C05D105223146914815F025FC00E018
:10145000182701E0022700BF00BF3846F8BD70B56D
:1014600004460D460026230009F096FE05040A10E6
:10147000161C220001228249284615F00DFC19E0B5
:1014800001228049284615F007FC13E001227E491D
:10149000284615F001FC0DE001227C49284615F094
:1014A000FBFB07E005227A49284615F0F5FB01E031
:1014B000022600BF00BF304670BD70B505460C4621
:1014C0006A49284604F080FB0646F007C00F002852
:1014D00009D06948B0304089208000222146284642
:1014E00004F0F6FD70BD1220FCE7F8B50C46164678
:1014F0001D4600200090207A10210840002801D0CD
:101500000820F8BD0698002801DD0B20F9E72078B7
:10151000022838D160680078616849780902084378
:1015200007465C483818002806D001280CD003284C
:1015300012D0042820D117E0012028800122304653
:10154000E16815F0A9FB1CE001202880012230464B
:10155000E16815F0A1FB14E001202880012230464B
:10156000E16815F099FB0CE0052028800522304643
:10157000E16815F091FB04E0002028800A2000902B
:1015800000BF00BF03E000202880012000900098E9
:10159000B7E7FFB585B00C461D460E9E0027FF201D
:1015A0000490207A20210840002802D0082009B0A9
:1015B000F0BD2078022843D16068007861684978DE
:1015C000090208430390344903984018002828D0A2
:1015D00032494018002802D002282DD110E0002EF8
:1015E00003D1012D02DD0D2700E00B27002F06D1CE
:1015F0000122E068079915F04FFB002004901DE0E0
:10160000002E03D1012D02DD0D2700E00B27002F56
:1016100006D10122E068079915F03EFB02200490F4
:101620000CE001202B46009601902146079A059870
:1016300004F06CF9074601E00A2700BF00BF00E094
:1016400001270498FF280DD00C480068002809D015
:101650000A4800680068002804D00848006801684B
:10166000049888473846A2E7FEFF00008026002045
:101670006D1300005803002048020020DC01002008
:10168000E1010020F5010020090200201D020020D8
:10169000310200201F00FFFFFED6FFFF2129FFFFC0
:1016A0000448804704480047FEE7FEE7FEE7FEE700
:1016B000FEE70000BD160000910000005720F84929
:1016C0000870A82008708820F5494039088100205A
:1016D000F3490870704700B5030009F05DFD0D087F
:1016E0001A2C37414C56606A75808B96A1005721A1
:1016F000EB4A1170A8211170E9492039C97B0422F5
:101700009143E74A203AD173C821E54A403A118112
:1017100087E05721E24A1170A8211170E049203971
:10172000C97B04221143DE4A203AD173C821DC4A26
:10173000403A118175E05721D94A1170A8211170E2
:101740005121C900D64A403A11816AE05721D44A52
:101750001170A8211170D349D14A403A118160E03B
:101760005721CF4A1170A821117081218900CC4ADC
:10177000403A118155E05721C94A1170A8211170D2
:101780008821C74A403A11814BE05721C44A117061
:10179000A82111700221C24A403A118141E057212B
:1017A000BF4A1170A82111700421BD4A403A11812D
:1017B00037E05721BA4A1170A8211170932189008E
:1017C000B74A403A11812CE05721B54A1170A8213F
:1017D0001170B4494D31B24A403A118121E057218C
:1017E000AF4A1170A821117095218900AC4A403A86
:1017F000118116E05721AA4A1170A82111704B21BE
:10180000C900A74A403A11810BE05721A44A117040
:10181000A8211170A3495C31A14A403A118100E02E
:1018200000BF00BF00219E4A117000BD10B59C484A
:1018300040380089C4B2C0202040802801D19A4895
:1018400010BDC0202040402805D1E106C90E9748B0
:1018500000F04CFEF4E7C0202040002805D1E1064E
:10186000C90E914800F042FEEAE77D200002E7E75A
:1018700057218B4A1170A8211170002808D188497E
:101880004039098952159143854A403A118108E04F
:10189000834940390989012252021143804A403A62
:1018A000118100217E4A1170704757217C4A1170C6
:1018B000A8211170002808D179492039C97B042258
:1018C0009143774A203AD17307E075492039C97BA3
:1018D00004221143724A203AD1730021704A1170D8
:1018E000704770B56E4840380089C4B2C0202040AF
:1018F000802801D16E4D1FE0C0202040402809D132
:10190000E106C90E6B4800F0DBFD01218903401898
:10191000C50B11E0C020204000280CD1E106C90E03
:10192000654800F0E3FD012189034618F017400CDB
:101930008019C51300E005252805000D70BDF8B518
:1019400004460D46224629465726554F3E70A82686
:101950003E700126BE74594B4EE000BF504EB67C1F
:1019600002273E40002EF9D04D4E308A00BF4C4E2B
:10197000B67C02273E40002EF9D100BF484EB67C0F
:1019800002273E40002EF9D0454E308A5726444F5C
:101990003E70A8263E7088420ADD414E203EB68940
:1019A000B6183F4F203FBE810093461AB3B209E0FC
:1019B0003B4E203EB689B61A394F203FBE81009378
:1019C0000E1AB3B2009E9E4216DA5726344F3E706E
:1019D000A8263E70884207DD314E203EB689B61AF1
:1019E0002F4F203FBE8106E02D4E203EB689B6180F
:1019F0002B4F203FBE8100E0AFE700BF5726284FA6
:101A00003E70A8263E700026BE743E70F8BDF8B544
:101A1000FFF767FF009000270026002423E0781CD2
:101A200087B2254603200099FFF789FF1C4820381C
:101A30008489A54206DD281B032801DC012007E07C
:101A4000002005E0601B032801DC012000E00020ED
:101A5000002802D0701C86B200E00026032E01DCB4
:101A6000052F00DD00E0DAE700BF002734E0781C36
:101A700087B2254601200099FFF761FF084820380A
:101A80008489A54206DD281B012801DC012018E01D
:101A9000002016E0601B012812DC012011E000008C
:101AA00040100040020200000048E80100389C1C81
:101AB0001313000000180D8F00688909FF0F000044
:101AC0000020002802D0701C86B200E00026022E02
:101AD00001DC052F00DD00E0C9E700BFF8BDF7B568
:101AE00084B00D4614461821049800F0E9FC80B239
:101AF00003901821049800F0E3FCE120C00041436A
:101B00001E2068430818E10F09194910401887B2D0
:101B10000194E007C00F002802D00120C00300E0BC
:101B2000002002903E463104029801430E465720A1
:101B300077490870A82008707549403903984863B0
:101B400073482038407C802108437149203948740B
:101B50006F48403846630846407C402108436C4942
:101B60002039487400206A49087007B0F0BDF0B50C
:101B700085B004460D46164665484038C06B800463
:101B8000800C039062482038408B029060482038D7
:101B9000008B0190029841000122D20301989042EB
:101BA00001DB012000E000200F18E1210901384687
:101BB00000F086FC01461822039850430818206064
:101BC000E1210901384600F07BFC00913C2100989E
:101BD00000F076FC28803C21384600F071FC318012
:101BE00005B0F0BD57214A4A1170A821117048492B
:101BF0004039486346492039497C40221143444AD0
:101C0000203A51740021424A1170704700BF404988
:101C10004039886B896B8142F9D1704757213C4A22
:101C20001170A82111703A492039497C172291433B
:101C3000374A203A51741146497C1022024311431D
:101C4000334A203A51740021314A1170704700B56F
:101C50000346FFF7DBFFC21890B2002802D0012034
:101C6000000412182B48824200D3121A5720284928
:101C70000870A8200870264840384263244820385D
:101C8000407C202108432249203948740020204903
:101C9000087000BD014600200022002A01D0202249
:101CA0001043CA07D20F002A01D010221043572236
:101CB000174B1A70A8221A70154A203A527C824398
:101CC000134B203B5A740022114B1A707047014687
:101CD000002905D10E482038007C80221040704732
:101CE0000B482038007C40221040F8E7002802D042
:101CF00001280AD104E02021054A203A117405E0A8
:101D00001021034A203A117400E000BF00BF704761
:101D1000401000400000C0A800B50B0009F03CFADC
:101D2000050412202E3842009B4A526B82439A4B84
:101D30005A631A46126B82431A631A46126A824326
:101D40001A6230E0944A526B8243934B5A631A46AC
:101D5000126B02431A631A46126A82431A6222E025
:101D60008D4A526B02438C4B5A631A46126B824364
:101D70001A631A46126A82431A6214E0864A526B48
:101D80008243854B5A631A46126A02431A620AE07A
:101D9000814A526B0243804B5A631A46126A0243CD
:101DA0001A6200E000BF00BF00BD00B50B0009F0E3
:101DB000F3F90504142434404C00774A4032526948
:101DC0008243754B40335A611A46126982431A6145
:101DD0001A46126882431A6038E06F4A40325269EC
:101DE00082436D4B40335A611A46126902431A61AD
:101DF0001A46126882431A6028E0674A40325269E4
:101E00000243654B40335A611A46126982431A6194
:101E10001A46126882431A6018E05F4A40325269DB
:101E200082435D4B40335A611A46126802431A607E
:101E30000CE0594A403252690243574B40335A61D1
:101E40001A46126802431A6000E000BF00BF00BDDE
:101E5000002906D001290ED0022916D0032928D145
:101E60001DE04D4A928A82434B4B9A821A46D26AAF
:101E70000243DA621EE0484A928A8243464B9A82C3
:101E80001A46926A02439A6214E0434A928A0243D3
:101E9000414B9A821A46D26A0243DA620AE03E4A0B
:101EA000928A02433C4B9A821A46926A02439A6291
:101EB00000E000BF00BF384B98831A46128A0243E5
:101EC0001A827047002906D0012911D002291CD09E
:101ED000032934D126E0304AD28A82432E4BDA825B
:101EE0002D4A4032D26802432B4B4033DA6027E060
:101EF000294AD28A8243284BDA82274A40329268A2
:101F00000243254B40339A601AE0234AD28A0243A7
:101F1000214BDA82204A4032D26802431E4B4033C2
:101F2000DA600DE01C4AD28A02431B4BDA821A4A5D
:101F3000403292680243184B40339A6000E000BF81
:101F400000BF154BD8831A46528A02435A82704703
:101F5000002807D0104A803A128B0A430E4B803B70
:101F60001A8306E00C4A803A128B8A430A4B803B64
:101F70001A837047002807D0074A803A528B8A4359
:101F8000054B803B5A8306E0034A803A528B0A4352
:101F9000014B803B5A837047801000400146062960
:101FA00004D14648007808221040704743484079E1
:101FB00001228A401040F8E7572040490870A820C5
:101FC000087008468079012108433C498871002047
:101FD000087070473A49096801600021C943384ACE
:101FE0008032116070473649086070473548806913
:101FF00070475721314A1170A8211170002806D16D
:1020000011468979042291432C4A917105E02B49AC
:10201000897904221143294A91710021274A1170BC
:1020200070475721254A1170A8211170002806D148
:102030001146897902229143204A917105E01F4996
:102040008979022211431D4A917100211B4A1170A6
:102050007047572019490870A820087008468079F1
:10206000102108431549887100200870704710B589
:1020700000210AE0022201E000BF00BF1346541E07
:10208000A2B2002BF8D14B1C99B28142F2DB10BDF9
:1020900030B50446002505E07D20C000FFF7E7FFCE
:1020A000681C85B2A542F7DB30BD00BF064AD27A74
:1020B000082AFBD0044B1872704700004010004003
:1020C00000E100E000E000E00034004070B50446AC
:1020D000FFF7ACFB0A214843C6082146304600F012
:1020E000EFF905460A21681D00F0EAF9054628497E
:1020F0008D8170BD10B5E1204002FFF7E7FF87201A
:10210000234988700320C8704020487001208873DC
:1021100010BD1F498978C0229143820111431C4A96
:102120009170704700280BD0194A52780A43184B17
:102130005A701A46127808231A43154B1A7004E095
:10214000134A52788A43124B5A70704780201049C4
:102150004870704710B50A4609E00D4BDB7A082B32
:1021600005D003780A4C2372401C531E9AB2002AF1
:10217000F3D110BD0146002005E0054A127A0A702D
:10218000491C421C90B2024A927A002AF5D170474B
:102190000034004030B58DB0122280A1844814F084
:1021A0006DFD002804D183A008F0CEFF00BFFEE73C
:1021B000572085490870A82008705120C000824926
:1021C00040390881002080490870804D681E411CFC
:1021D000884200D90CE0681E7D4948610321081F30
:1021E00000F0A4F800207A4988610720086100BF48
:1021F000774800690221884375490861342200212B
:10220000684614F01BFE734800900121490368469C
:102210008180714802900121684681731B21C1733E
:102220000A21017401214174152181740D21017766
:102230006A4808900098002805D0684680880121E7
:102240000903884201DA00BFFEE7684601F0D6FACA
:102250000446002C04D062A008F076FF00BFFEE721
:102260000DB030BD70B506460C460120C0032040BD
:1022700000280DD0304614F025FE0546002D02D072
:10228000284614F0F7FD20460121C903484070BDDF
:10229000E007C00F002803D0204601214840F6E7A0
:1022A00001208003204000280FD052A008F04CFFEE
:1022B0007D22D201012189034F48007815F078F87A
:1022C0002046012189034840E1E70020DFE710B5FF
:1022D0004A4808F07BFE4849087000F0B7F862B63B
:1022E00010BD10B501F030FA10BD30B5364CE17EAE
:1022F000227E637EE47E80252C43334DEC760F24D2
:102300002C7621246C762C46A47E01252C432E4D60
:10231000AC7600BF2C4CA47EE407E40F002CF9D16E
:10232000294CA08BE1762276637630BD10B500286B
:1023300019DA334A03071B0F083B9B089B00D2584E
:102340008307DC0EFF23A3409A438B071B0E8407F1
:10235000E40EA3401A432A4B0407240F083CA408A8
:10236000A4001A5118E0274A03231B02D21883083D
:102370009B00D2588307DC0EFF23A3409A438B07B0
:102380001B0E8407E40EA3401A431E4B03242402B1
:102390001B198408A4001A5110BD000043483537AA
:1023A000785F424C455F4C49425F56312E33000006
:1023B00078760100686561642066696C65206572E5
:1023C000726F722E2E2E0A0040100040FFFFFF0099
:1023D00000E000E03006002000E60300ED1F0000F2
:1023E0004C494220696E6974206572726F722E2E9C
:1023F0002E0A00002A20000064030020652200004D
:102400001CED00E000E100E081B2002902D00121D2
:10241000090440185721264A1170A8211170244937
:10242000403948630021234A1160704710B53020BD
:102430001F492039087401201E4908601E480068A1
:10244000002802D01C480068804710BD10B55720F6
:1024500017490870A820087015482038C07B07214C
:10246000084313492039C87300201149087000221D
:1024700011461046FFF733FB012008F015FE0E4908
:10248000086057200A490870A820087008482038BA
:10249000407C202108430649203948740020044923
:1024A00008700C2001218140044A116000BF10BD5A
:1024B00040100040680300206C03002000E100E0B1
:1024C00030B50B46014600202022012409E00D46CC
:1024D000D5409D4205D31D469540491B2546954054
:1024E00040191546521E002DF1DC30BD70B5002498
:1024F0002546002801DA01244042002901DA01259D
:102500004942FFF7DDFFAC4200D04042002C00D032
:10251000494270BDF0B51FB486B000200090019014
:1025200002900698069980B204900798090C02045C
:102530000014114307900027089D099806913E4614
:102540003C4603900398A9B20204000C039004983F
:102550002D0C154348430021224600F018F8C719F6
:10256000714110340E46402CECDB3846029A00F0E4
:102570000EF8009A019B8018009059410298019131
:10258000103002904028CCDB00980BB0F0BD10B5A5
:10259000202A04DB0146203A9140002010BD9140E2
:1025A00020239C1A0346E3401943904010BD034684
:1025B0000B439B0703D009E008C9121F08C0042A77
:1025C000FAD203E00B780370401C491C521EF9D26A
:1025D0007047F0B51FB40646002082B0054640247F
:1025E000019100901BE0019922460F46304600F011
:1025F00033F8049A059B801A994110D31046194666
:102600002246FFF7C4FF361A8F4101972246012068
:102610000021009FFFF7BBFF38184D410090204676
:10262000641E0028DFDC019B00982946324607B073
:10263000F0BD0000064C0125064E05E0E36807CC1E
:102640002B430C3C98471034B442F7D3FDF724FDDC
:10265000707A0100907A010010B5202A04DB084648
:10266000203AD040002110BD0B46D340D04020245A
:10267000A21A91400843194610BD70B58C18057810
:10268000401C6B075B0F01D10378401C2A1106D157
:102690000278401C03E006780E70401C491C5B1E4B
:1026A000F9D12B0705D40023521E0DD40B70491C01
:1026B000FAE70378401CCB1A921C03E01D780D70DA
:1026C000491C5B1C521EF9D5A142D8D3002070BD15
:1026D00070B50D4601461446104601F02BF90E4820
:1026E00030C004F0BDFB002000F088FF012408F09A
:1026F00033FB08F013FB07F0B9F8204600F07EFF2B
:10270000641CE4B20A2CF2D308F026FB08F006FBA6
:102710000A2000F073FF70BD2406002010B5124C93
:102720002068C0051FD50320206000200821401C20
:102730002268C0B20A4322600EE02268920510D4DB
:10274000222807D90948026B002A0AD00121032058
:10275000904706E0401CC0B22268D205EDD50028A3
:10276000E5D10020206010BD80C30040A8260020D5
:10277000F8B514460D460646FFF7D0FF504F3B68AC
:10278000186806218843186071783078090240186B
:10279000B178F278090412068918401898627179A4
:1027A000307909024018B179F279090412068918C2
:1027B0004018D862717A307A09024018B17AF27AF8
:1027C00009041206891840181863717B307B0902CE
:1027D0004018B17BF27B090412068918401858632F
:1027E0006978287809024018A978EA78090412065D
:1027F0008918401898616979287909024018A979DF
:10280000EA790904120689184018D861697A287A89
:1028100009024018A97AEA7A0904120689184018B0
:102820001862697B287B09024018A97BEA7B0904AE
:102830001206891840185862586802218843586067
:102840005A68012002435A601A6802431A605868A5
:102850008007FCD5586888435860986920703868AC
:102860008069000A607038688069000CA070386860
:102870008069000EE0703868C1692171C169090A78
:102880006171C169090CA171C169090EE171016A27
:102890002172016A090A6172016A090CA172016A56
:1028A000090EE172416A2173416A090A6173416A42
:1028B000090CA173406A000EE0730020F8BD00000F
:1028C0009805002070B50C460546FFF727FF1C4809
:1028D0000268106820218843E907890E08431060C8
:1028E0008034A06C1061E06C5061A0699061E06977
:1028F000D061206A1062606A5062A06A9062E06AE9
:10290000D062206B1063606B5063A06B9060E06BD3
:10291000D060D068E16B88420AD11069A16C88420E
:1029200008D00848026B002A02D0022103209047F9
:10293000012070BD1068402108431060002070BD68
:1029400098050020A826002070B50C460546FFF724
:10295000E5FE1C480268106820218843E907890EBB
:10296000084310608034206C1061606C5061A06975
:102970009061E069D061206A1062606A5062A06A6A
:102980009062E06AD062206B1063606B5063A06B52
:102990009060E06BD060D068E16B88420AD110692A
:1029A000216C884208D00848026B002A02D003211B
:1029B00008469047012070BD106840210843106010
:1029C000002070BD98050020A826002010B505F055
:1029D00075F9024903F09DFE002010BD06040000B9
:1029E00010B50FF075FC10BD08B5002808D00029FF
:1029F00006D0002A04D01088002801D0002008BD8D
:102A00001220694608706A460121034803F07DFEE2
:102A10006946087808BD0000350C000008B504F0D0
:102A200083FC694608706A460121034803F06DFE85
:102A30006946087808BD00001120000008B504F0C0
:102A4000B1FD694608706A460121034803F05DFE46
:102A50006946087808BD000010200000FEB508AFE8
:102A600070CF6F4670C704F0C3FD0446024903F0FF
:102A700050FE2046FEBD00001320000008B505F002
:102A80000DF9694608706A460121024803F03DFECF
:102A9000002008BD0E200000FFB589B016A871C83F
:102AA00094468E460796159F129A139904AE31C626
:102AB000149800920191029003976246714609981A
:102AC00005F04EF80446034903F023FE20460DB0FE
:102AD000F0BD00000D20000038B5044605F050FBA5
:102AE000694608704C70200A88706A4603210248C3
:102AF00003F00BFE002038BD1B20000038B5044653
:102B000005F052FB694608704C70200A88706A46CE
:102B10000321024803F0F9FD002038BD1A2000000F
:102B20000EB500A8013005F054FF694608706A46EA
:102B30000921024803F0E9FD00200EBD1820000025
:102B400008B500A8013005F09DFA694608706A468C
:102B50000421034803F0D9FD6946087808BD000048
:102B60000220000038B5044605F09AFF6946087057
:102B70004C70200A88706A460321024803F0C5FDA4
:102B8000002038BD212000007FB5044608A861C898
:102B9000009002960195204605F09AFF6946087359
:102BA0004C73200A887303AA0321034803F0ADFD88
:102BB000002004B070BD00002020000008B506F021
:102BC000F9FA694608706A460121034803F09DFD41
:102BD0006946087808BD00000820000008B506F026
:102BE00063FA694608706A460121034803F08DFDC7
:102BF0006946087808BD00000A200000F0B585B0DD
:102C00000AACF0CC03976F4670C706F0F3FA69463A
:102C1000087404AA0121034803F077FD6946087C83
:102C200005B0F0BD0620000008B506F039FB694686
:102C300008706A460121034803F067FD6946087879
:102C400008BD00000520000008B506F067FB6946D6
:102C500008706A460121034803F057FD6946087869
:102C600008BD00000C2000001CB5049C009406F078
:102C700099FB6946087101AA0121034803F045FD4B
:102C8000694608791CBD00000B20000008B506F05D
:102C9000ADFB694608706A460121034803F035FD23
:102CA0006946087808BD00000920000010B506F04C
:102CB00004FC024903F02DFD002010BD1920000086
:102CC00070B50D4604F0E4FE040006D0294604F079
:102CD000AFFD40342072002070BD122070BD000096
:102CE0001CB500A8013005F083FE694608706A46ED
:102CF0000721034803F009FD694608781CBD000060
:102D00000910000038B500A90446033105F080FE23
:102D1000694608704C70200A88706A46042103488E
:102D200003F0F3FC6946087838BD00000514000084
:102D300010B5D2B206F03AF910BD0A7802708A785E
:102D400042704A88120A82700979C1700420704763
:102D50000A7802700988090A4170022070470A78CF
:102D600002700988090A41700220704709780170D1
:102D7000012070470A7802700A88120A42708A7825
:102D800082704A88120AC2704A7902718A79427145
:102D90000889801D80B2704708888004000C704745
:102DA0000A7802700A88120A42708A78827049880A
:102DB000090AC170042070478A7802708878012857
:102DC000088804D012214843401C80B2704780001C
:102DD000FAE70A7802700A88120A42704888801C52
:102DE00080B270470A7802700A88120A42708A78A4
:102DF00082704A88120AC2708888001D80B27047AB
:102E00000A7802700A88120A42708A7882704A88A8
:102E1000120AC2708888001D80B270470A7802705A
:102E20000A88120A42708A7882704988090AC17039
:102E300004207047088870478A780270088849889B
:102E40004843401C80B2704710B50C4609780170A9
:102E50002188090A4170A17881706188090AC170CE
:102E60002279611D001D13F017FF2079001D10BD90
:102E70008A780270088849884843401C80B27047AD
:102E8000088870470A7802700988090A4170022090
:102E90007047088870470A7802700A88120A4270E0
:102EA0004888801C80B270477FB5154604460229C9
:102EB00001D0102903D1022B04D0102B02D0002006
:102EC00004B070BD994202D10A46294607E0102994
:102ED000694607D000F00EF810226946284613F024
:102EE000CDFEEDE7104600F005F8102269462046B9
:102EF000F5E7000070B50C4605000CD0002C0AD098
:102F000010220649204613F0C7FE287820736878FF
:102F10006073012070BD002070BD000020770100AB
:102F200008B500220B4600920122024908F0CEFBB0
:102F300008BD00003B2D000038B5054608880C464A
:102F400017280DD304F01CF82188884208D30020EC
:102F50000090234602220349284608F073FB38BD3F
:102F6000022038BD512D000008B50A88172A07D362
:102F700000220B4600920322024908F0A7FB08BD7D
:102F8000022008BD5F2D000008B500220B4600920C
:102F90001822024908F056FB08BD00006D2D000004
:102FA00008B500210B461922009108F08FFB08BDDF
:102FB00038B50C46054609790020022901D00220C7
:102FC00038BDE268002A03D00721104613F012FE34
:102FD0000090234606220249284608F033FB38BDFC
:102FE000752D000038B5054608880C4600280DD020
:102FF000606800280AD0012113F0FCFD00902346F0
:1030000007220349284608F061FB38BD022038BD7D
:10301000992D000008B500220B46009204220249B7
:1030200008F010FB08BD0000A12D000038B50546D2
:1030300088780C46012801D0022810D12088002869
:103040000DD0606800280AD0022113F0D3FD009053
:10305000234605220349284608F038FB38BD0220E4
:1030600038BD0000B92D0000064910B5884202D1D4
:1030700003F086FF10BD0DF0A5FF0028FAD1172040
:1030800010BD0000FEFF000038B505464A6800206C
:103090000C46002A03D00321104613F0ABFD00902C
:1030A00023461D220249284608F0CCFA38BD00000C
:1030B000D32D000038B505464A6800200C46002A8A
:1030C00003D00321104613F095FD009023461B22E8
:1030D0000249284608F0B6FA38BD0000D32D00009A
:1030E000024800210160416070470000AC050020EB
:1030F00010B5042901D0042010BD01781170837827
:103100004478190221435180C0781071002010BD0D
:103110000098022B01D004207047517812780902E0
:103120001143018000207047022901D0042070471C
:1031300041780378080218431080002070470098F7
:10314000012B01D0042070471178017000207047D6
:10315000002901D0042070470020704770B5049CFE
:103160001E461546062B1BD36878297800020843B3
:103170002080E878A978000208436080022020714E
:103180000246291D601D13F087FDB01F2081062E09
:1031900003D0AD1DE560002070BD0020E060FAE7BF
:1031A000042070BD8B0705D1890803D011805060C1
:1031B00000207047042070470098042B01D00420A1
:1031C000704751781378090219430180D1789278B9
:1031D0000902114341800020704710B50298022B6C
:1031E0000FD351781478090221430180991E418040
:1031F000022B02D0921C426001E0002141600020BD
:1032000010BD042010BDF8B584890D46002C2BD0CC
:1032100086683778390601D4002010E00D2C23D3BE
:103220000C3CA4B23119009140882346324601215A
:1032300007F0FBFC002801D0022000E00120790605
:103240002870C90FBA066970920EAA70641E220413
:10325000120CAA8002D0761CAE6001E00022AA60A7
:10326000022803D1002901D00120F8BD0020F8BDBB
:1032700010B50298042B14D3517814780902214315
:103280000180D1789478090221434180191F8180FF
:10329000042B02D0121D826001E000218160002019
:1032A00010BD042010BD0098042B01D004207047ED
:1032B00051781378090219430180D1789278090274
:1032C000114341800020704710B502981146062B2B
:1032D00003D0142B03D0042010BD022200E01022E2
:1032E00002714A780B7812021A430280CA788B78EE
:1032F00012021A4342800279401D091D13F0CCFCD2
:10330000002010BDF8B515460646002912D03478C5
:10331000491E6C80CFB2022C0CD321463846FFF7F1
:10332000CFF801466143B94204D12880761C0020C1
:103330006E60F8BD0420F8BD0098D90706D1022BB5
:1033400004D0590881800260002070470420704733
:103350000098022B01D0042070475178127809029E
:1033600011430180002070471180002902D0506075
:10337000002070470020FAE710B5029C022B11D301
:103380002072617250781178000208432080981EE4
:103390006080022B02D0921C626001E0002060601D
:1033A000002010BD042010BD002901D0042070476A
:1033B0000020704738B5054688680C46002802D0C2
:1033C000052113F017FC00902346162202492846D7
:1033D00008F038F938BD0000E52D000038B5054685
:1033E00088680C46002802D0052113F003FC0090E9
:1033F000234617220249284608F068F938BD000024
:10340000012E000008B500220B4600920C22024952
:1034100008F018F908BD00001D2E000038B505465B
:1034200048680C46002802D0012113F0E3FB00900D
:1034300023460D220249284608F048F938BD00000D
:10344000352E000008B50A79022A03D0102A01D0CF
:10345000022008BD00220B4600921022014908F00C
:10346000F1F808BD492E000038B5054608880C461D
:1034700000280DD0606800280AD0022113F0BAFBA2
:103480000090234611220349284608F01FF938BD51
:10349000022038BD392E000008B50A79022A03D06F
:1034A000102A01D0022008BD00220B4600920822FB
:1034B000014908F0C7F808BD492E000038B5054697
:1034C00008880C4600280DD0606800280AD0022128
:1034D00013F090FB0090234609220349284608F088
:1034E000F5F838BD022038BD712E000038B505460C
:1034F00048680C4600280AD0012113F07BFB00909D
:1035000023460F220349284608F0E0F838BD022080
:1035100038BD0000812E000008B500220B46009245
:103520000A22024908F08EF808BD0000852E00002E
:1035300038B505464A6800200C46002A03D0012110
:10354000104613F057FB009023460B2202492846F1
:1035500008F0BCF838BD0000932E00000149486017
:1035600070470000AC05002001490860704700006A
:10357000AC05002070B5054608480C46854205D0CC
:10358000172C03D303F0FCFCA04201D2012070BD34
:10359000214628460DF0D6FD70BD0000FEFF00005C
:1035A000F8B50646087A12250C46012809D130469E
:1035B000FFF75AFD61880F38884201DA0220F8BD12
:1035C0009225607A012801D14020054360680028D7
:1035D00002D0032113F00EFB009023462A46024935
:1035E000304608F02FF8F8BD972E000008B50021EE
:1035F0000B461322009108F069F808BDF0B50D4A9A
:10360000002180000C4D16688446624652189300D3
:1036100000208A0092191F18145CEF5D7C4014543E
:10362000401CC0B20428F6D3491CC9B20429ECD30B
:10363000F0BD0000240600207029002007484179D1
:10364000FF2901D1252141710548C9B2014305482F
:10365000006801600449C16270470000F82600203C
:10366000802208019C050020384E010010B580061C
:103670000A49800E0A4A487110684468FF230133E2
:103680009C43446048790749084307490968086032
:10369000106841681943416010BD0000F826002001
:1036A000A4050020802208019C0500208006044912
:1036B000800E487103490843034909680860704750
:1036C000F8260020C02208019C05002010B51149F1
:1036D000FF204871114A10481060124A10481060CB
:1036E000124A11481060134A11481060134A1248D8
:1036F0001060134C01222068D202C8608018086153
:1037000000F0F6F8607D002802D10E492020086004
:1037100010BD0000F826002000C00040A0050020D9
:1037200000C300409805002000C200408C03002028
:1037300000D00040A405002000C100409C050020EE
:10374000A826002000E100E0F0B529480068816863
:103750005D27890700250126264C002906DA8168A5
:10376000022291438160E670A57007658168C907F0
:1037700005D08168490849008160257066708168BC
:10378000C90512D58168FF220132914381602178F9
:10379000490605D5184B996BA1609A6B9142FAD1F5
:1037A000217831432170657007658168890508D5E6
:1037B00081680122520291438160A1783143A17056
:1037C000E5708168C90603D5816810229143816044
:1037D0008168490703D5816804229143816081682B
:1037E000090703D58168082291438160F0BD00007C
:1037F0008C030020F82600200010004070B53B4DDF
:103800000446687D002805D1016D406D814201D1DB
:10381000012070BD2068002822D00121000C49033E
:1038200088421DD1A08800281AD020460622FF21F8
:10383000163013F014FA012814D0A2880021206851
:1038400013F0FCFA34220021284813F0F7FA34224E
:103850002146264813F020FAA889002804D006E063
:10386000022070BD032070BD01204002A881A87B0A
:103870000126002800D1AE73E87B002801D11B206F
:10388000E873287C002801D10A202874687C00286D
:1038900000D16E74A87C002801D11520A874A87FDF
:1038A000002801D12820A877E87C002808D0A97F2B
:1038B000E07C49084018E874607F002804D005E0E7
:1038C000A87F40085030F6E704206877A86A0028EF
:1038D00003D0804705493431C880E86A002800D009
:1038E0002E7507F029FB002070BD0000A8260020DF
:1038F00010B500F07BF803F0A7FC05F0F9FFFFF727
:103900009DFE0A4C5D202168086506F0BBF806F0B4
:10391000D7FE06F07FF806F051F821680020086510
:103920000349C871FEF7FAFE10BD00008C030020A9
:10393000F826002000228B5C8354521CD2B2102A3D
:10394000F9D3704770B50E4B00209989002901D139
:103950000C4999810E210124A4039A89154625401A
:10396000CD405204120C0543E8B25604D50BF60FB5
:1039700075401543491EC9B29D810629EDD870BD19
:10398000B4280020FF7F000070B50E4B002059893D
:10399000002901D10C49598108214C015A89154649
:1039A0002540CD4005435200E8B2550A56097540FE
:1039B000ED07ED0F1543491E09065D81090EEDD196
:1039C00070BD0000B4280020FF01000000220AE0C2
:1039D000022101E000BF00BF0B46491E89B2002B47
:1039E000F8D1521C92B28242F2D370470A48094978
:1039F0000068CA680261CA68426109698161C1617F
:103A00008268012149030A438260C2680A43C26096
:103A100070470000F8260020A005002030B5104AAD
:103A20000346517AFD208C2454720E4CA568002D5B
:103A300007D0A57B002D04D0A489E51FFF3DFA3DEA
:103A400002D05172FF2030BD3F242403A34205D28F
:103A50005360A6201072907A40235840517230BDB6
:103A600000180040A826002010B506490C463C3C32
:103A70006162E062617D182001F0C6FD607D02F0A8
:103A8000ABF810BD38050020F8B500240F4E2746CE
:103A900013E0B06B250128180622FF2113F0CEF9A0
:103AA000B06B06222818FF21801D13F0C7F9B06BF8
:103AB00028188781641C8773E4B2B07D8442E8D300
:103AC000002013F005FBB07DF075F8BDFC0400206C
:103AD00010B5044600F0D4F80248447508F052FCD2
:103AE00010BD0000FC040020FFB58FB0064600208A
:103AF0000C900D901F460CAA304600F087FA454DF9
:103B00000446A87D84425AD2204608F01BFC064693
:103B1000042F04D0A879022803D0002002E02878DE
:103B2000F9E7012000903B4632462146119808F003
:103B3000C7FA1422002101A813F080F920460621BB
:103B4000484300902430C0B201AA102113F03AFB80
:103B5000002813D11022FF2101A813F080F80028BB
:103B60000CD1009805AA2530C0B2042113F02AFB1D
:103B7000F107C90F01AA119801F056FD7034E0B2A7
:103B800006AA182113F01EFB002811D106A808F080
:103B9000EBFB0024A10006A808180188002903D027
:103BA0008278119802F07CF8641CE4B2062CF1D300
:103BB000B00706D5697D119802F060F801E0082F82
:103BC00002D0042F13D021E0A87902281ED10022B0
:103BD0003146119808F0AEF9686A002816D043689B
:103BE000002B13D000221146119898470EE0287838
:103BF00002280BD129791198002900D001216A7877
:103C0000002A00D00422114301F0DEFC002013B092
:103C1000F0BD0000FC040020F8B501F031FB0028E5
:103C20002BD1164D0026A87C012801D000241CE0D1
:103C300008F0BAFAAE740020AA7DA96B04E0030173
:103C40005B18401C9E73C0B29042F8D310E0A86B82
:103C500027013818807B012805D1204608F0B6FAE4
:103C6000A86B38188673641CE4B2A87D8442EED336
:103C7000502013F059FA08F085FBF8BDFC04002031
:103C8000F8B52B4CFF2060750025A575294EA5635E
:103C9000B068002818D0B07B002815D0B189CA1FA1
:103CA000FF3AFA3A10D130214843422113F010F87C
:103CB000A063002808D0A17D0A01002113F0BEF8FE
:103CC000B07B41004018A075A07DE07501262563FA
:103CD00026706570A570E57010220021164813F05B
:103CE000ADF8257177276771E561A671E571124816
:103CF0002572657210220021103013F09FF8A57212
:103D0000E77225622573052060731020A073E573A8
:103D1000022020746562A562E5626574A57404489A
:103D2000E674267505493C30016005494160F8BDDF
:103D3000FC040020A82600201828002005C600004A
:103D4000CDC5000070B50024054600290BD10849F7
:103D50001046FEF7B5FB0846294601F0EDFA0400CF
:103D600003D00121284601F087FC204670BD0000E9
:103D700040420F0010B506490C463C3C6162A0620F
:103D8000617D182001F040FC607D01F025FF10BD31
:103D90003805002070B5264D0C4608040FD5687D07
:103DA00013F090F8050006D008F082FB002802D03E
:103DB000284613F05FF80120C003604070BDA007E3
:103DC0000BD50021084608F01BF802214C400028C2
:103DD00025D1687D13F06AF91FE0E00721D0286B38
:103DE000808808F097FB01214C40002817D0686AB2
:103DF00000280DD04368002B0AD0286B0022808851
:103E00009847696A286B00224B688088032198478D
:103E1000E87C13F0AFF907F0E5FF204670BD012103
:103E2000D7E7600702D50420484070BD002070BD70
:103E3000FC0400207FB504468078734D801F03008A
:103E400007F0AAF90ADCDFDF8E1306D8DF62A3DFF2
:103E5000696A2046002907D00C68002CFBD0437B00
:103E6000027B4189C01CA047CBE060780026002877
:103E700031D1A079C0072ED0286B00282BD1102279
:103E80000021684612F0DAFF6169002903D006229A
:103E90006846103107E0A0880CF0C0FF0028E3D08E
:103EA000811D0622684612F0F7FE69468889A179CD
:103EB0004907C90F08436946888108F029F9A97D97
:103EC000884201D1FFF7E0FD2146684607F098FFE0
:103ED000002812D01526686A002855D04368002BA8
:103EE00052D06278A08801219847002E4CD0696A90
:103EF000A0884B683246032173E00221687D13F0ED
:103F0000D5F8002004B070BD6078062817D1A088CD
:103F10000CF084FF060012D0287C012804D002286F
:103F200008D003280BD114E07179A088002208F092
:103F300001F804E0A1883078052201F0ADFB686A41
:103F400000285ED04368002B5BD06278A0880221F5
:103F500047E0002241201146000100F0F3F8E9E7B4
:103F6000E0780022211D00F051F8A97D884248D256
:103F70000621484325302246C0B20C32042113F0FA
:103F80006DF9E87C13F0F6F83BE0287B002802D0BE
:103F9000A088697B28E028780028A08823D00CF02E
:103FA0003DFF06002DD0A07AC0070BD07079002805
:103FB00008D0A189890505D46A46B11D00F026F80C
:103FC000002814D022467179A088083207F0B2FF89
:103FD000686A002815D04368002B12D00022A08800
:103FE000114698470DE0052101F046FB09E0A08845
:103FF0000321F9E7A08800F007FA02E0A088FFF7A4
:104000000BFE01207EE70000FC040020F0B52E4EE0
:1040100085B0B47D15460F46002806D0012804D08F
:10402000022811D003284BD121E0084608F042F9BC
:10403000B17D0446884243D2002D41D00622394644
:10404000284612F029FE3BE000240BE0B16B200172
:10405000401806223946801D12F010FE002826D195
:10406000641CE4B2B07D8442F0D3C4B21FE00024EB
:1040700019E02046062148432330C0B26A46102189
:1040800013F0A0F800280CD11022FF21684612F08E
:10409000E6FD002805D13946684601F063FA00289C
:1040A00005D0641CE4B2B07D8442E2D3DDE7B07D8C
:1040B000844205D2002D03D02946204608F022F97B
:1040C000204605B0F0BD0000FC040020F8B50E4607
:1040D00019491525194F884214D1002409E03246A8
:1040E0000221204608F02EF8002800D00025641C8C
:1040F000E4B2B87D8442F2D3002E1BD010480CF0FD
:10410000A9FF17E00CF08AFE040012D060790022AB
:10411000A11DFFF77BFFB97D884204D23246022100
:1041200008F010F80025002E04D0204608F05CF9B5
:1041300000E014252846F8BDFFFF0000FC04002025
:10414000E9C30000F0B50746012080021546381A81
:1041500089B00024A84AA94E030007F01DF81E10DC
:10416000171E252C32393E454C535A616A71767DB3
:10417000FDFCFBFAF9F88AF7F6ABABD6D9F90129C1
:1041800073D12878022870D8307031E10129F7D135
:1041900028780128F7D870702AE10129F0D1287811
:1041A0000428F0D8B07023E10129E9D1287801284A
:1041B000E9D8F0701CE11029E2D11022294690487C
:1041C00034E00129DCD128780128DCD830710FE1F6
:1041D0000129D5D1287870710AE10429D0D1286845
:1041E0009042D0D8F06103E10129C9D12878022892
:1041F000C9D8B071FCE00129C2D128780128C2D801
:10420000F071F5E00129BBD1287804282DD830724F
:10421000EEE0012929D12878012826D87072E7E03C
:10422000102922D1764810222946103012F034FD90
:10423000DEE0012919D12878012816D8B072D7E01C
:10424000012912D12878F072D2E004290DD1286812
:1042500090420AD83062CBE0002906D101F010F874
:10426000002803D00120B074C2E076E007F09CFF84
:104270001CE0072971D10622691C684612F00CFD6A
:10428000287800226946FFF7C1FE0546B07D8542C9
:1042900039D200F0F5FF002805D0B26B01202901CA
:1042A00089188873A4E0284607F090FF502012F088
:1042B0003BFF81E0072950D10622691C07A812F0B4
:1042C000EBFC2878002207A9FFF7A0FEB17D884209
:1042D00019D20621484305462135E8B26A461C2119
:1042E00012F070FF00280ED14648874201D101200C
:1042F00000E0FF206946C876E8B26A461C2112F049
:10430000ADFFF07C36E0022472E0002030756FE0F3
:104310000027012030753D4624E028460621484309
:1043200006462136F0B26A461C2112F04BFF0028E7
:1043300016D16846C07EFF2812D0FF206946C87695
:104340000127F0B26A461C2108E046E03EE036E074
:1043500045E028E01FE017E00FE039E012F07EFFB3
:104360006D1CEDB22548807D8542D6D3002F3FD00D
:104370002248C07C12F0FEFE3AE0012928D12878BC
:10438000012825D8307333E0012921D12878092864
:104390001ED870732CE001291AD12878C11F092971
:1043A00016D8B07324E0012912D1717C287870747A
:1043B00000291DD101281BD107F0E4FF18E00129D5
:1043C00006D12878032803D8307411E0012901D0E0
:1043D00018240DE02878F0740AE00120CAE7192FAC
:1043E00091D202298FD12988384601F00DF904466F
:1043F000204609B0F0BD00003F420F00FC04002041
:10440000182800201A040000FEB50646002001907E
:10441000029030460CF002FD040017D0144FB8791A
:10442000022813D0607901AAA11DFFF7EFFD054610
:10443000B87D85420BD2284607F084FF0246012052
:10444000009008232946304607F03AFEFEBDB879B1
:10445000002807D00128F9D161790022304607F001
:1044600069FDFEBD0521304601F006F9FEBD0000E4
:10447000FC040020F7B516491525164E174688424C
:104480000FD1002409E03A462046019907F0B6FF13
:10449000002800D00025641CE4B2B07D8442F2D331
:1044A00013E00CF0BBFC00280ED04379811D0022E4
:1044B0001846FFF7ABFDB17D884206D23A46019916
:1044C00007F09CFF002500E014252846FEBD0000F3
:1044D000FFFF0000FC04002010B51448007F800896
:1044E0000DD0134806F072FD124CFF28207006D044
:1044F00000F00CFB10480078002802D013E01820D0
:1045000010BD0E4A1021022012F05CFE0C4A102150
:10451000032012F057FE04210A4A084612F052FE08
:10452000207801F019F8002010BD0000A826002016
:10453000DD450000400500204E05002057280020E2
:10454000672800205C0500203EB5084C6D462478A5
:104550002C706870A970EA700622194601A812F042
:104560009BFB684600F072FD3EBD00004005002048
:1045700010B503F074FE12480078FF281DD11148D1
:1045800006F024FD02F00EFD0F4806F01FFD00F0BE
:10459000F1FD0E4806F01AFD01F01EFD0C4806F074
:1045A00015FD06F0BDF90B4806F010FDFFF790FA77
:1045B000094806F00BFD01F011F9FFF78DFF10BD62
:1045C00048050020E570000075540000616100009E
:1045D00039AA0000953D00005959000070B50C46FD
:1045E00008040DD50F48007812F06CFC050004D0CB
:1045F00008F03CF9284612F03DFC0120C0030CE015
:1046000060040CD50421084A084612F027FE07482A
:10461000007812F0AFFD01208003604070BD0020E3
:1046200070BD0000400500205C0500200F05002043
:104630007CB514460D4601F0B9FD002D02D0284688
:10464000FFF712FA0A48002C00D0446009490978A3
:10465000002901D000207CBD0849074A0091019241
:104660000849074B0A780821007800F071FC7CBDEE
:10467000400500204E0500205C0500206728002032
:10468000572800204D05002038B5054B6C461B7897
:1046900023706070A170E270684600F01DFC38BDA8
:1046A0004005002070B50C460146032000020A1A9E
:1046B00000252548130006F06FFD130B0D10171A87
:1046C0001E2125292B2D3133393B3D3D35373D000A
:1046D000407811E010221D4902E01C4910221031DF
:1046E000204612F0D9FA2DE0406920602AE01649F0
:1046F00006221E31F4E7C078207023E01249827848
:104700002431EDE7114902791F39E9E7407AF3E7EF
:10471000807AF1E70C4906221831E1E7C07AEBE72D
:10472000007BE9E7C0890AE0008A08E0007AE3E755
:104730004079E1E7192904D2084600F00FFD2080F6
:1047400000E00225284670BD4805002057280020BB
:10475000F8B5164CFF202070002565700320A0706E
:104760000126E670062765611920E781C0012082D5
:1047700020461F222946243012F060FB20460221E9
:10478000243001704670877025711F22002108486F
:1047900012F054FB204606220021183012F04EFB86
:1047A0006571A571FF20E071F8BD0000480500208B
:1047B00038280020FFB583B01C4615460E460C9FD6
:1047C00003980CF02BFB002817D0C189B14207D306
:1047D000A94205D8018AA14202D1408AB8420ED02E
:1047E0006846068045808480C78069460D9A039894
:1047F00002F098FB002007B0F0BD1420FBE7182062
:10480000F9E7000010B52548007F800744D0244C0C
:104810002078FF2840D1234806F0D8FB2070FF28DD
:104820003AD0214900240C602049214A0C7004210F
:10483000117000F091FE102200211E4812F0FEFAC5
:10484000102200211C4812F0F9FA1C481E4904608D
:104850001B48184A04701B480470072008701B4846
:1048600010210470022012F0ADFC134A1021032025
:1048700012F0A8FC10220F49154812F00DFA144846
:1048800010220D49103012F007FA04210B4A084695
:1048900012F098FC002010BD182010BDA8260020A2
:1048A0004805002035490000F8040020500500208C
:1048B0004905002057280020672800205C050020BB
:1048C000510500205205002053050020540500200A
:1048D000F827002010B504F0A7FD104806F076FB7D
:1048E00002F060FB0E4806F071FB00F043FC0D483F
:1048F00006F06CFB01F070FB0B4806F067FB06F05E
:104900000FF80A4806F062FBFFF7E2F8084806F0E5
:104910005DFB00F063FFFFF775FF10BDE570000061
:10492000755400006161000039AA0000953D000047
:1049300059590000FEB54A4C0D46080448D5207868
:1049400012F0C0FA040040D046480078002808D091
:104950002078454ED02808D0A22802D0912821D016
:1049600014E0204608F0A8FE2CE0A07800280DD026
:10497000052807D0082809D006280BD00728F0D131
:10498000A0881BE0608919E0007B04E0204608F065
:1049900093FE02E0E0790828E3D12146307812F056
:1049A000C9FA12E060780E28F0D1A0882F49884219
:1049B000ECD1A06881784278080210430CF02EFAFE
:1049C0000028E1D1204612F055FA0120C00345E04D
:1049D00068040BD50421264A084612F03FFC2548FE
:1049E000007812F0C7FB0120800337E0E80736D0DB
:1049F00021480078002830D00CF044FB1F49097F83
:104A00008907890F884203D30320694608700CE0A8
:104A10001B486946007808701A48062200784870DA
:104A200000A81949023012F037F918486946007891
:104A30000872174800784872207800F0B7FB002809
:104A40000BD014490620087013490968002904D0C6
:104A50000A68002A01D00021904701206840FEBD6D
:104A6000480500204E0500204F05002005140000D9
:104A70005C0500200F0500204B050020A826002023
:104A8000510500205205002060050020530500203C
:104A90005405002050050020F80400207CB5144681
:104AA0000D4601F08FFB002D02D02846FFF762F97A
:104AB0000C480078002801D011207CBD002C01D0CA
:104AC000094804600A48009008490B48019102789F
:104AD0000A48084B01780A48007800F039FA0020AB
:104AE0007CBD000050050020F80400205C0500207B
:104AF00067280020572800204D0500204905002088
:104B00004805002010B501F0F1FE10BD0449C87140
:104B10000878FF2803D0012088710C204870704766
:104B200048050020F8B50C465E4916464218192182
:104B30000025C9015C4F130006F02EFB120A101766
:104B4000A81C3E526970778188A8A3A8A88F98A84E
:104B5000102C73D11022314654486CE0102C6DD1CA
:104B6000524810223146103065E0042C66D130687E
:104B7000786190E0012C61D1F97830784A4AF87078
:104B8000127800290AD0002807D1387A022801D0EB
:104B9000052802D1104600F02FFA7CE000287AD0D8
:104BA000387A012803D0032801D0042873D10121C9
:104BB000104612F07BFA6EE01F2C60D83A481F2294
:104BC0000021243012F03AF9374822463146243089
:104BD00012F062F8344BBC7024332246012112E0FB
:104BE0001F2C4CD831481F2200211F3812F026F903
:104BF0002E48224631461F3812F04EF82B4B3C719E
:104C00001F3B22460021387800F08AFD48E0012C45
:104C100035D13078042832D878723CE0012C2ED17E
:104C2000307803282BD8B87235E0062C27D11E48DF
:104C300006223146183012F02FF82CE01FE0012C2C
:104C40001DD1307807281AD8F87224E0012C16D12B
:104C50003078032813D838731DE03088022C0ED129
:104C600006280CD388420AD8F88114E03088022C38
:104C700005D1062803D3884201D838820BE01825D5
:104C800009E0012CFBD13078787104E0192801D2B9
:104C9000022C02D002252846F8BD318800F0B4FC71
:104CA0000546F8E7FFFCFFFF4805002057280020D5
:104CB00010B504460CF0B2F8002805D00078132295
:104CC000214600F0E9FC10BD122010BD3EB50024C5
:104CD000069D01940095029401F049FD3EBD00003F
:104CE000F8B50E46070048D038880CF097F8050054
:104CF00041D0234AA96BD078022806D0012804D0DD
:104D0000287B082803D1002E01D0122436E0002988
:104D100001D0112432E047212C2011F0D9FF0446A4
:104D2000A863200025D02C22002112F087F83888B3
:104D300060801C22391D201D11F0AEFF0220207062
:104D40000F483A880178287B082810D00020231DBE
:104D500005F01FFF0446002E03D03146284610F010
:104D6000DDFD002C0AD0284607F004FE06E00120F5
:104D7000EDE7132402E0142400E002242046F8BDED
:104D8000A8050020FFB51F4881B0C0781E46174611
:104D90000D46022818D0012816D0002F30D00198D7
:104DA0000CF03CF8040029D0E06A002801D011F092
:104DB000CBFF1C21384611F07BFFE062011E1BD0A7
:104DC000207B082803D00DE0122005B0F0BD002E96
:104DD00008D0887E00900B4612330A8A019811F0A1
:104DE0009DF800E000202179002D01D0062200E08E
:104DF000042211432171E8E71320E6E71420E4E7D9
:104E00000220E2E7A805002010B50548C078000799
:104E100001D5044800E0002008F070FB10BD000040
:104E2000A8050020C805002070B51B4C05460121CF
:104E3000207807F0C5FD1948C1780A20014224D026
:104E4000204625700C3008F053FB606800281AD10A
:104E5000207800281DD00001072111F039FF606083
:104E6000002810D021780A01002111F0E7FF00206E
:104E7000FF222378616803E00401401C0A55C0B298
:104E80009842F9D305E0132070BD0020207008F08F
:104E90002FFB002070BD0000B4050020A8050020F5
:104EA00008490020087048608860064806490C30B0
:104EB00001600649416006490830016005494160CA
:104EC00070470000B4050020A9C70000EDD2000023
:104ED00089C60000C1C6000038B51A4D0446A8684E
:104EE000002801D0112038BD17480A21C078084297
:104EF00025D00521042011F0EBFEA86000281CD06D
:104F00000422214611F0C8FE052000F027F90546CD
:104F1000062000F023F90246E078002800D00120A6
:104F20000A498978002901D0012300E0002300907C
:104F3000A078294601F0B6FC38BD132038BD1220F8
:104F400038BD0000B4050020A8050020242700205B
:104F5000F8B50224079F1D461646042919D004DC23
:104F6000012907D0022945D10BE008291BD00C29C3
:104F700040D129E000F0C4F904003BD100F018FA58
:104F800038E000F0BDF9040034D13046FFF74CFFA3
:104F900030E000F0B5F904002CD13A4628460699D5
:104FA00000F0E4FA20E000F0ABF9040022D13A4628
:104FB0002846069900F0DAFA3046FFF735FFFFF78A
:104FC00023FF05F0BFFC15E000F09AF9040011D1B1
:104FD0003A462846069900F0C9FA3046FFF724FF02
:104FE000FFF712FF05F0AEFC00F0E2F900F0C8F99F
:104FF00005F086FD2046F8BD70B5104C21680029EB
:1050000019D00978814214D10D4D0221287812F06F
:1050100031FA0C48002646802878042112F02AFA3A
:1050200009484671216803204870002001F023FCE4
:1050300070BD032070BD122070BD0000A4030020CD
:10504000A8050020D005002024270020F0B5044644
:105050003D488BB0C078000772D53C488068002876
:1050600001D010246DE000F00BF93949097888422D
:1050700064D2384E3068002801D0112461E0062146
:105080000A2011F025FE3060002854D00A22214663
:1050900011F002FE30684078002805D00B2000F0A7
:1050A0005DF80A900C2004E0092000F057F80A90FF
:1050B0000A2000F053F8044627488078002801D0E1
:1050C000012500E00025102000F048F807460F20D9
:1050D00000F044F800900D2000F040F801900E2000
:1050E00000F03CF80290082000F038F80890072003
:1050F00000F034F809903168C878091D06F055FEB3
:105100000346019A02990098049106900797059228
:10511000326809990898161D00960291039001952E
:10512000927821460A9801F041FB040009D003203F
:1051300007F03AFC05E0132403E001E0152400E049
:10514000122420460BB0F0BDA8050020B4050020B5
:10515000F0040020A803002024270020192801D3F0
:105160000248704702494000085A7047FFFF00009C
:105170004427002010B5044600F086F800F05AF9E4
:10518000FFF78EFEFFF7E4FA0649FF23CB700022FB
:105190008A700A710448052143700470204601F0AA
:1051A000E9FF10BD24270020A8050020F3B52F4EED
:1051B0000446306883B0002802D0112005B0F0BD4D
:1051C0002B4F0521F878084201D11220F6E7294932
:1051D0004968002905D00978002902D0C00702D00B
:1051E00008E01020EAE700F04BF805460BF02CFF32
:1051F000854207D304980078022803D0032801D001
:10520000122431E047210C2011F062FD30600028AB
:1052100029D00470002141700A22801C049911F0E9
:105220003BFD154DA878032806D008F0E3FB0400E9
:105230001AD007F093FB17E007F018FC694605F059
:10524000FCFA684607F0D4FF012028711120FFF70F
:1052500085FF0006000E687106D03878074A0421E1
:1052600012F094F800E013242046A7E7A4030020DE
:10527000A8050020D0050020242700200077010089
:1052800010B50BF0CBFE10BD1A4800210170417023
:1052900041608160C1600161416181611648B42251
:1052A00001804280012292038280A022C28002817A
:1052B0001022428182815023C381038242828282F2
:1052C000C2827D2302831B0143838183C1830184C6
:1052D0000F234384094B83840723C384028501225F
:1052E00042857E22D2438285C1850186491E418640
:1052F00070470000900300204427002080BB00007E
:1053000070B50E46054620220021094811F096FD91
:10531000074C0848E570C67001F0DEFA002803D09B
:1053200000202070122070BD0121217070BD00008E
:1053300024270020A80500207FB504460D46084616
:105340000BF06CFD002817D00C48844212D21022BA
:105350000021684611F072FD69460C70200A487001
:10536000200C8870200EC8702946684605F01EFB88
:1053700004B070BD0220FBE71220F9E740420F00A5
:1053800010B50848C078400707D5074808F0C2F8AC
:1053900000200649C043C88010BD002008F0BAF8BC
:1053A00010BD0000A8050020E005002024270020F3
:1053B000F8B51D4C00256068002802D011F0C4FC2F
:1053C0006560E068002802D011F0BEFCE560174E71
:1053D0000527F078384223D0154808F095F8F07882
:1053E00038421BD04721202011F072FC6060002859
:1053F00014D02022002111F021FD4721202011F09E
:1054000067FCE060002805D02022002111F016FD85
:105410000020F8BD606811F097FC65601320F8BDAE
:10542000002008F071F8F3E7D0050020A80500205F
:10543000782800200948FF21017000214180416047
:105440008160C1600748064901600749416007491A
:10545000816002490648103108607047D00500207D
:10546000E1CC000078280020E1CF0000F5D9000051
:1054700051CC0000FEB5354F354D0C4608041FD504
:10548000387811F01FFD061E17D03078A22806D0FC
:105490007D78304607F03EFF00280AD102E02C4814
:1054A000C578F6E7FF2D04D03146284611F042FDBD
:1054B000E6E7304611F0DEFCE2E70120C00341E000
:1054C000E0070126234900280AD04868002804D0B4
:1054D0004168002901D00020884720467040FEBD69
:1054E000A00709D5C868002804D04168002901D068
:1054F00001208847022025E0600725D5687900282B
:105500001FD0401E0006000E68711AD1486900289D
:1055100008D02E71C868002804D04168002901D045
:10552000012088476946E86805F087F9684607F072
:105530005FFE1120FFF712FE68713878042111F028
:1055400099FF04206040FEBD0020FEBDA80500209C
:105550002427002090030020014948707047000074
:10556000A805002010B505F0A5FA10BD70B5154CC2
:105570000E46626121610546E0601022FF2130463F
:1055800011F06DFB012806D010220021304611F0E9
:1055900066FB012803D1102120690FF0B1FF102212
:1055A000FF21284611F05BFB012806D010220021C4
:1055B000284611F054FB012803D11021E0680FF0B8
:1055C0009FFF70BD242700207FB50C4605460BF0D9
:1055D00025FC002814D0826B007B042802D0122006
:1055E00004B070BD002A00D0947D6846214610F0BA
:1055F000D1FC044B6A460221284610F04DFCEFE72F
:105600001420EDE787640100192802D2044A914270
:1056100001D102207047034A400011520020704718
:10562000FFFF00004427002070B50E4611491546C3
:10563000CB78022B17D0012B15D0002D17D00BF0F3
:10564000EDFB040011D0002E03D020790221084385
:105650002071204610222946183011F01DFB2869C0
:10566000A062002070BD122070BD142070BD022009
:1056700070BD0000A805002038B50C4605460BF0AB
:10568000CDFB002806D0684604706946284610F015
:10569000F1FB38BD142038BDF7B505461E4812266B
:1056A0001E4F0C46814208D1B868002832D00268EB
:1056B000002A2FD028469047FEBD1748401C844240
:1056C00019D1B868002806D00268002A03D02846FD
:1056D0009047002806D02846029906F059FB06009C
:1056E00005D017E07D70029838700020FEBD7D70F7
:1056F000029838700EE008460BF090FB002809D0A5
:105700000078A84201D00320FEBD2046029901F096
:1057100008F8FEBD3046FEBDFEFF000090030020ED
:1057200070B51446024620481E46C078052318422C
:1057300024D01E4D00296B68E86802D0002B1DD0D4
:1057400001E000281AD0202C2CD2002C01D0002EF1
:1057500028D02A70002913D01F220021581C11F0D4
:105760006DFB686822463146401C11F095FA696865
:1057700020460C70491C01F07AF870BD122070BDF3
:105780001F220021401C11F059FBE86822463146D7
:10579000401C11F081FAE96820460C70491C01F0A8
:1057A00087F870BD022070BDA8050020D00500203C
:1057B00010B5094A014613790020002B0BD10123B3
:1057C0001371C90707D01346643318461022042109
:1057D000403800F007FA10BD80040020F8B50446F8
:1057E00000F0B4FE00F044F8114F134EFC70114964
:1057F000304600F025F84721C02011F069FA002258
:105800001346B86194010653002124180C254D431A
:105810006519AB80491CEB600529F7DB521C032A94
:10582000F0DBF878787005480BF048FCF8BD000014
:1058300080040020BA270020FFFF0000F5EA0000E6
:1058400070B50A4C0025A04208D1002082008C527D
:105850005218401C95700328F8DB70BD09F01BF945
:105860000028FAD00480857070BD0000FFFF0000A2
:10587000F0B51E4920200870FF2048708870C8705D
:105880000126CE8000200881C86008610B460224F2
:105890001C3348611C70164A5A600A46087124324B
:1058A0001470144D556016725081D3601474124FE9
:1058B00015466F612E766883E961202154541346A2
:1058C0000E4D59185D6208725885D86230215454C3
:1058D0000B4C0323511854630B725087094ACA605A
:1058E0000249094A643105C10860F0BD8004002006
:1058F000F6760100F8760100FE76010016770100C9
:1059000004770100BA270020A5F50000F8B50E467F
:105910000746069900240798002902D00B24204648
:10592000F8BD022B01D00D24F9E7517812780D0251
:1059300015432946814301D08024F0E73846F168B9
:1059400000F042F9A842EAD02A463846F16800F051
:10595000EFF90446E3E7000070B50D4608041AD5D8
:105960000E48C07811F0AEFA04000FD02078B028AD
:1059700009D1204609F054FA002804D020462179A4
:10598000083000F0C5FD204611F074FA01212846C8
:10599000C903484070BD002070BD00008004002095
:1059A000FFB585B000200F9F0090087A0E9D1C4621
:1059B0000E46C0060BD5079809F066F803007DD0A7
:1059C0000A223146059898470090002816D1307871
:1059D000022815D0079809F07DF80028EFD000685C
:1059E00084460028EBD01199109822460097029126
:1059F00001902B46314664460598A04709B0F0BD9A
:105A00007068292241780078090201431202881A3D
:105A100091427CD00BDC6948081A13D0012811D0C0
:105A2000022817D00328D5D1002F53D09BE001289E
:105A30007ED002286DD0032877D00428CAD1002F49
:105A400068D090E0002F6FD1F0680178298002784B
:105A5000416884E0002F67D1F068417800780F0238
:105A6000074304202880F06804A900782070F068BB
:105A700040786070384600F0D3F9060022D06846BE
:105A8000028A03AB4E493046F76800F027FA002837
:105A90000AD1337802214B487268FDF705FA0028D5
:105AA00002D1474869468881387802280CD1022201
:105AB000201D796811F0F0F8288800E07CE0801C57
:105AC000288001E06846878168468089A070000AC6
:105AD000E0706FE001202880F068002100782070DD
