:020000040000FA
:10000000008000207917000081170000831700008E
:1000100000000000000000000000000000000000E0
:100020000000000000000000000000008317000036
:100030000000000000000000851700008717000086
:100040008917000089170000891700008917000030
:1000500089170000BB2300008917000089170000E2
:100060008917000089170000891700008917000010
:100070000525000089170000891700008917000076
:1000800089170000891700008917000089170000F0
:100090000348854602F0FCFA00480047910300003F
:1000A00000800020F8B504460D46164668460470E8
:1000B000457086700021C1706B46042201210846FC
:1000C00000F074FEF8BD00BF00BF00BF70477CB5F4
:1000D00006460C460120C0032040002810D081486D
:1000E000007813F06BF9051E05D02846FFF7EBFFEB
:1000F000284613F03BF920460121C90348407CBD46
:10010000E007C00F002803D0204601214840F6E751
:1001100004202040002810D072480078FF21F531DB
:10012000002308220091019011466F48008804F0D6
:10013000E3F8204604214840E1E70220204000285F
:100140000FD0022211460020FFF7ACFF7D22D20023
:1001500002216448007813F0A7FB204602214840A2
:10016000CDE70020CBE700B585B0604809F096FFE9
:100170005C4908700121049104AA5D4804F064FA06
:100180005C4A0D215A48401C04F05EFA5A4A142178
:100190005748801C04F058FA584A1521002005F0F1
:1001A00085FE00200490012103910021029103218A
:1001B00001910121009104AA0421514803F04AFE53
:1001C00003AA0121880203F045FE02AA01214C483E
:1001D000801F03F03FFE01AA01214948401F03F0A0
:1001E00039FE6A4601214648801E03F033FE06218F
:1001F000049104AA0121084600F03BF901F062F9DC
:100200004049414800F049FD01213648007813F08B
:10021000C9F905B000BD70B505460C462B000AF0C3
:1002200023F807320509200D1C2E320037A009F0F3
:10023000F3FF29E039A009F0EFFF25E02646708999
:10024000294908801922D20104212648007813F098
:100250002BFB36A009F0E0FF16E038A009F0DCFF28
:1002600012E0A078042803D13BA009F0D5FF05E0F7
:10027000A078062802D13FA009F0CEFF04E041A0FB
:1002800009F0CAFF00E000BF00BF70BDFFB583B03A
:1002900007461C460D9E0C9D00200290002C08D1A4
:1002A00000962B783846059A049901F04AF9029095
:1002B00013E0012C08D12B4600963846059A049984
:1002C00001F056F9029008E0022C06D1FF22F53227
:1002D00002210448007813F0E7FA029807B0F0BD55
:1002E00070470000004000202C400020CF0000009C
:1002F000050300001540002001400020B43A010031
:10030000070400003040002024400020496E69743A
:1003100069616C697A65642E2E0A00004164766515
:1003200072746973696E672E2E0A0000436F6E6ED9
:1003300065637465642E2E0A00000000436F6E6EC4
:100340006563746564204164766572746973696E6F
:10035000672E2E0A0000000057616974696E6720DD
:10036000666F72206164766572746973696E672E58
:100370002E0A0000446973636F6E6E656374656472
:100380002E2E0A004572726F722E2E0A0000000097
:100390000F48806A0121490208430D498862032100
:1003A0000120400201F024FD01F010FF09490AA0DC
:1003B00009F032FF01F05AFF01F0F5FF04F02CF8CC
:1003C00000F044FCFFF7CFFE01E009F085FEFCE7FA
:1003D00080100040C03B010025730A0010B50024C6
:1003E000B449B54804F0F0FEB44B10220521B448DE
:1003F00005F0BCF80446204610BDB24908607047BD
:100400003EB504462079C007C00F00282BD0608875
:10041000A84905F09DF80546E807C00F002821D03F
:10042000002000906088002301221B2105F046FC7B
:1004300002900298002814D0A148418D684681801E
:100440000121C180A04800780299087060880022CC
:1004500001A905F077FA002803D01B2101A805F0B7
:1004600073FC00BF00BF3EBD10B598480EF0FAFE09
:1004700010BDF8B504460F4615460026012C0AD1DA
:10048000287893490870904800780978884201DA02
:10049000FFF7EAFF01E0022600BF00BF3046F8BDCB
:1004A00010B502460023002A06D0012A08D0022AED
:1004B0000AD0032A1CD10BE083480078087019E0A9
:1004C00083480078087015E07D484089088011E075
:1004D0000846804C247804717E4C64784471784CD2
:1004E000648D0480764C648F44800124847101E023
:1004F000022300BF00BF184610BD70B576480068E3
:10050000002802D0744800688047FF242D347348C7
:100510000068002802D07148006880477048008851
:10052000844201DB642523E06E480088844201DCBC
:1005300000251DE06C480068002805D020466A4967
:1005400009688847054613E06548008865490988B9
:10055000401A401C86B2B61062490988611A1922F5
:100560005143721E8818314602F01EF8C5B200BF12
:10057000284670BD10B5FFF7C0FF0446524800780A
:10058000844203DA50480470FFF76EFF002010BD6C
:1005900070B5059D049C534E3180514E32804E4EB5
:1005A00033604E4E3460504E356070BDFEB50C4623
:1005B00015461E46002001900898002801DD0B20FA
:1005C000FEBD606807786168497809020F434748B3
:1005D000874210D1FFF791FF00903B4909780098BE
:1005E000884202DA38490098087001203080364885
:1005F000007828700CE03E48874207D10220308006
:1006000002222846E16812F0C3FD01E00A200190B1
:100610000198D5E7FFB583B00C4615460C9F002620
:10062000606800786168497809020843029031499E
:1006300002984018002820D10120009701902A46F6
:100640002146069B039804F025FE0646002E13D192
:10065000287869780902084301901A480068002840
:1006600009D00199002901D1022100E001210846A9
:1006700014490968884700BF01E00A2600BF00BF8F
:10068000304607B0F0BD70B505460C460A48401E1E
:1006900085420DD0012C07D0022C09D1012128461A
:1006A0000EF048FE002803D10249284604F08CFDD4
:1006B00070BD0000B0660020FFFF0000AC400020CD
:1006C0005C40002040400020564000200104000013
:1006D0005440002057400020444000204840002063
:1006E00052400020504000204C400020192A0000B9
:1006F00008290000FED6FFFF10B5AA4B10221321D7
:10070000A94804F033FF10BDF8B504460D4616465F
:100710000027002C05D12A463146A44812F038FDA6
:1007200001E0022700BF00BF3846F8BD70B504469F
:100730000D460026230009F097FD09060C12181E2D
:10074000242A30363C0008229849284612F020FD21
:1007500031E00D229649284612F01AFD2BE00E22B8
:100760009449284612F014FD25E0122292492846A9
:1007700012F00EFD1FE012229049284612F008FDEB
:1007800019E012228E49284612F002FD13E01222CF
:100790008C49284612F0FCFC0DE00E228A492846BE
:1007A00012F0F6FC07E007228849284612F0F0FC18
:1007B00001E0022600BF00BF304670BDFFB583B028
:1007C0000F461D460D9E0C9C002002907868007814
:1007D000796849780902084301907D4A0198811A95
:1007E000904268D00ADC7B49401800280FD00128CD
:1007F00022D0022835D0032872D147E0012973D0D6
:1008000002296FD003296ED02929F5D1ABE0082C3D
:1008100002D3072002900EE00820001BB04201D94D
:10082000304601E00820001B28802A885F48011913
:10083000059812F0ADFCB0E00C2C02D3072002901A
:100840000EE00C20001BB04201D9304601E00C2024
:10085000001B28802A8856480119059812F098FC38
:100860009BE00D2C02D3072002900EE00D20001B10
:10087000B04201D9304601E00D20001B28802A88B3
:100880004C480119059812F083FC86E0112C02D324
:10089000072002900EE01120001BB04201D9304623
:1008A00001E01120001B28802A884348011905987F
:1008B00012F06EFC71E0112C02D3072002900EE0C2
:1008C0001120001BB04201D9304601E01120001B6D
:1008D00028802A8839480119059812F059FC5CE0F3
:1008E00056E001E015E029E0112C02D30720029028
:1008F0000EE01120001BB04201D9304601E011206A
:10090000001B28802A882E480119059812F040FC07
:1009100043E0112C02D3072002900EE01120001BAF
:10092000B04201D9304601E01120001B28802A88FE
:1009300024480119059812F02BFC2EE00E2C02D34E
:10094000072002900EE00E20001BB04201D9304675
:1009500001E00E20001B28802A881B4801190598F9
:1009600012F016FC19E0072C02D3072002900EE0CB
:100970000720001BB04201D9304601E00720001BD0
:1009800028802A8811480119059812F001FC04E01A
:10099000002028800A20029000BF00BF029807B004
:1009A000F0BD000000420020D0400020B9400020EF
:1009B000F43A0100013B01000F3B0100213B010023
:1009C000333B0100453B0100573B0100C94000207B
:1009D000272A0000DDD5FFFF704710B50446012C23
:1009E0000AD1FE48007804280DD1FD4A0221FD48B5
:1009F000007812F059FF06E0022C04D10221F948D8
:100A0000007812F0B3FF10BD7047FEB506460D46E4
:100A10001746002003462A461B210090F248008812
:100A200005F04CF902900298002815D0684686809F
:100A3000C5802A463946029812F0AAFB002201A975
:100A4000E948008804F07EFF0446002C05D01B21F5
:100A500001A805F079F900E013242046FEBD30B569
:100A600002460B46E1480168E14804780FE0087946
:100A7000904209D14879984206D18879DD4D2D7888
:100A8000A84201D1084630BD601EC4B20831002C16
:100A9000EDDC0020F7E7FFB583B0074614461D469E
:100AA00038460499FFF7DBFF0290002828D002990E
:100AB000488801A904F02CFE061E21D0CA480088EF
:100AC000F16804F045FD00900098C007C00F0028B1
:100AD00015D0029908882A462146FFF796FF00287C
:100AE0000BD1C5480770C449049848700846847003
:100AF00022462946C01C12F04BFBFFF785FF00BFC2
:100B000007B0F0BD10B5BD480078BD4909788842EE
:100B100001D1002010BD0B21B8480078401C01F025
:100B200043FDC8B2B5490870084600780B21484318
:100B3000B4494018EEE710B5A8480078042807D15A
:100B4000FFF718FDA64A0221A648007812F0ACFE75
:100B500010BD704710B504462078B02803D1204658
:100B6000FFF7F7FF00E000BF00BF10BD70B50646FD
:100B70000C460120C0032040002810D0994800787E
:100B800012F01CFC051E05D02846FFF7E3FF28469F
:100B900012F0ECFB20460121C903484070BDE0077C
:100BA000C00F002809D0984A98498E48007803F071
:100BB00017FD204601214840F0E70420204000288E
:100BC00015D08648007804280DD191A009F024FBA7
:100BD00094480078002802D0FFF716FF03E082480F
:100BE000008803F0F7FD204604214840D6E70220A4
:100BF0002040002805D0FFF79EFF204602214840F4
:100C0000CCE70820204000281ED087480078002824
:100C100016D0FFF777FF0546002D05D0AA78697832
:100C20002878EB1CFFF737FF74480078744909787F
:100C3000884203D1204608214840AFE72046ADE76F
:100C4000204608214840A9E70020A7E708B57748D3
:100C500009F024FA63490870012000906A460121D6
:100C6000734803F0F7F80020C04305F075F8002042
:100C7000C04304F061FAFFF73FFDFFF7AFFB00F060
:100C8000A3FC6C48FFF7B9FB6B4800F0ACFC0121FA
:100C90005448007812F086FC08BD684A1160684A22
:100CA00010607047514A1160514A1070704708B582
:100CB0000021009169465E48401C02F039FD6846FB
:100CC000007808BDF8B504460D4616461F46FFF7E6
:100CD000EEFF00283FDD0B2149480078401C01F061
:100CE00063FCC8B246490870084600784349097851
:100CF000884208D10B2141480078401C01F054FC87
:100D0000C8B23E4908703E4800780B2148433D492F
:100D10000C543B4800780B2148433A494018457031
:100D2000374800780B2148433649401886703449CB
:100D300009780B225143334A8918C81C3246394678
:100D400012F026FA38480078002804D008212548F7
:100D5000007812F027FCF8BD08B53021032004F01C
:100D600017F95021042004F013F93C21012004F06C
:100D70000FF9012000906A460121324803F064FC1B
:100D800008BD08B52021032004F002F93021042019
:100D900004F0FEF80521012004F0FAF8012000908B
:100DA0006A460121274803F04FFC08BDF8B5044608
:100DB0000D4616461F4609480078042847D11A48B0
:100DC0000078002850D00D4800780D4909788842F5
:100DD0004AD13B4632462946204635E00D420020A6
:100DE000983A00000C4200201042002014420020DB
:100DF000184200204742002039670020244200208A
:100E000025420020C06600202842002034420020F5
:100E10006869642069646C65206576656E742E2E41
:100E20000A000000124200200E4200206D0B00005C
:100E300014040000DB090000D90900001C42002056
:100E40002042002005030000FFF725FEF8BDF7480B
:100E50000078022808D0FFF72AFF002802DDFFF7FC
:100E600090FF01E0FFF778FF3B46324629462046D7
:100E7000FFF728FF00BFE9E708B5EC480078042831
:100E800004D1EB48008803F0A5FC06E000200090A8
:100E90006A460121E74803F0D7FB08BD10B50346B9
:100EA0000C46002B01D0082A01DD002010BD0021D6
:100EB00006E0585CA04201D00020F7E7481CC1B210
:100EC0009142F6DB0120F1E7F8B504460D46002615
:100ED000002C37D1002D33D1D74A51781078FFF745
:100EE000BEFD071E18D0D44882780021C01CFFF731
:100EF000D5FF00280BD1D04882780021C01C12F009
:100F000019FACD4A91783888D21CFFF77EFD0B2262
:100F10000021C94812F00EFAC4480078042803D111
:100F2000C348008803F056FC0020C4490870C44937
:100F30000870002211464120000102F08BFF00E002
:100F4000182601E0022600BF00BF3046F8BD024669
:100F5000002000BF022000BF00BF704770B50446EC
:100F60000D462A462146B248008802F073FD70BD46
:100F700010B50246B3480168B34803780CE008880E
:100F8000904206D18879B14C2478A04201D108461C
:100F900010BD581EC3B20831002BF0DC0020F7E76B
:100FA000FFB585B00D461E460020049068680078A5
:100FB000696849780902084304460E98002805DD4F
:100FC000A348844202D00B2009B0F0BDA048801C89
:100FD00084420AD09E482938844206D09C48193859
:100FE000844202D0401C844218D16889FFF7C0FFB8
:100FF000039000280FD0079800960190039841793C
:1010000000790290934800680123224607680298FD
:10101000B847049050E0002030804DE08C48844276
:101020001DD18D4909880E98884202DB0720049063
:1010300042E0894801880E98091A0F98814201DD23
:101040000F9803E0844801880E98081A308032888F
:10105000EB680E981918079812F09AF82CE07C4863
:10106000401E844207D1042030800422E96807989A
:1010700012F08EF820E07948844207D102203080B7
:101080000222E968079812F083F815E07048C01C46
:10109000844206D101203080E86801780798017009
:1010A0000AE06E48401E844206D1022030800222AF
:1010B000E968079812F06CF80498002801D1FFF74E
:1010C000A3FC049880E702465E4801685E48037806
:1010D00007E04888904201D108467047581EC3B2C5
:1010E0000831002BF5DC0020F7E7FFB585B014468A
:1010F000002004900E98002802DD0B2009B0F0BDFE
:1011000006984068057806994968497809020D43B0
:101110004F48801C854203D04D481938854214D170
:1011200006994889FFF724FF061E0DD008A80194F0
:1011300000907179307903904648006800232A4670
:1011400007680398B84704908CE04148401C8542EA
:101150001BD16846008C012814D12078002802D0C9
:10116000207801280BD12278002A01D0012200E04A
:1011700000221046374A12685168884772E0802082
:1011800004906FE00D2004906CE03448801F85428D
:101190002BD101210E98019100906846038C2246C4
:1011A0000699059804F076F804900498002859D11F
:1011B0002078617809020843039006994889FFF76F
:1011C00082FF061E10D008A801940090039A012AFD
:1011D00001D1022200E003221346717930791D4AC1
:1011E000126817682A46B8473CE01948C01C854277
:1011F00038D16846008C012832D12078002802D0EE
:10120000207801280FD121780698C06801702278D3
:10121000002A01D1022200E0032210460D4A126882
:10122000516888471EE0802004901BE00D4200209A
:1012300010420020050300003967002025420020ED
:10124000244200201442002018420020474200207F
:101250004B2A00001C4200203C42002008290000CC
:101260000D2004900498002801D1FFF7CDFB0498CD
:1012700044E7F3B581B00C4681480668814901987E
:1012800088421ED0012C07D0022C1AD101210198CE
:101290000EF050F8002814D17B4805780FE07088D4
:1012A000002809D07088694604F032FA071E03D07E
:1012B000F968019803F088FF681EC5B20836002D52
:1012C000EDDCFEBD08B519218901032003F060FEA5
:1012D00019218901042003F05BFE0021012003F0A5
:1012E00057FE012000906A460121684803F0ACF9DE
:1012F00008BD10B504216648007812F037FB10BD18
:1013000010B5FFF7F6FF012162480088FFF7BBF92F
:1013100001216048008800F009FA01215D48008839
:10132000FFF7A7FF00205C49087001205B490870A7
:1013300000205B4908700B2200215A4811F0FAFF87
:10134000FFF7B5FC002808DD574800680079022146
:101350000840002801D0FFF7B5FF10BDF8B50446DE
:101360000D46042C0FD12E4670894A490880002072
:101370004949087000906A460121444803F064F925
:10138000FFF742FB12E04948007804280DD1042CF5
:101390000BD0FFF7B5FF46480078042806D1FFF7C9
:1013A000DBFC00204249087000E000BF41480068B3
:1013B00000280AD03F480068C068002805D03D4892
:1013C00000682946C2682046904738480470F8BD36
:1013D00070B506460C461546002C03D10120304955
:1013E000087019E0012C0AD100202D490870002D49
:1013F00002D10120284908702D4805700CE0022C0C
:1014000009D1002D08D10120234908702148008806
:1014100000F010F900E000BF27480078274909785C
:10142000884208D01C480078002804D008211848B9
:10143000007812F0B7F870BDFFB581B005460C46D4
:1014400016461C48006800280DD01A4800688068BD
:10145000002808D017480068876832462146284689
:10146000049BB84709E06946154802F061F900217C
:101470002046009A02F0EEFA00BF05B0F0BD000071
:1014800014420020FEFF0000184200200503000067
:101490000C420020104200200E4200204742002053
:1014A0001242002039670020204200200D42002017
:1014B000134200201C42002024420020254200202C
:1014C0000704000010B500243549364803F07CFEBF
:1014D000354B10221221354804F048F804463348B1
:1014E000C1690220FEF7DCFF3148007831490871FC
:1014F0002F48407848712D48C030408908802B48DB
:10150000D03040894880012088712B4801782948D3
:101510000173294841782748417328484089254963
:101520000881002123484181012181730146103146
:101530000320FEF7B5FF1F490320FFF7B3FB20464A
:1015400010BDF0B50546059C00201D4E9619002ED5
:101550000BD1032907D1012B03D12678194F3E70F7
:1015600002E00D2000E00A2000E000BF00BFF0BD57
:1015700030B50546039C1248101800280AD10329EB
:1015800005D11048007820700120188001E000206B
:10159000188002E00020188000BF00BF002030BD8E
:1015A0005C670020FFFF00007043002050420020D5
:1015B0004A420020446700204E4200205043002051
:1015C000B3D5FFFF4D42002010B5002462496348A7
:1015D00003F0FAFD624B10220621624803F0C6FFB9
:1015E0000446204610BD60490860704710B50346A8
:1015F000002000BF022000BF00BF10BD10B5024692
:101600000020002A02D0012A10D107E0574B1B7896
:10161000564C6478240223430B8009E0534B9B789B
:10162000524CE478240223430B8001E0022000BFE7
:1016300000BF10BD3EB504464749204603F088FF71
:101640000546E807C00F002821D0002003460122EC
:101650001B210090204604F031FB029002980028E4
:1016600014D0404850304189684681800121C180B2
:10167000002002990870002201A9204604F062F9B6
:10168000002803D01B2101A804F05EFB00BF3EBD73
:10169000F0B505AC70CC0020F0BDFFB583B00D46B1
:1016A00014461E46002002900C98002802DD0B20F4
:1016B00007B0F0BD686807786968497809020F4388
:1016C0002B4887421FD1042E1AD120786178090255
:1016D000084301902078617809020843009001993D
:1016E0000098884209DC32462146E86811F050FD36
:1016F00001201D490968884701E08020029013E01D
:101700000D20029010E01B4887420BD101210C985C
:1017100033462246019100902946039803F0BAFD12
:10172000029001E00A2002900298C1E770B50546D8
:101730000C460A48401E85420DD0012C07D0022CD1
:1017400009D1012128460DF0F5FD002803D10249F9
:10175000284603F039FD70BD6C670020FFFF0000D4
:10176000E8430020884300207C4300208143002080
:101770004F2A00000229000004488047044800471F
:10178000FEE7FEE7FEE7FEE7FEE700009517000034
:10179000910000005720F8490870A82008708820A0
:1017A000F549403908810020F3490870704700B5B9
:1017B000030008F059FD0D081A2C37414C56606A99
:1017C00075808B96A1005721EB4A1170A8211170EA
:1017D000E9492039C97B04229143E74A203AD17371
:1017E000C821E54A403A118187E05721E24A117049
:1017F000A8211170E0492039C97B04221143DE4A37
:10180000203AD173C821DC4A403A118175E0572152
:10181000D94A1170A82111705121C900D64A403A05
:1018200011816AE05721D44A1170A8211170D3495F
:10183000D14A403A118160E05721CF4A1170A82166
:10184000117081218900CC4A403A118155E057211D
:10185000C94A1170A82111708821C74A403A1181E4
:101860004BE05721C44A1170A82111700221C24ACD
:10187000403A118141E05721BF4A1170A8211170EF
:101880000421BD4A403A118137E05721BA4A11700C
:10189000A821117093218900B74A403A11812CE0A8
:1018A0005721B54A1170A8211170B4494D31B24A7F
:1018B000403A118121E05721AF4A1170A8211170DF
:1018C00095218900AC4A403A118116E05721AA4A75
:1018D0001170A82111704B21C900A74A403A11810B
:1018E0000BE05721A44A1170A8211170A3495C3163
:1018F000A14A403A118100E000BF00BF00219E4A8A
:10190000117000BD10B59C4840380089C4B2C02099
:101910002040802801D19A4810BDC0202040402896
:1019200005D1E106C90E974800F03EFEF4E7C0205D
:101930002040002805D1E106C90E914800F034FE90
:10194000EAE77D200002E7E757218B4A1170A821C2
:101950001170002808D188494039098952159143EE
:10196000854A403A118108E08349403909890122BA
:1019700052021143804A403A118100217E4A11707F
:10198000704757217C4A1170A8211170002808D196
:1019900079492039C97B04229143774A203AD1738F
:1019A00007E075492039C97B04221143724A203A65
:1019B000D1730021704A1170704770B56E4840387D
:1019C0000089C4B2C0202040802801D16E4D1FE0A4
:1019D000C0202040402809D1E106C90E6B4800F024
:1019E000CDFD012189034018C50B11E0C020204026
:1019F00000280CD1E106C90E654800F0D5FD012193
:101A000089034618F017400C8019C51300E005251E
:101A10002805000D70BDF8B504460D46224629463E
:101A20005726554F3E70A8263E700126BE74594B6E
:101A30004EE000BF504EB67C02273E40002EF9D04B
:101A40004D4E308A00BF4C4EB67C02273E40002EE1
:101A5000F9D100BF484EB67C02273E40002EF9D097
:101A6000454E308A5726444F3E70A8263E70884225
:101A70000ADD414E203EB689B6183F4F203FBE8159
:101A80000093461AB3B209E03B4E203EB689B61A1F
:101A9000394F203FBE8100930E1AB3B2009E9E4282
:101AA00016DA5726344F3E70A8263E70884207DD6E
:101AB000314E203EB689B61A2F4F203FBE8106E038
:101AC0002D4E203EB689B6182B4F203FBE8100E038
:101AD000AFE700BF5726284F3E70A8263E7000266D
:101AE000BE743E70F8BDF8B5FFF767FF00900027A1
:101AF0000026002423E0781C87B2254603200099A5
:101B0000FFF789FF1C4820388489A54206DD281B81
:101B1000032801DC012007E0002005E0601B03280A
:101B200001DC012000E00020002802D0701C86B2F9
:101B300000E00026032E01DC052F00DD00E0DAE7DF
:101B400000BF002734E0781C87B2254601200099A9
:101B5000FFF761FF084820388489A54206DD281B6D
:101B6000012801DC012018E0002016E0601B01289C
:101B700012DC012011E000004010004002020000D1
:101B80000048E80100389C1C1313000000180D8F5A
:101B900000688909FF0F00000020002802D0701C97
:101BA00086B200E00026022E01DC052F00DD00E0F9
:101BB000C9E700BFF8BDF7B584B00D46144618213B
:101BC000049800F0DBFC80B203901821049800F028
:101BD000D5FCE120C00041431E2068430818E10FF6
:101BE00009194910401887B20194E007C00F002876
:101BF00002D00120C00300E0002002903E463104E4
:101C0000029801430E46572077490870A8200870B3
:101C1000754940390398486373482038407C8021D7
:101C200008437149203948746F4840384663084674
:101C3000407C402108436C492039487400206A499F
:101C4000087007B0F0BDF0B585B004460D461646E5
:101C500065484038C06B8004800C0390624820388F
:101C6000408B029060482038008B01900298410020
:101C70000122D2030198904201DB012000E0002004
:101C80000F18E1210901384600F078FC01461822BE
:101C90000398504308182060E1210901384600F0FC
:101CA0006DFC00913C21009800F068FC28803C21EC
:101CB000384600F063FC318005B0F0BD57214A4A38
:101CC0001170A821117048494039486346492039AC
:101CD000497C40221143444A203A51740021424A2F
:101CE0001170704700BF40494039886B896B814251
:101CF000F9D1704757213C4A1170A82111703A4917
:101D00002039497C17229143374A203A51741146B1
:101D1000497C102202431143334A203A5174002176
:101D2000314A1170704700B50346FFF7DBFFC21858
:101D300090B2002802D00120000412182B488242E1
:101D400000D3121A572028490870A8200870264886
:101D50004038426324482038407C202108432249EF
:101D60002039487400202049087000BD0146002039
:101D70000022002A01D020221043CA07D20F002AD5
:101D800001D0102210435722174B1A70A8221A7044
:101D9000154A203A527C8243134B203B5A7400224E
:101DA000114B1A7070470146002905D10E482038A2
:101DB000007C8022104070470B482038007C402275
:101DC0001040F8E7002802D001280AD104E02021C1
:101DD000054A203A117405E01021034A203A117493
:101DE00000E000BF00BF7047401000400000C0A8E6
:101DF00000B50B0008F038FA050412202E38420016
:101E00009B4A526B82439A4B5A631A46126B824327
:101E10001A631A46126A82431A6230E0944A526B7D
:101E20008243934B5A631A46126B02431A631A4653
:101E3000126A82431A6222E08D4A526B02438C4B33
:101E40005A631A46126B82431A631A46126A824315
:101E50001A6214E0864A526B8243854B5A631A46D3
:101E6000126A02431A620AE0814A526B0243804BB3
:101E70005A631A46126A02431A6200E000BF00BFAA
:101E800000BD00B50B0008F0EFF905041424344040
:101E90004C00774A403252698243754B40335A6155
:101EA0001A46126982431A611A46126882431A60FE
:101EB00038E06F4A4032526982436D4B40335A6179
:101EC0001A46126902431A611A46126882431A605E
:101ED00028E0674A403252690243654B40335A61F9
:101EE0001A46126982431A611A46126882431A60BE
:101EF00018E05F4A4032526982435D4B40335A6179
:101F00001A46126802431A600CE0594A403252697C
:101F10000243574B40335A611A46126802431A6013
:101F200000E000BF00BF00BD002906D001290ED08F
:101F3000022916D0032928D11DE04D4A928A8243F6
:101F40004B4B9A821A46D26A0243DA621EE0484A32
:101F5000928A8243464B9A821A46926A02439A6256
:101F600014E0434A928A0243414B9A821A46D26A4B
:101F70000243DA620AE03E4A928A02433C4B9A826A
:101F80001A46926A02439A6200E000BF00BF384BD3
:101F900098831A46128A02431A827047002906D093
:101FA000012911D002291CD0032934D126E0304A5E
:101FB000D28A82432E4BDA822D4A4032D2680243C3
:101FC0002B4B4033DA6027E0294AD28A8243284BE0
:101FD000DA82274A403292680243254B40339A60A6
:101FE0001AE0234AD28A0243214BDA82204A403245
:101FF000D26802431E4B4033DA600DE01C4AD28A9D
:1020000002431B4BDA821A4A403292680243184B51
:1020100040339A6000E000BF00BF154BD8831A46DA
:10202000528A02435A827047002807D0104A803AE9
:10203000128B0A430E4B803B1A8306E00C4A803A0F
:10204000128B8A430A4B803B1A837047002807D0C3
:10205000074A803A528B8A43054B803B5A8306E0FD
:10206000034A803A528B0A43014B803B5A837047A4
:10207000801000400146062904D146480078082215
:10208000104070474348407901228A401040F8E7E9
:10209000572040490870A82008700846807901211F
:1020A00008433C4988710020087070473A49096824
:1020B00001600021C943384A8032116070473649B7
:1020C000086070473548806970475721314A117060
:1020D000A8211170002806D1114689790422914364
:1020E0002C4A917105E02B49897904221143294A30
:1020F00091710021274A117070475721254A1170AC
:10210000A8211170002806D1114689790222914335
:10211000204A917105E01F498979022211431D4A25
:10212000917100211B4A117070475720194908709E
:10213000A820087008468079102108431549887145
:1021400000200870704710B500210AE0022201E06B
:1021500000BF00BF1346541EA2B2002BF8D14B1C87
:1021600099B28142F2DB10BD30B50446002505E08E
:102170007D20C000FFF7E7FF681C85B2A542F7DBB2
:1021800030BD00BF064AD27A082AFBD0044B187231
:10219000704700004010004000E100E000E000E077
:1021A0000034004070B50446FFF7ACFB0A214843F9
:1021B000C6082146304600F0E1F905460A21681DAF
:1021C00000F0DCF9054628498D8170BD10B5E1208D
:1021D0004002FFF7E7FF8720234988700320C8707B
:1021E000402048700120887310BD1F498978C022A3
:1021F0009143820111431C4A9170704700280BD013
:10220000194A52780A43184B5A701A461278082312
:102210001A43154B1A7004E0134A52788A43124B42
:102220005A707047802010494870704710B50A46B0
:1022300009E00D4BDB7A082B05D003780A4C23729A
:10224000401C531E9AB2002AF3D110BD0146002053
:1022500005E0054A127A0A70491C421C90B2024AF3
:10226000927A002AF5D170470034004030B58DB025
:10227000122280A1844810F07DFF002804D183A0A1
:1022800007F0CAFF00BFFEE7572085490870A82065
:1022900008705120C00082494039088100208049DF
:1022A0000870804D681E411C884200D90CE0681EF1
:1022B0007D4948610321081F00F0A4F800207A49F5
:1022C00088610720086100BF7748006902218843C0
:1022D0007549086134220021684611F02BF87348D3
:1022E00000900121490368468180714802900121D4
:1022F000684681731B21C1730A2101740121417455
:10230000152181740D2101776A48089000980028F2
:1023100005D06846808801210903884201DA00BFA0
:10232000FEE7684601F0AAF80446002C04D062A03B
:1023300007F072FF00BFFEE70DB030BD70B5064676
:102340000C460120C003204000280DD0304611F07B
:1023500035F80546002D02D0284611F007F8204632
:102360000121C903484070BDE007C00F002803D019
:10237000204601214840F6E7012080032040002844
:102380000FD052A007F048FF7D22D201012189031E
:102390004F48007811F088FA20460121890348400F
:1023A000E1E70020DFE710B54A4807F077FE48492B
:1023B000087000F0B7F862B610BD10B501F004F86F
:1023C00010BD30B5364CE17E227E637EE47E8025F2
:1023D0002C43334DEC760F242C7621246C762C463E
:1023E000A47E01252C432E4DAC7600BF2C4CA47E40
:1023F000E407E40F002CF9D1294CA08BE17622767A
:10240000637630BD10B5002819DA334A03071B0F75
:10241000083B9B089B00D2588307DC0EFF23A34098
:102420009A438B071B0E8407E40EA3401A432A4BE2
:102430000407240F083CA408A4001A5118E0274AF6
:1024400003231B02D21883089B00D2588307DC0E9B
:10245000FF23A3409A438B071B0E8407E40EA3407F
:102460001A431E4B032424021B198408A4001A518A
:1024700010BD000043483537785F424C455F4C49FA
:10248000425F56312E330000C03B01006865616435
:102490002066696C65206572726F722E2E2E0A009E
:1024A00040100040FFFFFF0000E000E0B0460020C9
:1024B00000E60300C52000004C494220696E6974A3
:1024C000206572726F722E2E2E0A00002A200000E4
:1024D000F44300203D2300001CED00E000E100E09B
:1024E00081B2002902D001210904401857211F4A56
:1024F0001170A82111701D494039486300211C4A00
:102500001160704710B53020184920390874012037
:102510001749086017480068002802D0154800686D
:10252000804710BD10B5FFF7DEFA002211461046B5
:10253000FFF741FB012007F01FFE0E4908605720FE
:102540000A490870A820087008482038407C2021DB
:1025500008430649203948740020044908700C20BB
:1025600001218140044A116000BF10BD40100040AD
:10257000F8430020FC43002000E100E030B50B46AA
:10258000014600202022012409E00D46D5409D424D
:1025900005D31D469540491B2546954040191546D3
:1025A000521E002DF1DC30BD70B5002425460028F8
:1025B00001DA01244042002901DA01254942FFF7EE
:1025C000DDFFAC4200D04042002C00D0494270BD3B
:1025D000F0B51FB486B000200090019002900698DC
:1025E000069980B204900798090C02040014114364
:1025F00007900027089D099806913E463C460390A7
:102600000398A9B20204000C039004982D0C154302
:1026100048430021224600F018F8C71971411034D0
:102620000E46402CECDB3846029A00F00EF8009A79
:10263000019B80180090594102980191103002903E
:102640004028CCDB00980BB0F0BD10B5202A04DB8D
:102650000146203A9140002010BD914020239C1A51
:102660000346E3401943904010BD03460B439B07CC
:1026700003D009E008C9121F08C0042AFAD203E0F7
:102680000B780370401C491C521EF9D270470000A1
:10269000064C0125064E05E0E36807CC2B430C3CB5
:1026A00098471034B442F7D3FDF7F6FCB83F010069
:1026B000D83F010070B58C180578401C6B075B0F84
:1026C00001D10378401C2A1106D10278401C03E096
:1026D00006780E70401C491C5B1EF9D12B0705D4EF
:1026E0000023521E0DD40B70491CFAE70378401CDE
:1026F000CB1A921C03E01D780D70491C5B1C521E06
:10270000F9D5A142D8D3002070BD000070B50D46A8
:1027100001461446104600F04DFF0E4830C003F04D
:1027200099FF002000F0AAFD012407F0A7FB07F0A5
:1027300087FB06F057F9204600F0A0FD641CE4B2C8
:102740000A2CF2D307F09AFB07F07AFB0A2000F07C
:1027500095FD70BDA446002010B5124C2068C00540
:102760001FD50320206000200821401C2268C0B231
:102770000A4322600EE02268920510D4222807D96D
:102780000948026B002A0AD001210320904706E085
:10279000401CC0B22268D205EDD50028E5D100204A
:1027A000206010BD80C3004094670020F8B5144637
:1027B0000D460646FFF7D0FF504F3B6818680621CC
:1027C000884318607178307809024018B178F2783F
:1027D0000904120689184018986271793079090243
:1027E0004018B179F2790904120689184018D862A4
:1027F000717A307A09024018B17AF27A0904120625
:10280000891840181863717B307B09024018B17B2E
:10281000F27B0904120689184018586369782878F1
:1028200009024018A978EA780904120689184018A4
:1028300098616979287909024018A979EA79090427
:10284000120689184018D861697A287A0902401856
:10285000A97AEA7A09041206891840181862697B75
:10286000287B09024018A97BEA7B09041206891813
:102870004018586258680221884358605A680120FD
:1028800002435A601A6802431A6058688007FCD5F0
:102890005868884358609869207038688069000AD1
:1028A000607038688069000CA07038688069000E1C
:1028B000E0703868C1692171C169090A6171C16933
:1028C000090CA171C169090EE171016A2172016AE5
:1028D000090A6172016A090CA172016A090EE172AA
:1028E000416A2173416A090A6173416A090CA17343
:1028F000406A000EE0730020F8BD0000184600207A
:1029000070B50C460546FFF727FF1C4802681068A3
:1029100020218843E907890E084310608034A06CA9
:102920001061E06C5061A0699061E069D061206A3B
:102930001062606A5062A06A9062E06AD062206BA6
:102940001063606B5063A06B9060E06BD060D068E8
:10295000E16B88420AD11069A16C884208D008480E
:10296000026B002A02D0022103209047012070BD93
:102970001068402108431060002070BD18460020F8
:102980009467002070B50C460546FFF7E5FE1C482D
:102990000268106820218843E907890E0843106007
:1029A0008034206C1061606C5061A0699061E069B6
:1029B000D061206A1062606A5062A06A9062E06A28
:1029C000D062206B1063606B5063A06B9060E06B13
:1029D000D060D068E16B88420AD11069216C8842CE
:1029E00008D00848026B002A02D00321084690470D
:1029F000012070BD1068402108431060002070BDA8
:102A0000184600209467002010B504F0FFFB02492F
:102A100003F09BFA002010BD0604000010B50DF075
:102A200079FB10BD08B5002808D0002906D0002A7F
:102A300004D01088002801D0002008BD122069466B
:102A400008706A460121034803F07BFA694608785A
:102A500008BD0000350C000008B504F05FF86946B9
:102A600008706A460121034803F06BFA694608784A
:102A700008BD00001120000008B504F01DF96946EA
:102A800008706A460121034803F05BFA694608783A
:102A900008BD000010200000FEB508AF70CF6F46E3
:102AA00070C704F02FF90446024903F04EFA20469D
:102AB000FEBD00001320000008B504F097FB694636
:102AC00008706A460121024803F03BFA002008BD65
:102AD0000E20000038B5044604F082FD69460870F7
:102AE0004C70200A88706A460321024803F029FAD4
:102AF000002038BD1B20000038B5044604F084FDDA
:102B0000694608704C70200A88706A4603210248A2
:102B100003F017FA002038BD1A2000000EB500A8F7
:102B2000013005F0FCF8694608706A460921024840
:102B300003F007FA00200EBD1820000008B500A819
:102B4000013004F0CFFC694608706A46042103484E
:102B500003F0F7F96946087808BD0000022000007C
:102B600038B5044605F036F9694608704C70200AFD
:102B700088706A460321024803F0E3F9002038BD5B
:102B8000212000007FB5044608A861C80090029685
:102B90000195204605F036F9694608734C73200A02
:102BA000887303AA0321034803F0CBF9002004B083
:102BB00070BD00002020000008B505F0DBFB694671
:102BC00008706A460121034803F0BBF9694608789A
:102BD00008BD00000820000008B505F045FB694667
:102BE00008706A460121034803F0ABF9694608788A
:102BF00008BD00000A200000F0B585B00AACF0CC9A
:102C000003976F4670C705F0D5FB6946087404AAA0
:102C10000121034803F095F96946087C05B0F0BD31
:102C20000620000008B505F01BFC694608706A46DE
:102C30000121034803F085F96946087808BD0000C2
:102C40000520000008B505F049FC694608706A4691
:102C50000121034803F075F96946087808BD0000B2
:102C60000C20000008B505F07DFC694608706A4636
:102C70000121034803F065F96946087808BD0000A2
:102C80000920000010B505F0D4FC024903F05DF9FD
:102C9000002010BD1920000070B50D4604F03EFA6A
:102CA000040006D0294604F04DF94034207200207B
:102CB00070BD122070BD00001CB500A8013005F0E9
:102CC0003DF8694608706A460721034803F039F960
:102CD000694608781CBD00000910000010B5D2B28A
:102CE00005F044FA10BD0A7802708A7842704A886A
:102CF000120A82700979C170042070470A78027044
:102D00000988090A41700220704708888004000C75
:102D100070478A78027088780128088804D01221C8
:102D20004843401C80B270478000FAE70A7802707E
:102D30000A88120A42704888801C80B270470A785C
:102D400002700A88120A42708A7882704A88120ACF
:102D5000C2708888001D80B27047088870478A78E2
:102D60000270088849884843401C80B270478A78BE
:102D70000270088849884843401C80B27047088820
:102D80007047088870477FB515460446022901D070
:102D9000102903D1022B04D0102B02D0002004B044
:102DA00070BD994202D10A46294607E010296946BA
:102DB00007D000F00DF810226946284610F0DAF925
:102DC000EDE7104600F004F8102269462046F5E7CA
:102DD00070B50C4605000CD0002C0AD01022064914
:102DE000204610F0D5F928782073687860730120A8
:102DF00070BD002070BD0000683C010008B50022D5
:102E00000B4600920122024907F0F8FA08BD0000C3
:102E1000E72C000008B50A88172A07D300220B46C2
:102E200000920322024907F0E9FA08BD022008BD1A
:102E3000FD2C000008B500210B461922009107F077
:102E4000DDFA08BD38B5054608880C4600280DD0C7
:102E5000606800280AD0012110F048F9009023464C
:102E600007220349284607F0C9FA38BD022038BDB9
:102E70000B2D000038B5054688780C46012801D096
:102E8000022810D1208800280DD0606800280AD0C0
:102E9000022110F02BF90090234605220349284611
:102EA00007F0ACFA38BD022038BD0000132D000039
:102EB000064910B5884202D103F05CFC10BD0CF04D
:102EC00089F90028FAD1172010BD0000FEFF00008C
:102ED00038B505464A6800200C46002A03D0032175
:102EE000104610F003F9009023461D22024928469F
:102EF00007F03FFA38BD00002D2D000038B505461B
:102F00004A6800200C46002A03D00321104610F026
:102F1000EDF8009023461B220249284607F029FAC3
:102F200038BD00002D2D00000248002101604160E5
:102F3000704700002C4600200098022B01D004208E
:102F400070475178127809021143018000207047C0
:102F50000098012B01D004207047117801700020E7
:102F6000704770B5049C1E461546062B1BD3687827
:102F70002978000208432080E878A97800020843F5
:102F80006080022020710246291D601D10F000F9AA
:102F9000B01F2081062E03D0AD1DE560002070BD5E
:102FA0000020E060FAE7042070BD0098042B01D0F7
:102FB0000420704751781378090219430180D178B1
:102FC000927809021143418000207047F8B5848946
:102FD0000D46002C2BD086683778390601D40020A6
:102FE00010E00D2C23D30C3CA4B231190091408881
:102FF00023463246012106F0AAFE002801D0022015
:1030000000E0012079062870C90FBA066970920E97
:10301000AA70641E2204120CAA8002D0761CAE6034
:1030200001E00022AA60022803D1002901D001207A
:10303000F8BD0020F8BD10B50298042B14D35178C8
:103040001478090221430180D17894780902214340
:103050004180191F8180042B02D0121D826001E083
:1030600000218160002010BD042010BD0098042BB9
:1030700001D0042070475178137809021943018068
:10308000D17892780902114341800020704710B531
:1030900002981146062B03D0142B03D0042010BD38
:1030A000022200E0102202714A780B7812021A43C1
:1030B0000280CA788B7812021A4342800279401D3E
:1030C000091D10F065F8002010BD0098D90706D141
:1030D000022B04D059088180026000207047042030
:1030E00070470098022B01D0042070475178127865
:1030F0000902114301800020704710B5029C022B89
:1031000011D3207261725078117800020843208038
:10311000981E6080022B02D0921C626001E00020A9
:103120006060002010BD042010BD000038B50546C9
:1031300088680C46002802D005210FF0D7FF0090C8
:10314000234617220249284607F058F938BD0000E7
:103150003F2D000038B5054648680C46002802D0CF
:1031600001210FF0C3FF009023460D22024928469B
:1031700007F044F938BD00005B2D000038B5054666
:1031800008880C4600280DD0606800280AD002216B
:103190000FF0ACFF0090234611220349284607F0A8
:1031A0002DF938BD022038BD5F2D000038B5054629
:1031B00008880C4600280DD0606800280AD002213B
:1031C0000FF094FF0090234609220349284607F098
:1031D00015F938BD022038BD6F2D000038B5054601
:1031E00048680C4600280AD001210FF07FFF0090AC
:1031F00023460F220349284607F000F938BD022074
:1032000038BD00007F2D000038B505464A68002013
:103210000C46002A03D0012110460FF067FF0090F2
:1032200023460B220249284607F0E8F838BD000083
:10323000832D000001490860704700002C460020E3
:1032400070B5054608480C46854205D0172C03D3B7
:1032500003F090FAA04201D2012070BD2146284619
:103260000CF078F870BD0000FEFF000008B50021EA
:103270000B461322009107F0C1F808BDF0B50D4AC6
:10328000002180000C4D1668844662465218930057
:1032900000208A0092191F18145CEF5D7C401454C2
:1032A000401CC0B20428F6D3491CC9B20429ECD38F
:1032B000F0BD0000A44600205C6A00200748417968
:1032C000FF2901D1252141710548C9B201430548B3
:1032D000006801600449C16270470000E467002093
:1032E000802208011C460020384E010010B58006DF
:1032F0000A49800E0A4A487110684468FF23013366
:103300009C434460487907490843074909680860B5
:10331000106841681943416010BD0000E467002057
:1033200024460020802208011C4600208006044913
:10333000800E4871034908430349096808607047D3
:10334000E4670020C02208011C46002010B5114986
:10335000FF204871114A10481060124A104810604E
:10336000124A11481060134A11481060134A12485B
:103370001060134C01222068D202C86080180861D6
:1033800000F0F6F8607D002802D10E492020086088
:1033900010BD0000E467002000C00040204600206F
:1033A00000C300401846002000C200401C4400201A
:1033B00000D000402446002000C100401C460020F0
:1033C0009467002000E100E0F0B5294800688168BA
:1033D0005D27890700250126264C002906DA816829
:1033E000022291438160E670A57007658168C90774
:1033F00005D0816849084900816025706670816840
:10340000C90512D58168FF2201329143816021787C
:10341000490605D5184B996BA1609A6B9142FAD178
:10342000217831432170657007658168890508D569
:1034300081680122520291438160A1783143A170D9
:10344000E5708168C90603D58168102291438160C7
:103450008168490703D581680422914381608168AE
:10346000090703D58168082291438160F0BD0000FF
:103470001C440020E46700200010004070B53B4D64
:103480000446687D002805D1016D406D814201D15F
:10349000012070BD2068002822D00121000C4903C2
:1034A00088421DD1A08800281AD020460622FF217C
:1034B00016300FF050FE012814D0A2880021206899
:1034C0000FF038FF3422002128480FF033FF342258
:1034D000214626480FF05CFEA889002804D006E0AB
:1034E000022070BD032070BD01204002A881A87B8E
:1034F0000126002800D1AE73E87B002801D11B20F3
:10350000E873287C002801D10A202874687C0028F0
:1035100000D16E74A87C002801D11520A874A87F62
:10352000002801D12820A877E87C002808D0A97FAE
:10353000E07C49084018E874607F002804D005E06A
:10354000A87F40085030F6E704206877A86A002872
:1035500003D0804705493431C880E86A002800D08C
:103560002E7506F051FD002070BD0000946700200C
:1035700010B500F07BF803F061FA05F075FAFFF77B
:103580009DFE0A4C5D202168086505F037FB06F0BA
:1035900053F905F0FBFA05F0CDFA21680020086523
:1035A0000349C871FFF7D8F810BD00001C44002083
:1035B000E467002000228B5C8354521CD2B2102A94
:1035C000F9D3704770B50E4B00209989002901D1BD
:1035D0000C4999810E210124A4039A89154625409E
:1035E000CD405204120C0543E8B25604D50BF60F39
:1035F00075401543491EC9B29D810629EDD870BD9D
:10360000A0690020FF7F000070B50E4B0020598993
:10361000002901D10C49598108214C015A891546CC
:103620002540CD4005435200E8B2550A5609754081
:10363000ED07ED0F1543491E09065D81090EEDD119
:1036400070BD0000A0690020FF01000000220AE018
:10365000022101E000BF00BF0B46491E89B2002BCA
:10366000F8D1521C92B28242F2D370470A480949FB
:103670000068CA680261CA68426109698161C16102
:103680008268012149030A438260C2680A43C2601A
:1036900070470000E46700202046002030B5104A43
:1036A0000346517AFD208C2454720E4CA568002DDF
:1036B00007D0A57B002D04D0A489E51FFF3DFA3D6E
:1036C00002D05172FF2030BD3F242403A34205D213
:1036D0005360A6201072907A40235840517230BD3A
:1036E0000018004094670020F8B500240F4E2746CC
:1036F00013E0B06B250128180622FF210FF01AFEF7
:10370000B06B06222818FF21801D0FF013FEB06B4E
:1037100028188781641C8773E4B2B07D8442E8D3A3
:1037200000200FF051FFB07DF075F8BD84450020FA
:1037300070B50C460146012080020A1A0025264871
:10374000130006F091FD160C0E111315181A1C1E0D
:10375000202224262D2F313F3436383A3C3F007842
:1037600000E04078207035E08078FBE7C078F9E72A
:1037700010221A4910E00079F4E74079F2E7C069B5
:1037800013E08079EEE7C079ECE7007AEAE7407A67
:10379000E8E712491022103120460FF0F9FC19E039
:1037A000807ADFE7C07ADDE7006A206012E0007B04
:1037B000D8E7407BD6E7807BD4E7407CD2E707F0B0
:1037C0003FFBCFE7192904D2084601F08BF920808E
:1037D00000E00225284670BD8445002004690020D1
:1037E00010B5044600F0D4F80248447507F062FCB6
:1037F00010BD000084450020FFB58FB006460020B4
:103800000C900D901F460CAA304600F087FA454DEB
:103810000446A87D84425AD2204607F02BFC064677
:10382000042F04D0A879022803D0002002E02878D1
:10383000F9E7012000903B4632462146119807F0F7
:10384000D7FA1422002101A80FF074FD20460621AA
:10385000484300902430C0B201AA10210FF02EFF7F
:10386000002813D11022FF2101A80FF074FC0028BA
:103870000CD1009805AA2530C0B204210FF01EFF1C
:10388000F107C90F01AA119801F092FB7034E0B260
:1038900006AA18210FF012FF002811D106A807F080
:1038A000FBFB0024A10006A808180188002903D00A
:1038B0008278119801F0B8FE641CE4B2062CF1D3B2
:1038C000B00706D5697D119801F09CFE01E0082F34
:1038D00002D0042F13D021E0A87902281ED10022A3
:1038E0003146119807F0BEF9686A002816D043687F
:1038F000002B13D000221146119898470EE028782B
:1039000002280BD129791198002900D001216A7869
:10391000002A00D00422114301F01AFB002013B04A
:10392000F0BD000084450020F8B501F06DF90028D5
:103930002BD1164D0026A87C012801D000241CE0C4
:1039400007F0CAFAAE740020AA7DA96B04E0030157
:103950005B18401C9E73C0B29042F8D310E0A86B75
:1039600027013818807B012805D1204607F0C6FAC8
:10397000A86B38188673641CE4B2A87D8442EED329
:1039800050200FF04DFE07F095FBF8BD8445002058
:10399000F8B52B4CFF2060750025A575294EA56351
:1039A000B068002818D0B07B002815D0B189CA1F94
:1039B000FF3AFA3A10D13021484342210FF004FC7B
:1039C000A063002808D0A17D0A0100210FF0B2FCFD
:1039D000B07B41004018A075A07DE07501262563ED
:1039E00026706570A570E5701022002116480FF052
:1039F000A1FC257177276771E561A671E571124811
:103A0000257265721022002110300FF093FCA57210
:103A1000E77225622573052060731020A073E5739B
:103A2000022020746562A562E5626574A57404488D
:103A3000E674267505493C30016005494160F8BDD2
:103A400084450020946700200469002035B30000FD
:103A5000FDB2000070B50024054600290BD10849CD
:103A60001046FEF78BFD0846294601F029F90400AF
:103A700003D00121284601F0C3FA204670BD0000A2
:103A800040420F0010B506490C463C3C6162A06202
:103A9000617D182001F07CFA607D01F061FD10BDB0
:103AA000C045002070B5264D0C4608040FD5687D32
:103AB0000FF084FC050006D007F092FB002802D02E
:103AC00028460FF053FC0120C003604070BDA007E2
:103AD0000BD50021084607F02BF802214C400028A6
:103AE00025D1687D0FF05EFD1FE0E00721D0286B37
:103AF000808807F0A7FB01214C40002817D0686A96
:103B000000280DD04368002B0AD0286B0022808843
:103B10009847696A286B00224B6880880321984780
:103B2000E87C0FF0A3FD06F0F5FF204670BD0121F3
:103B3000D7E7600702D50420484070BD002070BD63
:103B4000844500207FB504468078734D801F0300B4
:103B500006F08AFB0ADCDFDF8E1306D8DF62A3DF04
:103B6000696A2046002907D00C68002CFBD0437BF3
:103B7000027B4189C01CA047CBE06078002600286A
:103B800031D1A079C0072ED0286B00282BD110226C
:103B9000002168460FF0CEFB6169002903D00622A0
:103BA0006846103107E0A0880BF040FA0028E3D007
:103BB000811D062268460FF0EBFA69468889A179D3
:103BC0004907C90F08436946888107F039F9A97D7B
:103BD000884201D1FFF788FD2146684606F0A8FF1C
:103BE000002812D01526686A002855D04368002B9B
:103BF00052D06278A08801219847002E4CD0696A83
:103C0000A0884B683246032173E00221687D0FF0E3
:103C1000C9FC002004B070BD6078062817D1A088C8
:103C20000BF004FA060012D0287C012804D00228E8
:103C300008D003280BD114E07179A088002207F086
:103C400011F804E0A1883078052201F0E9F9686AEA
:103C500000285ED04368002B5BD06278A0880221E8
:103C600047E0002241201146000100F0F3F8E9E7A7
:103C7000E0780022211D00F051F8A97D884248D249
:103C80000621484325302246C0B20C3204210FF0F1
:103C900061FDE87C0FF0EAFC3BE0287B002802D0C5
:103CA000A088697B28E028780028A08823D00BF022
:103CB000BDF906002DD0A07AC0070BD0707900287E
:103CC00008D0A189890505D46A46B11D00F026F8FF
:103CD000002814D022467179A088083206F0C2FF6D
:103CE000686A002815D04368002B12D00022A088F3
:103CF000114698470DE0052101F082F909E0A088FE
:103D00000321F9E7A08800F007FA02E0A088FFF796
:103D10000BFE01207EE7000084450020F0B52E4E0A
:103D200085B0B47D15460F46002806D0012804D082
:103D3000022811D003284BD121E0084607F052F9A0
:103D4000B17D0446884243D2002D41D00622394637
:103D500028460FF01DFA3BE000240BE0B16B200178
:103D6000401806223946801D0FF004FA002826D19B
:103D7000641CE4B2B07D8442F0D3C4B21FE00024DE
:103D800019E02046062148432330C0B26A4610217C
:103D90000FF094FC00280CD11022FF2168460FF090
:103DA000DAF9002805D13946684601F09FF8002865
:103DB00005D0641CE4B2B07D8442E2D3DDE7B07D7F
:103DC000844205D2002D03D02946204607F032F95F
:103DD000204605B0F0BD000084450020F8B50E4631
:103DE00019491525194F884214D1002409E032469B
:103DF0000221204607F03EF8002800D00025641C70
:103E0000E4B2B87D8442F2D3002E1BD010480BF0F0
:103E100029FA17E00BF00AF9040012D060790022A9
:103E2000A11DFFF77BFFB97D884204D232460221F3
:103E300007F020F80025002E04D0204607F06CF98A
:103E400000E014252846F8BDFFFF0000844500204F
:103E500019B10000F0B50746012080021546381A56
:103E600089B00024A84AA94E030006F0FDF91E10EF
:103E7000171E252C32393E454C535A616A71767DA6
:103E8000FDFCFBFAF9F88AF7F6ABABD6D9F90129B4
:103E900073D12878022870D8307031E10129F7D128
:103EA00028780128F7D870702AE10129F0D1287804
:103EB0000428F0D8B07023E10129E9D1287801283D
:103EC000E9D8F0701CE11029E2D11022294690486F
:103ED00034E00129DCD128780128DCD830710FE1E9
:103EE0000129D5D1287870710AE10429D0D1286838
:103EF0009042D0D8F06103E10129C9D12878022885
:103F0000C9D8B071FCE00129C2D128780128C2D8F3
:103F1000F071F5E00129BBD1287804282DD8307242
:103F2000EEE0012929D12878012826D87072E7E02F
:103F3000102922D176481022294610300FF028F996
:103F4000DEE0012919D12878012816D8B072D7E00F
:103F5000012912D12878F072D2E004290DD1286805
:103F600090420AD83062CBE0002906D100F04CFE26
:103F7000002803D00120B074C2E076E006F0ACFF68
:103F80001CE0072971D10622691C68460FF000F970
:103F9000287800226946FFF7C1FE0546B07D8542BC
:103FA00039D200F031FE002805D0B26B0120290182
:103FB00089188873A4E0284606F0A0FF50200FF06F
:103FC0002FFB81E0072950D10622691C07A80FF0BA
:103FD000DFF82878002207A9FFF7A0FEB17D88420C
:103FE00019D20621484305462135E8B26A461C210C
:103FF0000FF064FB00280ED14648874201D1012012
:1040000000E0FF206946C876E8B26A461C210FF03E
:10401000A1FBF07C36E0022472E0002030756FE0F6
:104020000027012030753D4624E0284606214843FC
:1040300006462136F0B26A461C210FF03FFB0028ED
:1040400016D16846C07EFF2812D0FF206946C87688
:104050000127F0B26A461C2108E046E03EE036E067
:1040600045E028E01FE017E00FE039E00FF072FBB9
:104070006D1CEDB22548807D8542D6D3002F3FD000
:104080002248C07C0FF0F2FA3AE0012928D12878C2
:10409000012825D8307333E0012921D12878092857
:1040A0001ED870732CE001291AD12878C11F092964
:1040B00016D8B07324E0012912D1717C287870746D
:1040C00000291DD101281BD106F0F4FF18E00129B9
:1040D00006D12878032803D8307411E0012901D0D3
:1040E00018240DE02878F0740AE00120CAE7192F9F
:1040F00091D202298FD12988384600F049FF044621
:10410000204609B0F0BD00003F420F00844500206A
:10411000046900201A040000FEB506460020019044
:10412000029030460AF082FF040017D0144FB8798D
:10413000022813D0607901AAA11DFFF7EFFD054603
:10414000B87D85420BD2284606F094FF0246012036
:10415000009008232946304606F04AFEFEBDB87995
:10416000002807D00128F9D161790022304606F0F5
:1041700079FDFEBD0521304600F042FFFEBD000086
:1041800084450020F7B516491525164E1746884276
:104190000FD1002409E03A462046019906F0C6FFF7
:1041A000002800D00025641CE4B2B07D8442F2D324
:1041B00013E00AF03BFF00280ED04379811D002256
:1041C0001846FFF7ABFDB17D884206D23A46019909
:1041D00006F0ACFF002500E014252846FEBD0000D7
:1041E000FFFF00008445002070B50C460146032007
:1041F00000020A1A00252548130006F035F8130BB3
:104200000D10171A1E2125292B2D3133393B3D3D29
:1042100035373D00407811E010221D4902E01C496D
:104220001022103120460EF0B3FF2DE040692060CF
:104230002AE0164906221E31F4E7C078207023E0F8
:10424000124982782431EDE7114902791F39E9E7F3
:10425000407AF3E7807AF1E70C4906221831E1E76A
:10426000C07AEBE7007BE9E7C0890AE0008A08E052
:10427000007AE3E74079E1E7192904D2084600F023
:1042800031FC208000E00225284670BDC845002092
:1042900043690020F8B5164CFF202070002565709A
:1042A0000320A0700126E670062765611920E781CA
:1042B000C001208220461F22294624300FF03AF800
:1042C00020460221243001704670877025711F221C
:1042D000002108480FF02EF8204606220021183051
:1042E0000FF028F86571A571FF20E071F8BD00009E
:1042F000C845002024690020FFB583B01C46154640
:104300000E460C9F03980AF091FE002817D0C18931
:10431000B14207D3A94205D8018AA14202D1408AFD
:10432000B8420ED06846068045808480C7806946C2
:104330000D9A039802F0F0F9002007B0F0BD1420A8
:10434000FBE71820F9E7000010B52548007F80073B
:1043500044D0244C2078FF2840D1234805F09EFE0D
:104360002070FF283AD0214900240C602049214ABE
:104370000C700421117000F0B3FD102200211E48C2
:104380000EF0D8FF102200211C480EF0D3FF1C486D
:104390001E4904601B48184A04701B48047007201B
:1043A00008701B481021047002200FF087F9134A8F
:1043B000102103200FF082F910220F4915480EF04A
:1043C000E7FE144810220D4910300EF0E1FE0421E2
:1043D0000B4A08460FF072F9002010BD182010BDDE
:1043E00094670020C84500207944000080450020E3
:1043F000D0450020C94500204369002053690020B2
:10440000DC450020D1450020D2450020D3450020C6
:10441000D4450020E468002010B504F0C1F810482D
:1044200005F03CFE02F0B8F90E4805F037FE00F04A
:1044300065FB0D4805F032FE01F046FA0B4805F029
:104440002DFE05F0FFFA0A4805F028FEFFF7C8F92F
:10445000084805F023FE00F085FEFFF775FF10BD4C
:10446000D9680000FD4D0000D55900005D9B00009B
:10447000A53A0000E1520000FEB54A4C0D46080482
:1044800048D520780EF09AFF040040D046480078C6
:10449000002808D02078454ED02808D0A22802D085
:1044A000912821D014E0204607F012FF2CE0A078DC
:1044B00000280DD0052807D0082809D006280BD0E1
:1044C0000728F0D1A0881BE0608919E0007B04E098
:1044D000204607F0FDFE02E0E0790828E3D12146FE
:1044E00030780EF0A3FF12E060780E28F0D1A0889B
:1044F0002F498842ECD1A0688178427808021043A5
:104500000AF094FD0028E1D120460EF02FFF012093
:10451000C00345E068040BD50421264A08460FF085
:1045200019F9254800780FF0A1F80120800337E041
:10453000E80736D021480078002830D00AF0AAFEDB
:104540001F49097F8907890F884203D303206946E1
:1045500008700CE01B486946007808701A4806226B
:104560000078487000A8194902300EF011FE184872
:10457000694600780872174800784872207800F081
:10458000D9FA00280BD0144906200870134909688D
:10459000002904D00A68002A01D000219047012098
:1045A0006840FEBDC8450020CE450020CF45002014
:1045B00005140000DC45002097450020CB45002075
:1045C00094670020D1450020D2450020E04500201E
:1045D000D3450020D4450020D04500208045002050
:1045E0007CB514460D4601F011FA002D02D0284684
:1045F000FFF748FA0C480078002801D011207CBD54
:10460000002C01D0094804600A48009008490B4872
:10461000019102780A48084B01780A48007800F0B6
:10462000E3F900207CBD0000D0450020804500203B
:10463000DC4500205369002043690020CD4500205F
:10464000C9450020C8450020F8B50C465E4916460D
:10465000421819210025C9015C4F130005F004FE22
:10466000120A1017A81C3E526970778188A8A3A867
:10467000A88F98A8102C73D11022314654486CE0B2
:10468000102C6DD1524810223146103065E0042CB8
:1046900066D13068786190E0012C61D1F97830788A
:1046A0004A4AF870127800290AD0002807D1387ACF
:1046B000022801D0052802D1104600F0E9F97CE07B
:1046C00000287AD0387A012803D0032801D00428A2
:1046D00073D1012110460EF065FF6EE01F2C60D8EB
:1046E0003A481F22002124300EF024FE374822468B
:1046F000314624300EF04CFD344BBC70243322463E
:10470000012112E01F2C4CD831481F2200211F38F4
:104710000EF010FE2E48224631461F380EF038FDAE
:104720002B4B3C711F3B22460021387800F0BCFC2B
:1047300048E0012C35D13078042832D878723CE03A
:10474000012C2ED1307803282BD8B87235E0062CF6
:1047500027D11E480622314618300EF019FD2CE0F4
:104760001FE0012C1DD1307807281AD8F87224E0F8
:10477000012C16D13078032813D838731DE0308807
:10478000022C0ED106280CD388420AD8F88114E0F6
:104790003088022C05D1062803D3884201D83882FC
:1047A0000BE0182509E0012CFBD13078787104E08A
:1047B000192801D2022C02D002252846F8BD3188E2
:1047C00000F0E6FB0546F8E7FFFCFFFFC8450020C8
:1047D0004369002010B504460AF028FC002805D0E3
:1047E00000781322214600F01BFC10BD122010BDE2
:1047F000F8B50E46070048D038880AF017FC0500C7
:1048000041D0234AA96BD078022806D0012804D0D1
:10481000287B082803D1002E01D0122436E000297D
:1048200001D0112432E047212C200EF0CDFC0446AB
:10483000A863200025D02C2200210EF07BFD3888B3
:1048400060801C22391D201D0EF0A2FC0220207069
:104850000F483A880178287B082810D00020231DB3
:1048600005F029FA0446002E03D0314628460DF003
:10487000D1FA002C0AD0284606F088FE06E0012076
:10488000EDE7132402E0142400E002242046F8BDE2
:1048900028460020FFB51F4881B0C0781E46174645
:1048A0000D46022818D0012816D0002F30D00198CC
:1048B0000AF0BCFB040029D0E06A002801D00EF009
:1048C000BFFC1C2138460EF06FFCE062011E1BD0BD
:1048D000207B082803D00DE0122005B0F0BD002E8B
:1048E00008D0887E00900B4612330A8A01980DF09A
:1048F00091FD00E000202179002D01D0062200E08A
:10490000042211432171E8E71320E6E71420E4E7CD
:104910000220E2E72846002010B50548C0780007CD
:1049200001D5044800E0002007F0F4FB10BD0000B2
:10493000284600204846002070B51B4C0546012142
:10494000207806F049FE1948C1780A20014224D097
:10495000204625700C3007F0D7FB606800281AD17C
:10496000207800281DD0000107210EF02DFC60608A
:10497000002810D021780A0100210EF0DBFC002075
:10498000FF222378616803E00401401C0A55C0B28D
:104990009842F9D305E0132070BD0020207007F085
:1049A000B3FB002070BD00003446002028460020E4
:1049B00008490020087048608860064806490C30A5
:1049C00001600649416006490830016005494160BF
:1049D0007047000034460020D9B4000005BF000035
:1049E000B9B30000F1B30000F8B50224079F1D46DB
:1049F0001646042919D004DC012907D0022945D123
:104A00000BE008291BD00C2940D129E000F03CF92B
:104A100004003BD100F090F938E000F035F90400D3
:104A200034D13046FFF788FF30E000F02DF9040064
:104A30002CD13A462846069900F05CFA20E000F0B6
:104A400023F9040022D13A462846069900F052FA8A
:104A50003046FFF771FFFFF75FFF05F005F815E03F
:104A600000F012F9040011D13A462846069900F0E8
:104A700041FA3046FFF760FFFFF74EFF04F0F4FF06
:104A800000F05AF900F040F905F0CCF82046F8BDE6
:104A900070B5104C2168002919D00978814214D1D1
:104AA0000D4D022128780EF061FF0C48002646804B
:104AB000287804210EF05AFF094846712168032026
:104AC0004870002001F0DBFA70BD032070BD122099
:104AD00070BD0000344400202846002050460020CD
:104AE00010680020192801D302487047024940008D
:104AF000085A7047FFFF00003068002010B50446D8
:104B000000F086F800F05AF9FFF752FFFFF7C2FBFA
:104B10000649FF23CB7000228A700A7104480521E0
:104B200043700470204601F01FFF10BD1068002084
:104B300028460020F3B52F4E0446306883B0002885
:104B400002D0112005B0F0BD2B4F0521F8780842A6
:104B500001D11220F6E729494968002905D00978D2
:104B6000002902D0C00702D008E01020EAE700F0D8
:104B70004BF805460AF070FB854207D3049800788D
:104B8000022803D0032801D0122431E047210C2051
:104B90000EF01AFB3060002829D00470002141700B
:104BA0000A22801C04990EF0F3FA154DA878032808
:104BB00006D007F02BFD04001AD006F0DBFC17E04E
:104BC00006F060FD694604F0CAFE684607F01CF96D
:104BD000012028711120FFF785FF0006000E687183
:104BE00006D03878074A04210EF04CFE00E013246A
:104BF0002046A7E7344400202846002050460020E5
:104C0000106800200077010010B50AF00FFB10BDFE
:104C10001A4800210170417041608160C1600161EA
:104C2000416181611648B4220180428001229203D1
:104C30008280A022C2800281102242818281502380
:104C4000C381038242828282C2827D2302831B014E
:104C500043838183C18301840F234384094B83846D
:104C60000723C3840285012242857E22D2438285A6
:104C7000C1850186491E41867047000020440020FE
:104C80003068002080BB000070B50E46054620222B
:104C9000002109480EF04EFB074C0848E570C6702D
:104CA00001F018FA002803D000202070122070BDF7
:104CB0000121217070BD00001068002028460020EE
:104CC0007FB504460D4608460AF0B0F9002817D013
:104CD0000C48844212D21022002168460EF02AFBB2
:104CE00069460C70200A4870200C8870200EC8702D
:104CF0002946684604F0ECFE04B070BD0220FBE7D4
:104D00001220F9E740420F0010B50848C07840076C
:104D100007D5074807F00AFA00200649C043C880B3
:104D200010BD002007F002FA10BD00002846002048
:104D30006046002010680020F8B51D4C0025606812
:104D4000002802D00EF07CFA6560E068002802D0EE
:104D50000EF076FAE560174E0527F078384223D03A
:104D6000154807F0DDF9F07838421BD047212020A4
:104D70000EF02AFA6060002814D0202200210EF0E4
:104D8000D9FA472120200EF01FFAE060002805D054
:104D9000202200210EF0CEFA0020F8BD60680EF04F
:104DA0004FFA65601320F8BD002007F0B9F9F3E76A
:104DB0005046002028460020646900200948FF2151
:104DC00001700021418041608160C160074806494F
:104DD0000160074941600749816002490648103176
:104DE0000860704750460020F9B800006469002050
:104DF000F9BB00000DC6000069B80000FEB5354FD4
:104E0000354D0C4608041FD538780EF0D7FA061E2B
:104E100017D03078A22806D07D78304607F086F883
:104E200000280AD102E02C48C578F6E7FF2D04D00F
:104E3000314628460EF0FAFAE6E730460EF096FACA
:104E4000E2E70120C00341E0E007012623490028F2
:104E50000AD04868002804D04168002901D0002009
:104E6000884720467040FEBDA00709D5C8680028C5
:104E700004D04168002901D001208847022025E0A4
:104E8000600725D5687900281FD0401E0006000E57
:104E900068711AD14869002808D02E71C8680028A6
:104EA00004D04168002901D0012088476946E8689C
:104EB00004F055FD684606F0A7FF1120FFF712FE2B
:104EC0006871387804210EF051FD04206040FEBD69
:104ED0000020FEBD2846002010680020204400204D
:104EE00001494870704700002846002010B504F0C2
:104EF00073FE10BD70B5154C0E466261216105460A
:104F0000E0601022FF2130460EF025F9012806D07E
:104F10001022002130460EF01EF9012803D1102185
:104F200020690CF069FD1022FF2128460EF013F9CC
:104F3000012806D01022002128460EF00CF9012885
:104F400003D11021E0680CF057FD70BD10680020FF
:104F50007FB50C4605460AF069F8002814D0826B2C
:104F6000007B042802D0122004B070BD002A00D0BB
:104F7000947D684621460DF089FA044B6A46022169
:104F800028460DF005FAEFE71420EDE77F29010030
:104F9000192802D2044A914201D102207047034AE3
:104FA0004000115200207047FFFF000030680020D1
:104FB00070B50E4611491546CB78022B17D0012B40
:104FC00015D0002D17D00AF031F8040011D0002EB2
:104FD00003D020790221084320712046102229465F
:104FE00018300EF0D5F82869A062002070BD12209C
:104FF00070BD142070BD022070BD00002846002046
:1050000038B50C4605460AF011F8002806D0684667
:105010000470694628460DF0A9F938BD142038BD42
:10502000F7B505461E4812261E4F0C46814208D190
:10503000B868002832D00268002A2FD0284690474E
:10504000FEBD1748401C844219D1B868002806D01C
:105050000268002A03D028469047002806D0284638
:10506000029905F02DFD060005D017E07D7002982D
:1050700038700020FEBD7D70029838700EE0084642
:1050800009F0D4FF002809D00078A84201D00320FD
:10509000FEBD2046029900F060FFFEBD3046FEBD19
:1050A000FEFF00002044002070B514460246204850
:1050B0001E46C0780523184224D01E4D00296B6877
:1050C000E86802D0002B1DD001E000281AD0202C67
:1050D0002CD2002C01D0002E28D02A70002913D009
:1050E0001F220021581C0EF025F96868224631461F
:1050F000401C0EF04DF8696820460C70491C00F009
:10510000BAFF70BD122070BD1F220021401C0EF09E
:1051100011F9E86822463146401C0EF039F8E9687A
:1051200020460C70491C00F0C1FF70BD022070BD0C
:10513000284600205046002010B5094A0146137940
:105140000020002B0BD101231371C90707D0134690
:105150006433184610220421403800F007FA10BDCD
:1051600008450020F8B5044600F00CFE00F044F8B5
:10517000114F134EFC701149304600F025F84721BD
:10518000C0200EF021F800221346B86194010653A6
:10519000002124180C254D436519AB80491CEB6098
:1051A0000529F7DB521C032AF0DBF87878700548F4
:1051B0000AF08CF8F8BD000008450020A668002021
:1051C000FFFF00008DCD000070B50A4C0025A04205
:1051D00008D1002082008C525218401C9570032880
:1051E000F8DB70BD07F0A3FD0028FAD004808570BD
:1051F00070BD0000FFFF0000F0B51E4920200870C0
:10520000FF2048708870C8700126CE800020088179
:10521000C86008610B4602241C3348611C70164AA2
:105220005A600A46087124321470144D5560167283
:105230005081D3601474124F15466F612E766883C7
:10524000E9612021545413460E4D59185D620872CD
:105250005885D862302154540B4C032351185463A1
:105260000B725087094ACA600249094A643105C174
:105270000860F0BD084500203E3C0100403C0100B4
:10528000463C01005E3C01004C3C0100A668002049
:105290003DD80000F8B50E46074606990024079849
:1052A000002902D00B242046F8BD022B01D00D248A
:1052B000F9E7517812780D0215432946814301D050
:1052C0008024F0E73846F16800F042F9A842EAD0BD
:1052D0002A463846F16800F0EFF90446E3E700009B
:1052E00070B50D4608041AD50E48C0780EF066F861
:1052F00004000FD02078B02809D1204607F0DCFE4A
:10530000002804D020462179083000F01DFD2046F9
:105310000EF02CF801212846C903484070BD00203A
:1053200070BD000008450020FFB585B000200F9F2C
:105330000090087A0E9D1C460E46C0060BD50798B5
:1053400007F0EEFC03007DD00A223146059898470D
:105350000090002816D13078022815D0079807F061
:1053600005FD0028EFD0006884460028EBD0119995
:10537000109822460097029101902B4631466446D0
:105380000598A04709B0F0BD7068292241780078DF
:10539000090201431202881A91427CD00BDC694851
:1053A000081A13D0012811D0022817D00328D5D10C
:1053B000002F53D09BE001287ED002286DD0032817
:1053C00077D00428CAD1002F68D090E0002F6FD189
:1053D000F068017829800278416884E0002F67D165
:1053E000F068417800780F02074304202880F068B5
:1053F00004A900782070F06840786070384600F0AA
:1054000087F9060022D06846028A03AB4E4930462F
:10541000F76800F0DBF900280AD1337802214B4805
:105420007268FDF7B0FC002802D1474869468881C0
:10543000387802280CD10222201D79680DF0A8FED0
:10544000288800E07CE0801C288001E06846878195
:1054500068468089A070000AE0706FE00120288013
:10546000F0680021007820707089401C80B200F044
:105470004FF9002813D0298802788918891C2980BF
:10548000817A61704189090AA17002784168E01C43
:105490000DF07EFE52E00CE00EE026E03BE02888B6
:1054A0000422001D28800021601C0DF043FF45E010
:1054B0001DE0002F27D01AE0F0680EF068FA80B2E5
:1054C000B84201D207205DE7874201D1002006E003
:1054D0001099C919814201D3C01B00E0109828809F
:1054E00082B2F068C1192046D2E7002F01D00B200C
:1054F00048E7F168059800F02BF802212980207018
:10550000000A60701AE002202880F068007820709D
:10551000F0684078F5E70721F0682980017821706C
:10552000417861708178A1704188090AE170017940
:10553000217181796171C088000AA071009821E70A
:105540000E201FE700280000FFFF0000423C010082
:1055500010B507F0ECFB002800D0807810BD0000EB
:105560000149887070470000084500207CB51E4640
:1055700005001CD0684601808270019500F04CFA4D
:1055800004001FD1002E1DD0688900280FD04721AC
:105590000C200DF019FE002813D00021016069894C
:1055A0008180094A86601169002903D107E0022041
:1055B0007CBD11460A68002AFBD1086002E0106138
:1055C00000E0132420467CBD08450020F8B50C4CB3
:1055D0000746A07815460E46FF280FD00A200DF08A
:1055E000B1FE01000AD0B12008704F800020487041
:1055F0000871CE800D81A0780DF018FFF8BD000075
:105600000845002070B50C4605460649FFF7A0FF87
:10561000800704D52146284600F058FA70BD0120C5
:1056200070BD0000A66800200EB56B461A81FE23EF
:10563000002201930092022302AA00F001F80EBD9D
:10564000FFB583B0174602A90D9E049800F060F8DC
:1056500004002AD06846008907F088FB002822D081
:105660004568002D1FD00C98019600903A462146BF
:10567000069B0398A847050018D1FE2E16D0207867
:10568000022813D160684178027808020949104362
:1056900088420BD17878397802020A43049903983A
:1056A000FFF794FF02E00E2500E00125284607B031
:1056B000F0BD00000229000070B514460E460546F4
:1056C00007F035FB002806D13146054807F02FFBCF
:1056D000002803D005808470002070BD112070BDAB
:1056E000FFFF000010B50178B0290BD141780029E7
:1056F00008D10179122906D01B2903D14088012144
:1057000001F03EF810BD417C0129F7D010BD00002A
:10571000F0B5104A536919E09C686589A84214D312
:105720009E887219824210D900220CE017013F199D
:105730007F89874205D1002900D00D801001001912
:10574000F0BD521C92B2B242F0D31B68002BE3D1E1
:105750000020F0BD08450020FFB51B4883B00023A2
:1057600045692DE0AE68002470890190A8880090FA
:1057700016E0210188194289039FBA420ED3049F83
:10578000BA420BD8069A002A0FD01346715C4068C3
:10579000059AFDF7F8FA002807D10023641CA4B28B
:1057A00000988442E5D3002B09D00C98002802D041
:1057B0000C99019808802001801907B0F0BD2D6870
:1057C000002DCFD10020F8E708450020FEB5174690
:1057D00000256A469580044640891D4A1E4690422F
:1057E00008D001AA0092401C237880B26268FFF7BB
:1057F000B3FF05462378022116486268FDF7C3FA15
:10580000002807D12378022113486268FDF7BBFA0C
:10581000002801D060890EE0237802210F486268D9
:10582000FDF7B1FA00280DD0002D03D0684680881E
:10583000B84203D0384608F025F904E06889401ED4
:1058400080B200E06089002E00D030802846FEBD86
:10585000FFFF0000403C0100423C0100463C0100CB
:10586000FFB583B00E461D46174601A9039807F001
:1058700013F8040022D1002F0FD069460880308829
:10588000FFF746FF6946088800F05CF901460122EF
:10589000039809F09FFB002811D131460398FDF7CA
:1058A00017FB04000AD1FF2D08D0019B1E221946C8
:1058B00004489B1C08F0F1F80198C570204607B019
:1058C000F0BD0000EDD8000010B50446FDF72CFB3C
:1058D0000749FF20087048700020486088608C707D
:1058E0000421204601F040F800F004F810BD00004B
:1058F000FC44002070B500200D4D0E4B0446FF22E5
:10590000062141435D52C918CA708A70401C0C714F
:105910000328F5DB0120C0431880074807F0B6F9DB
:105920000648FDF787FC064809F0D0FC002070BD52
:10593000FFFF00009468002035D9000017D900004F
:105940006DD800007CB516460C460546FDF766F896
:1059500011490978884201D316207CBD01A9284647
:1059600006F09AFF1728F8D0002E10D000206946C4
:1059700008802088FFF7CCFE6946088800F0E2F82E
:1059800001460122284609F025FB0028E5D12146E1
:105990002846FDF7B3FA7CBD65460020F8B51C46E5
:1059A00015460E46074609F041FB00280DD0017B45
:1059B000074808292B4632463946009403D0007820
:1059C00006F080FFF8BD4078FAE70120F8BD00003E
:1059D000FC44002070B50D46080412D50A488078B2
:1059E0000DF0ECFC040008D02078A02802D120465D
:1059F00007F0D0F820460DF0B9FC0120C003684044
:105A000070BD002070BD0000FC44002001490870FA
:105A100070470000FC44002070B5044645680088CB
:105A200000284AD02B78022125486A68FDF7ABF997
:105A3000002807D12B78022122486A68FDF7A3F9D4
:105A400000283AD0A078C01F092834D81E4EF0880C
:105A500000282ED02188081801210904884228D85E
:105A600047210C200DF0B0FB050020D0002207E0FC
:105A700011016368F0880A315852401CF080521CB2
:105A800020889042F4DC0020286008222146281D4E
:105A90000DF07EFB7069002801D105E00846016821
:105AA0000029FBD1056000E07561002070BD132066
:105AB00070BD012070BD182070BD022070BD0000B7
:105AC000403C0100423C010008450020FEB50E4666
:105AD000074600250223194A194901200095FFF7BE
