:020000040000FA
:1000000000800020B1110000B9110000BB110000F8
:1000100000000000000000000000000000000000E0
:10002000000000000000000000000000BB11000004
:100030000000000000000000BD110000BF11000022
:10004000C1110000C1110000C1110000C111000068
:10005000C1110000F31C0000C1110000C11100001B
:10006000C1110000C1110000C1110000C111000048
:10007000991D0000C1110000C1110000C111000054
:10008000C1110000C1110000C1110000C111000028
:100090000348854601F05CFF00480047A5000000CA
:1000A000008000200E498A6A481502438A620321B3
:1000B00001F0AEFA01F027FD0A490BA00AF05CFE40
:1000C00001F087FD01F005FE04F01AF903F064FF6A
:1000D00000F056FC00F04DF90AF0EEFCFCE70000E1
:1000E000801000406077010025730A0070B5FF4D55
:1000F0000446E87886B0012806D0022831D120795C
:100100000026092833D046E02079072813D120891A
:10011000002828D0E0684178027809021143A981BB
:10012000C278807812020243EA81F1A00AF024FE2C
:100130002079072817D0C0B2012812D1A889002839
:100140000FD00221E9706A461080E8895080117151
:10015000E1205071FF209071EA796946688905F0C5
:1001600095FD06B070BD60781A28E7D0F9E72089C0
:10017000002810D0E06841780278080210432882F5
:10018000AE71192292012021E87917F0C5F9298A68
:10019000E2A00AF0F1FDEE70E3E770B5D34D04463E
:1001A000A87802282FD120790026032808D001281A
:1001B00007D1207A022815D1217BE2A00AF0DCFDCC
:1001C000AE7120797F2803D12189E4A00AF0D4FD03
:1001D00020790B281BD0012804D0132821D0012816
:1001E00003D005E0207A0A280ED0207A122815D0F4
:1001F000E878002802D02046FFF778FF20462179D2
:10020000083005F0FBFE70BD217BD7A002E0E0685E
:100210000178D9A00AF0B0FDAE71EFE7217BDAA03A
:10022000F8E72979DDA0F5E7F0B5B04D85B0EB79B9
:100230000C46080412D5184616F08EFF050007D0AC
:100240000178B02901D1FFF7A8FF284616F05CFF1E
:1002500001212046C903484005B0F0BDE007012652
:10026000002809D0A14A184620321146083903F067
:10027000F5FE20467040EFE7200604D5CB4804F099
:100280002DFA802071E09948210700274089002934
:100290000CDAC7A1096800912F82EF81AF81EE705F
:1002A0000222694605F088FA08205EE0E10609D5D9
:1002B0004B21C900009100236422142104F01CFA90
:1002C000102052E0A10645D5A97900293ED18749E1
:1002D0006A79098A002A2BD06B465F731F73998055
:1002E000DE80324600231221009705F041FE029085
:1002F00000282BD0029928790870EA7901A9688929
:1003000005F02EFE002804D0122101A805F076FE8B
:100310001CE0AE716879002808D0002068711922AD
:1003200092012021E87917F0F7F80FE00120F5E7B6
:100330006A4611801A46694605F0A4FC002805D1DA
:10034000AE716879002803D00020687120200CE08D
:100350000120FAE761060AD504F0EAF84B225201BF
:100360004021E87917F0D8F84020604074E7002079
:1003700072E730B585B08F480AF080FB5B4C4B21AB
:10038000E0714901022004F057FE1421072004F017
:1003900053FE6421082004F04FFE64210D2004F078
:1003A0004BFE854A1521002005F0DAFE002004905E
:1003B00001206A461072107303211170107104AA93
:1003C00004217E4803F0BAFB812002AA0121C0006B
:1003D00003F0B4FB794803AA0121801F03F0AEFBB0
:1003E00076486A460121401F03F0A8FB734801AA22
:1003F0000121801E03F0A2FB05F01CFBE07905F053
:1004000051FC0025ED43284605F000FE284604F087
:10041000E7FE0121E07916F029FF05B030BD10B5E7
:10042000494267A00AF0A8FC10BD38B569462F4DB7
:1004300014460A80EA7905F0F1F9214664A00AF031
:100440009BFC0120A87138BDF3B5284D85B0287AF2
:100450000F460A282DD20024624E0AE0E0008119DE
:100460000622891C059816F053FD002821D1641C32
:10047000E4B2287A8442F1D30006400D80190622A6
:10048000801C059916F052FD287AC10089194F7019
:10049000401CC1B2C800801929722038027FC57F74
:1004A000847F437F6E463CC6C37E827E4EA00AF0A8
:1004B00063FC07B0F0BDF8B50C4D0446817800260A
:1004C000E87906290CD00CDC00290BD001290AD0D0
:1004D000052909D1802117F081F86178002997E07A
:1004E00005E1A3E0ABE0AEE09FE0000000400020AB
:1004F000466F756E642050726F66696C6520536537
:1005000072766963652068616E646C65203A2025A7
:1005100078207E202578200A00000000466F756E46
:10052000642043686172616374657269737469639E
:1005300020312068616E646C65203A202578200A9D
:100540000000000045786368616E6765204D545572
:10055000204572726F723A2025780A004D54553A40
:100560002025780A000000005265616420457272FF
:100570006F723A2025780A005265616420727370A8
:100580003A2025780A000000577269746520457288
:10059000726F723A2025780A000000005772697461
:1005A000652073656E743A2025780A00FFFF00000D
:1005B000E0FF000029020000A47601000F04000003
:1005C00052535349203A202D2564206442200A00CA
:1005D00065786368616E6765206D74753A25640A95
:1005E0000000000060660020446576696365202590
:1005F00064202D20416464722025782025782025F0
:1006000078202578202578202578200A0000000011
:100610004BD05BA00AF0B0FB60A00AF0ADFB2E72DD
:1006200000220121032003F045FDF8BD07296FD00A
:100630000D29FAD12179601DFFF706FFF8BD57A0FB
:100640000AF09AFBECE70024584F0AE0E000C119D9
:1006500006225748891C16F05BFC002804D1641C54
:10066000E4B2287A8442F1D3287A84420AD151A094
:100670000AF082FB2E7200220121032003F01AFDF2
:1006800046A031E051A00AF077FBE000C019831CBE
:1006900042780021084603F06BFC1922D201802128
:1006A000E87916F039FF4EA01EE00220A87060899C
:1006B00068810120A871192292010821E87916F0B9
:1006C0002BFF6878002805D01922D2011021E87983
:1006D00016F022FF2878002805D04B225201402135
:1006E000E87916F019FF42A00AF046FBF8BD012197
:1006F000AE70C9436981EE702E822E72AE714021B8
:1007000016F06CFFA1793EA00AF036FB97E7FFE7F1
:1007100042A0E9E710B500290CD001290DD002292B
:1007200013D0032905D1002A13D0114640A00AF0A6
:1007300023FB10BD114644A0F9E7002A03D047A0CF
:100740000AF01AFB10BD49A0FAE7002AFAD14CA022
:10075000F6E750A0F4E770B51C460D4616F060FDB4
:10076000514901F03BFB0E46002C02D04FA00AF08D
:1007700003FB32460021284602F0C6FF70BD000090
:10078000436F6E6E656374204661696C65642E2EDE
:100790002E526561736F6E3A25580A00446973637F
:1007A0006F766572696E672E2E2E0A0060660020D5
:1007B00012400020446576696365206E6F74206680
:1007C0006F756E642E2E2E0A000000004465766957
:1007D000636520666F756E642E2E2E0A0000000081
:1007E000436F6E6E656374696E672E2E2E0A00006D
:1007F000436F6E6E65637465642E2E2E0A000000D2
:10080000446973636F6E6E65637465642E2E2E5239
:100810006561736F6E3A25780A000000506172615D
:100820006D205570646174652E2E2E0A0000000044
:10083000426F6E642073617665206661696C6564E1
:100840003A2025640A00000050616972696E6720D1
:10085000737461727465643A25640A005061697248
:10086000696E67206661696C0A00000050616972F8
:10087000696E6720737563636573730A0000000017
:10088000426F6E64696E6720737563636573730A84
:1008900000000000426F6E642073617665207375FE
:1008A00063636573730A000040420F005061737305
:1008B000636F64653A25640A000000007FB5DB4E73
:1008C0000C463078090408D516F046FC002801D003
:1008D00016F01AFC0120C0034DE0E10707D0D34A0F
:1008E00054321146443903F0EFFD012043E0D04D6E
:1008F000A10725D519229201022116F00DFECDA0E7
:100900000068039001226846C2800020009003AE78
:10091000288800231B2105F02BFB02906846C28823
:100920003146029816F002FB288801A900F09FFBCF
:10093000002803D01B2101A805F060FB02201AE06B
:10094000BB4A210715880AD564210A460091019007
:1009500000231421284603F043FC08200BE0600725
:100960000CD5284603F0E4FD1922D2010421307889
:1009700016F0D2FD0420604004B070BD0020FBE7FB
:1009800070B586B0AC480AF079F8A84E01253070F1
:100990006846057014218180642101816A462946D8
:1009A000A64803F0D5FDA548324620321C21801C04
:1009B00003F0CEFDA148324608320721401C03F067
:1009C000C7FD9E4801AA02210C3003F0C1FD9B48DF
:1009D00002AA02210D3003F0BBFD32463C32152144
:1009E000002005F0BDFB50242146032004F024FB29
:1009F0002146042004F020FB002468460094057181
:100A00000572057304746A4604218D4803F096F854
:100A1000012101AA880203F091F8894802AA012164
:100A2000801F03F08BF8864804AA0121401F03F0C1
:100A300085F8834803AA0121801E03F07FF8651E14
:100A4000284605F0E3FA284604F0CAFB00F09CF9BA
:100A5000284600F095FA7BA0006802907AA0006812
:100A600003907AA00068049079A00068059079A0AE
:100A700003C80191009002AA0121002000F09FFA12
:100A8000012103AA084600F09AFA04AA01210220D3
:100A900000F095FA05AA0121032000F090FA6A46B9
:100AA0000521042000F08BFA6148A11E01804480DA
:100AB0008480C480143800F079FA0121307816F06F
:100AC000D5FB06B070BD38B581885948028891427F
:100AD00018D10121C9430180002141808180C1805A
:100AE000524C0221207816F079FD0421207816F06E
:100AF00075FD01206946087001466A464F4803F0BB
:100B000027FD38BD55A00AF037F938BD10B50246AB
:100B1000494254A00AF030F910BD70B514460A4697
:100B200043490D88854207D14A808C80CB8001469D
:100B300052A00AF021F970BD48A00AF01DF970BD5D
:100B400010B50C4603000AF03FF9072905071D13ED
:100B50001B2C29004FA025E0A078062806D10846C6
:100B6000FFF7B1FFA1794FA00AF006F954A019E0F0
:100B7000A078052802D1084600F029F854A011E019
:100B800057A00FE0A078042809D0062806D108460F
:100B9000FFF799FFA17943A00AF0EEF810BD57A026
:100BA00000E05DA00AF0E8F810BD08B5002808D004
:100BB000022805D1694600F036FA5AA00AF0DCF89E
:100BC00008BD6946002000F02EFA5DA0F6E770B57A
:100BD000174904460A88614B40899A4205D003F0C0
:100BE0007DFD5FA00AF0C8F870BD0880E0894880EC
:100BF000208A8880608AC8800C4D192292010221C7
:100C0000287816F089FC192212020821287816F09B
:100C100083FC1922D2010421287816F07DFCE28998
:100C2000618954A00AF0A8F870BD00002C40002093
:100C30004440002088000000BD08000005030000BB
:100C40000704000001000000020000000300000093
:100C50000400000001020304050000004552522E6A
:100C60002E0A000052535349202D2564206442204F
:100C7000436F6E6E20202578200A00005570646155
:100C80007465202578202D20496E74202578200A4F
:100C900000000000496E697469616C697A65642EB0
:100CA0002E0A0000446973636F6E6E656374656439
:100CB0002E2E526561736F6E3A25780A000000008F
:100CC0004164766572746973696E672E2E0A00003E
:100CD000436F6E6E65637465642E2E0A000000001B
:100CE000436F6E6E656374656420416476657274EB
:100CF0006973696E672E2E0A0000000057616974DF
:100D0000696E6720666F72206164766572746973BC
:100D1000696E672E2E0A00004572726F722E2E0ABF
:100D20000000000070726F66696C65204368616E38
:100D3000676543422043484152332E2E0A0000008B
:100D400070726F66696C65204368616E67654342C7
:100D50002043484152312E2E200A0000FEFF0000A1
:100D6000436F6E6E656374696F6E206D61782E2EB1
:100D70002E0A0000436F6E6E202578202D20496ECC
:100D800074202578200A000010B56E4B1022132124
:100D90006D4804F03FFC10BD10B500241346002838
:100DA00002D00224204610BD67480A461946093879
:100DB00016F0BCF8F6E770B50D46002403000AF003
:100DC00003F809060A1014181C2024282C005E4978
:100DD0000822093901E05D490D22284616F0A6F8DF
:100DE0001CE05A490E220D31F7E7584912221B31F7
:100DF000F3E7564912222D31EFE7544912223F31D1
:100E0000EBE7524912225131E7E750490E22633194
:100E1000E3E74D4907221039DFE70224204670BD81
:100E2000F8B5496894464A78097817020F4306983E
:100E3000474A11210025079CBE1A091A974244D03F
:100E400009DC444ABA1813D0012A1DD0022A26D040
:100E5000032A08D12FE0012E41D0022E49D0032EC3
:100E600051D0292E5BD0002018800A252846F8BDD5
:100E7000082856D20821091AA14200D80C46324946
:100E8000A2B21A80093957E00C284AD20C21091A5B
:100E9000A14200D80C46A2B21A802C494CE00D2881
:100EA0003FD20D21091AA14200D80C462749A2B20F
:100EB0001A800D3140E0112833D2A14200D80C46EF
:100EC0002249A2B21A801B3136E0112829D2A14250
:100ED00000D80C461D49A2B21A802D312CE01128F1
:100EE0001FD2A14200D80C461849A2B21A803F3145
:100EF00022E0112815D2A14200D80C461349A2B213
:100F00001A80513118E00E280BD20E21091AA14285
:100F100000D80C460D49A2B21A8063310CE00728B4
:100F200001D30725A2E70721091AA14200D80C46E0
:100F30000549A2B21A8010390918604615F0F6FF6B
:100F400094E70000D0410020A0400020D8760100A6
:100F5000272A0000DDD5FFFF10B504468C488442E7
:100F60000DD0012907D0022909D1012120460FF017
:100F7000F3FD002803D18749204604F079F910BD1C
:100F800070B50546824800248249401C04F070F97F
:100F900081480FF0ADFDE80706D0804B10221121EB
:100FA0007F4804F037FB0446204670BD002804D07B
:100FB0007B4910394860002070471120704770B598
:100FC00015460024030009F0FFFE05040B1219204A
:100FD0002B0001291BD172480122294610381CE040
:100FE000012914D16E48012229460F3815E0012944
:100FF0000DD16B48012229460E380EE0012906D199
:101000006748012229460D3807E0052901D0182438
:1010100007E0634805222946083815F087FF00E0FD
:101020000224204670BD70B50D460024030009F06F
:10103000CBFE0504080F13171B0059490122103974
:1010400002E0574901220F39284615F06FFF0CE0E6
:10105000534901220E39F7E7514901220D39F3E7CF
:101060004F4905220839EFE70224204670BD70B5CC
:101070000C460546474904F0BFFAC00709D0484866
:1010800000228030408F20802146284604F038FD21
:1010900070BD122070BDF8B515460A7A0024069876
:1010A000D20601D50820F8BD002801D00B20F8BDDC
:1010B00008780026022803D01E8001242046F8BDAF
:1010C0004868427807781002364A3843801801226F
:1010D000002808D0012806D0032804D0042806D010
:1010E0001E800A24EAE71A80C968012203E005206D
:1010F0001880C9680246284615F018FFDEE7FEB5DD
:1011000015460E7A0024089AB60601D50820FEBDC1
:101110000E78022E01D0012430E04E6877783678C0
:101120003F023743204EBE192AD02048301803D042
:1011300002280CD00A2421E0002A0AD1012B0CD865
:10114000C8680122294615F0F1FE00200DE0002AB2
:1011500001D00B2412E0012B01D90D240EE0C86848
:101160000122294615F0E2FE02200D491039496896
:10117000002903D00968002900D088472046FEBD19
:101180000124009201942A4604F0D8F80446F5E7B9
:10119000FEFF0000B0660020590F0000044300204D
:1011A000F44100201F00FFFFFED6FFFF2129FFFFB3
:1011B0000448804704480047FEE7FEE7FEE7FEE7F5
:1011C000FEE70000CD1100009100000010B5FE48C0
:1011D00057210170A8210170FB4A8821403A1181F2
:1011E000002101700A2000F051FC012000F027FBD3
:1011F00010BDF0B5F44EF44D04275722A824203E2C
:10120000403DF149030009F0DFFD0D080E161B1FDC
:1012100024282C32373C41462F000A700C70F07B9A
:10122000FB22104003E00A700C70F07B3843F0732F
:10123000C820288118E00A700C705120C000F8E71F
:101240000A700C70E148F4E70A700C70812080008D
:10125000EFE70A700C708820EBE70A700C70022030
:10126000E7E70A700C702F8100200870F0BD0A704B
:101270000C7093208000DCE70A700C70D3484D306E
:10128000D7E70A700C7095208000D2E70A700C70C6
:101290004B20C000CDE70A700C70CC485C30C8E72A
:1012A000C94810B540380089C1B20B069A0FC8482A
:1012B000022A05D0012A04D09A0F06D07D20000210
:1012C00010BDC906C90EC34801E0C906C90E00F029
:1012D00085FD10BDBC4A57211170A8211170BA4973
:1012E00040394B150028088904D018430881002094
:1012F000107070479843F9E7B34A57211170A8213D
:101300001170B14920390028C87B05D00423184347
:10131000C873002010707047FB231840F8E7FEB533
:10132000A948002740380089FE1EC0B201068A0F76
:10133000022A4CD00124A403012A4BD0890F55D096
:101340000524002000902005000D01909E482038C3
:10135000848900269C49572330460B70A8250D70C0
:1013600001228A74984957220A70A8220A70964A64
:10137000203A948100220A708A7C9207FCD50A8A5E
:101380008A7C9207FCD48A7C9207FCD5098A019A50
:101390007F1C891A0DB2FFB2002D35D0294671434A
:1013A00005D5012832D0411C30D000282ED02E4641
:1013B00002943046009900F027FD00B2211A8CB249
:1013C00002998C4247D1002D43DD641C42E0824CDF
:1013D0000096B8E7C506ED0E2946804800F0FEFCF1
:1013E0000019C40B24202946C04309E0C506ED0EB0
:1013F00029467B4800F0F2FC0019C40B2946304610
:1014000000F002FD00B29DE70020FEBD002E03DAD1
:10141000761EF04306B202E06D1EE84305B2B54207
:101420000FDD694857210170A8210170664A0299B1
:10143000203A9181002101707D20C0007043019904
:1014400003E07D20C0006843114600F0DDFC80B25F
:10145000FEBD641EA4B2142F84D3FF20FEBD70B560
:101460000D461446182100F0B9FC83B2E120C000FB
:1014700041431E20454348196108401881B2E007E6
:1014800001D00120C0030A0402434F4957200870CD
:10149000A82008704C4C403C63634B482038437C88
:1014A00080252B4343746263427C40231A43427479
:1014B0000020087070BDF7B5064643480D46403819
:1014C000C06B84044048A40C2038418B008B01225F
:1014D0004900D203904201D3012000E000200F1800
:1014E000E1210901384600F079FC18225443001923
:1014F000306008463C2100F071FC28803C213846D1
:1015000000F06CFC02980180FEBD2F4957220A7042
:10151000A8220A702C4A403A50632B482038427C5B
:1015200040231A434274002008707047264940390E
:10153000886B8A6B8242FBD1704710B5224A5721D3
:101540001170A8211170204920394B7CE8242340D8
:101550004B744B7C1024204303434B7400201070C9
:1015600010BD00B50346FFF7E1FFC0180104090CE8
:1015700002D0012109044018134957220A70A822F9
:101580000A70114A403A50630F482038427C2023A9
:101590001A4342740020087000BD0021002802D0C8
:1015A000012802D002E0202100E010210648572245
:1015B0000270A8220270044A203A537C8B43537471
:1015C000002101707047000040100040020200003E
:1015D0000048E80100389C1C1313000000180D8F10
:1015E0000068890909490028087C02D04021084088
:1015F000E8E7C009C001E5E70449002804D0012854
:10160000E0D110200874DDE72020FBE72010004027
:1016100000B5524A0B0009F0D7FB05040710161954
:101620001F00516B81430AE0516B81435163116B81
:1016300001431163116A81430DE0516B0143516312
:10164000116B8143F5E7516B814301E0516B01431D
:101650005163116A0143116200BD404A00B5403236
:101660000B0009F0B1FB0504071016191F005169A2
:1016700081430AE05169814351611169014311615C
:10168000116881430DE05169014351611169814342
:10169000F5E75169814301E05169014351611168E6
:1016A0000143116000BD2D4A002906D0012907D051
:1016B000022908D0032913D10CE0918A814304E068
:1016C000918A814308E0918A01439182D16A014362
:1016D000D16205E0918A01439182916A014391624E
:1016E0009083118A0143118270471C4B1B4A40337F
:1016F000002906D0012907D0022908D0032913D1D7
:101700000CE0D18A814304E0D18A814308E0D18A88
:101710000143D182D9680143D96005E0D18A0143F0
:10172000D182996801439960D083518A01435182E3
:1017300070470A4A803A0028108B01D0084300E025
:10174000884310837047054A803A0028508B01D0A7
:10175000084300E088435083704700008010004039
:10176000F8B59C4D57269B4CA827203D0028267095
:10177000277028880ED02115084328800A2000F001
:1017800085F9267027702888611508432880002075
:101790002070F8BD032149028843F7E7F0B58D4C6E
:1017A00057261C228B078B4DA8270A409B0F403CD5
:1017B00000282E702F7010D0080603D5E07BFD2185
:1017C0000840E073A07A1043A07282482038C17BA1
:1017D0001943C17300202870F0BD080603D5E07BD3
:1017E00002210843E073A07A9043A0727948203820
:1017F000C17B9943EDE730B5764C5723754AA82550
:10180000403C002813701570E06804D08843E06005
:101810000020107030BD0843F9E730B56D4C5723F8
:101820006C4AA825403C002813701570A07B04D09A
:101830000843A0730020107030BD8843F9E7F8B565
:10184000644D5726634C0021A827203D00282670B0
:1018500027700ED0012068712871002020700120AF
:1018600000F014F9267027700D20287100202070D8
:10187000F8BD29712170F8BD5748016904229143D0
:10188000016130BF704730B4524857210170A82120
:101890000170504A403AD17BF7231940D1734D4B28
:1018A0000021203B19710523138101704A4A1369F5
:1018B00004242343136130BF017030BC0120BEE714
:1018C00030B4444857210170A8210170414A403A80
:1018D000D17B08231943D1733E4B0021203B197162
:1018E0000523138101703C4A1369042423431361C7
:1018F00030BF017030BC0120A1E730B43549572218
:101900000A70A8230B70354C2043324C203C2080B9
:10191000002008700A700B7020712E4B0522403B8E
:101920001A8108702C4A136904242343136130BFC1
:10193000087030BC012082E730B4264957230B7071
:10194000A8220A70092424030019224C203C20807C
:10195000002008700B700A7020711E4B0522403B5E
:101960001A8108701C4A136904242343136130BF91
:10197000087030BC012062E7164A57231370A82470
:10198000147014494039887B08252843887309203E
:10199000104D0003203D288000261670886B8F6B49
:1019A0008742FBD10A3007043F0C02D001273F04D5
:1019B000C01930272F741370147048632F20687477
:1019C00016701370147005200881167040BF20BF78
:1019D00020BFFEE74010004000ED00E00490000052
:1019E0003C49062805D04979012282401140084629
:1019F0007047087808210840704736485721017021
:101A0000A8210170817901221143817100210170A7
:101A1000704731490968016000202F49C043803177
:101A2000086070472C49086070472C4880697047EF
:101A3000284957220A70A8220A700028887905D000
:101A4000042210438871002008707047FB22104068
:101A5000F8E7204957220A70A8220A7000288879DE
:101A600005D0022210438871002008707047FD22C3
:101A70001040F8E7174857210170A82101708179BB
:101A800010221143817100210170704700220AE089
:101A9000022101E000BF00BF0B46491E89B2002BA6
:101AA000F8D1521C92B28242F2D3704770B5002432
:101AB0007D260546F60004E03046FFF7E7FF641C8C
:101AC000A4B2AC42F8D370BD0549CA7A082AFCD04A
:101AD000087270474010004000E100E000E000E0C4
:101AE0000034004010B50446FFF7DAFB0A214843F2
:101AF000C008214600F072F90A21401D00F06EF97D
:101B00002249888110BD10B5E1204002FFF7EAFFAD
:101B10001E48872181700321C1704021417001213D
:101B2000817310BD19498A789206920E8001024392
:101B30008A707047154A0028507806D008435070C4
:101B40001078082108431070704788435070704720
:101B50000E498020487070470C4A07E0D37A082B62
:101B600004D003781372491E89B2401C0029F5D1B4
:101B7000704701460020054A04E0137A401C0B70B0
:101B800080B2491C937A002BF7D170470034004093
:101B900010B5FFF7C4FB022801D9FFF7C0FB10BD49
:101BA00030B55649CC7E0B7E4A7EC87E80252843C0
:101BB000C8760F20087621204876887E01252843A4
:101BC0008876887EC007FCD1888BCC760B764A76E7
:101BD00030BD30B58DB0122249A14E4815F098F9AC
:101BE000002841D0454857210170A821017051219A
:101BF000424AC900403A1181002101704748464AD3
:101C00004261474A0724D3691B021B0A45042B4340
:101C1000D36181610461016902229143016134222F
:101C20000021684615F054FA3E4800900120400318
:101C3000694688801B20C8730A20087401204874F4
:101C400015208874FB20800202900D20087736480A
:101C5000089036480A90084601F09AFA010007D029
:101C600033A009F089F8FEE739A009F085F8FEE70E
:101C70000DB030BD70B50C4609040AD515F06CFAEC
:101C8000002801D015F040FA01212046C903484040
:101C900070BDE00702D00120604070BD314DA0044E
:101CA00005D501F0F3FA01262F4A760308E0600417
:101CB0000DD52EA009F060F87D22D2010126B603D1
:101CC0003146287815F028FC2046704070BD002071
:101CD00070BD10B5264808F0D1FE224C207000F0EF
:101CE00063F862B6204A01214903207815F014FCFC
:101CF00010BD10B501F0AEF910BD0000401000405D
:101D000043483537785F424C455F4C49425F563116
:101D10002E34000060770100FEFFFF0000E000E0CD
:101D200004ED00E0604600202B1A0000A11B00001B
:101D30004C494220696E6974206572726F7220632B
:101D40006F64653A202578202E2E2E0A00000000B0
:101D5000686561642066696C65206572726F722EB9
:101D60002E2E0A006F43002000EE02002A20000001
:101D7000751C00000104090C02D00121090440185F
:101D8000144957220A70A8220A7012494039486340
:101D900011490020086070470E493020203908742E
:101DA0000D4901200860704710B50A48572101709D
:101DB000A821017007492039CA7B07231A43CA7337
:101DC000002101700A460846FFF749FB002008F091
:101DD0007FFF10BD401000407043002030B50B461F
:101DE000014600202022012409E00D46D5409D42F5
:101DF00005D31D469540491B25469540401915467B
:101E0000521E002DF1DC30BD70B50024254600289F
:101E100001DA01244042002901DA01254942FFF795
:101E2000DDFFAC4200D04042002C00D0494270BDE2
:101E3000F0B51FB486B00020009001900290069883
:101E4000069980B204900798090C0204001411430B
:101E500007900027089D099806913E463C4603904E
:101E60000398A9B20204000C039004982D0C1543AA
:101E700048430021224600F018F8C7197141103478
:101E80000E46402CECDB3846029A00F00EF8009A21
:101E9000019B8018009059410298019110300290E6
:101EA0004028CCDB00980BB0F0BD10B5202A04DB35
:101EB0000146203A9140002010BD914020239C1AF9
:101EC0000346E3401943904010BD03460B439B0774
:101ED00003D009E008C9121F08C0042AFAD203E09F
:101EE0000B780370401C491C521EF9D27047F0B5A4
:101EF0001FB40646002082B00546402401910090A0
:101F00001BE0019922460F46304600F033F8049A50
:101F1000059B801A994110D3104619462246FFF7B7
:101F2000C4FF361A8F410197224601200021009FED
:101F3000FFF7BBFF38184D4100902046641E002873
:101F4000DFDC019B00982946324607B0F0BD000057
:101F5000064C0125064E05E0E36807CC2B430C3CFC
:101F600098471034B442F7D3FEF796F8587B010037
:101F7000787B010010B5202A04DB0846203AD040C7
:101F8000002110BD0B46D340D0402024A21A91401E
:101F90000843194610BD70B58C180578401C6B07B6
:101FA0005B0F01D10378401C2A1106D10278401C36
:101FB00003E006780E70401C491C5B1EF9D12B070C
:101FC00005D40023521E0DD40B70491CFAE7037888
:101FD000401CCB1A921C03E01D780D70491C5B1C41
:101FE000521EF9D5A142D8D3002070BD70B50D4660
:101FF00001461446104601F06BF90E4830C004F05B
:10200000F9FC002000F07CFF012408F09FFC08F0A0
:102010007FFC07F0DBFA204600F072FF641CE4B29C
:102020000A2CF2D308F092FC08F072FC0A2000F0AF
:1020300067FF70BD5446002010B5124C2068C005E3
:102040001FD50320206000200821401C2268C0B258
:102050000A4322600EE02268920510D4222807D994
:102060000948026B002A0AD001210320904706E0AC
:10207000401CC0B22268D205EDD50028E5D1002071
:10208000206010BD80C30040D8660020F8B514461B
:102090000D460646FFF7D0FF504F3B6818680621F3
:1020A000884318607178307809024018B178F27866
:1020B000090412068918401898627179307909026A
:1020C0004018B179F2790904120689184018D862CB
:1020D000717A307A09024018B17AF27A090412064C
:1020E000891840181863717B307B09024018B17B56
:1020F000F27B090412068918401858636978287819
:1021000009024018A978EA780904120689184018CB
:1021100098616979287909024018A979EA7909044E
:10212000120689184018D861697A287A090240187D
:10213000A97AEA7A09041206891840181862697B9C
:10214000287B09024018A97BEA7B0904120689183A
:102150004018586258680221884358605A68012024
:1021600002435A601A6802431A6058688007FCD517
:102170005868884358609869207038688069000AF8
:10218000607038688069000CA07038688069000E43
:10219000E0703868C1692171C169090A6171C1695A
:1021A000090CA171C169090EE171016A2172016A0C
:1021B000090A6172016A090CA172016A090EE172D1
:1021C000416A2173416A090A6173416A090CA1736A
:1021D000406A000EE0730020F8BD0000C0450020FA
:1021E00070B50C460546FFF727FF1C4802681068CB
:1021F00020218843E907890E084310608034A06CD1
:102200001061E06C5061A0699061E069D061206A62
:102210001062606A5062A06A9062E06AD062206BCD
:102220001063606B5063A06B9060E06BD060D0680F
:10223000E16B88420AD11069A16C884208D0084835
:10224000026B002A02D0022103209047012070BDBA
:102250001068402108431060002070BDC045002078
:10226000D866002070B50C460546FFF7E5FE1C4811
:102270000268106820218843E907890E084310602E
:102280008034206C1061606C5061A0699061E069DD
:10229000D061206A1062606A5062A06A9062E06A4F
:1022A000D062206B1063606B5063A06B9060E06B3A
:1022B000D060D068E16B88420AD11069216C8842F5
:1022C00008D00848026B002A02D003210846904734
:1022D000012070BD1068402108431060002070BDCF
:1022E000C0450020D866002010B505F02FFB02493C
:1022F00003F085FF002010BD0604000010B50FF0AC
:1023000011FD10BD08B5002808D0002906D0002A0C
:1023100004D01088002801D0002008BD1220694692
:1023200008706A460121034803F065FF6946087892
:1023300008BD0000350C000008B504F0BFFD69467B
:1023400008706A460121034803F055FF6946087882
:1023500008BD00001120000008B504F065FF6946C3
:1023600008706A460121034803F045FF6946087872
:1023700008BD000010200000FEB508AF70CF6F460A
:1023800070C704F077FF0446024903F038FF204687
:10239000FEBD00001320000008B505F0C7FA69462D
:1023A00008706A460121024803F025FF002008BD9D
:1023B0000E200000FFB589B016A871C894468E465D
:1023C0000796159F129A139904AE31C6149800927D
:1023D00001910290039762467146099805F008FA48
:1023E0000446034903F00BFF20460DB0F0BD00008A
:1023F0000D20000038B5044605F01EFD6946087042
:102400004C70200A88706A460321024803F0F3FEEC
:10241000002038BD1B20000038B5044605F024FD1F
:10242000694608704C70200A88706A460321024889
:1024300003F0E1FE002038BD1A2000000EB500A810
:10244000013006F086F9694608706A46092102489B
:1024500003F0D1FE00200EBD1820000008B500A832
:10246000013005F06BFC694608706A460421034898
:1024700003F0C1FE6946087808BD00000220000094
:1024800038B5044606F0CCF9694608704C70200A4D
:1024900088706A460321024803F0ADFE002038BD73
:1024A000212000007FB5044608A861C8009002966C
:1024B0000195204606F0CCF9694608734C73200A52
:1024C000887303AA0321034803F095FE002004B09B
:1024D00070BD00002020000008B506F01BFD694615
:1024E00008706A460121034803F085FE69460878B2
:1024F00008BD00000820000008B506F095FC6946FC
:1025000008706A460121034803F075FE69460878A1
:1025100008BD00000A200000F0B585B00AACF0CC80
:1025200003976F4670C706F015FD6946087404AA44
:102530000121034803F05FFE6946087C05B0F0BD49
:102540000620000008B506F05BFD694608706A4683
:102550000121034803F04FFE6946087808BD0000DA
:102560000520000008B506F089FD694608706A4636
:102570000121034803F03FFE6946087808BD0000CA
:102580000C2000001CB5049C009406F0BBFD6946BD
:10259000087101AA0121034803F02DFE694608795C
:1025A0001CBD00000B20000008B506F0CFFD6946F9
:1025B00008706A460121034803F01DFE6946087849
:1025C00008BD00000920000010B506F026FE0249F3
:1025D00003F015FE002010BD1920000010B505F015
:1025E00083FC10BD1CB500A8013006F0C1F8694697
:1025F00008706A460721034803F0FDFD6946087824
:102600001CBD00000910000038B500A904460331C4
:1026100006F0BEF8694608704C70200A88706A4659
:102620000421034803F0E7FD6946087838BD00003F
:102630000514000010B5D2B206F078FB10BD0A7880
:1026400002708A7842704A88120A82700979C170D1
:10265000042070470A7802700988090A4170022034
:1026600070470A7802700988090A41700220704791
:1026700009780170012070470A7802700A88120AEE
:1026800042708A7882704A88120AC2704A7902714E
:102690008A7942710889801D80B270470888800459
:1026A000000C70470A7802700A88120A42708A7811
:1026B00082704988090AC170042070478A780270C4
:1026C00088780128088804D012214843401C80B231
:1026D00070478000FAE70A7802700A88120A42708E
:1026E0004888801C80B270470A7802700A88120AF3
:1026F00042708A7882704A88120AC2708888001DE7
:1027000080B270470A7802700A88120A42708A788A
:1027100082704A88120AC2708888001D80B2704791
:102720000A7802700A88120A42708A788270498890
:10273000090AC17004207047088870478A780270BF
:10274000088849884843401C80B2704710B50C4641
:10275000097801702188090A4170A1788170618827
:10276000090AC1702279611D001D14F0DFFB207978
:10277000001D10BD8A780270088849884843401CB3
:1027800080B27047088870470A7802700988090A81
:10279000417002207047088870470A7802700A88E2
:1027A000120A42704888801C80B270477FB5154677
:1027B0000446022901D0102903D1022B04D0102B8A
:1027C00002D0002004B070BD994202D10A462946C9
:1027D00007E01029694607D000F00EF8102269467C
:1027E000284614F095FBEDE7104600F005F810229E
:1027F00069462046F5E7000070B50C4605000CD090
:10280000002C0AD010220649204614F08FFB2878AD
:10281000207368786073012070BD002070BD0000D7
:102820000878010008B500220B46009201220249F7
:1028300008F098FC08BD00003F26000038B50546AA
:1028400008880C4617280DD304F064F921888842C3
:1028500008D300200090234602220349284608F0AE
:102860003DFC38BD022038BD5526000008B50A8859
:10287000172A07D300220B4600920322024908F0D0
:1028800071FC08BD022008BD6326000008B50022C7
:102890000B4600921822024908F020FC08BD0000F7
:1028A0007126000008B500210B461922009108F09E
:1028B00059FC08BD38B50C460546097900200229A7
:1028C00001D0022038BDE268002A03D0072110465B
:1028D00014F0DAFA0090234606220249284608F04E
:1028E000FDFB38BD7926000038B5054608880C4642
:1028F00000280DD0606800280AD0012114F0C4FA25
:102900000090234607220349284608F02BFC38BDD7
:10291000022038BD9D26000008B500220B4600921B
:102920000422024908F0DAFB08BD0000A5260000D9
:1029300038B5054688780C46012801D0022810D108
:10294000208800280DD0606800280AD0022114F0E9
:102950009BFA0090234605220349284608F002FC12
:1029600038BD022038BD0000BD260000064910B564
:10297000884202D104F0CEF810BD0EF03DF80028D8
:10298000FAD1172010BD0000FEFF000038B5054643
:102990004A6800200C46002A03D00321104614F098
:1029A00073FA009023461D220249284608F096FB40
:1029B00038BD0000D726000038B505464A6800201B
:1029C0000C46002A03D00321104614F05DFA009053
:1029D00023461B220249284608F080FB38BD000030
:1029E000D7260000024800210160416070470000C6
:1029F000DC45002010B5042901D0042010BD017869
:102A0000117083784478190221435180C078107185
:102A1000002010BD0098022B01D00420704751788F
:102A2000127809021143018000207047022901D069
:102A30000420704741780378080218431080002072
:102A400070470098012B01D0042070471178017065
:102A500000207047002901D00420704700207047F3
:102A600070B5049C1E461546062B1BD36878297842
:102A7000000208432080E878A978000208436080BB
:102A8000022020710246291D601D14F04FFAB01F6C
:102A90002081062E03D0AD1DE560002070BD002012
:102AA000E060FAE7042070BD8B0705D1890803D0E8
:102AB0001180506000207047042070470098042B5C
:102AC00001D004207047517813780902194301801E
:102AD000D17892780902114341800020704710B5E7
:102AE0000298022B0FD351781478090221430180F8
:102AF000991E4180022B02D0921C426001E000210D
:102B00004160002010BD042010BDF8B584890D4639
:102B1000002C2BD086683778390601D4002010E0CD
:102B20000D2C23D30C3CA4B23119009140882346CC
:102B30003246012107F074FE002801D0022000E097
:102B4000012079062870C90FBA066970920EAA7022
:102B5000641E2204120CAA8002D0761CAE6001E032
:102B60000022AA60022803D1002901D00120F8BD6B
:102B70000020F8BD10B50298042B14D351781478B6
:102B8000090221430180D1789478090221434180D0
:102B9000191F8180042B02D0121D826001E00021E8
:102BA0008160002010BD042010BD0098042B01D0CE
:102BB0000420704751781378090219430180D178B5
:102BC00092780902114341800020704710B50298A5
:102BD0001146062B03D0142B03D0042010BD022273
:102BE00000E0102202714A780B7812021A43028028
:102BF000CA788B7812021A4342800279401D091D5F
:102C000014F094F9002010BDF8B5154606460029C9
:102C100012D03478491E6C80CFB2022C0CD32146DE
:102C20003846FFF7DBF801466143B94204D12880FA
:102C3000761C00206E60F8BD0420F8BD0098D9070E
:102C400006D1022B04D05908818002600020704711
:102C5000042070470098022B01D00420704751785F
:102C60001278090211430180002070471180002969
:102C700002D05060002070470020FAE710B5029C97
:102C8000022B11D320726172507811780002084330
:102C90002080981E6080022B02D0921C626001E0AE
:102CA00000206060002010BD042010BD002901D06C
:102CB000042070470020704738B5054688680C46E8
:102CC000002802D0052114F0DFF8009023461622D8
:102CD0000249284608F002FA38BD0000E926000043
:102CE00038B5054688680C46002802D0052114F046
:102CF000CBF80090234617220249284608F032FA02
:102D000038BD00000527000008B500220B460092E0
:102D10000C22024908F0E2F908BD0000212700005A
:102D200038B5054648680C46002802D0012114F049
:102D3000ABF8009023460D220249284608F012FA0B
:102D400038BD00003927000008B50A79022A03D0EF
:102D5000102A01D0022008BD00220B46009210224A
:102D6000014908F0BBF908BD4D27000038B50546FC
:102D700008880C4600280DD0606800280AD002217F
:102D800014F082F80090234611220349284608F0E7
:102D9000E9F938BD022038BD3D27000008B50A79A1
:102DA000022A03D0102A01D0022008BD00220B46BF
:102DB00000920822014908F091F908BD4D27000052
:102DC00038B5054608880C4600280DD060680028F4
:102DD0000AD0022114F058F8009023460922034932
:102DE000284608F0BFF938BD022038BD752700001D
:102DF00038B5054648680C4600280AD0012114F071
:102E000043F8009023460F220349284608F0AAF908
:102E100038BD022038BD00008527000008B500221B
:102E20000B4600920A22024908F058F908BD00003A
:102E30008927000038B505464A6800200C46002A5C
:102E400003D00121104614F01FF8009023460B22F6
:102E50000249284608F086F938BD0000972700008F
:102E60000149486070470000DC45002001490860C6
:102E700070470000DC45002070B5054608480C4648
:102E8000854205D0172C03D303F044FEA04201D2A3
:102E9000012070BD214628460DF06EFE70BD000079
:102EA000FEFF0000F8B50646087A12250C460128F8
:102EB00009D13046FFF75AFD61880F38884201DAA0
:102EC0000220F8BD9225607A012801D140200543F7
:102ED0006068002802D0032113F0D6FF009023463B
:102EE0002A460249304608F0F9F8F8BD9B27000051
:102EF00008B500210B461322009108F033F908BDF4
:102F0000F0B50D4A002180000C4D166884466246DB
:102F10005218930000208A0092191F18145CEF5D6C
:102F20007C401454401CC0B20428F6D3491CC9B2DA
:102F30000429ECD3F0BD000054460020A069002015
:102F400007484179FF2901D1252141710548C9B2BE
:102F500001430548006801600449C16270470000F0
:102F60002867002080220801C4450020784E010017
:102F700010B580060A49800E0A4A487110684468F4
:102F8000FF2301339C4344604879074908430749BC
:102F900009680860106841681943416010BD00006D
:102FA00028670020CC45002080220801C44500206D
:102FB00080060449800E48710349084303490968A3
:102FC0000860704728670020C0220801C44500201F
:102FD00010B51249002008601149FF204871124ABB
:102FE00010481060124A11481060134A11481060CE
:102FF000134A12481060144A12481060134C012200
:103000002068D202C8608018086100F03FF9607D36
:10301000002802D10E492020086010BD94430020F2
:103020002867002000C00040C845002000C30040C1
:10303000C045002000C200409043002000D0004066
:10304000CC45002000C10040C4450020D8660020C7
:1030500000E100E0F0B54A4B186881680026890756
:103060000127484C484D002915DA81680222914316
:103070008160E770A6705D210165286800280AD08C
:1030800001690A68406902430A60296808680268A1
:1030900089680A43026018688168C90713D081688B
:1030A00049084900816026706770286800280AD0A6
:1030B00041680A68806802430A602968C868026833
:1030C00049690A4302602E4800688168C90524D511
:1030D0008168FF220132914381602178490605D53C
:1030E0002A4B996BA1609A6B9142FAD121783943AE
:1030F00021706670E179062901D05D21016528689B
:1031000000280AD001690A68406902430A602868F9
:1031100001680A68806802430A60194A1068816879
:10312000890516D5816801235B0299438160A078E7
:103130003843A070E670286800280AD041680B6800
:10314000806803430B602868C1680B6840690343CB
:103150000B6010688168C90603D58168102291430D
:1031600081608168490703D58168042291438160A9
:103170008168090703D58168082291438160F0BD09
:103180009043002028670020944300200010004056
:1031900070B53D4D0446687D002805D1016D406D38
:1031A000814201D1012070BD2068002818D0012182
:1031B000000C4903884213D1A088002810D0204673
:1031C0000622FF21163013F094FE01280AD0A068D1
:1031D000002809D07D21C902884205D2062070BD91
:1031E000022070BD032070BDA2880021206813F06A
:1031F0006FFF34220021244813F06AFF3422214655
:10320000214813F093FEA889002802D10120400232
:10321000A881A97B0120002900D1A873E97B00299E
:1032200001D11B21E973297C002901D10A212974CC
:10323000697C002900D16874A87C002801D1152080
:10324000A874A87F002801D12820A877E87C00284E
:1032500008D0A97FE07C49084018E874607F002806
:1032600004D005E0A87F40085030F6E704206877D6
:10327000A86A002803D0804703493431C88007F08A
:10328000B3FB002070BD0000D866002010B500F030
:103290007BF803F0A3FD06F0DBF9FFF751FE0A4CC3
:1032A0005D202168086506F09DFA07F05BF806F0DE
:1032B00061FA06F033FA2168002008650349C871F5
:1032C000FEF7BAFE10BD00009043002028670020E2
:1032D00000228B5C8354521CD2B2102AF9D370475F
:1032E00070B50E4B00209989002901D10C499981B4
:1032F0000E210124A4039A8915462540CD4052048D
:10330000120C0543E8B25604D50BF60F7540154371
:10331000491EC9B29D810629EDD870BDE468002020
:10332000FF7F000070B50E4B00205989002901D1A4
:103330000C49598108214C015A8915462540CD4038
:1033400005435200E8B2550A56097540ED07ED0FE6
:103350001543491E09065D81090EEDD170BD0000BF
:10336000E4680020FF01000000220AE0022101E0E1
:1033700000BF00BF0B46491E89B2002BF8D1521C7A
:1033800092B28242F2D370470A4809490068CA687B
:103390000261CA68426109698161C1618268012173
:1033A00049030A438260C2680A43C2607047000052
:1033B00028670020C845002030B5104A0346517ADE
:1033C000FD20842454720E4CA568002D07D0A57BE7
:1033D000002D04D0A489E51FFF3DFA3D02D05172B3
:1033E000FF2030BD7D24E402A34205D35360A62014
:1033F0001072907A40235840517230BD001800403E
:10340000D866002010B506490C46483CA1622063EE
:10341000A17D182001F010FEA07D02F0F5F810BD8E
:103420005C450020F8B500240F4E274613E0F06BF2
:10343000250128180622FF2113F04AFEF06B062210
:103440002818FF21801D13F043FEF06B2818878198
:10345000641C8773E4B2F07D8442E8D3002013F04B
:1034600017FFF07D3076F8BD1445002010B50446F6
:1034700000F0D4F80248847508F0FAFC10BD000092
:1034800014450020FFB58FB0064600200C900D902B
:103490001F460CAA304600F0B5FA454D0446E87DBB
:1034A00084425AD2204608F0C3FC0646042F04D0BA
:1034B000A879022803D0002002E02878F9E701204B
:1034C00000903B4632462146119808F06FFB1422CB
:1034D000002101A813F0FCFD20460621484300907E
:1034E0002430C0B201AA102113F030FF002813D1FC
:1034F0001022FF2101A813F0FCFC00280CD1009839
:1035000005AA2530C0B2042113F020FFF107C90F2E
:1035100001AA119801F0A0FD7034E0B206AA1821AA
:1035200013F014FF002811D106A808F093FC002422
:10353000A10006A808180188002903D082781198F4
:1035400002F0C6F8641CE4B2062CF1D3B00706D52D
:10355000A97D119802F0AAF801E0082F02D0042FEB
:1035600013D021E0A87902281ED1002231461198FB
:1035700008F056FAA86A002816D04368002B13D02A
:1035800000221146119898470EE0287802280BD1A6
:1035900029791198002900D001216A78002A00D0E9
:1035A0000422114301F028FD002013B0F0BD0000FB
:1035B00014450020F8B501F07BFB00282BD1164DF7
:1035C0000026A87C012801D000241CE008F062FB42
:1035D000AE740020EA7DE96B04E003015B18401C37
:1035E0009E73C0B29042F8D310E0E86B2701381800
:1035F000807B012805D1204608F05EFBE86B381877
:103600008673641CE4B2E87D8442EED3502013F04C
:1036100061FE08F02DFCF8BD14450020F8B5354ECC
:10362000FF20B0750027F775334CF763A07B30217E
:103630004843422113F096FCF063002825D0204631
:10364000807B41004018F075002413E0F06B2501E9
:1036500028180622FF2113F03BFDF06B06222818E4
:10366000FF21801D13F034FDF06B28188781641C46
:103670008773E4B2F07D8442E8D31F488068002855
:1036800001D0777601E080207076F07D30760124DD
:10369000776334707770B770F77010220021174885
:1036A00013F016FD3771772575713762B471F771B4
:1036B00012483772777210220021103013F008FD83
:1036C000B772F57277623773052070731020B0738C
:1036D000F77302203074B762F76237637774B77498
:1036E000F47404483475747505494830016005491F
:1036F0004160F8BD14450020D866002028680020ED
:1037000009C10000D1C0000070B5002405460029A1
:103710000BD108491046FEF761FB0846294601F027
:1037200023FB040003D00121284601F0BDFC204604
:1037300070BD000040420F0010B506490C46483CE1
:10374000A162E062A17D182001F076FCA07D01F06D
:103750005BFF10BD5C45002070B5264D0C4608048B
:103760000FD5A87D13F0F8FC050006D008F022FC68
:10377000002802D0284613F0C7FC0120C003604097
:1037800070BDA0070BD50021084608F0AFF8022154
:103790004C40002825D1A87D13F068FD1FE0E0070C
:1037A00021D0686B808808F037FC01214C4000284C
:1037B00017D0A86A00280DD04368002B0AD0686B88
:1037C000002280889847A96A686B00224B6880882D
:1037D00003219847E87C13F099FD08F079F820461A
:1037E00070BD0121D7E7600702D50420484070BDB5
:1037F000002070BD144500207FB5044680787F4DC1
:10380000801F030007F0E0FA0AF4F7F7A41306F0AC
:10381000F778B9F7A96A2046002907D00C68002C70
:10382000FBD0437B027B4189C01CA047E3E060786A
:103830000026002847D1A079C00744D0686B002833
:1038400041D110220021684613F042FC6169002931
:1038500003D006226846103107E0A0880CF0F8FF7C
:103860000028E3D0811D0622684613F05FFB6946FD
:103870008889A1794907C90F08436946888108F0FA
:10388000BDF9E97D88420BD1687D002801D0FFF7A2
:10389000C9FD5B48026B002A02D001210820904735
:1038A00008F0ACF9E97D8842687E02D10121084325
:1038B00001E04008400068762146684608F016F8A6
:1038C000002812D01526A86A002855D04368002B7E
:1038D00052D06278A08801219847002E4CD0A96A66
:1038E000A0884B683246032173E00221A87D13F0C3
:1038F000BDFC002004B070BD6078062817D1A088F8
:103900000CF0A6FF060012D0287C012804D0022863
:1039100008D003280BD114E07179A088002208F0A8
:103920007FF804E0A1883078052201F0CDFBA86A79
:10393000002860D04368002B5DD06278A088022107
:1039400047E0002241201146000100F0F7F8E9E7C6
:10395000E0780022211D00F055F8E97D88424AD226
:103960000621484325302246C0B20C32042113F010
:1039700031FDE87C13F0CAFC3DE0287B002802D032
:10398000A088697B28E028780028A08823D00CF044
:103990005FFF06002FD0A07AC0070BD070790028F7
:1039A00008D0A189890505D46A46B11D00F02AF81E
:1039B000002814D022467179A088083208F030F827
:1039C000A86A002817D04368002B14D00022A088D2
:1039D000114698470FE0052101F066FB0BE0A08837
:1039E0000321F9E700E003E0A08800F021FA02E0FB
:1039F000A088FFF7DFFD01207CE7000014450020D0
:103A0000D8660020F0B52E4E85B0F47D15460F46E1
:103A1000002806D0012804D0022811D003284BD159
:103A200021E0084608F0BCF9F17D0446884243D203
:103A3000002D41D006223946284613F077FA3BE0A4
:103A400000240BE0F16B2001401806223946801D4E
:103A500013F05EFA002826D1641CE4B2F07D8442A3
:103A6000F0D3C4B21FE0002419E0204606214843E9
:103A70002330C0B26A46102113F068FC00280CD134
:103A80001022FF21684613F034FA002805D1394688
:103A9000684601F07FFA002805D0641CE4B2F07D8E
:103AA0008442E2D3DDE7F07D844205D2002D03D0CD
:103AB0002946204608F09CF9204605B0F0BD0000DC
:103AC00014450020F8B50E4619491525194F8842AE
:103AD00014D1002409E032460221204608F0A8F85B
:103AE000002800D00025641CE4B2F87D8442F2D3A3
:103AF000002E1BD010480CF0C7FF17E00CF0A8FEFA
:103B0000040012D060790022A11DFFF77BFFF97D30
:103B1000884204D23246022108F08AF80025002E9D
:103B200004D0204608F0E2F900E014252846F8BD4C
:103B3000FFFF000014450020EDBE0000F0B5074671
:103B4000012080021546381A89B00024B44AB54EC7
:103B5000030007F039F91F11181F262D333A3F468D
:103B60004D545B626970757CEEEDECEBEAE989E837
:103B7000E7AAAAF2F5E4EA00012971D1287802281F
:103B80006ED8307049E10129F7D128780128F7D89B
:103B9000707042E10129F0D128780428F0D8B07083
:103BA0003BE10129E9D128780128E9D8F07034E116
:103BB0001029E2D1102229469B48ADE00129DCD131
:103BC00028780128DCD8307127E10129D5D128785F
:103BD000707122E10429D0D128689042D0D8306297
:103BE0001BE10129C9D128780228C9D8B07114E194
:103BF0000129C2D128780128C2D8F0710DE101292C
:103C0000BBD128780428BBD8307206E10129B4D191
:103C100028780128B4D87072FFE01029ADD182480D
:103C200010222946103077E0012919D1287801287F
:103C300016D8B072F1E0012912D12878F072ECE0C8
:103C400004290DD1286890420AD87062E5E0002965
:103C500006D101F02DF8002803D00120B074DCE07B
:103C600073E008F017F81CE007296ED10622691CE2
:103C7000684613F05BF9287800226946FFF7C2FE18
:103C80000546F07D854239D201F012F8002805D0B2
:103C9000F26B0120290189188873BEE0284608F0DC
:103CA0000BF8502013F016FB95E007294DD10622A2
:103CB000691C07A813F03AF92878002207A9FFF732
:103CC000A1FEF17D88421BD20621484305462135DD
:103CD000E8B26A461C2113F039FB00280ED1534884
:103CE000874201D1012000E0FF206946C876E8B292
:103CF0006A461C2113F06EFBF07C4AE002248CE043
:103D0000707E0028FAD04948874213D10120B0764E
:103D1000444807222946403013F008F97DE06BE063
:103D20000EE00AE066E060E058E06CE04AE041E066
:103D300039E031E00020B0766FE0002030756CE0B3
:103D40000027012030753D461BE057E0284606213C
:103D5000484306462136F0B26A461C2113F0F6FAB3
:103D600000280CD16846C07EFF2808D0FF20694695
:103D7000C8760127F0B26A461C2113F02BFB6D1C9C
:103D8000EDB22848C07D8542E0D3002F45D02548BC
:103D9000C07C13F0BBFA40E001292FD1287801281C
:103DA0002CD8307339E0012928D12878092825D862
:103DB000707332E0012921D12878C11F09291DD84B
:103DC000B0732AE0012919D1717C28787074002918
:103DD00023D1012821D108F04BF81EE001290DD193
:103DE000287803280AD8307417E0012906D12878EA
:103DF000F07412E00120CCE7012901D018240CE076
:103E00002878707509E0192F00D377E70229FCD1D3
:103E10002988384601F010F90446204609B0F0BD63
:103E20003F420F0014450020286800201A040000BB
:103E3000FEB5064600200190029030460CF008FDC9
:103E4000040017D0144FB879022813D0607901AA62
:103E5000A11DFFF7D7FD0546F87D85420BD2284608
:103E600007F0E6FF0246012000900823294630466D
:103E700007F09CFEFEBDB879002807D00128F9D1D3
:103E800061790022304607F0CBFDFEBD05213046AA
:103E900001F00AF9FEBD000014450020F7B51649EF
:103EA0001525164E174688420FD1002409E03A46E0
:103EB0002046019908F024F8002800D00025641C51
:103EC000E4B2F07D8442F2D313E00CF0C1FC002890
:103ED0000ED04379811D00221846FFF793FDF17D36
:103EE000884206D23A46019908F00AF8002500E017
:103EF00014252846FEBD0000FFFF000014450020E9
:103F000010B51448007F80080DD0134806F0B6FDA8
:103F1000124CFF28207006D000F00EFB10480078ED
:103F2000002802D013E0182010BD0E4A10210220F4
:103F300013F00CFA0C4A1021032013F007FA0421A5
:103F40000A4A084613F002FA207801F01DF8002012
:103F500010BD0000D8660020094000006845002020
:103F6000764500208768002097680020844500205F
:103F70003EB5084C6D4624782C706870A970EA70C4
:103F80000622194601A812F0D1FF684600F074FD20
:103F90003EBD00006845002010B504F01FF813482E
:103FA0000078002801D0FF281DD1114806F066FDD9
:103FB00002F0C2FD0F4806F061FD00F0F1FD0E4871
:103FC00006F05CFD01F020FD0C4806F057FD06F000
:103FD000A7FA0B4806F052FDFFF748FA094806F029
:103FE0004DFD01F013F9FFF78BFF10BD7045002068
:103FF000796C0000A54E0000915B000031A6000026
:10400000593700008953000070B50C4608040DD5DF
:104010000F48007813F0A0F8050004D008F0A8F9C4
:10402000284613F071F80120C0030CE060040CD5A1
:104030000421084A084613F0CDF90748007813F028
:1040400065F901208003604070BD002070BD000054
:104050006845002084450020274500207CB5144693
:104060000D4601F019FE002D02D02846FFF7CAF9CF
:104070000A48002C00D0446009490978002901D081
:1040800000207CBD0849074A009101920849074B6E
:104090000A780821007800F071FC7CBD684500209A
:1040A000764500208445002097680020876800201E
:1040B0007545002038B5054B6C461B782370607041
:1040C000A170E270684600F01DFC38BD6845002014
:1040D00070B50C460146032000020A1A0025254847
:1040E000130006F071FE130B0D10171A1E2125295F
:1040F0002B2D3133393B3D3D35373D00407811E0C4
:1041000010221D4902E01C4910221031204612F0F5
:104110000DFF2DE0406920602AE0164906221E317D
:10412000F4E7C078207023E0124982782431EDE76B
:10413000114902791F39E9E7407AF3E7807AF1E71C
:104140000C4906221831E1E7C07AEBE7007BE9E78A
:10415000C0890AE0008A08E0007AE3E74079E1E7F5
:10416000192904D2084600F00FFD208000E0022546
:10417000284670BD7045002087680020F8B5164CB1
:10418000FF202070002565700320A0700126E670D6
:10419000062765611920E781C001208220461F2281
:1041A0002946243012F094FF204602212430017069
:1041B0004670877025711F220021084812F088FF81
:1041C000204606220021183012F082FF6571A57189
:1041D000FF20E071F8BD00007045002068680020F5
:1041E000FFB583B01C4615460E460C9F03980CF095
:1041F0002FFB002817D0C189B14207D3A94205D8A7
:10420000018AA14202D1408AB8420ED06846068097
:1042100045808480C78069460D9A039802F04CFC63
:10422000002007B0F0BD1420FBE71820F9E70000DC
:1042300010B52548007F800744D0244C2078FF2803
:1042400040D1234806F01AFC2070FF283AD02149BB
:1042500000240C602049214A0C700421117000F0E8
:1042600093FE102200211E4812F032FF102200217E
:104270001C4812F02DFF1C481E4904601B48184AB8
:1042800004701B480470072008701B48102104703C
:10429000022013F05BF8134A1021032013F056F8A4
:1042A00010220F49154812F041FE144810220D4902
:1042B000103012F03BFE04210B4A084613F046F87A
:1042C000002010BD182010BDD866002070450020C9
:1042D00061430000644500207845002071450020BE
:1042E00087680020976800208445002079450020D9
:1042F0007A4500207B4500207C450020486800204E
:1043000010B504F041FF104806F0B8FB02F014FCB1
:104310000E4806F0B3FB00F043FC0D4806F0AEFB80
:1043200001F072FB0B4806F0A9FB06F0F9F80A4809
:1043300006F0A4FBFFF79AF8084806F09FFB00F090
:1043400065FFFFF775FF10BD796C0000A54E0000FA
:10435000915B000031A6000059370000895300002E
:10436000FEB54A4C0D46080448D5207812F0F4FEFC
:10437000040040D046480078002808D02078454EF8
:10438000D02808D0A22802D0912821D014E02046BD
:1043900008F014FF2CE0A07800280DD0052807D0E5
:1043A000082809D006280BD00728F0D1A0881BE0E8
:1043B000608919E0007B04E0204608F0FFFE02E07F
:1043C000E0790828E3D12146307812F0FDFE12E0B2
:1043D00060780E28F0D1A0882F498842ECD1A068DF
:1043E00081784278080210430CF032FA0028E1D1BB
:1043F000204612F089FE0120C00345E068040BD579
:104400000421264A084612F0E5FF2548007812F0FC
:104410007DFF0120800337E0E80736D0214800788F
:10442000002830D00CF048FB1F49097F8907890F0D
:10443000884203D30320694608700CE01B48694694
:10444000007808701A4806220078487000A81949B8
:10445000023012F06BFD1848694600780872174860
:1044600000784872207800F0B7FB00280BD0144980
:104470000620087013490968002904D00A68002A38
:1044800001D00021904701206840FEBD704500200A
:104490007645002077450020051400008445002063
:1044A0002745002073450020D8660020794500206C
:1044B0007A450020884500207B4500207C4500206F
:1044C00078450020644500207CB514460D4601F077
:1044D000EFFB002D02D02846FFF72EF90C4800789C
:1044E000002801D011207CBD002C01D009480460B7
:1044F0000A48009008490B48019102780A48084B85
:1045000001780A48007800F039FA00207CBD0000EC
:1045100078450020644500208445002097680020ED
:1045200087680020754500207145002070450020F7
:1045300010B501F051FF10BD0449C8710878FF287B
:1045400003D0012088710C2048707047704500200E
:10455000F8B50C465E491646421819210025C901D6
:104560005C4F130006F030FC120A1017A81C3E52D4
:104570006970778188A8A3A8A88F98A8102C73D1F8
:104580001022314654486CE0102C6DD15248102254
:104590003146103065E0042C66D13068786190E0D7
:1045A000012C61D1F97830784A4AF87012780029E4
:1045B0000AD0002807D1387A022801D0052802D174
:1045C000104600F02FFA7CE000287AD0387A0128D3
:1045D00003D0032801D0042873D10121104612F022
:1045E00045FE6EE01F2C60D83A481F22002124307F
:1045F00012F06EFD374822463146243012F096FC08
:10460000344BBC7024332246012112E01F2C4CD8BD
:1046100031481F2200211F3812F05AFD2E48224631
:1046200031461F3812F082FC2B4B3C711F3B224657
:104630000021387800F08CFD48E0012C35D130782D
:10464000042832D878723CE0012C2ED1307803282F
:104650002BD8B87235E0062C27D11E4806223146E9
:10466000183012F063FC2CE01FE0012C1DD13078D3
:1046700007281AD8F87224E0012C16D130780328C4
:1046800013D838731DE03088022C0ED106280CD3C5
:1046900088420AD8F88114E03088022C05D1062817
:1046A00003D3884201D838820BE0182509E0012C99
:1046B000FBD13078787104E0192801D2022C02D0A5
:1046C00002252846F8BD318800F0B6FC0546F8E71B
:1046D000FFFCFFFF704500208768002010B50446EE
:1046E0000CF0B6F8002805D000781322214600F01F
:1046F000EBFC10BD122010BD3EB50024069D0194B8
:104700000095029401F0A9FD3EBD0000F8B50E46EB
:10471000070048D038880CF09BF8050041D0234AA8
:10472000A96BD078022806D0012804D0287B08285D
:1047300003D1002E01D0122436E0002901D011242B
:1047400032E047212C2012F00DFC0446A863200023
:1047500025D02C22002112F0BBFC388860801C225E
:10476000391D201D12F0E2FB022020700F483A880C
:104770000178287B082810D00020231D06F005F8BA
:104780000446002E03D03146284611F0D1F9002C02
:104790000AD0284607F070FE06E00120EDE713245A
:1047A00002E0142400E002242046F8BDD445002095
:1047B000FFB51F4881B0C0781E4617460D46022837
:1047C00018D0012816D0002F30D001980CF040F8F6
:1047D000040029D0E06A002801D012F0FFFB1C2160
:1047E000384612F0AFFBE062011E1BD0207B082888
:1047F00003D00DE0122005B0F0BD002E08D0887E59
:1048000000900B4612330A8A019811F0D9FC00E09F
:1048100000202179002D01D0062200E0042211435E
:104820002171E8E71320E6E71420E4E70220E2E73D
:10483000D445002010B50548C078000701D50448CC
:1048400000E0002008F0C2FB10BD0000D4450020AD
:10485000F845002070B51B4C05460121207807F073
:1048600031FE1948C1780A20014224D02046257023
:104870000C3008F0A5FB606800281AD120780028C9
:104880001DD00001072112F06DFB6060002810D0E0
:1048900021780A01002112F01BFC0020FF2223785E
:1048A000616803E00401401C0A55C0B29842F9D384
:1048B00005E0132070BD0020207008F081FB00206F
:1048C00070BD0000E4450020D445002008490020C8
:1048D000087048608860064806490C300160064947
:1048E0004160064908300160054941607047000099
:1048F000E4450020ADC2000079CB00008DC100006E
:10490000C5C1000038B51A4D0446A868002801D07A
:10491000112038BD17480A21C078084225D005214A
:10492000042012F01FFBA86000281CD0042221469E
:1049300012F0FCFA052000F027F90546062000F0E9
:1049400023F90246E078002800D001200A4989783E
:10495000002901D0012300E000230090A07829461F
:1049600001F016FD38BD132038BD122038BD0000FF
:10497000E4450020D445002054670020F8B5022407
:10498000079F1D461646042919D004DC012907D0CB
:10499000022945D10BE008291BD00C2940D129E080
:1049A00000F0C6F904003BD100F01AFA38E000F03C
:1049B000BFF9040034D13046FFF74CFF30E000F07F
:1049C000B7F904002CD13A462846069900F0E6FAD9
:1049D00020E000F0ADF9040022D13A4628460699BD
:1049E00000F0DCFA3046FFF735FFFFF723FF05F054
:1049F000A9FD15E000F09CF9040011D13A462846C3
:104A0000069900F0CBFA3046FFF724FFFFF712FFBC
:104A100005F098FD00F0E4F900F0CAF905F06CFE2D
:104A20002046F8BD70B5104C2168002919D00978CE
:104A3000814214D10D4D0221287812F0CFFD0C488F
:104A4000002646802878042112F0C8FD09484671E6
:104A5000216803204870002001F083FC70BD032012
:104A600070BD122070BD0000C0430020D44500205E
:104A70000046002054670020F0B504463D488BB046
:104A8000C078000772D53C488068002801D0102407
:104A90006DE000F00DF939490978884264D2384E4A
:104AA0003068002801D0112461E006210A2012F0AC
:104AB00059FA3060002854D00A22214612F036FA02
:104AC00030684078002805D00B2000F05DF80A908F
:104AD0000C2004E0092000F057F80A900A2000F0AA
:104AE00053F8044627488078002801D0012500E0CB
:104AF0000025102000F048F807460F2000F044F889
:104B000000900D2000F040F801900E2000F03CF8DD
:104B10000290082000F038F80890072000F034F8E0
:104B200009903168C878091D06F0B5FE0346019A60
:104B300002990098049106900797059232680999A6
:104B40000898161D009602910390019592782146CF
:104B50000A9801F0A1FB040009D0032007F0A6FC8D
:104B600005E0132403E001E0152400E012242046B0
:104B70000BB0F0BDD4450020E44500200C450020DA
:104B8000C443002054670020192801D3024870470D
:104B900002494000085A7047FFFF00007467002078
:104BA00010B5044600F088F800F05CF9FFF78EFEBF
:104BB000FFF7E4FA0649FF23CB7000228A700A71DE
:104BC0000448052143700470204602F09DF810BD92
:104BD00054670020D4450020F3B5304E00243068DF
:104BE00083B0002802D0112005B0F0BD2C4D052166
:104BF000E878084201D11220F6E72A4949680029DD
:104C000005D00978002902D0C00702D008E01020A2
:104C1000EAE700F04DF807460BF030FF874207D374
:104C200004980078022803D0032801D0122432E02F
:104C300047210C2012F096F9306000282AD0039901
:104C40000170002141700A22801C049912F06EF953
:104C5000154EB078032806D008F04EFC04001AD098
:104C600007F0FEFB17E007F083FC694605F0E5FB63
:104C7000684607F003FF012030711120FFF784FF21
:104C80000006000E707106D02878084A042112F040
:104C900031FC00E013242046A6E70000C0430020BA
:104CA000D445002000460020546700200077010012
:104CB00010B50BF0CDFE10BD1A48002101704170F7
:104CC00041608160C1600161416181611648B42227
:104CD00001804280012292038280A022C280028150
:104CE0001022428182815023C381038242828282C8
:104CF000C2827D2302831B0143838183C18301849C
:104D00000F234384094B83840723C3840285012234
:104D100042857E22D2438285C1850186491E418615
:104D200070470000AC4300207467002080BB000087
:104D300070B50E46054620220021094812F0C8F938
:104D4000074C0848E570C67001F03CFB002803D012
:104D500000202070122070BD0121217070BD000064
:104D600054670020D44500207FB504460D46084610
:104D70000BF06EFD002817D00C48844212D210228E
:104D80000021684612F0A4F969460C70200A4870A8
:104D9000200C8870200EC8702946684605F006FC75
:104DA00004B070BD0220FBE71220F9E740420F007B
:104DB00010B50848C078400707D5074808F012F931
:104DC00000200649C043C88010BD002008F00AF941
:104DD00010BD0000D445002010460020546700207C
:104DE000F8B51D4C00256068002802D012F0F6F8D6
:104DF0006560E068002802D012F0F0F8E560174E18
:104E00000527F078384223D0154808F0E5F8F07807
:104E100038421BD04721202012F0A4F860600028FF
:104E200014D02022002112F053F94721202012F043
:104E300099F8E060002805D02022002112F048F9FE
:104E40000020F8BD606812F0C9F865601320F8BD55
:104E5000002008F0C1F8F3E700460020D445002008
:104E6000A86800200948FF210170002141804160AD
:104E70008160C160074806490160074941600749F0
:104E800081600249064810310860704700460020E2
:104E9000E5C70000A868002075C80000F9D400002C
:104EA00055C70000FEB5354F354D0C4608041FD5DB
:104EB000387812F051F9061E17D03078A22806D0A3
:104EC0007D78304607F09CFF00280AD102E02C488C
:104ED000C578F6E7FF2D04D03146284612F074F964
:104EE000E6E7304612F010F9E2E70120C00341E0A6
:104EF000E0070126234900280AD04868002804D08A
:104F00004168002901D00020884720467040FEBD3E
:104F1000A00709D5C868002804D04168002901D03D
:104F200001208847022025E0600725D56879002800
:104F30001FD0401E0006000E68711AD14869002873
:104F400008D02E71C868002804D04168002901D01B
:104F5000012088476946E86805F06FFA684607F05F
:104F60008DFD1120FFF710FE68713878042112F0D2
:104F700035FB04206040FEBD0020FEBDD44500206E
:104F800054670020AC43002001494870704700007E
:104F9000D445002010B505F089FB10BD70B5154C47
:104FA0000E46626121610546E0601022FF21304615
:104FB00011F09FFF012806D010220021304611F089
:104FC00098FF012803D11021206910F0A3FB1022C3
:104FD000FF21284611F08DFF012806D01022002164
:104FE000284611F086FF012803D11021E06810F057
:104FF00091FB70BD546700207FB50C4605460BF051
:1050000027FC002814D0826B007B042802D01220D9
:1050100004B070BD002A00D0947D6846214611F08E
:105020000BF9044B6A460221284611F087F8EFE796
:105030001420EDE72B670100192802D2044A91429F
:1050400001D102207047034A4000115200207047EE
:10505000FFFF00007467002070B50E461149154629
:10506000CB78022B17D0012B15D0002D17D00BF0C9
:10507000EFFB040011D0002E03D020790221084359
:105080002071204610222946183011F04FFF286960
:10509000A062002070BD122070BD142070BD0220DF
:1050A00070BD0000D445002038B50C4605460BF015
:1050B000CFFB002806D0684604706946284611F0E8
:1050C0002BF838BD142038BDF7B505461E4812260A
:1050D0001E4F0C46814208D1B868002832D00268C1
:1050E000002A2FD028469047FEBD1748401C844216
:1050F00019D1B868002806D00268002A03D02846D3
:105100009047002806D02846029906F0B7FB060013
:1051100005D017E07D70029838700020FEBD7D70CC
:10512000029838700EE008460BF092FB002809D078
:105130000078A84201D00320FEBD2046029901F06C
:1051400066F8FEBD3046FEBDFEFF0000AC43002009
:1051500070B51446024620481E46C0780523184202
:1051600024D01E4D00296B68E86802D0002B1DD0AA
:1051700001E000281AD0202C2CD2002C01D0002EC7
:1051800028D02A70002913D01F220021581C11F0AA
:105190009FFF686822463146401C11F0C7FE6968CF
:1051A00020460C70491C01F0D8F870BD122070BD6B
:1051B0001F220021401C11F08BFFE8682246314677
:1051C000401C11F0B3FEE96820460C70491C01F048
:1051D000E5F870BD022070BDD445002000460020D7
:1051E00010B5094A014613790020002B0BD1012389
:1051F0001371C90707D013466433184610220421DF
:10520000403800F007FA10BD9C440020F8B5044671
:1052100000F012FF00F044F8114F134EFC701149DA
:10522000304600F025F84721C02011F09BFE0022F7
:105230001346B86194010653002124180C254D43F0
:105240006519AB80491CEB600529F7DB521C032A6A
:10525000F0DBF878787005480BF04AFCF8BD0000E8
:105260009C440020EA670020FFFF000029E50000C1
:1052700070B50A4C0025A04208D1002082008C5253
:105280005218401C95700328F8DB70BD09F01DF919
:105290000028FAD00480857070BD0000FFFF000078
:1052A000F0B51E4920200870FF2048708870C87033
:1052B0000126CE8000200881C86008610B460224C8
:1052C0001C3348611C70164A5A600A460871243221
:1052D0001470144D556016725081D3601474124FBF
:1052E00015466F612E766883E96120215454134678
:1052F0000E4D59185D6208725885D8623021545499
:105300000B4C0323511854630B725087094ACA602F
:105310000249094A643105C10860F0BD9C4400207F
:10532000DE770100E0770100E6770100FE770100FB
:10533000EC770100EA670020D9EF0000F8B50E46CF
:105340000746069900240798002902D00B2420461E
:10535000F8BD022B01D00D24F9E7517812780D0227
:1053600015432946814301D08024F0E73846F1688F
:1053700000F042F9A842EAD02A463846F16800F027
:10538000EFF90446E3E7000070B50D4608041AD5AE
:105390000E48C07811F0E0FE04000FD02078B0284D
:1053A00009D1204609F056FA002804D02046217978
:1053B000083000F023FE204611F0A6FE0121284609
:1053C000C903484070BD002070BD00009C4400200F
:1053D000FFB585B000200F9F0090087A0E9D1C46F7
:1053E0000E46C0060BD5079809F068F803007DD07B
:1053F0000A223146059898470090002816D1307847
:10540000022815D0079809F07FF80028EFD000682F
:1054100084460028EBD011991098224600970291FB
:1054200001902B46314664460598A04709B0F0BD6F
:105430007068292241780078090201431202881A13
:1054400091427CD00BDC6948081A13D0012811D096
:10545000022817D00328D5D1002F53D09BE0012874
:105460007ED002286DD0032877D00428CAD1002F1F
:1054700068D090E0002F6FD1F06801782980027821
:10548000416884E0002F67D1F068417800780F020E
:10549000074304202880F06804A900782070F06891
:1054A00040786070384600F0D3F9060022D0684694
:1054B000028A03AB4E493046F76800F027FA00280D
:1054C0000AD1337802214B487268FDF76FF9002842
:1054D00002D1474869468881387802280CD10222D7
:1054E000201D796811F022FD288800E07CE0801CF6
:1054F000288001E06846878168468089A070000A9C
:10550000E0706FE001202880F068002100782070B2
:105510007089401C80B200F09BF9002813D02988C4
:1055200002788918891C2980817A61704189090A69
:10553000A17002784168E01C11F0F8FC52E00CE028
:105540000EE026E03BE028880422001D2880002190
:10555000601C11F0BDFD45E01DE0002F27D01AE0D2
:10556000F06812F04EF880B2B84201D207205DE731
:10557000874201D1002006E01099C919814201D368
:10558000C01B00E01098288082B2F068C119204644
:10559000D2E7002F01D00B2048E7F168059800F012
:1055A0002BF8022129802070000A60701AE0022086
:1055B0002880F06800782070F0684078F5E70721CF
:1055C000F068298001782170417861708178A1703C
:1055D0004188090AE1700179217181796171C0887E
:1055E000000AA071009821E70E201FE700280000A4
:1055F000FFFF0000E277010010B508F066FF002809
:1056000000D0807810BD000001498870704700000C
:105610009C4400207CB51E4605001CD068460180D5
:105620008270019500F04AFB04001FD1002E1DD0AE
:10563000688900280FD047210C2011F093FC002826
:1056400013D00021016069898180094A866011694F
:10565000002903D107E002207CBD11460A68002A18
:10566000FBD1086002E0106100E0132420467CBDFD
:105670009C440020F8B50C4C0746A07815460E4611
:10568000FF280FD00A2011F02BFD01000AD0B12015
:1056900008704F80002048700871CE800D81A0787E
:1056A00011F092FDF8BD00009C44002070B50C463E
:1056B00005460649FFF7A0FF800704D52146284686
:1056C00000F056FB70BD012070BD0000EA670020AD
:1056D0000EB56B461A81FE2300220193009202232D
:1056E00002AA00F001F80EBDFFB583B0174602A96B
:1056F0000D9E049800F0ACF804002AD0684600899A
:1057000008F002FF002822D04568002D1FD00C9819
:10571000019600903A462146069B0398A84705004B
:1057200018D1FE2E16D02078022813D16068417857
:10573000027808020949104388420BD178783978F9
:1057400002020A4304990398FFF794FF02E00E2532
:1057500000E00125284607B0F0BD00000229000046
:1057600070B514460E46054608F0AFFE002806D177
:105770003146054808F0A9FE002803D00580847052
:10578000002070BD112070BDFFFF000010B5017832
:10579000B0290BD14178002908D10179122906D00E
:1057A0001B2903D14088012101F0BAF910BD417CC9
:1057B0000129F7D010BD0000FFB5002489B01E46B6
:1057C00015460F46022A05D0102D03D0022420468C
:1057D0000DB0F0BD002FFAD007A9099808F002F922
:1057E0000400F4D1012069468880801EC8800D72B3
:1057F00002A82A463946013011F098FB01A9099800
:1058000008F084F80400E2D1034B072201A90096B6
:10581000079809F025FDDAE7A92A0000FEB50E4633
:105820001546074601A908F0DDF804000CD1314601
:105830003846FDF703F8040006D1044B0322314635
:105840000095019809F00CFD2046FEBD2D2A0000B0
:10585000F0B5104A536919E09C686589A84214D3D1
:105860009E887219824210D900220CE017013F195C
:105870007F89874205D1002900D00D8010010019D1
:10588000F0BD521C92B2B242F0D31B68002BE3D1A0
:105890000020F0BD9C440020FFB51B4883B00023CE
:1058A00045692DE0AE68002470890190A8880090B9
:1058B00016E0210188194289039FBA420ED3049F42
:1058C000BA420BD8069A002A0FD01346715C406882
:1058D000059AFCF76BFF002807D10023641CA4B2D3
:1058E00000988442E5D3002B09D00C98002802D000
:1058F0000C99019808802001801907B0F0BD2D682F
:10590000002DCFD10020F8E79C440020FEB51746BB
:1059100000256A469580044640891D4A1E469042ED
:1059200008D001AA0092401C237880B26268FFF779
:10593000B3FF05462378022116486268FCF736FF5C
:10594000002807D12378022113486268FCF72EFF54
:10595000002801D060890EE0237802210F48626898
:10596000FCF724FF00280DD0002D03D06846808866
:10597000B84203D0384609F053FC04E06889401E61
:1059800080B200E06089002E00D030802846FEBD45
:10599000FFFF0000E0770100E2770100E6770100F9
:1059A000FFB583B00E461D46174601A9039808F0BF
:1059B00063F8040022D1002F0FD069460880308898
:1059C000FFF746FF6946088800F00EFA01460122FB
:1059D00003980AF011FF002811D131460398FCF713
:1059E000D5FF04000AD1FF2D08D0019B1E221946C5
:1059F00004489B1C09F01FFC0198C570204607B0A5
:105A0000F0BD000089F0000010B50446FCF7EAFF85
:105A10000749FF20087048700020486088608C703B
:105A20000421204601F070F900F042F810BD00009A
:105A300088440020F8B5184F2821387848430221BF
:105A400011F090FA154E0028706023D00024144DF8
:105A500012E02820716860434018058000218170A1
:105A6000FF224272027281722422115418220C30D9
:105A700011F02EFB641CE4B238788442E9D3094863
:105A800008F096FC0848FDF7EBF908480BF030F8F1
:105A90000020F8BD1320F8BD0C45002094440020E0
:105AA000FFFF0000B1D7000093D70000D9D6000057
:105AB00070B500200D4D0E4B0446FF2206214143D8
:105AC0005D52C918CA708A70401C0C710328F5DB3E
:105AD0000120C0431880074808F070FC0648FDF715
