:020000040000FA
:1000000000800020790D0000810D0000830D0000AC
:1000100000000000000000000000000000000000E0
:10002000000000000000000000000000830D000040
:100030000000000000000000850D0000870D00009A
:10004000890D0000890D0000890D0000890D000058
:10005000890D0000BB190000890D0000890D00000A
:10006000890D0000890D0000890D0000890D000038
:10007000051B0000890D0000890D0000890D00009E
:10008000890D0000890D0000890D0000890D000018
:100090000348854601F02CFE00480047310D000062
:1000A0000080002008B5FEA0006800900020FD49F7
:1000B00048820882C8810120C8724888FA490B78B2
:1000C0000222694604F0E4FD08BD7FB505460C46F2
:1000D00008202040002806D0FFF7E4FF2046082132
:1000E000484004B070BD20202040002862D0ED4878
:1000F000007B00285AD1ED48007800283DD000212F
:10010000684641730173E748418A6846818001214E
:10011000C180002069460090CA88E24948880023CF
:10012000122105F08DF802900298002824D0E048B2
:10013000007802990870DB494888DB490A7801A9F0
:1001400005F076F8002813D10120D6490873D74866
:100150000078002801D1012000E00020D349087078
:10016000D049087819229201202114F0D5F803E033
:10017000122101A805F0AAF818E0CA48408A0390A5
:10018000C8494888C8490A7803A904F043FF0028F1
:100190000BD10120C3490873C4480078002801D15D
:1001A000012000E00020C149087000BF2046202146
:1001B000484096E71020204000280DD04B20C0007A
:1001C000B8490090488800236422142103F0FAFD06
:1001D00020461021484084E74020204000280ED0CF
:1001E000B049488803F0D0FDAE4908784B2252014F
:1001F000402114F091F820464021484071E700204A
:100200006FE730B587B004460D46002C7ED1142030
:100210006043A4494018C07A01285BD12879072897
:1002200023D12889002820DDE8680078E96849782A
:1002300009020843142161439A4A8918C881E86871
:100240008078E968C9780902084314216143891854
:100250000882142060431346C018028A14206043A9
:10026000C018C18993A009F0E1FC2879072802D1C0
:1002700068781A2802D02879012861D114206043B7
:1002800088494018C08900285AD0022114206043B0
:10029000844A8018C1721420604311464018C189F5
:1002A000684681801420604311464018018A6846E0
:1002B000C18002210172E12101A84171FF218171F8
:1002C000142161438918488877490A7801A904F004
:1002D000A5FE35E01420604372494018C07A022818
:1002E0002ED12879092821D1288900281EDDE86827
:1002F0000078E96849780902084314216143694A92
:100300008918488200211420604300E015E080181D
:10031000017314216143505C19229201202113F0D2
:10032000FBFF6048418A6EA009F080FC0021142088
:1003300060435C4A8018C17202E0012C00D000BF0B
:1003400007B030BD70B5044600250AE014206843AC
:100350005449401840886188884200D103E0681CF5
:10036000C5B2032DF2DB00BF032D00D170BD1420F8
:1003700068434C4940180079022800D0F6E72079FC
:10038000032805D02079012811D1207A02280ED126
:100390002079012805D1267B31465BA009F046FC77
:1003A00000BF0021142068433E4A80180173207961
:1003B0007F2803D121895AA009F038FC20790B2825
:1003C00005D02079012817D1207A0A2814D1207964
:1003D000012805D1267B314654A009F027FC04E012
:1003E000E068017855A009F021FC00211420684341
:1003F0002C4A801801732CE02079132805D020792D
:1004000001281BD1207A122818D12079012800D187
:1004100000E00020012805D1267B31464BA009F0E1
:1004200005FC04E0224801784DA009F0FFFB002103
:10043000142068431B4A801801730AE014206843A3
:1004400018494018C07A002803D021462846FFF7F3
:10045000D8FE21792046083004F038FF00BF85E738
:1004600010B504462078B02803D12046FFF76AFF74
:1004700000BF00BF10BD70B505460C460120C0038B
:10048000204000287AD00848007813F0CFFC061EE0
:1004900005D03046FFF7E4FF304613F09FFC68E0DC
:1004A000E0FF0000400300200000002015000020B5
:1004B00014000020466F756E642050726F66696C80
:1004C0006520536572766963652068616E646C654A
:1004D000203A202578207E202578200A0000000080
:1004E000466F756E642043686172616374657269FA
:1004F0007374696320312068616E646C65203A20F2
:100500002578200A0000000045786368616E676501
:10051000204D5455204572726F723A2025780A009A
:100520004D54553A2025780A000000005265616458
:10053000204572726F723A2025780A005265616414
:10054000207273703A2025780A000000577269748F
:1005500065204572726F723A2025780A000000000B
:1005600057726974652073656E743A2025780A00A5
:1005700004E020460121C903484070BDE007C00FD8
:10058000002809D0F64AF749F748007803F03AFB0B
:10059000204601214840F0E780202040002806D076
:1005A000F24803F001FC204680214840E5E7F0488E
:1005B0000078A84204D121462846FFF786FDDCE7F3
:1005C000EB48007DA84200D000BF0020D5E770B501
:1005D00006460D46002426E0E64809F069FA142193
:1005E000614368540121C94314206043401941808C
:1005F0000021142060434019017114206043401908
:10060000C1721420604340190173142060434019E3
:100610004182142060434019C18114206043401975
:100620000182601CC4B2032CD6DB70BD00B585B05E
:10063000D04809F03DFACC4908704B21490102200D
:1006400003F0F4FF1421072003F0F0FF64210820D9
:1006500003F0ECFF64210D2003F0E8FF002004907C
:10066000012103910291032101910121009104AA2A
:100670000421C14803F050F803AA01218120C000E1
:1006800003F04AF802AA0121BB48801F03F044F896
:1006900001AA0121B848401F03F03EF86A46012133
:1006A000B548801E03F038F8B149AF480078FFF72D
:1006B0008EFF04F011FCAC48007804F0BBFC012173
:1006C000A948007813F0A6FC05B000BD70B504463B
:1006D0000D4622466942A9A009F0A8FA70BD7047EC
:1006E00070B505460E4600240BE00621614348190B
:1006F0000622314613F076FA002800D003E0601C91
:10070000C4B2032CF1DB00BF032C01D1002070BD6B
:100710000120FCE7F0B585B005460E469D480078FF
:100720000A285ADA00240DE0E0009B4A8018811C58
:100730000622284613F056FA002801D005B0F0BD75
:10074000601CC4B2934800788442EDDB914909787B
:10075000C900914A8918881C0622294613F050FACC
:100760008C480078C0008C49401846708948007851
:10077000401C8849087008460078401EC000864921
:100780004018C07983490978491EC900824A8918EE
:100790008979804A1278521ED2007F4BD218527942
:1007A0007C4B1B785B1EDB007B4FDB191B790093B6
:1007B00001920291039077480078401EC0003946AC
:1007C0004018C37873480078401EC00040188278F3
:1007D0007048017871A009F029FA00BFAEE770B542
:1007E0000546A878062878D006DC002809D001281C
:1007F00015D0052872D151E0072870D00D28F9D105
:1008000008E070A009F012FA00220121032003F091
:1008100025FA91E12979681DFFF77CFF8CE100241E
:100820000BE0E0005C4A8018811C6A48FFF758FF23
:10083000002800D005E0601CC4B25648007884420D
:10084000EFDB00BF5348007884420ED162A009F06C
:10085000EDF900204F49087000220121032003F028
:10086000FDF958A009F0E2F917E061A009F0DEF9FE
:10087000E00049494018831CE000401842780021FC
:10088000084603F04BF91922D2018021364800783E
:1008900013F042FD5BA009F0C9F94DE18021324817
:1008A000007813F09BFD6878002858D100240BE0F5
:1008B000142060432E49401840882C49491E884224
:1008C00000D103E0601CC4B2032CF1DB00BF032C99
:1008D0000AD1688903F068FA02E0E3E02BE124E141
:1008E0004CA009F0A3F9CCE0022114206043204A77
:1008F0008018017169891420604380184180EA8959
:10090000698949A009F092F9002C20D10121142015
:100910006043174A8018017314216143505C192207
:100920009201082113F0F8FC14216143104A505C35
:100930001922D201102113F0EFFC142161430C4A5B
:10094000505C4B225201402113F0E6FC02E0012CE6
:1009500000D000BF39A009F069F9002481E091E0DE
:10096000180000202400002000000020FFFF0000ED
:1009700040030020770400000F0400005253534945
:10098000202D256420644220436F6E6E202D20258B
:1009900078200A0001000020F002002044657669FA
:1009A0006365202564202D20416464722025782011
:1009B0002578202578202578202578202578200A7C
:1009C00000000000446973636F766572696E672E7C
:1009D0002E2E0A0002000020446576696365206EB1
:1009E0006F7420666F756E642E2E2E0A0000000054
:1009F00044657669636520666F756E642E2E2E0AD7
:100A000000000000436F6E6E656374696E672E2E82
:100A10002E0A0000436F6E6E656374696F6E206D01
:100A200061782E2E2E0A0000436F6E6E20257820EE
:100A30002D20496E74202578200A0000436F6E6EC9
:100A400065637465642E2E2E0A0000001420604336
:100A50005F49401840885F49884200D103E0601C2C
:100A6000C4B2032CF2DB00BF032C0ADA5A4809F0A7
:100A7000DDF800205949087000220121032003F00D
:100A8000EDF80EE0697856A009F0D0F8524809F068
:100A9000CDF800205149087000220121032003F005
:100AA000DDF849E000240AE014206043484940187A
:100AB0004088A988884200D103E0601CC4B2032C9E
:100AC000F2DB00BFAA7914206043414BC018418873
:100AD0004BA009F0ABF80021142060433C4A801879
:100AE0000171891E14206043801841800021142068
:100AF00060438018C1721420604380184182142022
:100B00006043801801730020344908701421614348
:100B1000505C402113F062FC2F4809F087F8002256
:100B20000121032003F09AF806E0EA88A9883DA095
:100B300009F07CF800E000BF00BF70BD70B506464C
:100B40000C461546002C05D12A4631463BA009F03B
:100B50006DF824E0012C0BD1002D04D1314641A0C9
:100B600009F064F81BE0314647A009F05FF816E091
:100B7000022C06D1002D12D131464BA009F056F8B7
:100B80000DE0032C0BD1002D04D131464FA009F00C
:100B90004DF804E02A46314656A009F047F870BDEA
:100BA000F8B507460D461E4613F00EFA04465B499B
:100BB000204600F0E3FF0C46002E03D0214658A04B
:100BC00009F034F822460021284602F0B5FBF8BDB2
:100BD00040030020FEFF0000C409000001000020C7
:100BE000436F6E6E656374204661696C65642E2E7A
:100BF0002E526561736F6E3A252D38580A00000039
:100C0000202025782020446973636F6E6E656374BD
:100C100065642E2E2E526561736F6E3A20253878EA
:100C20000A000000557064617465202578202D202D
:100C3000496E74202578200A00000000436F6E6E14
:100C4000656374696F6E2025303478202D205061E3
:100C50006972696E6720737461727465643A2564A1
:100C60000A000000436F6E6E656374696F6E202525
:100C7000303478202D2050616972696E6720737559
:100C800063636573730A0000436F6E6E6563746916
:100C90006F6E2025303478202D2050616972696E86
:100CA00067206661696C0A00436F6E6E65637469E4
:100CB0006F6E2025303478202D20426F6E64696E6F
:100CC0006720737563636573730A0000436F6E6E0C
:100CD000656374696F6E2025303478202D20426F53
:100CE0006E64207361766520737563636573730A40
:100CF00000000000436F6E6E656374696F6E20259F
:100D0000303478202D20426F6E6420736176652028
:100D10006661696C65643A2025640A0040420F00F0
:100D200050617373636F64653A25640A00000000C4
:100D30000E48806A0121490208430C498862032158
:100D40000120400200F054FB00F040FD084909A0DA
:100D500008F06CFF00F08AFD00F025FE02F0F2FEC4
:100D6000FFF764FC01E008F0C1FEFCE780100040E2
:100D70002445010025730A000448804704480047C1
:100D8000FEE7FEE7FEE7FEE7FEE70000950D000048
:100D9000910000005720F8490870A82008708820AA
:100DA000F549403908810020F3490870704700B5C3
:100DB000030008F063FF0D081A2C37414C56606A97
:100DC00075808B96A1005721EB4A1170A8211170F4
:100DD000E9492039C97B04229143E74A203AD1737B
:100DE000C821E54A403A118187E05721E24A117053
:100DF000A8211170E0492039C97B04221143DE4A41
:100E0000203AD173C821DC4A403A118175E057215C
:100E1000D94A1170A82111705121C900D64A403A0F
:100E200011816AE05721D44A1170A8211170D34969
:100E3000D14A403A118160E05721CF4A1170A82170
:100E4000117081218900CC4A403A118155E0572127
:100E5000C94A1170A82111708821C74A403A1181EE
:100E60004BE05721C44A1170A82111700221C24AD7
:100E7000403A118141E05721BF4A1170A8211170F9
:100E80000421BD4A403A118137E05721BA4A117016
:100E9000A821117093218900B74A403A11812CE0B2
:100EA0005721B54A1170A8211170B4494D31B24A89
:100EB000403A118121E05721AF4A1170A8211170E9
:100EC00095218900AC4A403A118116E05721AA4A7F
:100ED0001170A82111704B21C900A74A403A118115
:100EE0000BE05721A44A1170A8211170A3495C316D
:100EF000A14A403A118100E000BF00BF00219E4A94
:100F0000117000BD10B59C4840380089C4B2C020A3
:100F10002040802801D19A4810BDC02020404028A0
:100F200005D1E106C90E974800F03EFEF4E7C02067
:100F30002040002805D1E106C90E914800F034FE9A
:100F4000EAE77D200002E7E757218B4A1170A821CC
:100F50001170002808D188494039098952159143F8
:100F6000854A403A118108E08349403909890122C4
:100F700052021143804A403A118100217E4A117089
:100F8000704757217C4A1170A8211170002808D1A0
:100F900079492039C97B04229143774A203AD17399
:100FA00007E075492039C97B04221143724A203A6F
:100FB000D1730021704A1170704770B56E48403887
:100FC0000089C4B2C0202040802801D16E4D1FE0AE
:100FD000C0202040402809D1E106C90E6B4800F02E
:100FE000CDFD012189034018C50B11E0C020204030
:100FF00000280CD1E106C90E654800F0D5FD01219D
:1010000089034618F017400C8019C51300E0052528
:101010002805000D70BDF8B504460D462246294648
:101020005726554F3E70A8263E700126BE74594B78
:101030004EE000BF504EB67C02273E40002EF9D055
:101040004D4E308A00BF4C4EB67C02273E40002EEB
:10105000F9D100BF484EB67C02273E40002EF9D0A1
:10106000454E308A5726444F3E70A8263E7088422F
:101070000ADD414E203EB689B6183F4F203FBE8163
:101080000093461AB3B209E03B4E203EB689B61A29
:10109000394F203FBE8100930E1AB3B2009E9E428C
:1010A00016DA5726344F3E70A8263E70884207DD78
:1010B000314E203EB689B61A2F4F203FBE8106E042
:1010C0002D4E203EB689B6182B4F203FBE8100E042
:1010D000AFE700BF5726284F3E70A8263E70002677
:1010E000BE743E70F8BDF8B5FFF767FF00900027AB
:1010F0000026002423E0781C87B2254603200099AF
:10110000FFF789FF1C4820388489A54206DD281B8B
:10111000032801DC012007E0002005E0601B032814
:1011200001DC012000E00020002802D0701C86B203
:1011300000E00026032E01DC052F00DD00E0DAE7E9
:1011400000BF002734E0781C87B2254601200099B3
:10115000FFF761FF084820388489A54206DD281B77
:10116000012801DC012018E0002016E0601B0128A6
:1011700012DC012011E000004010004002020000DB
:101180000048E80100389C1C1313000000180D8F64
:1011900000688909FF0F00000020002802D0701CA1
:1011A00086B200E00026022E01DC052F00DD00E003
:1011B000C9E700BFF8BDF7B584B00D461446182145
:1011C000049800F0DBFC80B203901821049800F032
:1011D000D5FCE120C00041431E2068430818E10F00
:1011E00009194910401887B20194E007C00F002880
:1011F00002D00120C00300E0002002903E463104EE
:10120000029801430E46572077490870A8200870BD
:10121000754940390398486373482038407C8021E1
:1012200008437149203948746F484038466308467E
:10123000407C402108436C492039487400206A49A9
:10124000087007B0F0BDF0B585B004460D461646EF
:1012500065484038C06B8004800C03906248203899
:10126000408B029060482038008B0190029841002A
:101270000122D2030198904201DB012000E000200E
:101280000F18E1210901384600F078FC01461822C8
:101290000398504308182060E1210901384600F006
:1012A0006DFC00913C21009800F068FC28803C21F6
:1012B000384600F063FC318005B0F0BD57214A4A42
:1012C0001170A821117048494039486346492039B6
:1012D000497C40221143444A203A51740021424A39
:1012E0001170704700BF40494039886B896B81425B
:1012F000F9D1704757213C4A1170A82111703A4921
:101300002039497C17229143374A203A51741146BB
:10131000497C102202431143334A203A5174002180
:10132000314A1170704700B50346FFF7DBFFC21862
:1013300090B2002802D00120000412182B488242EB
:1013400000D3121A572028490870A8200870264890
:101350004038426324482038407C202108432249F9
:101360002039487400202049087000BD0146002043
:101370000022002A01D020221043CA07D20F002ADF
:1013800001D0102210435722174B1A70A8221A704E
:10139000154A203A527C8243134B203B5A74002258
:1013A000114B1A7070470146002905D10E482038AC
:1013B000007C8022104070470B482038007C40227F
:1013C0001040F8E7002802D001280AD104E02021CB
:1013D000054A203A117405E01021034A203A11749D
:1013E00000E000BF00BF7047401000400000C0A8F0
:1013F00000B50B0008F042FC050412202E38420014
:101400009B4A526B82439A4B5A631A46126B824331
:101410001A631A46126A82431A6230E0944A526B87
:101420008243934B5A631A46126B02431A631A465D
:10143000126A82431A6222E08D4A526B02438C4B3D
:101440005A631A46126B82431A631A46126A82431F
:101450001A6214E0864A526B8243854B5A631A46DD
:10146000126A02431A620AE0814A526B0243804BBD
:101470005A631A46126A02431A6200E000BF00BFB4
:1014800000BD00B50B0008F0F9FB0504142434403E
:101490004C00774A403252698243754B40335A615F
:1014A0001A46126982431A611A46126882431A6008
:1014B00038E06F4A4032526982436D4B40335A6183
:1014C0001A46126902431A611A46126882431A6068
:1014D00028E0674A403252690243654B40335A6103
:1014E0001A46126982431A611A46126882431A60C8
:1014F00018E05F4A4032526982435D4B40335A6183
:101500001A46126802431A600CE0594A4032526986
:101510000243574B40335A611A46126802431A601D
:1015200000E000BF00BF00BD002906D001290ED099
:10153000022916D0032928D11DE04D4A928A824300
:101540004B4B9A821A46D26A0243DA621EE0484A3C
:10155000928A8243464B9A821A46926A02439A6260
:1015600014E0434A928A0243414B9A821A46D26A55
:101570000243DA620AE03E4A928A02433C4B9A8274
:101580001A46926A02439A6200E000BF00BF384BDD
:1015900098831A46128A02431A827047002906D09D
:1015A000012911D002291CD0032934D126E0304A68
:1015B000D28A82432E4BDA822D4A4032D2680243CD
:1015C0002B4B4033DA6027E0294AD28A8243284BEA
:1015D000DA82274A403292680243254B40339A60B0
:1015E0001AE0234AD28A0243214BDA82204A40324F
:1015F000D26802431E4B4033DA600DE01C4AD28AA7
:1016000002431B4BDA821A4A403292680243184B5B
:1016100040339A6000E000BF00BF154BD8831A46E4
:10162000528A02435A827047002807D0104A803AF3
:10163000128B0A430E4B803B1A8306E00C4A803A19
:10164000128B8A430A4B803B1A837047002807D0CD
:10165000074A803A528B8A43054B803B5A8306E007
:10166000034A803A528B0A43014B803B5A837047AE
:10167000801000400146062904D14648007808221F
:10168000104070474348407901228A401040F8E7F3
:10169000572040490870A820087008468079012129
:1016A00008433C4988710020087070473A4909682E
:1016B00001600021C943384A8032116070473649C1
:1016C000086070473548806970475721314A11706A
:1016D000A8211170002806D111468979042291436E
:1016E0002C4A917105E02B49897904221143294A3A
:1016F00091710021274A117070475721254A1170B6
:10170000A8211170002806D111468979022291433F
:10171000204A917105E01F498979022211431D4A2F
:10172000917100211B4A11707047572019490870A8
:10173000A82008700846807910210843154988714F
:1017400000200870704710B500210AE0022201E075
:1017500000BF00BF1346541EA2B2002BF8D14B1C91
:1017600099B28142F2DB10BD30B50446002505E098
:101770007D20C000FFF7E7FF681C85B2A542F7DBBC
:1017800030BD00BF064AD27A082AFBD0044B18723B
:10179000704700004010004000E100E000E000E081
:1017A0000034004070B50446FFF7ACFB0A21484303
:1017B000C6082146304600F0E1F905460A21681DB9
:1017C00000F0DCF9054628498D8170BD10B5E12097
:1017D0004002FFF7E7FF8720234988700320C87085
:1017E000402048700120887310BD1F498978C022AD
:1017F0009143820111431C4A9170704700280BD01D
:10180000194A52780A43184B5A701A46127808231C
:101810001A43154B1A7004E0134A52788A43124B4C
:101820005A707047802010494870704710B50A46BA
:1018300009E00D4BDB7A082B05D003780A4C2372A4
:10184000401C531E9AB2002AF3D110BD014600205D
:1018500005E0054A127A0A70491C421C90B2024AFD
:10186000927A002AF5D170470034004030B58DB02F
:10187000122280A1844812F0B5F9002804D183A077
:1018800008F0D4F900BFFEE7572085490870A8206A
:1018900008705120C00082494039088100208049E9
:1018A0000870804D681E411C884200D90CE0681EFB
:1018B0007D4948610321081F00F0A4F800207A49FF
:1018C00088610720086100BF7748006902218843CA
:1018D0007549086134220021684612F063FA7348A2
:1018E00000900121490368468180714802900121DE
:1018F000684681731B21C1730A210174012141745F
:10190000152181740D2101776A48089000980028FC
:1019100005D06846808801210903884201DA00BFAA
:10192000FEE7684601F064FA0446002C04D062A089
:1019300008F07CF900BFFEE70DB030BD70B506467B
:101940000C460120C003204000280DD0304612F084
:101950006DFA0546002D02D0284612F03FFA2046C7
:101960000121C903484070BDE007C00F002803D023
:10197000204601214840F6E701208003204000284E
:101980000FD052A008F052F97D22D2010121890323
:101990004F48007812F0C0FC2046012189034840DE
:1019A000E1E70020DFE710B54A4808F081F8484930
:1019B000087000F0B7F862B610BD10B501F0BEF9BE
:1019C00010BD30B5364CE17E227E637EE47E8025FC
:1019D0002C43334DEC760F242C7621246C762C4648
:1019E000A47E01252C432E4DAC7600BF2C4CA47E4A
:1019F000E407E40F002CF9D1294CA08BE176227684
:101A0000637630BD10B5002819DA334A03071B0F7F
:101A1000083B9B089B00D2588307DC0EFF23A340A2
:101A20009A438B071B0E8407E40EA3401A432A4BEC
:101A30000407240F083CA408A4001A5118E0274A00
:101A400003231B02D21883089B00D2588307DC0EA5
:101A5000FF23A3409A438B071B0E8407E40EA34089
:101A60001A431E4B032424021B198408A4001A5194
:101A700010BD000043483537785F424C455F4C4904
:101A8000425F56312E3300002445010068656164D1
:101A90002066696C65206572726F722E2E2E0A00A8
:101AA00040100040FFFFFF0000E000E07C0300204A
:101AB00000E60300C51600004C494220696E6974B7
:101AC000206572726F722E2E2E0A00002A200000EE
:101AD0002C0000203D1900001CED00E000E100E0BA
:101AE00081B2002902D001210904401857211F4A60
:101AF0001170A82111701D494039486300211C4A0A
:101B00001160704710B53020184920390874012041
:101B10001749086017480068002802D01548006877
:101B2000804710BD10B5FFF7DEFA002211461046BF
:101B3000FFF741FB012008F029F80E490860572003
:101B40000A490870A820087008482038407C2021E5
:101B500008430649203948740020044908700C20C5
:101B600001218140044A116000BF10BD40100040B7
:101B7000300000203400002000E100E030B50B46CA
:101B8000014600202022012409E00D46D5409D4257
:101B900005D31D469540491B2546954040191546DD
:101BA000521E002DF1DC30BD70B500242546002802
:101BB00001DA01244042002901DA01254942FFF7F8
:101BC000DDFFAC4200D04042002C00D0494270BD45
:101BD000F0B51FB486B000200090019002900698E6
:101BE000069980B204900798090C0204001411436E
:101BF00007900027089D099806913E463C460390B1
:101C00000398A9B20204000C039004982D0C15430C
:101C100048430021224600F018F8C71971411034DA
:101C20000E46402CECDB3846029A00F00EF8009A83
:101C3000019B801800905941029801911030029048
:101C40004028CCDB00980BB0F0BD10B5202A04DB97
:101C50000146203A9140002010BD914020239C1A5B
:101C60000346E3401943904010BD03460B439B07D6
:101C700003D009E008C9121F08C0042AFAD203E001
:101C80000B780370401C491C521EF9D27047F0B506
:101C90001FB40646002082B0054640240191009002
:101CA0001BE0019922460F46304600F033F8049AB3
:101CB000059B801A994110D3104619462246FFF71A
:101CC000C4FF361A8F410197224601200021009F50
:101CD000FFF7BBFF38184D4100902046641E0028D6
:101CE000DFDC019B00982946324607B0F0BD0000BA
:101CF000064C0125064E05E0E36807CC2B430C3C5F
:101D000098471034B442F7D3FEF7C6F91C490100D6
:101D10003C49010010B5202A04DB0846203AD04097
:101D2000002110BD0B46D340D0402024A21A914080
:101D30000843194610BD70B58C180578401C6B0718
:101D40005B0F01D10378401C2A1106D10278401C98
:101D500003E006780E70401C491C5B1EF9D12B076E
:101D600005D40023521E0DD40B70491CFAE70378EA
:101D7000401CCB1A921C03E01D780D70491C5B1CA3
:101D8000521EF9D5A142D8D3002070BD70B50D46C2
:101D900001461446104601F0C7F80E4830C003F063
:101DA0001FFF002000F024FF012407F06FFD07F063
:101DB0004FFD06F015FB204600F01AFF641CE4B24C
:101DC0000A2CF2D307F062FD07F042FD0A2000F072
:101DD0000FFF70BDE402002010B5124C2068C00552
:101DE0001FD50320206000200821401C2268C0B2BB
:101DF0000A4322600EE02268920510D4222807D9F7
:101E00000948026B002A0AD001210320904706E00E
:101E1000401CC0B22268D205EDD50028E5D10020D3
:101E2000206010BD80C3004094230020F8B5144604
:101E30000D460646FFF7D0FF504F3B681868062155
:101E4000884318607178307809024018B178F278C8
:101E500009041206891840189862717930790902CC
:101E60004018B179F2790904120689184018D8622D
:101E7000717A307A09024018B17AF27A09041206AE
:101E8000891840181863717B307B09024018B17BB8
:101E9000F27B09041206891840185863697828787B
:101EA00009024018A978EA7809041206891840182E
:101EB00098616979287909024018A979EA790904B1
:101EC000120689184018D861697A287A09024018E0
:101ED000A97AEA7A09041206891840181862697BFF
:101EE000287B09024018A97BEA7B0904120689189D
:101EF0004018586258680221884358605A68012087
:101F000002435A601A6802431A6058688007FCD579
:101F10005868884358609869207038688069000A5A
:101F2000607038688069000CA07038688069000EA5
:101F3000E0703868C1692171C169090A6171C169BC
:101F4000090CA171C169090EE171016A2172016A6E
:101F5000090A6172016A090CA172016A090EE17233
:101F6000416A2173416A090A6173416A090CA173CC
:101F7000406A000EE0730020F8BD0000340100202C
:101F800070B50C460546FFF727FF1C48026810682D
:101F900020218843E907890E084310608034A06C33
:101FA0001061E06C5061A0699061E069D061206AC5
:101FB0001062606A5062A06A9062E06AD062206B30
:101FC0001063606B5063A06B9060E06BD060D06872
:101FD000E16B88420AD11069A16C884208D0084898
:101FE000026B002A02D0022103209047012070BD1D
:101FF0001068402108431060002070BD34010020AB
:102000009423002070B50C460546FFF7E5FE1C48FA
:102010000268106820218843E907890E0843106090
:102020008034206C1061606C5061A0699061E0693F
:10203000D061206A1062606A5062A06A9062E06AB1
:10204000D062206B1063606B5063A06B9060E06B9C
:10205000D060D068E16B88420AD11069216C884257
:1020600008D00848026B002A02D003210846904796
:10207000012070BD1068402108431060002070BD31
:10208000340100209423002010B504F069FC0249BB
:1020900003F007FA002010BD0604000008B5002870
:1020A00008D0002906D0002A04D01088002801D0CA
:1020B000002008BD1220694608706A4601210348C5
:1020C00003F0EBF96946087808BD0000350C000004
:1020D00008B503F0E9FF694608706A460121034824
:1020E00003F0DBF96946087808BD00001120000004
:1020F00008B504F001F9694608706A4601210348F1
:1021000003F0CBF96946087808BD000010200000F4
:10211000FEB508AF70CF6F4670C704F013F90446E0
:10212000024903F0BEF92046FEBD00001320000066
:1021300008B504F005FC694608706A4601210248AA
:1021400003F0ABF9002008BD0E200000FFB589B0F8
:1021500016A871C894468E460796159F129A139931
:1021600004AE31C614980092019102900397624622
:102170007146099804F046FB0446034903F091F9BF
:1021800020460DB0F0BD00000D20000038B504461B
:1021900004F028FE694608704C70200A88706A4670
:1021A0000321024803F079F9002038BD1B2000000C
:1021B00038B5044604F02AFE694608704C70200ABF
:1021C00088706A460321024803F067F9002038BD91
:1021D0001A2000000EB500A8013005F02CFA69465F
:1021E00008706A460921024803F057F900200EBD25
:1021F0001820000008B500A8013004F075FD6946FC
:1022000008706A460421034803F047F969460878D4
:1022100008BD00000220000038B5044605F072FA3F
:10222000694608704C70200A88706A46032102488B
:1022300003F033F9002038BD212000007FB50446AB
:1022400008A861C8009002960195204605F072FA30
:10225000694608734C73200A887303AA0321034854
:1022600003F01BF9002004B070BD00002020000026
:1022700008B505F04BFD694608706A460121034820
:1022800003F00BF96946087808BD00000A20000039
:10229000F0B585B00AACF0CC03976F4670C705F077
:1022A000BBFD6946087404AA0121034803F0F5F850
:1022B0006946087C05B0F0BD0620000008B505F0B1
:1022C00001FE694608706A460121034803F0E5F8FB
:1022D0006946087808BD00000520000008B505F033
:1022E0002FFE694608706A460121034803F0D5F8BD
:1022F0006946087808BD00000C2000001CB5049C4D
:10230000009405F061FE6946087101AA01210348A5
:1023100003F0C3F8694608791CBD00000B200000DB
:1023200010B505F083FE024903F0BBF8002010BD94
:102330001920000070B50D4604F0FCF9040006D029
:10234000294604F0F7F840342072002070BD1220B6
:1023500070BD00001CB500A8013005F07BF969468E
:1023600008706A460721034803F097F86946087821
:102370001CBD00000910000038B500A90446033157
:1023800005F078F9694608704C70200A88706A4632
:102390000421034803F081F86946087838BD00003D
:1023A0000514000010B5D2B205F032FC10BD0A7859
:1023B00002708A7842704A88120A82700979C17064
:1023C000042070470A7802700988090A41700220C7
:1023D000704709780170012070470A7802700A88F6
:1023E000120A42708A7882704A88120AC2704A7948
:1023F00002718A7942710889801D80B2704708880D
:102400008004000C70470A7802700A88120A427031
:102410008A7882704988090AC170042070478A78D6
:10242000027088780128088804D012214843401C93
:1024300080B270478000FAE70A7802700A88120AB0
:1024400042704888801C80B270470A7802700A88FF
:10245000120A42708A7882704A88120AC27088888A
:10246000001D80B270470A7802700A88120A427012
:102470008A7882704A88120AC2708888001D80B2E9
:1024800070470A7802700A88120A42708A7882704D
:102490004988090AC17004207047088870478A7803
:1024A0000270088849884843401C80B2704710B5C4
:1024B0000C46097801702188090A4170A178817061
:1024C0006188090AC1702279611D001D11F098FB15
:1024D0002079001D10BD8A78027008884988484319
:1024E000401C80B27047088870470A7802700988DB
:1024F000090A417002207047088870470A78027004
:102500000A88120A42704888801C80B270477FB5E2
:1025100015460446022901D0102903D1022B04D00C
:10252000102B02D0002004B070BD994202D10A469F
:10253000294607E01029694607D000F00DF810225F
:102540006946284611F04EFBEDE7104600F004F80E
:10255000102269462046F5E770B50C4605000CD000
:10256000002C0AD010220649204611F049FB287899
:10257000207368786073012070BD002070BD00007A
:102580003845010008B500220B460092012202499D
:1025900007F00EFE08BD0000AF23000008B50A8852
:1025A000172A07D300220B4600920322024907F0A4
:1025B000FFFD08BD022008BDC523000008B50022AC
:1025C0000B4600921822024907F0AEFD08BD00003C
:1025D000D323000008B500210B461922009107F013
:1025E000E7FD08BD38B50C460546097900200229EB
:1025F00001D0022038BDE268002A03D0072110462E
:1026000011F0ACFA0090234606220249284607F052
:102610008BFD38BDDB23000038B5054608880C4625
:1026200000280DD0606800280AD0012111F096FA28
:102630000090234607220349284607F0B9FD38BD1C
:10264000022038BDFF23000008B500220B4600928F
:102650000422024907F068FD08BD000007240000BD
:1026600038B5054688780C46012801D0022810D1DB
:10267000208800280DD0606800280AD0022111F0BF
:102680006DFA0090234605220349284607F090FD85
:1026900038BD022038BD00001F240000064910B5D7
:1026A000884202D103F02CFB10BD0DF009F900287F
:1026B000FAD1172010BD0000FEFF000038B5054616
:1026C0004A6800200C46002A03D00321104611F06E
:1026D00045FA009023461D220249284607F024FDB2
:1026E00038BD00003924000002480021016041602B
:1026F000704700004801002010B5042901D00420D3
:1027000010BD0178117083784478190221435180FB
:10271000C0781071002010BD0098022B01D0042059
:1027200070475178127809021143018000207047E8
:102730000098012B01D0042070471178017000200F
:102740007047002901D0042070470020704770B501
:10275000049C1E461546062B1BD368782978000278
:1027600008432080E878A9780002084360800220AE
:1027700020710246291D601D11F042FAB01F208110
:10278000062E03D0AD1DE560002070BD0020E06086
:10279000FAE7042070BD8B0705D1890803D01180AA
:1027A000506000207047042070470098042B01D02F
:1027B0000420704751781378090219430180D178B9
:1027C00092780902114341800020704710B50298A9
:1027D000022B0FD351781478090221430180991EEE
:1027E0004180022B02D0921C426001E00021416036
:1027F000002010BD042010BDF8B584890D46002CC2
:102800002BD086683778390601D4002010E00D2CD3
:1028100023D30C3CA4B231190091408823463246A0
:10282000012106F09CFF002801D0022000E00120D9
:1028300079062870C90FBA066970920EAA70641ED4
:102840002204120CAA8002D0761CAE6001E00022A5
:10285000AA60022803D1002901D00120F8BD002080
:10286000F8BD10B50298042B14D3517814780902DE
:1028700021430180D1789478090221434180191FB6
:102880008180042B02D0121D826001E00021816052
:10289000002010BD042010BD0098042B01D004209E
:1028A000704751781378090219430180D1789278E2
:1028B0000902114341800020704710B5029811466B
:1028C000062B03D0142B03D0042010BD022200E0FD
:1028D000102202714A780B7812021A430280CA78D9
:1028E0008B7812021A4342800279401D091D11F0B3
:1028F00087F9002010BDF8B515460646002912D00C
:102900003478491E6C80CFB2022C0CD32146384655
:10291000FFF734F901466143B94204D12880761C9F
:1029200000206E60F8BD0420F8BD0098D90706D1DC
:10293000022B04D0590881800260002070470420D7
:1029400070470098022B01D004207047517812780C
:10295000090211430180002070471180002902D034
:102960005060002070470020FAE710B5029C022B4F
:1029700011D32072617250781178000208432080D0
:10298000981E6080022B02D0921C626001E0002041
:102990006060002010BD042010BD002901D004207B
:1029A000704700207047000038B5054688680C461F
:1029B000002802D0052111F0D1F8009023461622FC
:1029C0000249284607F0B0FB38BD00004B24000048
:1029D00038B5054688680C46002802D0052111F05C
:1029E000BDF80090234617220249284607F0E0FB75
:1029F00038BD00006724000008B500220B46009295
:102A00000C22024907F090FB08BD0000832400005F
:102A100038B5054648680C46002802D0012111F05F
:102A20009DF8009023460D220249284607F0C0FB7E
:102A300038BD00009B24000008B50A79022A03D0A3
:102A4000102A01D0022008BD00220B46009210225D
:102A5000014907F069FB08BDAF24000038B5054601
:102A600008880C4600280DD0606800280AD0022192
:102A700011F074F80090234611220349284607F00C
:102A800097FB38BD022038BD9F24000008B50A79A5
:102A9000022A03D0102A01D0022008BD00220B46D2
:102AA00000920822014907F03FFB08BDAF24000057
:102AB00038B5054608880C4600280DD06068002807
:102AC0000AD0022111F04AF8009023460922034956
:102AD000284607F06DFB38BD022038BDD724000022
:102AE00038B5054648680C4600280AD0012111F087
:102AF00035F8009023460F220349284607F058FB7B
:102B000038BD022038BD0000E724000008B50022CF
:102B10000B4600920A22024907F006FB08BD00009E
:102B2000EB24000038B505464A6800200C46002A10
:102B300003D00121104611F011F8009023460B221A
:102B40000249284607F034FB38BD0000F924000094
:102B500001494860704700004801002001490860B1
:102B6000704700004801002070B5054608480C4633
:102B7000854205D0172C03D303F0C2F8A04201D23E
:102B8000012070BD214628460CF03EFF70BD0000BC
:102B9000FEFF0000F8B50646087A12250C4601280B
:102BA00009D13046FFF77AFD61880F38884201DA93
:102BB0000220F8BD9225607A012801D1402005430A
:102BC0006068002802D0032110F0C8FF009023465F
:102BD0002A460249304607F0A7FAF8BDFD24000056
:102BE00008B500210B461322009107F0E1FA08BD59
:102BF000F0B50D4A002180000C4D166884466246EF
:102C00005218930000208A0092191F18145CEF5D7F
:102C10007C401454401CC0B20428F6D3491CC9B2ED
:102C20000429ECD3F0BD0000E40200203C26002083
:102C300007484179FF2901D1252141710548C9B2D1
:102C400001430548006801600449C1627047000003
:102C5000E42300208022080138010020384E0100C2
:102C600010B580060A49800E0A4A48711068446807
:102C7000FF2301339C4344604879074908430749CF
:102C800009680860106841681943416010BD000080
:102C9000E4230020400100208022080138010020A8
:102CA00080060449800E48710349084303490968B6
:102CB00008607047E4230020C0220801380100208A
:102CC00010B51149FF204871114A10481060124A8E
:102CD00010481060124A11481060134A11481060E1
:102CE000134A12481060134C01222068D202C860B7
:102CF0008018086100F0F6F8607D002802D10E49C6
:102D00002020086010BD0000E423002000C0004027
:102D10003C01002000C300403401002000C20040FC
:102D20005400002000D000404001002000C10040BD
:102D3000380100209423002000E100E0F0B529488C
:102D4000006881685D27890700250126264C002937
:102D500006DA8168022291438160E670A5700765FA
:102D60008168C90705D081684908490081602570DC
:102D700066708168C90512D58168FF2201329143CE
:102D800081602178490605D5184B996BA1609A6B33
:102D90009142FAD1217831432170657007658168CD
:102DA000890508D581680122520291438160A1788A
:102DB0003143A170E5708168C90603D5816810228E
:102DC000914381608168490703D58168042291435A
:102DD00081608168090703D5816808229143816079
:102DE000F0BD000054000020E4230020001000404B
:102DF00070B53B4D0446687D002805D1016D406DDE
:102E0000814201D1012070BD2068002822D001211B
:102E1000000C490388421DD1A08800281AD0204602
:102E20000622FF21163010F0CEFE012814D0A28811
:102E30000021206810F0B6FF34220021284810F04D
:102E4000B1FF34222146264810F0DAFEA889002876
:102E500004D006E0022070BD032070BD01204002B6
:102E6000A881A87B0126002800D1AE73E87B00284A
:102E700001D11B20E873287C002801D10A20287486
:102E8000687C002800D16E74A87C002801D1152030
:102E9000A874A87F002801D12820A877E87C002802
:102EA00008D0A97FE07C49084018E874607F0028BA
:102EB00004D005E0A87F40085030F6E7042068778A
:102EC000A86A002803D0804705493431C880E86AE1
:102ED000002800D02E7506F0A1FD002070BD000076
:102EE0009423002010B500F07BF803F06DF805F096
:102EF000B9FAFFF79DFE0A4C5D202168086505F0D0
:102F00007BFB06F097F905F03FFB05F011FB21680C
:102F1000002008650349C871FEF75EFF10BD000080
:102F200054000020E423002000228B5C8354521CB8
:102F3000D2B2102AF9D3704770B50E4B0020998990
:102F4000002901D10C4999810E210124A4039A89F9
:102F500015462540CD405204120C0543E8B25604F4
:102F6000D50BF60F75401543491EC9B29D81062940
:102F7000EDD870BD80250020FF7F000070B50E4B9E
:102F800000205989002901D10C49598108214C019F
:102F90005A8915462540CD4005435200E8B2550AEE
:102FA00056097540ED07ED0F1543491E09065D8171
:102FB000090EEDD170BD000080250020FF0100004A
:102FC00000220AE0022101E000BF00BF0B46491EBB
:102FD00089B2002BF8D1521C92B28242F2D37047D0
:102FE0000A4809490068CA680261CA6842610969F9
:102FF0008161C1618268012149030A438260C2681C
:103000000A43C26070470000E42300203C01002016
:1030100030B5104A0346517AFD208C2454720E4C70
:10302000A568002D07D0A57B002D04D0A489E51F3D
:10303000FF3DFA3D02D05172FF2030BD3F242403F2
:10304000A34205D25360A6201072907A40235840C4
:10305000517230BD001800409423002010B506497D
:103060000C463C3C6162E062617D182001F0DEFAB2
:10307000607D01F065FD10BDD4000020F8B500248E
:103080000F4E274613E0B06B250128180622FF21BA
:1030900010F088FEB06B06222818FF21801D10F06A
:1030A00081FEB06B28188781641C8773E4B2B07D01
:1030B0008442E8D3002010F0BFFFB07DF075F8BD6A
:1030C0009800002010B5044600F0D4F8024844757A
:1030D00007F0CAFE10BD000098000020FFB58FB0B9
:1030E000064600200C900D901F460CAA304600F0BA
:1030F00077FA454D0446A87D84425AD2204607F00F
:1031000093FE0646042F04D0A879022803D000209D
:1031100002E02878F9E7012000903B46324621463C
:10312000119807F03FFD1422002101A810F03AFE8B
:1031300020460621484300902430C0B201AA102145
:1031400010F0F4FF002813D11022FF2101A810F085
:103150003AFD00280CD1009805AA2530C0B2042100
:1031600010F0E4FFF107C90F01AA119801F06EFAFF
:103170007034E0B206AA182110F0D8FF002811D14F
:1031800006A807F063FE0024A10006A8081801881D
:10319000002903D08278119801F006FD641CE4B286
:1031A000062CF1D3B00706D5697D119801F0EAFC31
:1031B00001E0082F02D0042F13D021E0A8790228C3
:1031C0001ED100223146119807F026FC686A0028BB
:1031D00016D04368002B13D000221146119898474F
:1031E0000EE0287802280BD129791198002900D007
:1031F00001216A78002A00D00422114301F0F6F977
:10320000002013B0F0BD000098000020F8B501F0D8
:1032100049F800282BD1164D0026A87C012801D0A2
:1032200000241CE007F032FDAE740020AA7DA96BDB
:1032300004E003015B18401C9E73C0B29042F8D3B7
:1032400010E0A86B27013818807B012805D12046A3
:1032500007F02EFDA86B38188673641CE4B2A87DB5
:103260008442EED3502010F013FF07F0FDFDF8BDAF
:1032700098000020F8B52B4CFF2060750025A5753F
:10328000294EA563B068002818D0B07B002815D05F
:10329000B189CA1FFF3AFA3A10D13021484342217E
:1032A00010F0CAFCA063002808D0A17D0A0100210B
:1032B00010F078FDB07B41004018A075A07DE0754E
:1032C0000126256326706570A570E5701022002127
:1032D000164810F067FD257177276771E561A671C3
:1032E000E57112482572657210220021103010F02D
:1032F00059FDA572E77225622573052060731020C1
:10330000A073E573022020746562A562E5626574AE
:10331000A5740448E674267505493C3001600549EA
:103320004160F8BD98000020942300206424002010
:10333000E9B00000B1B0000070B5002405460029D6
:103340000BD108491046FEF719FC0846294601F042
:1033500005F8040003D00121284601F09FF920461A
:1033600070BD000040420F0070B5264D0C460804A9
:103370000FD5687D10F05AFD050006D007F00AFE53
:10338000002802D0284610F029FD0120C00360402B
:1033900070BDA0070BD50021084607F0A3FA022153
:1033A0004C40002825D1687D10F034FE1FE0E00776
:1033B00021D0286B808807F01FFE01214C40002897
:1033C00017D0686A00280DD04368002B0AD0286BFC
:1033D000002280889847696A286B00224B688088A1
:1033E00003219847E87C10F079FE07F06DFA20463B
:1033F00070BD0121D7E7600702D50420484070BDA9
:10340000002070BD980000207FB504468078734D81
:10341000801F030006F032FC0ADCDFDF8E1306D8C3
:10342000DF62A3DF696A2046002907D00C68002C00
:10343000FBD0437B027B4189C01CA047CBE0607876
:103440000026002831D1A079C0072ED0286B002893
:103450002BD110220021684610F0A4FC61690029DC
:1034600003D006226846103107E0A0880CF054F91A
:103470000028E3D0811D0622684610F0C1FB694692
:103480008889A1794907C90F08436946888107F0EF
:10349000B1FBA97D884201D1FFF7F0FD21466846C6
:1034A00007F020FA002812D01526686A002855D0A7
:1034B0004368002B52D06278A08801219847002EE3
:1034C0004CD0696AA0884B683246032173E0022120
:1034D000687D10F09FFD002004B070BD6078062864
:1034E00017D1A0880CF018F9060012D0287C01280A
:1034F00004D0022808D003280BD114E07179A088E9
:10350000002207F089FA04E0A1883078052201F052
:10351000D5F8686A00285ED04368002B5BD06278DB
:10352000A088022147E0002241201146000100F05E
:10353000F3F8E9E7E0780022211D00F051F8A97DB9
:10354000884248D20621484325302246C0B20C3278
:10355000042110F037FEE87C10F0C0FD3BE0287B32
:10356000002802D0A088697B28E028780028A0885D
:1035700023D00CF0D1F806002DD0A07AC0070BD0D4
:103580007079002808D0A189890505D46A46B11D43
:1035900000F026F8002814D022467179A08808325D
:1035A00007F03AFA686A002815D04368002B12D059
:1035B0000022A088114698470DE0052101F06EF821
:1035C00009E0A0880321F9E7A08800F007FA02E0EB
:1035D000A088FFF71BFE01207EE700009800002076
:1035E000F0B52E4E85B0B47D15460F46002806D0A6
:1035F000012804D0022811D003284BD121E008462D
:1036000007F0CAFBB17D0446884243D2002D41D069
:1036100006223946284610F0F3FA3BE000240BE07E
:10362000B16B2001401806223946801D10F0DAFAED
:10363000002826D1641CE4B2B07D8442F0D3C4B229
:103640001FE0002419E02046062148432330C0B281
:103650006A46102110F06AFD00280CD11022FF21CB
:10366000684610F0B0FA002805D13946684600F0E7
:103670008BFF002805D0641CE4B2B07D8442E2D305
:10368000DDE7B07D844205D2002D03D029462046D7
:1036900007F0AAFB204605B0F0BD0000980000200E
:1036A000F8B50E4619491525194F884214D1002442
:1036B00009E032460221204607F0B6FA002800D081
:1036C0000025641CE4B2B87D8442F2D3002E1BD0E6
:1036D00010480CF03DF917E00CF01EF8040012D071
:1036E00060790022A11DFFF77BFFB97D884204D2DB
:1036F0003246022107F098FA0025002E04D0204619
:1037000007F0E4FB00E014252846F8BDFFFF0000A9
:1037100098000020CDAE0000F0B5074601208002E1
:103720001546381A89B00024A84AA94E030006F0AD
:10373000A5FA1E10171E252C32393E454C535A61EE
:103740006A71767DFDFCFBFAF9F88AF7F6ABABD629
:10375000D9F9012973D12878022870D8307031E165
:103760000129F7D128780128F7D870702AE10129BA
:10377000F0D128780428F0D8B07023E10129E9D1EC
:1037800028780128E9D8F0701CE11029E2D1102234
:103790002946904834E00129DCD128780128DCD87A
:1037A00030710FE10129D5D1287870710AE104291F
:1037B000D0D128689042D0D8F06103E10129C9D165
:1037C00028780228C9D8B071FCE00129C2D1287834
:1037D0000128C2D8F071F5E00129BBD1287804286E
:1037E0002DD83072EEE0012929D12878012826D879
:1037F0007072E7E0102922D1764810222946103055
:1038000010F0FEF9DEE0012919D12878012816D838
:10381000B072D7E0012912D12878F072D2E00429E1
:103820000DD1286890420AD83062CBE0002906D139
:1038300000F038FD002803D00120B074C2E076E02B
:1038400007F024FA1CE0072971D10622691C68469A
:1038500010F0D6F9287800226946FFF7C1FE054628
:10386000B07D854239D200F01DFD002805D0B26B35
:103870000120290189188873A4E0284607F018FA66
:10388000502010F005FC81E0072950D10622691C68
:1038900007A810F0B5F92878002207A9FFF7A0FEC5
:1038A000B17D884219D20621484305462135E8B248
:1038B0006A461C2110F03AFC00280ED14648874287
:1038C00001D1012000E0FF206946C876E8B26A46CF
:1038D0001C2110F077FCF07C36E0022472E000201E
:1038E00030756FE00027012030753D4624E0284602
:1038F0000621484306462136F0B26A461C2110F0E4
:1039000015FC002816D16846C07EFF2812D0FF2083
:103910006946C8760127F0B26A461C2108E046E0F5
:103920003EE036E045E028E01FE017E00FE039E038
:1039300010F048FC6D1CEDB22548807D8542D6D341
:10394000002F3FD02248C07C10F0C8FB3AE001298C
:1039500028D12878012825D8307333E0012921D1D6
:10396000287809281ED870732CE001291AD12878EC
:10397000C11F092916D8B07324E0012912D1717C26
:103980002878707400291DD101281BD107F06CFA2A
:1039900018E0012906D12878032803D8307411E0F3
:1039A000012901D018240DE02878F0740AE00120E4
:1039B000CAE7192F91D202298FD12988384600F001
:1039C00035FE0446204609B0F0BD00003F420F001E
:1039D00098000020642400201A040000FEB506466A
:1039E00000200190029030460BF096FE040017D0A4
:1039F000144FB879022813D0607901AAA11DFFF7EE
:103A0000EFFD0546B87D85420BD2284607F00CFA3B
:103A100002460120009008232946304607F0C2F8EC
:103A2000FEBDB879002807D00128F9D161790022BC
:103A3000304606F0F1FFFEBD0521304600F02EFEB7
:103A4000FEBD000098000020F7B516491525164E5A
:103A5000174688420FD1002409E03A4620460199D2
:103A600007F03EFA002800D00025641CE4B2B07DC7
:103A70008442F2D313E00BF04FFE00280ED04379BE
:103A8000811D00221846FFF7ABFDB17D884206D2AA
:103A90003A46019907F024FA002500E0142528464B
:103AA000FEBD0000FFFF00009800002010B5144884
:103AB000007F80080DD0134805F0FAFF124CFF2854
:103AC000207006D000F064F910480078002802D079
:103AD00013E0182010BD0E4A1021022010F026FB22
:103AE0000C4A1021032010F021FB04210A4A084649
:103AF00010F01CFB207800F041FD002010BD0000FC
:103B000094230020B13B0000DC000020EA000020EC
:103B1000A3240020B3240020F80000203EB5084C68
:103B20006D4624782C706870A970EA7006221946D8
:103B300001A810F065F8684600F004FB3EBD0000E7
:103B4000DC00002010B503F0BCF912480078FF2813
:103B50001DD1114805F0ACFF02F0E4F80F4805F064
:103B6000A7FF00F083FB0E4805F0A2FF01F09EF9CD
:103B70000C4805F09DFF05F06DFC0B4805F098FF23
:103B8000FFF7A0FA094805F093FF00F0DBFDFFF70F
:103B90008DFF10BDE4000020655E00009944000028
:103BA000DD4F00006D95000069330000C148000042
:103BB00070B50C4608040DD50F48007810F036F9A2
:103BC000050004D007F0C4FB284610F007F90120D7
:103BD000C0030CE060040CD50421084A084610F02C
:103BE000F1FA0748007810F079FA0120800360406C
:103BF00070BD002070BD0000DC000020F800002037
:103C0000AB0000207CB514460D4601F00DFA002DE6
:103C100002D02846FFF722FA0A48002C00D0446060
:103C200009490978002901D000207CBD0849074ACC
:103C3000009101920849074B0A780821007800F0AA
:103C400003FA7CBDDC000020EA000020F800002020
:103C5000B3240020A3240020E900002038B5054B40
:103C60006C461B7823706070A170E270684600F0AB
:103C7000AFF938BDDC00002070B50C4601460320CA
:103C800000020A1A00252548130005F0F7FF130B60
:103C90000D10171A1E2125292B2D3133393B3D3D9F
:103CA00035373D00407811E010221D4902E01C49E3
:103CB0001022103120460FF0A3FF2DE04069206054
:103CC0002AE0164906221E31F4E7C078207023E06E
:103CD000124982782431EDE7114902791F39E9E769
:103CE000407AF3E7807AF1E70C4906221831E1E7E0
:103CF000C07AEBE7007BE9E7C0890AE0008A08E0C8
:103D0000007AE3E74079E1E7192904D2084600F098
:103D1000A1FA208000E00225284670BDE4000020C2
:103D2000A3240020F8B5164CFF20207000256570F4
:103D30000320A0700126E670062765611920E7813F
:103D4000C001208220461F222946243010F02AF884
:103D500020460221243001704670877025711F2291
:103D60000021084810F01EF82046062200211830D5
:103D700010F018F86571A571FF20E071F8BD000022
:103D8000E40000208424002010B501F06FFC10BD79
:103D90000449C8710878FF2803D0012088710C20DD
:103DA00048707047E400002010B504460BF0B4FCE6
:103DB000002805D000781322214600F07FFC10BDBA
:103DC000122010BD3EB50024069D0194009502947A
:103DD00001F095FB3EBD0000F8B50E46070048D047
:103DE00038880BF099FC050041D0234AA96BD078A4
:103DF000022806D0012804D0287B082803D1002EF1
:103E000001D0122436E0002901D0112432E04721EC
:103E10002C200FF011FF0446A863200025D02C228F
:103E200000210FF0BFFF388860801C22391D201D43
:103E30000FF0E6FE022020700F483A880178287BB8
:103E4000082810D00020231D05F03DFC0446002E5C
:103E500003D0314628460EF015FD002C0AD0284626
:103E600007F0FAFA06E00120EDE7132402E014243B
:103E700000E002242046F8BD44010020FFB51F48A1
:103E800081B0C0781E4617460D46022818D001287A
:103E900016D0002F30D001980BF03EFC040029D042
:103EA000E06A002801D00FF003FF1C2138460FF014
:103EB000B3FEE062011E1BD0207B082803D00DE07A
:103EC000122005B0F0BD002E08D0887E00900B4671
:103ED00012330A8A01980EF0D5FF00E00020217904
:103EE000002D01D0062200E0042211432171E8E7F1
:103EF0001320E6E71420E4E70220E2E74401002073
:103F000010B50548C078000701D5044800E000203E
:103F100008F066F810BD0000440100206401002094
:103F200070B51B4C05460121207807F0BBFA1948F3
:103F3000C1780A20014224D0204625700C3008F0B8
:103F400049F8606800281AD1207800281DD00001A7
:103F500007210FF071FE6060002810D021780A015F
:103F600000210FF01FFF0020FF222378616803E08B
:103F70000401401C0A55C0B29842F9D305E0132051
:103F800070BD0020207008F025F8002070BD0000F2
:103F900050010020440100200849002008704860BA
:103FA0008860064806490C300160064941600649B0
:103FB0000830016005494160704700005001002051
:103FC0008DB20000D1BD00006DB10000A5B10000B0
:103FD00038B51A4D0446A868002801D0112038BD14
:103FE00017480A21C078084225D0052104200FF087
:103FF00023FEA86000281CD0042221460FF000FEFA
:10400000052000F027F90546062000F023F90246B6
:10401000E078002800D001200A498978002901D0E1
:10402000012300E000230090A078294601F0FEFA69
:1040300038BD132038BD122038BD000050010020CB
:104040004401002010240020F8B50224079F1D46DB
:104050001646042919D004DC012907D0022945D1CC
:104060000BE008291BD00C2940D129E000F05AF9B7
:1040700004003BD100F0AEF938E000F053F9040041
:1040800034D13046FFF74CFF30E000F04BF904002C
:104090002CD13A462846069900F07AFA20E000F042
:1040A00041F9040022D13A462846069900F070FAF8
:1040B0003046FFF735FFFFF723FF05F0DDF915E088
:1040C00000F030F9040011D13A462846069900F074
:1040D0005FFA3046FFF724FFFFF712FF05F0CCF937
:1040E00000F078F900F05EF905F0A4FA2046F8BD7A
:1040F00070B5104C2168002919D00978814214D17B
:104100000D4D0221287810F069F90C4800264680F0
:104110002878042110F062F90948467121680320CB
:104120004870002001F06BFA70BD032070BD1220B2
:1041300070BD00006C000020440100206C010020D4
:1041400010240020F0B504463D488BB0C07800072D
:1041500072D53C488068002801D010246DE000F042
:10416000A1F839490978884264D2384E306800286D
:1041700001D0112461E006210A200FF05DFD3060BE
:10418000002854D00A2221460FF03AFD30684078CA
:10419000002805D00B2000F05DF80A900C2004E008
:1041A000092000F057F80A900A2000F053F804465E
:1041B00027488078002801D0012500E00025102044
:1041C00000F048F807460F2000F044F800900D205A
:1041D00000F040F801900E2000F03CF8029008201A
:1041E00000F038F80890072000F034F809903168A2
:1041F000C878091D06F04BFB0346019A0299009806
:104200000491069007970592326809990898161D3F
:104210000096029103900195927821460A9801F048
:104220008DF9040009D0032007F030F905E01324CC
:1042300003E001E0152400E0122420460BB0F0BD9D
:104240004401002050010020B40200207000002032
:1042500010240020192801D3024870470249400069
:10426000085A7047FFFF00003024002010B50446B4
:1042700000F01CF800F0F0F8FFF78EFEFFF752FD9B
:104280000649FF23CB7000228A700A710448052179
:1042900043700470204601F02DFE10BD1024002054
:1042A0004401002010B50BF037FB10BD1A48002167
:1042B0000170417041608160C16001614161816153
:1042C0001648B42201804280012292038280A022FB
:1042D000C28002811022428182815023C3810382E5
:1042E00042828282C2827D2302831B0143838183B7
:1042F000C18301840F234384094B83840723C38430
:104300000285012242857E22D2438285C1850186B3
:10431000491E4186704700005800002030240020CC
:1043200080BB000070B50E460546202200210948DA
:104330000FF038FD074C0848E570C67001F08CF9A5
:10434000002803D000202070122070BD01212170B0
:1043500070BD000010240020440100207FB50446F9
:104360000D4608460BF0D8F9002817D00C488442B7
:1043700012D21022002168460FF014FD69460C701D
:10438000200A4870200C8870200EC87029466846A4
:1043900005F0A6F804B070BD0220FBE71220F9E793
:1043A00040420F0010B50848C078400707D50748BD
:1043B00007F022FE00200649C043C88010BD00203F
:1043C00007F01AFE10BD0000440100207C0100200F
:1043D00010240020F8B51D4C00256068002802D08C
:1043E0000FF066FC6560E068002802D00FF060FC0A
:1043F000E560174E0527F078384223D0154807F0BE
:10440000F5FDF07838421BD0472120200FF014FC36
:104410006060002814D0202200210FF0C3FC472147
:1044200020200FF009FCE060002805D020220021A8
:104430000FF0B8FC0020F8BD60680FF039FC656033
:104440001320F8BD002007F0D1FDF3E76C01002038
:1044500044010020C42400200948FF2101700021EC
:10446000418041608160C160074806490160074999
:104470004160074981600249064810310860704771
:104480006C010020C5B70000C4240020C5BA00009C
:10449000F1C2000035B70000FEB5354F354D0C4672
:1044A00008041FD538780FF0C1FC061E17D03078ED
:1044B000A22806D07D78304607F09EFC00280AD15D
:1044C00002E02C48C578F6E7FF2D04D03146284697
:1044D0000FF0E4FCE6E730460FF080FCE2E7012055
:1044E000C00341E0E0070126234900280AD04868BC
:1044F000002804D04168002901D0002088472046C8
:104500007040FEBDA00709D5C868002804D04168E6
:10451000002901D001208847022025E0600725D529
:10452000687900281FD0401E0006000E68711AD15D
:104530004869002808D02E71C868002804D0416856
:10454000002901D0012088476946E86804F00FFF80
:10455000684607F0BFFB1120FFF77CFE68713878D2
:1045600004210FF03BFF04206040FEBD0020FEBD93
:104570004401002010240020580000200149487008
:10458000704700004401002010B505F02DF810BD63
:1045900070B5154C0E46626121610546E06010223F
:1045A000FF2130460FF00FFB012806D0102200211A
:1045B00030460FF008FB012803D1102120690DF0CF
:1045C00053FF1022FF2128460FF0FDFA012806D0E4
:1045D0001022002128460FF0F6FA012803D11021FD
:1045E000E0680DF041FF70BD102400207FB50C463F
:1045F00005460BF091F8002814D0826B007B04284C
:1046000002D0122004B070BD002A00D0947D68460C
:1046100021460EF073FC044B6A46022128460EF038
:10462000EFFBEFE71420EDE7EF330100192802D28A
:10463000044A914201D102207047034A40001152BE
:1046400000207047FFFF00003024002070B50E46A8
:1046500011491546CB78022B17D0012B15D0002D10
:1046600017D00BF059F8040011D0002E03D0207998
:1046700002210843207120461022294618300FF0ED
:10468000BFFA2869A062002070BD122070BD1420FE
:1046900070BD022070BD00004401002038B50C46FA
:1046A00005460BF039F8002806D0684604706946C4
:1046B00028460EF093FB38BD142038BDF7B50546EB
:1046C0001E4812261E4F0C46814208D1B8680028A9
:1046D00032D00268002A2FD028469047FEBD1748E6
:1046E000401C844219D1B868002806D00268002A0C
:1046F00003D028469047002806D02846029906F0A5
:10470000B9F8060005D017E07D70029838700020D7
:10471000FEBD7D70029838700EE008460AF0FCFF7E
:10472000002809D00078A84201D00320FEBD204611
:10473000029900F0BEFEFEBD3046FEBDFEFF000049
:1047400058000020F8B5044600F0C8FD00F044F819
:10475000114F134EFC701149304600F025F84721E7
:10476000C0200FF069FA00221346B8619401065385
:10477000002124180C254D436519AB80491CEB60C2
:104780000529F7DB521C032AF0DBF878787005481E
:104790000BF0F6F8F8BD00003002002012250020D2
:1047A000FFFF0000F1D3000070B50A4C0025A042C5
:1047B00008D1002082008C525218401C95700328AA
:1047C000F8DB70BD08F0E5FD0028FAD004808570A4
:1047D00070BD0000FFFF0000F0B51E4920200870EA
:1047E000FF2048708870C8700126CE8000200881A4
:1047F000C86008610B4602241C3348611C70164ACD
:104800005A600A46087124321470144D55601672AD
:104810005081D3601474124F15466F612E766883F1
:10482000E9612021545413460E4D59185D620872F7
:104830005885D862302154540B4C032351185463CB
:104840000B725087094ACA600249094A643105C19E
:104850000860F0BD30020020DB450100DD450100AD
:10486000E3450100FB450100E94501001225002058
:10487000A1DE0000F8B50E46074606990024079809
:10488000002902D00B242046F8BD022B01D00D24B4
:10489000F9E7517812780D0215432946814301D07A
:1048A0008024F0E73846F16800F042F9A842EAD0E7
:1048B0002A463846F16800F0BFF90446E3E70000F5
:1048C00070B50D4608041AD50E48C0780FF0AEFA40
:1048D00004000FD02078B02809D1204608F01EFF30
:1048E000002804D020462179083000F0EFFC204653
:1048F0000FF074FA01212846C903484070BD00201A
:1049000070BD000030020020FFB585B000200F9F71
:104910000090087A0E9D1C460E46C0060BD50798DF
:1049200008F030FD03007DD00A22314605989847F3
:104930000090002816D13078022815D0079808F08A
:1049400047FD0028EFD0006884460028EBD011997D
:10495000109822460097029101902B4631466446FA
:104960000598A04709B0F0BD706829224178007809
:10497000090201431202881A91427CD00BDC69487B
:10498000081A13D0012811D0022817D00328D5D136
:10499000002F53D09BE001287ED002286DD0032841
:1049A00077D00428CAD1002F68D090E0002F6FD1B3
:1049B000F068017829800278416884E0002F67D18F
:1049C000F068417800780F02074304202880F068DF
:1049D00004A900782070F06840786070384600F0D4
:1049E00089F9060022D06846028A03AB4E49304658
:1049F000F76800F0DDF900280AD1337802214B482E
:104A00007268FDF784FD002802D147486946888115
:104A1000387802280CD10222201D79680FF0F0F8B6
:104A2000288800E07CE0801C288001E068468781BF
:104A300068468089A070000AE0706FE0012028803D
:104A4000F0680021007820707089401C80B200F06E
:104A500051F9002813D0298802788918891C2980E7
:104A6000817A61704189090AA17002784168E01C6D
:104A70000FF0C6F852E00CE00EE026E03BE028889C
:104A80000422001D28800021601C0FF08BF945E0F6
:104A90001DE0002F27D01AE0F0680FF0B0FC80B2C4
:104AA000B84201D207205DE7874201D1002006E02D
:104AB0001099C919814201D3C01B00E010982880C9
:104AC00082B2F068C1192046D2E7002F01D00B2036
:104AD00048E7F168059800F02BF802212980207042
:104AE000000A60701AE002202880F06800782070C8
:104AF000F0684078F5E70721F06829800178217097
:104B0000417861708178A1704188090AE17001796A
:104B1000217181796171C088000AA071009821E734
:104B20000E201FE700280000FFFF0000DF45010006
:104B300010B508F02EFC002800D0807810BD0000D1
:104B4000014988707047000030020020F8B50C4C15
:104B50000746A07815460E46FF280FD00A200FF012
:104B600029F901000AD0B12008704F800020487058
:104B70000871CE800D81A0780FF090F9F8BD00008B
:104B80003002002070B50C4605460649FFF7D0FFFD
:104B9000800704D52146284600F052FA70BD012056
:104BA00070BD0000122500200EB56B461A81FE2351
:104BB000002201930092022302AA00F001F80EBD28
:104BC000FFB583B0174602A90D9E049800F092F835
:104BD00004002AD06846008908F0FAFB002822D099
:104BE0004568002D1FD00C98019600903A4621464A
:104BF000069B0398A847050018D1FE2E16D02078F2
:104C0000022813D1606841780278080209491043EC
:104C100088420BD17878397802020A4304990398C4
:104C2000FFF794FF02E00E2500E00125284607B0BB
:104C3000F0BD00000229000070B514460E4605467E
:104C400008F0A7FB002806D13146054808F0A1FB73
:104C5000002803D005808470002070BD112070BD35
:104C6000FFFF000010B50178B0290BD14178002971
:104C700008D10179122906D01B2903D140880121CE
:104C800001F044F810BD417C0129F7D010BD0000AF
:104C9000FFB5002489B01E4615460F46022A05D0EE
:104CA000102D03D0022420460DB0F0BD002FFAD005
:104CB00007A9099807F092FD0400F4D10120694684
:104CC0008880801EC8800D7202A82A4639460130AD
:104CD0000EF096FF01A9099807F014FD0400E2D137
:104CE000034B072201A90096079809F01DFADAE79D
:104CF00097270000F0B5104A536919E09C68658950
:104D0000A84214D39E887219824210D900220CE066
:104D100017013F197F89874205D1002900D00D80F6
:104D200010010019F0BD521C92B2B242F0D31B68C0
:104D3000002BE3D10020F0BD30020020FFB51B485E
:104D400083B0002345692DE0AE680024708901908E
:104D5000A888009016E0210188194289039FBA4271
:104D60000ED3049FBA420BD8069A002A0FD01346DE
:104D7000715C4068059AFDF7CAFB002807D1002343
:104D8000641CA4B200988442E5D3002B09D00C988F
:104D9000002802D00C99019808802001801907B0E2
:104DA000F0BD2D68002DCFD10020F8E730020020A3
:104DB000FEB5174600256A469580044640891D4A7F
:104DC0001E46904208D001AA0092401C237880B26F
:104DD0006268FFF7B3FF0546237802211648626830
:104DE000FDF795FB002807D123780221134862685C
:104DF000FDF78DFB002801D060890EE023780221A9
:104E00000F486268FDF783FB00280DD0002D03D00A
:104E100068468088B84203D0384609F065F904E056
:104E20006889401E80B200E06089002E00D030808A
:104E30002846FEBDFFFF0000DD450100DF45010003
:104E4000E3450100FFB583B00E461D46174601A994
:104E5000039807F00DFD040022D1002F0FD0694602
:104E600008803088FFF746FF6946088800F024F97B
:104E70000146012203980AF023FC002811D1314693
:104E80000398FDF71BFC04000AD1FF2D08D0019BFD
:104E90001E22194604489B1C09F031F90198C5707F
:104EA000204607B0F0BD000051DF000010B50446F9
:104EB000FDF71AFC0749FF20087048700020486081
:104EC00088608C700421204601F014F800F042F84C
:104ED00010BD000084000020F8B5184F2821387854
:104EE000484302210EF0A8FE154E0028706023D022
:104EF0000024144D12E0282071686043401805809A
:104F000000218170FF2242720272817224221154A8
:104F100018220C300EF046FF641CE4B2387884424C
:104F2000E9D3094808F0A8F90848FDF711FE084838
:104F30000AF026FD0020F8BD1320F8BDB4020020C1
:104F400090000020FFFF0000A9C500008BC50000F5
:104F5000D1C4000070B500200D4D0E4B0446FF2259
:104F6000062141435D52C918CA708A70401C0C71F9
:104F70000328F5DB0120C0431880074808F082F9B8
:104F80000648FDF7EBFD06480AF0FAFC002070BD6C
:104F9000FFFF00000025002099DF00007BDF0000FC
:104FA000D1DE0000F8B51C4615460E4607460AF04D
:104FB000B3FB00280DD0017B074808292B46324659
:104FC0003946009403D0007807F068FCF8BD4078BB
:104FD000FAE70120F8BD00008400002070B50D46FE
:104FE000080412D50A4880780EF020FF040008D08B
:104FF0002078A02802D1204608F030F820460EF094
:10500000EDFE0120C003684070BD002070BD0000AF
:105010008400002010B508F0E1F810BD10B513466B
:10502000002208F0F5F810BD0149487070470000F3
:1050300084000020014908707047000090000020A3
:10504000FEB50E46074600250223194A19490120DC
:105050000095FFF773FE040027D023200090002363
:1050600004221D21384600F0EBF8029000281AD0E7
:105070006089694688800420C880029901200870F0
:105080000298334645700299FF20887002990022E9
:10509000C87001A93846FFF7D5FE040006D0029873
:1050A0000EF006FE02E0152400E001242046FEBDBD
:1050B000FB450100FFFF000000B507F07FFB002863
:1050C00001D0807800BD102000BD00B507F076FB50
:1050D000002800D0008800BD7CB50D4604460AF0CB
:1050E0001BFB29462046FDF73FFD002812D16846EC
:1050F000858020460AF010FB00280BD0027B01A916
:105100000748082A009106D07F2300222146007814
:1051100007F0C4FB7CBD7F23002221464078F7E7DF
:105120008400002010B504460B4688060DD51046B5
:10513000FFF7C2FF0146012220460AF0C1FA052806
:1051400001D00F2800D1082010BD882003420CD0C8
:105150001046FFF7B1FF0146180701D5012200E014
:10516000002220460AF0ACFA10BD880701D50020C5
:1051700010BD032010BD10B50346C8060DD510465E
:10518000FFF79AFF0146012218460AF099FA05280E
:1051900001D00F2800D1082010BD480705D51046C2
:1051A000FFF78AFF0146012206E0480608D51046AF
:1051B000FFF782FF0146002218460AF081FA10BD6F
:1051C000C80701D0002010BD022010BD70B51D46DB
:1051D00003460C4688060DD51046FFF76DFF0146C5
:1051E000012218460AF06CFA052801D00F2800D1D8
:1051F000082070BD8820044214D01046FFF75CFFE1
:105200000146200701D5012200E0002218460AF0DD
:1052100057FA002808D0697A0029EAD0297A0029AB
:1052200002D170BD880701D5002070BD032070BD7C
:1052300010B500234B720B7208F096FF10BD0000F2
:10524000F8B5069F1E461546162928D00CDC0929FC
:105250001FD004DC05291CD0062911D11BE011291F
:1052600017D012290CD118E01D2916D004DC1729FB
:1052700015D01B2904D110E052290ED0D2290CD010
:105280000124114A95420CD1FDF708FA001B85B2A2
:105290000BE00224F5E70724F3E70324F1E70524F4
:1052A000EFE7D22901D10C35ADB2601980B2394691
:1052B00000F07CFE002805D0002E00D03580614231
:1052C0000EF04CFCF8BD0000FFFF000010B507F029
:1052D0009BFA002801D00EF0EBFC10BDF0B50021C8
:1052E0003D4C0222A1603D4D227008462954401CCD
:1052F00080B21628FAD36270374BE180A27050203A
:105300000C331880A0205880184681807D20C00072
:10531000D880E2700123304823716171143002702B
:105320002F4C4460037241812E4CC46006460274C7
:105330002D4F77613446337671831034143EE66026
:10534000202402550646294F34197762237271854D
:10535000F562302402550546234E6E632C192372E4
:105360006987133DE560402402550546204E6E6472
:105370002C19237261810E3DE560502402550546CB
:10538000194E2C196E6523726181123DE56060240F
:1053900002550546174E6E662C1923726181083D31
:1053A000E5607024025505460F4E2C196E67237276
:1053B0006181113DE560802402550F4A80304260D2
:1053C000037241816A1CC2600C48A03210600C4814
:1053D000506010468160F0BD80010020D024002084
:1053E000DD45010048450100E3450100F1450100AC
:1053F000F3450100F9450100034601004DE20000BC
:1054000095E3000070B51646214A0D46114600246A
:105410001431030004F032FC0A061338381838211E
:1054200028383138152D2AD81622002119480EF0B7
:10543000B9FC2A46314617480EF0E2FB25E0022D62
:105440001DD13088D08020E0082D18D110480822C6
:1054500031460C30FCF709FC17E0012D0FD1CA6969
:105460000B4930783C3105E0012D08D1CA6B084961
:1054700030785C3108F056FF07E0012D01D0182488
:1054800003E03078107100E00224204670BD000077
:1054900080010020D0240020704710B500F016F9DC
:1054A00010BD10B500F032F910BD10B500F046F98E
:1054B00010BD10B5FCF7E8FD10BD10B500F052F9B5
:1054C00010BD10B500F066F910BD10B500F07CF904
:1054D00010BD10B5FCF7E2FD002010BD10B5FCF7C3
:1054E000F7FD10BD7CB5069C079DC0B201950094E8
:1054F00000F080F97CBD10B5FCF7FAFD10BDFEB5DB
:1055000008AF70CF6F4670C7FCF702FEFEBDF0B566
:1055100085B084460AA8F1C804976F4671C76046F3
:1055200000F098F905B0F0BD38B5049C009400F087
:10553000C9F938BD10B5FCF7FBFD10BDFFB589B04A
:1055400016A871C894468E460796159F129A13990D
:1055500004AE31C6149800920191029003976246FE
:1055600071460998FCF7F2FD0DB0F0BD38B5049C0A
:10557000009400F0C5F938BD7CB5069C079DC0B20B
:105580000195009400F0DAF97CBDFFB587B0944630
:105590008E4610A8F7C806976F4677C762467146D1
:1055A000079800F001FA0BB0F0BD10B500F04EFA0C
:1055B00010BD10B5FCF7EAFD10BD10B5FCF7F8FD05
:1055C00010BD10B5FCF706FE10BD10B5FCF712FEBD
:1055D00010BD10B500F058FA10BD10B5FCF71CFE58
:1055E00010BDFEB508AF70CF6F4670C7FCF726FE42
:1055F000FEBD38B5049C009400F064FA38BD10B5C7
:10560000FCF736FE10BDF0B585B00AACF0CC0397C0
:105610006F4670C7FCF73CFE05B0F0BD10B5FCF757
:105620004DFE10BD10B5FCF759FE10BD38B5049CF9
:105630000094FCF763FE38BD70B5547815782202EB
:105640002A43FCF76DFE70BD10B5FCF773FE10BD6C
:1056500010B500F055FA10BD10B5FCF77BFE10BD7B
:1056600038B5049C009400F063FA38BD10B5FCF71F
:1056700083FE10BD38B5049C009400F099FA38BD43
:1056800010B500F071FA10BD10B5FCF78BFE10BD1F
:1056900010B505280ED90C4CA0420BD2A14209D25C
:1056A000814207D3FF20F530824203D2092B01D972
:1056B000A34201D3002010BD521C4A43D8008242AD
:1056C000F8DA012010BD0000810C0000F8B5074693
:1056D000084616460D460C300EF06CFB040011D047
:1056E000912020700E206070A5702046A7800C309D
:1056F0002A463146A0600EF083FA0348214600781E
:105700000EF0CCFBF8BD00004401002070B505464A
:105710000C4606200EF04EFB01000BD091200870C5
:105720000F2048708D700120C87003488C8000786D
:105730000EF0B4FB70BD00004401002010B504461B
:1057400003200EF037FB010008D0912008701A20CA
:10575000487003488C7000780EF0A0FB10BD00006C
:105760004401002070B5064614460D4608200EF090
:1057700021FB01000AD091200870052048708E702E
:105780008D8003488C7100780EF088FB70BD00009E
:105790004401002070B5064614460D4608200EF060
:1057A00009FB01000CD0922008703E2048700820B0
:1057B00088708D808E710348CC7180780EF06EFBFE
:1057C00070BD00004401002070B505460C4606205F
:1057D0000EF0F0FA010009D09120087030204870D6
:1057E0008D7003488C8000780EF058FB70BD00006F
:1057F00044010020FFB581B01E460F4631200EF057
:10580000D9FA040022D0912020703E20607002203E
:10581000A0700120E07020460830054660600198C5
:1058200028706F700622A81C03990EF0E9F92E72F9
:105830002846324609300A990EF0E2F920350B98D5
:1058400028720348214600780EF028FB05B0F0BD11
:1058500044010020FFB5074681B01D4616461620BC
:105860000EF0A8FA040029D0912020703E2060702C
:105870000120A070002F08D03120E07020460622C1
:10588000002108300EF08EFA07E00020E07020467C
:10589000062208300A990EF0B3F90298A080A6718A
:1058A000E5710B98E0810C9820820D9860820E982B
:1058B00020750348214600780EF0F0FA05B0F0BDDF
:1058C00044010020F8B507461C4615460E460C203C
:1058D0000EF070FA01000FD0912008703E20487041
:1058E00003208870CF708E80CD800C81069848810F
:1058F000024800780EF0D2FAF8BD00004401002002
:10590000F8B507461C4615460E460E200EF052FA14
:1059100001000FD0912008703E2048700720887049
:105920008F80CE800D814C81069888810248007856
:105930000EF0B4FAF8BD000044010020FFB581B0BC
:105940001F4618200EF036FA050028D09120287046
:105950003E2068700B20A87001202C460834E870A7
:1059600000266C6001982070029860700622A01CCE
:1059700003990EF045F927722046062209300A994C
:105980000EF03EF90B98E073761CE878F6B210340E
:10599000B042E7D80348294600780EF07FFA05B0F8
:1059A000F0BD000044010020FFB581B01D46164641
:1059B0000F4622200EF0FEF9040042D09120207004
:1059C0003E2060700A20A0700198002814D0312079
:1059D000E07020460622002108300EF0E3F9204650
:1059E000062200210E300EF0DDF9204606220021AD
:1059F00014300EF0D7F913E00020E07020460622A4
:105A000008300A990EF0FCF8204606220E300B9959
:105A10000EF0F6F82046062214300C990EF0F0F83D
:105A2000A780A671E5710D9860830E98A0830F98EA
:105A3000E0832021109808550348214600780EF095
:105A40002DFA05B0F0BD000044010020F8B506466F
:105A500015460F4610200EF0ADF9040011D092202B
:105A600020703E2060700520A070A6800822394674
:105A7000A01D0EF0C5F80348E581807821460EF0A0
:105A80000DFAF8BD44010020F8B5064617460D464C
:105A90000E200EF08FF9040011D0922020703E20CD
:105AA00060700420A070E670A58008223946A01D11
:105AB0000EF0A6F80248214600780EF0EFF9F8BD86
:105AC00044010020F8B507461C4615460E460E2038
:105AD0000EF070F901000FD0912008703E20487040
