:020000040000FA
:100000000080002091170000010000209B170000D5
:1000100000000000000000000000000000000000E0
:100020000000000000000000000000009B1700001E
:1000300000000000000000009D1700009F17000056
:10004000A1170000A1170000A1170000A1170000D0
:10005000A1170000A1170000A1170000A1170000C0
:10006000A1170000A1170000A1170000A1170000B0
:10007000A1170000A1170000A1170000A1170000A0
:10008000A1170000A1170000A1170000A117000090
:100090000348854602F0DCFD00480047B700000039
:1000A0000080002010B5002804D0014658A002F0BE
:1000B00003FEFEE710BD022000F039FA10210120F6
:1000C00001F0B8FA052000F073FE55498A6A4C1514
:1000D00022438A620121080200F05CFD03212046D0
:1000E00000F058FD01F043FA4D48403841784DA2E8
:1000F0004FA002F0E1FD5549534808605449403093
:10010000086001F0B6F800F0CDF9524E00203070D2
:1001100051A002F0D1FD544900208A79D20705D0C0
:1001200001248C7100F064FE152803D03178002979
:1001300004D101E0347001E0152862D10020307054
:10014000C82000F035FE01F0BBF8002801D047A020
:1001500040E04EA002F0B0FD554F0420387000245E
:1001600054A002F0A9FD02F055FA050006D0322095
:1001700000F01EFE641CE4B20A2CF1D13878052888
:100180003BD350A002F098FD50A1544802F013FD5B
:1001900002F098F8B32820D051A5294652A002F0C9
:1001A0008BFD4E4F002429464C4802F004FD4B487D
:1001B00002F0FAFCC0B2FF2139544F48046002F04B
:1001C00081F8422803D043280CD0FFF76BFF02F0E0
:1001D000B3FA4AA002F070FD13E04CA002F06CFDEF
:1001E00040A5DAE73D4A214651A002F065FD641CB6
:1001F0005548A4B28442D6D3E9E7294653A002F079
:100200005BFD642000F0D4FD012000F01AFE82E7BF
:100210004572726F723A20253032580A0000000091
:100220008010004031313A30353A3035000000005E
:10023000537461727420404368697049443D2530AD
:100240003258202573200A00980200202402002042
:10025000280200202102002057616974204465763D
:1002600069636520496E0A0000800040B3F5CABC8E
:10027000BBAF55C5CCCAA7B0DCA3ACC7EBB0CECFE3
:10028000C255C5CCD6D8CAD40A00000053746172D6
:100290007420554449534B5F64656D6F204043485B
:1002A000353739554649206C6962726172790A00A6
:1002B0002D02002057616974204469736B52656197
:1002C00064790A004F70656E0A0000002F433531D3
:1002D0002F43483537394846542E43001803002031
:1002E0002F4335312F2A00004C6973742066696CE6
:1002F000652025730A0000005402002055C5CCD1AA
:10030000DDCABECDEAB3C90A00000000B2BBB4E644
:10031000D4DAB8C3CEC4BCFEBCD0D4F2C1D0B3F6DC
:10032000B8F9C4BFC2BCCBF9D3D0CEC4BCFE0A005E
:1003300020206D617463682066696C652025303407
:1003400064233A2025730A001027000055C5CCC34A
:10035000BBD3D0D7BCB1B8BAC320455252203D253B
:100360003032580A00000000F3B55B4C0646002509
:10037000204681B00830594F0090594930460978DD
:100380008840009902F02AFC802020735548002103
:10039000007860730A20A0732820E073524821740B
:1003A0000068020E6274020CA274020AE2742075E4
:1003B0006175A175E6752176029801F020FC387808
:1003C000002807D0284601F082FD387038780028D0
:1003D00001D03878FEBD6D1CEDB2032DCDD31F20AA
:1003E0003870FEBDF3B53C4C06460025204681B072
:1003F00008303A4F00903A493046097888400099D1
:1004000002F0ECFB002137482173007860730A206A
:10041000A0732A20E073344821740068020E6274CD
:10042000020CA274020AE27420756175A175E6756A
:100430002176029801F0E3FB3878002808D028469E
:1004400001F045FD38703878002806D03878FEBDB8
:10045000C82000F09DFC0020FEBD6D1CEDB2032DF8
:10046000C9D31F203870FEBD2049C8784006400E11
:10047000C870C8781E4A022802D0C87803280CD158
:10048000C8784878C00701D000207047C8784879FC
:10049000C00702D002201070F6E70120107016206D
:1004A0007047704710B502F0B3F8102801D2FF2052
:1004B00010BD11490F480860104908600C49002020
:1004C0000870074A0921117001210D4A4902118063
:1004D0000C49086010BD0000D80200202C0200204A
:1004E0003002002031020020600200200080004025
:1004F0002D02002038030020640200206802002042
:100500003E0200204402002010B5FF485721017030
:10051000A8210170FC4A8821403A11810021017014
:100520000A2000F035FC012001F0D5F810BDF0B52F
:10053000F54EF54D04275722A824203E403DF249B0
:10054000030002F0C9FB0D080E161B1F24282C32D5
:10055000373C41462F000A700C70F07BFB221040A4
:1005600003E00A700C70F07B3843F073C8202881D8
:1005700018E00A700C705120C000F8E70A700C7087
:10058000E248F4E70A700C7081208000EFE70A70FF
:100590000C708820EBE70A700C700220E7E70A7005
:1005A0000C702F8100200870F0BD0A700C70932031
:1005B0008000DCE70A700C70D4484D30D7E70A7031
:1005C0000C7095208000D2E70A700C704B20C000A0
:1005D000CDE70A700C70CD485C30C8E7CA4810B54A
:1005E00040380089C1B20B069A0FC948022A05D0CB
:1005F000012A04D09A0F06D07D20000210BDC90642
:10060000C90EC44801E0C906C90E02F091FA10BD36
:10061000BD4A57211170A8211170BB4940394B15B3
:100620000028088904D01843088100201070704702
:100630009843F9E7B44A57211170A8211170B249C3
:1006400020390028C87B05D004231843C873002034
:1006500010707047FB231840F8E7AB498A7B80078E
:1006600092089200800F024357200870A82008705B
:100670008A73002008707047A3498A7B8F231A4031
:100680000001024357200870A82008708A730020D8
:10069000087070479C4A203A917B8007890889003E
:1006A000800F0143984857230370A8230370917368
:1006B000002101707047944A203A917B0907090F85
:1006C00000010143904857230370A82303709173DE
:1006D000002101707047FEB58B4800274038008923
:1006E000C0B201068A0F022A4CD00124A403012AB9
:1006F0004CD0890F56D00524002000902005000D15
:10070000019081482038848900267F49572230464D
:100710000A70A8220A7001238B747B4957220A7041
:10072000A8220A70784A203A948100220A708A7CB2
:100730009207FCD50A8A8A7C9207FCD48A7C9207AD
:10074000FCD5098A019A7F1C891A0DB2FFB2002DCF
:1007500037D02946714305D5012834D0411C32D009
:10076000002830D02E4602943046009902F0F6F967
:1007700000B2211A8CB202998C4249D1002D45DD7C
:10078000641C44E00220644CC043B6E7C506ED0E8D
:100790002946624802F0CCF90019C40B2320C0435B
:1007A000401B09E0C506ED0E29465D4802F0C0F980
:1007B0000019C40BA81C4042294602F0CFF900B230
:1007C0009BE70020FEBD002E03DA761EF04306B242
:1007D00002E06D1EE84305B2B5420FDD4A485721DD
:1007E0000170A8210170484A0299203A91810021A4
:1007F00001707D20C0007043019903E07D20C0009E
:100800006843114602F0AAF980B2FEBD641EA4B28C
:10081000142F82D3FF20FEBDFFB581B00C460746E2
:10082000054600261AE0FF219131681E02F096F974
:1008300000290AD06421681E02F090F9002907D02F
:100840000320A9078007C14202D1FF206F3001E0D9
:10085000FF206E3080196D1E86B2ADB231488542E0
:10086000E1D80025012C25D9032C05D0A01E06288F
:1008700016DDE00718D115E0FF219131384602F06E
:1008800057F900290AD06421384602F051F90029AD
:1008900001D0B80702D000201C3006E00120FBE7A1
:1008A000E00701D01F2000E01E208019641E86B2E0
:1008B000A4B2D7E7039818213018401E84B20498D8
:1008C00002F036F9E120C00041430A981E2250434D
:1008D00009180B984008081881B20B98C00701D07E
:1008E0000120C0030A040243074957200870A820CA
:1008F0000870054E403E746303482038437C8024D2
:100900002343437472630FE0401000400202000072
:100910000048E80100389C1C1313000000180D8FDC
:1009200000688909E4070000427C40231A434274AE
:100930000D7005B0F0BDFFB50746934883B0C06B9E
:100940000E4684049048A40C2030418B008B012279
:100950004900D203904201D3012000E00020081892
:1009600000908A48388010E00199002925D0642140
:10097000284602F0DDF8002901D0A8071DD0FF208D
:100980006E30201A6D1C84B23D803D88FF2191316C
:10099000284602F0CDF80191002911D064212846A3
:1009A00002F0C6F8002901D0A80709D0FF206E3058
:1009B000A042D9D90020308049E0FF206F30E0E725
:1009C000FF206F30F4E73588012D04D0062D18D9AB
:1009D000E8071AD117E03888FF219131019002F021
:1009E000A7F800290BD06421019802F0A1F8002992
:1009F00002D00198800702D000201C3006E00120C0
:100A0000FBE7E80701D01F2000E01E20201A84B277
:100A10006D1CA8B23080012804D0062817D9C00761
:100A20001AD117E03888FF210546913102F080F88D
:100A300000290AD06421284602F07AF8002901D062
:100A4000A80702D000201C3007E00120FBE7307827
:100A5000C00701D01F2000E01E20A042B3D930887B
:100A6000641C401C30800598E12104800901009835
:100A700002F05EF8069A108008463C2102F058F811
:100A80000C9908803C21009802F052F80D980180E2
:100A900007B0F0BD3C49572240310A70A8220A70C5
:100AA000394A506338482030427C40231A4342740C
:100AB0000020087070473449886B8A6B8242FBD1F2
:100AC0007047314A10B5572140321170A82111707A
:100AD0002D4920314B7CE82423404B744B7C10245F
:100AE000204303434B740020107010BD00B5034633
:100AF000FFF7E1FF2649C018884201D94942401852
:100B00000104090C02D00121090440181E49572292
:100B100040310A70A8220A701B4A50631A482030DC
:100B2000427C20231A4342740020087000BD00213B
:100B3000002802D0012802D002E0202100E010218C
:100B40001148572240300270A82202700E4A20320B
:100B5000537C8B4353740021017070470A49203144
:100B60000028087C02D0402108407047C009C0011D
:100B7000704705492031002804D0012801D11020F8
:100B8000087470472020FBE700100040E4070000D5
:100B90000000C0A800B5524A0B0002F09DF8050401
:100BA000071016191F00516B81430AE0516B8143F6
:100BB0005163116B01431163116A81430DE0516B65
:100BC00001435163116B8143F5E7516B814301E0B0
:100BD000516B01435163116A0143116200BD404AE8
:100BE00000B540320B0002F077F805040710161923
:100BF0001F00516981430AE05169814351611169C4
:100C000001431161116881430DE051690143516154
:100C100011698143F5E75169814301E0516901435D
:100C2000516111680143116000BD2D4A002906D0B1
:100C3000012907D0022908D0032913D10CE0918A99
:100C4000814304E0918A814308E0918A01439182C3
:100C5000D16A0143D16205E0918A01439182916A90
:100C6000014391629083118A0143118270471C4BAA
:100C70001B4A4033002906D0012907D0022908D099
:100C8000032913D10CE0D18A814304E0D18A814346
:100C900008E0D18A0143D182D9680143D96005E0D7
:100CA000D18A0143D182996801439960D083518AE6
:100CB0000143518270470A4A803A0028108B01D0C4
:100CC000084300E0884310837047054A803A0028B3
:100CD000508B01D0084300E08843508370470000E8
:100CE000801000403C49062805D049790122824005
:100CF0001140084670470878082108407047364878
:100D000057210170A821017081790122114381715D
:100D100000210170704731490968016000202F49A6
:100D2000C0438031086070472C49086070472C48E8
:100D300080697047284957220A70A8220A70002843
:100D4000887905D00422104388710020087070470C
:100D5000FB221040F8E7204957220A70A8220A70A7
:100D60000028887905D0022210438871002008707D
:100D70007047FD221040F8E7174857210170A8215D
:100D80000170817910221143817100210170704737
:100D900000220AE0022101E000BF00BF0B46491E0D
:100DA00089B2002BF8D1521C92B28242F2D3704722
:100DB00070B500247D260546F60004E03046FFF7B6
:100DC000E7FF641CA4B2AC42F8D370BD0549CA7AEF
:100DD000082AFCD0087270474010004000E100E093
:100DE00000E000E000340040FC490120087070473A
:100DF00010B5FB4A002051790124CB07F749002B9D
:100E00000DD00B78012B02D05278D20706D10C708E
:100E100002200870F3A001F04FFF152010BD0A78E2
:100E2000022AFBD30C70F2A001F046FF162010BD81
:100E3000EB49CA784006D209D201400E0243CA707B
:100E40007047704710B5EE49082008700020FFF782
:100E5000EFFFE34C60784008400060706078FB2151
:100E600008400221084360700F20FFF7A1FF60785F
:100E7000FD2108406070FA20FFF78AFF0120A07171
:100E800010BDD6480178022901D202210170D44850
:100E90004179C90705D041780122114341700020F2
:100EA00070471620704719204001CD4903E0401ECD
:100EB0000004000C02D08A799207F8D5887980075F
:100EC00001D500207047FE207047F8B50646C4489B
:100ED0001546203081738172C14F0024C0492031F2
:100EE0000E720220B8711920400103E0401E000478
:100EF000000C02D0BA799207F8D500200872B879B0
:100F000080072FD5B879C00712D00120B871FFF73C
:100F10006FFF152802D1BA4901204870AF48017807
:100F200001290DD0007802280CD0C820FFF730FF2F
:100F3000B87980072ED5F879400605D50020F8BD90
:100F40001620F8BD1520F8BDF8790007000F0E280F
:100F50000AD00A280AD03109012911D0092914D050
:100F60000D290DD0FE20F8BD2E20F8BD002D05D096
:100F7000681C00D06D1E641EE4B20DE02A20F8BD8E
:100F8000002809D020210843F8BD032804D00B28ED
:100F900002D0F5E7FF20B8710F20FFF7F9FE641CBF
:100FA000E4B2032C9AD32020F8BDF8B505460E46CE
:100FB000C820FFF7EDFE002E01D000203070884CD5
:100FC0000820203420738F4A0021D020FFF77DFFB6
:100FD000002878D1D02021468873887201200873B8
:100FE00087498868C279837914021C4361D0002D37
:100FF0005FD00078000634D5C820FFF7C9FE7848D6
:101000002030817A7F4A9020FFF75FFF00286AD165
:10101000734A107AA04201D2107A00E02046C1B291
:10102000601A84B2002E02D0307840183070002050
:10103000734B05E05F683F5C401C2F70C0B26D1CB5
:101040008842F7D1107A002806D0107A1978491E04
:10105000084201D1002CCFD1614900202031087312
:1010600027E05F4F2037C820FFF792FE64490878D9
:10107000844200D220463873002005E08B682A782D
:101080001A54401CC0B26D1C3A7B8242F6D1B97B27
:101090005C4A1020FFF719FF002824D1387B201A62
:1010A00084B2002E03D03078397B40183070002C89
:1010B000D9D1C820FFF76CFE494C2034207B002892
:1010C00002D0902001E00EE010204E4AC021FFF730
:1010D000FCFE002807D1207B002804D04048007A7D
:1010E000002800D01720F8BD454A002192680378F7
:1010F0005354491CC9B2401C0829F8D1704738B56F
:101100003F4C082020704048FFF7EEFF69463F48FB
:10111000FFF74BFF002809D13C486946C079207091
:1011200039480978C088884201D9172038BD002085
:1011300038BD354808B50830FFF7D6FF6946334853
:10114000FFF733FF002807D12F4869460830C088D1
:101150000978884201D9172008BD2C48C1788278C7
:10116000080210436946087027480830FFF7BCFFA3
:1011700069460878224989688871000AC8716946F9
:101180002248FFF712FF0028E6D168460078402881
:1011900002D9402069460870684602781B491C48FD
:1011A00001F0F0FC002008BD10B5044616481030D0
:1011B000FFF79AFF1248210A80688470C1700021ED
:1011C0000846FFF7F2FE002806D12046FFF730FE62
:1011D0000A20FFF7EDFD002010BD00002D020020C9
:1011E000008000405553422064657620696E0A00F5
:1011F00055534220646576206F75740A0000000024
:101200002002002010270000843100004805002043
:10121000D802002010B504462548FFF765FF254891
:10122000210A80688470C17000210846FFF7BDFE66
:10123000D2E710B504461E481030FFF755FF1D4891
:10124000210A80680471417100210846FFF7ADFE54
:10125000C2E710B5044616480830FFF745FF1548A9
:10126000210A80688470C17000210846FFF79DFE46
:10127000B2E710B510488021017000214170C170A3
:10128000482242730B4A93880383138983830A4B52
:101290002033997299738924047040249C71FF2330
:1012A0008371064C0123237003238370517093E7ED
:1012B0009C31000020020020008000402D02002010
:1012C000F8B57AA001F0F8FCFFF7BCFD0024254634
:1012D0000120FFF76DFDFFF7D4FD002804D16D1C40
:1012E0000024EDB2642D0CD8641CE4B2642CEFD35E
:1012F000002C06D0FFF778FD71A001F0DDFC162070
:10130000F8BD7A4FB878FFF79CFD79A001F0D4FCC6
:10131000FFF7F5FE05002DD1794E7A4D05E0315DE0
:1013200079A001F0C9FC641CE4B2E879A979000253
:101330000843A042F3D876A001F0BEFC3089B88003
:101340007089F88073483479C17882780802104334
:10135000C0B2FFF729FF05000CD16E48C178827832
:101360000802104378706CA001F0A6FCFFF7E1FEC4
:10137000050011D001466CA001F09EFC70480221CE
:1013800001700120FFF75DFD2846F8BD715D5EA08C
:1013900001F092FC6D1CEDB27088A842F6D85CA0FA
:1013A00001F08AFCB07B002C01D1082801D0FB2081
:1013B000F8BD6348042101700020F8BD38B504462B
:1013C0006048FFF791FE604D210A28680471417161
:1013D00069464B48FFF7E9FD00280BD15948083012
:1013E000FFF782FE2868210A04714171694644486A
:1013F000FFF7DBFD38BD534808B51030FFF774FE2A
:1014000069463F48FFF7D1FD002807D14D4869469E
:101410001030C0880978884201D9172008BD002003
:1014200008BD08B54849A32209680A7000224A701D
:101430008A70CA700871000A487104208871CA71E4
:1014400069462F48FFF7B1FD002804D168460078AF
:10145000042801D2172008BD002008BD10B53A4A63
:10146000232312681370032353709170090AD170FB
:101470001071000A507100209071D0710146FFF781
:1014800094FD10BD10B5304A232312681370012358
:1014900053709170090AD1701071000A50710020C8
:1014A0009071D0710146FFF780FD10BD52657365E4
:1014B0007420686F737420706F72740A00000000EB
:1014C00044697361626C6520686F737420706F7219
:1014D000742062656361757365206F66206469734B
:1014E000636F6E6E6563740A0000000038050020AB
:1014F00047657444657644657363723A2000000062
:101500004805002084310000782530325820000042
:101510000A00000094310000476574436667446523
:101520007363723A20000000496E6974526F6F74E1
:1015300044657620457272203D20253032580A00DD
:101540002D020020B43100002802002010B504460E
:10155000FFF744F80A214843C008214601F0E8FAA1
:101560000A21401D01F0E4FA2249888110BD10B51E
:10157000E1204002FFF7EAFF1E4887218170032126
:10158000C170402141700121817310BD19498A78D1
:101590009206920E800102438A707047154A002815
:1015A000507806D008435070107808210843107016
:1015B00070478843507070470E49802048707047CC
:1015C0000C4A07E0D37A082B04D003781372491E23
:1015D00089B2401C0029F5D1704701460020054A18
:1015E00004E0137A401C0B7080B2491C937A002BE4
:1015F000F7D1704700340040F8B5624D5726614C72
:10160000A827203D00282670277028880ED0211595
:10161000084328800A20FFF7BBFB26702770288824
:1016200061150843288000202070F8BD032149027D
:101630008843F7E7F0B5534C57261C228B07514DD2
:10164000A8270A409B0F403C00282E702F7010D016
:10165000080603D5E07BFD210840E073A07A104323
:10166000A07248482038C17B1943C17300202870FC
:10167000F0BD080603D5E07B02210843E073A07AA1
:101680009043A0723F482038C17B9943EDE730B5C5
:101690003C4C57233B4AA825403C0028137015704A
:1016A000E06804D08843E0600020107030BD08433B
:1016B000F9E730B5334C5723324AA825403C00287F
:1016C00013701570A07B04D00843A0730020107025
:1016D00030BD8843F9E7F8B52A4D5726294C00213B
:1016E000A827203D0028267027700ED001206871A1
:1016F0002871002020700120FFF74AFB2670277018
:101700000D20287100202070F8BD29712170F8BDCE
:101710001D48016904229143016130BF7047194B94
:1017200057241C70A8251D7016494039887B082253
:10173000104388730920134E0003203E3080002799
:101740001F70886B8A6B8242FBD1104A0A3090422C
:1017500001D9524280180204120C02D00122120454
:101760008018302232741C701D7048632F207074F2
:101770001F701C701D70052008811F7040BF20BFA6
:1017800020BFFEE74010004000ED00E00000C0A8D0
:101790000448804704480047FEE7FEE7FEE7FEE70F
:1017A000FEE7000009050000910000000020F94953
:1017B000C0430864486400208873704710B5F54C36
:1017C000616C606B88420FD06064A26BE16B9142E8
:1017D00000D120640120FEF7C7FD2070002801D051
:1017E000FFF7E4FF207810BD002010BD10B5E94CD4
:1017F000216C606B88420FD02064E26BA16B914238
:1018000000D160640120FEF7AFFD2070002801D0F8
:10181000FFF7CCFF207810BD002010BD10B5DD4CC7
:10182000606B6064A26BE16B914200D12064012087
:10183000FEF7D8FD2070002801D0FFF7B7FF207811
:1018400010BD10B5D34C606B2064E26BA16B91426C
:1018500000D160640120FEF7C5FD2070002801D092
:10186000FFF7A4FF207810BD10B5CA4C606C606310
:10187000FFF7D4FF002814D1A06C002812D0616BB0
:10188000081860630120E16BFEF7ACFD2070A16CCD
:10189000606B401A60632078002803D0FFF786FF52
:1018A000207810BD0020A07310BDF8B5B94E0446D5
:1018B000B1783046806D022957D0032957D00025D2
:1018C000C10700D0012541080818718AF26B491E32
:1018D0000140891871663179C840F16C4018B065D3
:1018E000716C88420CD0B07B002803D0FFF7BCFF9E
:1018F00000286ED1B06D7063FFF760FF002868D1DB
:1019000000210127002C06D0042C32D0012C33D02A
:10191000706DB065B77371733046B1789D4E6036A7
:1019200002292BD003293BD09A48406E0178B17030
:101930000A079849120F896D0B071B0E1A43327064
:1019400094460A097270934AD36B528A9A18521EAF
:10195000824248D04278F270002C6DD0002D39D0F0
:10196000614601707178417068E04000ADE7800029
:10197000ABE70020C043CCE7B165CBE7416E864DB5
:101980000A8832603388AB4200D34773002C02D000
:10199000806D088065E0417B002962D1426560E08E
:1019A000426E836D11681B010D0F1B092D072B4320
:1019B00009010909794D83653160A94200D3477354
:1019C000002C01D013604CE0427B002A49D14165D4
:1019D00047E047E00170F1787278090909011209BE
:1019E000114341702DE0002C05D0002D01D061463F
:1019F00000E0C9B201706748807B204303D0FFF745
:101A000033FF00282ED16348416C491C4163FFF726
:101A1000D5FE002826D15F4A002CD16B0878F070E3
:101A20000AD0002D01D0707804E00009737800011D
:101A30001B09184308709773002D02D070880009A5
:101A400002E070880005000D7080554980B2884220
:101A500001D350494F734F4930604A7B144300D142
:101A600048650020F8BD70B54A4D2E4660366C6D55
:101A7000286D844254D8641C0020AC65FFF715FF24
:101A80006C6500284DD1306800284FD0FF212A6DA9
:101A9000204608430A439042E9D0A8780128E6D0BE
:101AA000E96B69660228688A11D08008401E81B2FD
:101AB00031807180686E001D6866006800011FD06B
:101AC0003088401E0004000C3080F3D110E0400844
:101AD000401E81B231807180686E801C686600880B
:101AE000002808D03088401E0004000C3080F3D15C
:101AF00021436965BBE70020696EC043088005E0AB
:101B0000686E264A01680832114301607088696D69
:101B100008433188401A401C6865296D884201D904
:101B2000B12070BD0120A873002070BD0420AC65F9
:101B3000FFF7BBFE70BD10B5FFF795FFB12804D1CC
:101B4000144900204865FFF78EFF10BD10B5114BFA
:101B50005A78824201D30A4659708A4201D1002044
:101B600010BD01205870FEF77FFC0028F8D18320BB
:101B700010BD08490878162803D0152806D0002083
:101B8000704701224A7000228A61704702224A701F
:101B9000704700002C020020F7FF0000F7FFFF0F46
:101BA000F70F000010B50220FFF702F9FB4C207878
:101BB000A072FEF759FC002803D16078042801D2F6
:101BC000832010BDF6A0FFF78FFAF749607A0871FD
:101BD00000210846FFF7E9F920701628F1D0207B94
:101BE0000007000FFFF725FBE07A0007000F8030A9
:101BF000FFF71FFBA07A20700021A17210BDF8B57D
:101C00000446E949E94800F0E9FFE9491F20087363
:101C1000E24D01225204A97A287BFFF756F9287079
:101C2000162870D000281AD0DF480021026802620E
:101C3000491C001DC9B20829F8D1FFF7B3FFDA48E3
:101C40000021026A491C04C0C9B20829F9D18A03DB
:101C5000A97A287BFFF739F9287000287ED1CF4870
:101C60004021827A4A408272CF48083000F0ACFFAF
:101C700000283FD085B2CC48CB49007B8EB200060D
:101C800000287FDACB48012786B22FE0402D03D30E
:101C9000C7482038048303E0C5480027203806835E
:101CA000BE480122817A5204C07AFFF70EF9BB497F
:101CB000087000280CD0BE4920390E832E2822D16E
:101CC000B648C07A0007000F8030FFF7B2FA0FE085
:101CD000B2488022817A51408172B748002F0AD0E1
:101CE000007A402804D1403DADB24034002DCDD122
:101CF000B14806834AE0017AE8B2884200D2E9B2EC
:101D00000020AC4A05E05DE0135C2370641C401CBD
:101D1000C0B28842F8D1EBE7A748402D07D38483AF
:101D2000403D4034A2484021ADB201730EE08683AD
:101D30009F48EAB2027300209B4904E02378641CA8
:101D40000B54401CC0B28242F8D10025934F0122AF
:101D50005204B97A387BFFF7B8F801E030E011E0BF
:101D6000387000280AD094498E832E282AD138460C
:101D7000007B0007000FFFF75CFA05E0B87A40210E
:101D80004840B872002DC7D18B488683834C01220E
:101D90005204A17AE07AFFF798F82070002811D158
:101DA000A07A80214840A0721F2020708248007ACB
:101DB0000D280BD17F48007B002804D0022805D3D2
:101DC000FFF7F0FEF8BD00202070F8BD2078F8BDC8
:101DD00070B50C46744905460831204600F0FEFEF9
:101DE000002C01D0802300E000236F4A6B4813735E
:101DF0004079507306209073D57300231374537485
:101E00009374D474137553759375D375137670BD2D
:101E100010B50A20FEF7CCFF12210320FFF7D8FFF0
:101E200061482030FFF7EBFE0520FEF7C1FF5B485D
:101E30000078002801D0FFF79CFE10BDF8B5574D83
:101E4000092028712C460F206034574E20700A2735
:101E500030462030009008212520FFF7B9FFB773E6
:101E60000020F0740098FFF7CAFE287800280FD0F1
:101E7000162826D0152824D0132822D06070FFF70A
:101E8000C7FF607828702078000711D5402010E047
:101E900000988079042804D0082804D0102804D0A1
:101EA0000FE02F710DE00B2000E00C20287108E0FE
:101EB000C820FEF77DFF2078401E0006000E20702F
:101EC000C9D129790120884068826078F8BD012154
:101ED00010B54903384B0A465C79A40903D1521E58
:101EE0001204120CF8D10A465C79A40903D0521EE0
:101EF0001204120CF8D15A79920903D1491E09042F
:101F0000090CF8D1254A022806D35178122914D099
:101F1000102901D9102151701178002807D01629F5
:101F200005D0152903D0FFF773FF002804D0022045
:101F3000FEF73EFFFFF71DFE10BD0521EBE7F8B5EC
:101F4000FEF792FA002804D1144D6878042801D2D3
:101F50008320F8BD04206870FFF7EBF82870002894
:101F6000F7D1114EB07B082831D10020A871F17B48
:101F7000062901D10121A971084CF17A002069726A
:101F800060342070707FF77E8446B07D317D864658
:101F90002278002A12D0384611E000002C020020DE
:101FA00021FF000000000000D802002055534243EA
:101FB00020800040980200200080004008466070A9
:101FC000002A01D0634600E07346402B02D01F2058
:101FD000287026E0030604D50007000F9030E87251
:101FE00003E00007000F10302873521CD0B220709D
:101FF0000228CDD17079FFF70DF928700028A8D1FB
:1020000000272770F9A0FFF76FF8687A3071611C1C
:10201000A86BFEF7CAFF2870002804D028782E2865
:1020200008D02878F8BD6178012906D1A96B097814
:10203000217002E00020FFF7FCF80520FEF7B8FE53
:10204000FFF7B4FBAF726F71012624211220FFF756
:10205000BFFEA86BFFF7D3FD28780028207807D0B3
:10206000002815D06879032812D2401C6871ECE76B
:10207000002806D06879002803D1A86B00780528CD
:1020800004D005210420FFF761FDF8BD6E71DCE787
:102090006F710120FFF71BFFF8BDF8B5D54E7078C2
:1020A000052805D2FFF74BFF002834D1FFF7C6FE05
:1020B000FFF77CFBB069CF4DCF4A0109002764359B
:1020C000914203D10007000F687000E06F70C94CA7
:1020D0006034F7703772B7627763FFF787FB0028C9
:1020E00007D0FFF75FFDFFF7A9FEFFF77FFB002892
:1020F00011D16878002805D1B06BFD210078084027
:10210000E92809D0B06B0246FF30E130C18BBB48F3
:10211000814203D09120F8BD706B29E0F07843E054
:102120001146FF31C73141180B7823704B7863702B
:102130008B78A370C978E170216871631146FF3113
:10214000C331415C217005291FD00F291DD00B061A
:1021500002D58906890E21700906090E23D00F29A0
:1021600021D2697801291CD8316C706B40187063DA
:10217000B061FFF73BFB0028CDD1B06BFD230178A8
:1021800032461940E92923D11CE0B16A706B40182E
:102190007063317A0029A0D1297810313172B06290
:1021A0009BE7491E697010302870C0B24028B7D133
:1021B000307A002802D0F278002A01D09220F8BDAF
:1021C000F07088E7FF21FF310B5A8C498B4201D018
:1021D000A120F8BD417BD1700723D3710A0609D431
:1021E000F2794906521E090E1206120EF271F5D14D
:1021F0000121F170C18AB164002901D1416AB16441
:10220000027D411CC37C12021A43F26201D1026AB0
:10221000F2624A7C097C12020A43718A4909491E0A
:1022200051183279521F1141F161C289F264B36CC5
:1022300051189C46CB182360017C8E46022913D08E
:10224000B7642368716B59183162F16ACB1AF1795E
:10225000CB406B4933658B421BD299B2694BB78235
:10226000994205D2012104E0614659182160E8E74E
:102270000221B170002A15D0F169002912D07146EF
:10228000012902D0B16C00290CD0C17A002909D1F2
:1022900005E0018EB182C16AF1610321E9E7007BAB
:1022A000022807D26978002901D0A320F8BD0121B6
:1022B00069700EE7716B5018F06410210520FFF76C
:1022C00045FCF8BDF8B54B4C6078102803D2FFF7F9
:1022D000E4FE00286FD110210846FFF737FC0028E4
:1022E00069D14949E0730878002864D05C2805D09A
:1022F0002F2803D04A783A2A03D02BE04248401CCA
:1023000003E0432826D34048C01CE065A07803289A
:1023100006D000216162E16D0978002902D01AE03F
:10232000E169F7E70021C943A16203280AD002202E
:102330006062E069C0B2E070216A091A2162217905
:102340008840A062606A60650020E062207212200E
:10235000607093E0E165274F6037606A002807D01E
:10236000E1782172E179801E8840216A401804E0FA
:10237000E069C0B22072216A081A2063BDE0206BB8
:102380006063FFF733FA002879D1AAE0A16B0A183D
:1023900062661078002873D0E52872D0052800D135
:1023A000E520E36D1978814201D02A2969D1814263
:1023B00002D1012001E062E00020B8702FE0BE7879
:1023C000155C995D8D4226D0002906D05C2904D089
:1023D0002F2902D02E2919D023E0202D21D1082821
:1023E00002D2117A20291CD10B201AE0A1FE000094
:1023F000000001002C0200206745230155AA0000BF
:10240000F5FF0000F50F000018030020082E01D092
:10241000202D06D10720401C761CC0B2BE700B28B0
:10242000CDD3B9780B28595CF97043D3D07A000723
:1024300040D400206073606E418B6162A278032AF1
:1024400003D1828A12040A436262FA78002A02D017
:10245000627B002A28D0616A0022E26261652272F2
:10246000C37ADB060ED5501EA06213211020FFF7A1
:102470006DFB002803D1607B002813D14120F8BDFB
:102480004CE02CE0C069A062002902D1FF2020723C
:10249000A26214211020FFF759FB0028EFD1607BC6
:1024A0000028ECD04320EAE7E16DBA78491C5118C6
:1024B000E16552E72A2912D1D07A00070FD4FD48EE
:1024C00040780009072801D01120D8E7A06A002829
:1024D00033D001DAFDF7E5FFA06A401EA062208A32
:1024E00020302082618A80B2884200D24EE7206B81
:1024F000401C2063207A401E2072207A002800D0E1
:102500003DE7606A2546002808D0A8650020FFF74F
:10251000CCF90028B3D1687B002839D0E26D0021C6
:10252000505C491CC9B2002835D02A2833D05C2819
:1025300001D02F28F4D1B320A1E700203870616EBC
:10254000095C202919D0082806D13A78E56D2E219A
:10255000A9543978491C3970616E3A78E56D095C87
:10256000A95439783E46002904D11978052901D1AA
:10257000E52119703178491C3970401CC0B20B2814
:10258000DDD33A78E36D002199540121617352E75C
:1025900038686862E1E6422071E7C748416DC27958
:1025A000891E9140026A8918027A8918416370472E
:1025B00070B5C14DC14C6A6A002A16D0297960688D
:1025C000C840297A401A2168814201D3081A14E0D0
:1025D00008466A6512E0686DA8650020FFF765F996
:1025E000002814D1687B002804D0FF202872002026
:1025F000C0430AE0E9782068401A2060E978884200
:10260000E9D22872FFF7C9FF686B2060002070BD17
:102610001020704770B5A94D00202860FDF724FFF9
:10262000002813D1A44C6078052813D2FFF787FC4B
:10263000002806D04020FEF7BBFBFFF780FC0028F7
:1026400004D1FFF7FBFB002801D0207870BD9C4827
:10265000006A286000210846FFF7BAFB984820303E
:10266000FFF7CDFA20780028F0D02078924D603521
:102670002870FFF7CDFB2878207070BD10B5FFF7EC
:10268000F2F98D4C002807D0B12820D100206065D8
:10269000FFF7E9F900281AD1FFF7E6F8002816D16C
:1026A000606D6062206B6063FFF7A0F800280ED1B8
:1026B000218AA06B401801216066C161616E606A69
:1026C0004883606A616E000C8882FFF7BAF810BD1B
:1026D00070B5794C784D60342060A88A00280FD0FE
:1026E000A96940186863FFF781F8002808D1A86B32
:1026F0002268FF30C130816A89188162FFF7A1F832
:1027000070BD10B56C4C0020E0736078142811D3B4
:10271000206B6063FFF76AF800280AD1218AA06B5A
:1027200040186066C17AC90604D4A16AC161FFF786
:1027300088F810BD002010BD10B55F4841781229FF
:1027400001D2B42010BD12290BD18178032908D001
:10275000C27901219140C170C169026AC9B2891868
:1027600001624178132911D9142903D153490978F9
:1027700000290BD0C07B002803D0FFF7C2FF002840
:10278000E0D110210846FFF7E1F910BD0021C17327
:10279000F7E770B5484C6078132803D2FFF792FD35
:1027A000002831D110210846FFF7D0F900282BD19D
:1027B000206B6063FFF71AF8002825D1228AA16BED
:1027C000E5208854FFF73DF800281DD13A4D606A96
:1027D00060352860002817D0401E606200206065C8
:1027E0002868A0650120FFF760F800280CD1606D13
:1027F000401C6065607B0028F2D0FFF735F80028A8
:1028000002D1606DFFF764FF70BDF8B5FFF75AFDA8
:10281000294C0027FF4300252072002824D042289D
:102820006DD1208A618A88426AD3606A002849D0C3
:10283000A0650020FFF739F8002860D1607B0028F0
:102840005ED0606A6065FFF776F9002857D1606A4C
:10285000A0650220FFF729F8002850D1FFF704F8FF
:1028600000284CD1A16B05E0FFF793FF1FE00D504E
:10287000001D80B2628A9042F9D12572FFF78DFE69
:102880002582606B0C4E2063E078603608E0FEF72E
:10289000D8FF002833D1606B401C60633078401E45
:1028A00030700006000EF2D13846FFF711FF002805
:1028B00025D125E0401000402C0200201803002004
:1028C000D8020020E0692072206B401E2063606304
:1028D000FEF78CFF002812D12582638AA26B04E0E8
:1028E000565CE52E0CD020312182218A9942F7D303
:1028F000207A401E0006000E2072E5D1B220BEE50F
:10290000606A606585488078042801D01120B6E5AA
:10291000FFF711F90028F2D1FEF7A6FF0028EED14B
:10292000606D60623846FFF7D3FE0028E7D1206B68
:102930006063FEF75BFF0028E1D1218AA06B41189C
:102940000020616601E00B2801D2202200E0002275
:102950000A54401CC0B22028F5D3714808830120D6
:10296000C8610020E26D1378002B0DD02E2B02D110
:102970000820521CE26512780A54E26D401C521C79
:10298000C0B2E2650B28EDD3606A4883000C8882F0
:10299000FEF757FF0028B2D1606AA562E562606564
:1029A000257214211020FFF7D1F868E570B55D4D50
:1029B0000120E8736A8AE879A96A824054182A7962
:1029C000641E1218E86AD440D0402A46A865526AAC
:1029D000844201D9241A00E06A65002A02D0002945
:1029E00009D009E0002904D0FFF748FE002801D1F2
:1029F00002E0002070BD01244B4E686D3060686DB0
:102A0000A8657060641E0020FEF74FFF0028F1D11A
:102A1000687B00281BD0002C16D06042FFF758FEC0
:102A20000028E7D1686D7060FFF785F80028E1D1D4
:102A30007068A8650220FEF738FF0028DAD1641E0E
:102A4000F0D1306868651CE030686865D1E7002C1B
:102A5000D5D17068334E60363060A8650120FEF72E
:102A600024FF0028C6D1687B641C00280CD02046B7
:102A7000FFF72EFE0028BDD1686A68650020E86275
:102A80002872FEF7F1FE70BD3068E6E7F8B5254C18
:102A90006078132801D2B420F1E4206B6063FEF764
:102AA000A5FE0028F8D1228AA16B1F4D8918616606
:102AB0002A7ACB7A2B72FF2A01D0CA720120194ED2
:102AC000E98860363180626E184FD38AEB80B94254
:102AD00001D0D1820120A9883180626EB942138B66
:102AE000AB8001D01183012029683160626ED36907
:102AF0002B604B1C04D0A1620020D161E07301E087
:102B00000028C9D0FEF79DFEB9E40020064AFF2147
:102B10001154401CC0B20D28FAD1B7E74010004054
:102B2000213000002C02002018030020FFFF0000CD
:102B300030B50B46014600202022012409E00D4655
:102B4000D5409D4205D31D469540491B25469540DD
:102B500040191546521E002DF1DC30BD70B5002421
:102B60002546002801DA01244042002901DA012526
:102B70004942FFF7DDFFAC4200D04042002C00D0BC
:102B8000494270BD03460B439B0703D009E008C9C7
:102B9000121F08C0042AFAD203E00B780370401C0D
:102BA000491C521EF9D27047421C0178401C002972
:102BB000FBD1801A704703460A780270401C491CFA
:102BC000002AF9D1184670470321001D401E0378E2
:102BD00012021A43491EF9D51046704703460322D4
:102BE0000870000A491C521EFAD518467047F0B505
:102BF0001FB40646002082B0054640240191009093
:102C00001BE0019922460F46304600F043F8049A33
:102C1000059B801A994110D310461946224600F0B0
:102C200029F8361A8F410197224601200021009F82
:102C300000F020F838184D4100902046641E00280E
:102C4000DFDC019B00982946324607B0F0BD00004A
:102C5000064C0125064E05E0E36807CC2B430C3CEF
:102C600098471034B442F7D3FDF716FACC31000080
:102C7000FC31000010B5202A04DB0146203A9140C7
:102C8000002010BD914020239C1A0346E3401943C5
:102C9000904010BD10B5202A04DB0846203AD040F1
:102CA000002110BD0B46D340D0402024A21A9140F1
:102CB0000843194610BD00000FB410B503A9044B1A
:102CC000044A029800F024F810BC08BC04B018476D
:102CD000CD0D00009402002030B47446641E2578A7
:102CE000641CAB4200D21D46635D5B00E31830BC40
:102CF000184702E008C8121F08C1002AFAD170471D
:102D00007047002001E001C1121F002AFBD170476B
:102D1000FFB591B00F460546002606E025280AD0EB
:102D2000149A139990476D1C761C28780028F5D1C9
:102D3000304615B0F0BD002400940121F34A0294FE
:102D400000E004436D1C2B780846203B984010425D
:102D5000F7D128782A280ED0022128780246303A66
:102D6000092A15D8009A0A235A43303A80180C438E
:102D70006D1C0090F1E701CF0090002805DA0120DA
:102D800040030443009840420090022004436D1C1D
:102D900028782E2815D10420044368786D1C2A2831
:102DA0000AD101CF6D1C02900BE002990A22514317
:102DB000303940186D1C02902878014630390929B5
:102DC000F3D928786C2810D006DC4C281AD0682853
:102DD0000ED06A2817D104E0742813D07A2812D1B3
:102DE00010E00120400504430CE00121090501E049
:102DF000032109050C436978814203D101200005B4
:102E000024186D1C6D1C287803906E281ED00CDCD5
:102E1000632831D004DC00288AD0582811D1B2E0D0
:102E200064287BD069280CD178E073282DD004DC8D
:102E30006F2870D0702804D1A7E075286CD078284E
:102E40006BD0149A13999047761C62E06002400F91
:102E5000022807D003280AD0042838680AD0066060
:102E60003F1D56E03868F11706604160F8E73868A2
:102E70000680F5E70670F3E73878694608740020A5
:102E8000487404A80390012003E0386803900020F0
:102E9000C0433F1D61070FD5002101E00199491C86
:102EA000029A0191914213DA8142F7DB019A039968
:102EB000895C0029F2D10BE0002101E00199491C55
:102EC00001918142FADB019A0399895C0029F5D1CD
:102ED00001990098139A401A00902146149B00F023
:102EE0003BF901998019461807E003980399007887
:102EF000491C0391149A139990470198401E019020
:102F0000401CF2D12146149B139A009800F014F94A
:102F100086196D1C09E741E033E034E00A20002106
:102F2000049005916002410F022905D001CFC2171C
:102F30009446032905D007E0FF1DFF08FF0003CFDB
:102F400006E000B2C2179446042902D140B2C1176C
:102F50008C4600226146944506DA0A46002140422A
:102F600091418C462D2102E0210504D52B216A4692
:102F70001176012103E0E10701D02021F7E701915B
:102F800054E00A200BE0102009E0102004900021FA
:102F90000420044308200591029003E0082000214A
:102FA000059104906002410F022905D001CF002253
:102FB0009446032906D006E0FF1DFF08FF0003CF5B
:102FC0008C4603E080B2042900D1C0B200210191F7
:102FD00021072BD50399702906D0049A1021059B4F
:102FE0004A401A4305D00EE040216A46117601217D
:102FF00008E06146014306D030216A461176039904
:10300000517602210191049A0821059B4A401A43F6
:103010000CD16146014301D1610707D530216A46D1
:103020001176012101910299491E029103995829B3
:1030300004D037A103910FA90F910DE039A1F9E751
:103040006146059B049AFFF7D2FD039B8C469B5C6F
:103050000F9A521E0F92137061460143F0D10F98E0
:1030600007A9081A20300390600704D50120000446
:103070008443029801E0012002900399884201DD17
:10308000401A00E0002041180290019809180098A9
:10309000401A0090E00306D42146149B139A00982E
:1030A00000F05AF886190020049008E006A9085C90
:1030B000149A139990470498401C761C0490019927
:1030C0008842F3DBE0030CD52146149B139A009849
:1030D00000F042F8861904E0149A302013999047C2
:1030E000761C0299481E02900029F5DC08E00F9832
:1030F0000F990078491C0F91149A13999047761CE8
:103100000399481E03900029F1DCFBE60928010021
:10311000303132333435363738396162636465664D
:10312000000000003031323334353637383941420F
:103130004344454600000000F8B5044600251E46FD
:103140001746880404D405E039462020B0476D1C9A
:10315000641EF9D52846F8BDFFB50446002581B0A8
:103160001E46C80301D5302700E02027880404D577
:1031700005E038460399B0476D1C641EF9D5284612
:1031800005B0F0BD800600010000120080060002BC
:10319000000004000005020000000000000900001B
:1031A00000000000010B0000000000000201000010
:1031B00000000000210A000000000000810600223B
:1031C00000004100A006002900000900FC310000B9
:1031D0000000002020020000F22C00001C3400003F
:1031E0002002002078000000F22C0000943400003F
:1031F0009802002030030000022D0000804A0020C9
:10320000917A57250B077E49A8264031002B05DB14
:103210000D700E70937A0824234393720D700E7014
:1032200005231381764F20373B8803246402A34390
:103230003B80937A10242343937200220A70012367
:10324000BC79E40701D00020FAE77D242401401C6A
:10325000A042F5D90D700E708B710A70F0E770B551
:10326000674D2035A87B664940318C7B032214438F
:103270002A8B644B9A4202D980088000401C572256
:103280000A70A8220A705E4AD37BF7263340D373B4
:1032900000232B71A8738C73052010810B705A4882
:1032A000026904242243026130BF0B70012000F048
:1032B000AFF870BDF0B5524A2032917B5048403093
:1032C000877B0323128B1F434E4B9A4202D98908F6
:1032D0008900491C57240470A8250570484EF27BCC
:1032E00008231A43F273464A002320321371917364
:1032F000877305213181037043490E6904273E43DA
:103300000E6130BF0370047005700121517111719D
:10331000037000BF00BF047005700D2111710370B0
:10332000F0BDF0B5364B20339A7B354940318E7B6A
:10333000032426431C8B334DAC4202D992089200E1
:10334000521C57240C70A8250D70304F384318803C
:10335000002008700C700D7018719A738E73284ECF
:10336000052232810870284A166904273E431661F7
:1033700030BF08700C700D7001225A711A710870FC
:1033800000BF00BF0C700D700D221A710870F0BDE7
:10339000F0B51B4B20339A7B194940318E7B0324B7
:1033A00026431C8B174DAC4202D992089200521C46
:1033B00057240C70A8250D7009273F03C0191880E9
:1033C000002008700C700D7018719A738E730C4E7B
:1033D0000522328108700C4A166904273E431661A3
:1033E00030BF08700C700D7001225A711A7108708C
:1033F00000BF00BF0C700D700D221A710870F0BD77
:1034000000100040FF3F000000ED00E004900000CD
:1034100003B40148019001BDD71600000000000070
:10342000000000000000000000000000000000009C
:10343000000000000000000000000000000000008C
:10344000000000000000000000000000000000007C
:10345000000000000000000000000000000000006C
:10346000000000000000000000000000000000005C
:10347000000000000000000000000000000000004C
:10348000000000000000000000000000000000003C
:043490000000000038
:040000050000009166
:00000001FF
