:020000040000FA
:1000000000800020510D0000010000205B0D000069
:1000100000000000000000000000000000000000E0
:100020000000000000000000000000005B0D000068
:1000300000000000000000005D0D00005F0D0000EA
:10004000610D0000610D0000610D0000610D0000F8
:10005000610D00000B1D0000610D0000610D00002E
:10006000610D0000610D0000610D0000610D0000D8
:10007000B11D0000610D0000610D0000610D000068
:10008000610D0000610D0000610D0000610D0000B8
:100090000348854601F06EFF00480047C507000091
:1000A0000080002010B50A460146002000F03BFE0B
:1000B00010BD08B5694608700020487002216846E6
:1000C000FFF7F0FF08BDFEB5FB4E0C463078090483
:1000D00008D513F0F3FE002801D013F0C7FE01206D
:1000E000C00321E0F54DE1070CD0F34A6C32114614
:1000F000443903F063FF2A460221307814F0BAF83D
:10010000012011E0A10711D52A46022114F0B2F80E
:100110006946032000F0F2FC002804D16A46082159
:10012000032000F0BCFC02206040FEBD600723D528
:100130007269F16850024118E1A009F0A5FF7069E9
:10014000F1684002401801F0B9FB0546042027463B
:100150004740002D04D02846FFF7ABFF3846FEBDD0
:100160007069401C70613169884203D3D9A009F0DD
:100170008BFFF0E72046FEBD0020FEBD70B588B0C5
:10018000D94809F0F7FDCC4D012428706946CB48C9
:100190000C706A462146E33803F044FFC7482A46FC
:1001A00038321F21E13803F03DFFC4482A4620328F
:1001B0000721E23803F036FF2A4657321521002086
:1001C00005F0A6FBA0263146032004F0D1FB314602
:1001D000042004F0CDFB0020694600900C710C72E5
:1001E0000873B6480C746A4604211F3003F0F8FA0D
:1001F000012101AA880203F0F3FAB04802AA012102
:10020000193003F0EDFAAD4803AA01211A3003F0CA
:10021000E7FAAA4804AA01211D3003F0E1FAA61E5C
:10022000304605F0CBFA304604F080FC00F01CFBB1
:10023000304600F015FC304600F006FD69460C74AF
:100240000220087503200876A8A003C80090019139
:10025000A8A003C80391029004AA0121002000F085
:100260001EFC012105AA084600F019FC06AA01217E
:10027000022000F014FC6A460821032000F00FFC65
:1002800002AA0521042000F00AFC2846183000F0DC
:10029000FDFB2846303000F0E4FC0121287813F003
:1002A00097FE08B070BD13460A4610B5014693A0EC
:1002B00009F0EAFE10BD7CB50C46030009F00CFF06
:1002C000071D050720091E2B1D0091A024E094A006
:1002D00022E0E58996A009F0D7FE0C2D0DD998A053
:1002E00009F0D2FE7449754809780191009060893F
:1002F00000230C22062103F0EDFC7CBD94A00BE052
:1003000001206946087001466C486A46E33803F0EC
:1003100089FE96A000E099A009F0B6FE7CBD08B564
:10032000002809D0022806D197A009F0ADFE694641
:10033000022000F0E3FB08BD9AA009F0A5FE694683
:100340000020F6E7FE20B4E6F8B507467D26F60263
:1003500000209B4C01256D02315C2154401C80B271
:10036000A842F9D3304601F0A9FA27702A469449E9
:10037000304601F089FB317892A009F085FEF8BD86
:1003800000209749C04308609649002008617047E3
:1003900049490068C8610047F0B5934E85B03146C1
:1003A0004A788B78C9783078090219438038002759
:1003B0008E4C8900404D030009F08EFE050449650E
:1003C0007C7B7A006A608AA0A96009F05DFE3A49E8
:1003D00000204A68960810E08349830059184F7935
:1003E0000D793F023D438F79C9793F043D430906AA
:1003F0000D437D491831CD50401C8642ECD8207801
:1004000001282D480AD080680121831849028B42B7
:1004100015D8754B00212833734C0CE0724992B209
:100420001831806801F030FB05B0F0BD6518461842
:100430002D799D55491C9142F8D3002004E06A496A
:1004400092B2183101F020FBFFF733FEECE7A96010
:10045000727930791202024328460C3086C06F70E0
:100460006AA009F011FE2078022807D12869401EF1
:100470002861E868FF30FF300230E8600421287806
:1004800013F0A6FDD0E76A6068A0A96009F0FCFD42
:100490002078AA68012809D0696801205318400211
:1004A000834204D8504B00202833E6E0CCE0E7E05C
:1004B0002CE117E1F1E0000020020020E803000039
:1004C00045524153453A25303878206E756D3A25AE
:1004D000640D0A00455241534520436F6D706C65B1
:1004E00074650D0A00000000C7000000303132338F
:1004F000343536370102030405000000757064616D
:100500007465202564202564202564200A000000ED
:10051000496E697469616C697A65642E2E0A0000FF
:100520004164766572746973696E672E2E0A0000E5
:10053000436F6E6E65637465642E2E200A000000A2
:1005400053656E64205570646174650D0A00000087
:10055000436F6E6E65637465642041647665727482
:100560006973696E672E2E0A000000004469736388
:100570006F6E6E65637465642E2E0A004572726F2D
:10058000722E2E0A0000000070726F66696C652082
:100590004368616E676543422043484152332E2EC3
:1005A0000A00000070726F66696C65204368616EB6
:1005B000676543422043484152312E2E0A00000015
:1005C000D80A0020537769746368496D616765468E
:1005D0006C61673A2025303278200D0A0000000057
:1005E00080E100E000E000E0B00800209802002078
:1005F0004941505F50524F4D3A2025303878206C99
:10060000656E3A2564200D0A000000004941505FE4
:1006100045524153452073746172743A25303878DD
:10062000206E756D3A25640D0A0000004941505F47
:100630005645524946593A2025303878206C656E27
:100640003A2564200D0A00000020696805E034188E
:10065000135C2479A34202D1401C8842F7D388421C
:1006600019D10021687808436870EDE6141837182E
:100670001C5D3F79BC42F2D1401C8842F6D3EEE7C4
:10068000002005E03418135C2479A342E7D1401C14
:100690008842F7D3E3E7FF21E4E724A009F0F4FC64
:1006A0002078012814D00120FFF74EFEFFF768FEE6
:1006B000002001F003F9012252021F49002001F03D
:1006C000E3F90A2001F072F80420FFF761FEABE6BF
:1006D0000220FFF739FEFFF753FE0A2001F066F80B
:1006E0001648F2E716A009F0CFFC2078694608709A
:1006F0004F70F42088700120C8700F714F71022074
:10070000887114216846FFF7CDFC8DE6FE209BE63C
:1007100010B50EA009F0B8FC10BD074810B5283878
:1007200013F092FAFFF738FE10BD00004941505F08
:10073000454E44200D0A0000D808002004F40100B2
:100740004941505F494E464F200D0A004F54412009
:1007500053656E6420436F6D70200D0A0000000029
:1007600010B57D20C002007829490128087003D007
:10077000022801D001200870C1B226A009F084FC33
:1007800010BD70B50020446821480078022818D1B7
:100790007D239B029C4214D20020234901256D0237
:1007A0001A5C0A54401CA842FAD3002001F086F8D3
:1007B0002A461D49002001F067F921461BA009F0D7
:1007C00063FC70BD0121881E00F016FE0121224845
:1007D00000F037FE21498A6A481502438A620321E4
:1007E00000F00AFE01F00FF81D491EA009F04CFCB4
:1007F000FFF7B6FFFFF7C5FF01F0F7F901F075FA53
:1008000003F0F8FAFFF7BAFC09F0D2FAFCE70000AF
:1008100098020020496D61676520466C616720255C
:100820003032780A00000000D80C0020496D616762
:10083000654220766563746F727320656E74727999
:1008400020636F707920636F6D706C65746520250F
:10085000303878200A000000FFF3FFFF80100040CE
:100860009444010025730A0010B56E4B1022132129
:100870006D4804F077FB10BD10B500241346002826
:1008800002D00224204610BD67480A46194609389E
:1008900013F0DAF9F6E770B50D460024030009F00D
:1008A0001BFC09060A1014181C2024282C005E4981
:1008B0000822093901E05D490D22284613F0C4F9E8
:1008C0001CE05A490E220D31F7E7584912221B311C
:1008D000F3E7564912222D31EFE7544912223F31F6
:1008E000EBE7524912225131E7E750490E226331BA
:1008F000E3E74D4907221039DFE70224204670BDA7
:10090000F8B5496894464A78097817020F43069863
:10091000474A11210025079CBE1A091A974244D064
:1009200009DC444ABA1813D0012A1DD0022A26D065
:10093000032A08D12FE0012E41D0022E49D0032EE8
:1009400051D0292E5BD0002018800A252846F8BDFA
:10095000082856D20821091AA14200D80C4632496B
:10096000A2B21A80093957E00C284AD20C21091A80
:10097000A14200D80C46A2B21A802C494CE00D28A6
:100980003FD20D21091AA14200D80C462749A2B234
:100990001A800D3140E0112833D2A14200D80C4614
:1009A0002249A2B21A801B3136E0112829D2A14275
:1009B00000D80C461D49A2B21A802D312CE0112816
:1009C0001FD2A14200D80C461849A2B21A803F316A
:1009D00022E0112815D2A14200D80C461349A2B238
:1009E0001A80513118E00E280BD20E21091AA142AB
:1009F00000D80C460D49A2B21A8063310CE00728DA
:100A000001D30725A2E70721091AA14200D80C4605
:100A10000549A2B21A8010390918604613F014F97A
:100A200094E70000DC030020AC0200200044010039
:100A3000272A0000DDD5FFFF10B504467A4884421E
:100A40000DD0012907D0022909D1012120460EF03D
:100A5000B3FE002803D17549204604F0B1F810BD5B
:100A600070B50546704800247049401C04F0A8F891
:100A70006F480EF06DFEE80706D06E4B1022112174
:100A80006D4804F06FFA0446204670BD002804D07B
:100A9000694910394860002070471120704770B5CF
:100AA00015460246644800241038130009F014FB70
:100AB0000504090E13182300012913D129780170A8
:100AC0001AE001290ED12978417015E0012909D1D8
:100AD0002978817010E0012904D12978C1700BE0D8
:100AE000052901D0182407E0534805222946083873
:100AF00013F0AAF800E00224204670BD70B50C4641
:100B000001464D48002510380B0009F0E5FA0504B0
:100B100006090B0D1400007800E0407820700BE00F
:100B20008078FBE7C078F9E7434905220839204679
:100B300013F08AF800E00225284670BDF8B5154686
:100B40000A7A00240698D20601D50820F8BD0028AC
:100B500001D00B20F8BD08780022022803D01A80AB
:100B600001242046F8BD4868467807783002334EA5
:100B70003843801908D0012806D0032804D004285F
:100B800008D01A800A24ECE701201880C868007891
:100B90002870E6E7052018800246C968284613F049
:100BA00053F8DEE7FEB50D7A0024089EAD0601D5A8
:100BB0000820FEBD0D78022D01D001242AE04D68E9
:100BC0006F782D783F022F431D4D7D1924D01D488D
:100BD000281803D0022801D00A241BE0002E01D0DF
:100BE0000B2417E0012B01D00D2413E0C868127804
:100BF0000270C86810491039884201D1002000E015
:100C000002200D4910394968002903D009680029DC
:100C100000D088472046FEBD01240096019404F0D0
:100C200035F80446F6E70000FEFF0000D82E00204D
:100C3000390A000010050020000400201F00FFFFFB
:100C4000FED6FFFF2129FFFF014610B50020C9078E
:100C500006D03C4B102218460421403804F082F99B
:100C600010BD002804D0374948394860002070473B
:100C70001120704770B5104600240A782546022AD4
:100C800003D01D800124204670BD49684A780E7843
:100C900011022D4A3143D1421D8012D1294E483EC6
:100CA0003278002AEFD01A80284912F0CDFF357033
:100CB00070680028E7D001680029E4D00020884748
:100CC000E1E70A24DFE770B51E4D08780024483DAF
:100CD000022811D001246A78002A0BD06868002805
:100CE00008D04368002B05D01849143100209847DC
:100CF00000206870204670BD486841780678080278
:100D000011493043C84205D11048DBB200216B7055
:100D1000143005E00A24DEE7565C4654491C89B2CB
:100D20009942F9D3D7E710B50024142A01D9FE203F
:100D300010BD044848380270044812F085FF204670
:100D400010BD0000C00500201F01FFFFE82E00209D
:100D50000448804704480047FEE7FEE7FEE7FEE759
:100D6000FEE700006D0D00009100000010B5FF4887
:100D700057210170A8210170FC4A8821403A118155
:100D8000002101700A2000F001FD012000F04BFC61
:100D900010BDF0B5F54EF54D04275722A824203E8E
:100DA000403DF249030009F097F90D080E161B1F8C
:100DB00024282C32373C41462F000A700C70F07BFF
:100DC000FB22104003E00A700C70F07B3843F07394
:100DD000C820288118E00A700C705120C000F8E784
:100DE0000A700C70E248F4E70A700C7081208000F1
:100DF000EFE70A700C708820EBE70A700C70022095
:100E0000E7E70A700C702F8100200870F0BD0A70AF
:100E10000C7093208000DCE70A700C70D4484D30D1
:100E2000D7E70A700C7095208000D2E70A700C702A
:100E30004B20C000CDE70A700C70CD485C30C8E78D
:100E4000CA4810B540380089C1B20B069A0FC9488C
:100E5000022A05D0012A04D09A0F06D07D20000274
:100E600010BDC906C90EC44801E0C906C90E00F08C
:100E7000C7FF10BDBD4A57211170A8211170BB4991
:100E800040394B150028088904D0184308810020F8
:100E9000107070479843F9E7B44A57211170A821A0
:100EA0001170B24920390028C87B05D004231843AB
:100EB000C873002010707047FB231840F8E7AB4957
:100EC0008A7B800792089200800F024357200870A7
:100ED000A82008708A73002008707047A3498A7B95
:100EE0008F231A400001024357200870A820087081
:100EF0008A730020087070479C4A203A917B8007D3
:100F000089088900800F0143984857230370A8235C
:100F100003709173002101707047944A203A917BCD
:100F20000907090F00010143904857230370A823C4
:100F300003709173002101707047FEB58B48002744
:100F400040380089C0B201068A0F022A4CD0012421
:100F5000A403012A4CD0890F56D00524002000900C
:100F60002005000D019081482038848900267F49A2
:100F7000572230460A70A8220A7001238B747B49DD
:100F800057220A70A8220A70784A203A94810022D7
:100F90000A708A7C9207FCD50A8A8A7C9207FCD464
:100FA0008A7C9207FCD5098A019A7F1C891A0DB2A6
:100FB000FFB2002D37D02946714305D5012834D022
:100FC000411C32D0002830D02E4602943046009981
:100FD00000F02CFF00B2211A8CB202998C4249D148
:100FE000002D45DD641C44E00220644CC043B6E79C
:100FF000C506ED0E2946624800F002FF0019C40B39
:101000002320C043401B09E0C506ED0E29465D487C
:1010100000F0F6FE0019C40BA81C4042294600F05F
:1010200005FF00B29BE70020FEBD002E03DA761E0E
:10103000F04306B202E06D1EE84305B2B5420FDD93
:101040004A4857210170A8210170484A0299203A64
:101050009181002101707D20C0007043019903E05F
:101060007D20C0006843114600F0E0FE80B2FEBD66
:10107000641EA4B2142F82D3FF20FEBDFFB581B041
:101080000C460746054600261AE0FF219131681EEE
:1010900000F0CCFE00290AD06421681E00F0C6FED4
:1010A000002907D00320A9078007C14202D1FF20F1
:1010B0006F3001E0FF206E3080196D1E86B2ADB238
:1010C00031488542E1D80025012C25D9032C05D0D3
:1010D000A01E062816DDE00718D115E0FF2191318A
:1010E000384600F08DFE00290AD06421384600F011
:1010F00087FE002901D0B80702D000201C3006E08E
:101100000120FBE7E00701D01F2000E01E2080192E
:10111000641E86B2A4B2D7E7039818213018401E87
:1011200084B2049800F06CFEE120C00041430A98AC
:101130001E22504309180B984008081881B20B98DA
:10114000C00701D00120C0030A0402430749572009
:101150000870A8200870054E403E7463034820388C
:10116000437C80242343437472630FE040100040AB
:10117000020200000048E80100389C1C1313000024
:1011800000180D8F00688909E4070000427C4023A5
:101190001A4342740D7005B0F0BDFFB50746934881
:1011A00083B0C06B0E4684049048A40C2030418B61
:1011B000008B01224900D203904201D3012000E0BC
:1011C0000020081800908A48388010E00199002912
:1011D00025D06421284600F013FE002901D0A8077D
:1011E0001DD0FF206E30201A6D1C84B23D803D88DA
:1011F000FF219131284600F003FE0191002911D012
:101200006421284600F0FCFD002901D0A80709D080
:10121000FF206E30A042D9D90020308049E0FF2065
:101220006F30E0E7FF206F30F4E73588012D04D000
:10123000062D18D9E8071AD117E03888FF21913117
:10124000019000F0DDFD00290BD06421019800F031
:10125000D7FD002902D00198800702D000201C3061
:1012600006E00120FBE7E80701D01F2000E01E2078
:10127000201A84B26D1CA8B23080012804D0062840
:1012800017D9C0071AD117E03888FF2105469131D8
:1012900000F0B6FD00290AD06421284600F0B0FD18
:1012A000002901D0A80702D000201C3007E001204F
:1012B000FBE73078C00701D01F2000E01E20A042CD
:1012C000B3D93088641C401C30800598E12104802B
:1012D0000901009800F094FD069A108008463C2110
:1012E00000F08EFD0C9908803C21009800F088FDEC
:1012F0000D98018007B0F0BD3C49572240310A707B
:10130000A8220A70394A506338482030427C402372
:101310001A4342740020087070473449886B8A6B06
:101320008242FBD17047314A10B5572140321170CB
:10133000A82111702D4920314B7CE82423404B74A7
:101340004B7C1024204303434B740020107010BDCD
:1013500000B50346FFF7E1FF2649C018884201D9CE
:10136000494240180104090C02D001210904401827
:101370001E49572240310A70A8220A701B4A506346
:101380001A482030427C20231A43427400200870FF
:1013900000BD0021002802D0012802D002E0202157
:1013A00000E010211148572240300270A82202703C
:1013B0000E4A2032537C8B435374002101707047D6
:1013C0000A4920310028087C02D04021084070479B
:1013D000C009C001704705492031002804D0012808
:1013E00001D11020087470472020FBE70010004056
:1013F000E40700000000C0A800B5524A0B0008F046
:101400006BFE0504071016191F00516B81430AE09B
:10141000516B81435163116B01431163116A814325
:101420000DE0516B01435163116B8143F5E7516B43
:10143000814301E0516B01435163116A0143116221
:1014400000BD404A00B540320B0008F045FE0504DF
:10145000071016191F00516981430AE05169814341
:101460005161116901431161116881430DE05169B6
:101470000143516111698143F5E75169814301E0FD
:1014800051690143516111680143116000BD2D4A4A
:10149000002906D0012907D0022908D0032913D139
:1014A0000CE0918A814304E0918A814308E0918AAB
:1014B00001439182D16A0143D16205E0918A0143DF
:1014C0009182916A014391629083118A0143118252
:1014D00070471C4B1B4A4033002906D0012907D016
:1014E000022908D0032913D10CE0D18A814304E0FA
:1014F000D18A814308E0D18A0143D182D96801436E
:10150000D96005E0D18A0143D1829968014399608D
:10151000D083518A0143518270470A4A803A002899
:10152000108B01D0084300E0884310837047054AC0
:10153000803A0028508B01D0084300E08843508354
:101540007047000080100040F8B5624D5726614C8E
:10155000A827203D00282670277028880ED0211546
:10156000084328800A2000F011F926702770288887
:1015700061150843288000202070F8BD032149022E
:101580008843F7E7F0B5534C57261C228B07514D83
:10159000A8270A409B0F403C00282E702F7010D0C7
:1015A000080603D5E07BFD210840E073A07A1043D4
:1015B000A07248482038C17B1943C17300202870AD
:1015C000F0BD080603D5E07B02210843E073A07A52
:1015D0009043A0723F482038C17B9943EDE730B576
:1015E0003C4C57233B4AA825403C002813701570FB
:1015F000E06804D08843E0600020107030BD0843EC
:10160000F9E730B5334C5723324AA825403C00282F
:1016100013701570A07B04D00843A07300201070D5
:1016200030BD8843F9E7F8B52A4D5726294C0021EB
:10163000A827203D0028267027700ED00120687151
:10164000287100202070012000F0A0F8267027707B
:101650000D20287100202070F8BD29712170F8BD7F
:101660001D48016904229143016130BF7047194B45
:1016700057241C70A8251D7016494039887B082204
:10168000104388730920134E0003203E308000274A
:101690001F70886B8A6B8242FBD1104A0A309042DD
:1016A00001D9524280180204120C02D00122120405
:1016B0008018302232741C701D7048632F207074A3
:1016C0001F701C701D70052008811F7040BF20BF57
:1016D00020BFFEE74010004000ED00E00000C0A881
:1016E0003C49062805D0497901228240114008462C
:1016F0007047087808210840704736485721017024
:10170000A8210170817901221143817100210170AA
:10171000704731490968016000202F49C04380317A
:10172000086070472C49086070472C4880697047F2
:10173000284957220A70A8220A700028887905D003
:10174000042210438871002008707047FB2210406B
:10175000F8E7204957220A70A8220A7000288879E1
:1017600005D0022210438871002008707047FD22C6
:101770001040F8E7174857210170A82101708179BE
:1017800010221143817100210170704700220AE08C
:10179000022101E000BF00BF0B46491E89B2002BA9
:1017A000F8D1521C92B28242F2D3704770B5002435
:1017B0007D260546F60004E03046FFF7E7FF641C8F
:1017C000A4B2AC42F8D370BD0549CA7A082AFCD04D
:1017D000087270474010004000E100E000E000E0C7
:1017E0000034004010B50446FFF72AFB0A214843A5
:1017F000C008214600F004FB0A21401D00F000FB58
:101800002249888110BD10B5E1204002FFF7EAFFB0
:101810001E48872181700321C17040214170012140
:10182000817310BD19498A789206920E8001024395
:101830008A707047154A0028507806D008435070C7
:101840001078082108431070704788435070704723
:101850000E498020487070470C4A07E0D37A082B65
:1018600004D003781372491E89B2401C0029F5D1B7
:10187000704701460020054A04E0137A401C0B70B3
:1018800080B2491C937A002BF7D170470034004096
:10189000C14A002113780370491CC9B2401C521C74
:1018A0000829F7D37047BC4A002113780370491CFC
:1018B000C9B2401C521C0629F7D37047F8B504463C
:1018C0000025C00501D00120F8BD1120694608702F
:1018D000B24E002030707070B14F8020787208785E
:1018E00011300870AF4800790007000F0D2802D0B2
:1018F0000120FFF798FE6946087811300870A94862
:101900008179890701D00220F8BD6A46117811312A
:1019100011708179890704D11178442901D15721A7
:1019200031701178113111708079800707D11078EA
:10193000552804D13078572801D1A820707010782C
:1019400011301070307857280ED17178A8290BD13A
:101950001178662908D17C607D21C9028C4201D2B0
:10196000882100E084217972117811311170572893
:1019700009D17078A82806D11078772803D1A6203D
:1019800038727889C5B20020107030707070802075
:101990007872402D01D00320F8BD0020F8BDFEB5BF
:1019A000054600260191800701D00120FEBD1120CF
:1019B00069460870794F002038707870784C802024
:1019C0006072087811300870764800790007000FBF
:1019D0000D2802D00120FFF726FE69460878113055
:1019E000087070498879800701D00220FEBD6A46E0
:1019F0001078113010708879C00704D1107844280D
:101A000001D1572038701078113010708879C007D4
:101A100007D11078552804D13878572801D1A8204B
:101A20007870107811301070387857280DD1797887
:101A3000A8290AD11178662907D17D22D2029542C0
:101A400001D2882100E0842161726A461178113147
:101A5000117057280CD17878A82809D110787728E8
:101A600006D16560019820609A2020726089C6B214
:101A7000002010703870787080206072402E01D085
:101A80000320FEBD0020FEBDF7B50446002682B04F
:101A90000D46800702D0012005B0F0BD1120694637
:101AA00008703E480021017041703D4F80207872DF
:101AB00069460878113008703A4800790007000F2D
:101AC0000D2802D00120FFF7AEFD694608781130DD
:101AD000087034498879800701D00220DCE76A4623
:101AE0001078113010708879C00705D1107844281B
:101AF00002D12A48572202706A46107811301070BD
:101B00008879C00708D11078552805D12348017875
:101B1000572901D1A82141701078113010701F4A47
:101B2000107857280ED15178A8290BD16946097829
:101B3000662907D17D23DB029C4201D2882100E087
:101B4000842179726B46197811311970572816D192
:101B50005078A82813D11878772810D100209A231C
:101B60000AE07C6002CD39603B727989241DCEB2D7
:101B7000402E04D1001D80B204998842F1D3002088
:101B8000694608701070507080207872402E01D025
:101B9000032081E700207FE708060400DA05002023
:101BA000001800402010004010B5FFF7C6F90228C9
:101BB00001D9FFF7C2F910BD30B55649CC7E0B7E76
:101BC0004A7EC87E80252843C8760F2008762120CB
:101BD0004876887E012528438876887EC007FCD118
:101BE000888BCC760B764A7630BD30B58DB012221C
:101BF00049A14E4812F01AF8002841D04548572113
:101C00000170A82101705121424AC900403A118156
:101C1000002101704748464A4261474A0724D36978
:101C20001B021B0A45042B43D361816104610169D6
:101C300002229143016134220021684612F0FAF831
:101C40003E48009001204003694688801B20C873ED
:101C5000052008740120487414208874FB20800239
:101C600002900D2008773648089036480A900846BA
:101C700001F0BEF8010007D033A008F005FAFEE736
:101C800039A008F001FAFEE70DB030BD70B50C4682
:101C900009040AD512F012F9002801D012F0E6F872
:101CA00001212046C903484070BDE00702D0012051
:101CB000604070BD314DA00405D501F015F9012635
:101CC0002F4A760308E060040DD52EA008F0DCF959
:101CD0007D22D2010126B6033146287812F0CAFAD5
:101CE0002046704070BD002070BD10B5264808F039
:101CF00041F8224C207000F063F862B6204A0121BE
:101D00004903207812F0B6FA10BD10B500F0B4FF08
:101D100010BD00004010004043483537785F424C0A
:101D2000455F4C49425F56312E3700009444010014
:101D3000FEFFFF0000E000E004ED00E0D80E002010
:101D40002B170000B91B00004C494220696E6974D2
:101D5000206572726F7220636F64653A2025782067
:101D60002E2E2E0A00000000686561642066696CF2
:101D700065206572726F722E2E2E0A00DC0500201F
:101D800000EE02002A2000008D1C00000104090C56
:101D900002D0012109044018164957220A70A822CE
:101DA0000A7014494039486313490020086070479D
:101DB00010493020203908740F490120086070470D
:101DC0001CB50C4857210170A82101700949203920
:101DD000CA7B07231A43CA730021017000910B4686
:101DE0000122019111460548FFF748F9002008F04B
:101DF000F5F81CBD40100040E0050020E40700009D
:101E000030B50B46014600202022012409E00D4692
:101E1000D5409D4205D31D469540491B254695401A
:101E200040191546521E002DF1DC30BD70B500245E
:101E30002546002801DA01244042002901DA012563
:101E40004942FFF7DDFFAC4200D04042002C00D0F9
:101E5000494270BDF0B51FB486B0002000900190DB
:101E600002900698069980B204900798090C020423
:101E70000014114307900027089D099806913E46DB
:101E80003C4603900398A9B20204000C0390049806
:101E90002D0C154348430021224600F018F8C719BD
:101EA000714110340E46402CECDB3846029A00F0AB
:101EB0000EF8009A019B80180090594102980191F8
:101EC000103002904028CCDB00980BB0F0BD10B56C
:101ED000202A04DB0146203A9140002010BD9140A9
:101EE00020239C1A0346E3401943904010BD03464B
:101EF0000B439B0703D009E008C9121F08C0042A3E
:101F0000FAD203E00B780370401C491C521EF9D230
:101F10007047F0B51FB40646002082B00546402445
:101F2000019100901BE0019922460F46304600F0D7
:101F300033F8049A059B801A994110D3104619462C
:101F40002246FFF7C4FF361A8F410197224601202F
:101F50000021009FFFF7BBFF38184D41009020463D
:101F6000641E0028DFDC019B00982946324607B03A
:101F7000F0BD0000064C0125064E05E0E36807CCE5
:101F80002B430C3C98471034B442F7D3FEF784F847
:101F90008C450100BC45010010B5202A04DB084631
:101FA000203AD040002110BD0B46D340D040202421
:101FB000A21A91400843194610BD70B58C180578D7
:101FC000401C6B075B0F01D10378401C2A1106D11E
:101FD0000278401C03E006780E70401C491C5B1E12
:101FE000F9D12B0705D40023521E0DD40B70491CC8
:101FF000FAE70378401CCB1A921C03E01D780D70A1
:10200000491C5B1C521EF9D5A142D8D3002070BDDB
:1020100010B5124C2068C0051FD503202060002099
:102020000821401C2268C0B20A4322600EE02268E8
:10203000920510D4222807D90948026B002A0AD039
:1020400001210320904706E0401CC0B22268D2055F
:10205000EDD50028E5D10020206010BD80C30040F0
:102060002C2F002070B514460D460646FFF7D0FF12
:102070002D480368196806229143196031689962F6
:102080007168D962B1681963F16859632968996107
:102090006968D961A9681962E968596259680222B8
:1020A000914359605D6801210D435D601D680D43DA
:1020B0001D6000E000BF59688907FBD5596891434E
:1020C00059609969217001688969090A617001681C
:1020D0008969090CA17001688969090EE1700068BD
:1020E000C1692171C169090A6171C169090CA171D4
:1020F000C169090EE171016A2172016A090A6172FE
:10210000016A090CA172016A090EE172416A217328
:10211000416A090A6173416A090CA173406A000EA1
:10212000E073002070BD00000808002070B50C4668
:102130000546FFF76DFF2848026810682021884394
:10214000E907890E084310608034E06C1061206D4F
:102150005061E0699061206AD061606A1062A06A93
:102160005062E06A9062206BD062606B1063A06B7B
:102170005063E06B9060206CD060D168236C17488E
:10218000994204D0026B002A1ED0202107E0916AF8
:10219000E36A994206D0026B002A15D02121032060
:1021A000904711E0D169236A994204D0026B002A5A
:1021B0000AD02221F3E71169E36C994206D0026B41
:1021C000002A01D02321EAE7012070BD10684021D8
:1021D00008431060002070BD080800202C2F00204C
:1021E00070B50C460546FFF713FF284802681068D3
:1021F00020218843E907890E084310608034606C11
:102200001061A06C5061E0699061206AD061606AE1
:102210001062A06A5062E06A9062206BD062606BCC
:102220001063A06B5063E06B9060206CD060D1684D
:10223000236C1748994204D0026B002A1ED010214B
:1022400007E0916AE36A994206D0026B002A15D032
:1022500011210320904711E0D169236A994204D0EB
:10226000026B002A0AD01221F3E71169636C9942CC
:1022700006D0026B002A01D01321EAE7012070BDCD
:102280001068402108431060002070BD080800203D
:102290002C2F002010B504F0E7FD024903F0ADFB40
:1022A000002010BD0604000008B5002808D0002951
:1022B00006D0002A04D01088002801D0002008BDD4
:1022C0001220694608706A460121034803F091FB19
:1022D0006946087808BD0000350C000008B504F018
:1022E000E7F8694608706A460121034803F081FB5C
:1022F0006946087808BD00002720000008B504F0F2
:1023000021F9694608706A460121034803F071FB10
:102310006946087808BD00001120000008B504F0E7
:1023200059FA694608706A460121034803F061FBC7
:102330006946087808BD00002920000008B504F0AF
:102340004FFA694608706A460121034803F051FBC1
:102350006946087808BD000010200000FEB508AFEF
:1023600070CF6F4670C704F061FA0446024903F06B
:1023700044FB2046FEBD00001320000008B504F019
:1023800063FD694608706A460121024803F031FB8B
:10239000002008BD0E20000038B5044604F0DFFF21
:1023A000694608704C70200A88706A46032102480A
:1023B00003F01FFB002038BD1B20000038B5044689
:1023C00004F0E5FF694608704C70200A88706A4680
:1023D0000321024803F00DFB002038BD1A20000045
:1023E0000EB500A8013005F026FB694608706A4664
:1023F0000921024803F0FDFA00200EBD182000005C
:1024000008B500A8013004F02BFF694608706A4641
:102410000421034803F0EDFA6946087808BD00007E
:102420000220000038B5044605F060FB69460870DC
:102430004C70200A88706A460321024803F0D9FADA
:10244000002038BD212000007FB5044608A861C8DF
:10245000009002960195204605F060FB69460873DE
:102460004C73200A887303AA0321034803F0C1FABE
:10247000002004B070BD00002020000008B505F069
:102480004BFE694608706A460121034803F0B1FA21
:102490006946087808BD00002D20000008B505F049
:1024A000D9FE694608706A460121034803F0A1FA83
:1024B0006946087808BD00000820000008B505F04E
:1024C00051FE694608706A460121034803F091FAFB
:1024D0006946087808BD00000A200000F0B585B004
:1024E0000AACF0CC03976F4670C705F0D3FE69467F
:1024F000087404AA0121034803F07BFA6946087CAA
:1025000005B0F0BD0620000008B505F04DFF694696
:1025100008706A460121034803F06BFA694608789F
:1025200008BD00000520000008B505F07BFF6946E6
:1025300008706A460121034803F05BFA694608788F
:1025400008BD00002E20000008B505F081FF694697
:1025500008706A460121034803F04BFA694608787F
:1025600008BD00000C20000008B505F0B3FF694667
:1025700008706A460121034803F03BFA694608786F
:1025800008BD00000920000010B506F00AF8024955
:1025900003F033FA002010BD1920000010B504F03C
:1025A00036FF10BD1CB500A8013005F053FA69468E
:1025B00008706A460721034803F01BFA6946087849
:1025C0001CBD00000910000010B505F0FDFC10BD99
:1025D0000A7802708A7842704A88120A82700979F1
:1025E000C170042070470A7802700988090A417096
:1025F0000220704708888004000C70478A780270B7
:1026000088780128088804D012214843401C80B2F1
:1026100070478000FAE70A7802700A88120A42704E
:102620004888801C80B270470A7802700A88120AB3
:1026300042708A7882704A88120AC2708888001DA7
:1026400080B27047088870478A7802700888498885
:102650004843401C80B270478A78027008884988D5
:102660004843401C80B2704708887047088870470C
:102670007FB515460446022901D0102903D1022B4B
:1026800004D0102B02D0002004B070BD994202D1BA
:102690000A46294607E01029694607D000F00EF8DF
:1026A00010226946284611F0C1FAEDE7104600F005
:1026B00005F8102269462046F5E7000070B50C4683
:1026C00005000CD0002C0AD010220649204611F03B
:1026D000BBFA2878207368786073012070BD0020F1
:1026E00070BD00003C45010008B500220B46009279
:1026F0000122024907F08AFF08BD0000D125000031
:1027000008B50A88172A07D300220B460092032235
:10271000024907F07BFF08BD022008BDE725000045
:1027200008B500210B461922009107F06FFF08BD84
:1027300038B5054608880C4600280DD0606800288A
:102740000AD0012111F02EFA0090234607220349F6
:10275000284607F05BFF38BD022038BDF525000094
:1027600038B5054688780C46012801D0022810D1DA
:10277000208800280DD0606800280AD0022111F0BE
:1027800011FA0090234605220349284607F03EFF30
:1027900038BD022038BD0000FD250000064910B5F7
:1027A000884202D103F0FEFC10BD0CF055FF00285A
:1027B000FAD1172010BD0000FEFF000038B5054615
:1027C0004A6800200C46002A03D00321104611F06D
:1027D000E9F9009023461D220249284607F0D2FE5F
:1027E00038BD00001726000002480021016041604A
:1027F000704700002C0800200098022B01D0042014
:102800007047517812780902114301800020704707
:102810000098012B01D0042070471178017000202E
:10282000704770B5049C1E461546062B1BD368786E
:102830002978000208432080E878A978000208433C
:102840006080022020710246291D601D11F0FCF9F4
:10285000B01F2081062E03D0AD1DE560002070BDA5
:102860000020E060FAE7042070BD0098042B01D03E
:102870000420704751781378090219430180D178F8
:10288000927809021143418000207047F8B584898D
:102890000D46002C2BD086683778390601D40020ED
:1028A00010E00D2C23D30C3CA4B2311900914088C8
:1028B00023463246012107F067F9002801D00220A3
:1028C00000E0012079062870C90FBA066970920EDF
:1028D000AA70641E2204120CAA8002D0761CAE607C
:1028E00001E00022AA60022803D1002901D00120C2
:1028F000F8BD0020F8BD10B50298042B14D3517810
:102900001478090221430180D17894780902214387
:102910004180191F8180042B02D0121D826001E0CA
:1029200000218160002010BD042010BD0098042B00
:1029300001D00420704751781378090219430180AF
:10294000D17892780902114341800020704710B578
:1029500002981146062B03D0142B03D0042010BD7F
:10296000022200E0102202714A780B7812021A4308
:102970000280CA788B7812021A4342800279401D85
:10298000091D11F061F9002010BD0098D90706D18A
:10299000022B04D059088180026000207047042077
:1029A00070470098022B01D00420704751781278AC
:1029B0000902114301800020704710B5029C022BD0
:1029C00011D3207261725078117800020843208080
:1029D000981E6080022B02D0921C626001E00020F1
:1029E0006060002010BD042010BD000038B5054611
:1029F00088680C46002802D0052111F0D3F8009019
:102A0000234617220249284607F000FE38BD000081
:102A10002926000038B5054648680C46002802D033
:102A2000012111F0BFF8009023460D2202492846EB
:102A300007F0ECFD38BD00004526000038B505461E
:102A400008880C4600280DD0606800280AD00221B2
:102A500011F0A8F80090234611220349284607F0F8
:102A6000D5FD38BD022038BD4926000038B50546E1
:102A700008880C4600280DD0606800280AD0022182
:102A800011F090F80090234609220349284607F0E8
:102A9000BDFD38BD022038BD5926000038B50546B9
:102AA00048680C4600280AD0012111F07BF80090FC
:102AB00023460F220349284607F0A8FD38BD02200F
:102AC00038BD00006926000038B505464A68002078
:102AD0000C46002A03D00121104611F063F8009043
:102AE00023460B220249284607F090FD38BD00001E
:102AF0006D26000001490860704700002C08002086
:102B000070B5054608480C46854205D0172C03D3FE
:102B100003F048FBA04201D2012070BD21462846A7
:102B20000CF05AFE70BD0000FEFF000008B5002149
:102B30000B461322009107F069FD08BD04480349C4
:102B4000006801600349C16270470000A5220801C6
:102B50000C080020784E010010B5074C5D2021685C
:102B6000086505F04FFF20680021016503484279A0
:102B7000521C4271C17110BD04060020802F00203C
:102B800070B52C49002048602B4800892B4CC0B2FE
:102B90008109022904D0012908D0810916D026E034
:102BA000D020A0800820E080E8201FE0C506ED0EC0
:102BB0002D2029468001FFF723F9A080294678209F
:102BC000FFF71EF9E08029461D480DE0C506ED0E11
:102BD0002946C020FFF714F9A08029460820FFF7F6
:102BE0000FF9E0802946E820FFF70AF9208116490D
:102BF00014480860164915480860174915480860C8
:102C000017491648086018491648184C08601849B2
:102C100020680122D20208618018486101204871B1
:102C200000F062F9607D002802D11249202008607E
:102C300070BD00000806002000100040602F00203A
:102C4000980D000000C000401008002000C30040A4
:102C50000808002000C200400406002000D0004008
:102C60001408002000C100400C0800202C2F002078
:102C7000802F002000E100E0F8B556480068816828
:102C80000127C9050025544C544E00292EDA8168CD
:102C90003A0291438160207840060CD55048514952
:102CA0000068884206D15049886BE0608A6B904288
:102CB000FAD100E080472078384320706570E079D1
:102CC000062803D043495D2009680865306800285C
:102CD0000AD001690A68406902430A6031680868DD
:102CE000026889680A4302606571A560394B1868FB
:102CF0008168890521D58168012252029143816052
:102D0000A0783843A070E57038480068C16A890827
:102D10008900891CC1620168D204114301603068D6
:102D200000280AD041680A68806802430A60316856
:102D3000C868026849690A4302601868816889079F
:102D400017D58168022291438160E770A5705D21EB
:102D50000165306800280AD001690A6840690243A9
:102D60000A6031680868026889680A430260657110
:102D7000A56018688168C90715D0816849084900AD
:102D8000816025706770306800280AD041680A6841
:102D9000806802430A603168C868026849690A436A
:102DA00002606571A56018688168C90603D58168ED
:102DB0001022914381608168490703D5816804220C
:102DC000914381608168090703D581680822914396
:102DD0008160F8BD04060020802F00200C06002032
:102DE00000060020FD960000001000400C080020A6
:102DF00070B504460068002828D00121000C490362
:102E0000884223D1A088002820D020460622FF2116
:102E1000163010F0FCFE01281AD0A288002120688C
:102E200011F008F8342200212D4811F003F8342263
:102E300021462B4810F008FF2948062216300021B1
:102E4000054610F0E4FE012804D008E0022070BD21
:102E5000032070BD23490622284610F0F5FE2048C5
:102E60008189002902D1012149028181827B0121CE
:102E7000002A00D18173C27B002A01D11B22C273B8
:102E8000027C002A01D105220274427C002A00D172
:102E90004174817C002901D114218174817F002932
:102EA00001D128218177C17C002908D0827FE17C73
:102EB00092088918C174617F002904D005E0817FE0
:102EC00089082D31F6E702214177806A002803D076
:102ED000804703493431488106F004FF002070BD6B
:102EE0002C2F00200806040010B500F065F803F050
:102EF000C1FA05F021FDFFF721FE0B4C5D20216892
:102F0000086505F031FE06F0EFFB05F0F5FD05F074
:102F100079FD064801214171226800211165C171C6
:102F2000FFF776F810BD000004060020802F002077
:102F300070B50E4B00209989002901D10C49998167
:102F40000E210124A4039A8915462540CD40520440
:102F5000120C0543E8B25604D50BF60F7540154325
:102F6000491EC9B29D810629EDD870BD843100206B
:102F7000FF7F000070B50E4B00205989002901D158
:102F80000C49598108214C015A8915462540CD40EC
:102F900005435200E8B2550A56097540ED07ED0F9A
:102FA0001543491E09065D81090EEDD170BD000073
:102FB00084310020FF0100000A48094900680A69BD
:102FC00002610A69426149698161C16182680121C6
:102FD00049030A438260C2680A43C2607047000026
:102FE000802F00201008002030B5104A0346517A87
:102FF000FD20842454720E4CA568002D07D0A57BBB
:10300000002D04D0A489E51FFF3DFA3D02D0517286
:10301000FF2030BD7D24E402A34205D35360A620E7
:103020001072907A40235840517230BD0018004011
:103030002C2F0020F8B500240F4E274613E0F06B2C
:10304000250128180622FF2110F0F4FEF06B06225D
:103050002818FF21801D10F0EDFEF06B28188781E5
:10306000641C8773E4B2307E8442E8D3002010F001
:10307000C1FF307E7076F8BD6407002070B50C4645
:103080000146012080020A1A00252B48130007F090
:1030900023F820111316181A1D1F21232527292B69
:1030A00032343648393B3D3F434848484848484811
:1030B00048464148007800E04078207039E0807848
:1030C000FBE7C078F9E710221C4910E00079F4E72B
:1030D0004079F2E7006A13E08079EEE7C079ECE727
:1030E000007AEAE7407AE8E71449102210312046D6
:1030F00010F0AAFD1DE0807ADFE7C07ADDE7406AC4
:10310000206016E0007BD8E7407BD6E7807BD4E7E1
:10311000407CD2E7807CD0E707F0EEFFCDE7807DF2
:10312000CBE7192904D2084601F0C4F9208000E059
:103130000225284670BD000064070020AC30002046
:1031400010B5044600F0D4F80248C47508F00EF932
:1031500010BD000064070020FFB58FB006460020B8
:103160000C900D901F460CAA304600F09DFA454D7C
:103170000446287E84425AD2204608F0D7F80646F4
:10318000042F04D0A879022803D0002002E0287878
:10319000F9E7012000903B4632462146119807F09E
:1031A00083FF1422002101A810F044FE20460621CE
:1031B000484300902430C0B201AA102110F078FFDB
:1031C000002813D11022FF2101A810F020FD0028B3
:1031D0000CD1009805AA2530C0B2042110F068FF78
:1031E000F107C90F01AA119801F0DCFB7034E0B2BD
:1031F00006AA182110F05CFF002811D106A808F0DB
:10320000A7F80024A10006A808180188002903D007
:103210008278119801F006FF641CE4B2062CF1D309
:10322000B00706D5E97D119801F0EAFE01E0082F0C
:1032300002D0042F13D021E0A87902281ED1002249
:103240003146119807F06AFEA86A002816D0436834
:10325000002B13D000221146119898470EE02878D1
:1032600002280BD129791198002900D001216A7810
:10327000002A00D00422114301F05AFB002013B0B1
:10328000F0BD000064070020F8B501F0A9F900289E
:103290002BD1164D0026E87C012801D000241CE02B
:1032A00007F076FFEE7400202A7EE96B04E003014C
:1032B0005B18401C9E73C0B29042F8D310E0E86BDC
:1032C00027013818807B012805D1204607F072FFBE
:1032D000E86B38188673641CE4B2287E8442EED30F
:1032E000502010F0A9FE08F041F8F8BD6407002056
:1032F000F8B5354EFF20F07500273776334CF7636D
:10330000A07B30214843422110F0BAFCF063002832
:1033100025D02046807B410040183076002413E001
:10332000F06B250128180622FF2110F083FDF06BB9
:1033300006222818FF21801D10F07CFDF06B281854
:103340008781641C8773E4B2307E8442E8D31F48CF
:103350008068002801D0B77601E08020B076307E0A
:1033600070760124776334707770B770F77010222D
:103370000021174810F05EFD3771772575713762AF
:10338000B471F77112483772777210220021103031
:1033900010F050FDB772F5727762377305207073C5
:1033A0001020B073F77302203074B762F76237638E
:1033B0007774F774347504487475B47505494830EA
:1033C000016005494160F8BD640700202C2F0020F2
:1033D000AC3000207DB6000045B6000010B50649AF
:1033E0000C46483CA162E062E17D182001F0C0FA81
:1033F000E07D01F0B1FD10BDAC07002070B5264D99
:103400000C4608040FD5E87D10F058FD050006D0E5
:1034100008F052F8002802D0284610F027FD0120BD
:10342000C003604070BDA0070BD50021084607F01F
:10343000D7FC02214C40002825D1E87D10F0C8FDC2
:103440001FE0E00721D0686B808808F067F8012151
:103450004C40002817D0A86A00280DD04368002BE4
:103460000AD0686B002280889847A96A686B00229E
:103470004B68808803219847287D10F0F9FD07F0FC
:10348000A1FC204670BD0121D7E7600702D50420CA
:10349000484070BD002070BD640700207FB5044621
:1034A00080787F4D801F030006F016FE0AF4F7F7C0
:1034B000A41306F0F778B9F7A96A2046002907D0C7
:1034C0000C68002CFBD0437B027B4189C01CA047C9
:1034D000E3E060780026002847D1A079C00744D0F7
:1034E000686B002841D110220021684610F0A2FC30
:1034F0006169002903D006226846103107E0A088E0
:103500000BF0D4FF0028E3D0811D0622684610F09E
:103510009BFB69468889A1794907C90F0843694619
:10352000888107F0E9FD297E88420BD1A87D00281B
:1035300001D0FFF77FFD5B48026B002A02D001211A
:103540000820904707F0D8FD297E8842A87E02D146
:103550000121084301E040084000A8762146684662
:1035600007F03EFC002812D01526A86A002855D086
:103570004368002B52D06278A08801219847002E22
:103580004CD0A96AA0884B683246032173E002211F
:10359000E87D10F01DFD002004B070BD60780628A5
:1035A00017D1A0880BF082FF060012D0287C0128DA
:1035B00004D0022808D003280BD114E07179A08828
:1035C000002207F0ABFC04E0A1883078052201F06E
:1035D00021FAA86A002860D04368002B5DD0627889
:1035E000A088022147E0002241201146000100F09E
:1035F000F7F8E9E7E0780022211D00F055F8297E70
:1036000088424AD20621484325302246C0B20C32B5
:10361000042110F091FD287D10F02AFD3DE0287B6B
:10362000002802D0A088697B28E028780028A0889C
:1036300023D00BF03BFF06002FD0A07AC0070BD0A1
:103640007079002808D0A189890505D46A46B11D82
:1036500000F02AF8002814D022467179A088083298
:1036600007F05CFCA86A002817D04368002B14D030
:103670000022A088114698470FE0052101F0BAF911
:103680000BE0A0880321F9E700E003E0A08800F048
:1036900031FA02E0A088FFF7F7FD01207CE7000087
:1036A000640700202C2F0020F0B52E4E85B0347E0C
:1036B00015460F46002806D0012804D0022811D054
:1036C00003284BD121E0084607F0E8FD317E04468F
:1036D000884243D2002D41D006223946284610F0B8
:1036E000B3FA3BE000240BE0F16B20014018062206
:1036F0003946801D10F09AFA002826D1641CE4B2E5
:10370000307E8442F0D3C4B21FE0002419E020468A
:10371000062148432330C0B26A46102110F0C8FC8D
:1037200000280CD11022FF21684610F070FA002802
:1037300005D13946684601F0C9F8002805D0641C57
:10374000E4B2307E8442E2D3DDE7307E844205D2AB
:10375000002D03D02946204607F0C8FD204605B0BD
:10376000F0BD000064070020F8B50E461949152584
:10377000194F884214D1002409E032460221204624
:1037800007F0D4FC002800D00025641CE4B2387E89
:103790008442F2D3002E1BD010480BF0A5FF17E097
:1037A0000BF084FE040012D060790022A11DFFF707
:1037B0007BFF397E884204D23246022107F0B6FCF4
:1037C0000025002E04D0204607F012FE00E014254C
:1037D0002846F8BDFFFF000064070020F1B3000099
:1037E000F0B50746012080021546381A89B000243A
:1037F000BC4ABD4E030006F06FFC2011181F262D99
:10380000333A3F464D545B626970757CEFEEEDECE8
:10381000EBEA89E9E8AAAAF3F6E5E4EB012971D11C
:10382000287802286ED8307059E10129F7D128781C
:103830000128F7D8707052E10129F0D128780428C6
:10384000F0D8B0704BE10129E9D128780128E9D8F6
:10385000F07044E11029E2D110222946A348ADE0DE
:103860000129DCD128780128DCD8307137E1012921
:10387000D5D12878707132E10429D0D128689042DE
:10388000D0D830622BE10129C9D128780228C9D8C3
:10389000B07124E10129C2D128780128C2D8F07181
:1038A0001DE10129BBD128780428BBD8307216E16C
:1038B0000129B4D128780128B4D870720FE11029F9
:1038C000ADD18A4810222946103077E00129A6D1CF
:1038D00028780128A6D8B07201E101299FD1287863
:1038E000F072FCE004290DD1286890420AD8706279
:1038F000F5E0002906D100F073FE002803D0012076
:10390000F074ECE074E007F043FC1CE007296FD191
:103910000622691C684610F097F92878002269464B
:10392000FFF7C2FE0546307E854239D200F058FED0
:10393000002805D0F26B0120290189188873CEE098
:10394000284607F037FC502010F076FB96E0072958
:103950004ED10622691C07A810F076F928780022BB
:1039600007A9FFF7A1FE317E88421BD206214843FA
:1039700005462135E8B26A461C2110F099FB002863
:103980000ED15B48874201D1012000E0FF2069464B
:10399000C876E8B26A461C2110F0CEFB307D4BE0C1
:1039A00002249CE0B07E0028FAD05148874214D10E
:1039B0000120F0764C4807222946403010F044F9A7
:1039C0008DE05EE07AE00EE00AE075E06FE067E02F
:1039D0007BE04AE041E039E031E00020F0767EE033
:1039E000002070757BE00027012070753D461BE0CC
:1039F00066E028460621484306462136F0B26A466C
:103A00001C2110F055FB00280CD16846C07EFF2811
:103A100008D0FF206946C8760127F0B26A461C210B
:103A200010F08AFB6D1CEDB22F48007E8542E0D37A
:103A3000002F54D02C48007D10F01AFB4FE00129D4
:103A40003ED1287801283BD8307348E0012937D18E
:103A50002878092834D8707341E0012930D12878BA
:103A6000C11F09292CD8B07339E0012928D1717CF4
:103A700028787074002932D1012830D107F076FC03
:103A80002DE001291CD1B17C2878B074002903D124
:103A9000012801D107F06AFCB07C02F03AF81EE080
:103AA00001290DD1287803280AD8307417E001299C
:103AB00006D12878307512E00120BDE7012901D038
:103AC00018240CE02878B07509E0192F00D367E7B7
:103AD0000229FCD12988384600F04AFF04462046D6
:103AE00009B0F0BD3F420F0064070020AC30002059
:103AF0001A040000FEB506460020019002903046F0
:103B00000BF0D4FC040017D0144FB879022813D05E
:103B1000607901AAA11DFFF7C7FD0546387E8542E1
:103B20000BD2284607F002FC024601200090082331
:103B30002946304607F0B8FAFEBDB879002807D00C
:103B40000128F9D161790022304607F0E7F9FEBD7E
:103B50000521304600F04EFFFEBD00006407002046
:103B6000F7B516491525164E174688420FD1002481
:103B700009E03A462046019907F044FC002800D0AD
:103B80000025641CE4B2307E8442F2D313E00BF0D3
:103B90008DFC00280ED04379811D00221846FFF7C6
:103BA00083FD317E884206D23A46019907F02AFC0D
:103BB000002500E014252846FEBD0000FFFF0000A0
:103BC0006407002070B50C460146032000020A1A63
:103BD00000252548130006F07FFA130B0D10171A65
:103BE0001E2125292B2D3133393B3D3D35373D00F5
:103BF000407811E010221D4902E01C4910221031CA
:103C0000204610F021F82DE0406920602AE0164996
:103C100006221E31F4E7C078207023E01249827832
:103C20002431EDE7114902791F39E9E7407AF3E7DA
:103C3000807AF1E70C4906221831E1E7C07AEBE718
:103C4000007BE9E7C0890AE0008A08E0007AE3E740
:103C50004079E1E7192904D2084600F02BFC2080C6
:103C600000E00225284670BDB80700200B31002077
:103C7000F8B5164CFF202070002565700320A07059
:103C80000126E670062765611920E781C0012082C0
:103C900020461F222946243010F0CCF8204602216D
:103CA000243001704670877025711F22002108485A
:103CB00010F0C0F8204606220021183010F0BAF8A3
:103CC0006571A571FF20E071F8BD0000B807002004
:103CD000EC300020FFB583B01C4615460E460C9F05
:103CE00003980BF0E3FB002817D0C189B14207D33A
:103CF000A94205D8018AA14202D1408AB8420ED019
:103D00006846068045808480C78069460D9A03987E
:103D100002F01AFA002007B0F0BD1420FBE71820CB
:103D2000F9E7000010B52548007F800744D0244CF7
:103D30002078FF2840D1234806F01CF82070FF2887
:103D40003AD0214900240C602049214A0C700421FA
:103D5000117000F0B5FD102200211E4810F06AF825
:103D6000102200211C4810F065F81C481E49046010
:103D70001B48184A04701B480470072008701B4831
:103D800010210470022010F093F9134A102103202F
:103D900010F08EF910220F4915480FF055FF144806
:103DA00010220D4910300FF04FFF04210B4A084636
:103DB00010F07EF9002010BD182010BD2C2F00201F
:103DC000B8070020553E0000B4070020C0070020BF
:103DD000B90700200B3100201B310020CC07002048
:103DE000C1070020C2070020C3070020C40700202D
:103DF000CC30002010B504F08BFB104805F0BAFF62
:103E000002F0E2F90E4805F0B5FF00F05FFB0D4847
:103E100005F0B0FF01F056FA0B4805F0ABFF05F0D6
:103E200033FD0A4805F0A6FFFFF78AF9084805F0B8
:103E3000A1FF00F091FEFFF775FF10BD0D630000BC
:103E4000DD4700007953000099990000FD33000020
:103E5000D94C0000FEB54A4C0D46080448D52078E0
:103E600010F02CF8040040D046480078002808D014
:103E70002078454ED02808D0A22802D0912821D001
:103E800014E0204608F09CFC2CE0A07800280DD01F
:103E9000052807D0082809D006280BD00728F0D11C
:103EA000A0881BE0608919E0007B04E0204608F050
:103EB00087FC02E0E0790828E3D12146307810F051
:103EC00035F812E060780E28F0D1A0882F4988429A
:103ED000ECD1A06881784278080210430BF0E6FA32
:103EE0000028E1D120460FF0C1FF0120C00345E0CA
:103EF00068040BD50421264A084610F01DF9254810
:103F0000007810F0B5F80120800337E0E80736D0DC
:103F100021480078002830D00BF0FEFB1F49097FB4
:103F20008907890F884203D30320694608700CE093
:103F30001B486946007808701A48062200784870C5
:103F400000A8194902300FF07FFE18486946007832
:103F50000872174800784872207800F0D3FA0028D9
:103F60000BD014490620087013490968002904D0B1
:103F70000A68002A01D00021904701206840FEBD58
:103F8000B8070020BE070020BF070020051400006E
:103F9000CC07002078070020BB0700202C2F002032
:103FA000C1070020C2070020D0070020C30700205F
:103FB000C4070020C0070020B40700207CB51446C9
:103FC0000D4601F053FA002D02D02846FFF706FAFD
:103FD0000C480078002801D011207CBD002C01D0B5
:103FE000094804600A48009008490B48019102788A
:103FF0000A48084B01780A48007800F0DDF90020F3
:104000007CBD0000C0070020B4070020CC070020C2
:104010001B3100200B310020BD070020B907002014
:10402000B8070020F8B50C465E491646421819211B
:104030000025C9015C4F130006F04EF8120A101754
:10404000A81C3E526970778188A8A3A8A88F98A859
:10405000102C73D11022314654486CE0102C6DD1D5
:10406000524810223146103065E0042C66D1306889
:10407000786190E0012C61D1F97830784A4AF87083
:10408000127800290AD0002807D1387A022801D0F6
:10409000052802D1104600F0E3F97CE000287AD030
:1040A000387A012803D0032801D0042873D10121D4
:1040B00010460FF08DFF6EE01F2C60D83A481F228B
:1040C000002124300FF0B6FE374822463146243016
:1040D0000FF0BAFD344BBC7024332246012112E0AC
:1040E0001F2C4CD831481F2200211F380FF0A2FE90
:1040F0002E48224631461F380FF0A6FD2B4B3C714F
:104100001F3B22460021387800F0C8FC48E0012C13
:1041100035D13078042832D878723CE0012C2ED189
:10412000307803282BD8B87235E0062C27D11E48EA
:104130000622314618300FF087FD2CE01FE0012CDD
:104140001DD1307807281AD8F87224E0012C16D136
:104150003078032813D838731DE03088022C0ED134
:1041600006280CD388420AD8F88114E03088022C43
:1041700005D1062803D3884201D838820BE01825E0
:1041800009E0012CFBD13078787104E0192801D2C4
:10419000022C02D002252846F8BD318800F0E8FB49
:1041A0000546F8E7FFFCFFFFB80700200B310020B1
:1041B000F8B50E46070048D038880BF077F90500AF
:1041C00041D0234AA96BD078022806D0012804D018
:1041D000287B082803D1002E01D0122436E00029C4
:1041E00001D0112432E01B492C200FF049FD044678
:1041F000A863200025D02C2200210FF01BFE388858
:1042000060801C22391D201D0FF01EFD0220207031
:104210000F483A880178287B082810D00020231DF9
:1042200005F067FC0446002E03D0314628460EF008
:104230000DFB002C0AD0284607F04CFB06E00120BD
:10424000EDE7132402E0142400E002242046F8BD28
:104250002208002014470000FFB51F4881B0C07835
:104260001E4617460D46022818D0012816D0002FEA
:1042700030D001980BF01AF9040029D0E06A002828
:1042800001D00FF051FD1C2138460FF0E9FCE0622F
:10429000011E1BD0207B082803D00DE0122005B0A2
:1042A000F0BD002E08D0887E00900B4612330A8A9B
:1042B00001980EF013FE00E000202179002D01D0BE
:1042C000062200E0042211432171E8E71320E6E70B
:1042D0001420E4E70220E2E72208002010B5054898
:1042E000C078000701D5044800E0002008F070F90C
:1042F00010BD0000220800204008002070B51A4CB4
:1043000005460121207807F00BFB1848C1780A20E8
:10431000014223D02570164808F054F9606800283F
:104320001AD1207800281DD0000107210FF0A8FC29
:104330006060002810D021780A0100210FF07AFD7A
:104340000020FF21626803E00301401CD154C0B289
:1043500023789842F8D305E0132070BD0020207028
:1043600008F030F9002070BD340800202208002039
:104370002C310020094900200870486088600948F5
:1043800007490160084941600849816003480849BC
:104390000C3001600749416070470000340800207C
:1043A00021B800002C31002045C10000A1C0000050
:1043B00001B7000039B70000F8B50224079F1D4679
:1043C0001646042919D004DC012907D0022945D159
:1043D0000BE008291BD00C2940D129E000F040F95E
:1043E00004003BD100F094F938E000F039F9040002
:1043F00034D13046FFF782FF30E000F031F904009D
:104400002CD13A462846069900F064FA20E000F0E4
:1044100027F9040022D13A462846069900F05AFAB4
:104420003046FFF76BFFFFF759FF05F03FFA15E045
:1044300000F016F9040011D13A462846069900F01A
:1044400049FA3046FFF75AFFFFF748FF05F02EFA0A
:1044500000F05EF900F044F905F002FB2046F8BDDB
:1044600070B5104C2168002919D00978814214D107
:104470000D4D022128780FF05BFF0C480026468086
:10448000287804210FF054FF094846712168032061
:104490004870002001F045FB70BD032070BD122064
:1044A00070BD0000240600202208002048080020DB
:1044B000D82F0020192801D3024870470249400034
:1044C000085A7047FFFF0000F82F002010B504467F
:1044D00000F08AF800F062F9FFF74CFFFFF7C8FB25
:1044E0000649FF23CB7000228A700A710448052117
:1044F00043700470204601F051FF10BDD82F0020FA
:1045000022080020F3B5304E0024306883B0002824
:1045100002D0112005B0F0BD2C4D0521E8780842ED
:1045200001D11220F6E72A494968002905D0097807
:10453000002902D0C00702D008E01020EAE700F00E
:104540004FF807460BF0CAF8874207D30498007863
:10455000022803D0032801D0122432E01D490C2088
:104560000FF08EFB306000282AD0039901700021E3
:1045700041700A22801C04990FF066FB164EB07839
:10458000032806D008F0BEFA04001AD007F096F906
:1045900017E007F01BFA694605F003F9684607F0D3
:1045A00001FD012030711120FFF784FF0006000E8D
:1045B000707106D02878094A04210FF049FE00E006
:1045C00013242046A6E7000024060020220800202D
:1045D0004808002017470000D82F0020007701006E
:1045E00010B50BF065F810BD1A480021017041703C
:1045F00041608160C1600161416181611648B422FE
:1046000001804280012292038280A022C280028126
:104610001022428182815023C3810382428282829E
:10462000C2827D2302831B0143838183C183018472
:104630000F234384094B83840723C384028501220B
:1046400042857E22D2438285C1850186491E4186EC
:104650007047000010060020F82F002080BB0000EB
:1046600070B50E4605462022002109480FF0E2FBF6
:10467000074C0848E570C67001F082FA002803D0A4
:1046800000202070122070BD0121217070BD00003B
:10469000D82F0020220800207FB504460D4608468A
:1046A0000AF004FF002817D00C48844212D21022CE
:1046B000002168460FF0BEFB69460C70200A487066
:1046C000200C8870200EC8702946684605F022F933
:1046D00004B070BD0220FBE71220F9E740420F0052
:1046E00010B50848C078400707D5074807F07CFF99
:1046F00000200649C043C88010BD002007F074FFA9
:1047000010BD00002208002058080020D82F0020EB
:10471000F8B51E4C00256068002802D00FF004FB9D
:104720006560E068002802D00FF0FEFAE560184EE0
:104730000527F078384224D0164807F04FFFF0786C
:1047400038421CD0144920200FF09AFA60600028EB
:1047500015D0202200210FF06DFB0F492020491EAB
:104760000FF08EFAE060002805D0202200210FF023
:1047700061FB0020F8BD60680FF0D6FA6560132079
:10478000F8BD002007F02AFFF3E7000048080020EA
:104790002208002038310020164700000948FF2178
:1047A00001700021418041608160C1600748064975
:1047B000016007494160074981600249064810319C
:1047C000086070474808002041BC000038310020D4
:1047D000D1BC000005CB0000B1BB0000FEB5354FD9
:1047E000354D0C4608041FD538780FF067FB061EC0
:1047F00017D03078A22806D07D78304607F0E8FD43
:1048000000280AD102E02C48C578F6E7FF2D04D035
:10481000314628460FF08AFBE6E730460FF026FBCC
:10482000E2E70120C00341E0E00701262349002818
:104830000AD04868002804D04168002901D000202F
:10484000884720467040FEBDA00709D5C8680028EB
:1048500004D04168002901D001208847022025E0CA
:10486000600725D5687900281FD0401E0006000E7D
:1048700068711AD14869002808D02E71C8680028CC
:1048800004D04168002901D0012088476946E868C2
:1048900004F087FF684607F085FB1120FFF70AFE4A
:1048A0006871387804210FF043FD04206040FEBD9C
:1048B0000020FEBD22080020D82F00201006002076
:1048C00001494870704700002208002010B505F02B
:1048D000A1F810BD70B5154C0E4662612161054608
:1048E000E0601022FF2130460FF091F9012806D038
:1048F0001022002130460FF08AF9012803D110213F
:1049000020690DF095FD1022FF2128460FF07FF958
:10491000012806D01022002128460FF078F901283E
:1049200003D11021E0680DF083FD70BDD82F002069
:104930007FB50C4605460AF0B9FD002814D0826BFD
:10494000007B042802D0122004B070BD002A00D0E1
:10495000947D684621460EF0FDFA044B6A4602211A
:1049600028460EF079FAEFE71420EDE7473401000E
:1049700070B50C460546192802D20848844201D178
:10498000022070BD112D04D13C20604380B201F0A3
:10499000DBF8034968000C52002070BDFFFF0000E7
:1049A000F82F002070B50E4611491546CB78022B22
:1049B00017D0012B15D0002D17D00AF077FD040079
:1049C00011D0002E03D02079022108432071204607
:1049D0001022294618300FF037F92869A06200200C
:1049E00070BD122070BD142070BD022070BD00008B
:1049F0002208002038B50C4605460AF057FD00286D
:104A000006D068460470694628460EF013FA38BD91
:104A1000142038BDF7B505461E4812261E4F0C4619
:104A2000814208D1B868002832D00268002A2FD00D
:104A300028469047FEBD1748401C844219D1B868EB
:104A4000002806D00268002A03D028469047002894
:104A500006D02846029906F08BF9060005D017E02B
:104A60007D70029838700020FEBD7D70029838700D
:104A70000EE008460AF01AFD002809D00078A84286
:104A800001D00320FEBD2046029900F0BEFFFEBD0E
:104A90003046FEBDFEFF00001006002070B5144633
:104AA000024620481E46C0780523184224D01E4DD9
:104AB00000296B68E86802D0002B1DD001E00028B7
:104AC0001AD0202C2CD2002C01D0002E28D02A70F5
:104AD000002913D01F220021581C0FF0ABF9686881
:104AE00022463146401C0FF0AFF8696820460C7032
:104AF000491C01F012F870BD122070BD1F22002168
:104B0000401C0FF097F9E86822463146401C0FF030
:104B10009BF8E96820460C70491C01F01DF870BD37
:104B2000022070BD220800204808002010B5094A64
:104B3000014613790020002B0BD101231371C90703
:104B400007D013466433184610220421403800F081
:104B500009FA10BDEC060020F8B5044600F044FE4A
:104B600000F046F8114F134EFC701149304600F02A
:104B700027F81149C0200FF083F800221346B861CE
:104B800094010653002124180C254D436519AB8070
:104B9000491CEB600529F7DB521C032AF0DBF8788F
:104BA000787006480AF0D4FDF8BD0000EC0600203D
:104BB0006E300020FFFF000001470000DDD1000043
:104BC00070B50A4C0025A04208D1002082008C520A
:104BD0005218401C95700328F8DB70BD08F0CFFA1E
:104BE0000028FAD00480857070BD0000FFFF00002F
:104BF000F0B51E4920200870FF2048708870C870EA
:104C00000126CE8000200881C86008610B4602247E
:104C10001C3348611C70164A5A600A4608712432D7
:104C20001470144D556016725081D3601474124F75
:104C300015466F612E766883E9612021545413462E
:104C40000E4D59185D6208725885D862302154544F
:104C50000B4C0323511854630B725087094ACA60E6
:104C60000249094A643105C10860F0BDEC06002024
:104C700012450100144501001A45010032450100AA
:104C8000204501006E300020B5DC0000F8B50E466E
:104C90000746069900240798002902D00B242046D5
:104CA000F8BD022B01D00D24F9E7517812780D02DE
:104CB00015432946814301D08024F0E73846F16846
:104CC00000F042F9A842EAD02A463846F16800F0DE
:104CD000F1F90446E3E7000070B50D4608041AD563
:104CE0000E48C0780FF0EAF804000FD02078B02802
:104CF00009D1204608F00AFC002804D0204621797A
:104D0000083000F053FD20460FF0B0F8012128468E
:104D1000C903484070BD002070BD0000EC060020B3
:104D2000FFB585B000200F9F0090087A0E9D1C46AD
:104D30000E46C0060BD5079808F01AFA03007DD07E
:104D40000A223146059898470090002816D13078FD
:104D5000022815D0079808F031FA0028EFD0006833
:104D600084460028EBD011991098224600970291B2
:104D700001902B46314664460598A04709B0F0BD26
:104D80007068292241780078090201431202881ACA
:104D900091427CD00BDC6948081A13D0012811D04D
:104DA000022817D00328D5D1002F53D09BE001282B
:104DB0007ED002286DD0032877D00428CAD1002FD6
:104DC00068D090E0002F6FD1F068017829800278D8
:104DD000416884E0002F67D1F068417800780F02C5
:104DE000074304202880F06804A900782070F06848
:104DF00040786070384600F089F9060022D0684695
:104E0000028A03AB4E493046F76800F0DDF900280E
:104E10000AD1337802214B487268FDF729FC00283B
:104E200002D1474869468881387802280CD102228D
:104E3000201D79680EF008FF288800E07CE0801CC7
:104E4000288001E06846878168468089A070000A52
:104E5000E0706FE001202880F06800210078207069
:104E60007089401C80B200F051F9002813D02988C5
:104E700002788918891C2980817A61704189090A20
:104E8000A17002784168E01C0EF0DEFE52E00CE0FA
:104E90000EE026E03BE028880422001D2880002147
:104EA000601C0EF0C7FF45E01DE0002F27D01AE080
:104EB000F0680FF050FA80B2B84201D207205DE7E7
:104EC000874201D1002006E01099C919814201D31F
:104ED000C01B00E01098288082B2F068C1192046FB
:104EE000D2E7002F01D00B2048E7F168059800F0C9
:104EF0002BF8022129802070000A60701AE002203D
:104F00002880F06800782070F0684078F5E7072185
:104F1000F068298001782170417861708178A170F2
:104F20004188090AE1700179217181796171C08834
:104F3000000AA071009821E70E201FE7002800005A
:104F4000FFFF00001645010010B508F018F9002811
:104F500000D0807810BD00000149887070470000C3
:104F6000EC0600207CB51E4605001CD0684601807A
:104F70008270019500F080FA04001FD1002E1DD030
:104F8000688900280FD00E490C200EF079FE002809
:104F900013D000210160698981800A4A8660116905
:104FA000002903D107E002207CBD11460A68002ACF
:104FB000FBD1086002E0106100E0132420467CBDB4
:104FC00005470000EC060020F8B50C4C0746A07819
:104FD00015460E46FF280FD00A200EF033FF0100C1
:104FE0000AD0B12008704F80002048700871CE8030
:104FF0000D81A0780EF09AFFF8BD0000EC060020AD
:1050000070B50C4605460649FFF79EFF800704D59C
:105010002146284600F08CFA70BD012070BD0000CA
:105020006E3000200EB56B461A81FE2300220193DC
:105030000092022302AA00F001F80EBDFFB583B072
:10504000174602A90D9E049800F060F804002AD0CB
:105050006846008908F0B2F8002822D04568002D83
:105060001FD00C98019600903A462146069B039863
:10507000A847050018D1FE2E16D02078022813D19B
:1050800060684178027808020949104388420BD1D0
:105090007878397802020A4304990398FFF794FF5D
:1050A00002E00E2500E00125284607B0F0BD000013
:1050B0000229000070B514460E46054608F05FF858
:1050C000002806D13146054808F059F8002803D0D9
:1050D00005808470002070BD112070BDFFFF0000AE
:1050E00010B50178B0290BD14178002908D1017998
:1050F000122906D01B2903D14088012101F058F85C
:1051000010BD417C0129F7D010BD0000F0B5104A58
:10511000536919E09C686589A84214D39E88721966
:10512000824210D900220CE017013F197F89874283
:1051300005D1002900D00D8010010019F0BD521CCE
:1051400092B2B242F0D31B68002BE3D10020F0BD35
:10515000EC060020FFB51B4883B0002345692DE015
:10516000AE68002470890190A888009016E02101A3
:1051700088194289039FBA420ED3049FBA420BD8C2
:10518000069A002A0FD01346715C4068059AFDF715
:105190006FFA002807D10023641CA4B2009884424F
:1051A000E5D3002B09D00C98002802D00C99019867
:1051B00008802001801907B0F0BD2D68002DCFD1E7
:1051C0000020F8E7EC060020FEB5174600256A46E9
:1051D0009580044640891D4A1E46904208D001AA87
:1051E0000092401C237880B26268FFF7B3FF054647
:1051F0002378022116486268FDF73AFA002807D1A1
:105200002378022113486268FDF732FA002801D0A2
:1052100060890EE0237802210F486268FDF728FAC2
:1052200000280DD0002D03D068468088B84203D0F6
:10523000384608F063FE04E06889401E80B200E052
:105240006089002E00D030802846FEBDFFFF0000A0
:1052500014450100164501001A450100FFB583B051
:105260000E461D46174601A9039807F0A1FD04004C
:1052700022D1002F0FD0694608803088FFF746FF03
:105280006946088800F090F90146012203980AF067
:10529000E1F8002811D131460398FDF78FFA040098
:1052A0000AD1FF2D08D0019B1E22194604489B1CE1
:1052B00008F02FFE0198C570204607B0F0BD000031
:1052C00065DD000010B50446FDF78EFA0749FF20A2
:1052D000087048700020486088608C700421204667
:1052E00001F05CF800F004F810BD00005C0800203C
:1052F00070B500200D4D0E4B0446FF2206214143A0
:105300005D52C918CA708A70401C0C710328F5DB05
:105310000120C0431880074807F0E0FE0648FDF76B
:10532000E9FB06480AF014FA002070BDFFFF0000F8
:105330005C300020ADDD00008FDD0000E5DC00000A
:10534000F8B51C4615460E4607460AF0AFF8002889
:105350000DD0017B074808292B4632463946009478
:1053600003D0007807F03AFDF8BD4078FAE7012055
:10537000F8BD00005C080020F0B587B00F460804B7
:1053800070D5394EB0780EF099FD040064D02078C5
:10539000A0285ED10120694608732046FDF776FA01
:1053A000050041D16846807800280BD0142809D028
:1053B000152807D01A2805D01C2803D001461F390C
:1053C00020290BD8B16800292ED0694649780029D8
:1053D0002AD169460874062008751FE0C0070AD064
:1053E0007368002B05D0608803AA69469847054674
:1053F0001AE0062518E0B368002B06D0608803AADF
:1054000069469847050001D10EE0062568464078B8
:10541000002809D16946887808740D7500204882F3
:10542000608804A9FDF760F96846007B002804D075
:10543000A068002801D00EF077FC002D05D1684649
:105440008078122805D01B2803D16088012100F044
:10545000AFFE20460EF00AFD0120C003784007B0E1
:10546000F0BDFFE70020FAE75C0800200149087062
:10547000704700005C08002070B50446456800884D
:1054800000284AD02B78022125486A68FDF7F0F8F9
:10549000002807D12B78022122486A68FDF7E8F836
:1054A00000283AD0A078C01F092834D81E4EF088B2
:1054B00000282ED02188081801210904884228D804
:1054C0001A490C200EF0DCFB050020D0002207E07A
:1054D00011016368F0880A315852401CF080521C58
:1054E00020889042F4DC0020286008222146281DF4
:1054F0000EF0AAFB7069002801D105E0084601689A
:105500000029FBD1056000E07561002070BD13200B
:1055100070BD012070BD182070BD022070BD00005C
:105520001445010016450100EC060020024700006A
:10553000FEB50E46074600250223194A19490120E7
:105540000095FFF707FE040027D0232000900023DA
:1055500004221D21384600F0E3F8029000281AD0FA
:105560006089694688800420C880029901200870FB
:105570000298334645700299FF20887002990022F4
:10558000C87001A93846FFF769FE040006D00298EA
:105590000EF0CAFB02E0152400E001242046FEBD07
:1055A00032450100FFFF000000B507F0BDFB0028F9
:1055B00001D0807800BD102000BD00B507F0B4FB1D
:1055C000002800D0008800BD7CB50D46044609F0D7
:1055D0006DFF29462046FDF793FA002812D1684650
:1055E0008580204609F062FF00280BD0027B01A9CC
:1055F0000748082A009106D07F2300222146007820
:1056000007F0ECFB7CBD7F23002221464078F7E7C2
:105610005C08002010B504460B4688060DD51046E0
:10562000FFF7C2FF01460122204609F013FF0528BB
:1056300001D00F2800D1082010BD882003420CD0D3
:105640001046FFF7B1FF0146180701D5012200E01F
:105650000022204609F0FEFE10BD880701D500207B
:1056600010BD032010BD10B50346C8060DD5104669
:10567000FFF79AFF01460122184609F0EBFE0528C4
:1056800001D00F2800D1082010BD480705D51046CD
:10569000FFF78AFF0146012206E0480608D51046BA
:1056A000FFF782FF01460022184609F0D3FE10BD25
:1056B000C80701D0002010BD022010BD70B51D46E6
:1056C00003460C4688060DD51046FFF76DFF0146D0
:1056D0000122184609F0BEFE052801D00F2800D18E
:1056E000082070BD8820044214D01046FFF75CFFEC
:1056F0000146200701D5012200E00022184609F0EA
:10570000A9FE002808D0697A0029EAD0297A002960
:1057100002D170BD880701D5002070BD032070BD87
:10572000F8B5069F1E461546162928D00CDC092917
:105730001FD004DC05291CD0062911D11BE011293A
:1057400017D012290CD118E01D2916D004DC172916
:1057500015D01B2904D110E052290ED0D2290CD02B
:105760000124114A95420CD1FDF718F8001B85B2AF
:105770000BE00224F5E70724F3E70324F1E705240F
:10578000EFE7D22901D10C35ADB2601980B23946AC
:1057900000F060FE002805D0002E00D03580614268
:1057A0000EF000FAF8BD0000FFFF000010B507F092
:1057B000CBFA002801D00EF0B7FA10BD10B5094A97
:1057C000014653790020002B0BD101235371C907E7
:1057D00007D01346A4331846102209219038FFF74A
:1057E000C1FB10BD3C060020F0B500213D4C02225B
:1057F000A1603D4D227008462954401C80B21628F5
:10580000FAD36270374BE180A27050200C331880BD
:10581000A0205880184681807D20C000D880E2708A
:105820000123304823716171143002702F4C4460A1
:10583000037241812E4CC460064602742D4F77617D
:105840003446337671831034143EE66020240255CA
:105850000646294F3419776223727185F562302428
:1058600002550546234E6E632C1923726987133D3A
:10587000E560402402550546204E6E642C192372C3
:1058800061810E3DE560502402550546194E2C19E4
:105890006E6523726181123DE56060240255054604
:1058A000174E6E662C1923726181083DE5607024E5
:1058B000025505460F4E2C196E6723726181113D0A
:1058C000E560802402550F4A8030426003724181B6
:1058D0006A1CC2600C48A03210600C485060104630
:1058E0008160F0BD3C0600202C30002014450100F2
:1058F000A84401001A450100284501002A4501007D
:10590000304501003A450100D9DF000021E10000E7
:1059100070B51646214A0D46114600241431030085
:1059200004F0DAFB0A0613383818382128383138E1
:10593000152D2AD81622002119480EF07BFA2A4686
:10594000314617480EF080F925E0022D1DD1308830
:10595000D08020E0082D18D11048082231460C30A4
:10596000FCF7C5FA17E0012D0FD1CA690B49307851
:105970003C3105E0012D08D1CA6B084930785C3113
:1059800008F096FB07E0012D01D0182403E03078E1
:10599000107100E00224204670BD00003C0600208B
:1059A0002C3000201148807C01280DD003280ED017
:1059B00007280FD00F2810D01C2811D0222811D072
:1059C000322811D0002070471320C04370470D20AB
:1059D000C04370470720C04370470220C043704750
:1059E0000120704702207047032070472C2F0020B1
:1059F000704710B500F0FAF810BD10B500F016F9B8
:105A000010BD10B500F02AF910BD10B5FCF742FC2E
:105A100010BD10B500F036F910BD10B500F04AF910
:105A200010BD10B500F060F910BD10B5FCF73CFCDE
:105A3000002010BD10B5FCF751FC10BD10B5FCF7EF
:105A40005DFC10BD10B5FCF769FC10BD10B5FCF78E
:105A500075FC10BDFEB508AF70CF6F4670C7FCF780
:105A60007DFCFEBDF0B585B084460AA8F1C8049758
:105A70006F4671C7604600F04DF905B0F0BD38B50E
:105A8000049C009400F086F938BD10B5FCF776FC54
:105A900010BD38B5049C009400F09AF938BDFFB5EC
:105AA00087B094468E4610A8F7C806976F4677C70A
:105AB00062467146079800F0A9F90BB0F0BD10B529
:105AC00000F0FEF910BD10B5FCF766FC10BD10B576
:105AD000FCF774FC10BD10B5FCF782FC10BD10B5CE
