:020000040000FA
:1000000000800020A113000001400020AB1300007D
:1000100000000000000000000000000000000000E0
:10002000000000000000000000000000AB13000012
:100030000000000000000000AD130000AF1300003E
:10004000B1130000B1130000B1130000B1130000A0
:10005000B1130000B1130000B1130000B113000090
:10006000B1130000B1130000B1130000B113000080
:10007000B1130000B1130000B1130000B113000070
:10008000B1130000B1130000B1130000B113000060
:100090000348854601F0ECF900480047CD00000018
:1000A0000080002010B53F48806A012149020843C2
:1000B0003C4988620121080200F02AFD0321012049
:1000C000400200F025FD01F01BF910BDFFF7EAFF2B
:1000D00034484038417834A001F0FEF937A001F0EF
:1000E000FBF9642001F0DAF82E48806A10210843F9
:1000F0002C4988620321132000F00AFD012104200D
:1001000000F006FD00F08EFF2648C06A102108436B
:100110002449C862552000F0EAFF2248806A102175
:10012000084320498862012001F0B8F81D48C06AE0
:10013000102108431B49C86200F0E9FF1948806A92
:100140001021084317498862022001F0A7F81548DA
:10015000C06A102108431349C8620921214800F0F0
:10016000E8FF1048806A102108430E498862012088
:1001700001F094F80B48C06A102108430949C8628D
:100180000C21194800F0F4FF0648806A102108434A
:1001900004498862012001F081F814A001F09CF963
:1001A00000BFFEE78010004053746172742040432A
:1001B00068697049443D253032580A00312E737009
:1001C0006931206D756C206D6173746572206D6F7F
:1001D00064652073656E642064617461202E2E2E28
:1001E0000A0000005C43002070430020454E44207C
:1001F0002E2E2E0A0000000010B55720FB49087073
:10020000A82008708820F949403908810020F74962
:1002100008700A2001F031F8012000F07DFE10BDC9
:1002200000B5030001F068F90D081A2C37414C564F
:10023000606A75808B96A1005721EC4A1170A82145
:100240001170EA492039C97B04229143E74A203AD8
:10025000D173C821E54A403A118187E05721E34A2A
:100260001170A8211170E1492039C97B0422114382
:10027000DE4A203AD173C821DC4A403A118175E048
:100280005721DA4A1170A82111705121C900D74AAB
:10029000403A11816AE05721D44A1170A8211170A7
:1002A000D349D24A403A118160E05721CF4A1170B8
:1002B000A821117081218900CC4A403A118155E072
:1002C0005721CA4A1170A82111708821C74A403AA3
:1002D00011814BE05721C54A1170A82111700221EC
:1002E000C24A403A118141E05721C04A1170A82109
:1002F00011700421BD4A403A118137E05721BB4AB1
:100300001170A821117093218900B84A403A1181D7
:100310002CE05721B54A1170A8211170B4494D3114
:10032000B24A403A118121E05721B04A1170A82108
:10033000117095218900AD4A403A118116E057218C
:10034000AA4A1170A82111704B21C900A74A403A4E
:1003500011810BE05721A54A1170A8211170A44901
:100360005C31A24A403A118100E000BF00BF002189
:100370009E4A117000BD10B59C4840380089C4B237
:10038000C0202040802801D19A4810BDC0202040C4
:10039000402805D1E106C90E974801F025F8F4E799
:1003A000C0202040002805D1E106C90E914801F087
:1003B0001BF8EAE77D200002E7E757218B4A11701E
:1003C000A8211170002808D188494039098952159F
:1003D0009143864A403A118108E0844940390989AD
:1003E000012252021143814A403A118100217F4A81
:1003F0001170704757217D4A1170A8211170002893
:1004000008D17A492039C97B04229143774A203A9E
:10041000D17307E075492039C97B04221143734A1F
:10042000203AD1730021714A117070476F4A917B55
:10043000FC220A4083079B0F1A43114657226B4B3D
:100440001A70A8221A701A46917300221A70704707
:10045000664A917B8F220A4003011A43D1B2572288
:10046000624B1A70A8221A701A46917300221A70F1
:1004700070475E4A203A917BFC220A4083079B0F1B
:100480001A4311465722594B1A70A8221A70574A1C
:10049000203A917300221A707047544A203A917B97
:1004A0000A07120F03011A43D1B257224F4B1A7099
:1004B000A8221A704D4A203A917300221A70704790
:1004C000F0B589B000200290484840380089C4B295
:1004D000C0202040802805D1484807900220C04312
:1004E00004903EE0C0202040402816D1E106C90E0D
:1004F000434800F063FF012189034018C00B0790B7
:10050000E106C90EE206D20E521E2423DB43981ADE
:1005100000F06AFF00B2049023E0C02020400028D1
:100520001BD1E106C90E374800F05EFF01218903A7
:1005300040180190C017410C01980818C01307908B
:10054000E106C90EE206D20E521E0223DB43981AC0
:1005500000F04AFF00B2049003E00520079000205D
:10056000049007980005000D0890204820388689DF
:1005700000270020039057201C490870A82008700D
:100580000120887400BF572018490870A8200870FF
:100590001648203886810020087000BF1348807CF0
:1005A000022108400028F9D01048008A069000BFB8
:1005B0000E48807C022108400028F9D100BF0B487A
:1005C000807C022108400028F9D00848008A069063
:1005D0000298401CC0B2029008990698401A05B2D1
:1005E000002D11D1002009B0F0BD000040100040E6
:1005F000020200000048E80100389C1C13130000B0
:1006000000180D8F0068890928467843002832DADF
:100610000398012806D00398401C002802D00398B4
:10062000002828D1002F03DA781EC04307B202E069
:10063000681EC04305B2BD4214DD5720FE49087054
:10064000A8200870FC492039059888810020FA49C3
:1006500008707D21C90079430846089900F0C4FE5E
:1006600080B2C0E77D21C90069430846089900F0BF
:10067000BBFE80B2B7E72F4605962846049900F0E6
:10068000B3FE00B203900398301A86B205988642F2
:1006900006D1002D02DD701C86B201E0701E86B20C
:1006A0000298142800DA6EE7FF209CE7FFB585B0BA
:1006B00004462646069D002003901FE0701EFF2181
:1006C000913100F091FE00290DD0701E642100F0E0
:1006D0008BFE00290AD0771EF817800FC0198010F2
:1006E0008000381A02D1FF216F3101E0FF216E3105
:1006F0000398081880B20390701E86B2CF488642D5
:10070000DCDC35E0A81E012819D1FF2191312046FB
:1007100000F06AFE00290DD06421204600F064FE3E
:10072000002909D02746E017800FC01980108000EB
:10073000201A01D1012000E000201C3012E0A81E88
:10074000062807DDC007C00F002801D01E2009E0E1
:100750001F2007E0A81EC007C00F002801D01F20DF
:1007600000E01E200399401880B20390681E85B2F5
:10077000012DC7DC0798401E0399401880B20390F2
:100780001821089800F030FEE120C00041431E22ED
:100790000E98504309180F9FF80FC0194010081801
:1007A00080B202900F98C007C00F002802D001202D
:1007B000C00300E000200190029804900498010416
:1007C00001980143049157209B490870A8200870A4
:1007D000994940390398486397482038407C8021E4
:1007E000084395492039487493494039049848632F
:1007F00091482038407C402108438F492039487473
:1008000000208D49087009B0F0BDFFB583B00446E3
:100810000D4689484038C06B8604B60C864820389F
:10082000408B019084482038008B00900198410053
:100830000122D2030098904201DB012000E0002059
:10084000081802907D4820801EE02088FF21913109
:1008500000F0CAFD00290DD02088642100F0C4FDFD
:1008600000290AD02788F817800FC019801080004F
:10087000381A02D1FF206F3001E0FF206E30301AAD
:1008800086B22088401C20802088FF21913100F012
:10089000ABFD00290DD02088642100F0A5FD0029C2
:1008A0000AD02788F817800FC01980108000381AE6
:1008B00002D1FF206F3001E0FF206E30B042C4DD76
:1008C0000020288035E02888012819D12088FF21C0
:1008D000913100F089FD00290DD02088642100F0BD
:1008E00083FD002909D02788F817800FC0198010D0
:1008F0008000381A01D1012000E000201C3013E0F4
:100900002888062808DD2878C007C00F002801D0F5
:100910001E2009E01F2007E02878C007C00F00282C
:1009200001D01F2000E01E20301A86B22888401C0B
:1009300028802888012819D12088FF21913100F0D2
:1009400053FD00290DD02088642100F04DFD0029C1
:1009500009D02788F817800FC01980108000381A36
:1009600001D1012000E000201C3013E02888062877
:1009700008DD2878C007C00F002801D01E2009E03C
:100980001F2007E02878C007C00F002801D01F20D3
:1009900000E01E20B04296DD2888401C2880701C94
:1009A00081B205980180E1210901029800F006FD5D
:1009B00081B206980180E1210901029800F0FEFC55
:1009C0000F463C21384600F0F9FC0C9908803C2188
:1009D000029800F0F3FC0D98018007B0F0BD57219C
:1009E000154A1170A8211170134940394863124902
:1009F0002039497C402211430F4A203A517400218A
:100A00000D4A1170704700BF0B494039886B896BE4
:100A10008142F9D170475721074A1170A8211170FE
:100A200005492039497C17229143034A203A5174E1
:100A30001146497C102203E040100040E40700000A
:100A400002431143304A517400212F4A2032117061
:100A5000704700B50346FFF7D6FFC2182B48824205
:100A600000D9121A90B2002802D0012000041218F6
:100A70005720254920310870A820087022482038C6
:100A800042632148407C202108431F4948740020CC
:100A90001D492031087000BD0021002802D120220C
:100AA000114303E0012801D1102211435722164BB4
:100AB00020331A70A8221A70134A527C8A43124BB0
:100AC0005A740022104B20331A70704701460029D7
:100AD00004D10D48007C8022104070470A48007CF9
:100AE00040221040F9E7002802D0012808D103E095
:100AF0002021054A117404E01021034A117400E01A
:100B000000BF00BF70470000201000400000C0A8D8
:100B100000B50B0000F0F0FC050412202E38420056
:100B20009B4A526B82439A4B5A631A46126B82431A
:100B30001A631A46126A82431A6230E0944A526B70
:100B40008243934B5A631A46126B02431A631A4646
:100B5000126A82431A6222E08D4A526B02438C4B26
:100B60005A631A46126B82431A631A46126A824308
:100B70001A6214E0864A526B8243854B5A631A46C6
:100B8000126A02431A620AE0814A526B0243804BA6
:100B90005A631A46126A02431A6200E000BF00BF9D
:100BA00000BD00B50B0000F0A7FC05041424344080
:100BB0004C00774A403252698243754B40335A6148
:100BC0001A46126982431A611A46126882431A60F1
:100BD00038E06F4A4032526982436D4B40335A616C
:100BE0001A46126902431A611A46126882431A6051
:100BF00028E0674A403252690243654B40335A61EC
:100C00001A46126982431A611A46126882431A60B0
:100C100018E05F4A4032526982435D4B40335A616B
:100C20001A46126802431A600CE0594A403252696F
:100C30000243574B40335A611A46126802431A6006
:100C400000E000BF00BF00BD002906D001290ED082
:100C5000022916D0032928D11DE04D4A928A8243E9
:100C60004B4B9A821A46D26A0243DA621EE0484A25
:100C7000928A8243464B9A821A46926A02439A6249
:100C800014E0434A928A0243414B9A821A46D26A3E
:100C90000243DA620AE03E4A928A02433C4B9A825D
:100CA0001A46926A02439A6200E000BF00BF384BC6
:100CB00098831A46128A02431A827047002906D086
:100CC000012911D002291CD0032934D126E0304A51
:100CD000D28A82432E4BDA822D4A4032D2680243B6
:100CE0002B4B4033DA6027E0294AD28A8243284BD3
:100CF000DA82274A403292680243254B40339A6099
:100D00001AE0234AD28A0243214BDA82204A403237
:100D1000D26802431E4B4033DA600DE01C4AD28A8F
:100D200002431B4BDA821A4A403292680243184B44
:100D300040339A6000E000BF00BF154BD8831A46CD
:100D4000528A02435A827047002807D0104A803ADC
:100D5000128B0A430E4B803B1A8306E00C4A803A02
:100D6000128B8A430A4B803B1A837047002807D0B6
:100D7000074A803A528B0A43054B803B5A8306E070
:100D8000034A803A528B8A43014B803B5A83704717
:100D90008010004010B50446002C11D157209E4908
:100DA0000870A82008709C48203800880321490258
:100DB00088439949203908800020974908701FE02E
:100DC000572095490870A82008709348203800885B
:100DD000091508439049203908800A2000F04DFA8F
:100DE00057208D490870A82008708B48203800884B
:100DF0004915084388492039088000208649087031
:100E000010BD002823D15722834B1A70A8221A70D4
:100E100080220A40002A07D07F4A403AD27B022330
:100E20001A437D4B403BDA737B4A403A927A1C234B
:100E30000B409A43784B403B9A72774A203AD27BD8
:100E40008B079B0F9A43744B203BDA7322E05722A7
:100E5000714B1A70A8221A7080220A40002A07D00B
:100E60006D4A403AD27B02239A436B4B403BDA7384
:100E7000694A403A927A1C230B401A43664B403B26
:100E80009A72654A203AD27B8B079B0F1A43624BBA
:100E9000203BDA730022604B1A70704700280CD197
:100EA00057225D4B1A70A8221A705B4A403AD268EA
:100EB0000A43594B403BDA600BE05722564B1A70FD
:100EC000A8221A70544A403AD2688A43524B403B97
:100ED000DA600022504B1A70704700280CD157225C
:100EE0004D4B1A70A8221A704B4A403A927B8A43A3
:100EF000494B403B9A730BE05722474B1A70A8228C
:100F00001A70454A403A927B0A43434B403B9A73DE
:100F10000022414B1A70704710B50446002C0BD1CB
:100F200057203D490870A820087000203A49203910
:100F30000871394908701BE0572037490870A8200C
:100F40000870012034492039487108710020324965
:100F50000870012000F091F957202F490870A8204F
:100F600008700D202C492039087100202A4908708A
:100F700010BD2A480069042188432849086130BF10
:100F800070475721244A1170A82111702249403915
:100F9000897B08221143204A403A917309210903B1
:100FA0001D4A203A118000211B4A117000BF1A49C6
:100FB0004039886B896B8142F9D10A3018498842DF
:100FC00000D9401A81B2002902D001210904401839
:100FD0003021114A203A117457210F4A1170A8216B
:100FE00011700D49403948632F210B4A203A517442
:100FF0000021094A117057211170A8211170052193
:10100000054A403A11810021034A117040BF20BFB8
:1010100020BF00BFFEE700004010004000ED00E0F0
:101020000000C0A804205F49C8700220087060203A
:10103000087008464078102108435A49487008460D
:1010400040784008400048707047022806D1554952
:10105000497840221143534A517005E0514949787B
:10106000402291434F4A51704E49C8707047002842
:1010700006D0012811D002281CD0032834D126E044
:101080004849097808229143464A11701146497827
:1010900020221143434A517027E04249097808222F
:1010A0009143404A117011464978202291433D4AAC
:1010B00051701AE03B49097808221143394A1170EE
:1010C0001146497820221143364A51700DE03549C6
:1010D000097808221143334A1170114649782022B9
:1010E0009143304A517000E000BF00BF70472D4966
:1010F0000978102291432B4A11701146087100BFE4
:1011000028498979402211400029F9D070472548A3
:1011100000781021884323490870FF20087100BF20
:1011200020488079402108400028F9D01D480079E6
:10113000704710B50A461B4B1B781024A343194C6B
:10114000237023469A810123A37109E0154BDB79B3
:10115000082B05DA0378134C2374401C531E9AB2F3
:10116000002AF3D100BF0F4BDB79002BFBD110BD60
:1011700010B50A460B4B1B7810242343094C2370EF
:10118000234699810123A37109E0064BDB79002BEB
:1011900005D0044B1B7C0370401C531E9AB2002ADE
:1011A000F3D110BD004400400146062904D1464851
:1011B00000780822104070474348407901228A4055
:1011C0001040F8E7572040490870A82008700846EA
:1011D0008079012108433C498871002008707047DC
:1011E0003A49096801600021C943384A80321160D8
:1011F0007047364908607047354880697047572105
:10120000314A1170A8211170002806D11146897940
:10121000042291432C4A917105E02B4989790422DB
:101220001143294A91710021274A117070475721B3
:10123000254A1170A8211170002806D1114689791C
:1012400002229143204A917105E01F4989790222C7
:1012500011431D4A917100211B4A1170704757209C
:1012600019490870A82008700846807910210843A1
:101270001549887100200870704710B500210AE0F8
:10128000022201E000BF00BF1346541EA2B2002B91
:10129000F8D14B1C99B28142F2DB10BD30B5044647
:1012A000002505E07D20C000FFF7E7FF681C85B240
:1012B000A542F7DB30BD00BF064AD27A082AFBD030
:1012C000044B1872704700004010004000E100E03D
:1012D00000E000E00034004070B50446FFF74BF832
:1012E0000A214843C6082146304600F067F8054603
:1012F0000A21681D00F062F8054628498D8170BDFD
:1013000010B5E1204002FFF7E7FF872023498870EE
:101310000320C870402048700120887310BD1F4909
:101320008978C0229143820111431C4A9170704711
:1013300000280BD0194A52780A43184B5A701A46A3
:10134000127808231A43154B1A7004E0134A527896
:101350008A43124B5A70704780201049487070477A
:1013600010B50A4609E00D4BDB7A082B05D003784F
:101370000A4C2372401C531E9AB2002AF3D110BDAE
:101380000146002005E0054A127A0A70491C421CF9
:1013900090B2024A927A002AF5D170470034004098
:1013A0000448804704480047FEE7FEE7FEE7FEE703
:1013B000FEE70000F90100009100000030B50B4687
:1013C000014600202022012409E00D46D5409D421F
:1013D00005D31D469540491B2546954040191546A5
:1013E000521E002DF1DC30BD70B5002425460028CA
:1013F00001DA01244042002901DA01254942FFF7C0
:10140000DDFFAC4200D04042002C00D0494270BD0C
:10141000F0B51FB40646002082B005464024019175
:1014200000901BE0019922460F46304600F042F83A
:10143000049A059B801A994110D3104619462246FA
:1014400000F028F8361A8F4101972246012000212A
:10145000009F00F01FF838184D4100902046641E90
:101460000028DFDC019B00982946324607B0F0BD1A
:10147000064C0125064E05E0E36807CC2B430C3CE7
:1014800098471034B442F7D3FEF706FEA8190000BF
:10149000D819000010B5202A04DB0146203A9140FB
:1014A000002010BD914020239C1A0346E3401943BD
:1014B000904010BD10B5202A04DB0846203AD040E9
:1014C000002110BD0B46D340D0402024A21A9140E9
:1014D0000843194610BD00000FB410B503A9044B12
:1014E000044A029800F026F810BC08BC04B0184763
:1014F000B71200006C43002030B47446641E257897
:10150000641CAB4204D3635D5B00E31830BC184736
:101510001D46F8E702E008C8121F08C1002AFAD1E8
:1015200070477047002001E001C1121F002AFBD163
:1015300070470000FFB591B00F460546002606E053
:1015400025280AD0149A139990476D1C761C287888
:101550000028F5D1304615B0F0BD002400940121DB
:10156000F34A029400E004436D1C2B780846203BAC
:1015700098401042F7D128782A280ED002212878E6
:101580000246303A092A15D8009A0A235A43303ABB
:1015900080180C436D1C0090F1E701CF00900028EB
:1015A00005DA0120400304430098404200900220E5
:1015B00004436D1C28782E2815D104200443687834
:1015C0006D1C2A280AD101CF6D1C02900BE00299F4
:1015D0000A225143303940186D1C02902878014688
:1015E00030390929F3D928786C2810D006DC4C282A
:1015F0001AD068280ED06A2817D104E0742813D0B6
:101600007A2812D110E00120400504430CE00121AA
:10161000090501E0032109050C436978814203D1E2
:101620000120000524186D1C6D1C287803906E287D
:101630001ED00CDC632831D004DC00288AD0582866
:1016400011D1B2E064287BD069280CD178E07328EE
:101650002DD004DC6F2870D0702804D1A7E0752845
:101660006CD078286BD0149A13999047761C62E05E
:101670006002400F022807D003280AD004283868E7
:101680000AD006603F1D56E03868F11706604160D9
:10169000F8E738680680F5E70670F3E738786946BA
:1016A00008740020487404A80390012003E03868FF
:1016B00003900020C0433F1D61070FD5002101E0CA
:1016C0000199491C029A0191914213DA8142F7DB98
:1016D000019A0399895C0029F2D10BE0002101E015
:1016E0000199491C01918142FADB019A0399895CB5
:1016F0000029F5D101990098139A401A00902146CB
:10170000149B00F03BF901998019461807E00398F3
:1017100003990078491C0391149A139990470198F2
:10172000401E0190401CF2D12146149B139A009850
:1017300000F014F986196D1C09E741E033E034E04C
:101740000A200021049005916002410F022905D072
:1017500001CFC2179446032905D007E0FF1DFF08FB
:10176000FF0003CF06E000B2C2179446042902D15D
:1017700040B2C1178C4600226146944506DA0A46FB
:101780000021404291418C462D2102E0210504D5E3
:101790002B216A461176012103E0E10701D02021C7
:1017A000F7E7019154E00A200BE0102009E0102037
:1017B000049000210420044308200591029003E0D6
:1017C00008200021059104906002410F022905D0F4
:1017D00001CF00229446032906D006E0FF1DFF0832
:1017E000FF0003CF8C4603E080B2042900D1C0B2D1
:1017F0000021019121072BD50399702906D0049A65
:101800001021059B4A401A4305D00EE040216A464C
:101810001176012108E06146014306D030216A4675
:1018200011760399517602210191049A0821059BB2
:101830004A401A430CD16146014301D1610707D5E3
:1018400030216A461176012101910299491E0291C7
:101850000399582904D037A103910FA90F910DE0E6
:1018600039A1F9E76146059B049AFFF7D1FD039B77
:101870008C469B5C0F9A521E0F9213706146014377
:10188000F0D10F9807A9081A20300390600704D5FB
:10189000012000048443029801E001200290039992
:1018A000884201DD401A00E00020411802900198B2
:1018B00009180098401A0090E00306D42146149BB2
:1018C000139A009800F05AF886190020049008E056
:1018D00006A9085C149A139990470498401C761C3A
:1018E000049001998842F3DBE0030CD52146149B58
:1018F000139A009800F042F8861904E0149A3020F8
:1019000013999047761C0299481E02900029F5DC35
:1019100008E00F980F990078491C0F91149A1399B9
:101920009047761C0399481E03900029F1DCFBE6E2
:1019300009280100303132333435363738396162A5
:101940006364656600000000303132333435363769
:10195000383941424344454600000000F8B504468A
:1019600000251E461746880404D405E03946202089
:10197000B0476D1C641EF9D52846F8BDFFB5044676
:10198000002581B01E46C80301D5302700E020277E
:10199000880404D505E038460399B0476D1C641EE1
:1019A000F9D5284605B0F0BDD81900000040002048
:1019B0005C03000014150000341D00005C4300208F
:1019C0001400000014150000481D000070430020A2
:1019D00010000000241500000020CF49897A082259
:1019E000114000290BD15721CB4A40321170A82158
:1019F0001170C949897A08221143C74A9172572147
:101A0000C54A40321170A82111700521C24A1181C6
:101A1000C14920310988032252029143BE4A203233
:101A20001180BD49897A10221143BB4A917200216D
:101A3000B94A4032117017E0B74920318979C90796
:101A4000C90F002901D0002000E0401C7D210901C0
:101A5000884209D95721B04A40321170A82111702B
:101A60000121917100211170E6E770B5AA4820307C
:101A7000847BA9484030857B2846FC210840C51C52
:101A8000A5482030008BA549884203DD2046FC2173
:101A90000840441C5720A04940310870A820087015
:101AA0009D48C07B082188439B49C87300209A4900
:101AB00020310871084684739748403085730520AB
:101AC0009549088100209449403108709448006984
:101AD000042108439249086130BF00208E494031FB
:101AE0000870012000F020F970BD8B4A2032907BF5
:101AF000894A4032917BFC220A40D11C864A20321E
:101B0000128B864B9A4202DDFC220240501C572267
:101B1000814B40331A70A8221A707F4AD27B082367
:101B20001A437D4BDA7300227B4B20331A711A461D
:101B30009073794A403291730522774B1A810022C3
:101B4000754B40331A70764A126904231A43744B5A
:101B50001A6130BF0022704B40331A7057221A703E
:101B6000A8221A7001226C4B20335A711A7100227C
:101B7000694B40331A7000BF00BF5722664B403399
:101B80001A70A8221A700D22634B20331A7100229A
:101B9000614B40331A70704710B55F4B2033997B0F
:101BA0005D4B40339A7BFC231340DA1C5A4B2033A5
:101BB0001B8B5A4CA34202DDFC230B40591C5723BC
:101BC000554C40342370A8232370564B0343524C8A
:101BD000203423800023504C40342370572323703B
:101BE000A823237000234C4C20342371234699737F
:101BF000494B40339A730523474C23810023464CBD
:101C000040342370464B1B6904242343444C236116
:101C100030BF0023404C4034237057232370A82347
:101C2000237001233C4C20346371237100233A4C10
:101C30004034237000BF00BF5723374C403423701B
:101C4000A82323700D23344C203423710023324CFD
:101C50004034237010BD10B52F4B2033997B2E4B91
:101C600040339A7BFC231340DA1C2B4B20331B8B15
:101C70002A4CA34202DDFC230B40591C5723264C5F
:101C800040342370A823237009231B030343224CF1
:101C9000203423800023204C4034237057232370AA
:101CA000A823237000231C4C2034237123469973EE
:101CB000194B40339A730523174C23810023164C8C
:101CC00040342370164B1B6904242343144C2361B6
:101CD00030BF0023104C4034237057232370A823B7
:101CE000237001230C4C20346371237100230A4CB0
:101CF0004034237000BF00BF5723074C403423708B
:101D0000A82323700D23044C203423710023024C9C
:101D10004034237010BD000000100040FF3F000061
:101D200000ED00E00490000003B40148019001BD03
:101D3000190F00000102030405060708090001024B
:081D4000030405060000000089
:040000050000009166
:00000001FF
