:020000040000FA
:1000000000800020951700009D1700009F1700003A
:1000100000000000000000000000000000000000E0
:100020000000000000000000000000009F1700001A
:100030000000000000000000A1170000A31700004E
:10004000A5170000A5170000A5170000A5170000C0
:100050004D340000B1700000A5170000A517000086
:10006000A5170000A5170000A5170000A5170000A0
:10007000E1210000A5170000A5170000A51700004A
:10008000A5170000A5170000A5170000A517000080
:100090000348854602F02EFA004800479503000009
:1000A0000080002010B588B004468F4804700A21F3
:1000B0001F2005F003F80121079164210691012119
:1000C000059108210491039132210291FF21F5311C
:1000D000019107AA0121854804F018FA06AA022115
:1000E0008248401C04F012FA814A0D217F48801C8E
:1000F00004F00CFA7F4A14216120C00004F006FAD3
:1001000005AA01213120000104F000FA04AA02210D
:1001100076480C3004F0FAF903AA022173480D3036
:1001200004F0F4F902AA022170480E3004F0EEF94E
:1001300001AA0221C520800004F0E8F96E4A1521C9
:10014000002005F0B9FF0020079001210691002151
:100150000591032104910121039107AA0421812023
:10016000C00003F049FE06AA0121880203F044FE04
:1001700005AA01215D48FD3003F03EFE04AA0121DD
:100180005A48FE3003F038FE03AA01215B4803F011
:1001900033FE0621079107AA0121084600F063F902
:1001A00001F0A0F95649574800F070FD01214E4872
:1001B000007817F0C3FA08B010BDFEB506460F462A
:1001C00014461D4668460670477084702112C1703F
:1001D0000571291241716B4606220121084600F083
:1001E00023FEFEBD00BF00BF00BF704770B50646CE
:1001F0000C460120C003044210D03B48007817F0A1
:1002000029F9050005D02846FFF7ECFF284617F02E
:10021000F6F820460121C903484070BDE007C00F31
:1002200003D0204601214840F7E7022004422BD0AA
:100230003548007864280DDB334800780246FF32E9
:100240007B32FF23653300210846FFF7B6FF00200D
:100250002D4908702C4800780246FF327B32FF237C
:10026000653300210120FFF7A8FF27480078001D13
:1002700025490870642202211B48007817F02AFDE6
:10028000204602214840C8E70020C6E7FFB583B0FA
:1002900007461C460D9E0C9D00200290002C08D1A4
:1002A00000962B783846059A049901F05AF9029085
:1002B00016E0012C08D12B4600963846059A049981
:1002C00001F065F902900BE0022C09D17D22D200E9
:1002D00002210548007817F0FDFC0CA00BF01EFC75
:1002E000029807B0F0BD70470040002005030000F1
:1002F00015400020014000207E7E01000604000021
:100300002C4000202440002038400020737461728B
:1003100074207265706F7274206576656E742E0A33
:100320000000000010B500242046641C0BF022FBE6
:100330002046641C01F0E0FE2046641C07F034FDFA
:100340002046641C06F008FC2046641C04F06AFC8D
:100350002046641C05F02AFC2046641C0BF02AF899
:100360002046621CD4B203F03DFA2046621CD4B28F
:1003700004F0C2FF2046621CD4B203F073FF204693
:10038000621CD4B200F036FB2046621CD4B2FFF7E8
:1003900089FE10BD0C48806A0121490208430A49C0
:1003A000886203210120400201F026FC01F0CDFD0E
:1003B000064907A00BF0B2FB01F01AFEFFF7B2FFEF
:1003C00001E00BF009FBFCE780100040A87F010072
:1003D00025730A0010B50024B249B34804F0C6FFE3
:1003E000B24B10220521B24805F0E2F9044620463E
:1003F00010BDB049086070473EB504462079C0077B
:10040000C00F2AD06088A74905F0BEF90546E80765
:10041000C00F21D0002000906088002301221B2102
:1004200005F0C8FD02900298002814D0A048418D24
:10043000684681800121C1809F4800780299087038
:100440006088002201A905F0FFFB002803D01B21D2
:1004500001A805F00FFE00BF00BF3EBD10B59748D4
:1004600011F090FC10BDF8B504460F461546002665
:10047000012C0AD12878924908708F4800780978B1
:10048000884201DAFFF7EAFF01E0022600BF00BF61
:100490003046F8BD10B502460023002A06D0012AD6
:1004A00008D0022A0AD0032A1CD10BE08248007827
:1004B000087019E082480078087015E07C4840898F
:1004C000088011E008467F4C247804717D4C6478E4
:1004D0004471774C648D0480754C648F4480012492
:1004E000847101E0022300BF00BF184610BD70B543
:1004F00075480068002802D0734800688047FF24D0
:100500002D3472480068002802D070480068804787
:100510006F480088844201DB642523E06D48008831
:10052000844201DC00251DE06B480068002805D0EE
:100530002046694909688847054613E064480088F1
:1005400064490988401A401C86B2B610614909887E
:10055000611A19225143721E8818314601F016FFA4
:10056000C5B200BF284670BD10B5FFF7C0FF0446F6
:1005700051480078844203DA4F480470FFF76EFF59
:10058000002010BD70B5059D049C524E3180504E28
:1005900032804D4E33604D4E34604F4E356070BDED
:1005A000FEB50C4615461E4600200190089800280E
:1005B00001DD0B20FEBD606807786168497809029B
:1005C0000F434648874210D1FFF791FF00903A4908
:1005D00009780098884202DA3749009808700120AB
:1005E00030803548007828700CE03D48874207D1BC
:1005F0000220308002222846E16816F0D2FD01E098
:100600000A2001900198D5E7FFB583B00C46154646
:100610000C9F0026606800786168497809020843E9
:10062000029030490298401820D101200097019093
:100630002A462146069B039804F0BCFE0646002E7F
:1006400013D1287869780902084301901948006895
:10065000002809D00199002901D1022100E00121DF
:10066000084614490968884700BF01E00A2600BF10
:1006700000BF304607B0F0BD70B505460C460A48CD
:10068000401E85420DD0012C07D0022C09D101213A
:10069000284611F0D9FB002803D10249284604F06E
:1006A00065FE70BDC4470020FFFF0000D44000205D
:1006B00084400020E040002081400020F903000039
:1006C000E440002082400020704000207440002060
:1006D0007E4000207C40002078400020192A000045
:1006E00008290000FED6FFFF10B5A94B10221321E8
:1006F000A84805F05DF810BDF8B504460D4616464D
:100700000027002C05D12A463146A34816F049FDA2
:1007100001E0022700BF00BF3846F8BD70B50446AF
:100720000D46002623000BF021FA09060C12181EB4
:10073000242A30363C0008229749284616F031FD1D
:1007400031E00D229549284616F02BFD2BE00E22B4
:100750009349284616F025FD25E0122291492846A6
:1007600016F01FFD1FE012228F49284616F019FDD2
:1007700019E012228D49284616F013FD13E01222CB
:100780008B49284616F00DFD0DE00E2289492846BA
:1007900016F007FD07E007228749284616F001FDFD
:1007A00001E0022600BF00BF304670BDFFB583B038
:1007B0000F461D460D9E0C9C002002907868007824
:1007C000796849780902084301907C4A0198811AA6
:1007D000904267D009DC7A4940180FD0012822D016
:1007E000022835D0032872D147E0012973D00229AD
:1007F0006FD003296ED02929F5D1ABE0082C02D3A4
:10080000072002900EE00820001BB04201D93046BC
:1008100001E00820001B28802A885F4801190598FC
:1008200016F0BFFCB0E00C2C02D3072002900EE0C3
:100830000C20001BB04201D9304601E00C20001B07
:1008400028802A8855480119059816F0AAFC9BE0D3
:100850000D2C02D3072002900EE00D20001BB042A9
:1008600001D9304601E00D20001B28802A884C4821
:100870000119059816F095FC86E0112C02D307208B
:1008800002900EE01120001BB04201D9304601E079
:100890001120001B28802A8842480119059816F06B
:1008A00080FC71E0112C02D3072002900EE0112091
:1008B000001BB04201D9304601E01120001B288006
:1008C0002A8839480119059816F06BFC5CE056E05F
:1008D00001E015E029E0112C02D3072002900EE080
:1008E0001120001BB04201D9304601E01120001B4D
:1008F00028802A882D480119059816F052FC43E0FB
:10090000112C02D3072002900EE01120001BB042F0
:1009100001D9304601E01120001B28802A88244894
:100920000119059816F03DFC2EE00E2C02D307208D
:1009300002900EE00E20001BB04201D9304601E0CB
:100940000E20001B28802A881A480119059816F0E5
:1009500028FC19E0072C02D3072002900EE00720A4
:10096000001BB04201D9304601E00720001B28805F
:100970002A8811480119059816F013FC04E000209C
:1009800028800A20029000BF00BF029807B0F0BD87
:100990003042002000410020E9400020BC7E0100E0
:1009A000C97E0100D77E0100E97E0100FB7E0100C7
:1009B0000D7F01001F7F0100F9400020272A000061
:1009C000DDD5FFFF704710B50446012C0AD1FB4866
:1009D000007805280DD1FA4A0221FA48007817F06C
:1009E00079F906E0022C04D10221F648007817F0CC
:1009F000D1F910BD38B50446F248047001200090CA
:100A00006A460121F04803F0F7F90020C04305F0E1
:100A10003FFB0020C04304F05BFCFFF765FEFFF7DF
:100A2000D9FC00F0DFFDE948FFF7E3FCE84800F0FF
:100A3000E8FD0121E348007816F080FE38BD7047DC
:100A4000FEB506460D461746002003462A461B21E2
:100A50000090E048008805F0ADFA02900298002866
:100A600015D068468680C5802A463946029816F019
:100A700098FB002201A9D748008805F0E5F8044654
:100A8000002C05D01B2101A805F0F4FA00E0132486
:100A90002046FEBD30B502460B46CF480168CF4820
:100AA00004780FE00879904209D14879984206D13C
:100AB0008879CB4D2D78A84201D1084630BD601E03
:100AC000C4B20831002CEDDC0020F7E7FFB583B09D
:100AD000074614461D4638460499FFF7DBFF02908F
:100AE000002834D00299488801A904F05BFF060071
:100AF0002DD0B8480088F16804F046FE00900098B8
:100B0000C007C00F22D0B7480078002808D0B54AE7
:100B10000121AD48F43803F0F9FC0020B149087018
:100B2000029908882A462146FFF78AFF00280BD140
:100B3000AD480770AC490498487008468470224656
:100B40002946C01C16F02DFBFFF779FF00BF07B048
:100B5000F0BD10B5A5480078A5490978884201D1B3
:100B6000002010BD0B21A1480078401C01F00EFCB4
:100B7000C8B29E490870084600780B2148439D4939
:100B80004018EEE710B58D480078052807D1FFF72B
:100B9000EBFC8B4A02218B48007817F09BF810BDC4
:100BA000704710B504462078B02803D12046FFF7DF
:100BB000F7FF00E000BF00BF10BD70B506460C4651
:100BC0000120C003044210D07E48007816F042FC99
:100BD000050005D02846FFF7E4FF284616F00FFC75
:100BE00020460121C903484070BDE007C00F09D06D
:100BF000814803F043FE814803F06EF8204601214E
:100C00004840F1E70420044213D06C4800780528DE
:100C10000BD17BA00AF082FF7E480078002802D02A
:100C2000FFF70DFF01E003F03DFE204604214840A0
:100C3000DAE70220044205D0FFF7A4FF2046022194
:100C40004840D1E7082004421ED0734800780028AD
:100C500016D0FFF77EFF0546002D05D0AA786978EB
:100C60002878EB1CFFF732FF60480078604909786C
:100C7000884203D1204608214840B5E72046B3E723
:100C8000204608214840AFE70020ADE7634A1160E5
:100C9000634A10607047504A1160504A10707047A4
:100CA00008B50021009169464748401C02F026FD26
:100CB0006846007808BDF8B504460D4616461F463E
:100CC000FFF7EEFF00283FDD0B2149480078401C6C
:100CD00001F05CFBC8B246490870084600784349F9
:100CE0000978884208D10B2140480078401C01F067
:100CF0004DFBC8B23D4908703D4800780B21484380
:100D00003C490C543A4800780B2148433949401873
:100D10004570374800780B214843364940188670A3
:100D2000334909780B225143324A8918C81C32468C
:100D3000394616F036FA38480078002804D00821E1
:100D40002048007816F0FAFCF8BD08B530210620DE
:100D500004F0B4F95021072004F0B0F93C2101203F
:100D600004F0ACF9002100916A4601212D4803F0FE
:100D7000CDFB012100916A462A48083803F0C6FBE2
:100D800008BD08B52021062004F098F9302107207D
:100D900004F094F90521012004F090F90321009159
:100DA0006A4601211F4803F0B1FB012100916A4608
:100DB0001C48083803F0AAFB08BD00003C42002094
:100DC000983A00004C4200200D040000C7090000C2
:100DD000C50900004E42002050420020544200202D
:100DE0006A42002040420020D447002041420020B7
:100DF00042420020DF47002044420020307F0100B3
:100E00006869642069646C65206576656E742E2E51
:100E10000A0000003E4200203D42002058420020CF
:100E20005C4200200D030000F8B504460D4616464E
:100E30001F46FC480078052810D1FB4800780028A0
:100E400019D0FA480078FA490978884213D13B460C
:100E5000324629462046FFF739FEF8BDF1480078B2
:100E6000022808D0FFF71CFF002802DDFFF789FFEA
:100E700001E0FFF76AFF3B46324629462046FFF76E
:100E80001AFF00BFE9E708B5E6480078052802D157
:100E900003F008FD06E0002000906A460121E548C5
:100EA00003F034FB08BD10B503460C46002B01D0FF
:100EB000082A01DD002010BD002106E0585CA04298
:100EC00001D00020F7E7481CC1B29142F6DB0120B7
:100ED000F1E7F8B504460D460026002C34D1002D6C
:100EE00030D1D54A51781078FFF7D4FD070018D0DB
:100EF000D14882780021C01CFFF7D5FF00280BD114
:100F0000CD4882780021C01C16F052FACA4A917866
:100F10003888D21CFFF794FD0B220021C64816F03A
:100F200047FAC0480078052801D103F0BBFC002037
:100F3000BF490870BD49087000221146BF4802F041
:100F40005BFF00E0182601E0022600BF00BF30462C
:100F5000F8BD0246002000BF022000BF00BF70475E
:100F600070B504460D462A462146B548008802F071
:100F7000F1FC70BD10B50246B2480168B248037872
:100F80000CE00888904206D18879B04C2478A042C1
:100F900001D1084610BD581EC3B20831002BF0DC49
:100FA0000020F7E7FFB585B00D461E4600200490EF
:100FB00068680078696849780902084304460E9811
:100FC000002805DDA248844202D00B2009B0F0BD04
:100FD0009F48801C84420AD09D482938844206D00C
:100FE0009B481938844202D0401C844218D1688939
:100FF000FFF7C0FF039000280FD0079800960190DC
:1010000003984179007902909248006801232246B2
:1010100007680298B847049050E0002030804DE007
:101020008B4884421DD18C4909880E98884202DB86
:101030000720049042E0884801880E98091A0F980A
:10104000814201DD0F9803E0834801880E98081A59
:1010500030803288EB680E981918079816F0A1F8BE
:101060002CE07B48401E844207D1042030800422BB
:10107000E968079816F095F820E07848844207D18F
:10108000022030800222E968079816F08AF815E0FD
:101090006F48C01C844206D101203080E868017886
:1010A000079801700AE06D48401E844206D1022074
:1010B00030800222E968079816F073F80498002837
:1010C00001D1FFF7BCFC049880E702465D48016847
:1010D0005D48037807E04888904201D10846704790
:1010E000581EC3B20831002BF5DC0020F7E7FFB52E
:1010F00085B01446002004900E98002802DD0B20D5
:1011000009B0F0BD069840680578069949684978A5
:1011100009020D434E48801C854203D04C481938C3
:10112000854214D106994889FFF724FF06000DD0A7
:1011300008A80194009071793079039045480068BF
:1011400000232A4607680398B8470490A4E0404863
:10115000401C85421BD16846008C012814D12078A0
:10116000002802D0207801280BD12278002A01D053
:10117000012200E000221046364A12685168884772
:101180008AE08020049087E00D20049084E03348BA
:10119000801F85422FD101210E9801910090684651
:1011A000038C22460699059804F004F904902CA0BB
:1011B00004990AF0B3FC049800286DD12078617876
:1011C00009020843039006994889FFF77EFF06004D
:1011D00010D008A801940090039A012A01D102229C
:1011E00000E003221346717930791A4A12681768B1
:1011F0002A46B84750E01648C01C85424CD1684684
:10120000008C012846D12078002802D020780128BF
:101210003DD121780698C06801702278002A2FD12C
:1012200002222EE03C4200203D42002041420020AC
:101230004242002005030000D447002009040000BA
:101240004E42002050420020544200206A420020BA
:101250004B2A00005842002060420020082900006C
:10126000777269746520636C69656E742063686168
:101270007220757569642E25782E2E0A00000000F4
:1012800003221046864A12685168884704E080208D
:10129000049001E00D2004900498002801D1FFF78C
:1012A000CEFB04982CE7F3B581B00C467D48066868
:1012B0007D49019888421ED0012C07D0022C1AD1FA
:1012C0000121019810F0C0FD002814D1774805785D
:1012D0000FE07088002809D07088694604F062FB2E
:1012E000070003D0F968019804F040F8681EC5B201
:1012F0000836002DEDDCFEBD08B519218901062058
:1013000003F0DCFE19218901072003F0D7FE00213C
:10131000012003F0D3FE032100916A4601216448B5
:1013200003F0F4F8012100916A466148083803F09F
:10133000EDF808BD10B504215E48007816F02AFDCE
:1013400010BD10B5FFF7F6FF01215B480088FFF7DD
:1013500093F901215848008800F0F5F90121564819
:101360000088FFF7A0FF002054490870012054496D
:1013700008700020534908700B220021524816F0D3
:1013800017F8FFF78DFC002807DD5048006800794A
:101390000221084201D0FFF7AFFF10BD38B5044667
:1013A000052C11D144494248401C02F07FFE002028
:1013B0004249087000906A4601213D48083803F010
:1013C000A5F8FFF73CFB15E041480078052810D14F
:1013D000052C0ED0FFF7B5FF01203E4908703E48AE
:1013E0000078042806D1FFF7B0FC00203A490870C5
:1013F00000E000BF3648047038BD70B506460C46A4
:101400001546002C03D101202E49087019E0012C4B
:101410000AD100202B490870002D02D10120274954
:1014200008702D4805700CE0022C09D1002D08D160
:101430000120224908702048008800F009F900E0E6
:1014400000BF2648007826490978884208D01B4802
:101450000078002804D008211648007816F06EF9AC
:1014600070BDFFB581B005460C4616460C480068B5
:1014700000280DD00A4800688068002808D0084875
:1014800000688768324621462846049BB84704E036
:1014900000221146204602F05DFA05B0F0BD0000C2
:1014A0005842002050420020FEFF0000544200201D
:1014B0000D0300004C4200204E4200203D4200201F
:1014C0006A4200203E420020D44700205C420020B7
:1014D0003C420020404200203F4200204142002088
:1014E0004242002010B500243449354803F03EFF45
:1014F000344B10221221344804F05AF90446324881
:10150000C1690220FEF7C6FF3048007830490871F3
:101510002E48407848712C48C030408908802A48BD
:10152000D03040894880012088712A4801782848B5
:101530000173284841782648417327484089244947
:101540000881002122484181012181730146103127
:101550000320FEF79FFF1E490320FFF79CFB204658
:1015600010BDF0B50546059C00201C4E96190BD108
:10157000032907D1012B03D12678194F3E7002E0D1
:101580000D2000E00A2000E000BF00BFF0BD30B534
:101590000546039C114810180AD1032905D11048AB
:1015A000007820700120188001E00020188002E0FF
:1015B0000020188000BF00BF002030BD7048002010
:1015C000FFFF000094430020744200206C42002082
:1015D000584800206F42002074430020B3D5FFFF1D
:1015E000A243002010B500246249634803F0BEFE08
:1015F000624B10220621624804F0DAF804462046C5
:1016000010BD60490860704710B50346002000BF58
:10161000022000BF00BF10BD10B502460020002A06
:1016200002D0012A10D107E0574B1B78564C647842
:10163000240223430B8009E0534B9B78524CE478FF
:10164000240223430B8001E0022000BF00BF10BD35
:101650003EB504464749204604F096F80546E8079B
:10166000C00F21D00020034601221B2100902046FC
:1016700004F0A0FC02900298002814D0404850309A
:101680004189684681800121C1800020029908704B
:10169000002201A9204604F0D7FA002803D01B211C
:1016A00001A804F0E7FC00BF3EBDF0B505AC70CC6E
:1016B0000020F0BDFFB583B00D4614461E46002045
:1016C00002900C98002802DD0B2007B0F0BD68687E
:1016D00007786968497809020F432C4887421FD16F
:1016E000042E1AD1207861780902084301902078ED
:1016F000617809020843009001990098884209DC4A
:1017000032462146E86815F04CFD01201D49096864
:10171000884701E08020029013E00D20029010E045
:101720001B4887420BD101210C9833462246019178
:1017300000902946039803F03DFE029001E00A2044
:1017400002900298C1E770B505460C460A48401E53
:1017500085420DD0012C07D0022C09D10121284649
:1017600010F072FB002803D10249284603F0FEFD69
:1017700070BD000080480020FFFF000008440020EA
:10178000A843002014440020184400204F2A0000E1
:10179000022900000448804704480047FEE7FEE7AE
:1017A000FEE7FEE7FEE70000B11700009100000031
:1017B0005720FC490870A82008708520F949403955
:1017C0000881704700B55721F64A1170A8211170A1
:1017D00003000AF0CBF90D081522272D33383D42BE
:1017E000484E545A6000EF492039C97B0422914386
:1017F000EC4A203AD173C521EA4A403A11814BE0C4
:10180000E8492039C97B04221143E64A203AD173C2
:10181000C521E44A403A11813EE0E349E14A403AB9
:10182000118139E0E0498339DE4A403A118133E0E1
:1018300081218900DB4A403A11812DE08521D94A76
:10184000403A118128E00221D64A403A118123E032
:101850000421D44A403A11811EE093218900D14AE3
:10186000403A118118E0D0493639CE4A403A1181C8
:1018700012E095218900CB4A403A11810CE04B21BE
:10188000C900C84A403A118106E0C7492739C54A0C
:10189000403A118100E000BF00BF00BD5721C14A9E
:1018A0001170A8211170002808D1BE49403909895A
:1018B00052159143BB4A403A118108E0B949403979
:1018C0000989012252021143B64A403A11817047F8
:1018D0005721B44A1170A8211170002808D1B149CC
:1018E0004039098952159143AE4A403A118108E0C6
:1018F000AC4940390989012252021143A94A403AB0
:101900001181704770B5A74D403D2C89A7495725D7
:10191000A44E3570A8253570A34D833DA14E403EA1
:10192000358157259F4E3570A82535700125B57432
:101930009F4A4AE000BF9B4DAD7C02263542FAD05B
:10194000984D288A00BF974DAD7C02263542FAD1CA
:1019500000BF944DAD7C02263542FAD0914D288AC5
:101960005725904E3570A825357088420ADD8D4D7B
:10197000203DAD896D1C8B4E203EB5811346451A26
:10198000AAB209E0874D203DAD896D1E854E203EEF
:10199000B58113460D1AAAB2934216DA5725814E25
:1019A0003570A8253570884207DD7E4D203DAD8914
:1019B0006D1E7C4E203EB58106E07A4D203DAD89FE
:1019C0006D1C784E203EB58100E0B3E700BF57257F
:1019D000744E3570A8253570724D403D2C81002520
:1019E000B57470BDF0B585B004460E461546182195
:1019F000206800F0B5FC80B202901821206800F049
:101A0000AFFCE120C000414330881E22504308183B
:101A10002F88F90FC9194910401880B20190287811
:101A2000C007C00F02D00120C00300E000200090DA
:101A300001980390039801040098014303915720F3
:101A400058490870A82008705649403902984863E0
:101A500054482038407C802108435249203948743A
:101A600050494039039848634E482038407C402113
:101A700008434C492039487400204A49087005B091
:101A8000F0BDF0B585B004460D46164645484038D1
:101A9000C06B8004800C039042482038408B029039
:101AA00040482038008B0190029841000122D20367
:101AB0000198904201DB012000E000200F18E12195
:101AC0000901384600F04CFC0146182203985043A7
:101AD00008182060E1210901384600F041FC00911E
:101AE0003C21009800F03CFC28803C21384600F066
:101AF00037FC318005B0F0BD57212A4A1170A8216A
:101B0000117028494039486326492039497C4022D0
:101B10001143244A203A51740021224A117070471F
:101B200020484038816B806B884203D01D48403884
:101B3000806B70470846FCE757211A4A1170A821AC
:101B4000117018492039497C17229143154A203ACF
:101B500051741146497C102202431143114A203A24
:101B60005174704700B50346FFF7DAFFC21810043E
:101B7000000C02D00120000412180E48824200D34B
:101B8000121A572007490870A820087005484038E5
:101B9000426304482038407C202108430149203911
:101BA000487400BD4010004085020000C4090000D8
:101BB000FFFF00000000C0A80146002904D10D4825
:101BC000007C8022104070470A48007C4022104070
:101BD000F9E7002802D0012808D103E02021054AB6
:101BE000117404E01021034A117400E000BF00BF2B
:101BF000704700002010004000B50B0009F0B6FF50
:101C0000050412202E3842009B4A526B82439A4BA5
:101C10005A631A46126B82431A631A46126A824347
:101C20001A6230E0944A526B8243934B5A631A46CD
:101C3000126B02431A631A46126A82431A6222E046
:101C40008D4A526B02438C4B5A631A46126B824385
:101C50001A631A46126A82431A6214E0864A526B69
:101C60008243854B5A631A46126A02431A620AE09B
:101C7000814A526B0243804B5A631A46126A0243EE
:101C80001A6200E000BF00BF00BD00B50B0009F004
:101C90006DFF0504142434404C00774A40325269E9
:101CA0008243754B40335A611A46126982431A6166
:101CB0001A46126882431A6038E06F4A403252690D
:101CC00082436D4B40335A611A46126902431A61CE
:101CD0001A46126882431A6028E0674A4032526905
:101CE0000243654B40335A611A46126982431A61B6
:101CF0001A46126882431A6018E05F4A40325269FD
:101D000082435D4B40335A611A46126802431A609F
:101D10000CE0594A403252690243574B40335A61F2
:101D20001A46126802431A6000E000BF00BF00BDFF
:101D3000002906D001290ED0022916D0032928D166
:101D40001DE04D4A928A82434B4B9A821A46D26AD0
:101D50000243DA621EE0484A928A8243464B9A82E4
:101D60001A46926A02439A6214E0434A928A0243F4
:101D7000414B9A821A46D26A0243DA620AE03E4A2C
:101D8000928A02433C4B9A821A46926A02439A62B2
:101D900000E000BF00BF384B98831A46128A024306
:101DA0001A827047002906D0012911D002291CD0BF
:101DB000032934D126E0304AD28A82432E4BDA827C
:101DC0002D4A4032D26802432B4B4033DA6027E081
:101DD000294AD28A8243284BDA82274A40329268C3
:101DE0000243254B40339A601AE0234AD28A0243C9
:101DF000214BDA82204A4032D26802431E4B4033E4
:101E0000DA600DE01C4AD28A02431B4BDA821A4A7E
:101E1000403292680243184B40339A6000E000BFA2
:101E200000BF154BD8831A46528A02435A82704724
:101E3000002807D0104A803A128B0A430E4B803B91
:101E40001A8306E00C4A803A128B8A430A4B803B85
:101E50001A837047002807D0074A803A528B0A43FA
:101E6000054B803B5A8306E0034A803A528B8A43F3
:101E7000014B803B5A837047801000400146062981
:101E800004D1264800780822104070472348407942
:101E900001228A401040F8E7572020490870A82006
:101EA000087008468079012108431C4988717047F1
:101EB0001B49096801600021C943194A8032116039
:101EC000704717490860704716488069704710B519
:101ED00000210AE0022201E000BF00BF1346541EA9
:101EE000A2B2002BF8D14B1C99B28142F2DB10BD9B
:101EF00030B50446002505E07D20C000FFF7E7FF70
:101F0000681C85B2A542F7DB30BD00BF064AD27A15
:101F1000082AFBD0044B18727047000040100040A4
:101F200000E100E000E000E00034004070B504464D
:101F300021462D4800F014FA05460A21681D00F0DC
:101F40000FFA054629498D8170BD10B5E120400288
:101F5000FFF7ECFF8720254988700320C8704020D8
:101F600048700120887310BD20498978C0229143B0
:101F7000820111431D4A9170704700280BD01B4A03
:101F800052780A43194B5A701A46127808231A439A
:101F9000164B1A7004E0154A52788A43134B5A7054
:101FA0007047802011494870704710B50A4609E013
:101FB0000E4BDB7A082B05D003780C4C2372401CA7
:101FC000531E9AB2002AF3D110BD0146002005E04D
:101FD000064A127A0A70491C421C90B2034A927A4D
:101FE000002AF5D170470000005A62020034004018
:101FF00030B58FB0572061490870A820087060483C
:102000005E494039088100205C4908703C2200216B
:10201000684615F0CDF95B4800900120000301905F
:1020200059480290052007905020099000980028F8
:1020300004D0012109030198884201D200BFFEE7C4
:10204000684601F025FAC5B2002D04D04FA009F072
:1020500065FD00BFFEE7524C601E411C884200D95E
:102060000DE0601E4F4948610F210020C04300F081
:102070004DF800204B4988610720086100BF49489E
:1020800000690221884347490861474809F098FCE4
:102090000FB030BD70B506460C460120C0030442A7
:1020A0000DD0304615F0D6F90546002D02D0284651
:1020B00015F0A5F920460121C903484070BDE0078D
:1020C000C00F03D0204601214840F7E701208003DC
:1020D00004420FD035A009F021FD7D22D20101215B
:1020E00089033348007815F0F5FD20460121890366
:1020F0004840E3E70020E1E710B504462C480470AF
:1021000000F076F800F0F1F862B610BD10B50028C6
:1021100019DA284A03071B0F083B9B089B00D2587B
:102120008307DC0EFF23A3409A430B071B0E840793
:10213000E40EA3401A431F4B0407240F083CA408D5
:10214000A4001A5118E01C4A03231B02D21883086A
:102150009B00D2588307DC0EFF23A3409A430B0752
:102160001B0E8407E40EA3401A43134B03242402DE
:102170001B198408A4001A5110BD00004010004033
:10218000850200009048002000EE03004C494220E8
:10219000696E6974206572726F722E2E2E0A0000AD
:1021A000FFFFFF0000E000E0C91E00002A20000041
:1021B0001D4400201CED00E000E100E00104090CDA
:1021C00002D00121090440185721124A1170A82198
:1021D000117010494039486300210F4A116070475F
:1021E00030200C492039087401200B4908607047E1
:1021F000572008490870A820087006482038C07B7E
:102200000721084303492039C87300200149087099
:10221000704700004010004020440020F8B50446FC
:102220006846FFF745FEFFF77BFC0546601B40490B
:10223000884209D90098FFF744FE2A4621463DA06E
:1022400009F06CFC0120F8BDAC4202D3601B5028A1
:1022500004D20098FFF735FE0220F4E72046FFF78E
:10226000ADFF0098FFF72DFE00E000BF3548C07AB3
:102270000028FAD1002601E000BF761C1920C00119
:102280008642F9D3572030490870A82008702E489C
:10229000203800880321490208402B492039088052
:1022A00008460088294908432749203908802848DA
:1022B00025494039088100202349087025480068D5
:1022C000002800D130BF57201F490870A82008708F
:1022D0001D4840380089802108431B494039088146
:1022E00000201949087000BFADE710B55720164906
:1022F0000870A820087014484038807B08210843E3
:1023000011494039887310482038407C2021084307
:102310000D492039487400200B4908700C20012118
:1023200081400D4A116000BF0C4809F04FFB10BD01
:10233000401F0500212074313A25782025782E2E63
:102340002E0A0000003C0040401000401E9100009A
:10235000050200002044002000E100E01D220000F2
:1023600030B50B46014600202022012409E00D462D
:10237000D5409D4205D31D469540491B25469540B5
:1023800040191546521E002DF1DC30BD70B50024F9
:102390002546002801DA01244042002901DA0125FE
:1023A0004942FFF7DDFFAC4200D04042002C00D094
:1023B000494270BDF0B51FB40646002082B0054604
:1023C0004024019100901BE0019922460F463046BF
:1023D00000F07FF8049A059B801A994110D31046AB
:1023E0001946224600F053F8361A8F4101972246CB
:1023F00001200021009F00F04AF838184D4100905C
:102400002046641E0028DFDC019B009829463246E6
:1024100007B0F0BDF0B51FB486B000200090019069
:1024200002900698069980B204900798090C02045D
:102430000014114307900027089D099806913E4615
:102440003C4603900398A9B20204000C0390049840
:102450002D0C154348430021224600F018F8C719F7
:10246000714110340E46402CECDB3846029A00F0E5
:102470000EF8009A019B8018009059410298019132
:10248000103002904028CCDB00980BB0F0BD10B5A6
:10249000202A04DB0146203A9140002010BD9140E3
:1024A00020239C1A0346E3401943904010BD034685
:1024B0000B439B0703D009E008C9121F08C0042A78
:1024C000FAD203E00B78491C0370401C521EF9D26B
:1024D000704710B5202A04DB0846203AD04000217E
:1024E00010BD0B46D340D0402024A21A914008438F
:1024F000194610BD064C0125064E05E02046E3684E
:1025000007C82B4398471034B442F7D3FDF7C4FDF6
:10251000508001007080010070B58C180578401C57
:102520006B075B0F01D10378401C2A1106D102789A
:10253000401C03E00678401C0E70491C5B1EF9D15C
:102540002B0705D40023521E0DD40B70491CFAE74B
:102550000378401CCB1A921C03E01D785B1C0D70A5
:10256000491C521EF9D5A142D8D3002070BD0000ED
:1025700010B503467748006800680624A043754CF0
:102580002468206018785C78240204199878000484
:102590002018DC78240600196E4C2468A062187993
:1025A0005C7924020419987900042018DC79240647
:1025B0000019684C2468E062187A5C7A24020419D5
:1025C000987A00042018DC7A24060019614C2468EB
:1025D0002063187B5C7B24020419987B000420187C
:1025E000DC7B240600195B4C2468606308784C7817
:1025F00024020419887800042018CC7824060019D5
:10260000544C2468A06108794C7924020419887913
:1026100000042018CC79240600194E4C2468E0618F
:10262000087A4C7A24020419887A00042018CC7A9B
:1026300024060019474C24682062087B4C7B240246
:102640000419887B00042018CC7B24060019414C17
:10265000246860623F48006840680224A0433D4C03
:10266000246860603B480068406840084000401CA7
:10267000384C2468606037480068006840084000B3
:10268000401C344C2468206000BF32480068406819
:102690008007C00F0028F8D02E4800684068022448
:1026A000A0432C4C246860602A4800688069107040
:1026B0002848006880690004000E507025480068B2
:1026C00080690002000E9070224800688069000E48
:1026D000D07020480068C06910711E480068C06949
:1026E0000004000E50711B480068C0690002000E13
:1026F000907118480068C069000ED07115480068D4
:10270000006A107213480068006A0004000E5072DC
:1027100010480068006A0002000E90720D480068C0
:10272000006A000ED0720B480068406A10730948B6
:102730000068406A0004000E507306480068406A52
:102740000002000E907303480068406A000ED073C8
:10275000002010BDA44700200148024908607047CE
:1027600000C30040A447002070B503460C46434810
:102770000068FF2501352840002824D003203F4D64
:1027800028601EE001213D480068082528433B4D94
:1027900028600BE03948006801256D0228400028B8
:1027A00004D00020354D2860002106E03348006841
:1027B000FF25013528400028ECD000BF002900D1BA
:1027C00000E0DFE700BF2E4D10682D6828612C4D1A
:1027D00050682D6868612B480068294D2D68A861F4
:1027E00028484068264D2D68E86126488068244DB9
:1027F0002D6828622348C068214D2D6868622248F0
:1028000000681F4D2D68A8621F4840681C4D2D6848
:10281000E8621D4880681A4D2D6828631A48C06810
:10282000174D2D68686319480068154D2D68A8601C
:1028300016484068124D2D68E8601148006800682D
:102840002025A8435D012026354028430C4D2D68E6
:1028500028600B48006800684025A8434030084DB8
:102860002D68286006480068806A074D2D68A842D8
:1028700001D0012070BD0020FCE7000080C30040B3
:10288000A4470020EC5C0020FC5C00200C5D0020D4
:1028900010B50023594C24682360584C24682361E8
:1028A000564C24686361C378847824021C194378E9
:1028B0001B04E318047824061B19514CE360C37908
:1028C000847924021C1943791B04E3180479240633
:1028D0001B194B4CA360C37A847A24021C19437AD7
:1028E0001B04E318047A24061B19454C6360C37B60
:1028F000847B24021C19437B1B04E318047B2406FD
:102900001B193F4C236023461B683C4C2468A36181
:102910003B4B5B68394C2468E361394B9B68374C0F
:1029200024682362364BDB68344C246863620B787E
:102930004C7824021C198B781B04E318CC782406ED
:102940001B19304C23600B794C7924021C198B79AC
:102950001B04E318CC7924061B192A4C63600B7AFC
:102960004C7A24021C198B7A1B04E318CC7A2406B7
:102970001B19244CA3600B7B4C7B24021C198B7B02
:102980001B04E318CC7B24061B191E4CE360234672
:102990001B681A4C2468A3621A4B5B68174C2468A6
:1029A000E362184B9B68154C24682363154BDB6866
:1029B000124C246863631378547824021C199378AA
:1029C0001B04E318D47824061B190F4C23601379D9
:1029D000547924021C1993791B04E318D479240632
:1029E0001B19094C636023461B68044C2468A360D0
:1029F000054B5B68014C2468E36010BDA4470020D0
:102A0000EC5C0020FC5C00200C5D002070B50446EE
:102A10000D462946204605F085F80646024930460F
:102A200003F0A6FB002070BD06040000F8B50546C3
:102A30000E461446002D06D0002E04D0002C02D0E5
:102A40002088002809D1122100916A4601210448FA
:102A500003F084FB68460078F8BD0020FCE7000026
:102A6000350C000038B504460D462946204604F0D2
:102A7000DFFB00906A460121024803F06FFB6946C4
:102A8000087838BD1120000008B504F031FE009030
:102A90006A460121024803F061FB6946087808BDD7
:102AA00010200000FFB585B004460D46109F0E9E15
:102AB000002004900F980297009601902946204626
:102AC000089B079A04F019FE04900349049803F048
:102AD0004FFB049809B0F0BD1320000008B505F0C5
:102AE00013F800906A460121024803F037FB0020EA
:102AF00008BD00000E20000038B50446204605F051
:102B000022FB69460870684644702004010E68463E
:102B100081706A460321024803F020FB002038BD83
:102B20001B20000038B504460D462946204605F016
:102B30003FFB69460870684644702004010E6846F1
:102B400081706A460321024803F008FB002038BD6B
:102B50001A2000000EB500A8013005F08AFF694672
:102B600008706A460921024803F0F8FA00200EBDF9
:102B70001820000008B500A8013005F09BFA69464E
:102B800008706A460421034803F0E8FA69460878A9
:102B900008BD000002200000FFB585B004460D46C8
:102BA0000F9F0E9E1098019700960290294620468E
:102BB000089B079A05F0D4FF694608746846447478
:102BC0002004010E6846817404AA0321024803F020
:102BD000C5FA002009B0F0BD2020000038B5044639
:102BE0000D462946204606F00BFB00906A4601215F
:102BF000024803F0B3FA6946087838BD082000009F
:102C000038B50446204606F053FA00906A46012182
:102C1000024803F0A3FA6946087838BD0A2000008C
:102C2000FFB585B00EACF0CC0397029601950094E9
:102C300005A80FC806F002FB049004AA012103486E
:102C400003F08CFA6946087C09B0F0BD062000004C
:102C500038B50446002C04D0204606F033FB009023
:102C600001E0122000906A460121034803F076FA41
:102C70006846007838BD00000520000038B50446DD
:102C80000D462946204606F02BFB00906A4601219E
:102C9000024803F063FA6946087838BD0C2000004A
:102CA00038B504460D462946204606F067FB0090DD
:102CB0006A460121024803F051FA6946087838BD96
:102CC00009200000F8B504460D4616461F463B464F
:102CD00032462946204606F0C2FB00900249009881
:102CE00003F046FA0020F8BD192000001CB500A82A
:102CF000013005F0CDFE694608706A460721034899
:102D000003F02CFA694608781CBD00000910000089
:102D100038B5044600A90331204605F0C9FE6946CE
:102D20000870684644702004010E684681706A4647
:102D30000421024803F012FA002038BD05140000F7
:102D4000F8B505460E4614461F46E2B23B463146EC
:102D5000284606F075F9F8BD70B5024600200B460E
:102D60001E780546401C56559E780546401C565513
:102D70005C8825120646401C95551E790546401C68
:102D8000565570BD70B5024600200B461E780546AC
:102D9000401C56551C8825120646401C955570BD92
:102DA00003460A4610888004000C704710B503469D
:102DB0000A46907818709078012804D11088800015
:102DC000401C80B210BD108812246043401C80B2A9
:102DD000F8E770B5024600240B461E782546641CB1
:102DE0005655188805122646641C955558880019B2
:102DF00080B270BD70B5024600240B461E78254691
:102E0000641C5655188805122646641C95559E78F4
:102E10002546641C5655588805122646641C95554F
:102E20009888001980B270BD03460A461088704722
:102E300010B503460A46907818701088548860438D
:102E4000401C80B210BD10B503460A469078187039
:102E5000108854886043401C80B210BD03460A4667
:102E60001088704703460A4610887047F0B585B051
:102E700007460C4616461D46022C04D0102C02D0E4
:102E8000002005B0F0BD022D03D0102D01D0002090
:102E9000F7E7AC4205D122463146384614F06EF9C8
:102EA000EFE7102C09D16946304600F011F81022E6
:102EB0006946384614F062F9E3E76946384600F09F
:102EC00007F810226946304614F058F9D9E7000097
:102ED00070B505460C46002D01D0002C01D1002014
:102EE00070BD10220449204614F05BF92878207345
:102EF000687860730120F3E74080010038B505462B
:102F00000C4600202346012202490090284609F081
:102F10000BF838BD592D000038B505460C46208801
:102F2000172808DB00202346032204490090284686
:102F300008F0FAFF38BD0220FCE70000852D0000F4
:102F400038B5044600200346192201460090204669
:102F500008F0EAFF38BD0000F8B505460C4600262B
:102F6000208800280FD0606800280CD001216068FC
:102F700014F0AAF80646234607220449284600967C
:102F800008F0D2FFF8BD0220FCE70000A12D0000F0
:102F9000F8B505460C460026A078012802D0A07896
:102FA000022812D1208800280FD0606800280CD099
:102FB0000221606814F088F8064623460522044979
:102FC0002846009608F0B0FFF8BD0220FCE700009C
:102FD000AD2D000070B505460748854203D103F0CA
:102FE000A9FD044606E028460EF0A8FE0446002C83
:102FF00000D11724204670BDFEFF0000F8B505463D
:103000000C4600266068002804D00321606814F094
:103010005BF8064623461D2202492846009608F022
:1030200031FFF8BDD32D0000F8B505460C4600264B
:103030006068002804D00321606814F045F8064653
:1030400023461B2202492846009608F01BFFF8BDC4
:10305000D32D000070B50546049C022B06D11078D4
:103060005678360230432080002070BD0420FCE7F3
:1030700030B50546039C012B03D110782070002049
:1030800030BD0420FCE7F8B5074614461E46069DF1
:10309000062E1BDB20786178090208432880A0787F
:1030A000E178090208436880022028710222211D6C
:1030B000681D14F076F8B01F2881062E02D100207A
:1030C000E86001E0A01DE8600020F8BD0420FCE7F6
:1030D00070B50546049C042B0BD110785678360247
:1030E000304320809078D6783602304360800020CC
:1030F00070BD0420FCE7FEB507460C46BD89002DD7
:1031000001D10120FEBDBE68307802908021029876
:103110000840002801D1019015E00D2D01DA0120B1
:10312000F0E728460C3885B27019009078882B4655
:103130003246012108F0E8FA002802D0022001906E
:1031400001E0012001900198207002984006C00F14
:10315000607002988006800EA070681EA080A08813
:10316000002802D0701CA06001E00020A0600020B8
:10317000C8E770B50546049C042B14DB107856781C
:103180003602304320809078D67836023043608013
:10319000181FA080042B02D0101DA06001E00020A9
:1031A000A060002070BD0420FCE770B50546049CBB
:1031B000042B0BD11078567836023043208090785B
:1031C000D678360230436080002070BD0420FCE7D2
:1031D000F8B5074614461E46069D062E02D102206B
:1031E000287106E0142E02D11020287101E004207D
:1031F000F8BD20786178090208432880A078E1783A
:103200000902084368802A79211D681D13F0C9FF4F
:103210000020EDE770B50546049CD807C00F0028D4
:1032200001D1022B01D1042070BD1846DE0F3618E3
:10323000F603360CA68022600020F5E770B505463F
:10324000049C022B06D11078567836023043208039
:10325000002070BD0420FCE770B50546049C022BDD
:1032600011DB257261721078567836023043208067
:10327000981E6080022B02D0901C606001E000204C
:103280006060002070BD0420FCE70000F8B5064631
:103290000C46A568002D04D00521284613F014FF24
:1032A00005462346172203493046009508F03CFEA8
:1032B000F8BD0000F52D0000F8B506460C4665681F
:1032C0006068002804D00121284613F0FDFE054661
:1032D00023460D2202493046009508F025FEF8BD30
:1032E000292E0000F8B505460C4600262088002847
:1032F0000FD0606800280CD00221606813F0E4FE53
:1033000006462346112204492846009608F00CFE82
:10331000F8BD0220FCE70000312E0000F8B505469C
:103320000C460026208800280FD0606800280CD0AA
:103330000221606813F0C8FE0646234609220449AC
:103340002846009608F0F0FDF8BD0220FCE70000DA
:10335000472E0000F8B506460C46606800280CD0E1
:103360000121606813F0B0FE054623460F22044990
:103370003046009508F0D8FDF8BD0220FCE70000BB
:103380005D2E0000F8B505460C4600266068002852
:1033900004D00121606813F097FE064623460B22F5
:1033A00002492846009608F0BFFDF8BD652E0000D2
:1033B00001490860704700006047002070B506466C
:1033C0000C460948864205D0172C03DB03F0B2FBFC
:1033D000A04201DA012504E0214630460EF04EFD00
:1033E0000546284670BD0000FEFF000038B50446C3
:1033F00000200346132201460090204608F094FD69
:1034000038BD000007480849086000200968886343
:103410000648054909680860054803490968C86203
:103420007047000000C1004044470020A522080169
:10343000381E01008106890E024A1143024A1268B1
:1034400011607047C0220801444700200020024953
:1034500009688863704700004447002010B5FFF7F3
:103460007BF900F0F9F803F017FD06F0ABF9FFF770
:10347000C9FF5D2005490968086506F0F5FA07F0FF
:1034800067FE06F08FFA06F031FA10BD48470020BB
:1034900010B504463C220021434813F089FF206800
:1034A000002801D1012010BD3F49206808606068F4
:1034B000002801D10220F6E73B4960684860A06817
:1034C000002801D1886002E03749A0688860E06880
:1034D000002804D1012040023349C86002E032498B
:1034E000E068C8602069002803D101202E490861E6
:1034F00002E02D49206908616069002803D11B2082
:103500002949486102E0284960694861A0690028AA
:1035100003D10A202449886102E02349A069886117
:10352000E069002803D101201F49C86102E01E495B
:10353000E069C861206A002803D115201A49086291
:1035400004E0208C8006800E17490862606A00281B
:1035500004D0606A14301449486202E05A201249CB
:103560004862A06A002802D00F49A06A8862E06A17
:10357000002803D00C49E06AC86202E008200A492A
:10358000C862206B002802D00749206B08633920ED
:10359000005D842806D106222146343102483430A9
:1035A00013F0FFFD00207EE79058002010B50020AA
:1035B0000E2121E0124A128801239B031A400A417E
:1035C0000243D0B20E4A12885204120C0C4B1A80DD
:1035D0001A4612880123DB031A40D213084B1B88BA
:1035E0000124A40323409B135A40054B1B881A4314
:1035F000034B1A804A1ED1B20629DBDC10BD000045
:103600005647002010B50020082120E0114A1288FA
:10361000FF2301331A400A410243D0B20D4A1288F7
:103620005204120C0B4B1A801A46128801235B02BB
:103630001A405212074B1B88202423405B115A402A
:10364000044B1B881A43034B1A804A1ED1B200292F
:10365000DCDC10BD54470020014802490860704777
:1036600000C00040A84700200146FD208C220B4BE3
:103670005A723F221203914208D21A465160A62282
:103680001A721A46927A40235A401046034A527AD6
:103690008C239A43014B5A72704700000018004077
:1036A00010B500241BE00E216143114A8818062240
:1036B000FF2113F07DFE0E2161430D4A8918881DFC
:1036C0000622FF2113F074FE00210E206043084AF9
:1036D00080188181002007490855601CC4B2032C62
:1036E000E1DB002014F042F803200349087010BD0C
:1036F000805C0020CA460020CD46002070B50546FB
:103700000C46002601208002281A030008F02EFA39
:103710000F090D1115191D23272B432F33373B3F5D
:1037200043002348007820703EE022480088208033
:103730003AE021480078207036E020480078207078
:1037400032E01F48007820702EE010221D492046EC
:1037500013F027FD28E01C480078207024E01B4867
:103760000078207020E01A48006820601CE01948AA
:103770000078207018E018480078207014E017488E
:103780000078207010E01648007820700CE009F0F6
:1037900079F8207008E0272D04DA284601F034FA81
:1037A000208000E0022600BF00BF304670BD000050
:1037B000B1460020B2460020B4460020B5460020A5
:1037C000B6460020705C0020B7460020BA460020B4
:1037D000BC460020B8460020B9460020C046002064
:1037E000C846002010B504460248047009F0D2F91A
:1037F00010BD0000B0460020FFB58FB000200D9036
:103800000E900DAA10990F9800F078FA0446032C38
:103810005FDA204609F095F9054634480078022819
:1038200001D1012000E0002000902A462146129B91
:10383000119808F0F7FF1422002108A813F0B8FD32
:103840002146062251432431C8B208AA102114F09F
:103850006BF8002815D11022FF2108A813F07CFC7A
:1038600000280ED12146062251432531C8B20CAAA8
:10387000042114F059F8E907C90F08AA119801F0BA
:103880002FFC21467031C8B202AA182114F04CF85E
:10389000002814D102A809F068F900260CE0B00055
:1038A00002A947183888002804D0BA7839881198B6
:1038B00001F0F0FF701CC6B2062EF0DB00BF022044
:1038C0002840002804D00A480178119801F0CEFF62
:1038D00000BF1298042806D104480078022802D1BB
:1038E000119809F0C1F9002013B0F0BDB1460020D5
:1038F000B046002070B5054601F01EFA002824D11C
:103900001248007801280AD109F00EF800200F496A
:103910000870032200210E4813F04AFD10E0002435
:103920000BE00B48005D012805D1204609F00CF89A
:10393000002007490855601CC4B2032CF1DB00BF0E
:10394000502013F021FF09F025F970BDC946002071
:10395000CA460020F8B504460D4616460027002D3D
:1039600010D10B493046FEF7FBFC0E46214630468F
:1039700001F006FA0746002F08D00121204601F089
:10398000DBFB03E02946204601F0D6FB3846F8BDB4
:1039900040420F0070B506460C460120C00320408F
:1039A000002812D03848007813F054FD051E07D0C7
:1039B000284609F00FFA002802D0284613F01FFD10
:1039C00020460121C903484070BD02202040002844
:1039D00017D00021084608F0BDFD002808D00121BD
:1039E0002948007813F0AAFE204602214840EBE760
:1039F00002212548007813F0A1FE2046022148400C
:103A0000E2E7E007C00F002833D020490968888822
:103A100009F0FCF9002823D01D480068002816D0C2
:103A20001B4800684068002811D018490968888838
:103A30001749096800224B68012198471349096812
:103A400088881349096800224B680321984706209B
:103A500013F04AFF08F06AFD204601214840B3E711
:103A600001210948007813F069FE204601214840F1
:103A7000AAE704202040002803D020460421484023
:103A8000A2E70020A0E70000B0460020D0460020BA
:103A9000C4460020F0B585B00446A078801F03001E
:103AA00008F064F80AFDFCFC9C2506FCFC8AB3FCCB
:103AB00025468248006800280DD0804800680068CC
:103AC000002808D06B7B2A7B69897C4800680668DF
:103AD000E81CB0470AE069897948006801F050F9AC
:103AE000002803D06889012101F026FBE3E0254688
:103AF00000266878002845D1A879C007C00F0028A3
:103B000040D07048006800283CD10E220021684651
:103B100013F04EFC6869002807D06869014610312F
:103B20000622684613F03DFB0DE0A8880EF0A2F8CF
:103B30000746002F05D00622B91D684613F031FB59
:103B400000E0B8E000BF69468889A97904221140E5
:103B5000890808436946888108F094FE032801D14A
:103B6000FFF79EFD2946684608F0F4FC002807D1BF
:103B700002215548007813F0E1FD002005B0F0BDAA
:103B8000152600BF4D480068002814D04B48006837
:103B9000406800280FD06A78A888484909684B68AF
:103BA00001219847002E06D0A8884449096832466A
:103BB0004B68032198477EE025464048006800286E
:103BC0000BD03E4800684068002806D06278A8887C
:103BD0003A4909684B68022198476CE02546E87825
:103BE0000022291D00F08AF80646032E0CDA314621
:103BF000062251432531C8B22A460C32042113F063
:103C0000E5FE032013F070FE55E025462F480078AE
:103C1000002805D0A8882E49097801F08DFA43E0E4
:103C20002C480078002804D1A888052101F084FAE6
:103C30003AE0A8880EF01EF80646002E00D13AE0C1
:103C4000A87AC007C00F002814D07079002811D0BE
:103C5000A8898005C00F00280CD1707902AAB11D77
:103C600000F04CF8002804D1A888032101F064FA80
:103C700021E000BF7179A8882A46083208F030FD9B
:103C80000E48006800280ED00C48006840680028E4
:103C900009D0A88809490968002201E00AE004E087
:103CA0004B681146984700BF05E02546A888FFF7F6
:103CB00021FE00E000BF00BF01205FE7C4460020F6
:103CC000BC460020D0460020B0460020B846002068
:103CD000B9460020B146002010B5044605480460EE
:103CE00005480178262001F0E9F90348007801F041
:103CF00059FD10BDC4460020B0460020F8B5064668
:103D00000F4614460325002E06D0012E05D0022EA4
:103D100011D0032E29D11BE000BF384608F098FED1
:103D20000546032D06DA002C04D00622394620462B
:103D300013F037FA1AE0384608F0CCFE0546032D9A
:103D400005DA002C03D02146284608F0DDFE0DE000
:103D5000384608F059FF0546032D05DA002C03D03C
:103D60002146284608F0D0FE00E000BF00BF2846EC
:103D7000F8BD0000F8B506460C46152000901C481A
:103D8000864214D100250AE022460221284608F086
:103D900091FD002801D000200090681CC5B2032DC1
:103DA000F2DB002C02D013480DF0ECFF1DE0304692
:103DB0000DF060FF0546002D14D068790022A91D82
:103DC000FFF79CFF0746032F06DA224602213846FA
:103DD00008F070FD00200090002C02D0284608F06A
:103DE00039FF01E01420009000BF0098F8BD0000EA
:103DF000FFFF000055CC0000FEB506460D461446F8
:103E00000020029001208002301A030007F0AEFE6D
:103E1000110A161F2B37434E5A6370ABB7C3D2E556
:103E2000E585E500012D06D12078022803DC207805
:103E30007249087001E018200290DBE0022D03D1E6
:103E400020886F49088001E018200290D2E0012DFF
:103E500006D12078012803DC20786A49087001E047
:103E600018200290C6E0012D06D12078042803DC3A
:103E700020786549087001E018200290BAE0012D11
:103E800006D12078012803DC20786049087001E021
:103E900018200290AEE0102D05D1102221465C487A
:103EA00013F07FF901E018200290A3E0012D06D164
:103EB0002078012803DC20785649087001E018209A
:103EC000029097E0012D03D120785349087001E05A
:103ED000182002908EE0042D07D1504920688842B6
:103EE00003D84F492068086001E01820029081E063
:103EF000002D0FD100F020FF002807D108F014FD9D
:103F0000502013F041FC08F045FE05E00120454932
:103F1000087001E0182002906CE0072D20D10622E5
:103F2000611C684613F0FAFB207800226946FFF70F
:103F3000E5FE0746032F10DA00F0FEFE002808D148
:103F4000384608F001FD502013F01EFC08F022FE58
:103F500005E001203449C85501E00220029001E04B
:103F60001820029046E0012D06D12078012803DCBC
:103F700020782E49087001E0182002903AE0012DC7
:103F800006D12078092803DC20782949087001E04F
:103F9000182002902EE0012D09D12078072806DB99
:103FA0002078102803DC20782249087001E01820CE
:103FB00002901FE0012D0DD11F48077820781E497F
:103FC0000870002F05D108460078012801D108F0BB
:103FD000E1FD01E0182002900CE0272E07DA022D07
:103FE00005D12188304601F069F8029001E00220F5
:103FF000029000BF00BF0298FEBD0000B146002045
:10400000B2460020B4460020B5460020B646002047
:10401000705C0020B7460020BA4600203F420F00E7
:10402000BC460020C9460020CA460020B8460020F1
:10403000B9460020C0460020C8460020F7B582B02F
:1040400005460E4615200190174885420FD10024E1
:104050000AE031462046049A08F022FE002801D0EA
:1040600000200190601CC4B2032CF2DB18E028464B
:104070000DF000FE0446002C0FD060790022A11D37
:10408000FFF73CFE0746032F06DA31463846049A0E
:1040900008F006FE0020019001E01420019000BF0E
:1040A000019805B0F0BD0000FFFF000070B50546A7
:1040B0000C46002603200002281A030007F056FDD4
:1040C0001C0F13191F23292D31383F43474D5155DC
:1040D000595D6165696D71777B7F8B83878B444800
:1040E0000078207080E010224249204613F059F8F1
:1040F0007AE010224049204613F053F874E03F481C
:104100000068206070E006223D49204613F049F81F
:104110006AE03C480078207066E03B4800882080D8
:1041200062E03A4802783A49204613F03AF85BE0F8
:10413000384802783849204613F033F854E03748BD
:104140000078207050E03648007820704CE006225D
:104150003449204613F025F846E0334800782070B3
:1041600042E03248007820703EE0314800882080EC
:104170003AE030480088208036E02F4800782080E0
:1041800032E02E48008820802EE02D4800882080D4
:104190002AE02C480088208026E02B4800882080D8
:1041A00022E006222949204612F0FBFF1CE02848A5
:1041B0000088208018E027480088208014E02648E6
:1041C0000088208010E02548007820700CE024480A
:1041D0000078207008E0272D04DA284600F014FD4E
:1041E000208000E0022600BF00BF304670BD000006
:1041F000DE460020AA5C0020BA5C0020E4460020D5
:10420000E8460020E0460020E2460020DF4600208D
:10421000EE4600200D470020CA5C00200E4700201B
:104220000F470020104700201647002017470020A6
:10423000184700201A47002022470020244700206A
:1042400026470020284700202A4700201C4700203E
:104250002C4700202E47002030470020DD4600205C
:104260003247002010B504461F48047000201F4943
:104270000870401E1E4908801B48007800F0C2FEEE
:1042800004201C490870102200211B4813F090F8EC
:1042900010220021194813F08BF8002018490860FB
:1042A000184908701849087007201849087000203C
:1042B00017490870104A1021022013F035FB0F4AED
:1042C0001021032013F030FB10220B49114812F08B
:1042D00068FF10220949104812F063FF084A0421C0
:1042E000084613F021FB10BDDC460020DD4600200F
:1042F00018470020DE460020AA5C0020BA5C00209F
:10430000E44600200E4700200F47002016470020FB
:1043100017470020505C0020605C0020FEB5064678
:104320000C460120C0032040002810D04B480078E4
:1043300013F090F8051E05D028460AF049F82846E3
:1043400013F05DF820460121C9034840FEBD01205D
:104350008003204000280CD0414A0421084613F075
:1043600035FB022013F0C0FA2046012189034840A2
:10437000ECE7E007C00F00283ED03A48007800285C
:1043800036D039480078052803D1022069460870E4
:104390000CE0364801786846017035480178684677
:1043A000417006223349801C12F0FBFE324801782E
:1043B000684601723148017868464172694627486B
:1043C000007800F041FC002811D007202649087031
:1043D0002B48006800280AD0294800680068002897
:1043E00005D02748006801681F480078884700BF4B
:1043F000204601214840A9E702202040002816D08D
:104400001948007805280ED11E48008802F027F8C8
:104410001D480088002806D01B48028802210F484A
:10442000007813F057FC2046022148408EE7042014
:104430002040002806D000200AF040F82046042141
:10444000484083E708202040002805D009F0E4FD1B
:1044500020460821484079E7002077E7DC46002025
:10446000E4460020E0460020DD4600200E47002004
:104470000F47002010470020164700201747002054
:10448000A8460020184700201A470020F8B5044627
:104490000D4617461E4617480078052801D01420FF
:1044A000F8BD062C23DB1920C00184421FDA062D3B
:1044B0001DDB85421BDAFF20F530874217DA0A2E12
:1044C00015DB1920C001864211DA0B4804800B4825
:1044D00005800B4807800B480680069809F0EEFF20
:1044E00004210948007813F055FC0020D8E7182073
:1044F000D6E70000DD4600202447002026470020A4
:10450000284700202A470020DC460020F8B5064650
:104510000C46154600200090C0483018030007F0F4
:1045200025FB1B0F1A25FD2E6B748EA8B4C0CBD7AC
:10453000FDE3FCFBFAF9F8FDFDFDFDF7FDF6FD00DE
:10454000102C05D110222946B54812F02AFE01E0B0
:10455000182000905FE1102C05D110222946B148A7
:1045600012F01FFE01E01820009054E1042C03D14A
:10457000AD492868086001E0182000904BE1012C4B
:1045800037D1AA4807782878A8490870002F14D096
:1045900008460078002810D1A5480078022807D0E6
:1045A000A3480078062803D0A148007804281FD12A
:1045B000A048007800F0F6FA1AE0002F18D19B48C6
:1045C0000078002814D09A48007801280BD0984829
:1045D0000078032807D096480078052803D094482F
:1045E0000078042804D101219248007813F0A6F83D
:1045F00001E0182000900EE1022C03D128888E499A
:10460000088001E01820009005E11F2C14DC1F2217
:1046100000218A4812F0CCFE22462946874812F033
:10462000C0FD87480470854B0278012181480078DD
:1046300000F0EEFD009001E018200090EBE01F2C50
:1046400014DC1F2200217F4812F0B2FE22462946C8
:104650007C4812F0A6FD7C4804707A4B0278002159
:104660007448007800F0D4FD009001E0182000901C
:10467000D1E0012C06D12878112803DC2878734971
:10468000087001E018200090C5E0012C06D12878C0
:10469000032803DC28786E49087001E01820009098
:1046A000B9E0062C05D1062229466A4812F079FDA8
:1046B00001E018200090AEE0012C06D128780728F0
:1046C00003DC28786449087001E018200090A2E01B
:1046D000012C06D12878032803DC28785F4908706C
:1046E00001E01820009096E0022C1BD128885C493C
:1046F000088008460088002816D04D480078052814
:1047000012D10846028802214A48007807E06CE08E
:1047100051E041E033E023E013E006E06EE013F007
:10472000D9FA01E01820009075E0012C06D1287814
:10473000012803DC28784B49087001E0182000901C
:1047400069E02888022C08D1062806DB1921C90156
:10475000884202DC4449088001E0182100915AE0B7
:104760002888022C08D1062806DB1921C9018842B5
:1047700002DC3E49088001E0182100914BE02888C6
:10478000022C06D1FF21F531884202DA384908802F
:1047900001E0182100913EE02888022C08D10A2867
:1047A00006DB1921C901884202DC3249088001E098
:1047B000182100912FE02F78012C13D1012F11D156
:1047C00008211C48007812F0B9FC002807D109F034
:1047D00075FE04211748007813F0DCFA04E0162077
:1047E000009001E01820009015E0012C03D12878FA
:1047F0002149087001E0182000900CE0272E07DA0C
:10480000022C05D12988304600F058FC009001E0C8
:104810000220009000BF00BF0098F8BDFFFCFFFF22
:10482000AA5C0020BA5C0020E4460020E04600209C
:10483000DD460020DC460020E2460020EE46002057
:10484000DF460020CA5C00200D4700200E470020F4
:104850000F47002010470020164700201747002070
:104860001A47002022470020244700202647002026
:10487000284700202A4700203247002010B5044670
:1048800006480078002807D1002C01D004480460B5
:1048900009F0FCFD002010BD1120FCE7DD460020E2
:1048A000A846002010B507480078052807D1132234
:1048B000054801880548007800F04EFC10BD122024
:1048C000FCE70000DD46002018470020DC46002001
:1048D000F8B505460F46002D58D028880DF0CAF9C6
:1048E0000646002E50D02B480078022808D02948D0
:1048F0000078012804D0307B082803D1002F01D094
:10490000122444E024480068002801D011243EE02D
:1049100001212C2012F06AFC1F490860084600683B
:1049200000282FD02C2200211B48006812F040FDE7
:1049300028881949096848801C22291D16480068E2
:10494000001D12F02EFC02201349096808702A8805
:10495000104B9978337B082B01D1012300E0002311
:1049600018460D4B1B681B1D06F06AFE0446002FFF
:1049700003D03946304610F045FD002C07D008F032
:1049800005FC04E0132402E0142400E00224204685
:10499000F8BD00005847002068440020FFB581B0F2
:1049A0000F46164623480078022803D02148007895
:1049B000012801D112253AE0002E37D001980DF0E0
:1049C00059F90446002C2FD0A06A002802D0A06A12
:1049D00012F060FC1C21304612F0F7FBA062A06AC6
:1049E00000281FD0207B08280FD1049800280CD065
:1049F000A06A807E0090A06A03461233028A0146B4
:104A0000019811F0DBF9054600E00025002F04D0E5
:104A1000207906210843207109E020790421084308
:104A2000207104E0132502E0142500E00225284649
:104A300005B0F0BD5847002010B5074800780821A0
:104A40000840002803D0054809F0D4FA02E000200D
:104A500009F0D0FA10BD0000584700207C47002024
:104A600070B5054601212248007808F0CDFB2148A9
:104A700000780A210840002833D01D4805701E48E0
:104A800009F0B2FA1D480068002801D0132070BD5B
:104A900017480078002829D0154909780801012114
:104AA00012F0A4FB1549086008460068002816D0DB
:104AB0000F480078020100211048006812F078FCCD
:104AC000002406E0FF2021010C4A12685054601CAB
:104AD000C4B2074800788442F4DB0020D7E71320F3
:104AE000D5E700200249087009F07EFA0020CEE7E1
:104AF0006847002058470020744700206C4700207A
:104B0000FFB581B00D4616461F460224012D06D082
:104B1000022D0ED0042D17D0082D3CD127E02946B8
:104B2000019800F00DF90446002C01D100F06CF959
:104B300033E02946019800F003F90446002C02D125
:104B40003046FFF78DFF28E02946019800F0F8F87D
:104B50000446002C0AD138460B9A0A9900F060FAF4
:104B600000F052F900F036F906F01AFD15E029467A
:104B7000019800F0E5F80446002C0BD138460B9A5A
:104B80000A9900F04DFA3046FFF76AFFFFF754FF2D
:104B900006F022FC01E0022400BF00BF204605B061
:104BA000F0BD000070B505461348006800281FD00E
:104BB000114800680078A84218D11049887802216D
:104BC00013F0E8F800200E4908800C498878042189
:104BD00013F0E0F800200B494871032006490968EA
:104BE0004870002001F0E4FB044602E0032400E0EA
:104BF0001224204670BD00007C440020584700204D
:104C0000864700203C5A00200146272901DB034843
:104C100070474800024A105AFAE70000FFFF000000
:104C20008444002010B50446FF200549C87005499A
:104C3000C870084684708878052102F0AFF810BD6E
:104C40003C5A00205847002070B506460D463448AF
:104C50000068002801D0112070BD3248007805217D
:104C60000840002801D11220F6E72F4800680028EC
:104C700004D02D4800680078002801D11020EBE70F
:104C800028480078C007C00F002806D100F054F86B
:104C900026490978884200DA08E02878062804D0F6
:104CA0002878022801D0122437E000BF01210C200F
:104CB00012F09CFA1A4908600846006800282BD0B8
:104CC0000846006806700846006808600020096809
:104CD00048700A22294612480068801C12F061FAC6
:104CE00009F0EAFD0446002C02D008F03FFA14E077
:104CF0000F488078032810D11D20FFF785FF0C494D
:104D0000487108464079002807D006498878094A42
:104D1000042112F0CBFF00E0132420469CE70000A2
:104D20007C44002058470020884700204E46002041
:104D30003C5A00200077010010B50DF00BF810BDB3
:104D400070B504460D46202200210B4812F030FBBE
:104D50000948C4700948057001F06EFB0646002E34
:104D600004D0002004490870122602E00120024904
:104D70000870304670BD00003C5A002058470020A3
:104D80007FB504460E4630460CF074FF00281AD05A
:104D90000F48844215D210220021684612F008FB09
:104DA000684604702004010E684641702002010E1E
:104DB00068468170210EC170314606F021FB054620
:104DC00002E0022500E01225284604B070BD000074
:104DD00040420F0010B5094800780421084000281F
:104DE00007D0074809F012F90020C0430549C880E0
:104DF00002E0002009F00AF910BD00005847002029
:104E0000A04700203C5A002010B52A48006800281E
:104E100006D02848006812F03DFA002025490860B5
:104E200025480068002806D02348006812F032FAAE
:104E30000020214908602148007805210840002809
:104E400033D01F4809F0DCF81C48007805210840E1
:104E5000002828D00121202012F0C8F91549086047
:104E60000846006800281ED0202200211148006852
:104E700012F09EFA0121202012F0B8F90E490860C4
:104E800008460068002807D0202200210A48006850
:104E900012F08EFA002010BD0648006812F0FAF9F0
:104EA0000020044908601320F5E7002009F0A8F865
:104EB0000020F0E788470020904700205847002056
:104EC00094470020FEB50C460120C0032040002876
:104ED00022D04749887812F0BDFA0546002D16D039
:104EE0002878A22802D14348C67801E04048C67815
:104EF000284608F0F7FE002801D1FF2E03D12846EE
:104F000012F07DFA03E02946304612F0EBFA204613
:104F10000121C9034840FEBDE007C00F002811D0A1
:104F200035480068002809D03348006840680028E8
:104F300004D031480068416800208847204601219C
:104F40004840E8E702202040002811D02B480068A4
:104F5000002809D0294800684068002804D0274864
:104F60000068416801208847204602214840D2E776
:104F700004202040002839D01E48407900282CD039
:104F80001C484079401E1B49487108464079012859
:104F900028D11B48006800280FD00120087117484D
:104FA0000068002809D0154800684068002804D02F
:104FB0001248006841680120884708F093F90746C5
:104FC0006946384606F07FF9684608F00DFE1D2058
:104FD000FFF71AFE0749487104E005498878042163
:104FE00012F0D8FE20460421484094E7002092E7C2
:104FF000584700203C5A00205844002060440020BC
:105000007C4400200149C8707047000058470020C8
:1050100070B504460D462946204606F095FA70BD47
:1050200070B505460C4616460E4846610461C560DB
:1050300010220021204612F08FF8012804D10949DE
:10504000086910210FF05AFE10220021284612F0A4
:1050500083F8012804D10349C86810210FF04EFEDF
:1050600070BD00003C5A0020F0B585B006460F46E2
:1050700030460CF0FFFD0546002D17D0287B042894
:1050800012D10C480068002802D00A480068877DC9
:105090003946684610F0CFFE074B6A46022130467B
:1050A00010F034FE044602E0122400E014242046EE
:1050B00005B0F0BD68440020916401000246272A33
:1050C00002DA0548814201D1022070475000034BAB
:1050D00019520020F9E70000FFFF0000844400207F
:1050E000F7B50F46164613480078022803D011483A
:1050F0000078012801D112251AE0002E17D000985F
:105100000CF0B8FD0446002C0FD0002F03D02079FE
:10511000022108432071102231462046143012F03B
:1051200040F831696162002502E0142500E00225A3
:105130002846FEBD5847002038B505460C4628468F
:105140000CF098FD002805D000946946284610F020
:10515000CBFD38BD1420FCE7F8B504460D461646D5
:1051600012200090264885420FD12648006800286A
:1051700043D024480068006800283ED021480068D9
:105180002946026820469047F8BD1D48401C8542CC
:1051900023D11C480068002812D01A480068006813
:1051A00000280DD01748006829460268204690471D
:1051B000002805D114480470144806700020E3E765
:1051C0003146204607F080F900900098002814D15D
:1051D0000D4804700D4806700FE028460CF04AFD9B
:1051E0000746002F09D03878A04201D00320CBE732
:1051F0003146284600F0CAFFC6E70098C4E7000021
:10520000FEFF00005C440020554400205444002070
:10521000F8B507460D4614461E4629480078052174
:105220000840002801D11220F8BD002D05D02548E6
:105230000068002807D11220F6E7234800680028FC
:1052400001D11220F0E7202C37DA002C01D0002EFB
:1052500033D01E480770002D17D01F220021194897
:105260000068401C12F0A4F8224631461548006838
:10527000401C11F096FF1348006804701148016843
:10528000491C204601F08CF8CEE71F2200210E4871
:105290000068401C12F08CF8224631460A4800682B
:1052A000401C11F07EFF0848006804700648016841
:1052B000491C204601F09EF8B6E70220B4E7000042
:1052C000584700208847002090470020844700204E
:1052D00070B504460025E007C00F002806D0044B37
:1052E00010220421034800F063FA0546284670BDE9
:1052F0002C460020EC45002070B506461648067086
:105300001649174800F032F800241AE00020C04384
:10531000A101144A5052002510E00022A0011149B9
:105320004018001D0C2169434252A0010D4940184C
:10533000001D0C216943401882606D1C052DECDBBB
:10534000641C032CE2DB0448007800F0D9FC06481A
:105350000CF038FD70BD0000734500205E5B00203E
:10536000FFFF00008C5A002021F2000070B50646B5
:105370000C460F4886420DD1002008E00021C943A9
:105380008200A1520021820012199170401C032852
:10539000F4DB0CE02146304609F00AFF0546002DFB
:1053A00004D00020C04328800020A87000BF70BD3A
:1053B000FFFF0000FFB581B00C4615461F460020D8
:1053C00000900A9800281ED1022F19D128786978F8
:1053D00009020843064631460B98814300290CD147
:1053E000E168019800F0D0F9B04208D03246E16897
:1053F000019800F0A3FA009001E08020009004E002
:105400000D20009001E00B200090009805B0F0BD49
:1054100070B506460D460120C003284000281BD069
:105420000E48007812F016F80446002C0FD02078B1
:10543000B02809D120460AF0DDF8002804D02179EF
:105440002046083000F016FE204611F0D8FF01205B
:10545000C0034540284670BD0020FCE7734500208E
:10546000FFB58FB00D461C46189E00200E90287A7E
:1054700010210840002814D0119809F08DFE0490E6
:105480000498002802D10E2013B0F0BD0A2229464C
:10549000049B0F9898470E900E98002801D00E9804
:1054A000F2E7287802281AD0119809F0A5FE039097
:1054B0000398002811D00398006800280DD01A9A8C
:1054C00019991B9801920091029003983346224645
:1054D000294607680F98B847D6E70E20D4E76868D2
:1054E000007869684978090208430D902922120260
:1054F0000D98811A904272D009DCA049401A0FD051
:1055000001280ED002281ED0032869D16AE00129A3
:1055100067D002297ED003297DD00429F5D1F0E09F
:1055200000BF199800280CD1E86807900798007808
:105530003080079802784168204611F032FE0E98BC
:10554000A2E70B20A0E71998002801D00B209BE7C9
:10555000E8680078E9684978090208430C9004205B
:105560003080E86800782070E868407860700BA9A7
:105570000C9800F017FA06900698002824D0069898
:10558000C06807900AAB6846828D7D49069800F096
:105590007DFA00280AD106980378022142687948EA
:1055A000FDF764FC002801D1401E0A90079800789E
:1055B00002280BD1079802224168201D11F0F1FD4D
:1055C0003088801C308001E00C980A906846008D7D
:1055D000A0706846008D0012E0700E9854E737E026
:1055E000B1E044E01998002830D101203080E8680B
:1055F000007820706989491C88B2002100F0D2F936
:105600000690069800280CD13088001D30800422B6
:10561000002101E053E065E0601C11F0C9FE0E9826
:1056200032E7318806980078801C08183080069888
:10563000807A6070069840890012A07006980278FF
:105640004168E01C11F0ADFD0E981DE70B201BE733
:105650001998002809D102203080E868007820706D
:10566000E868407860700E980EE70B200CE7E86859
:1056700012F0A7FB80B2089019990898884201DAC5
:10568000072001E708991998884202D1002030804C
:105690000CE019991A9841180898814204DB19996D
:1056A0000898401A308001E01A9830803288EB6800
:1056B00019981918204611F074FD0E98E4E619980F
:1056C00000280DD1E9680F9800F05EF809900220DB
:1056D0003080099820700998001260700E98D3E607
:1056E0000B20D1E61998002809D102203080E86803
:1056F00000782070E868407860700E98C4E60B204F
:10570000C2E6199800281CD1E8680590072030806F
:10571000059800782070059840786070059880782A
:10572000A070059840880012E070059800792071FB
:105730000598807960710598C0880012A0710E9854
:10574000A2E60B20A0E6119809F056FD03900398FD
:10575000002811D00398006800280DD01A9A1999D2
:105760001B980192009102900398334622462946E5
:1057700007680F98B84787E60E2085E600280000E6
:10578000FFFF00001A80010070B505460E46314645
:10579000284609F00DFD0446002C01D0A07870BD0C
:1057A0000020FCE7014908707047000072450020A6
:1057B000FFB583B005461F46002D02D1022007B079
:1057C000F0BD694604980880059888700195684680
:1057D00000F09CFA02900298002824D1002F22D0D9
:1057E0006889002801D10220E9E701210C2011F08D
:1057F000FDFC0446002C14D0002020606889A080A5
:10580000A7600A480068002808D00848066800E039
:10581000366830680028FBD1346004E00348046037
:1058200001E0132002900298C9E700007C450020A7
:10583000F8B505460E4617460B480078FF2812D0EB
:105840000A2011F0C4FD0446002C0CD0B1202070B9
:105850006580002060702071E68027812146024823
:10586000007811F03FFEF8BD7245002070B5044687
:105870000D4607492046FFF787FF02210840002810
:1058800004D02946204600F0B3FA70BD0120FCE7A1
:105890005E5B0020FEB505460E4614460294FE20CF
:1058A0000021022302AA009101903146284600F00F
:1058B00001F8FEBDFFB583B002A9049800F072F8AC
:1058C0000546002D33D06846008909F095FC064650
:1058D000002E2AD07068002827D00D990C980191CD
:1058E000009077682946069B059A0398B8470446B6
:1058F000002C1DD10D98FE281AD02878022817D127
:105900006868007869684978090208430A4988424A
:105910000ED1059800780599497809020843024696
:1059200004990398FFF784FF02E00E2400E00124AD
:10593000204607B0F0BD000002290000F8B505467A
:105940000F4616463946284609F032FC0446002C1C
:1059500009D13946054809F02BFC0446002C01D139
:105960001120F8BD2580A6700020FAE7FFFF000097
:1059700010B504462078B02811D1607800280ED1E7
:105980002079122803D1607C012804D010BD207931
:105990001B2800D0FAE76088012101F0D1F800BF90
:1059A000F4E70000F0B502460E461048016819E021
:1059B0008B685C89A24214DB8F883819904210DD15
:1059C00000250CE02801C0184089904205D1002E26
:1059D00000D034802801C018F0BD681C85B2BD42DB
:1059E000F0DB09680029E3D10020F5E780450020BD
:1059F000FFB585B00E9F00200490234806683EE066
:105A0000B56868890390B0880290002427E02001DF
:105A100040194189059881421FDB200140194189C5
:105A20000698814219DC012004900898002811D0C2
:105A30002001295C2001401940680190089B079AC9
:105A4000FDF714FA002802D0012004900AE000209B
:105A5000049002E00120049004E0601C84B20298EB
:105A60008442D4DB00BF0498002807D0002F01D067
:105A7000039838802001401909B0F0BD3668002E27
:105A8000BED10020F8E7000080450020FFB585B0BA
:105A9000044616461F460020039004906089224960
:105AA00088420BD004A8009023786089401C80B203
:105AB000626802900699FFF79BFF0390237802210A
:105AC0001A486268FDF7D2F9002807D1237802212D
:105AD00017486268FDF7CAF9002804D060890AF007
