:020000040000FA
:1000000000800020551400005D1400005F14000003
:1000100000000000000000000000000000000000E0
:100020000000000000000000000000005F1400005D
:1000300000000000000000006114000063140000D4
:1000400065140000651400006514000065140000CC
:1000500065140000651400006514000065140000BC
:1000600065140000651400006514000065140000AC
:10007000651400006514000065140000651400009C
:10008000651400006514000065140000651400008C
:100090000348854602F022FE00480047B7000000F2
:1000A0000080002010B5002804D001464DA002F0C9
:1000B00049FEFEE710BD022000F0C8F91021012022
:1000C00001F0E2F8052000F0D7FC4A498A6A4C1595
:1000D00022438A620121080200F0C0FB032120466E
:1000E00000F0BCFB01F06DF842484038417842A274
:1000F00044A002F027FE4A49484808604949403078
:10010000086000F014FF00F063F9474D0020474EEF
:100110002870474900208A79D20705D001248C71C4
:1001200000F0CAFC152803D02978002904D101E089
:100130002C7001E015284ED100202870C82000F056
:100140009BFC00F01BFF002845D13A4F042038707B
:10015000002439A002F0F6FD02F0BEF8010009D03B
:1001600039A002F0EFFD322000F086FC641CE4B2FE
:100170000A2CEED1387805282DD335A002F0E2FD07
:1001800035A12A4802F05EFD02F0A1F9FFF78AFFCF
:1001900035A002F0D7FD21483649803002F0E2FD5B
:1001A000C7B200241D4837808030706002F004FC24
:1001B000FFF778FF214630A002F0C4FD641CE4B2D2
:1001C0000A2CEFD331A002F0BDFD0120307002F007
:1001D00015F9FFF767FF642000F04EFC012000F0E6
:1001E00094FC96E74572726F723A20253032580AB5
:1001F000000000008010004031363A35313A333883
:1002000000000000537461727420404368697049B3
:10021000443D25303258202573200A007800002004
:100220000400002008000020010000205C010020E4
:10023000008000400D0000205761697420446973FC
:100240006B52656164790A00253032780A0000003B
:100250004372656174650A002F4E455746494C4507
:100260002E54585400000000427974655772697426
:10027000650A00004C320000B3C9B9A6D0B4C8EB7F
:100280002025303258B4CE0A00000000436C6F7352
:10029000650A0000F3B55B4C06460025204681B098
:1002A0000830594F009059493046097888400099E4
:1002B00002F0DBFC80202073554800210078607339
:1002C0000A20A0732820E073524821740068020EAF
:1002D0006274020CA274020AE27420756175A17541
:1002E000E6752176029801F0ECFA3878002807D0FC
:1002F000284601F04EFC38703878002801D0387854
:10030000FEBD6D1CEDB2032DCDD31F203870FEBD98
:10031000F3B53C4C06460025204681B008303A4FE4
:1003200000903A49304609788840009902F09DFCD7
:10033000002137482173007860730A20A0732A20B7
:10034000E073344821740068020E6274020CA274D7
:10035000020AE27420756175A175E675217602982E
:1003600001F0AFFA3878002808D0284601F011FCD7
:1003700038703878002806D03878FEBDC82000F0E4
:100380006BFB0020FEBD6D1CEDB2032DC9D31F20F9
:100390003870FEBD2049C8784006400EC870C87845
:1003A0001E4A022802D0C87803280CD1C8784878A1
:1003B000C00701D000207047C8784879C00702D034
:1003C00002201070F6E70120107016207047704769
:1003D00010B501F07FFF102801D2FF2010BD114998
:1003E0000F480860104908600C4900200870074A4F
:1003F0000921117001210D4A490211800C49086040
:1004000010BD0000B80000200C00002010000020EB
:100410001100002040000020008000400D0000205E
:100420007C01002044000020480000201E00002025
:1004300024000020F84857210170A8210170F64AD5
:100440008821403A1181002101707047F0B5F24EC9
:10045000F14D04275722A824203E403DEE490300D9
:1004600002F094FC0D080E161B1F24282C32373C7A
:1004700041462F000A700C70F07BFB22104003E015
:100480000A700C70F07B3843F073C820288118E0A4
:100490000A700C705120C000F8E70A700C70DF4839
:1004A000F4E70A700C7081208000EFE70A700C708E
:1004B0008820EBE70A700C700220E7E70A700C70E6
:1004C0002F8100200870F0BD0A700C70932080000E
:1004D000DCE70A700C70D1484D30D7E70A700C7019
:1004E00095208000D2E70A700C704B20C000CDE749
:1004F0000A700C70C9485C30C8E7C74810B540386E
:100500000089C1B20B069A0FC548022A05D0012AFC
:1005100004D09A0F06D07D20000210BDC906C90E76
:10052000C04801E0C906C90E02F064FB10BDBA4A1A
:1005300057211170A8211170B74940394B15002877
:10054000088904D018430881002010707047984330
:10055000F9E7B14A57211170A8211170AE4920392D
:100560000028C87B05D004231843C87300201070EE
:100570007047FB231840F8E7A74810B540380089BA
:10058000C0B20206910F022909D00124A403012957
:1005900007D0910F09D005200005000D10BDA2481D
:1005A000FAE7C106C90EA14802E0C106C90EA0487B
:1005B00002F020FB0019C00BEEE7F0B5964B572573
:1005C0001D70A8261E7001229A74934F994A203FED
:1005D000914CA37C9B07FBD5238AA37C9B07FCD46F
:1005E000A37C9B07FCD5238A25702670BC898B428F
:1005F00004D92418BC8114465A1A03E0241ABC8179
:100600001446CA1A92B29442E2D2834A1570167006
:100610008B42B98901D9081A00E00818B881157011
:100620001670002090741070F0BDF8B5FFF7A4FFAD
:100630000027794E84463C463A46203E7F1CBFB296
:10064000154661460320FFF7B8FFB2892846954258
:1006500001D9801A00E0101A032804DC641CA4B23B
:10066000032C03D800E00024052FE7D900273546E6
:100670007F1CBFB2164661460120FFF79EFFAA8984
:10068000964201D9B01A00E0901B012804DC641CDA
:10069000A4B2022C03D800E00024052FE8D9F8BD4D
:1006A00070B50D461446182102F0A4FA83B2E12079
:1006B000C00041431E20454348196108401881B2DB
:1006C000E00701D00120C0030A0402435249572029
:1006D0000870A8200870504C403C63634E48203896
:1006E000437C80252B4343746263427C40231A433E
:1006F00042740020087070BDF7B5064646480D46A6
:100700004038C06B84044448A40C2038418B008BD3
:1007100001224900D203904201D3012000E00020D1
:100720000F18E1210901384602F064FA18225443F7
:100730000019306008463C2102F05CFA28803C2118
:10074000384602F057FA02980180FEBD324957221E
:100750000A70A8220A70304A403A50632E48203866
:10076000427C40231A4342740020087070472A4993
:100770004039886B8A6B8242FBD1704710B5264A9C
:1007800057211170A8211170234920394B7CE8248E
:1007900023404B744B7C1024204303434B740020B4
:1007A000107010BD00B50346FFF7E1FFC01801044B
:1007B000090C02D00121090440181F49884201D3C5
:1007C00049424018144957220A70A8220A70124A56
:1007D000403A506310482038427C20231A43427428
:1007E0000020087000BD0021C00700D010210A4879
:1007F00057220270A8220270074A203A537C8B438A
:100800005374002101707047034920390028087C87
:1008100014D0402108407047401000400202000000
:100820000048E80100389C1C1313000000180D8FCD
:1008300000688909FF0F00000000C0A8C009C001BE
:10084000E9E70549002804D00128E4D11020087404
:10085000E1E72020FBE700002010004000B5524AED
:100860000B0002F093FA0504071016191F00516BD4
:1008700081430AE0516B81435163116B0143116362
:10088000116A81430DE0516B01435163116B814348
:10089000F5E7516B814301E0516B01435163116AEC
:1008A0000143116200BD404A00B540320B0002F026
:1008B0006DFA0504071016191F00516981430AE0FB
:1008C000516981435161116901431161116881438B
:1008D0000DE051690143516111698143F5E75169A7
:1008E000814301E051690143516111680143116085
:1008F00000BD2D4A002906D0012907D0022908D0C1
:10090000032913D10CE0918A814304E0918A814349
:1009100008E0918A01439182D16A0143D16205E0E6
:10092000918A01439182916A014391629083118A75
:100930000143118270471C4B1B4A4033002906D0EB
:10094000012907D0022908D0032913D10CE0D18A4C
:10095000814304E0D18A814308E0D18A0143D182F6
:10096000D9680143D96005E0D18A0143D1829968F1
:1009700001439960D083518A0143518270470A4AEA
:10098000803A0028108B01D0084300E08843108390
:100990007047054A803A0028508B01D0884300E018
:1009A0000843508370470000801000403C490628EF
:1009B00005D04979012282401140084670470878E5
:1009C000082108407047364857210170A82101705E
:1009D00081790122114381710021017070473149F1
:1009E0000968016000202F49C043803108607047CA
:1009F0002C49086070472C48806970472849572265
:100A00000A70A8220A700028887905D004221043B1
:100A10008871002008707047FB221040F8E72049D9
:100A200057220A70A8220A700028887905D002226D
:100A300010438871002008707047FD221040F8E7CD
:100A4000174857210170A8210170817910221143A4
:100A5000817100210170704700220AE0022101E04B
:100A600000BF00BF0B46491E89B2002BF8D1521CB3
:100A700092B28242F2D3704770B500247D260546BB
:100A8000F60004E03046FFF7E7FF641CA4B2AC4276
:100A9000F8D370BD0549CA7A082AFCD0087270479D
:100AA0004010004000E100E000E000E000340040C1
:100AB000F94901200870704710B5F84A00205179B3
:100AC0000124CB07F449002B0DD00B78012B02D069
:100AD0005278D20706D10C7002200870F0A002F004
:100AE00031F9152010BD0A78022AFBD30C70EFA053
:100AF00002F028F9162010BDE849CA784006D2094C
:100B0000D201400E0243CA707047704710B5EB49DE
:100B1000082008700020FFF7EFFFE04C60784008E5
:100B2000400060706078FB2108400221084360703B
:100B30000F20FFF7A1FF6078FD2108406070FA20C8
:100B4000FFF78AFF0120A07110BDD3480178022968
:100B500001D202210170D1484179C90705D04178FD
:100B60000122114341700020704716207047192060
:100B70004001CA4903E0401E0004000C02D08A79FB
:100B80009207F8D58879800701D500207047FE20AC
:100B90007047F8B50646C14815462030817381720A
:100BA000BE4F0024BD4920310E720220B8711920B9
:100BB000400103E0401E0004000C02D0BA79920705
:100BC000F8D500200872B87980072FD5B879C0070A
:100BD00012D00120B871FFF76FFF152802D1B74975
:100BE00001204870AC48017801290DD00078022816
:100BF0000CD0C820FFF730FFB879800729D5F879E5
:100C0000400605D50020F8BD1620F8BD1520F8BD1A
:100C1000F8790007000F0E280AD00A280AD03109F7
:100C2000012911D009290FD00D290DD0FE20F8BDC2
:100C30002E20F8BD002D05D0681C00D06D1E641E4E
:100C4000E4B208E02A20F8BD002804D0202108439F
:100C5000F8BDFF20B8710F20FFF7FEFE641CE4B260
:100C6000032C9FD32020F8BDF8B505460E46C820BA
:100C7000FFF7F2FE002E01D000203070874C0820D4
:100C8000203420738E4A0021D020FFF782FF0028F5
:100C900078D1D02021468873887201200873874953
:100CA0008868C279837914021C4361D0002D5FD01B
:100CB0000078000634D5C820FFF7CEFE77482030F4
:100CC000817A7F4A9020FFF764FF00286AD1734A37
:100CD000107AA04201D2107A00E02046C1B2601A18
:100CE00084B2002E02D03078401830700020734B50
:100CF00005E05F683F5C2F706D1C401CC0B28842ED
:100D0000F7D1107A002806D0107A1978491E0842C7
:100D100001D1002CCFD1614900202031087327E098
:100D20005E4F2037C820FFF797FE64490878844259
:100D300000D220463873002005E02A788B686D1CAD
:100D40001A54401CC0B23A7B8242F6D1B97B5C4A4D
:100D50001020FFF71EFF002824D1387B201A84B210
:100D6000002E03D03078397B40183070002CD9D158
:100D7000C820FFF771FE494C2034207B002802D0A8
:100D8000902001E00EE010204D4AC021FFF701FF46
:100D9000002807D1207B002804D04048007A002892
:100DA00000D01720F8BD454A0021926803785354BB
:100DB000491C401CC9B20829F8D1704738B53F4CCE
:100DC000082020703F48FFF7EEFF69463E48FFF7D6
:100DD0004BFF002809D13C486946C079207039484A
:100DE0000978C088884201D9172038BD002038BD55
:100DF000344808B50830FFF7D6FF69463248FFF798
:100E000033FF002807D12F4869460830C088097889
:100E1000884201D9172008BD2B48C1788278080282
:100E200010436946087027480830FFF7BCFF694641
:100E30000878224989688871000AC8716946224881
:100E4000FFF712FF0028E6D168460078402802D953
:100E5000402069460870684602781B491B4801F02B
:100E6000DFFE002008BD10B5044616481030FFF71D
:100E70009AFF1248210A80688470C17000210846D8
:100E8000FFF7F2FE002806D12046FFF735FE0A20C4
:100E9000FFF7F2FD002010BD0D0000200080004093
:100EA0005553422064657620696E0A0055534220EE
:100EB000646576206F75740A000000000000002051
:100EC00010270000903200008C030020B8000020A2
:100ED00010B504462548FFF766FF2548210A8068BB
:100EE0008470C17000210846FFF7BEFED3E710B53D
:100EF00004461E481030FFF756FF1D48210A80683F
:100F00000471417100210846FFF7AEFEC3E710B53A
:100F1000044616480830FFF746FF1548210A806846
:100F20008470C17000210846FFF79EFEB3E710B53C
:100F300010488021017000214170C1704822427325
:100F40000B4A93880383138983830A4B2033997256
:100F500099738924047040249C71FF238371064C8B
:100F60000123237003238370517094E7A83200009B
:100F700000000020008000400D000020F8B561A0B6
:100F800001F0E0FEFFF7C2FD002425460120FFF737
:100F900073FDFFF7DAFD002804D16D1C0024EDB2CB
:100FA000642D0CD8641CE4B2642CEFD3002C06D062
:100FB000FFF77EFD58A001F0C5FE1620F8BD614F79
:100FC000B878FFF7A2FD60A001F0BCFEFFF7F6FEC7
:100FD00005002DD1604E614D05E0315D60A001F04E
:100FE000B1FE641CE4B2E879A97900020843A0428A
:100FF000F3D85DA001F0A6FE3089B8807089F88032
:101000005A483479C178827808021043C0B2FFF799
:101010002AFF05000CD15548C17882780802104398
:10102000787053A001F08EFEFFF7E2FE050011D0AC
:10103000014653A001F086FE5748022101700120AD
:10104000FFF763FD2846F8BD715D45A001F07AFE0B
:101050006D1CEDB27088A842F6D843A001F072FE74
:10106000B07B002C01D1082801D0FB20F8BD4A48F4
:10107000042101700020F8BD08B54849A322096881
:101080000A7000224A708A70CA700871000A48719A
:1010900004208871CA7169462F48FFF7E5FD0028D2
:1010A00004D168460078042801D2172008BD00202A
:1010B00008BD10B5394A23231268137003235370F7
:1010C0009170090AD1701071000A5071002090715E
:1010D000D0710146FFF7C8FD10BD10B52F4A23237C
:1010E00012681370012353709170090AD170107146
:1010F000000A507100209071D0710146FFF7B4FDD5
:1011000010BD0000526573657420686F73742070A1
:101110006F72740A0000000044697361626C65209C
:10112000686F737420706F72742062656361757389
:1011300065206F6620646973636F6E6E6563740A01
:10114000000000007C030020476574446576446518
:101150007363723A200000008C030020903200007C
:1011600078253032582000000A000000A03200002C
:1011700047657443666744657363723A20000000F4
:10118000496E6974526F6F7444657620457272209F
:101190003D20253032580A000D00002008000020B4
:1011A00010B50446FFF7A9F90A214843C0082146B3
:1011B00001F020FD0A21401D01F01CFD224988811B
:1011C00010BD10B5E1204002FFF7EAFF1E4887215D
:1011D00081700321C170402141700121817310BDD4
:1011E00019498A789206920E800102438A707047EC
:1011F000154A0028507806D008435070107808210E
:101200000843107070478843507070470E49802023
:10121000487070470C4A07E0D37A082B04D0037853
:10122000401C1372491E89B20029F5D1704701464E
:101230000020054A04E0137A0B70491C401C80B260
:10124000937A002BF7D1704700340040F8B57D4DFC
:1012500057267C4CA827203D002826702770288818
:101260000ED02115084328800A20FFF7F5FB2670D1
:101270002770288861150843288000202070F8BD59
:10128000032149028843F7E7F0B56E4C57261C222C
:101290008B076C4DA8270A409B0F403C00282E70FE
:1012A0002F7010D0080603D5E07BFD210840E073C5
:1012B000A07A1043A07263482038C17B1943C173E0
:1012C00000202870F0BD080603D5E07B022108430A
:1012D000E073A07A9043A0725A482038C17B9943AA
:1012E000EDE730B5574C5723564AA825403C002817
:1012F00013701570E06804D08843E060002010701F
:1013000030BD0843F9E730B54E4C57234D4AA82568
:10131000403C002813701570A07B04D00843A073D4
:101320000020107030BD8843F9E747480169042266
:101330009143016130BF704710B542485721017099
:10134000A82101703F494039CA7BF7231A40CA736C
:10135000002101703C4A136904242343136130BF08
:10136000017010BD10B5374857210170A8210170D8
:1013700034494039CA7B08231A43CA7300210170DB
:10138000314A136904242343136130BF017010BD37
:1013900010B52C4957220A70A8220A702B4A104314
:1013A000284A203A108000200870274A1369042434
:1013B0002343136130BF087010BD10B52149572277
:1013C0000A70A8220A709122120280181D4A203A3F
:1013D0001080002008701C4A136904242343136101
:1013E00030BF087010BD174A57241470A825157017
:1013F00014494039887B0823184388739120114B86
:101400000002203B188000261670886B8F6B874285
:10141000FBD10A3007043F0C02D001273F04C0195A
:101420000B4FB84201D37F42C01930271F7414708C
:10143000157048632F205874167040BF20BF20BF1E
:10144000FEE700004010004000ED00E004910000C5
:101450000000C0A80448804704480047FEE7FEE7B4
:10146000FEE7FEE7FEE70000350400009100000003
:101470000020F949C043086448640020887370471D
:1014800010B5F54C616C606B88420FD06064A26B44
:10149000E16B914200D120640120FEF7FBFE207039
:1014A000002801D0FFF7E4FF207810BD002010BD18
:1014B00010B5E94C216C606B88420FD02064E26B60
:1014C000A16B914200D160640120FEF7E3FE207021
:1014D000002801D0FFF7CCFF207810BD002010BD00
:1014E00010B5DD4C606B6064A26BE16B914200D182
:1014F00020640120FEF70CFF2070002801D0FFF7C8
:10150000B7FF207810BD10B5D34C606B2064E26B40
:10151000A16B914200D160640120FEF7F9FE2070BA
:10152000002801D0FFF7A4FF207810BD10B5CA4CE9
:10153000606C6063FFF7D4FF002814D1A06C002812
:1015400012D0616B081860630120E16BFEF7E0FECA
:101550002070A16C606B401A60632078002803D073
:10156000FFF786FF207810BD0020A07310BDF8B5EE
:10157000B94E0446B1783046806D022957D0032910
:1015800057D00025C10700D0012541080818718AED
:10159000F26B491E0140891871663179C840F16CBF
:1015A0004018B065716C88420CD0B07B002803D025
:1015B000FFF7BCFF00286ED1B06D7063FFF760FFCE
:1015C000002868D100210127002C06D0042C32D03D
:1015D000012C33D0706DB065B77371733046B1783C
:1015E0009D4E603602292BD003293BD09A48406E8D
:1015F0000178B1700A079849120F896D0B071B0E0D
:101600001A43327094460A097270934AD36B528A15
:101610009A18521E824248D04278F270002C6DD047
:10162000002D39D0614601707178417068E040004A
:10163000ADE78000ABE70020C043CCE7B165CBE766
:10164000416E864D0A8832603388AB4200D34773BF
:10165000002C02D0806D088065E0417B002962D1BA
:10166000426560E0426E836D11681B010D0F1B091E
:101670002D072B4309010909794D83653160A94282
:1016800000D34773002C01D013604CE0427B002A4A
:1016900049D1416547E047E00170F1787278090966
:1016A00009011209114341702DE0002C05D0002DD5
:1016B00001D0614600E0C9B201706748807B2043D9
:1016C00003D0FFF733FF00282ED16348416C491C3B
:1016D0004163FFF7D5FE002826D15F4A002CD16B6D
:1016E0000878F0700AD0002D01D0707804E000096D
:1016F000737800011B09184308709773002D02D0FE
:101700007088000902E070880005000D708055495E
:1017100080B2884201D350494F734F4930604A7BB1
:10172000144300D148650020F8BD70B54A4D2E46DF
:1017300060366C6D286D844254D8641C0020AC6502
:10174000FFF715FF6C6500284DD1306800284FD099
:10175000FF212A6D204608430A439042E9D0A87829
:101760000128E6D0E96B69660228688A11D08008F2
:10177000401E81B231807180686E001D686600680D
:1017800000011FD03088401E0004000C3080F3D1CF
:1017900010E04008401E81B231807180686E801C6C
:1017A00068660088002808D03088401E0004000CBD
:1017B0003080F3D121436965BBE70020696EC043E7
:1017C000088005E0686E264A01680832114301600E
:1017D0007088696D08433188401A401C6865296D1E
:1017E000884201D9B12070BD0120A873002070BDCE
:1017F0000420AC65FFF7BBFE70BD10B5FFF795FF89
:10180000B12804D1144900204865FFF78EFF10BDB0
:1018100010B5114B5A78824201D30A4659708A4258
:1018200001D1002010BD01205870FEF7B3FD002843
:10183000F8D1832010BD08490878162803D0152850
:1018400006D00020704701224A7000228A6170474A
:1018500002224A70704700000C000020F7FF0000D1
:10186000F7FFFF0FF70F000010B50220FFF704F994
:10187000FB4C2078A072FEF78DFD002803D1607824
:10188000042801D2832010BDF6A0FFF78CFAF74997
:10189000607A087100210846FFF7E6F920701628E3
:1018A000F1D0207B0007000FFFF721FBE07A000753
:1018B000000F8030FFF71BFBA07A20700021A1727F
:1018C00010BDF8B50446E949E94801F0CEF9E94907
:1018D0001F200873E24D01225204A97A287BFFF7EA
:1018E00058F92870162870D000281AD0DF48002137
:1018F00002680262491C001DC9B20829F8D1FFF72D
:10190000B3FFDA480021026A491C04C0C9B20829A1
:10191000F9D18A03A97A287BFFF73BF928700028C0
:101920007ED1CF484021827A4A408272CF48083027
:1019300001F091F900283FD085B2CC48CB49007B1B
:101940008EB2000600287FDACB48012786B22FE04E
:10195000402D03D3C7482038048303E0C54800273F
:1019600020380683BE480122817A5204C07AFFF7EC
:1019700010F9BB49087000280CD0BE4920390E83ED
:101980002E2822D1B648C07A0007000F8030FFF71A
:10199000AEFA0FE0B2488022817A51408172B74896
:1019A000002F0AD0007A402804D1403DADB2403427
:1019B000002DCDD1B14806834AE0017AE8B28842D1
:1019C00000D2E9B20020AC4A05E05DE0135C237070
:1019D000641C401CC0B28842F8D1EBE7A748402DF8
:1019E00007D38483403D4034A2484021ADB2017307
:1019F0000EE086839F48EAB2027300209B4904E010
:101A00002378641C0B54401CC0B28242F8D10025DC
:101A1000934F01225204B97A387BFFF7BAF801E0FC
:101A200030E011E0387000280AD094498E832E28C7
:101A30002AD13846007B0007000FFFF758FA05E06F
:101A4000B87A40214840B872002DC7D18B488683B0
:101A5000834C01225204A17AE07AFFF79AF82070B1
:101A6000002811D1A07A80214840A0721F20207048
:101A70008248007A0D280BD17F48007B002804D0D3
:101A8000022805D3FFF7F0FEF8BD00202070F8BD56
:101A90002078F8BD70B50C467449054608312046DB
:101AA00001F0E3F8002C01D0802300E000236F4A0E
:101AB0006B4813734079507306209073D5730023DD
:101AC000137453749374D474137553759375D375D9
:101AD000137670BD10B50A20FEF7CEFF1221032049
:101AE000FFF7D8FF61482030FFF7EBFE0520FEF737
:101AF000C3FF5B480078002801D0FFF79CFE10BDB3
:101B0000F8B5574D092028712C460F206034574EE8
:101B100020700A2730462030009008212520FFF74A
:101B2000B9FFB7730020F0740098FFF7CAFE287859
:101B300000280FD0162826D0152824D0132822D00C
:101B40006070FFF7C7FF607828702078000711D514
:101B5000402010E000988079042804D0082804D0A0
:101B6000102804D00FE02F710DE00B2000E00C20B6
:101B7000287108E0C820FEF77FFF2078401E00068D
:101B8000000E2070C9D129790120884068826078D0
:101B9000F8BD012110B54903384B0A465C79A40908
:101BA00003D1521E1204120CF8D10A465C79A40922
:101BB00003D0521E1204120CF8D15A79920903D1A3
:101BC000491E0904090CF8D1254A022806D3517888
:101BD000122914D0102901D9102151701178002830
:101BE00007D0162905D0152903D0FFF773FF002869
:101BF00004D00220FEF740FFFFF71DFE10BD0521B7
:101C0000EBE7F8B5FEF7C6FB002804D1144D687861
:101C1000042801D28320F8BD04206870FFF7E8F89B
:101C200028700028F7D1114EB07B082831D1002050
:101C3000A871F17B062901D10121A971084CF17A23
:101C40000020697260342070707FF77E8446B07D1A
:101C5000317D86462278002A12D0384611E00000F5
:101C60000C00002021FF000000000000B800002050
:101C700055534243208000407800002000800040FF
:101C800008466070002A01D0634600E07346402B8E
:101C900002D01F20287026E0030604D50007000F9D
:101CA0009030E87203E00007000F10302873521CD8
:101CB000D0B220700228CDD17079FFF709F92870D1
:101CC0000028A8D100272770F9A0FFF76CF8687AE0
:101CD0003071611CA86BFEF7C7FF2870002804D084
:101CE00028782E2808D02878F8BD6178012906D1F7
:101CF000A96B0978217002E00020FFF7F8F80520B1
:101D0000FEF7BAFEFFF7B4FBAF726F710126242114
:101D10001220FFF7BFFEA86BFFF7D3FD287800283D
:101D2000207807D0002815D06879032812D2401CEB
:101D30006871ECE7002806D06879002803D1A86B09
:101D40000078052804D005210420FFF761FDF8BDC7
:101D50006E71DCE76F710120FFF71BFFF8BDF8B56E
:101D6000D54E7078052805D2FFF74BFF002834D1F7
:101D7000FFF7C6FEFFF77CFBB069CF4DCF4A0109E4
:101D800000276435914203D10007000F687000E01E
:101D90006F70C94C6034F7703772B7627763FFF7C2
:101DA00087FB002807D0FFF75FFDFFF7A9FEFFF7CD
:101DB0007FFB002811D16878002805D1B06BFD2188
:101DC00000780840E92809D0B06B0246FF30E130C6
:101DD000C18BBB48814203D09120F8BD706B29E0D4
:101DE000F07843E01146FF31C73141180B7823707A
:101DF0004B7863708B78A370C978E1702168716348
:101E00001146FF31C331415C217005291FD00F29D4
:101E10001DD00B0602D58906890E21700906090E10
:101E200023D00F2921D2697801291CD8316C706B1D
:101E300040187063B061FFF73BFB0028CDD1B06B59
:101E4000FD23017832461940E92923D11CE0B16A0B
:101E5000706B40187063317A0029A0D12978103155
:101E60003172B0629BE7491E697010302870C0B2B1
:101E70004028B7D1307A002802D0F278002A01D069
:101E80009220F8BDF07088E7FF21FF310B5A8C4992
:101E90008B4201D0A120F8BD417BD1700723D371C3
:101EA0000A0609D4F2794906521E090E1206120ECC
:101EB000F271F5D10121F170C18AB164002901D11B
:101EC000416AB164027D411CC37C12021A43F26272
:101ED00001D1026AF2624A7C097C12020A43718AC9
:101EE0004909491E51183279521F1141F161C289C5
:101EF000F264B36C51189C46CB182360017C8E466B
:101F0000022913D0B7642368716B59183162F16AE2
:101F1000CB1AF179CB406B4933658B421BD299B216
:101F2000694BB782994205D2012104E061465918F4
:101F30002160E8E70221B170002A15D0F16900297B
:101F400012D07146012902D0B16C00290CD0C17A9F
:101F5000002909D105E0018EB182C16AF161032136
:101F6000E9E7007B022807D26978002901D0A32085
:101F7000F8BD012169700EE7716B5018F0641021F3
:101F80000520FFF745FCF8BDF8B54B4C60781028EC
:101F900003D2FFF7E4FE00286FD110210846FFF7B7
:101FA00037FC002869D14949E0730878002864D0DB
:101FB0005C2805D02F2803D04A783A2A03D02BE09A
:101FC0004248401C03E0432826D34048C01CE0653B
:101FD000A078032806D000216162E16D097800290C
:101FE00002D01AE0E169F7E70021C943A1620328A2
:101FF0000AD002206062E069C0B2E070216A091A6A
:10200000216221798840A062606A60650020E062F8
:1020100020721220607093E0E165274F6037606A9C
:10202000002807D0E1782172E179801E8840216A7A
:10203000401804E0E069C0B22072216A081A2063E7
:10204000BDE0206B6063FFF733FA002879D1AAE086
:10205000A16B0A1862661078002873D0E52872D048
:10206000052800D1E520E36D1978814201D02A29A5
:1020700069D1814202D1012001E062E00020B87004
:102080002FE0BE78155C995D8D4226D0002906D0E0
:102090005C2904D02F2902D02E2919D023E0202D2D
:1020A00021D1082802D2117A20291CD10B201AE054
:1020B000A1FE0000000001000C0000206745230184
:1020C00055AA0000F5FF0000F50F00005C0100209C
:1020D000082E01D0202D06D10720401C761CC0B24E
:1020E000BE700B28CDD3B9780B28595CF97043D357
:1020F000D07A000740D400206073606E418B61622B
:10210000A278032A03D1828A12040A436262FA780F
:10211000002A02D0627B002A28D0616A0022E26293
:1021200061652272C37ADB060ED5501EA0621321B0
:102130001020FFF76DFB002803D1607B002813D12E
:102140004120F8BD4CE02CE0C069A062002902D11A
:10215000FF202072A26214211020FFF759FB0028F3
:10216000EFD1607B0028ECD04320EAE7E16DBA783C
:10217000491C5118E16552E72A2912D1D07A00078B
:102180000FD4FD4840780009072801D01120D8E776
:10219000A06A002833D001DAFEF719F9A06A401EC0
:1021A000A062208A20302082618A80B2884200D2D8
:1021B0004EE7206B401C2063207A401E2072207A5C
:1021C000002800D03DE7606A2546002808D0A865B1
:1021D0000020FFF7CCF90028B3D1687B002839D064
:1021E000E26D0021505C491CC9B2002835D02A2874
:1021F00033D05C2801D02F28F4D1B320A1E70020F0
:102200003870616E095C202919D0082806D13A7807
:10221000E56D2E21A9543978491C3970616E3A78E0
:10222000E56D095CA95439783E46002904D1197836
:10223000052901D1E52119703178491C3970401CFC
:10224000C0B20B28DDD33A78E36D00219954012107
:10225000617352E738686862E1E6422071E7C74877
:10226000416DC279891E9140026A8918027A8918E3
:102270004163704770B5C14DC14C6A6A002A16D0DF
:1022800029796068C840297A401A2168814201D3BF
:10229000081A14E008466A6512E0686DA865002017
:1022A000FFF765F9002814D1687B002804D0FF20CF
:1022B00028720020C0430AE0E9782068401A2060B4
:1022C000E9788842E9D22872FFF7C9FF686B20607D
:1022D000002070BD1020704770B5A94D0020286007
:1022E000FEF758F8002813D1A44C6078052813D2C3
:1022F000FFF787FC002806D04020FEF7BDFBFFF764
:1023000080FC002804D1FFF7FBFB002801D02078D7
:1023100070BD9C48006A286000210846FFF7BAFBA0
:1023200098482030FFF7CDFA20780028F0D02078A8
:10233000924D60352870FFF7CDFB2878207070BD76
:1023400010B5FFF7F2F98D4C002807D0B12820D145
:1023500000206065FFF7E9F900281AD1FFF7E6F8D9
:10236000002816D1606D6062206B6063FFF7A0F8F3
:1023700000280ED1218AA06B401801216066C1613E
:10238000616E606A4883606A616E000C8882FFF744
:10239000BAF810BD70B5794C784D60342060A88AC9
:1023A00000280FD0A96940186863FFF781F800285A
:1023B00008D1A86B2268FF30C130816A8918816218
:1023C000FFF7A1F870BD10B56C4C0020E073607889
:1023D000142811D3206B6063FFF76AF800280AD134
:1023E000218AA06B40186066C17AC90604D4A16A2C
:1023F000C161FFF788F810BD002010BD10B55F481F
:102400004178122901D2B42010BD12290BD1817854
:10241000032908D0C27901219140C170C169026AC3
:10242000C9B2891801624178132911D9142903D13D
:102430005349097800290BD0C07B002803D0FFF74F
:10244000C2FF0028E0D110210846FFF7E1F910BDD6
:102450000021C173F7E770B5484C6078132803D2A8
:10246000FFF792FD002831D110210846FFF7D0F97F
:1024700000282BD1206B6063FFF71AF8002825D1C4
:10248000228AA16BE5208854FFF73DF800281DD172
:102490003A4D606A60352860002817D0401E60629F
:1024A000002060652868A0650120FFF760F800281B
:1024B0000CD1606D401C6065607B0028F2D0FFF796
:1024C00035F8002802D1606DFFF764FF70BDF8B5E4
:1024D000FFF75AFD294C0027FF43002520720028F2
:1024E00024D042286DD1208A618A88426AD3606AEA
:1024F000002849D0A0650020FFF739F8002860D1F6
:10250000607B00285ED0606A6065FFF776F900287E
:1025100057D1606AA0650220FFF729F8002850D142
:10252000FFF704F800284CD1A16B05E0FFF793FFFB
:102530001FE00D50001D80B2628A9042F9D12572D1
:10254000FFF78DFE2582606B0C4E2063E0786036CD
:1025500008E0FEF7D8FF002833D1606B401C6063B1
:102560003078401E30700006000EF2D13846FFF77A
:1025700011FF002825D125E0401000400C0000206C
:102580005C010020B8000020E0692072206B401E32
:1025900020636063FEF78CFF002812D12582638AD6
:1025A000A26B04E0565CE52E0CD020312182218AFA
:1025B0009942F7D3207A401E0006000E2072E5D122
:1025C000B220BEE5606A606585488078042801D045
:1025D0001120B6E5FFF711F90028F2D1FEF7A6FFAA
:1025E0000028EED1606D60623846FFF7D3FE002808
:1025F000E7D1206B6063FEF75BFF0028E1D1218A01
:10260000A06B41180020616601E00B2801D2202256
:1026100000E000220A54401CC0B22028F5D37148C3
:1026200008830120C8610020E26D1378002B0DD0D3
:102630002E2B02D10820521CE26512780A54E26D5A
:10264000401C521CC0B2E2650B28EDD3606A48837F
:10265000000C8882FEF757FF0028B2D1606AA5629D
:10266000E5626065257214211020FFF7D1F868E556
:1026700070B55D4D0120E8736A8AE879A96A8240E5
:1026800054182A79641E1218E86AD440D0402A46A9
:10269000A865526A844201D9241A00E06A65002ABA
:1026A00002D0002909D009E0002904D0FFF748FE34
:1026B000002801D102E0002070BD01244B4E686D5E
:1026C0003060686DA8657060641E0020FEF74FFFE3
:1026D0000028F1D1687B00281BD0002C16D0604266
:1026E000FFF758FE0028E7D1686D7060FFF785F8A6
:1026F0000028E1D17068A8650220FEF738FF0028A5
:10270000DAD1641EF0D1306868651CE03068686515
:10271000D1E7002CD5D17068334E60363060A865A3
:102720000120FEF724FF0028C6D1687B641C002826
:102730000CD02046FFF72EFE0028BDD1686A6865E0
:102740000020E8622872FEF7F1FE70BD3068E6E70F
:10275000F8B5254C6078132801D2B420F1E4206B41
:102760006063FEF7A5FE0028F8D1228AA16B1F4DF9
:10277000891861662A7ACB7A2B72FF2A01D0CA7235
:102780000120194EE98860363180626E184FD38A75
:10279000EB80B94201D0D1820120A9883180626EDC
:1027A000B942138BAB8001D01183012029683160BD
:1027B000626ED3692B604B1C04D0A1620020D161F2
:1027C000E07301E00028C9D0FEF79DFEB9E40020C7
:1027D000064AFF211154401CC0B20D28FAD1B7E7B8
:1027E00040100040213000000C0000205C0100205F
:1027F000FFFF000010B5EE480078142801D0B42087
:1028000010BDEC48EC49006808600021EB4A002844
:10281000116001D0002000E0FF20E9490870152177
:102820001420FEF7F5FF10BD10B5E148007815281B
:1028300003D0FFF7DFFF002812D1E04AE14B106818
:1028400058601968E04811600068814201D8084664
:1028500000E01060DD490978C8401860FFF70AFD04
:1028600010BDF8B5D2480078152803D0FFF7C2FF95
:1028700000287DD1D34DD24F288828810020288080
:102880003878CE4EFF2874D090E0CF4C3168206865
:1028900088426ED9FFF7E3FC0121206809048842D1
:1028A00001D34C1E00E084B22889A04200D2044625
:1028B000C74832680088411E0A4092B2844212D34F
:1028C000002A10D1C1493B780978CC40C149097828
:1028D000C91AC9B28C4200D90C462B886968C9183C
:1028E0008B0716D00446801A80B2844200D9044671
:1028F000FEF7DEFD00285ED1B548316800882A88E1
:10290000401E0140B44800680918686882182046D3
:102910001CE0E0B2FDF7BEFC00284CD13878AB4992
:102920000019C0B23870097832688C40A1B25218D0
:1029300032602A89521A2A812A88511829801CE07B
:102940000B781370491C521C401E80B20028F7D12E
:102950003068001930602989091B298129880919E3
:1029600029809B490988491E08421FD1387801E017
:1029700021E01FE0401CC0B23870964909788842B7
:1029800014D38D489549006808600020FEF7EFFDDC
:10299000002810D192480078002805D0FF20387018
:1029A00089483168016005E00020387028890028D6
:1029B00000D06AE70020F8BDF8B57D4800781528FA
:1029C00003D0FFF717FF00280AD17E4E30883081F0
:1029D000002806D183480078002802D0FFF7F3FCD6
:1029E000F8BD00203080754F754DD3E02878FF2862
:1029F00031D170480068002848D06D48007812280E
:102A000005D179480078032801D0B120F8BD6A4883
:102A100000683860FEF7F1FE0028F7D16F4839688A
:102A200001600220FEF7A3FD0028EFD16F48016886
:102A300069480068814203D1FEF778FD0028E5D19E
:102A40000020C043FFF7A6FC0028DFD15E480068E5
:102A5000386000202870FFF702FC5D483968028862
:102A60008C46501E014088B25A492B780978CB1AFF
:102A7000564909788E468B4031891C1AA14200D2F2
:102A80000C4694420BD3002803D008E0FFF758FC13
:102A9000D4E733887168C9188B0708D01446111A17
:102AA00089B28C4200D90C46002828D123E0704618
:102AB000C440E0B2FDF72CFC0028A7D12878424B97
:102AC0000019C1B241482970007884403868001963
:102AD00038603289121B32813288121932801A68AA
:102AE000824203D218603F480122027039480078C0
:102AF00081424FD33FE034480068604503D9FEF778
:102B0000D7FC002882D13249386809883288491EAA
:102B1000084031490968411870688218A0B205E080
:102B200013780B70521C491C401E80B20028F7D14C
:102B30003868001938603089001B308130880019EE
:102B40003080FEF7E0FC0028B7D11F4A38681168D2
:102B5000814203D21060234901220A701C4909886E
:102B6000491E084216D128781A49401CC0B2287064
:102B7000097888420ED31048016818480160002087
:102B8000FEF7F5FC002898D115480078002800D001
:102B9000FF2028703089002800D027E714480078EB
:102BA000002803D0FEF7C2FC002886D10020F8BD23
:102BB0000D000020300000206000002038000020C0
:102BC000140000205C0100203400002010000020D0
:102BD0001E0000200F0000204400002064000020A0
:102BE000190000201B0000200E00002048000020DB
:102BF0001A00002030B50B46014600202022012497
:102C000009E00D46D5409D4205D31D469540491B20
:102C10002546954040191546521E002DF1DC30BD69
:102C200003460B439B0703D009E008C9121F08C0E5
:102C3000042AFAD203E00B78491C0370401C521E90
:102C4000F9D2704703460A780270491C401C002ADA
:102C5000F9D118467047001D0321401E0378120267
:102C60001A43491EF9D510467047034603220870DF
:102C7000491C000A521EFAD518467047F0B51FB419
:102C80000646002082B005464024019100901BE0DA
:102C9000019922460F46304600F042F8049A059BFF
:102CA000801A994110D310461946224600F028F8A0
:102CB000361A8F410197224601200021009F00F023
:102CC0001FF838184D4100902046641E0028DFDCB4
:102CD000019B00982946324607B0F0BD064C0125FD
:102CE000064E05E02046E36807C82B43984710349A
:102CF000B442F7D3FDF7D0F9C0320000E032000053
:102D000010B5202A04DB0146203A9140002010BD76
:102D1000914020239C1A0346E3401943904010BD84
:102D200010B5202A04DB0846203AD040002110BD0F
:102D30000B46D340D0402024A21A914008431946A4
:102D400010BD00000FB410B503A9044B044A02984B
:102D500000F038F810BC08BC04B01847950A000011
:102D6000740000200FB410B504A9074B02AA039801
:102D700000F028F8044602A9002000F061FA20467D
:102D800010BC08BC04B018474132000030B474468F
:102D9000641E2578641CAB4200D21D46635D5B0057
:102DA000E31830BC184702E008C8121F08C1002A07
:102DB000FAD170477047002001E001C1121F002ABC
:102DC000FBD17047FFB591B00F4605460026F9E0EC
:102DD000252876D100246D1CFB4A00940121029421
:102DE0002B780846203B98400346134202D0044308
:102DF0006D1CF5E728782A280ED002212878024693
:102E0000303A092A15D8009A0A235A43303A8018D2
:102E10000C436D1C0090F1E701CF0090002805DA0B
:102E200001204003044300984042009002200443E4
:102E30006D1C28782E2815D1042004436D1C287899
:102E40002A280AD101CF6D1C02900BE002990A22B8
:102E50005143303940186D1C0290287801463039B2
:102E60000929F3D928786C2810D006DC4C281AD010
:102E700068280ED06A2817D104E0742813D07A2865
:102E800012D110E00120400504430CE001210905A6
:102E900001E0032109050C436978814203D1012037
:102EA0006D1C000524186D1C287803906E281FD017
:102EB0000DDC632833D005DC00287DD0582812D1E2
:102EC000BEE010E0642801D069280CD181E07328AD
:102ED0002FD004DC6F2870D0702804D1B2E07528A0
:102EE0006CD078286BD0149A13999047761C68E0C0
:102EF0006002400F022807D003280AD0042838684F
:102F00000AD03F1D06605CE001CFF117066041600A
:102F100057E001CF068054E03F1D067051E038783D
:102F2000694608740020487404A83F1D03900120DE
:102F300003E001CF03900020C04361070FD50021BB
:102F400001E00199491C029A0191914213DA8142F0
:102F5000F7DB019A0399895C0029F2D10BE000218B
:102F600001E00199491C01918142FADB019A039920
:102F7000895C0029F5D101990098139A401A0090B4
:102F80002146149B00F046F901998019461807E084
:102F9000039803990078491C0391149A1399904758
:102FA0000198401E0190401CF2D12146149B139AB7
:102FB000009800F01FF903E008E04CE03EE03FE03D
:102FC00086196D1C2878002800D001E7304615B01E
:102FD000F0BD0A200021049005916002410F0229F2
:102FE00005D001CFC2179446032907D009E0FF1D81
:102FF000FF08FF0079683868083706E000B2C2179A
:103000009446042902D140B2C1178C460022614681
:10301000944506DA0A460021404291418C462D2112
:1030200002E0210504D52B216A461176012103E037
:10303000E10701D02021F7E7019150E00A200BE0E1
:10304000102009E0102004900021042004430820EF
:103050000591029003E00820002105910490600290
:10306000410F022905D001CF00229446032908D040
:1030700008E0FF1DFF08FF007968386808378C46B4
:1030800003E080B2042900D1C0B2002101912107E0
:1030900025D5039970292AD0049A1021059B4A400E
:1030A0001A4309D16146014306D030216A461176A0
:1030B0000399517602210191049A0821059B4A4007
:1030C0001A430CD16146014301D1610707D5302174
:1030D0006A461176012101910299491E02910399D4
:1030E000582909D039A103910FA90F9112E040216D
:1030F0006A4611760121DEE739A1F4E76146059BB6
:10310000049AFFF7BBFD039B8C469B5C0F9A521EF3
:103110000F92137061460143F0D10F9807A9081A66
:1031200020300390600704D50120000484430298F6
:1031300001E0012002900399884201DD401A00E07D
:10314000002041180290019809180098401A009038
:10315000E00306D42146149B139A009800F05AF815
:103160008619002007E006A9085C149A1399904775
:103170000498761C401C019904908842F3DBE0031C
:103180000CD52146149B139A009800F043F8861939
:1031900004E0149A302013999047761C0299481E37
:1031A00002900029F5DC08E00F980F990078491C7F
:1031B0000F91149A13999047761C0399481E039017
:1031C0000029F1DCF1E6000009280100303132333A
:1031D0003435363738396162636465660000000053
:1031E000303132333435363738394142434445463D
:1031F00000000000F8B5044600251E461746880466
:1032000004D405E039462020B0476D1C641EF9D572
:103210002846F8BDFFB50446002581B01E46C80308
:1032200001D5302700E02027880404D505E0384682
:103230000399B0476D1C641EF9D5284605B0F0BD52
:103240000A68531C0B601070704700004E6F746565
:103250003A200D0AD5E2B8F6B3CCD0F2CAC7D2D420
:10326000D7D6BDDACEAAB5A5CEBBBDF8D0D055C550
:10327000CCCEC4BCFEB6C1D0B42C353739BCF2B507
:10328000A5D1DDCABEB9A6C4DCA1A30D0A00000009
:103290008006000100001200800600020000040009
:1032A000000502000000000000090000000000000E
:1032B000010B0000000000000201000000000000FF
:1032C000E03200000000002078000000A62D000081
:1032D000583300007800002094030000B62D000051
:1032E00000000000000000000000000000000000DE
:1032F00000000000000000000000000000000000CE
:1033000000000000000000000000000000000000BD
:1033100000000000000000000000000000000000AD
:10332000000000000000000000000000000000009D
:10333000000000000000000000000000000000008D
:10334000000000000000000000000000000000007D
:08335000000000000000000075
:040000050000009166
:00000001FF
