:020000040000FA
:1000000000800020A5000000AD000000AF0000004F
:1000100000000000000000000000000000000000E0
:10002000000000000000000000000000AF00000021
:100030000000000000000000B1000000B30000005C
:10004000C51A0000B5000000B5000000B5000000B2
:10005000B5000000B5000000B50000000911000067
:10006000B5000000B5000000B5000000B5000000BC
:10007000B5000000B5000000B5000000B5000000AC
:10008000B5000000B5000000B5000000B50000009C
:100090000348854600F0A6F800480047C13100003B
:1000A000008000200448804704480047FEE7FEE740
:1000B000FEE7FEE7FEE70000AD1A00009100000039
:1000C00030B50B46014600202022012409E00D46F0
:1000D000D5409D4205D31D469540491B2546954078
:1000E00040191546521E002DF1DC30BD70B50024BC
:1000F0002546002801DA01244042002901DA0125C1
:100100004942FFF7DDFFAC4200D04042002C00D056
:10011000494270BD03460B439B0703D009E008C961
:10012000121F08C0042AFAD203E00B780370401CA7
:10013000491C521EF9D27047D2B201E00270401C35
:10014000491EFBD270470022F6E710B513460A4657
:1001500004461946FFF7F0FF204610BD0321001D9D
:10016000401E037812021A43491EF9D51046704703
:10017000034603220870000A491C521EFAD518468D
:100180007047F0B51FB40646002082B005464024F3
:10019000019100901BE0019922460F46304600F085
:1001A00043F8049A059B801A994110D310461946CA
:1001B000224600F029F8361A8F4101972246012085
:1001C0000021009F00F020F838184D410090204693
:1001D000641E0028DFDC019B00982946324607B0E8
:1001E000F0BD0000064C0125064E05E0E36807CC93
:1001F0002B430C3C98471034B442F7D3FFF74CFF25
:10020000746600009466000010B5202A04DB0146E5
:10021000203A9140002010BD914020239C1A0346B3
:10022000E3401943904010BD10B5202A04DB084676
:10023000203AD040002110BD0B46D340D0402024AE
:10024000A21A91400843194610BD70B58C18057864
:10025000401C6B075B0F01D10378401C2A1106D1AB
:100260000278401C03E006780E70401C491C5B1E9F
:10027000F9D12B0705D40023521E0DD40B70491C55
:10028000FAE70378401CCB1A921C03E01D780D702E
:10029000491C5B1C521EF9D5A142D8D3002070BD69
:1002A00030B5174B0022154CDB780DE03C2555434B
:1002B0002D192D6B854205D1002803D0002914D0BB
:1002C0000A7012E0521CD2B29A42EFD3002210E020
:1002D0003C2555432D196D6B854208D1002806D069
:1002E000002902D080200243EAE7012030BD521CE1
:1002F000D2B29A42ECD3002030BD0000E00A0020C8
:100300003C00002070B500240A4D0B4E0DE03C204F
:1003100060434019016A052905D18169002902D08D
:10032000042100F039FD641CE4B2F0788442EED37D
:1003300070BD0000E00A00203C000020F0B51A4823
:100340000222816B8B0001468039CA50174FFA890F
:10035000836B9B005B18DA63826B154B856B1C68A3
:10036000144B6243D218AD006D18AA67C26B521CC1
:10037000C263826B521C8263856B0F4A127895426E
:1003800001D300258563866B0125B6008D51816BF5
:100390006143C918B9810564C16B5300D3189942F0
:1003A00000D9C263F0BD0000504200200090004020
:1003B0003C3B0020800100203C00002003490268F3
:1003C0000A6042684A60806888607047503B00203D
:1003D000064902680A6042684A6082688A60C268A8
:1003E000CA60006908610020704700003C3B0020A3
:1003F00010B590B03C216846FFF7A5FE04221549D0
:100400000BA8FFF787FE7D20C000099040000A90EE
:1004100003200790104802904320C00003900D482D
:100420006946103800F0DAFA02F0B6FE094C0121F4
:10043000103C207800F090FC207800F0A1FA02F047
:10044000ABFE0A21207800F081FA02F0A5FE10B080
:1004500010BD0000300000209832002010B590B090
:100460003C216846FFF76FFE042215490BA8FFF7F1
:1004700051FE7D20C000099080000A900320079063
:10048000104802904320C00003900D4869460F3881
:1004900000F0A4FA02F080FE094C0121103C6078C3
:1004A00000F05AFC607800F06BFA02F075FE0A2149
:1004B000607800F04BFA02F06FFE10B010BD000043
:1004C00030000020B034002010B590B03C216846C8
:1004D000FFF739FE042215490BA8FFF71BFE7D200C
:1004E000C000099012480A9003200790114802901A
:1004F0004320C00003900D4869460E3800F06EFAA4
:1005000002F04AFE094C0121103CA07800F024FCC6
:10051000A07800F035FA02F03FFE0A21A07800F042
:1005200015FA02F039FE10B010BD000030000020B6
:1005300070170000C836002010B590B03C21684606
:10054000FFF701FE042215490BA8FFF7E3FD7D200C
:10055000C0000990C0000A90032007901048029044
:100560004320C00003900D4869460D3800F036FA6C
:1005700002F012FE094C0121103CE07800F0ECFB87
:10058000E07800F0FDF902F007FE0A21E07800F0C3
:10059000DDF902F001FE10B010BD000030000020B7
:1005A000C836002010B500F0B3FD10BD00B500F056
:1005B000AFF9024A0021D16200BD0000F83A0020E4
:1005C0000148008CC0B27047F83A00200649C9784B
:1005D000884201D3002070473C214143034A002355
:1005E000505C5350704700003C000020E00A00209F
:1005F0000120704770B5FFF7D9FF0446C0070CD043
:10060000124D13A0296B01F0A1FA16A0696B01F03D
:100610009DFA19A0A96B01F099FA600705D5FFF7BB
:10062000CFFF014619A001F091FAE0060CD5002495
:100630002046FFF7CBFF010002D0204600F034F83F
:10064000641CE4B2042CF3D370BD0000F83A00201F
:10065000556E7265616368436F646520A3BA256453
:100660000A000000556E726561636850726F746FA6
:1006700020A3BA25640A0000556E72656163685054
:100680006F727420A3BA25640A00000047494E54D3
:100690005F535441545F5048595F4348414E47456A
:1006A00020253032780A0000F8B50746164E0D4670
:1006B000480719D50021384600F022FB014600907A
:1006C00012A001F043FA6A4631463846009C00F019
:1006D0004FFA6A4631463846009400F01DFB0098F8
:1006E000241A3618002CF4D1280702D50CA001F0EA
:1006F0002DFAE80602D510A001F028FA680602D506
:1007000011A001F023FAF8BDE038002052656365BE
:10071000697665204C656E203D2025640D0A000039
:1007200054435020436F6E6E65637420537563634A
:100730006573730A000000005443502044697363DA
:100740006F6E6E6563740A005443502054696D6F78
:1007500075740A00F8B50F4604463E493E481E46E9
:10076000154681420ED83D4981420BD83C49814211
:1007700008D83C49814205D83B49814202D83B49CF
:10078000814201D9FB20F8BD44213948FFF7DBFC49
:1007900018213848FFF7D7FC042221463448FFF7D8
:1007A000B9FC334C04223946201DFFF7B3FC204628
:1007B000062231460C30FFF7ADFC002D2CD0204630
:1007C000042229460830FFF7A5FC2B4D3222686829
:1007D0000127C106C90EE970C105090F2970C104BE
:1007E000090F69708104C90FA9704103C90EA16185
:1007F0000102C90E5143E161C101C90F002902D0B4
:10080000216C394321648001C00F03D0206C022188
:100810000843206400260BE0FF206072A0720020D5
:100820002072D2E73146002000F0DAFA761CF6B2E8
:10083000E8788642F6D300F0DFFC00F0DBFE0C48DF
:100840000E495830676201600D494160092181609D
:100850000020F8BD400100200000012080010020A0
:10086000E00A0020D00B0020EC1F0020F83100200F
:10087000F83A0020603B00203C000020204E0000A1
:10088000983A0000F0B585B01C4615460E4607465E
:10089000FFF7AEFE012802D0FC2005B0F0BD0F49E5
:1008A0000D4808604B20C00000904320C00001901C
:1008B0000B4802900A2003902B2004906846FFF713
:1008C00087FD23462A4631463846FFF743FF044654
:1008D00002F010FE2046E0E784245502400000208C
:1008E000F811000010B50848808CC0070AD000F04D
:1008F0000BFE00F0C3FD054801F0EAFD00F08EFCA0
:10090000FFF700FD10BD0000F83A0020783B002002
:1009100010B50B490020CA780A490B4B0BE03C2468
:1009200044431C59002C04D0C86A10221043C862EA
:1009300003E0401CC0B29042F1D3888DC0B210BD1C
:100940003C000020F83A0020E00A00203C225043FE
:100950000A4A8218106A05280AD1106B002807D0AD
:10096000D269022A06D0032A04D0002A02D002E06B
:1009700017207047C172002070470000E00A002075
:10098000F8B53C21484313494418256B002D02D08B
:10099000206A052801D01720F8BD00276763E06AA8
:1009A0000090A08C0C4B82B26946284603F066FA90
:1009B000060007D0284603F007FA3046276200F009
:1009C000E7FBF8BD2035A878BF210840A8700020BB
:1009D000F8BD0000E00A0020B5130000F8B50C4691
:1009E000002101700D465A49C97808E03C22594B54
:1009F0006A43D218126A002A03D06D1CEDB28D42F0
:100A0000F4D38D4201D32020F8BD0570E0690028A1
:100A100005D002281FD0032869D02120F8BD208DE1
:100A2000C0B203F00BF8060075D04B486946006869
:100A30000090304602F0B0FFE06A00906946304610
:100A400002F0B6FF3C204349684342184349304610
:100A500003F00AF83FE005F0CFFC060075D0E06A2D
:100A600000900F20000702F0EAFD074600990720DA
:100A70000F40400702F0E3FD874205D03849684641
:100A800001F088FF002806D0208D364982B230461A
:100A900005F00EFB12E03048694600680090208D9A
:100AA00082B2304605F004FB002809D1E06A0090CC
:100AB000A08C694682B2304605F048FB002802D07F
:100AC00000F066FBF8BD3C202249684342182649E5
:100AD000304605F09EFC05202663206269462048CA
:100AE00001F064FC2946204600F07AF92BE003F07F
:100AF000F7FE060029D01848694600680090208D4E
:100B000082B2304603F0E2F8070005D0304603F029
:100B10005BF93846D4E718E03C200E496843411899
:100B2000304603F0D1F81149304603F00DFC26633E
:100B30000520666320622946204600F051F9694687
:100B4000074801F033FC0020F8BD1120F8BD00007B
:100B50003C000020E00A0020F83A0020891600003E
:100B6000783B0020EB650000051900001D0F000018
:100B7000F7B582B0049900220D680A603C21484311
:100B80005D494618306A052802D0172005B0F0BD2F
:100B9000002D17D07469B0680090F168401E0918E4
:100BA000B069A84200D20546039800287AD0671998
:100BB0008F4209D2042D07D92A462146FFF7AAFA07
:100BC0003C467FE01A20E1E74C48007C800724D5B2
:100BD0000F1B7F1CAF4200D32F46042F05D93A4686
:100BE00021460398FFF796FA04E0BAB2214603982B
:100BF00000F00AFC0398009CC019BD4262D9EF1BAB
:100C0000042F04D93A462146FFF784FA03E0BAB22A
:100C1000214600F0F9FBE41954E000203EE0039A7D
:100C200023781370039A641C521C8C4200D9009CD8
:100C3000401CA84246D223781370521C641C8C427C
:100C400000D9009C401CA8423CD223781370521C4F
:100C5000641C8C4200D9009C401CA84232D22378EC
:100C60001370521C641C8C4200D9009C401CA8428A
:100C700028D223781370521C641C8C4200D9009C2B
:100C8000401CA8421ED223781370521C641C03928D
:100C90008C4200D9009C401CA84213D2A842BED36B
:100CA00010E0FFE76019884203D2042D01D9044601
:100CB00008E0002004E0641C8C4200D9009C401C29
:100CC000A842F8D3049805607461B069411BB16112
:100CD00002D1B06870613061F069032809D1B2892E
:100CE000306B511A89B24185F2688A4201D104F011
:100CF00066FE00204AE70000E00A00203C3B00209E
:100D00003C225043034A8018002901D042690A60FE
:100D100080697047E00A002010B53C230D4C434326
:100D20001B191C6A052C03D000201060172010BD71
:100D3000DB69002B05D0022B06D0032B07D0FA204D
:100D400010BD00F0F7FC10BD00F038FE10BD00F043
:100D500057FD10BDE00A00203C225043094A82188A
:100D6000106B002802D0126A052A01D017207047A4
:100D700008220129018903D0914301810020704795
:100D80001143FAE7E00A002002490A6810180860D7
:100D900070470000B400002070B5047805460829AB
:100DA00013D007DC01290BD002290BD0042916D15E
:100DB000042008E010290AD0402910D1402002E088
:100DC000012000E00220044308E00820FBE7102097
:100DD0000443686B002801D002F0F6FF2C6070BD60
:100DE00070B505463C2041430848081804463C219C
:100DF000FFF7A9F9002D04D020463C222946FFF731
:100E000089F9A0682061606170BD0000E00A0020DF
:100E1000FFB504690546C168601E83B008180090DC
:100E20003C488168491C8160002C2FD0059800281F
:100E300067D0008902900498FD222030817849080B
:100E4000490011408170059E0098728977681119D8
:100E500081422FD93048007C80071BD50098394645
:100E6000001B401C80B2024601902046FFF752F959
:100E7000019872893918101AAC6800282EDD87B2E3
:100E80003A462046FFF746F9E41927E00020C04320
:100E900007B0F0BD002009E0397821700099641C8A
:100EA0007F1C8C4200D9AC68401C80B271898142A1
:100EB000F2D813E0042A06D939462046FFF72AF96A
:100EC000708904190AE0002005E039782170401C7F
:100ED000641C80B27F1C71898142F6D83668002E6E
:100EE000B2D1A96902982C610818A861059802F08E
:100EF000A4FCA889298B401A81B2049804F05AFDF9
:100F000001E0002B01D00020C2E7049802F05CFF52
:100F1000BEE700003C0000203C3B0020704770B55D
:100F200000247D260546F60004E0304600F005F872
:100F3000641CA4B2AC42F8D370BD002109E00122C8
:100F400000BF00BF1346521E92B2002BF8D1491CBD
:100F500089B28142F3D3704770B5384957220A707D
:100F6000A8220A70354A403A537BDF24234053734A
:100F7000D37BFD242340D37300230B703049CB7007
:100F8000CC78DB252C43CC70CD7804242543CD7060
:100F9000FF250D714E79C0252E434E718E7936098D
:100FA00036018E718E7926438E71CC792C43CC71AB
:100FB000CC79A406A40ECC710B764C7E01231C4385
:100FC0004C768C7EE406E40E8C768C7E20252C43B9
:100FD0008C768D7E102425438D768D7EFB263540C4
:100FE0008D768D7E1D438D76C8831648144B4579CA
:100FF00020331D7205795D72C5789D728578DD722A
:1010000045781D7300785873508B402318435083E4
:101010000D480D4A806B803A80008018806F88816F
:1010200006488030026890210A4302604269A24368
:10103000426182680A43826070BD00004010004037
:1010400000900040340000205042002070B5154947
:10105000CA6B002A09D04A6B0C469200803C1219D8
:10106000956F928F93B2002205E0002070BDAE5CB8
:101070008654521C92B29A42F9D3486B00228000E7
:101080002250486B401C4863042800D34A6306483A
:10109000C1784906490EC170C17880221143C170E0
:1010A000184670BD504200200090004030B5124AF2
:1010B00013689B009B18DC68002305E005785B1C27
:1010C0002570401C9BB2641C8B42F7D301240B4853
:1010D000802303600A484181116889008918898941
:1010E0000181C17908221143C1710448803803602D
:1010F00004480460002030BD9442002080E100E0FC
:10110000009000404800002010B5FFF74BFA10BDDA
:1011100070B51B4C2579680603D5FFF70FF9402001
:101120002071280704D51749002008600820207185
:10113000E8061FD5012000F0DDF94607124890238C
:1011400004221249002E07DAC6681E43C660E07901
:101150001043E071022007E086681E438660E07954
:10116000FB231840E07101200862C86A1043C8627E
:1011700010202071A80702D060790320207170BD73
:101180000090004048000020C0100040F83A0020C5
:10119000002805D0FF210131081A0249C0B2085CBD
:1011A00070470000C065000000B5124A0B0000F057
:1011B000DDFC0504071016191F00516B81430AE07E
:1011C000516B81435163116B01431163116A814378
:1011D0000DE0516B01435163116B8143F5E7516B96
:1011E000814301E0516B01435163116A0143116274
:1011F00000BD00008010004010B50548FFF7ACFEB0
:1012000004490020086004490120086210BD000064
:101210004F02000048000020F83A0020F8B5304C9A
:10122000606800902F48016A012958D00099A2688F
:10123000C069891A4008814214D30098A06062787E
:1012400080212948002A08D08268120605D400228D
:10125000627082680A43826002E0C2680A43C26028
:1012600004F082FE0098E168401A2049884203D3C6
:101270000098E06001F0C6F81D48C16800290AD056
:101280000099E269891A7D22D200914203D3009924
:10129000E16140688047174DFF262868F536002831
:1012A00016D000982169401AB04205D300982061F9
:1012B0002869002800D0804700986169401A0E49CB
:1012C000884205D3009860616869002800D0804793
:1012D0000098A169401AB04201D90098A061F8BDF8
:1012E000B0000020F83A0020C01000408813000031
:1012F000DC420020603B002060EA00000149012040
:10130000C8637047F83A0020F8B5064600256846DD
:10131000057069463046FEF7C3FF00280BD06846CB
:1013200000781349020607D54006400E3C22504380
:10133000401845630562F8BD3C22424354180D49EC
:10134000C9788842F7D2E0690328F4D1367C204678
:101350003C21FEF7F8FE092E08D00A2E06D04021C7
:101360002046FFF719FD25632562F8BD1021F7E738
:10137000E00A00203C0000200020704738B5846B54
:101380000022002C01D04B6F04E0002038BD521C1D
:101390001B6892B2002BFAD1896F02E0521C0968D7
:1013A00092B20029FAD1002300921A461946A047AA
:1013B000EBE7000070B50D4604460949284604F0E5
:1013C000C5FA0849284604F057FC01220649284678
:1013D00003F07EFD08212046FFF7DEFC002070BDF3
:1013E000110E00007D1300007913000010B5054CAC
:1013F00023636263A1636061E06A01210843E062E4
:1014000010BD0000F83A002003E00B780370401C88
:10141000491C1346521E92B2002BF6D170470000B1
:10142000F0B51C220C461440134A5727124B8D0767
:10143000A826AD0F403A00281F701E700ED0080677
:1014400003D5907B022108439073907A20439072D9
:1014500009482038C17B2943C173F0BD080603D574
:10146000907BFD2108409073907AA04390720248CF
:101470002038C17BA943EFE74010004010B5124C63
:10148000206C00281CD111A000F060FBA06B810033
:10149000204680384158002901D0002010BDA26BA1
:1014A000012192008150A06B0C4A128850430C4AD3
:1014B00082180C488281C27904231A43C2712164C4
:1014C000206CC0B210BD0000504200205175617206
:1014D000794574685278446D610D0A003C3B0020E8
:1014E0008001002000900040014880787047000093
:1014F0003C000020C006C00E2021084301490871AD
:101500000888704720900040F8B50C4E0025B4695B
:1015100011E02046FFF7F8FE204603F089FCE06862
:10152000002D01D0E86000E0B06121460220E768AC
:1015300001F0A0FF3C46002CEBD1F8BD5800002084
:10154000F0B52A4E294D042757222849A824203EC9
:10155000403D030000F00AFB0D080E151A1E23275C
:101560002B2F34393E432E000A700C70F07BFB2188
:10157000084003E00A700C70F07B3843F073C82019
:1015800031E00A700C705120C0002CE00A700C7021
:10159000174828E00A700C708120800023E00A7050
:1015A0000C7088201FE00A700C7002201BE00A708B
:1015B0000C702F81F0BD0A700C709320800012E037
:1015C0000A700C700A484D300DE00A700C709520BE
:1015D000800008E00A700C704B20C00003E00A7025
:1015E0000C7003485C302881F0BD000040100040C2
:1015F0000202000030B587B000251D4C039504950C
:101600001A48059520620C386062001DA062001D1A
:10161000E06201F095FD042203A8616AFEF77AFDFD
:10162000042204A8E16AFEF775FD042205A8A16A58
:10163000FEF770FD06220F48216AFEF76BFD0E488B
:1016400005600E4805600B48273801F099FF0C48EB
:1016500002900C490748019105AB04AA009503A923
:10166000273801F055FF07B030BD0000043B0020D3
:10167000B00000209F3B00205000002054000020BC
:101680004D240000A9240000FFB504690546C16887
:10169000601E81B00F1803980026406841780278D8
:1016A0000802104301F0CDFF0005000F8000414209
:1016B000039802F0E4F8002802D0002005B0F0BD45
:1016C0000398002834D0002C0CD0E868002809D0FA
:1016D000039842894168931912199EB2BA4212D9ED
:1016E00000220CE0039802F0A8F821E00B782370A8
:1016F000491C641CBC4200D9AC68521C92B243899C
:101700009342F3D80AE0002205E00B78521C2370C4
:10171000491C92B2641C43899342F6D800680028A1
:10172000D7D1039802F089F8A8692C618019A861C3
:101730000120C3E7F7B53C2148432F490025146831
:1017400084B04018156016460290002C14D00598FD
:10175000002811D00298006B03902848006C800785
:1017600000D4C7256D1CADB2C82D40D8B920C0002B
:10177000844204D9009004E01A2007B0F0BD20464E
:10178000009481B20022104601F05EFF070030D0C5
:101790007868009A0599FEF7BDFC18490020C863D7
:1017A0003946039802F063F90190384602F045F893
:1017B0001248C06B002802D1019800280DDA0020E1
:1017C000306040210298FFF7E7FA0198002802DA1A
:1017D000FFF7DEFCD1E7FA20CFE731680098081860
:1017E00030600099059840180590641ABAD100201D
:1017F000C3E71120C1E70000E00A0020F83A00200A
:10180000F7B50025146882B017462E461560002CE7
:1018100015D00399002912D03C214843374940187C
:10182000006B01903648006C800700D4C726761CF8
:10183000B6B2C82E06D93868002850D156E01A2012
:1018400005B0F0BD0198007C042801D01720F7E70F
:101850002B48006C800701D5FFF744F80198403011
:10186000C08D0090002807D0254D4435287CC00746
:1018700004D10098844201D91120E1E70098844204
:1018800000D8009468680099884200D200900198BE
:1018900003F0BCF81A484430007CC007009802D01E
:1018A00082B2012301E082B200230399019804F07F
:1018B00087FB050005D0681C01981BD003F0A6F833
:1018C00014E0019803F0A2F805463968009808185A
:1018D00038600099039840180390641A01D10020E1
:1018E000AEE707484430007CC007A0D12846FFF788
:1018F0004FFCA5E703F08AF8F3E70000E00A0020B8
:10190000F83A0020FFB505460469C068611E471813
:10191000A96B002681B09446002902D0AC68611EF4
:101920004718110006D0002C01D0002804D1084629
:1019300001F083FF05B0F0BD4B8948689A1996B253
:101940001A19BA420ED9002308E002782270401C0E
:10195000641CBC4200D9AC685B1C9BB24A899A42A9
:10196000F3D80AE0002305E002785B1C2270401CDB
:101970009BB2641C4A899A42F6D809680029DBD1D7
:1019800001200003864200D90646604601F055FF5B
:10199000AF6B002F0DD00498FEF7E0FB00960146D8
:1019A000AB6828460A9AB8470020A861A868286151
:1019B000C0E7A8692C618019A861BBE7F7B50025CD
:1019C000146884B016461560002C17D005990029BC
:1019D00014D03C21484327494018006B0290264808
:1019E000006C800700D4C7256D1CADB2C82D3CD853
:1019F00017208001844204D3009004E01A2007B02D
:101A0000F0BD2046009481B20022104601F01CFE79
:101A100007002CD07868009A0599FEF77BFB1649E1
:101A20000020C8633946029804F0F6FC019038465D
:101A300001F003FF1048C06B002802D10198002874
:101A400009DA002030600198002802DAFFF7A0FBD5
:101A5000D5E7FA20D3E7316800980818306000997C
:101A6000059840180590641ABED10020C7E71120E0
:101A7000C5E70000E00A0020F83A002010B5102168
:101A80000120FFF7CDFC0320FFF749FA0220FFF702
:101A900057FD05498A6A481502438A620321FFF708
:101AA00083FB00F041F810BD80100040044857212E
:101AB0000170A821017002498820403908817047CF
:101AC0004010004010B50A20FFF75EF90248817906
:101AD000FF221143817110BD0020004008490222FD
:101AE0000A7000220A704001C8608879887101205C
:101AF00088700A7804231A430A7002490860704704
:101B00000020004000E100E010B501460448FEF767
:101B1000D7FA0A21401DFEF7D3FA0249888110BD89
:101B2000005A62020034004010B5E1204002FFF785
:101B3000EBFF0548872181700321C170402141706E
:101B40000121817310BD0000003400400FB410B5B6
:101B500003A9044B044A029800F024F810BC08BC06
:101B600004B01847512600003801002030B47446F4
:101B7000641E2578641CAB4200D21D46635D5B0089
:101B8000E31830BC184702E008C8121F08C1002A39
:101B9000FAD170477047002001E001C1121F002AEE
:101BA000FBD17047FFB591B00F460546002606E011
:101BB00025280AD0149A139990476D1C761C287812
:101BC0000028F5D1304615B0F0BD00240094012165
:101BD000F34A029400E004436D1C2B780846203B36
:101BE00098401042F7D128782A280ED00221287870
:101BF0000246303A092A15D8009A0A235A43303A45
:101C000080180C436D1C0090F1E701CF0090002874
:101C100005DA01204003044300984042009002206E
:101C200004436D1C28782E2815D1042004436878BD
:101C30006D1C2A280AD101CF6D1C02900BE002997D
:101C40000A225143303940186D1C02902878014611
:101C500030390929F3D928786C2810D006DC4C28B3
:101C60001AD068280ED06A2817D104E0742813D03F
:101C70007A2812D110E00120400504430CE0012134
:101C8000090501E0032109050C436978814203D16C
:101C90000120000524186D1C6D1C287803906E2807
:101CA0001ED00CDC632831D004DC00288AD05828F0
:101CB00011D1B2E064287BD069280CD178E0732878
:101CC0002DD004DC6F2870D0702804D1A7E07528CF
:101CD0006CD078286BD0149A13999047761C62E0E8
:101CE0006002400F022807D003280AD00428386871
:101CF0000AD006603F1D56E03868F1170660416063
:101D0000F8E738680680F5E70670F3E73878694643
:101D100008740020487404A80390012003E0386888
:101D200003900020C0433F1D61070FD5002101E053
:101D30000199491C029A0191914213DA8142F7DB21
:101D4000019A0399895C0029F2D10BE0002101E09E
:101D50000199491C01918142FADB019A0399895C3E
:101D60000029F5D101990098139A401A0090214654
:101D7000149B00F03BF901998019461807E003987D
:101D800003990078491C0391149A1399904701987C
:101D9000401E0190401CF2D12146149B139A0098DA
:101DA00000F014F986196D1C09E741E033E034E0D6
:101DB0000A200021049005916002410F022905D0FC
:101DC00001CFC2179446032905D007E0FF1DFF0885
:101DD000FF0003CF06E000B2C2179446042902D1E7
:101DE00040B2C1178C4600226146944506DA0A4685
:101DF0000021404291418C462D2102E0210504D56D
:101E00002B216A461176012103E0E10701D0202150
:101E1000F7E7019154E00A200BE0102009E01020C0
:101E2000049000210420044308200591029003E05F
:101E300008200021059104906002410F022905D07D
:101E400001CF00229446032906D006E0FF1DFF08BB
:101E5000FF0003CF8C4603E080B2042900D1C0B25A
:101E60000021019121072BD50399702906D0049AEE
:101E70001021059B4A401A4305D00EE040216A46D6
:101E80001176012108E06146014306D030216A46FF
:101E900011760399517602210191049A0821059B3C
:101EA0004A401A430CD16146014301D1610707D56D
:101EB00030216A461176012101910299491E029151
:101EC0000399582904D037A103910FA90F910DE070
:101ED00039A1F9E76146059B049AFEF752F9039B85
:101EE0008C469B5C0F9A521E0F9213706146014301
:101EF000F0D10F9807A9081A20300390600704D585
:101F0000012000048443029801E00120029003991B
:101F1000884201DD401A00E000204118029001983B
:101F200009180098401A0090E00306D42146149B3B
:101F3000139A009800F05AF886190020049008E0DF
:101F400006A9085C149A139990470498401C761CC3
:101F5000049001998842F3DBE0030CD52146149BE1
:101F6000139A009800F042F8861904E0149A302081
:101F700013999047761C0299481E02900029F5DCBF
:101F800008E00F980F990078491C0F91149A139943
:101F90009047761C0399481E03900029F1DCFBE66C
:101FA000092801003031323334353637383961622F
:101FB00063646566000000003031323334353637F3
:101FC000383941424344454600000000F8B5044614
:101FD00000251E461746880404D405E03946202013
:101FE000B0476D1C641EF9D52846F8BDFFB5044600
:101FF000002581B01E46C80301D5302700E0202708
:10200000880404D505E038460399B0476D1C641E6A
:10201000F9D5284605B0F0BDF7B584B006007DD0EF
:10202000069840892B287AD30698456801202C46CB
:102030000F3400F017FB61782278090211438842BF
:1020400078D13F4800F00EFB01466079227900020A
:10205000104381426ED10120C00200F003FB014613
:10206000E078A27800021043814263D1354800F045
:10207000F9FAAA7B6B7B1102194388425AD1214697
:102080000E31042202A80091FEF744F821461831CF
:10209000042203A80191FEF73DF87068002805D0DE
:1020A0000399814202D101273B4601E000273B46CC
:1020B0002246083202A9304604F03EFAE079A179BE
:1020C0000002084300F0CEFA012802D0022831D1E4
:1020D00026E0002F2ED0022000F0C4FAA071000AE2
:1020E000E071042200990198FEF714F80422311DD2
:1020F0000098FEF70FF80621491EC9B26018027A4F
:1021000082746B185A70059A0029525C0272059805
:10211000405CD871F0D1B269069909E00DE009E0A0
:1021200009480168002905D0C268002A02D002A926
:1021300030469047069801F080FB07B0F0BD0000E4
:102140000406000006080000603B002070B5050092
:1021500011D04C6820461B300646FDF7FFFFA968EA
:102160006A6808400A40904205D10023E21D3146CA
:10217000284604F0E1F970BDFEB50E46044615464A
:102180000F21304601F07BFB002802D00120C04324
:10219000FEBD2146284600F0FDFB002801D0284B5B
:1021A0002FE02846FDF7DAFF07460F20000701F071
:1021B00046FA07400720400701F041FA874227D13D
:1021C000012168460170002141705E21817028461E
:1021D000FDF7C4FF01F033FA4002410E6846C170BA
:1021E0002846FDF7BBFF01F02AFA010A6846017193
:1021F0002846FDF7B3FF01F022FA01466846417117
:102200006B46224627323146204600F0E1F8FEBDFB
:102210002846FDF7A3FFA168626808400A40904283
:1022200004D0E068002807D025460C353246294600
:10223000204600F007F8FEBD0320C043FEBD0000AD
:10224000EF650000F7B586B006980D462730009080
:102250000020C043019014462846069900F09AFBDE
:10226000002827D12846FDF779FF06460F200007F2
:1022700001F0E5F906400720400701F0E0F9864249
:1022800018D0002D16D02846FDF768FF002811D081
:102290000121284600F054F900280DDB144E0701F7
:1022A00070683918887A002808D0012808D0002CD6
:1022B00006D00EE00920C04309B0F0BD01208872AD
:1022C000FFF71CF82946069800F070F80190002CE2
:1022D0000BD070683B18987A022806D121461B1D46
:1022E000009A069800F074F801900198E4E7000065
:1022F000A8000020FFB581B01F4600222B2103203B
:1023000001F0A2F906004AD075680D982C460F34EA
:1023100000F0A8F9A071000AE0710620401EC0B2CA
:102320003A5C21180A720B9A125C8A7403990A5C4F
:1023300029184A70029A0028125CCA71EED1204610
:1023400004220E300A99FDF7E5FE204604221830DB
:102350000C99FDF7DFFE012000F084F92070000ADF
:1023600060700120C00200F07DF9A070000AE070EA
:102370000C4800F077F92071000A60710A4800F0FB
:1023800071F96873000AA873019831468269904711
:102390000446304601F051FA204605B0F0BD002059
:1023A000C043FAE704060000060800001FB5012339
:1023B0000393064C021D03460092029127330194B9
:1023C0001946A21FFFF796FF04B010BDF565000087
:1023D000F8B54D680E4607460624641EE4B2281977
:1023E000195D4170115DC171002CF6D10120C00250
:1023F00000F038F96873000AA873BA6931463846A4
:102400009047F8BD30B50F4900200F4C4B6814E0E1
:102410000101C918CA7A521CD2B2CA728D7A022D31
:1024200002D0012D03D006E0F02A02D203E0022AF6
:1024300001D300228A72401CC0B2E1688142E7D811
:1024400030BD0000A80000203C3B002070B50446D1
:1024500040680D46817B427B0802104300F002F980
:102460000121C902401A02D006280BD113E02146EF
:102470002846FFF76BFE0E21C943204601F0FFF905
:10248000002803D0204601F0D8F90AE0294620466A
:1024900000F04AFB05E02946224627312846FFF78F
:1024A000BBFD002070BD000010B5C1610146652272
:1024B00020318A736E22CA730349416103498161E5
:1024C00000F022FD002010BD792100009D300000A9
:1024D00070B505461648C16B002927D0154A5178BA
:1024E000491C5170144A80211160C06B134A0006C8
:1024F000000E11601AD0284600F064FD040015D0CB
:102500006068817B427B0802104300F0ABF8012138
:10251000C902401A01D0062805D12A692946204659
:102520009047002802D0204601F087F970BD0000D6
:1025300050420020B000002080E100E000E100E017
:10254000F3B5414887B0C76800247DB202943F4983
:1025500001950394009507984E6800284DD00846D1
:1025600000780590000104908019807A022844D1F7
:102570000798FDF7F3FD0499715888423DD10598FD
:1025800040B209B0F0BDAF4204D120018019807A79
:10259000002809D02001059080190490807A012834
:1025A00004D0022816D026E065B224E0079800285F
:1025B00007D0FDF7D3FD05997158884201D1234812
:1025C0003FE004980399C07A884214D361B2019124
:1025D000039010E00798002805D0FDF7BFFD05998E
:1025E00071588842EBD004980299C07A884202D38D
:1025F00061B200910290641CE4B2A742C3D80020EB
:10260000C043AF4202D10899C907BAD008998907D7
:10261000B7D4AF4201D9ECB206E000998F4202D89C
:1026200001998F42ADD9CCB227010020BD19A87203
:102630000798002802D0FDF791FDF05100210348D2
:10264000E972047060B29CE73C3B0020A8000020C7
:102650000249CA7A082AFCD0087270470034004048
:1026600000BA704740BA704710B50A46032100F01F
:10267000FBF810BDF3B54568044668782978000278
:1026800089B0084300F0DDFF0005000F80004142E3
:1026900007900091204601F0F2F8002824D120890B
:1026A000042821D366683078032802D00828F5D1A1
:1026B0001BE0707C327C0002104331460831377ACF
:1026C000000A0D4601900422103103A8FDF722FDF7
:1026D0003807800E28188178C07809020143737882
:1026E000019A0398FEF782FEB6E0284610300126D4
:1026F0000490FDF733FD07460F20000700F09FFF11
:1027000007400720400700F09AFF874200D10026CB
:102710000A99049800F03EF9002802D0FEF7E4FE82
:102720009AE0FEF7E1FE00287ED0002E7CD02089C2
:10273000082879D3204600F0D2F8002874D122214D
:10274000204601F09CF800281DD02046079901F092
:1027500096F8002868D121890022022000F074FF39
:10276000060079D0214601F01EF8002874D1756862
:102770003046009901F083F800286DD1204601F021
:102780005CF8344606E02121C943204601F077F881
:10279000002861D128460C30666806900490FDF749
:1027A000DDFC07460390284610300090FDF7D6FC6C
:1027B0000499FDF7DDFC38460099FDF7D9FC0027A8
:1027C00037702848FFF74EFF0146F078B2780002D4
:1027D00010430122D2028142104607D8FFF742FF80
:1027E000F178B27809021143401C05E0FFF73AFF87
:1027F000F178B278090211434018B070000AF07005
:10280000687A297A0002084300F01BFF0121C0B258
:10281000C9034018FFF726FF2872000A6872380AB9
:10282000AF72E872142100E016E0284600F051F87B
:10283000A872000AE8722046079901F020F80028E3
:102840000AD10A9801210191029080230022009769
:102850002046069900F0A8FA204600F0EEFF0BB0E3
:10286000F0BD0000FFF70000F7B50E4682B0002271
:102870002421012000F0E8FE050028D002986C68B1
:102880004768267004986070002626716671A671EC
:10289000E67102981C22416868680830FDF73AFC2E
:1028A000A670300AE0706989204600F012F8A07026
:1028B000000AE07001203A46019080230C3200218A
:1028C0000096284600F056FA284600F0B6FF05B0FC
:1028D000F0BD10B500F042FCC04380B210BDF8B5A9
:1028E00000252E46044601270FE06189606800F04C
:1028F00035FC4019010C80B20D18A07AC00703D036
:10290000B81BC6B268BA85B22468002CEDD1002E7F
:1029100001D068BA85B2E84380B2F8BDFFB50025A2
:1029200081B02E46044601270FE06189606800F0FF
:1029300015FC4019010C80B20D18A07AC00703D015
:10294000B81BC6B268BA85B22468002CEDD1002E3F
:1029500001D068BA85B20298FDF700FC81B249192E
:10296000000C44180398FDF7F9FB81B20919000C1B
:1029700044180498FFF776FE04190A98FFF772FED0
:102980000019010C80B20818010C0818C04380B26D
:1029900005B0F0BD10B50C46FDF7E0FB0246411C4A
:1029A00013D0002A11D02D21095D89070BD561684C
:1029B000914208D0A0681346034001408B4202D1E7
:1029C0001043401C01D0002010BD012010BDF7B500
:1029D0008EB004460F981426808C00906068079093
:1029E000C179827908020025104300F02AFEC10453
:1029F000C90C05910121490308400A902089143827
:102A000087B200981438C117490F0890081840037E
:102A1000000C09907FE00898874201DC012000E06B
:102A2000002005990A9AC904C90C11430B9100288A
:102A30001AD0384680B2069000221421022000F0FD
:102A400003FE0490002817D0406814220799FDF770
:102A500061FB049840680C90606880196060608930
:102A6000801B6081069E26E0084601214903084339
:102A70000B900998C000DDE70020C04311B0F0BD05
:102A80006589B54200D93546002D13D002220021B8
:102A9000032000F0D9FD010042D0606848600D813C
:102AA0004D81049800F05AFE701B0604360C04D0C9
:102AB0002468E5E72468002EE2D12E460B98FFF744
:102AC000D1FD0C998871000AC8710698143080B243
:102AD000FFF7C8FD01460C988170090AC1700C9877
:102AE00000218172C17214210C98FFF7F2FE0C993B
:102AF0008872000AC8720F98109A4369049998471F
:102B0000049800F09AFE06980999381A87B2059839
:102B1000401880B20590002F00D07CE70020ADE780
:102B2000049800F08AFEA7E7F3B585B00120039072
:102B300005980E464568687829780002084300F039
:102B400080FD000B042803D0059800F076FE06E116
:102B5000687829780002084300F073FD0005000F33
:102B600080000090E878A9780002084300F069FD31
:102B700004460598418900988142E5D3059800896B
:102B8000A042E1D328460099FFF7A3FE0028DBD13D
:102B90002146059800F0A6FE012002900F20344641
:102BA000000700F04CFD0720400700F048FD2046DC
:102BB00000F0D2FC002820D0201D1ED06768002F16
:102BC0001BD0284610300190FDF7C8FAB84223D038
:102BD00021460198FFF7DEFE00281DD10198FDF780
:102BE000BDFA07460F20000700F029FD0740072027
:102BF000400700F024FD87420ED00298002804D040
:102C0000002002905748046800E02468B44200D1D4
:102C10002468002CCBD101E0002C2DD1687A297AD0
:102C20000002084300F00DFDC0B211280ED100983B
:102C30002918C87889780002084300F002FD44286A
:102C400004D1002034460390002E15D1687A297AE9
:102C50000002084300F0F5FCC0B211280CD1009826
:102C60002918C87889780002084300F0EAFC3E4938
:102C7000884201D134461FE0039800281CD0284622
:102C80000C300746FDF76AFA002815D03146384661
:102C9000FFF780FE002800D056E73846FDF75EFAC1
:102CA00007460F20000700F0CAFC07400720400736
:102CB00000F0C5FC8742EFD0002CEDD02B48FFF789
:102CC000D1FCE979AA79090211430842E4D1284CE0
:102CD00031466660A560059800F076FE00283BD17D
:102CE000687A297A0002084300F0ABFCC0B20128E0
:102CF00015D006280ED01128314607D028461030AE
:102D00000646FFF747FE00280ED022E0059803F0A4
:102D100061FA21E03146059801F04EFB1CE0314696
:102D20000598FFF7A7FC17E03046FDF717FA0646AF
:102D30000F20000700F083FC06400720400700F04A
:102D40007EFC864205D00598022145600598FFF774
:102D50008BFC059800F071FD00206060A0600020F1
:102D600007B0F0BD500000206C070000FF3F0000DE
:102D70002C010020FFB583B01F46164610460C9D5F
:102D80000D9C00F097F800280AD002903B4632468E
:102D9000009501940499039800F006F807B0F0BD7F
:102DA0000320C043FAE70000FFB581B00646039850
:102DB0000C9D1F46002865D0142001460090304627
:102DC00000F05DFD002803D00120C04305B0F0BD38
:102DD0007468607A217A0002084300F032FCC0B2C5
:102DE00039020843FFF73EFC2072010A617200F0CD
:102DF00028FC000A0B9900020843FFF733FC2072FD
:102E0000000A60720398FDF7A9F921461031FDF719
:102E1000AFF905200A9900020843012189030843FC
:102E200080B2FFF71FFC2070000A60703089FFF746
:102E300019FCA070000AE0700020A0711C4FE07126
:102E40003888FFF70FFC2071000A60713888401C39
:102E500038800298002803D0FDF780F9002802D1BD
:102E6000281D00D0686821460C31FDF781F900204B
:102E7000A072E07220460099FFF72BFDA072000AB5
:102E8000E07202E0706810300390A88C002808D02F
:102E90003189814205D929463046039AFFF797FDCB
:102EA00094E76B6931462846039A98478EE70000FD
:102EB0002C01002070B505461148046811E0204639
:102EC00000F04AFB00280BD02846FDF747F90146E1
:102ED000A068626801400240914201D1204670BD65
:102EE0002468002CEBD1074C2068002805D000F0A6
:102EF00033FB002801D0206870BD002070BD0000A9
:102F00005000002054000020F8B504462546062055
:102F100020352249A8710A6A00202618135C203641
:102F2000401CC0B2F3710628F7D31E4F1C480F6334
:102F300088633846203848631B48C8631B4900260D
:102F40000E601B4A3046127804E083005B185E6016
:102F5000401CC0B29042F8D3002004E083005B180C
:102F6000DF60401CC0B29042F8D31048C421C4387E
:102F7000FDF7E9F80D480121443801640D49A184A9
:102F800033216973806B0C49098848430449401810
:102F90000A4988810A480660F8BD0000B000002098
:102FA00080010020D03B00204001002094420020FE
:102FB0003D000020DC0500003C3B0020009000406C
:102FC00048000020F8B50027304880213D460160C8
:102FD0002F4C606B621A80008018C06B636B80B2EC
:102FE0009B009B189B6F636B9B00D258D2B20092E0
:102FF000264A803A1160009A022A19D1002817D077
:10300000401C81B20322104600F01EFB05003AD09E
:10301000791E00F034FC2E467F1CFFB2052F01D92B
:103020000020F8BD7068FEF711F83668002EF3D165
:10303000164880210160E26B00231648002A02D066
:10304000009A022A0FD00278134E521CD2B202709C
:103050003678B2420ED30370E06B401EE063E06B43
:10306000002805D006E00370E06B401EE06301E03D
:10307000A06B6063054880380160002D03D00121FA
:10308000284600F0FCFB2846F8BD000080E100E087
:1030900050420020B00000203C000020F3B5002585
:1030A00081B02C46691E029800F0E9FB20481E4FB3
:1030B000016A1E4A1F4804E0641C944206D8012994
:1030C00004D00368002BF7D1029C0EE000210160C0
:1030D0000B20C043FEBD66896168A81985B23246DF
:1030E0003846FDF717F82468BF19002CF3D1124AAF
:1030F0000D48136801219B009B1859601168491CF9
:10310000116011680D4B1B78994201D300211160A9
:103110003C2D00D23C252946FDF7C8FF012102982D
:1031200000F0ADFB0020FEBDD03B0020FFFF000003
:10313000F83A002048000020944200203D00002082
:1031400010B500F0A9F800F09FF903488068002846
:1031500000D0804710BD0000DC42002010B50022E6
:1031600007E00378891E1C02437889B22343D218F2
:10317000801C0129F5D8002902D00078000212181D
:10318000100C91B24018010C02D0010C80B208184A
:1031900080B2FFF767FA10BD10B5002803D00146D2
:1031A00001A0FEF7D3FC10BD6D53746F70496645E6
:1031B00072726F723A20253032580D0A00000000FA
:1031C000FEF75CFC164B1A46083A111F081FFDF764
:1031D00059FBFFF7E1FF13A0FEF7B8FC1848FEF714
:1031E0007DFC184980200860174C02E03220FDF772
:1031F00096FE206A0228F9D3FDF7FAF8FDF72EF9BA
:10320000FDF762F9FDF798F910A0FEF79FFCFDF7B6
:1032100069FBFDF77DFB0028F9D0FDF7EBF9F6E738
:103220003400002043483537784E45544C69624994
:103230006E697420537563636573730D0A00000033
:103240001027000000E100E0F83A0020434835373D
:10325000392054435020636C69656E747320637227
:103260006561746564A3A10D0A00000010B5002813
:103270000FD008494A6890420BD38A68904208D21E
:10328000002208380271CA68904200D2C86000F07B
:1032900059FB10BDF400002030B51049104A0868F1
:1032A000104CC01C80088000486013890125DB1C7D
:1032B000234003800023438003719368DB1C9B0839
:1032C0009B001B188B601D711589ED1C25401D800E
:1032D0001289D21C22405A80C86030BDF400002000
:1032E0003C3B0020FCFF0000F0B500284AD02849F4
:1032F000C31C0B400C2B00D20C23264CA068C01C16
:103300008508AD009D4241D32348C6684268B11A82
:1033100089B2EC1A38E050180579002D33D10588B0
:103320006D1A083D9D422ED304881F46641A143737
:103330000125083CBC4215D3CB1808339CB21319A5
:1033400000271F7107881F80598004800571198824
:10335000104B9B68DB1C9B089B00994203D0931C7D
:10336000CC5200E005710C49B0420AD18C68CB68A0
:103370001D79002D05D0A34203D01B889B18CB607C
:10338000F6E70830F0BD515A8C42C4D80020F0BD99
:10339000FCFF00003C3B0020F4000020F8B5324A5E
:1033A000C91C11400C2900D20C21304A9268D21C51
:1033B000920892008A4210D32D4B5C68A0420DD334
:1033C0009A6890420AD20246083A131B15889BB2AB
:1033D000EE1A083EB6B2B14201D90020F8BDB142A2
:1033E000FCD02D19AC462F79214DED68AE46204D0D
:1033F0006D68AD1C002F1BD00F461437B742EDD8B7
:10340000591808318EB21A4FA119714500D2F960CE
:1034100000240C7114880C804B801680134A098894
:103420009268D21C920892009142D7D04E53F8BDB8
:10343000591866460831368889B20096E64502D1A9
:103440000B4E6718F760641800262671009E2680D0
:103450006380064B11809B682288DB1C9B089B00C5
:103460009A42E4D05153F8BDFCFF00003C3B0020E1
:10347000F4000020002904D08200024883580B6029
:1034800081507047A8420020F0B50020401C80B257
:103490000828FBD30E490F4A8868C01C8408A40082
:1034A0000020002386009351450007E097592760CC
:1034B00094510F687F5B3C195B1C9BB24F687F5B2C
:1034C0009F42F3D8401C80B20828EAD3F0BD000028
:1034D00004010020A8420020082801D300207047E2
:1034E0000349820088580028F9D003688B50704740
:1034F000A84200200EB5054800904010019005201C
:1035000002906846FCF75AFF0EBD0000204E0000F6
:10351000F8B504460025089F06986560A560264614
:103520002036E560757325620A4DE06128783074B5
:10353000401C28702046276100F013F807992046A8
:103540008847002801D00020F8BD68682060204628
:103550006C60F8BD4C0000202030407BC007C00FDD
:10356000704770B51D461646044600F01BF83146FC
:10357000204600F059F82946204600F007F870BDB3
:1035800001498860704700004C00002010B50446D7
:10359000002904D00846FCF7E1FDE06010BD0020E2
:1035A000FBE70000F8B505460F4600260846FCF785
:1035B000D5FD6968884228D0194800680FE0016885
:1035C0006A6891420AD10121C46800F09FFA31462D
:1035D000761C2046F6B2642901D902E0C0680028B2
:1035E000EDD1104804680EE0002C0BD020680028B4
:1035F00008D06968884205D1002F0DD03846FCF705
:10360000ADFD2060E468002CEED1002F06D03846D6
:10361000FCF7A4FD6860F8BD0020F2E70020F9E7A0
:103620006C0000206800002010B50446002904D07A
:103630000846FCF793FDA06010BD0020FBE700BA30
:10364000704740BA70470000F8B5002516460F468F
:10365000002806D0012805D0022804D0032878D1FC
:1036600002E0142514350E35002E49D0012E5FD00E
:10367000022E5DD0032E6CD10720FFF72DFF040032
:1036800067D026730020206060191330B04360605B
:10369000314827814068ED1C3930A908B0438900C2
:1036A000401AB84200D9384680B201216081E181D8
:1036B0003D1A00941DE00720FFF70EFF00281BD0E5
:1036C00006730021417301600099AAB20860224983
:1036D000028149683931890889008A4200D2294625
:1036E00089B202464181103242600122C2816D1AC4
:1036F0000090002DDFDC26E0204600F09EF828E058
:10370000284613308108F81C8008890080000818BA
:1037100080B2FFF7E9FD04001BD060191330800868
:1037200080006060278167810020206020730AE0AC
:103730000620FFF7D1FE04000BD000206060278137
:103740006781206026730120E0810020607320469D
:10375000F8BD0020F8BD00003C3B002010B500285B
:103760000FD000290DD004E003890C891B190381B7
:1037700010460268002AF7D102890B89D21802810B
:10378000016010BD10B50C46FFF7E8FF204600F0C1
:10379000D2F810BD002102E0491C0068C9B200281F
:1037A000FAD108467047F8B500270C4605463E4654
:1037B000002805D0002C03D028892189884202D214
:1037C0000920C043F8BD6889C11B6089801B814204
:1037D00001DB80B200E088B200906068009A811935
:1037E0006868C019FCF796FC0098381887B20098F2
:1037F000301886B26889B84201D12D6800276089E7
:10380000B04201D824680026002C06D060892189A6
:10381000884202D12068002808D1002D09D068898B
:103820002989884205D12868002802D00820C04391
:10383000F8BD002CC7D10020F8BD70B5002815D008
:103840000024C189491E0904090CC1810DD1017BE5
:10385000056803290BD001290CD002290AD0FFF7F3
:1038600005FD641CE4B22800EBD1204670BD014682
:10387000072001E001460620FFF7FCFDF1E710B547
:10388000002909D0002807D0002907DA4A4293B25C
:1038900042899A4224D302E0002010BD8BB2027B01
:1038A0004468002A06D0032A04D0022A0AD0012A3A
:1038B00008D015E0621A0346103342609A4208D2DB
:1038C00044600DE000290BDA42899A4208D3621A5B
:1038D0004260428952184281028951180181DBE716
:1038E000012010BD70B502898A4223D98A1A0D467B
:1038F000044605E0281A85B22089801820812468B2
:103900006089A842F6D3207B00280AD16089A842AA
:1039100007D0A088001B401981B22046FFF73EFD6A
:103920000446658125812068002801D0FFF785FFC6
:103930000020206070BD002802D0C189491CC181CF
:103940007047000030B5134902884B68D2189C1CA0
:1039500090420ED01579002D0BD18D68AA4208D067
:10396000CD68954200D1C860158805801288C51AB7
:1039700015534288D21882420BD01579002D08D1F8
:10398000CD68854200D1CA60018811800088D11AB3
:10399000015330BDF400002010B50446002905D0C5
:1039A0000846FCF7DBFB2060002010BD0020FAE792
:1039B00010B50446002905D00846FCF7CFFB60602F
:1039C000002010BD0020FAE7F3B583B0002000907E
:1039D00003984668707A317A00020843FFF731FE97
:1039E000C0B201901448002504681FE0217C0198B2
:1039F000814216D16769002F13D033460C33A0697A
:103A00002146039AB84700280BD0002003900120DC
:103A10000090002D05D0E068E86007480168E1608B
:103A2000046025460098E468002801D1002CDDD10F
:103A3000009805B0F0BD0000F000002070B505460C
:103A40000020FFF749FD040009D01C21FCF77BFB97
:103A500025748020E07203480168E160046020461C
:103A600070BD0000F000002082614161704710B518
:103A7000021D00F001F810BDF7B50E46044684B0F3
:103A800014213046FFF7FBFE0027FF4300280AD031
:103A9000002211460120FFF7D7FD05000BD031466B
:103AA000FFF770FE0AE013213546C9433046FFF7A1
:103AB000E6FE002802D0384607B0F0BD0698FFF7B2
:103AC000F9F9002817D0002C1DD0216800291AD040
:103AD0002146227CA37A019202900093E37A284641
:103AE000069AFFF761F90446B54202D02846FFF76F
:103AF000A4FE2046E0E7B54202D02846FFF79DFE2F
:103B00000320C043D8E7011DE3E70000F3B50446F6
:103B1000007C87B00A283ED0A06D0390606A0290B6
:103B2000002C42D020680490201D00D060680590D1
:103B300094200559278B268C606900902046FDF75C
:103B4000E3FB21461A4801F095F9A06F002801D047
:103B500002F043F8606F002801D002F03EF8E06FF9
:103B6000002801D002F039F821460220FFF782FC3C
:103B7000002D03D00421C9430098A84708980028C5
:103B800007D005AB04AA009701960299039801F0AB
:103B900091FF09B0F0BD06482146001D01F06AF909
:103BA00021460220FFF766FCF3E700200490BDE702
:103BB0006C000020F8B507460220FFF78DFC3E4C54
:103BC0003E4D060040D1287C400701D40020F8BDBE
:103BD00000210846A668A26906E0136BF31A8B421F
:103BE00001D319461046D268002AF6D1002802D027
:103BF0000121FFF78BFF0220FFF76EFC060023D1A7
:103C00007F1E7F20844600206269A168FEB286463E
:103C100000910DE0517CB14209D8614507D8176B7E
:103C2000009BDB1B734502D39E4610468C46D26830
:103C3000002AEFD1002802D00121FFF767FF022000
:103C4000FFF74AFC060035D0AC21FCF77CFA402097
:103C50007074C1013018C18500230386A98831859D
:103C60007185B3728021F17243226968D20091425A
:103C700000D911463187062101818380C180C91F87
:103C8000F1860121418200F05FFE7066B065F0644C
:103C9000B066A068306334208355304608498030D0
:103CA000816008490A6882614A68C2618968016264
:103CB000A92083553046F8BD580000203C3B002029
:103CC00053590000503B002041617047F7B507464B
:103CD000007C82B01446002803D00C20C04305B0FD
:103CE000F0BD002C02D100F001FE04463548056805
:103CF00011E0288BA0420DD1002D4BD02E68002E54
:103D000048D00398002845D0FCF728FA002841D075
:103D1000B0423FD0ED68002DEBD12A4D103D6E69C9
:103D200013E0308BA0420FD1002E33D030680090CA
:103D300000282FD0039800282CD0FCF70FFA002879
:103D400028D00099884225D0F668002EE9D1EE6887
:103D500013E0308BA0420FD1002E1BD030680090B2
:103D6000002817D00398002814D0FCF7F7F9002892
:103D700010D0009988420DD0F668002EE9D1AE69C6
:103D80000CE0308BA04208D10398FCF7E7F93168CA
:103D9000884202D10A20C043A1E7F668002EF0D184
:103DA0000398002808D0FCF7D9F9002804D0042291
:103DB00038460399FCF7AEF93C83E868F8600020C8
:103DC000EF608CE76800002070B50546007C052692
:103DD0000300FDF7CBFE08051D2B35354A4A3D4A49
:103DE0002846FDF791FA24480024C168A94201D170
:103DF000C96807E0C161002905D0C968A942F9D1A5
:103E0000E968C069C1600020E860294602200AE034
:103E100000242846FDF778FA17482946103001F0AB
:103E200029F829460320FFF725FB23E00024284634
:103E3000FDF76AFA10482946143001F01BF8E4E750
:103E40000121284601F0D6FE040009D12E7407E0B6
:103E50000121284601F0CEFE040001D1092028747A
:103E6000002D07D0002C02D004E0002402E02846F8
:103E700000F0CCFD204670BD58000020FFB5044680
:103E8000007C83B015460F46002803D00C20C043A9
:103E900007B0F0BD002F08D00422201DFCF73AF92E
:103EA0002584208B002803D005E00820C043EFE7DD
:103EB00000F01CFD208300F047FD00256562A06531
:103EC000401EE064A0661F48264640682085608545
:103ED00040364321E562C900B083884200D90846D4
:103EE00080B22087394600F031F820870A2201216C
:103EF00050437182B082022020748C2206981051A7
:103F00001148C268A24202D1D268C26008E0C26110
:103F1000002A05D0D268A242F9D1C369E268DA600A
:103F20004269E2604461002201910223009511463A
:103F3000204600F01DF8050002D1204600F066FD85
:103F40002846A5E73C3B00205800002010B5044659
:103F50000846FEF7AFFF002808D0808C002805D067
:103F6000283880B2844200D220460446204610BD44
:103F7000FFB58FB01199199801431298800701433A
:103F8000EE4877D01199002902D11099002971D1FA
:103F90000F98119940300690C28D0F9820300D90E7
:103FA0008A4205D28178802001430D98817050E1CA
:103FB0001098029019980991C00701D0042100E0DF
:103FC00000211998800701D50C2000E00020081876
:103FD00007900F98876E0698008E0590D848416824
:103FE0000120C003FCF76CF801460598814202D914
:103FF000D449884201D90D98D4E7002603960F983A
:10400000018F0798081A0999884200DB084680B298
:1040100000900420FFF760FA04006ED000252560B0
:104020006560002E27D00398046018980394C00799
:1040300023D0079900980022401881B21046FFF75C
:1040400003FB60600028E8D0FFF7A4FB0146059859
:10405000081880B205901098002807D06068009A70
:104060004168079808180299FCF754F8606840689E
:10407000A06026E0EFE00646D7E700221046079949
:10408000FFF7E2FA60600028C7D0FFF783FB014624
:104090000598081880B205900998002811D00122CF
:1040A00003200099FFF7D0FA010021D00598401CA9
:1040B00080B20590029848600298A0606068FFF79F
:1040C0004DFB9F4841680120C003FBF7F9FF014603
:1040D0000598814211D301469A4881420DD8009833
:1040E000A08114216068FFF7CAFB002805D105E014
:1040F0006068FFF7A2FB002060609FE06068406896
:1041000020610F98008BFEF7ADFA21690870000A54
:1041100048700F98008CFEF7A5FA21698870000A94
:10412000C8703846FEF79CFA2169091DFCF720F893
:104130002069290A8574C17482483C38FEF792FAD6
:1041400022690546517B127B090211430D401298EA
:10415000FEF788FA05432069290A05734173199807
:10416000A0732169487B097B00020843FFF769FAC5
:10417000079905228908800609031203800E891811
:104180000843FEF76FFA21690873000A4873009923
:1041900009987F18401A80B209900298401802903E
:1041A0000998002800D02AE70F98456F002D72D09B
:1041B00000E0054628680028FBD1002D6BD0296956
:1041C000487B097B00020843FFF73BFA800700D0D9
:1041D0000120A989C84277D02969487B097B000260
:1041E0000843FFF72EFA80076ED11298800702D09D
:1041F0001298012868D1A889B18941180F98008FB9
:10420000814261D8A87BB17B88425DD12869001DBD
:10421000FBF7A4FFFFF713FAA98947183069001DBF
:10422000FBF79CFFFFF70BFA87424DD107997068A7
:1042300014314942FFF723FB00280ED00D988178F6
:10424000802001430D98002E817002D0304601F08D
:10425000C4FC0020C04313B0F0BD70684189002940
:1042600009D101687160002101600599491E89B278
:104270000591FFF7E2FA1298C0070DD00120FEF772
:10428000F1F929694A7B0B7B12021A431043087328
:10429000000A48730AE014E071686868FFF75EFA84
:1042A000A889B1894018A88130682860B44202D139
:1042B000A8892C46009031460420FFF7DBF804E083
:1042C00002E00F98466700E02E601298800703D046
:1042D0001198401C80B211901298C00705D00D981B
:1042E0002021807808430D9988700F98816E11986D
:1042F00009180F9881660698C18D1198081A0699B9
:10430000002CC88506990598088614D000980028C6
:1043100011D0206900280ED0189880070BD40820EF
:10432000FEF7A0F921694A7B0B7B12021A43104366
:104330000873000A487300208DE70000F6FFFFFFB6
:104340003C3B0020FCFF00008030416170470000D2
:10435000F8B518480026446928E0254680352A68C3
:10436000002A0FD0AF68002F04D0002321466069D7
:10437000B84704E000232146184601F0EAFA002875
:1043800000D12860761CF6B2642E11D8254620355F
:10439000A878C10709D002210843A870204600F080
:1043A00035FBA87880088000A870E468002CD4D180
:1043B000F8BD000058000020F0B50746ED4D87B06D
:1043C00040680C46A8604178027808021043FFF765
:1043D00038F90005000F7968800040186860A96806
:1043E0004878097800020843FFF72BF90005000F11
:1043F000800041423846FFF742FA00287ED13889D2
:1044000014287BD3A86821461030FEF7C3FA002891
:10441000F4D1A8681030FBF7A1FE04460F20000776
:10442000FFF70DF9044007204007FFF708F9844221
:1044300064D038890090AA680623114638460C31AA
:104440001032FEF76BFA0028D8D16868417B027BF6
:1044500008021043FFF7F5F8000B80004142384690
:10446000FFF70DFA0028C9D1696848780978000279
:104470000843FFF7E6F8014668680170090A4170D1
:10448000C178827808021043FFF7DBF801466868BC
:104490008170090AC170001DFBF760FEFFF7CFF8BD
:1044A00069680C46091DFBF763FEE860204608308A
:1044B000FBF754FEFFF7C3F869680C460831FBF7B9
:1044C00057FE2861E07BA17B00020843FFF7B9F8A3
:1044D000014668688173090AC173417B027B080247
:1044E0001043FFF7AEF88006800E287039898007E8
:1044F00000D0012008186880002600E0B8E09E483F
:1045000004689C480194806801460C311030049086
:104510009848069145683EE068782A78218C000228
:104520001043814235D1E878AA78218B00021043EC
:1045300081422ED10698FBF711FE6168884228D18E
:104540000498FBF70BFE2168884222D1002E05D08B
:10455000E068F06088480199E1600460002C1CD09C
:104560008649002008603A898A817A684F608A60AB
:10457000804A0D6150612646507080363268002AAC
:104580007BD0B568002D7AD0002321466069A8470A
:104590007AE02646E468002CBED1794804681EE023
:1045A00068782A78218C00021043814216D1E8787D
:1045B000AA78218B0002104381420FD10698FBF7A5
:1045C000CDFD6168884209D10498FBF7C7FD2168D9
:1045D000884203D1204601F08BFC49E0E468002CBE
:1045E000DED1684800260468009421E0002C0AD03F
:1045F00020680690002806D00498FBF7AFFD01461E
:104600000698814212D1E878AA78218B00021043E3
:1046100081420BD1002E05D0E068F0605948009926
:10462000E1600460204600F0DDF821E02646E46801
:10463000002CDBD1687B297B00024E4C0843FFF73E
:1046400000F8400714D4616848780A7800021043E3
:10465000CA788B781102194300910190A368618890
:10466000E0681A46411810320C33206901F022FA32
:104670003846FFF7E2F807B0F0BD08E0FFE7002397
:104680002146184601F065F90028F1D13060394D16
:104690002046AC6100F022FC401D61D06878010723
:1046A0001BD505A92046FBF7FBFD012802D1207C84
:1046B000022855D02046FCF727FE7269002A03D055
:1046C0000521C9436069904721462B4800F0D2FB81
:1046D00021460220FEF7CEFE42E0C00603D520466A
:1046E000FCF712FEF0E76C20025B002A05D073682D
:1046F000002B02D02146606998476A69002A17D0CA
:104700002878000703D5507B012108435073B76810
:10471000002F04D0002321466069B84704E000233D
:104720002146184601F015F9002801D0686930606B
:1047300068782F4680060ED5B668002E05D0002377
:104740001A4621466069B04705E000231A46214613
:10475000184601F0FEF80020B861204600F056F936
:104760000026064CAE616068002884D0FFF765F82B
:10477000666080E7100100206C000020C842002025
:1047800070000020680000207CB50446002214213F
:104790000120FEF759FF050022D0A06D401EFDF755
:1047A0005FFF034600222946204600F0A3FA064692
:1047B000288900900623221D21462846FEF7AEF8E0
:1047C0003074000A70740621002001910090E37A91
:1047D000221D21462846FEF7CDFA2846FFF72DF880
:1047E0007CBD0000FEB53C4D06462878C10616D5B6
:1047F000696848780A7800021043CA788B781102F9
:104800001943009101906988E868AB6841182869EC
:104810001A46401C10320C3301F04CF959E0800765
:1048200057D5707CFFF7C6F904004BD0AF68384607
:10483000103001D0FBF792FC2060308B208338468B
:104840000C3001D0FBF78AFC60606A685078117800
:1048500000020843208403202074E868411C616240
:10486000E162D17B937B0A0221461A4340318A835D
:104870008A82401E206670696061F069E06130895B
:10488000FF219A310840208114480168E1600460EA
:10489000204600F087FA208F211DFFF757FB208765
:1048A000002001210191024600900146122320467A
:1048B000FFF75EFB050008D000212046FFF726F930
:1048C0002846FEBD0020C043FEBD204600F09EF8F5
:1048D000FEBD0020FEBD0000100100206C00002085
:1048E00010B54020FFF766F910BD000030B515483F
:1048F000134D44694188491C89B24180A94202D9BB
:104900000121090341802146438803E00A8B9A4232
:10491000F0D0C9680029F9D1826903E0118B99426E
:10492000E8D0D268002AF9D1064910310A6803E0BC
:10493000118B9942DED0D268002AF9D198B230BDED
:10494000FF7F00005800002002498A6848688018EC
:104950004860704758000020F8B50C4601690546CC
:10496000487B097B00020843FEF76BFE254FC0071A
:1049700027D0204601F031F9002441E0707B317BE3
:1049800000020843FEF75DFEC00716D01E48FDF783
:1049900069FE29690646487B097B000208430640F8
:1049A000FEF74FFE8006800E01210843FDF75AFEF8
:1049B00006432869310A067341732046246801F0D2
:1049C000FBF8002C1CD020690646001DFBF7C6FB37
:1049D0000146A089FA680818A9898918081ACDD54E
:1049E0002069001DFBF7BAFBAA89F9685218121A50
:1049F000002A05DD401A81B2A9816868FEF772FFBE
:104A00002C60F8BD10010020C0FF0000F0B5044686
:104A10007D4885B00068A04202D1002005B0F0BDFD
:104A20002046403003900399808B498A884200D306
:104A30000846029020462030656F009080788007FD
:104A400012D5002D0CD02869001DFBF787FBFEF75F
:104A5000F6FDE16C401AA98941180298814203D9F8
:104A6000204601F0D2F8D9E7A66F002E01D199E0D7
:104A7000064630680028FBD194E0A06F002812D0D1
:104A8000009844228078014610420CD1606F0028C3
:104A900006D00268002A06D18089228F904202D275
:104AA000A020014276D028686067207C022812D0BE
:104AB0001020FDF7D7FD01462869427B037B1202D7
:104AC0001A4311430173090A4173009880788108E1
:104AD0000098890081702146284600F097F82869DF
:104AE000001DFBF73BFBFEF7AAFD29690746487B43
:104AF000097B00020843FEF7A4FD800700D00120D7
:104B0000A98938184018A16D091A00D5A06529692E
:104B1000487B097B00020843FEF793FD800701D024
:104B2000012100E00021A889C14237D0002028607F
:104B3000A06F002811D02869001DFBF70FFBFEF7BE
:104B40007EFD07463069001DFBF708FBFEF777FD89
:104B5000381A20D52046783003E0A5671CE001987C
:104B600000680190006800280ED00069001DFBF766
:104B7000F5FAFEF764FD07462869001DFBF7EEFA1B
:104B8000FEF75DFD381AEAD40198006828600198A4
:104B9000056006E017E035602E4602E0284601F089
:104BA0000BF8656F002D28D02869001DFBF7D6FA99
:104BB000FEF745FDE16C401AA9894118029881422F
:104BC00000D85AE701E0002D17D02646A036307AEB
:104BD000002812D12869001DFBF7C0FAFEF72FFD4F
:104BE000E16C401AA98941180398808B814204D94D
:104BF0000020803460620120307200988078410685
:104C00000098490E817008E7280100207CB5054610
:104C10000C46486AFDF724FD29690831FBF7A8FA1C
:104C2000608DFDF71FFD29698873000AC873618DC7
:104C3000606A4018E0622E69A87B1436C00707D06E
:104C40002A488121406889040843FDF709FD306046
:104C5000002C02D02068002808D1201DFEF72AF978
:104C6000002841D0011D07D0406820603620205E1A
:104C70000026401C02D002E00020F6E7E686E06B4A
:104C8000002809D11A480068E0632869001DFBF775
:104C900065FAFEF7D4FC20646968288A8A880623AE
:104CA000801A4A89121A4A8169680A89101A088189
:104CB0006968286948602869310A0674417468681F
:104CC000221D018900912146FDF728FE2969221D38
:104CD0000874000A4874A07A062101910090E37AD2
:104CE00021466868FEF746F87CBD00003C3B00208A
:104CF00060000020F8B505461F461646008B4C683C
:104D0000FDF7B0FC2070000A6070288CFDF7AAFC4B
:104D1000A070000AE070211D3846FBF729FA686A86
:104D2000FDF79EFC21460831FBF722FA1C48FDF7EF
:104D300099FC617B227B0902074611430F4010203A
:104D4000FDF790FC07432773380A6073688DFDF701
:104D500089FCA073000AE0730027A774E774607BE6
:104D6000217B00020843FEF76CFCF117890F8919BB
:104D700089100522800609031203800E8918084352
:104D800080B2FDF76FFC2073000A60732774380A45
:104D90006074698D686A4018E8622046F8BD0000BA
:104DA000C0FF0000F8B5204E05467468617B227B89
:104DB000080210431434FEF744FC000B05281CD9EC
:104DC0007168487B097B00020843FEF73AFC000B40
:104DD000401F8004000C0021144B0CE0625C002A90
:104DE0000BD0012A0AD0022A0AD062185278002A6F
:104DF00003D0511889B28142F0D3F8BD491CF9E7BC
:104E000062185678042EF8D1091D8142F5D8D6785B
:104E1000977832023A435E6852BA964201D3002A2A
:104E200000D132462A87E5E7100100203C3B0020F4
:104E300070B50446007C00281BD00A2819D0012830
:104E400017D02546803528680026002802D0FEF7B6
:104E5000F4FC2E600020C043E086E06F00F0BDFE51
:104E6000E667606F00F0B9FEA06F00F0B6FE6667FF
:104E7000A66770BD70B50C460168A14202D1C96831
:104E800001600BE0114806E0C968A14203D1C06986
:104E9000E168C16002E0C1610029F5D1002520462A
:104EA000E560FFF7C5FF207C0A280CD001280AD056
:104EB000204620308178CA0705D002221143817034
:104EC0002046FFF7A3FD257470BD000058000020A8
:104ED000902319502030427570470000FEB50446FB
:104EE000C84F254638782035410700291BDA207C39
:104EF000022813D0606AF9680A1A13D4228D801828
:104F0000081A00280EDC7878082108437870A87801
:104F100040084000A8700520C043FEBDA06D39695F
:104F20008842F0D06CE180070CD5207C022809D0A3
:104F3000032807D0A87802210843A8702046FFF76D
:104F400065FD5DE1B048A921006820630020085597
:104F50002046FFF727FF207C2646801E40360300B0
:104F6000FCF704FE080565BEC3F0BEEFEEB238786C
:104F7000C106D7D5800748D5A06F0069001DFBF793
:104F8000EDF8FEF75CFB3969401C88423AD1F08DA0
:104F9000401CF085F8680246401C6062E164E062F3
:104FA0007968521EC87B897B00020843B0830420C5
:104FB00022662074208F211DFEF7C8FF0A2120875A
:104FC0004143B182718A012900D140007082308E44
:104FD000401E3086A16F0868A06700280ED0002010
:104FE000E086B072084600F0E7FD8C200359002BE4
:104FF000A0D000222146606998479BE70020C0436B
:10500000E086EFE73878C0068CD5796848780A786A
:1050100000021043CA788B78110219430091019065
:105020007988F868BB6841181A46386948E03878CA
:10503000C1064AD5E16C3869411A012930D4A16D05
:10504000411A00292CDC04202074E369002B0CD0C9
:105050000022214660699847002806D00121204699
:10506000FEF754FD0420C043FEBD778A204600F0C1
:10507000D3F8B08D002801D0401EB085208F012FBD
:1050800000D1400070825F48407880061CD5A87827
:1050900002210843A8702046FFF7B8FC072062E011
:1050A0007A685178137809021943D37894781A02F0
:1050B0002243009201917A88F968BB6889181A46E0
:1050C00010320C3300F0F6FC9AE0800707D5606AD6
:1050D000F968401E884202D1204600F083FC8FE030
:1050E000204600F099F87878CFE7204600F094F851
:1050F0007878800638782FD5C00624D5A06D396918
:10510000884220D1A87802210843A8702046FFF7E2
:105110007DFC2046FFF78CFE3C480168A14202D18D
:10512000C968016057E03A4806E0C968A14203D166
:105130000068E168C1604EE001600029F5D14AE0F5
:1051400050E02FE011E0A87802210843A870204623
:10515000FFF75CFC082006E0C00651D5A06D396958
:1051600088424DD1062020744AE0204600F054F8D1
:105170007878800644D5A87802210843A870204694
:10518000FFF744FC2046FFF753FE20480168A14288
:10519000C6D01F4802E0C968A142C9D001600029F9
:1051A000F9D118E0204600F037F83878C00627D546
:1051B000A06D3969884223D12046FFF739FE134894
:1051C0000168A142ACD0124802E0C968A142AFD048
:1051D00001600029F9D10A2020740E480168E160BD
:1051E00004600DE0204600F017F83878C00607D5B7
:1051F000A06D3969884203D178781021084378700E
:105200000020FEBD10010020600000206C00002086
:105210007400002070000020FEB50446F8482646C1
:1052200000782036C00600287EDA25464035A88B57
:105230000190636EF249C0180090206ECA688446DF
:10524000871A0846416800690CD4944501D11F1A99
:1052500008D4834215D1CB7B8F7B1B023B43019F3C
:10526000BB420ED9CB7B8F7B19023943A9832266BF
:10527000606606D02146A0310A7A002A01D00022B9
:105280000A72E26C811A00292ADC0021DC4BA98514
:105290005B88002B22D1AF8B636EDF19009B9F428E
:1052A0001CD13623E35E002B18DB824216D1287C0A
:1052B0000146401C884200D92874287C032807D95D
:1052C000688A218F411889B2814200D969829CE0A5
:1052D000032802D1204600F0ADFB96E0297494E04B
:1052E000012975D4A36DC21A002A71DCB278530764
:1052F00004D5FB231A40B270AA8A6A820022AA72DD
:105300000423EB5EEF88DB10DB192B81A985EB8D85
:105310005918E9852A74E064207C04282FD36F8A09
:10532000A88A8742208F00E0B2E004D2381880B209
:10533000B84208D823E040433946FAF7D7FEC019EF
:1053400080B287421BD2688219E03868A067A88DB6
:1053500000280BD03969487B097B00020843FEF71F
:1053600070F9C00702D0A88D401EA8857868FEF7A6
:1053700011FA298E081A2886384600F01DFCA06F05
:10538000002822D00069001DFAF7E8FEFEF757F961
:105390000746A06F0169487B097B00020843FEF7BE
:1053A00050F9800700D001203818A76FB98941183B
:1053B00093480069081A0028C7DD002F05D0002097
:1053C000E0860020307520E002E00020C043F7E7CF
:1053D0000020A88519E038686067A88D00280BD0E8
:1053E0003969487B097B00020843FEF72AF9C007A8
:1053F00002D0A88D401EA8857868FEF7CBF9298ECB
:10540000081A2886384600F0D7FB606F00281DD0A8
:105410000069001DFAF7A2FEFEF711F90746606F5A
:105420000169487B097B00020843FEF70AF98007FF
:1054300000D001203818676FB98941187048006999
:10544000411A03D4A16D401A0028C4DDE06B002886
:105450001ED06B49226C0969511A19D5694909880E
:10546000081A0421695ECA10801A00B2091809B22C
:10547000A980002801DA404200B20622AA5EC910C3
:105480009310C01A1018E880081828810020E063E3
:105490005B4D6B88002B7DD0626AE968501A012849
:1054A0002AD4CB18D31A5B1C002B25DC56494F6835
:1054B000798981420BDA3989091A8AB2002303E01B
:1054C0003A817B813F68401A79898142F8DB40420A
:1054D00001B23846FEF7D3F94B4879688160AB8951
:1054E000626A8189D31AC91A818101691046091D2E
:1054F000EA60FAF73DFE08E0881A0AD5B178022082
:105500000143B1702046FFF781FA606AE968081A22
:105510007ED4218D606A4218E9688A1A521C002ADA
:1055200076DC884275D1384F3969487B097B0002A7
:105530000843FEF786F8800701D0012100E0002132
:105540003148808908182E4980B24880218D8142D7
:1055500040D22D4D2969487B097B00020843FEF7A4
:1055600070F8C00714D02948FDF77CF80746286971
:10557000417B027B080210430740FEF762F83E21A0
:105580000840FDF76FF807432869390A077341732C
:10559000208D00E0C1E1A8812969487B097B0002D8
:1055A0000843FEF74EF8800702D5A889401EA8815F
:1055B000A9896868FEF796F92969487B097B00028A
:1055C0000843FEF73EF8800700D00120A989401863
:1055D0000B494880E06F002811D00B480169487BD7
:1055E000097B00020843FEF72CF8C00704D111E044
:1055F0000168E16700F0E0FAE06F0028F8D189E087
:105600001001002060000020C8420020C0FF000000
:105610007FE1FBE0E76F3AE0687B297B000208430B
:10562000FEF70FF8C0072ED0C5480069417B027B0A
:1056300008021043FEF705F8800724D4C148FDF79F
:1056400011F80546BE480169487B097B0002084302
:105650000540FDF7F6FF8006800E01210843FDF7A7
:1056600001F8B74928430969020A08734A73FDF72C
:10567000E8FF800701D0012100E00021B0488089C7
:105680000818B149488038463F6800F095FA002F65
:105690003FD038690546001DFAF760FD0146B8891C
:1056A0000918A948C26840881018401AB4D538694A
:1056B000001DFAF753FD0146A348C5684088281825
:1056C000401A002825DDE06F0069001DFAF746FD4D
:1056D000401B9B4DA8812869427B017B1002084337
:1056E000FDF7AFFF800702D5A889401EA881A989D0
:1056F0006868FEF7F7F82969487B097B00020843D0
:10570000FDF79FFF800700D00120A98940188E492E
:105710004880E7678C4D6888E96809186162218DC7
:10572000081A2085204600F02DFC854841680A892A
:10573000002A02D06961002141600169487B097B30
:1057400000020843FDF77DFFC0074AD0687820219A
:105750000843687045E0E8600098417B027B0802DE
:105760001043FDF76EFF800700D00120BA89616AFF
:105770008918401860623969487B097B0002084338
:10578000FDF75FFF800700D00120B9894018218D07
:10579000081A2085204600F0F5FB79680889002862
:1057A00008D06869002802D0FDF7D8FF00E06961E1
:1057B000002078603969487B097B00020843FDF7C7
:1057C00040FFC00708D06878202108436870207C1B
:1057D000042801D1072020743868E067384600F0BB
:1057E000EBF9E76F002F07D038690090001DFAF73A
:1057F000B5FC616A8842AED0B078C10702D04008DB
:10580000400095E001210843B070FEBD204600F045
:10581000FCF9E66F002E18D04B480027C5683069A8
:10582000001DFAF79BFC0090A84213D14448B189AF
:1058300080898842E9D9424800F0ACF90028E4D0D8
:10584000002F38D0386031462BE03D4800F0A2F9F7
:10585000E067FEBD002F27D03869001DFAF77EFCF7
:10586000281A012829D40098281A401C002824DC72
:10587000334800F08FF90400EBD03869001DFAF7C7
:105880006DFCB98942183049C968521A002A05DDF1
:10589000081A81B2B9817868FEF724F831462046AB
:1058A0003C60FFF759F8FEBD281A06D5244800F0E1
:1058B00071F90028F7D0E067C5E73168002924D1E5
:1058C0000098281A002820DD3069417B027B0802FD
:1058D0001043FDF7B6FEC007E5D1194800F05AF9AC
:1058E00030600028DFD03069001DFAF737FCB1893D
:1058F00042181549C968521A002AD4DD081A81B223
:10590000B1817068FDF7EEFFFEBD37460E0086D10F
:10591000FEBD204600F079F9FEBD606AE9680A1A0A
:1059200005D4228D8018081A401C0028F4DDB078B8
:1059300002210843B0702046FFF768F8FEBD000062
:10594000C8420020C0FF00001001002080308160AC
:10595000704710B51400084606D0218900F00CF8F5
:105960002046FDF76AFF01E0002B01D0002010BDAA
:10597000FEF72AFA10BD000070B50446008D0C4DEC
:10598000401881B221856868814200D9208520466F
:1059900000F0F8FA69688908814208D8204620306A
:1059A00081780222114381702046FFF72FF870BDE5
:1059B0003C3B002010B5018500F0E4FA10BD10B5A5
:1059C000018504464185002901D000F0DBFA20461C
:1059D000203081780222114381702046FFF716F8AB
:1059E000012010BDF8B5866F0446002E21D0306826
:1059F00025467435A06700E02D68286800280ED081
:105A00000069001DFAF7AAFBFDF719FE0746306989
:105A1000001DFAF7A3FBFDF712FE381AECD4286834
:105A20003060214640312E60887A401C8872002008
:105A3000E063F8BD70B50446806F002820D025468D
:105A40002035A87840071BD42046FFF7CBFF20461F
:105A50004030428A818B8A4201D9490800E05108CE
:105A60008182228F8BB251008B4200D28182818A47
:105A70005300D21889184182A87804210843A870DD
:105A800070BD10B5816F002912D000E011460A6880
:105A9000002AFBD1426F0A60816F00228267416752
:105AA000014640318B7A5B1C8B72C263FEF7AEFFFE
:105AB00010BD0000FFB50E4683B01F460022142122
:105AC0000120FDF7C1FD05005ED06C680C98FCF765
:105AD000C9FD2070000A60700D98FCF7C3FDA0702E
