:020000040000FA
:10000000008000203D020000014000204702000067
:1000100000000000000000000000000000000000E0
:100020000000000000000000000000004702000087
:100030000000000000000000490200004B02000028
:100040004D0200004D0200004D0200004D02000074
:100050004D020000050F00004D0200004D0200009F
:100060004D0200004D0200004D0200004D02000054
:10007000AD0F00004D0200004D0200004D020000D7
:100080004D0200004D0200004D0200004D02000034
:100090000348854601F0F6F900480047E9010000F1
:1000A00000800020F8B50C4609043C4E01270029C9
:1000B00037DA13F099F905001AD02878C02814D13E
:1000C000E878C00711D03078002815D000203070B3
:1000D0000146012000F0ABFF01F0C8FC30A009F0A0
:1000E0002DF80121B07813F0B9FB284613F054F92C
:1000F0000120C0036040F8BD70787D23401C707003
:1001000037705B011E22FF21012000F0C2FF7078D2
:1001100095234207520F1421002001F0C5FC24A0B2
:10012000DDE7E007E7D0307800280DD00020307000
:100130000146012000F07BFF01F098FC22A008F0AE
:10014000FDFF20467840F8BD70787D23401C70701C
:1001500037705B011E22FF21012000F09AFF7078AA
:1001600095234207520F1421002001F09DFC7D22AF
:1001700012020121B07813F013FB16A0DFE710B5CF
:10018000184808F051FE054CA07001F098F87D2247
:10019000D2000121A07813F003FB10BD2042002003
:1001A000202020286B657929656E64210A000000F3
:1001B000286B657929746573742073746172742077
:1001C0002E2E2E0A00000000202020656E64210AD9
:1001D0000000000074657374207374617274202EC3
:1001E0002E2E0A00A50000000121881E00F07AFBD7
:1001F00001210E4800F09BFB0D498A6A4815024315
:100200008A62032100F06EFB00F073FD09490AA029
:1002100008F094FF00F0D3FD00F060FE02F0F8FF5C
:10022000FFF7ADFF08F01EFEFCE70000FFF3FFFF45
:10023000801000400E39010025730A0004488047F1
:1002400004480047FEE7FEE7FEE7FEE7FEE70000A2
:10025000590200009100000010B5FF4857210170BD
:10026000A8210170FC4A8821403A118100210170C7
:100270000A2000F001FD012000F04BFC10BDF0B59C
:10028000F54EF54D04275722A824203E403DF24963
:10029000030008F07BFF0D080E161B1F24282C32CC
:1002A000373C41462F000A700C70F07BFB22104057
:1002B00003E00A700C70F07B3843F073C82028818B
:1002C00018E00A700C705120C000F8E70A700C703A
:1002D000E248F4E70A700C7081208000EFE70A70B2
:1002E0000C708820EBE70A700C700220E7E70A70B8
:1002F0000C702F8100200870F0BD0A700C709320E4
:100300008000DCE70A700C70D4484D30D7E70A70E3
:100310000C7095208000D2E70A700C704B20C00052
:10032000CDE70A700C70CD485C30C8E7CA4810B5FC
:1003300040380089C1B20B069A0FC948022A05D07D
:10034000012A04D09A0F06D07D20000210BDC906F4
:10035000C90EC44801E0C906C90E00F0D9FF10BD9E
:10036000BD4A57211170A8211170BB4940394B1566
:100370000028088904D018430881002010707047B5
:100380009843F9E7B44A57211170A8211170B24976
:1003900020390028C87B05D004231843C8730020E7
:1003A00010707047FB231840F8E7AB498A7B800741
:1003B00092089200800F024357200870A82008700E
:1003C0008A73002008707047A3498A7B8F231A40E4
:1003D0000001024357200870A82008708A7300208B
:1003E000087070479C4A203A917B800789088900F1
:1003F000800F0143984857230370A823037091731B
:10040000002101707047944A203A917B0907090F37
:1004100000010143904857230370A8230370917390
:10042000002101707047FEB58B48002740380089D5
:10043000C0B201068A0F022A4CD00124A403012A6B
:100440004CD0890F56D00524002000902005000DC7
:10045000019081482038848900267F495722304600
:100460000A70A8220A7001238B747B4957220A70F4
:10047000A8220A70784A203A948100220A708A7C65
:100480009207FCD50A8A8A7C9207FCD48A7C920760
:10049000FCD5098A019A7F1C891A0DB2FFB2002D82
:1004A00037D02946714305D5012834D0411C32D0BC
:1004B000002830D02E4602943046009900F03EFFCE
:1004C00000B2211A8CB202998C4249D1002D45DD2F
:1004D000641C44E00220644CC043B6E7C506ED0E40
:1004E0002946624800F014FF0019C40B2320C043C2
:1004F000401B09E0C506ED0E29465D4800F008FFE7
:100500000019C40BA81C4042294600F017FF00B296
:100510009BE70020FEBD002E03DA761EF04306B2F4
:1005200002E06D1EE84305B2B5420FDD4A4857218F
:100530000170A8210170484A0299203A9181002156
:1005400001707D20C0007043019903E07D20C00050
:100550006843114600F0F2FE80B2FEBD641EA4B2F4
:10056000142F82D3FF20FEBDFFB581B00C46074695
:10057000054600261AE0FF219131681E00F0DEFEDC
:1005800000290AD06421681E00F0D8FE002907D097
:100590000320A9078007C14202D1FF206F3001E08C
:1005A000FF206E3080196D1E86B2ADB23148854293
:1005B000E1D80025012C25D9032C05D0A01E062842
:1005C00016DDE00718D115E0FF219131384600F023
:1005D0009FFE00290AD06421384600F099FE0029C8
:1005E00001D0B80702D000201C3006E00120FBE754
:1005F000E00701D01F2000E01E208019641E86B293
:10060000A4B2D7E7039818213018401E84B204988A
:1006100000F07EFEE120C00041430A981E225043B4
:1006200009180B984008081881B20B98C00701D030
:100630000120C0030A040243074957200870A8207C
:100640000870054E403E746303482038437C802484
:100650002343437472630FE0401000400202000025
:100660000048E80100389C1C1313000000180D8F8F
:1006700000688909E4070000427C40231A43427461
:100680000D7005B0F0BDFFB50746934883B0C06B51
:100690000E4684049048A40C2030418B008B01222C
:1006A0004900D203904201D3012000E00020081845
:1006B00000908A48388010E00199002925D06421F3
:1006C000284600F025FE002901D0A8071DD0FF20F4
:1006D0006E30201A6D1C84B23D803D88FF2191311F
:1006E000284600F015FE0191002911D0642128460A
:1006F00000F00EFE002901D0A80709D0FF206E30BF
:10070000A042D9D90020308049E0FF206F30E0E7D7
:10071000FF206F30F4E73588012D04D0062D18D95D
:10072000E8071AD117E03888FF219131019000F0D5
:10073000EFFD00290BD06421019800F0E9FD0029AC
:1007400002D00198800702D000201C3006E0012072
:10075000FBE7E80701D01F2000E01E20201A84B22A
:100760006D1CA8B23080012804D0062817D9C00714
:100770001AD117E03888FF210546913100F0C8FDF5
:1007800000290AD06421284600F0C2FD002901D0CA
:10079000A80702D000201C3007E00120FBE73078DA
:1007A000C00701D01F2000E01E20A042B3D930882E
:1007B000641C401C30800598E121048009010098E8
:1007C00000F0A6FD069A108008463C2100F0A0FD2E
:1007D0000C9908803C21009800F09AFD0D9801804A
:1007E00007B0F0BD3C49572240310A70A8220A7078
:1007F000394A506338482030427C40231A434274BF
:100800000020087070473449886B8A6B8242FBD1A4
:100810007047314A10B5572140321170A82111702C
:100820002D4920314B7CE82423404B744B7C102411
:10083000204303434B740020107010BD00B50346E5
:10084000FFF7E1FF2649C018884201D94942401804
:100850000104090C02D00121090440181E49572245
:1008600040310A70A8220A701B4A50631A4820308F
:10087000427C20231A4342740020087000BD0021EE
:10088000002802D0012802D002E0202100E010213F
:100890001148572240300270A82202700E4A2032BE
:1008A000537C8B4353740021017070470A492031F7
:1008B0000028087C02D0402108407047C009C001D0
:1008C000704705492031002804D0012801D11020AB
:1008D000087470472020FBE700100040E407000088
:1008E0000000C0A800B5524A0B0008F04FFC0504F8
:1008F000071016191F00516B81430AE0516B8143A9
:100900005163116B01431163116A81430DE0516B17
:1009100001435163116B8143F5E7516B814301E062
:10092000516B01435163116A0143116200BD404A9A
:1009300000B540320B0008F029FC05040710161919
:100940001F00516981430AE0516981435161116976
:1009500001431161116881430DE051690143516107
:1009600011698143F5E75169814301E05169014310
:10097000516111680143116000BD2D4A002906D064
:10098000012907D0022908D0032913D10CE0918A4C
:10099000814304E0918A814308E0918A0143918276
:1009A000D16A0143D16205E0918A01439182916A43
:1009B000014391629083118A0143118270471C4B5D
:1009C0001B4A4033002906D0012907D0022908D04C
:1009D000032913D10CE0D18A814304E0D18A8143F9
:1009E00008E0D18A0143D182D9680143D96005E08A
:1009F000D18A0143D182996801439960D083518A99
:100A00000143518270470A4A803A0028108B01D076
:100A1000084300E0884310837047054A803A002865
:100A2000508B01D0084300E088435083704700009A
:100A300080100040F8B5624D5726614CA827203D34
:100A400000282670277028880ED02115084328809A
:100A50000A2000F011F926702770288861150843D4
:100A6000288000202070F8BD032149028843F7E761
:100A7000F0B5534C57261C228B07514DA8270A402E
:100A80009B0F403C00282E702F7010D0080603D515
:100A9000E07BFD210840E073A07A1043A072484833
:100AA0002038C17B1943C17300202870F0BD0806AF
:100AB00003D5E07B02210843E073A07A9043A07243
:100AC0003F482038C17B9943EDE730B53C4C572374
:100AD0003B4AA825403C002813701570E06804D0FC
:100AE0008843E0600020107030BD0843F9E730B55E
:100AF000334C5723324AA825403C00281370157008
:100B0000A07B04D00843A0730020107030BD884340
:100B1000F9E7F8B52A4D5726294C0021A827203D92
:100B20000028267027700ED00120687128710020DF
:100B30002070012000F0A0F8267027700D20287189
:100B400000202070F8BD29712170F8BD1D48016991
:100B500004229143016130BF7047194B57241C7028
:100B6000A8251D7016494039887B082210438873D8
:100B70000920134E0003203E308000271F70886B31
:100B80008A6B8242FBD1104A0A30904201D952420C
:100B900080180204120C02D00122120480183022A4
:100BA00032741C701D7048632F2070741F701C708D
:100BB0001D70052008811F7040BF20BF20BFFEE7C9
:100BC0004010004000ED00E00000C0A83C490628AD
:100BD00005D04979012282401140084670470878C3
:100BE000082108407047364857210170A82101703C
:100BF00081790122114381710021017070473149CF
:100C00000968016000202F49C043803108607047A7
:100C10002C49086070472C48806970472849572242
:100C20000A70A8220A700028887905D0042210438F
:100C30008871002008707047FB221040F8E72049B7
:100C400057220A70A8220A700028887905D002224B
:100C500010438871002008707047FD221040F8E7AB
:100C6000174857210170A821017081791022114382
:100C7000817100210170704700220AE0022101E029
:100C800000BF00BF0B46491E89B2002BF8D1521C91
:100C900092B28242F2D3704770B500247D26054699
:100CA000F60004E03046FFF7E7FF641CA4B2AC4254
:100CB000F8D370BD0549CA7A082AFCD0087270477B
:100CC0004010004000E100E000E000E0003400409F
:100CD00010B50446FFF72AFB0A214843C008214605
:100CE00000F016FB0A21401D00F012FB224988810A
:100CF00010BD10B5E1204002FFF7EAFF1E48872132
:100D000081700321C170402141700121817310BDA8
:100D100019498A789206920E800102438A707047C0
:100D2000154A0028507806D00843507010780821E2
:100D30000843107070478843507070470E498020F8
:100D4000487070470C4A07E0D37A082B04D0037828
:100D50001372491E89B2401C0029F5D17047014623
:100D60000020054A04E0137A401C0B7080B2491C35
:100D7000937A002BF7D170470034004010B5FFF78D
:100D800052FB022801D9FFF74EFB10BD30B55F4979
:100D9000CC7E0B7E4A7EC87E80252843C8760F20F5
:100DA000087621204876887E012528438876887E2B
:100DB000C007FCD1888BCC760B764A7630BD30B537
:100DC0008DB0122252A1574812F0C6F9002841D026
:100DD0004E4857210170A821017051214B4AC9008A
:100DE000403A11810021017050484F4A4261504AF7
:100DF0000724D3691B021B0A45042B43D36181617D
:100E00000461016902229143016134220021684694
:100E100012F0A6FA474800900120400369468880F6
:100E20001B20C8730520087401204874142088749E
:100E3000FB20800202900D2008773F4808903F4831
:100E40000A90084601F0D2FA010007D03CA008F051
:100E500075F9FEE742A008F071F9FEE70DB030BD6C
:100E600070B50C46090408D512F0BEFA002801D06E
:100E700012F092FA0120C00314E0E00703D000F062
:100E80005FF901200EE03B4DA0070DD500F021FADF
:100E900039480078002804D1A0220221287812F0D5
:100EA0007FFC0220604070BDA00405D501F01AFB54
:100EB0000126324A760308E060040DD530A008F020
:100EC0003DF97D22D2010126B6033146287812F081
:100ED00067FC2046704070BD002070BD10B52948E9
:100EE00007F0A2FF234C207000F068F800F012F920
:100EF00000F0D4F962B6214A01214903207812F0AA
:100F00004FFC10BD10B501F0B5F910BD4010004008
:100F100043483537785F424C455F4C49425F563114
:100F20002E3700000E390100FEFFFF0000E000E058
:100F300004ED00E000450020170C00008D0D0000BE
:100F40004C494220696E6974206572726F72206329
:100F50006F64653A202578202E2E2E0A00000000AE
:100F6000686561642066696C65206572726F722EB7
:100F70002E2E0A00234200202D42002000EE020007
:100F80002A200000610E00000104090C02D001219A
:100F900009044018164957220A70A8220A701449F9
:100FA00040394863134900200860704710493020D9
:100FB000203908740F490120086070471CB50C489F
:100FC00057210170A821017009492039CA7B0723E4
:100FD0001A43CA730021017000910B46012201914E
:100FE00011460548FFF7C0FA002008F051F81CBD73
:100FF0004010004024420020E407000010B5C20762
:1010000006D08B4A0129936809D0012423439360B9
:10101000884B00291A7805D002431A7010BD5B086E
:101020005B00F4E7FF2148401040187010BDF8B590
:101030000E467D21C900330008F0A8F809101006FB
:10104000290A2929291029000B460522012102E03D
:101050000B460522322100F01CF818E00125070795
:101060003F0F754C11E02F420CD0082E01D0267096
:1010700003E0207801214840207021782846FFF7BE
:10108000BDFF6F406806050E0C34002FEBD1002029
:10109000F8BDFFB581B01746002839D0002F37D0F2
:1010A0000499002934D0642F2ED201250607360F6B
:1010B000614C1FE02E421AD05E482946027811404A
:1010C000427811434170002020700498A080A770DE
:1010D000029860700298002801D10420207007F067
:1010E00055FEA06020780221084320706E406806FB
:1010F000050E0C34002EDDD150480022012100786D
:1011000012F04EFB05B0F0BD0121FFF790FFF9E7AB
:101110000021FAE710B54648016801221143016039
:1011200000210F20FFF783FF7D235B011E220A2190
:101130000120FFF7AEFF404800212030017410BDB0
:10114000FEB500203C4C009020462030007C01265B
:101150000F27002868D1374258D02078800754D50F
:1011600007F014FE0190A0680199884243D82078C6
:10117000C10719D0A17864224008511A4000CDB2AD
:10118000207000213046FFF739FF2178480712D43C
:101190006078FF280FD0401E0006000E60700AD154
:1011A00002204140217006E00121A578084320700B
:1011B0003046FFF723FF2078800709D5A0886421F7
:1011C000684300F0A5F885B201984019A06014E0CA
:1011D000184800254078304201D0012100E000216C
:1011E0003046FFF724FF3046FF21484011494A7836
:1011F0001040487001E0401A85B20098002803D0E2
:10120000002D02D0854200D2009577407006060E70
:101210000C34002F9FD10098002805D002460748C3
:101220000121007812F0BCFAFEBD02480078704738
:10123000C01000402842002000650020234200200A
:1012400070B52F4C064620780D46FF280DD004209F
:1012500012F08EF8010006D0C02008708D70CE709C
:10126000207812F0F9F8002070BD012070BDE7E78A
:1012700010B50200224C234862706160007806D0ED
:10128000E178012907D1022112F0E8FA03E0642293
:10129000022112F085FA0120E07010BD18490020EB
:1012A00088704860C87018480268012189058A431F
:1012B000026002690A43026114490020D8E710491C
:1012C00008707047104900204968490200D4012085
:1012D00070470D4900204968490200D4012008499F
:1012E0004A78002A03D18A78904207D08870002873
:1012F00004D04A68002A01D000211047704700003E
:101300002C42002023420020C01000406F12000039
:1013100030B50B46014600202022012409E00D468D
:10132000D5409D4205D31D469540491B2546954015
:1013300040191546521E002DF1DC30BD70B5002459
:101340002546002801DA01244042002901DA01255E
:101350004942FFF7DDFFAC4200D04042002C00D0F4
:10136000494270BDF0B51FB486B0002000900190D6
:1013700002900698069980B204900798090C02041E
:101380000014114307900027089D099806913E46D6
:101390003C4603900398A9B20204000C0390049801
:1013A0002D0C154348430021224600F018F8C719B8
:1013B000714110340E46402CECDB3846029A00F0A6
:1013C0000EF8009A019B80180090594102980191F3
:1013D000103002904028CCDB00980BB0F0BD10B567
:1013E000202A04DB0146203A9140002010BD9140A4
:1013F00020239C1A0346E3401943904010BD034646
:101400000B439B0703D009E008C9121F08C0042A38
:10141000FAD203E00B780370401C491C521EF9D22B
:101420007047F0B51FB40646002082B00546402440
:10143000019100901BE0019922460F46304600F0D2
:1014400033F8049A059B801A994110D31046194627
:101450002246FFF7C4FF361A8F410197224601202A
:101460000021009FFFF7BBFF38184D410090204638
:10147000641E0028DFDC019B00982946324607B035
:10148000F0BD0000064C0125064E05E0E36807CCE0
:101490002B430C3C98471034B442F7D3FEF7FCFDC5
:1014A0000C3A01003C3A010010B5202A04DB084642
:1014B000203AD040002110BD0B46D340D04020241C
:1014C000A21A91400843194610BD70B58C180578D2
:1014D000401C6B075B0F01D10378401C2A1106D119
:1014E0000278401C03E006780E70401C491C5B1E0D
:1014F000F9D12B0705D40023521E0DD40B70491CC3
:10150000FAE70378401CCB1A921C03E01D780D709B
:10151000491C5B1C521EF9D5A142D8D3002070BDD6
:1015200010B5124C2068C0051FD503202060002094
:101530000821401C2268C0B20A4322600EE02268E3
:10154000920510D4222807D90948026B002A0AD034
:1015500001210320904706E0401CC0B22268D2055A
:10156000EDD50028E5D10020206010BD80C30040EB
:101570005065002070B514460D460646FFF7D0FFB3
:101580002D480368196806229143196031689962F1
:101590007168D962B1681963F16859632968996102
:1015A0006968D961A9681962E968596259680222B3
:1015B000914359605D6801210D435D601D680D43D5
:1015C0001D6000E000BF59688907FBD55968914349
:1015D00059609969217001688969090A6170016817
:1015E0008969090CA17001688969090EE1700068B8
:1015F000C1692171C169090A6171C169090CA171CF
:10160000C169090EE171016A2172016A090A6172F8
:10161000016A090CA172016A090EE172416A217323
:10162000416A090A6173416A090CA173406A000E9C
:10163000E073002070BD0000B042002070B50C4681
:101640000546FFF76DFF284802681068202188438F
:10165000E907890E084310608034E06C1061206D4A
:101660005061E0699061206AD061606A1062A06A8E
:101670005062E06A9062206BD062606B1063A06B76
:101680005063E06B9060206CD060D168236C174889
:10169000994204D0026B002A1ED0202107E0916AF3
:1016A000E36A994206D0026B002A15D0212103205B
:1016B000904711E0D169236A994204D0026B002A55
:1016C0000AD02221F3E71169E36C994206D0026B3C
:1016D000002A01D02321EAE7012070BD10684021D3
:1016E00008431060002070BDB0420020506500200B
:1016F00070B50C460546FFF713FF284802681068CE
:1017000020218843E907890E084310608034606C0B
:101710001061A06C5061E0699061206AD061606ADC
:101720001062A06A5062E06A9062206BD062606BC7
:101730001063A06B5063E06B9060206CD060D16848
:10174000236C1748994204D0026B002A1ED0102146
:1017500007E0916AE36A994206D0026B002A15D02D
:1017600011210320904711E0D169236A994204D0E6
:10177000026B002A0AD01221F3E71169636C9942C7
:1017800006D0026B002A01D01321EAE7012070BDC8
:101790001068402108431060002070BDB042002056
:1017A0005065002010B504F023FA024902F061FFF1
:1017B000002010BD0604000008B5002808D000294C
:1017C00006D0002A04D01088002801D0002008BDCF
:1017D0001220694608706A460121034802F045FF5D
:1017E0006946087808BD0000350C000008B503F014
:1017F00007FD694608706A460121034802F035FF7B
:101800006946087808BD00002720000008B503F0ED
:1018100041FD694608706A460121034802F025FF30
:101820006946087808BD00001120000008B503F0E3
:1018300086FE694608706A460121034802F015FFDA
:101840006946087808BD00002920000008B503F0AB
:101850007BFE694608706A460121034802F005FFD5
:101860006946087808BD000010200000FEB508AFEA
:1018700070CF6F4670C703F08DFE0446024902F038
:10188000F8FE2046FEBD00001320000008B504F05D
:101890009FF9694608706A460121024802F0E5FE98
:1018A000002008BD0E20000038B5044604F071FC8D
:1018B000694608704C70200A88706A460321024805
:1018C00002F0D3FE002038BD1B20000038B50446CE
:1018D00004F077FC694608704C70200A88706A46EC
:1018E0000321024802F0C1FE002038BD1A2000008A
:1018F0000EB500A8013005F0ACF8694608706A46DC
:101900000921024802F0B1FE00200EBD182000009F
:1019100008B500A8013004F0BDFB694608706A46AE
:101920000421034802F0A1FE6946087808BD0000C2
:101930000220000038B5044605F0D5F86946087065
:101940004C70200A88706A460321024802F08DFE1E
:10195000002038BD212000007FB5044608A861C8DA
:10196000009002960195204605F0D6F86946087366
:101970004C73200A887303AA0321034802F075FE02
:10198000002004B070BD00002020000008B505F064
:1019900065FC694608706A460121034802F065FE4D
:1019A0006946087808BD00002D20000008B505F044
:1019B0007BFC694608706A460121034802F055FE27
:1019C0006946087808BD00000A200000F0B585B01F
:1019D0000AACF0CC03976F4670C705F0DDFC694692
:1019E000087404AA0121034802F03FFE6946087CFE
:1019F00005B0F0BD0620000008B505F057FD6946AA
:101A000008706A460121034802F02FFE69460878F3
:101A100008BD00000520000008B505F085FD6946F9
:101A200008706A460121034802F01FFE69460878E3
:101A300008BD00002E20000008B505F08BFD6946AA
:101A400008706A460121034802F00FFE69460878D3
:101A500008BD00000C20000010B505F0CBFD0249C8
:101A600002F007FE002010BD1920000038B500A8C4
:101A7000013005F07DFE694608706A46032108487A
:101A800002F0F3FD074C0121E078090311F0E6FEB6
:101A90000121E078490311F0E1FE002038BD00008B
:101AA0001F2000008465002038B50025134C25292F
:101AB000258120716171A271E37101D8012208E0D2
:101AC000732901D8022204E0C12901D8032200E0D1
:101AD00004220B480121C078490311F04FFEE3793D
:101AE000A2796179207905F08DFE694608706A4611
:101AF0000121044802F0B9FD002038BD3C660020F9
:101B0000846500201E20000010B504F09AFB10BD73
:101B100010B505F0FBFA10BD0A7802708A784270A1
:101B20004A88120A82700979C170042070470A78C5
:101B300002700988090A41700220704708888004F1
:101B4000000C70478A78027088780128088804D0D1
:101B500012214843401C80B270478000FAE70A789F
:101B600002700A88120A42704888801C80B270474E
:101B70000A7802700A88120A42708A7882704A884B
:101B8000120AC2708888001D80B2704708887047AA
:101B90008A780270088849884843401C80B27047A0
:101BA0008A780270088849884843401C80B2704790
:101BB00008887047088870477FB515460446022993
:101BC00001D0102903D1022B04D0102B02D0002009
:101BD00004B070BD994202D10A46294607E0102997
:101BE000694607D000F00EF810226946284611F029
:101BF000B3FAEDE7104600F005F8102269462046DA
:101C0000F5E7000070B50C4605000CD0002C0AD09A
:101C100010220649204611F0ADFA28782073687822
:101C20006073012070BD002070BD0000C539010047
:101C300008B500220B4600920122024907F074FC0D
:101C400008BD0000191B000008B50A88172A07D331
:101C500000220B4600920322024907F065FC08BDF2
:101C6000022008BD2F1B000008B500210B461922D9
:101C7000009107F059FC08BD38B5054608880C46A8
:101C800000280DD0606800280AD0012111F020FA48
:101C90000090234607220349284607F045FC38BD3B
:101CA000022038BD3D1B000038B5054688780C463B
:101CB000012801D0022810D1208800280DD06068AA
:101CC00000280AD0022111F003FA009023460522D1
:101CD0000349284607F028FC38BD022038BD000023
:101CE000451B0000064910B5884202D103F002F9F5
:101CF00010BD0CF0A5FB0028FAD1172010BD000084
:101D0000FEFF000038B505464A6800200C46002A50
:101D100003D00321104611F0DBF9009023461D2269
:101D20000249284607F0BCFB38BD00005F1B0000DD
:101D300002480021016041607047000030440020EB
:101D40000098022B01D004207047517812780902C4
:101D500011430180002070470098012B01D004201E
:101D60007047117801700020704770B5049C1E46C2
:101D70001546062B1BD3687829780002084320807B
:101D8000E878A978000208436080022020710246AA
:101D9000291D601D11F0EEF9B01F2081062E03D021
:101DA000AD1DE560002070BD0020E060FAE7042072
:101DB00070BD0098042B01D004207047517813782F
:101DC000090219430180D1789278090211434180B8
:101DD00000207047F8B584890D46002C2BD086680A
:101DE0003778390601D4002010E00D2C23D30C3CA9
:101DF000A4B231190091408823463246012106F0F1
:101E000017FF002801D0022000E001207906287089
:101E1000C90FBA066970920EAA70641E2204120CD1
:101E2000AA8002D0761CAE6001E00022AA600228DF
:101E300003D1002901D00120F8BD0020F8BD10B564
:101E40000298042B14D3517814780902214301809D
:101E5000D1789478090221434180191F8180042B95
:101E600002D0121D826001E000218160002010BDBF
:101E7000042010BD0098042B01D004207047517835
:101E80001378090219430180D1789278090211432D
:101E900041800020704710B502981146062B03D0F0
:101EA000142B03D0042010BD022200E01022027186
:101EB0004A780B7812021A430280CA788B78120291
:101EC0001A4342800279401D091D11F053F9002088
:101ED00010BD0098D90706D1022B04D05908818083
:101EE000026000207047042070470098022B01D048
:101EF00004207047517812780902114301800020B4
:101F0000704710B5029C022B11D320726172507879
:101F10001178000208432080981E6080022B02D0B6
:101F2000921C626001E000206060002010BD04206F
:101F300010BD000038B5054688680C46002802D060
:101F4000052111F0C5F800902346172202492846C2
:101F500007F0EAFA38BD0000711B000038B50546ED
:101F600048680C46002802D0012111F0B1F8009019
:101F700023460D220249284607F0D6FA38BD000054
:101F80008D1B000038B5054608880C4600280DD08A
:101F9000606800280AD0022111F09AF800902346C8
:101FA00011220349284607F0BFFA38BD022038BD88
:101FB000911B000038B5054608880C4600280DD056
:101FC000606800280AD0022111F082F800902346B0
:101FD00009220349284607F0A7FA38BD022038BD78
:101FE000A11B000038B5054648680C4600280AD0F9
:101FF000012111F06DF8009023460F220349284675
:1020000007F092FA38BD022038BD0000B11B000075
:1020100038B505464A6800200C46002A03D0012145
:10202000104611F055F8009023460B22024928462D
:1020300007F07AFA38BD0000B51B000001490860BE
:10204000704700003044002070B5054608480C4633
:10205000854205D0172C03D302F04CFFA04201D2D9
:10206000012070BD214628460CF08EFA70BD00009C
:10207000FEFF000008B500210B461322009107F077
:1020800053FA08BD04480349006801600349C1626E
:1020900070470000A5220801B4420020784E0100DC
:1020A00010B5074C5D202168086505F01FFD20680C
:1020B0000021016503484279521C4271C17110BD73
:1020C00054420020A465002070B500242546641CFD
:1020D0002406240E42D00021C943002007F077FADD
:1020E000002211460346CB40DB07DB0F491CC9B277
:1020F0000646CE40F607F60F9E4203D0521CD2B2DF
:10210000192A29D22029EDD300210246CA4092067D
:10211000920E21D03F2A1FD0491CC9B21A29F4D9E6
:10212000810E1F2918D03E2916D0012914D020294C
:1021300012D0104A014690420ED04A1E11420BD0D6
:102140000204C1B2120E8A4210D10202120E8A4259
:102150000CD1020E8A4209D1294608E0F021102054
:1021600007F043FA04490002084370BD0121002929
:10217000ADD070BDD6BE898EC700CD6A70B52C4972
:10218000002048602B4800892B4CC0B281090229ED
:1021900004D0012908D0810916D026E0D020A080E3
:1021A0000820E080E8201FE0C506ED0E2D2029461E
:1021B0008001FFF7ADF8A08029467820FFF7A8F846
:1021C000E08029461D480DE0C506ED0E2946C020D9
:1021D000FFF79EF8A08029460820FFF799F8E080D5
:1021E0002946E820FFF794F8208116491448086032
:1021F00016491548086017491548086017491648D8
:10220000086018491648184C0860184920680122CF
:10221000D2020861801848610120487100F062F91B
:10222000607D002802D112492020086070BD0000A6
:10223000584200200010004084650020980D0000E6
:1022400000C00040B842002000C30040B04200205F
:1022500000C200405442002000D00040BC42002098
:1022600000C10040B442002050650020A465002059
:1022700000E100E0F8B55648006881680127C9050B
:102280000025544C544E00292EDA81683A029143BD
:102290008160207840060CD550485149006888423A
:1022A00006D15049886BE0608A6B9042FAD100E019
:1022B00080472078384320706570E079062803D085
:1022C00043495D2009680865306800280AD0016923
:1022D0000A68406902430A603168086802688968D0
:1022E0000A4302606571A560394B186881688905E9
:1022F00021D581680122520291438160A078384340
:10230000A070E57038480068C16A89088900891C96
:10231000C1620168D20411430160306800280AD00C
:1023200041680A68806802430A603168C8680268C8
:1023300049690A43026018688168890717D581686E
:10234000022291438160E770A5705D2101653068CC
:1023500000280AD001690A68406902430A603168AE
:102360000868026889680A4302606571A560186898
:102370008168C90715D081684908490081602570C6
:102380006770306800280AD041680A688068024394
:102390000A603168C868026849690A430260657169
:1023A000A56018688168C90603D581681022914329
:1023B00081608168490703D5816804229143816067
:1023C0008168090703D58168082291438160F8BDBF
:1023D00054420020A46500205C42002050420020AE
:1023E000E587000000100040B442002070B50446AC
:1023F0000068002828D00121000C4903884223D11D
:10240000A088002820D020460622FF21163010F098
:1024100094FE01281AD0A2880021206810F0A0FFA5
:10242000342200212D4810F09BFF342221462B48F6
:1024300010F0A0FE2948062216300021054610F0B3
:102440007CFE012804D008E0022070BD032070BD8E
:1024500023490622284610F08DFE20488189002954
:1024600002D1012149028181827B0121002A00D110
:102470008173C27B002A01D11B22C273027C002A15
:1024800001D105220274427C002A00D14174817C72
:10249000002901D114218174817F002901D12821D3
:1024A0008177C17C002908D0827FE17C920889185D
:1024B000C174617F002904D005E0817F89082D3136
:1024C000F6E702214177806A002803D0804703495C
:1024D0003431488106F060FC002070BD506500205A
:1024E0000806040010B500F065F802F06BFE05F078
:1024F00097FAFFF7C7FD0B4C5D202168086505F0D2
:10250000A7FB06F065F905F06BFB05F0EFFA06484E
:1025100001214171226800211165C171FFF700F8A6
:1025200010BD000054420020A465002070B50E4B81
:1025300000209989002901D10C4999810E2101249B
:10254000A4039A8915462540CD405204120C054338
:10255000E8B25604D50BF60F75401543491EC9B2B3
:102560009D810629EDD870BD3C660020FF7F0000EC
:1025700070B50E4B00205989002901D10C495981B1
:1025800008214C015A8915462540CD40054352008B
:10259000E8B2550A56097540ED07ED0F1543491E7F
:1025A00009065D81090EEDD170BD00003C6600207A
:1025B000FF0100000A48094900680A6902610A69C6
:1025C000426149698161C1618268012149030A430D
:1025D0008260C2680A43C26070470000A4650020A0
:1025E000B842002030B5104A0346517AFD208424B9
:1025F00054720E4CA568002D07D0A57B002D04D089
:10260000A489E51FFF3DFA3D02D05172FF2030BD85
:102610007D24E402A34205D35360A6201072907A71
:1026200040235840517230BD0018004050650020D2
:10263000F8B500240F4E274613E0F06B250128184B
:102640000622FF2110F08CFEF06B06222818FF21D5
:10265000801D10F085FEF06B28188781641C87733D
:10266000E4B2307E8442E8D3002010F059FF307E7F
:102670007076F8BDC843002070B50C4601460120B5
:1026800080020A1A00252B48130006F07FFD201156
:102690001316181A1D1F21232527292B32343648DB
:1026A000393B3D3F434848484848484848464148E8
:1026B000007800E04078207039E08078FBE7C0784F
:1026C000F9E710221C4910E00079F4E74079F2E7BD
:1026D000006A13E08079EEE7C079ECE7007AEAE778
:1026E000407AE8E7144910221031204610F042FDEC
:1026F0001DE0807ADFE7C07ADDE7406A206016E0FF
:10270000007BD8E7407BD6E7807BD4E7407CD2E7EC
:10271000807CD0E707F07EFCCDE7807DCBE71929F0
:1027200004D2084600F04CFF208000E00225284635
:1027300070BD0000C84300200468002010B50446A6
:1027400000F0D4F80248C47507F09EFD10BD0000EB
:10275000C8430020FFB58FB0064600200C900D90B6
:102760001F460CAA304600F08DFA454D0446287EDF
:1027700084425AD2204607F067FD0646042F04D053
:10278000A879022803D0002002E02878F9E7012088
:1027900000903B4632462146119807F013FC142264
:1027A000002101A810F0DCFD2046062148430090DE
:1027B0002430C0B201AA102110F010FF002813D15C
:1027C0001022FF2101A810F0B8FC00280CD10098BD
:1027D00005AA2530C0B2042110F000FFF107C90F8F
:1027E00001AA119801F04EF87034E0B206AA18213F
:1027F00010F0F4FE002811D106A807F037FD0024E0
:10280000A10006A808180188002903D08278119831
:1028100001F0E2FA641CE4B2062CF1D3B00706D54D
:10282000E97D119801F0C6FA01E0082F02D0042FCB
:1028300013D021E0A87902281ED100223146119838
:1028400007F0FAFAA86A002816D04368002B13D0C4
:1028500000221146119898470EE0287802280BD1E3
:1028600029791198002900D001216A78002A00D026
:102870000422114300F0CCFF002013B0F0BD000093
:10288000C8430020F8B500F0C3FE00282BD1164D38
:102890000026E87C012801D000241CE007F006FC9B
:1028A000EE7400202A7EE96B04E003015B18401CF3
:1028B0009E73C0B29042F8D310E0E86B270138183D
:1028C000807B012805D1204607F002FCE86B381810
:1028D0008673641CE4B2287E8442EED3502010F04C
:1028E00041FE07F0D1FCF8BDC8430020F8B5354ED5
:1028F000FF20F07500273776334CF763A07B30213B
:102900004843422110F052FCF063002825D02046B5
:10291000807B410040183076002413E0F06B2501E5
:1029200028180622FF2110F01BFDF06B0622281844
:10293000FF21801D10F014FDF06B28188781641CA6
:102940008773E4B2307E8442E8D31F488068002851
:1029500001D0B77601E08020B076307E7076012419
:10296000776334707770B770F770102200211748C2
:1029700010F0F6FC3771772575713762B471F77115
:1029800012483772777210220021103010F0E8FCE4
:10299000B772F57277623773052070731020B073C9
:1029A000F77302203074B762F76237637774F77495
:1029B000347504487475B47505494830016005499B
:1029C0004160F8BDC8430020506500200468002025
:1029D00099A5000061A5000070B5264D0C460804BD
:1029E0000FD5E87D10F000FD050006D007F0F2FCE1
:1029F000002802D0284610F0CFFC0120C003604020
:102A000070BDA0070BD50021084607F077F9022119
:102A10004C40002825D1E87D10F070FD1FE0E00754
:102A200021D0686B808807F007FD01214C40002809
:102A300017D0A86A00280DD04368002B0AD0686B15
:102A4000002280889847A96A686B00224B688088BA
:102A500003219847287D10F0A1FD07F041F9204699
:102A600070BD0121D7E7600702D50420484070BD42
:102A7000002070BDC84300207FB5044680787F4D9C
:102A8000801F030006F082FB0AF4F7F7A41306F098
:102A9000F778B9F7A96A2046002907D00C68002CFE
:102AA000FBD0437B027B4189C01CA047E3E06078F8
:102AB0000026002847D1A079C00744D0686B0028C1
:102AC00041D110220021684610F04AFC61690029BA
:102AD00003D006226846103107E0A0880BF0DAFB2D
:102AE0000028E3D0811D0622684610F043FB6946AA
:102AF0008889A1794907C90F08436946888107F089
:102B000089FA297E88420BD1A87D002801D0FFF7E1
:102B10008FFD5B48026B002A02D0012108209047FC
:102B200007F078FA297E8842A87E02D10121084365
:102B300001E040084000A8762146684607F0DEF82C
:102B4000002812D01526A86A002855D04368002B0B
:102B500052D06278A08801219847002E4CD0A96AF3
:102B6000A0884B683246032173E00221E87D10F013
:102B7000C5FC002004B070BD6078062817D1A0887D
:102B80000BF088FB060012D0287C012804D0022814
:102B900008D003280BD114E07179A088002207F037
:102BA0004BF904E0A1883078052200F0A3FEA86A62
:102BB000002860D04368002B5DD06278A088022195
:102BC00047E0002241201146000100F0F7F8E9E754
:102BD000E0780022211D00F055F8297E88424AD273
:102BE0000621484325302246C0B20C32042110F0A1
:102BF00039FD287D10F0D2FC3DE0287B002802D072
:102C0000A088697B28E028780028A08823D00BF0D2
:102C100041FB06002FD0A07AC0070BD070790028A6
:102C200008D0A189890505D46A46B11D00F02AF8AB
:102C3000002814D022467179A088083207F0FCF8E9
:102C4000A86A002817D04368002B14D00022A0885F
:102C5000114698470FE0052100F03CFE0BE0A088EC
:102C60000321F9E700E003E0A08800F031FA02E078
:102C7000A088FFF707FE01207CE70000C843002082
:102C800050650020F0B52E4E85B0347E15460F46B7
:102C9000002806D0012804D0022811D003284BD1E7
:102CA00021E0084607F088FA317E0446884243D284
:102CB000002D41D006223946284610F05BFA3BE051
:102CC00000240BE0F16B2001401806223946801DDC
:102CD00010F042FA002826D1641CE4B2307E84420F
:102CE000F0D3C4B21FE0002419E020460621484377
:102CF0002330C0B26A46102110F070FC00280CD1BD
:102D00001022FF21684610F018FA002805D1394634
:102D1000684600F079FD002805D0641CE4B2307EDE
:102D20008442E2D3DDE7307E844205D2002D03D019
:102D30002946204607F068FA204605B0F0BD00009D
:102D4000C8430020F8B50E4619491525194F884289
:102D500014D1002409E032460221204607F074F91C
:102D6000002800D00025641CE4B2387E8442F2D3EF
:102D7000002E1BD010480BF0ABFB17E00BF08AFACB
:102D8000040012D060790022A11DFFF77BFF397E7D
:102D9000884204D23246022107F056F90025002E5F
:102DA00004D0204607F0B2FA00E014252846F8BD0A
:102DB000FFFF0000C84300200DA30000F0B5074648
:102DC000012080021546381A89B00024BC4ABD4E45
:102DD000030006F0DBF92011181F262D333A3F4679
:102DE0004D545B626970757CEFEEEDECEBEA89E9BE
:102DF000E8AAAAF3F6E5E4EB012971D128780228C4
:102E00006ED8307059E10129F7D128780128F7D818
:102E1000707052E10129F0D128780428F0D8B07000
:102E20004BE10129E9D128780128E9D8F07044E183
:102E30001029E2D110222946A348ADE00129DCD1B6
:102E400028780128DCD8307137E10129D5D12878DC
:102E5000707132E10429D0D128689042D0D8306214
:102E60002BE10129C9D128780228C9D8B07124E101
:102E70000129C2D128780128C2D8F0711DE10129A9
:102E8000BBD128780428BBD8307216E10129B4D10F
:102E900028780128B4D870720FE11029ADD18A4882
:102EA00010222946103077E00129A6D12878012880
:102EB000A6D8B07201E101299FD12878F072FCE018
:102EC00004290DD1286890420AD87062F5E00029E3
:102ED00006D100F09DFB002803D00120F074ECE047
:102EE00074E007F0E3F81CE007296FD10622691CA3
:102EF000684610F03FF9287800226946FFF7C2FEC5
:102F00000546307E854239D200F082FB002805D08C
:102F1000F26B0120290189188873CEE0284607F05A
:102F2000D7F8502010F01EFB96E007294ED106225C
:102F3000691C07A810F01EF92878002207A9FFF7DE
:102F4000A1FE317E88421BD2062148430546213529
:102F5000E8B26A461C2110F041FB00280ED15B4804
:102F6000874201D1012000E0FF206946C876E8B21F
:102F70006A461C2110F076FB307D4BE002249CE079
:102F8000B07E0028FAD05148874214D10120F07653
:102F90004C4807222946403010F0ECF88DE05EE006
:102FA0007AE00EE00AE075E06FE067E07BE04AE07F
:102FB00041E039E031E00020F0767EE000207075DD
:102FC0007BE00027012070753D461BE066E0284647
:102FD0000621484306462136F0B26A461C2110F00D
:102FE000FDFA00280CD16846C07EFF2808D0FF20DB
:102FF0006946C8760127F0B26A461C2110F032FB00
:103000006D1CEDB22F48007E8542E0D3002F54D0D6
:103010002C48007D10F0C2FA4FE001293ED12878FB
:1030200001283BD8307348E0012937D12878092896
:1030300034D8707341E0012930D12878C11F0929A3
:103040002CD8B07339E0012928D1717C28787074AC
:10305000002932D1012830D107F016F92DE00129DD
:103060001CD1B17C2878B074002903D1012801D18A
:1030700007F00AF9B07C01F09AFB1EE001290DD19E
:10308000287803280AD8307417E0012906D1287857
:10309000307512E00120BDE7012901D018240CE0B1
:1030A0002878B07509E0192F00D367E70229FCD111
:1030B0002988384600F0CCFB0446204609B0F0BD14
:1030C0003F420F00C8430020046800201A0400009B
:1030D000FEB5064600200190029030460BF0DAF86B
:1030E000040017D0144FB879022813D0607901AAD0
:1030F000A11DFFF7C7FD0546387E85420BD2284645
:1031000007F0A2F802460120009008232946304625
:1031100006F058FFFEBDB879002807D00128F9D184
:1031200061790022304606F087FEFEBD052130465B
:1031300000F0D0FBFEBD0000C8430020F7B51649E3
:103140001525164E174688420FD1002409E03A464D
:103150002046019907F0E4F8002800D00025641CFF
:10316000E4B2307E8442F2D313E00BF093F80028EF
:103170000ED04379811D00221846FFF783FD317E72
:10318000884206D23A46019907F0CAF8002500E0C5
:1031900014252846FEBD0000FFFF0000C8430020A4
:1031A00010B51448007F80080DD0134805F03CFE90
:1031B000124CFF28207006D000F014F91048007857
:1031C000002802D013E0182010BD0E4A1021022062
:1031D00010F004FA0C4A1021032010F0FFF904212A
:1031E0000A4A084610F0FAF9207800F007FB0020A0
:1031F00010BD0000506500208132000018440020FE
:10320000664200201B6600202B66002074420020CE
:1032100010B503F09DF813480078002801D0FF286E
:103220001DD1114805F000FE01F076FE0F4805F0B3
:10323000FBFD00F0D1F90E4805F0F6FD00F01CFF93
:103240000C4805F0F1FD05F093FB0B4805F0ECFD93
:10325000FFF774FA094805F0E7FD00F08FFBFFF770
:103260009FFF10BD604200205D5000001937000034
:103270002D410000618A0000D9290000FD3A0000BC
:1032800070B50C4608040DD50F48007810F0ACF866
:10329000050004D007F0B4FA284610F07DF80120AC
:1032A000C0030CE060040CD50421084A084610F065
:1032B000D9F90748007810F071F9012080036040C7
:1032C00070BD002070BD0000184400207442002032
:1032D000DC43002070B50C460146032000020A1AA8
:1032E00000252548130005F051FF130B0D10171A88
:1032F0001E2125292B2D3133393B3D3D35373D00EE
:10330000407811E010221D4902E01C4910221031C2
:1033100020460FF02FFF2DE0406920602AE016497B
:1033200006221E31F4E7C078207023E0124982782B
:103330002431EDE7114902791F39E9E7407AF3E7D3
:10334000807AF1E70C4906221831E1E7C07AEBE711
:10335000007BE9E7C0890AE0008A08E0007AE3E739
:103360004079E1E7192904D2084600F029F92080C4
:1033700000E00225284670BD604200201B66002048
:10338000F8B5164CFF202070002565700320A07052
:103390000126E670062765611920E781C0012082B9
:1033A00020461F22294624300FF0DAFF2046022152
:1033B000243001704670877025711F220021084853
:1033C0000FF0CEFF20460622002118300FF0C8FF74
:1033D0006571A571FF20E071F8BD0000604200201A
:1033E000FC6500200449C8710878FF2803D001203B
:1033F00088710C204870704760420020F8B50E4676
:10340000070048D038880AF045FF050041D0234A1C
:10341000A96BD078022806D0012804D0287B082880
:1034200003D1002E01D0122436E0002901D011244E
:1034300032E01B492C200FF0B9FE0446A86320009F
:1034400025D02C2200210FF08BFF388860801C22B1
:10345000391D201D0FF08EFE022020700F483A8883
:103460000178287B082810D00020231D05F095FB4B
:103470000446002E03D0314628460EF07DFC002C79
:103480000AD0284607F040FA06E00120EDE71324B1
:1034900002E0142400E002242046F8BD2644002067
:1034A00014470000FFB51F4881B0C0781E4617467C
:1034B0000D46022818D0012816D0002F30D00198D0
:1034C0000AF0E8FE040029D0E06A002801D00FF0DD
:1034D000C1FE1C2138460FF059FEE062011E1BD0D0
:1034E000207B082803D00DE0122005B0F0BD002E8F
:1034F00008D0887E00900B4612330A8A01980EF09D
:1035000083FF00E000202179002D01D0062200E099
:10351000042211432171E8E71320E6E71420E4E7D1
:103520000220E2E726440020094900200870486094
:10353000886009480749016008494160084981607D
:10354000034808490C30016007494160704700009A
:10355000384400203DA700002468002079B1000015
:10356000D5B000001DA6000055A6000070B5104C97
:103570002168002919D00978814214D10D4D02210A
:10358000287810F06BF90C48002646802878042132
:1035900010F064F909484671216803204870002042
:1035A00001F009F970BD032070BD122070BD00004C
:1035B000DC42002026440020F4420020FC6600206B
:1035C000192801D30248704702494000085A704741
:1035D000FFFF00001C67002010B5044600F01CF837
:1035E00000F07AF8FFF7A0FFFFF7CAFE0649FF23B5
:1035F000CB7000228A700A71044805214370047060
:10360000204601F073FD10BDFC660020264400201A
:1036100010B50AF041FF10BD1A4800210170417039
:1036200041608160C1600161416181611648B422DD
:1036300001804280012292038280A022C280028106
:103640001022428182815023C3810382428282827E
:10365000C2827D2302831B0143838183C183018452
:103660000F234384094B83840723C38402850122EB
:1036700042857E22D2438285C1850186491E4186CC
:1036800070470000C84200201C67002080BB00007B
:103690007FB504460D4608460AF0FCFD002817D009
:1036A0000C48844212D21022002168460FF058FEC6
:1036B00069460C70200A4870200C8870200EC87073
:1036C0002946684605F08AF904B070BD0220FBE780
:1036D0001220F9E740420F000948FF210170002144
:1036E000418041608160C160074806490160074927
:1036F00041600749816002490648103108607047FF
:10370000F442002075AC00005067002005AD0000B9
:10371000EDB80000E5AB0000FEB5354F354D0C4669
:1037200008041FD538780FF05FFE061E17D03078DA
:10373000A22806D07D78304607F064FE00280AD122
:1037400002E02C48C578F6E7FF2D04D03146284624
:103750000FF082FEE6E730460FF01EFEE2E70120A2
:10376000C00341E0E0070126234900280AD0486849
:10377000002804D04168002901D000208847204655
:103780007040FEBDA00709D5C868002804D0416874
:10379000002901D001208847022025E0600725D5B7
:1037A000687900281FD0401E0006000E68711AD1EB
:1037B0004869002808D02E71C868002804D04168E4
:1037C000002901D0012088476946E86805F05DF8C6
:1037D000684607F001FC1120FFF7F2FE68713878A7
:1037E000042110F03BF804206040FEBD0020FEBD27
:1037F00026440020FC660020C84200200149487091
:10380000704700002644002010B505F067F910BD90
:103810007FB50C4605460AF03DFD002814D0826BAA
:10382000007B042802D0122004B070BD002A00D012
:10383000947D684621460EF023FE044B6A46022121
:1038400028460EF09FFDEFE71420EDE773290100F5
:1038500070B50C460546192802D20848844201D1A9
:10386000022070BD112D04D13C20604380B200F0D5
:10387000B5FF034968000C52002070BDFFFF000037
:103880001C67002070B50E4611491546CB78022BF7
:1038900017D0012B15D0002D17D00AF0FBFC040027
:1038A00011D0002E03D02079022108432071204638
:1038B0001022294618300FF05DFC2869A062002014
:1038C00070BD122070BD142070BD022070BD0000BC
:1038D0002644002038B50C4605460AF0DBFC0028DB
:1038E00006D068460470694628460EF039FD38BD9A
:1038F000142038BDF7B505461E4812261E4F0C464B
:10390000814208D1B868002832D00268002A2FD03E
:1039100028469047FEBD1748401C844219D1B8681C
:10392000002806D00268002A03D0284690470028C5
:1039300006D02846029906F0A9F9060005D017E03E
:103940007D70029838700020FEBD7D70029838703E
:103950000EE008460AF09EFC002809D00078A84234
:1039600001D00320FEBD2046029900F08AFEFEBD74
:103970003046FEBDFEFF0000C8420020F8B50446F8
:1039800000F094FD00F046F8114F134EFC70114901
:10399000304600F027F81149C0200FF007FC002244
:1039A0001346B86194010653002124180C254D4399
:1039B0006519AB80491CEB600529F7DB521C032A13
:1039C000F0DBF878787006480AF09AFDF8BD000040
:1039D0001443002086670020FFFF0000014700001D
:1039E000C5BF000070B50A4C0025A04208D10020D8
:1039F00082008C525218401C95700328F8DB70BD71
:103A000008F0B1FA0028FAD00480857070BD00007B
:103A1000FFFF0000F0B51E4920200870FF2048700D
:103A20008870C8700126CE8000200881C8600861B7
:103A30000B4602241C3348611C70164A5A600A4621
:103A4000087124321470144D556016725081D36081
:103A50001474124F15466F612E766883E961202138
:103A6000545413460E4D59185D6208725885D86239
:103A7000302154540B4C0323511854630B7250875C
:103A8000094ACA600249094A643105C10860F0BDAB
:103A900014430020E2390100E4390100EA39010051
:103AA000023A0100F0390100866700209DCA00003B
:103AB000F8B50E460746069900240798002902D05B
:103AC0000B242046F8BD022B01D00D24F9E75178D4
:103AD00012780D0215432946814301D08024F0E776
:103AE0003846F16800F042F9A842EAD02A46384642
:103AF000F16800F0B9F90446E3E7000070B50D463F
:103B000008041AD50E48C0780FF06EFC04000FD0E0
:103B10002078B02809D1204608F0ECFB002804D01A
:103B200020462179083000F0B9FC20460FF034FC23
:103B300001212846C903484070BD002070BD000027
:103B400014430020FFB585B000200F9F0090087A35
:103B50000E9D1C460E46C0060BD5079808F0FCF9D2
:103B600003007DD00A22314605989847009000282E
:103B700016D13078022815D0079808F013FA0028DB
:103B8000EFD0006884460028EBD0119910982246A7
:103B90000097029101902B46314664460598A04754
:103BA00009B0F0BD7068292241780078090201430C
:103BB0001202881A91427CD00BDC6948081A13D093
:103BC000012811D0022817D00328D5D1002F53D0B7
:103BD0009BE001287ED002286DD0032877D00428EE
:103BE000CAD1002F68D090E0002F6FD1F068017823
:103BF00029800278416884E0002F67D1F06841781D
:103C000000780F02074304202880F06804A9007898
:103C10002070F06840786070384600F051F9060076
:103C200022D06846028A03AB4E493046F76800F05E
:103C3000A5F900280AD1337802214B487268FDF7B4
:103C4000BBFF002802D1474869468881387802289E
:103C50000CD10222201D79680FF08CFA288800E030
:103C60007CE0801C288001E0684687816846808966
:103C7000A070000AE0706FE001202880F068002149
:103C8000007820707089401C80B200F019F900287B
:103C900013D0298802788918891C2980817A61705B
:103CA0004189090AA17002784168E01C0FF062FAAC
:103CB00052E00CE00EE026E03BE028880422001DE4
:103CC00028800021601C0FF04BFB45E01DE0002F19
:103CD00027D01AE0F0680FF0D4FD80B2B84201D2CC
:103CE00007205DE7874201D1002006E01099C9193D
:103CF000814201D3C01B00E01098288082B2F06896
:103D0000C1192046D2E7002F01D00B2048E7F16807
:103D1000059800F02BF8022129802070000A6070BD
:103D20001AE002202880F06800782070F06840785F
:103D3000F5E70721F06829800178217041786170EA
:103D40008178A1704188090AE17001792171817936
:103D50006171C088000AA071009821E70E201FE75A
:103D600000280000FFFF0000E639010010B508F050
:103D7000FAF8002800D0807810BD0000F8B50C4C8F
:103D80000746A07815460E46FF280FD00A200FF0F0
:103D9000EFFA01000AD0B12008704F80002048706F
:103DA0000871CE800D81A0780FF056FBF8BD0000A1
:103DB0001443002070B50C4605460649FFF7D6FFB0
:103DC000800704D52146284600F02AFA70BD01205C
:103DD00070BD0000866700200EB56B461A81FE2379
:103DE000002201930092022302AA00F001F80EBD06
:103DF000FFB583B0174602A90D9E049800F060F845
:103E000004002AD06846008908F0CCF8002822D0A7
:103E10004568002D1FD00C98019600903A46214627
:103E2000069B0398A847050018D1FE2E16D02078CF
:103E3000022813D1606841780278080209491043CA
:103E400088420BD17878397802020A4304990398A2
:103E5000FFF794FF02E00E2500E00125284607B099
:103E6000F0BD00000229000070B514460E4605465C
:103E700008F079F8002806D13146054808F073F8B3
:103E8000002803D005808470002070BD112070BD13
:103E9000FFFF000010B50178B0290BD1417800294F
:103EA00008D10179122906D01B2903D140880121AC
:103EB00001F026F810BD417C0129F7D010BD0000AB
:103EC000F0B5104A536919E09C686589A84214D37B
:103ED0009E887219824210D900220CE017013F1906
:103EE0007F89874205D1002900D00D80100100197B
:103EF000F0BD521C92B2B242F0D31B68002BE3D14A
:103F00000020F0BD14430020FFB51B4883B0002300
:103F100045692DE0AE68002470890190A888009062
:103F200016E0210188194289039FBA420ED3049FEB
:103F3000BA420BD8069A002A0FD01346715C40682B
:103F4000059AFDF739FE002807D10023641CA4B2AE
:103F500000988442E5D3002B09D00C98002802D0A9
:103F60000C99019808802001801907B0F0BD2D68D8
:103F7000002DCFD10020F8E714430020FEB51746EE
:103F800000256A469580044640891D4A1E46904297
:103F900008D001AA0092401C237880B26268FFF723
:103FA000B3FF05462378022116486268FDF704FE38
:103FB000002807D12378022113486268FDF7FCFD31
:103FC000002801D060890EE0237802210F48626842
:103FD000FDF7F2FD00280DD0002D03D06846808843
:103FE000B84203D0384608F07DFE04E06889401EE0
:103FF00080B200E06089002E00D030802846FEBDEF
:10400000FFFF0000E4390100E6390100EA39010050
:10401000FFB583B00E461D46174601A9039807F069
:10402000BBFD040022D1002F0FD0694608803088E4
:10403000FFF746FF6946088800F02EF90146012285
:1040400003980AF0FBF8002811D131460398FDF7D8
:1040500059FE04000AD1FF2D08D0019B1E221946EB
:1040600004489B1C08F049FE0198C570204607B023
:10407000F0BD00004DCB000010B50446FDF758FE22
:104080000749FF20087048700020486088608C70E5
:104090000421204601F02AF800F004F810BD0000C9
:1040A0000843002070B500200D4D0E4B0446FF2242
:1040B000062141435D52C918CA708A70401C0C71B8
:1040C0000328F5DB0120C0431880074807F0FAFEFB
:1040D0000648FDF7B3FF06480AF012FA002070BD4B
:1040E000FFFF00007467002095CB000077CB000035
:1040F000CDCA0000F8B51C4615460E4607460AF024
:10410000C9F800280DD0017B074808292B46324604
:104110003946009403D0007807F054FDF8BD40788C
:10412000FAE70120F8BD000008430020F0B587B091
:104130000F46080470D5394EB0780FF055F90400D9
:1041400064D02078A0285ED10120694608732046FB
:10415000FDF740FE050041D16846807800280BD06D
:10416000142809D0152807D01A2805D01C2803D0F8
:1041700001461F3920290BD8B16800292ED0694685
:10418000497800292AD169460874062008751FE07D
:10419000C0070AD07368002B05D0608803AA69465F
:1041A000984705461AE0062518E0B368002B06D0AC
:1041B000608803AA69469847050001D10EE00625EC
:1041C00068464078002809D16946887808740D75DA
:1041D00000204882608804A9FDF72AFD6846007B1C
:1041E000002804D0A068002801D00FF033F8002D7B
:1041F00005D168468078122805D01B2803D1608835
:10420000012100F07DFE20460FF0C6F80120C0031A
:10421000784007B0F0BDFFE70020FAE70843002030
:10422000FEB50E46074600250223194A194901200A
:104230000095FFF769FE040027D02320009000239B
:1042400004221D21384600F0E3F8029000281AD01D
:104250006089694688800420C8800299012008701E
:104260000298334645700299FF2088700299002217
:10427000C87001A93846FFF7CBFE040006D00298AB
:104280000EF0E8FF02E0152400E001242046FEBD08
:10429000023A0100FFFF000000B507F039FC0028DA
:1042A00001D0807800BD102000BD00B507F030FCC3
:1042B000002800D0008800BD7CB50D46044609F0FA
:1042C000E9FF29462046FDF7BFFE002812D16846C7
:1042D0008580204609F0DEFF00280BD0027B01A973
:1042E0000748082A009106D07F2300222146007843
:1042F00007F068FC7CBD7F23002221464078F7E769
:104300000843002010B504460B4688060DD510461C
:10431000FFF7C2FF01460122204609F08FFF052862
:1043200001D00F2800D1082010BD882003420CD0F6
:104330001046FFF7B1FF0146180701D5012200E042
:104340000022204609F07AFF10BD880701D5002021
:1043500010BD032010BD10B50346C8060DD510468C
:10436000FFF79AFF01460122184609F067FF05286A
:1043700001D00F2800D1082010BD480705D51046F0
:10438000FFF78AFF0146012206E0480608D51046DD
:10439000FFF782FF01460022184609F04FFF10BDCB
:1043A000C80701D0002010BD022010BD70B51D4609
:1043B00003460C4688060DD51046FFF76DFF0146F3
:1043C0000122184609F03AFF052801D00F2800D134
:1043D000082070BD8820044214D01046FFF75CFF0F
:1043E0000146200701D5012200E00022184609F00D
:1043F00025FF002808D0697A0029EAD0297A002907
:1044000002D170BD880701D5002070BD032070BDAA
:10441000F8B5069F1E461546162928D00CDC09293A
:104420001FD004DC05291CD0062911D11BE011295D
:1044300017D012290CD118E01D2916D004DC172939
:1044400015D01B2904D110E052290ED0D2290CD04E
:104450000124114A95420CD1FDF744FC001B85B2A2
:104460000BE00224F5E70724F3E70324F1E7052432
:10447000EFE7D22901D10C35ADB2601980B23946CF
:1044800000F090FE002805D0002E00D0358061425B
:104490000EF01EFEF8BD0000FFFF000010B507F093
:1044A00047FB002801D00EF0D5FE10BDF0B500216D
:1044B0003D4C0222A1603D4D227008462954401C0B
:1044C00080B21628FAD36270374BE180A270502078
:1044D0000C331880A0205880184681807D20C000B1
:1044E000D880E2700123304823716171143002706A
:1044F0002F4C4460037241812E4CC4600646027406
:104500002D4F77613446337671831034143EE66064
:10451000202402550646294F34197762237271858B
:10452000F562302402550546234E6E632C19237222
:104530006987133DE560402402550546204E6E64B0
:104540002C19237261810E3DE56050240255054609
:10455000194E2C196E6523726181123DE56060244D
:1045600002550546174E6E662C1923726181083D6F
:10457000E5607024025505460F4E2C196E672372B4
:104580006181113DE560802402550F4A8030426010
:10459000037241816A1CC2600C48A03210600C4852
:1045A000506010468160F0BD4C440020306800200F
:1045B000E4390100D8390100EA390100F839010075
:1045C000FA390100003A01000A3A0100C1CD0000A9
:1045D00009CF000070B51646214A0D461146002449
:1045E0001431030004F0D2FD0A06133838183821BC
:1045F00028383138152D2AD81622002119480EF0F6
:10460000AFFE2A46314617480EF0B4FD25E0022DD4
:104610001DD13088D08020E0082D18D11048082204
:1046200031460C30FCF7EBFE17E0012D0FD1CA69C3
:104630000B4930783C3105E0012D08D1CA6B08499F
:1046400030785C3108F028FC07E0012D01D01824F7
:1046500003E03078107100E00224204670BD0000B5
:104660004C44002030680020704710B500F000F97D
:1046700010BD10B500F01CF910BD10B500F030F9F8
:1046800010BD10B5FDF78EF810BD10B500F03CF967
:1046900010BD10B500F050F910BD10B500F066F96E
:1046A00010BD10B5FDF788F8002010BD10B5FDF75E
:1046B0009DF810BD10B5FDF7A9F810BD7CB5069C9E
:1046C000079DC0B20195009400F066F97CBD10B55D
:1046D000FDF7ACF810BD10B5FDF7B8F810BDFEB58C
:1046E00008AF70CF6F4670C7FDF7C0F8FEBDF0B5DC
:1046F00085B084460AA8F1C804976F4671C7604622
:1047000000F07AF905B0F0BD38B5049C009400F0D3
:10471000B3F938BD10B5FDF7B9F810BD38B5049C34
:10472000009400F0C7F938BD7CB5069C079DC0B267
:104730000195009400F0DCF97CBDFFB587B094468C
:104740008E4610A8F7C806976F4677C7624671462F
:10475000079800F003FA0BB0F0BD10B500F058FA5E
:1047600010BD10B5FDF7A0F810BD10B5FDF7AEF8FF
:1047700010BD10B5FDF7BCF810BD10B5FDF7C8F8B9
:1047800010BD10B500F062FA10BD10B5FDF7D2F8FB
:1047900010BDFEB508AF70CF6F4670C7FDF7DCF8EF
:1047A000FEBD38B5049C009400F06EFA38BD10B51B
:1047B000FDF7ECF810BD10B5FDF7F8F810BDF0B539
:1047C00085B00AACF0CC03976F4670C7FDF7FEF8D2
:1047D00005B0F0BD10B5FDF70FF910BD10B5FDF730
:1047E0001BF910BD10B5FDF727F910BD70B5547851
:1047F000157822022A43FDF72FF970BD10B5FDF799
:1048000083F910BD10B500F05DFA10BD38B5049CF9
:10481000009400F06FFA38BD38B5049C009400F0A5
:1048200017FB38BD10B500F081FA10BD10B5FDF7CB
:104830006FF910BD10B505280ED90C4CA0420BD253
:10484000A14209D2814207D3FF20F530824203D230
:10485000092B01D9A34201D3002010BD521C4A43A9
:10486000D8008242F8DA012010BD0000810C00005F
:10487000F8B50746084616460D460C300EF078FD92
:10488000040011D0912020700E206070A570204689
:10489000A7800C302A463146A0600EF06BFC03481E
:1048A000214600780EF0D8FDF8BD00002644002017
:1048B00070B505460C4606200EF05AFD01000BD0DF
:1048C000912008700F2048708D700120C870034837
:1048D0008C8000780EF0C0FD70BD000026440020E2
:1048E00010B5044603200EF043FD010008D09120CE
:1048F00008701A20487003488C7000780EF0ACFDE8
:1049000010BD00002644002070B5064614460D4632
:1049100008200EF02DFD01000AD09120087005201E
:1049200048708E708D8003488C7100780EF094FD75
:1049300070BD00002644002070B5064614460D46A2
:1049400008200EF015FD01000CD0922008703E20CA
:104950004870082088708D808E710348CC718078F3
:104960000EF07AFD70BD00002644002070B50546AB
:104970000C4606200EF0FCFC010009D091200870C6
:10498000302048708D7003488C8000780EF064FDF4
:1049900070BD000026440020FFB581B01E460F46C2
:1049A00031200EF0E5FC040022D0912020703E2042
:1049B00060700220A0700120E0702046083005469B
:1049C0006060019828706F700622A81C03990EF091
:1049D000D1FB2E722846324609300A990EF0CAFBE6
:1049E00020350B9828720348214600780EF034FDDC
:1049F00005B0F0BD26440020FFB5064681B017463D
:104A00000D4616200EF0B4FC04002FD0912020702B
:104A10003E2060700120A07030460026002808D09B
:104A20003120E07020460622002108300EF098FC6C
:104A300006E0E6702046062208300A990EF09AFB3E
:104A4000A580A7710498E0710B98E0810C982082F2
:104A50000D9860820E9820750548214600780EF06A
:104A6000FBFC082D02D2034968000E5205B0F0BDD0
:104A70002644002092670020F8B507461C461546DC
:104A80000E460C200EF074FC01000FD0912008702F
:104A90003E20487003208870CF708E80CD800C81BE
:104AA00006984881024800780EF0D6FCF8BD000058
:104AB00026440020F8B507461C4615460E460E2033
:104AC0000EF056FC01000FD0912008703E20487077
:104AD000072088708F80CE800D814C810698888158
:104AE000024800780EF0B8FCF8BD00002644002013
:104AF000FFB581B01F4618200EF03AFC050028D003
:104B0000912028703E2068700B20A87001202C4650
:104B10000834E87000266C6001982070029860707C
:104B20000622A01C03990EF025FB277220460622C0
:104B300009300A990EF01EFB0B98E073761CE8789A
:104B4000F6B21034B042E7D80348294600780EF098
:104B500083FC05B0F0BD000026440020FFB50646EA
:104B600081B017460D4622200EF002FC040048D00A
:104B7000912020703E2060700A20A07030460026F0
:104B8000002814D03120E070204606220021083091
:104B90000EF0E6FB2046062200210E300EF0E0FB70
:104BA00020460622002114300EF0DAFB12E0E670F7
:104BB0002046062208300A990EF0DCFA204606222A
:104BC0000E300B990EF0D6FA2046062214300C99BE
:104BD0000EF0D0FAA580A7710498E0710D9860835B
:104BE0000E98A0830F98E08320211098085506485E
:104BF000214600780EF030FC082D02D203496800EF
:104C00000E5205B0F0BD000026440020926700203F
:104C1000F8B5064615460F4610200EF0A9FB040015
:104C200011D0922020703E2060700520A070A680D8
:104C300008223946A01D0EF09DFA0348E5818078D0
:104C400021460EF009FCF8BD26440020F8B50646C2
:104C500017460D460E200EF08BFB040011D092205B
:104C600020703E2060700420A070E670A5800822AD
:104C70003946A01D0EF07EFA0248214600780EF05B
:104C8000EBFBF8BD26440020F8B507461C46154648
:104C90000E460E200EF06CFB01000FD09120087024
:104CA0003E204870062088708F80CE800D814C8118
:104CB00006988881024800780EF0CEFBF8BD00000F
:104CC0002644002070B514460D4608200EF050FB17
:104CD00001000BD0902008701320487001208870CC
:104CE0008D800348CC8000780EF0B6FB70BD0000CC
:104CF0008C430020F8B507461C4615460E460C208E
:104D00000EF036FB01000DD0912008700C20487089
:104D10008F708E808D710C810698488102480078D2
:104D20000EF09AFBF8BD000026440020FFB581B0CC
:104D3000444E02990025F068174602292CD0B1880C
:104D400000297CD07288CB19121D934271D840186B
:104D50003A4604990EF00EFAB088C01980B2B080BD
:104D60007188091D88425CD10C200EF001FB010006
:104D70005ED090200870FF20487001984880022083
:104D80000871B088C880F06888602F4800780EF0FD
:104D900063FBB580357044E004994A780B781102C2
:104DA00019433A1F7180914222D10C200EF0E0FA93
:104DB00004003BD090202070FF206070019860803C
:104DC00002982071E780214938460EF0EFF9A06083
:104DD000002809D03A4604990EF0CCF91A48214629
:104DE00000780EF039FB1CE020460EF033FA1DE08F
:104DF00091421BDD3178002903D0002801D00EF04C
:104E000029FA70881149001D80B20EF0CFF9F060C8
:104E1000002814D03A4604990EF0ACF9B78001206E
:104E20003070002005B0F0BD09E002E0B58006E07A
:104E3000F068002801D00EF00DFAB5803570012021
:104E4000F0E70000204400208C4300200180000097
:104E5000FFB583B01C4615460E460C9F039809F01B
:104E600019FA002809D06846068045808480C780EA
:104E7000FF226946039800F00FF807B0F0BD00006C
:104E800008B51346034A00920A46012108F0A4FF20
:104E900008BD0000C1D000003EB5002301920424EB
:104EA00002930A460094024B122109F0A1F83EBD7C
:104EB00067D1000008B51346034A00920A46132141
:104EC00008F08AFF08BD000093D100001FB56946B5
:104ED000C8810022FF2103206C4607C4034B03AAAC
:104EE0000621034809F084F804B010BD37D1000052
:104EF000FFFF000001484089704700008443002004
:104F000013B504484079012803D101AA6946FFF787
:104F1000C8FB1CBD8443002070B50025254C302201
:104F200025706570E57025716571A571E571658104
:104F300025612072294620480EF012FA09F04EFA37
:104F400026460C36307800280ED000011B490EF0A2
:104F50002DF96061002807D0717821713178E170F6
:104F60000A0100210EF0FCF915482179007840185B
:104F7000C0B2124920700001491C0EF017F92061DF
:104F8000002811D021780A0100210EF0E9F9002053
:104F9000FF2105E023690201D218401C5172C0B202
:104FA00022789042F6D301E025702571054809F07A
:104FB000A7FA70BD84430020A4670020044C0000C1
:104FC0009C43002005D500000A2A01D0012070472B
:104FD0004A780B7812021A430280CA788B78120240
:104FE0001A4342804A790B7912021A438280CA79A5
:104FF0008B7912021A43C2804A7A0B7A1102194342
:10500000018100207047042A01D0012070474A78AE
:105010000B7812021A430280CA788B781102194366
:10502000418000207047082A01D0012070474A784B
:105030000B7812021A430280CA788B7812021A4344
:1050400042804A790B7912021A438280CA798B799D
:1050500011021943C180002070470000F8B5214EAD
:105060000D4608042ED5307A0EF0BEF904000BD0A0
:105070002078902805D16078132808D0204608F0C1
:10508000A9FD20460EF088F90120C00328E016494A
:105090000020097CA7780BE04200121992797378FE
:1050A000D218D2B27270914200D27170401CC0B25C
:1050B0008742F1D870780028E3D00121307A0EF0D1
:1050C0001DFADEE7E8070CD008F072FF002806D0D2
:1050D0007078002803D00121307A0EF00FFA0120F9
:1050E0006840F8BD8443002050650020042907D0A3
:1050F000052905D0062903D0072901D002207047D1
:105100000C22044B4A43D218403A1182907400207A
:1051100070470000A467002070B50C46098805465A
:10512000042905D0052903D0062901D0072929D152
:105130006068002826D00121284609F015FA0028C9
:105140001ED0284609F07CF90F498D420BD000286B
:1051500009D12189002906D9208806280ED10B48BB
:10516000008881420AD20A480078002804D02146EB
:10517000284608F071F870BD162070BD1B2070BD68
:10518000142070BD022070BDFEFF00008E43002081
:1051900085430020024A001F508151709170704772
:1051A0008443002010B5001D80B205490DF0FEFFBC
:1051B000002803D00321C9430DF08AFF10BD000071
:1051C000034C00000C480B4A0068918841610A2199
:1051D000C16141623223C3624163C3639388436404
:1051E000C1641189816541681F22114341600349EF
:1051F000C160704784650020544200201F030000F6
:1052000070B515461C46214A0B46916B90B000299B
:1052100002D0097B002934D1116C002902D0C97950
:1052200000292ED1916C002902D0C979002928D1FA
:10523000164940318E8E16498988890A8E4202D3DA
:10524000072010B070BD11496031097F490618D59B
:105250006946C8700622194601A80DF08BFF0AA8FE
:105260001022294602300DF085FF06A810222146A3
:1052700002300DF07FFF684601F0E6FC801B01283C
:1052800001D00C20DDE70020DBE700003C660020B9
:10529000506500201CB51B4B9A6B002A05D0147B6F
:1052A000002C02D0D27A002A11D11A6C002A05D023
:1052B000D479002C02D0127BD20708D19A6C002A34
:1052C00007D0D379002B04D0D27B002A01D0122042
:1052D0001CBD0C4A0C4B40329B88928D9B0A9A4213
:1052E0000BD26A46507000A8062202300DF042FF31
:1052F000684602F02BFB012801D007201CBD0020CE
:105300001CBD00003C66002050650020F0B51F4C1D
:1053100089B00D4606462146002004F058F90028C1
:10532000F9D0A042F7D0002104460120800527468D
:105330000743009101910291039104910591069117
:1053400007916A46D773390A9173390C5173304605
:1053500004AA694600F09BFC6A46907F517F0002D8
:1053600009044018D17F40182870010A6970000CA8
:10537000A8700121200A89030843EF702871200CCE
:1053800040210843687109B0F0BD0000FFFF3F00F5
:10539000F8B544490D468035C86A2877020A6A770D
:1053A000000CA877886AE877010A2C46203421701F
:1053B000000C60703C49002004F0FAF80026074613
:1053C000711E304604F003F930433A460AE00020EB
:1053D00004F0EEF800270646791E384604F0F7F888
:1053E00038433246930430499B0C0343EFD0D643F5
:1053F000C3430E403343EAD0FF231B020340207215
:105400001B0A6372FF231B0403401B0CA372000ED4
:10541000E0722273100AC0221043607301200090D2
:105420002149002004F0C4F800270646791E3846BA
:1054300004F0CDF80146394330460A460243EFD026
:10544000194BCA4343401A43EAD0FF230A461B02C2
:105450001A40130A0A46FF273F043A40CEB2A67309
:10546000C7B2E373120C2274090E61748004A7742E
:10547000800EBC46E0742F7FBE4211D16E7FB342D6
:105480000ED1AB7F9A420BD1EA7F914208D12278AC
:10549000944505D16178884202D100980028BFD197
:1054A000F8BD00003C660020FF3F000010B500F092
:1054B00007F882228021002001F0B0FB10BD00001F
:1054C00010B50B48846B04F04DF900202073A072D6
:1054D0002071084C0121E0780EF0C0F9E07802213B
:1054E0000EF0BCF9E07804210EF0B8F910BD000010
:1054F0003C6600208465002070B504460820607278
:10550000EC200059002818D05A21228F095BE61D93
:105510005118F9360A31F18105460120A87031464B
:1055200005220931E81C0DF025FEF0892872000AD9
:10553000687222206073002070BD012070BD10B51C
:1055400001F03AFC002010BD10B51149886B00280D
:1055500005D0027B002A02D0C07A002811D1086C45
:10556000002805D0C279002A02D0007BC00708D1EC
:10557000886C002807D0C179002904D0C07B00289E
:1055800001D0122010BD02F019FA002010BD000059
:105590003C660020FFB581B00D4600F093FA040090
:1055A00022D01920C00185421ED8062D1CD3039994
:1055B000814219D8A94217D3FF220499F4329142AB
:1055C00012D80A9981420FD80498C900401C684338
:1055D000814209DDA07BC00706D126468036B1682E
:1055E000480701D4880702D5122005B0F0BD204637
:1055F0004030C585039A02860B9A42860C9A8286B1
:10560000049A82820A9A0746C282E079022200281E
:10561000A07E02D000282ED037E0002835D1E4202B
:10562000005D800702D51143B16022E003988542F6
:105630000BD028184108284603F0BAFF788221468B
:105640005231039809F034FF00E07D821048006E6B
:10565000411C042901D9042000E0401CF8732046B5
:1056600009F0D0FE208F04210A303883B068084347
:10567000B060122008E0E420005D800701D41A2009
:10568000B3E711431320B160A0760020ADE700001E
:105690003C660020017A4A07D30FF0221258127894
:1056A0001207D20F934204D104225140017200200C
:1056B000704701207047017A0A07D30FF022125871
:1056C00012785207D20F934204D00822514001723F
:1056D0000020704701207047F8B5064600210846B3
:1056E00003F0B8FB184F386800282AD01748006E1E
:1056F000012826D198208159308E0025814201D37E
:105700000C1A02E0091A12480C1812480068804767
:10571000A04203D9011B06D5844201D3251A02E019
:10572000211A0B480D180C48807F4008A84205D26A
:105730007D21281AC9004843400900E0002039684B
:105740008847B0203073F8BDC04200203C6600207E
:105750000000C0A850420020506500200146803162
:10576000CA6C521CCA640A6D01D1521C0A65120629
:1057700003D50122CA6400220A652030C1784A0696
:1057800002D520221143C1707047000070B5054654
:10579000FF2000022C468034616F05E0CA89024375
:1057A000CA81616F096861670029F7D1E16F00293B
:1057B00006D0CA890243CA81E16F0968E167F6E74A
:1057C000E06E002801D00DF045FD2C4620346078B5
:1057D000FF2801D00EF01EF82078FF2801D00EF02F
:1057E00019F8A078FF2801D00EF014F8A88800F06E
:1057F000E9F80848806800280BD00748006E0028A8
:1058000007D1064CE069002803D00DF023FD0020ED
:10581000E06170BD506500203C660020846500207A
:1058200070B504461C480E46C16D0025A14200D14A
:10583000C565FC200059002804D0A08800228021E2
:1058400001F0ECF9E08F002804D0A0881322812118
:1058500001F0E4F9A0880522812101F0DFF9A571AA
:1058600065734E200655E079002807D109F0AAFBA0
:10587000012803D80121002003F0ECFAE079012887
:1058800007D109F0ADFB012803D80221002003F065
:10589000E1FA002070BD00003C6600200146803126
:1058A0004A6C521C4A648A6C01D1521C8A641206EA
:1058B00003D501224A6400228A642322125C520624
:1058C00009D5028F40304388D218028001228868AF
:1058D000920290438860704770B504461820607249
:1058E000EC20005900282BD00F2181702146403137
:1058F000CA8DC270120A02710A8E4271120AC31C4A
:1059000082711D468A8A2A71120A6A71CA8A427293
:10591000120A82728A7FC272098C0173090A41736A
:1059200021460C2262310E300DF024FC204620303E
:10593000C17804221143C17092206073002070BDB1
:10594000012070BD30B50C214172EC210A58002AAB
:1059500033D0014602234031CB730C8B038F9C4222
:1059600002D3E41A062C0CDA154C246E651C042DA7
:1059700001D9042400E0641CCC734C8B1B19083340
:105980000B8300239370CB7BD3700B8A13711B0A9C
:1059900053714B8A93711B0AD3718B8A13721B0A42
:1059A0005372CB8A93721B0AD372098B1173090A43
:1059B000517312214173002030BD012030BD000021
:1059C0003C66002070B5164C0346206D002102464F
:1059D0000D461CE0FF265D36365A9E4215D1002941
:1059E00004D0626D824204D1616504E011682165D2
:1059F00001E002680A600DF02DFC606D0560206E0C
:105A0000002809D0401E206604E0014600680028F6
:105A1000E0D1206E002802D100F004F8256570BDA9
:105A20003C66002070B5064D6C6B03E020460DF01F
:105A300011FC2468002CF9D10020686370BD0000BF
:105A40003C660020F8B51C4E706B002832D1348CB7
:105A50001A48213404401A4D2146287C1031401C3C
:105A6000484380B21B210DF0A1FB002822D07063B7
:105A7000297C124E09010A1800218C3E0F46103273
:105A800014E0002909D0C681426087812B7C8B42BB
:105A900007D903461033036004E0084B8E3BC381F3
:105AA000F2E70760491C121989B210302B7C5B1C8D
:105AB0008B42E6D8F8BD00003C660020E0FF000005
:105AC0005065002001460648006D05E0FF225D326A
:105AD000125A8A4202D000680028F7D170470000AD
